:100000000C949D070C94D5070C94D5070C94D50738
:100010000C94D5070C94D5070C94D5070C94D507F0
:100020000C94D5070C94D5070C947A2B0C94362B92
:100030000C94CD2C0C94D5070C94D5070C94D507B3
:100040000C94D5070C94D5070C94D5070C94D507C0
:100050000C94D5070C94A92C0C94D5070C94D507B7
:100060000C94D5070C94D5070C94D5070C94D507A0
:100070000C94D5070C94D5070C94D5070C94D50790
:100080000C94D5070C94D5070C94D5070C94D50780
:100090000C94D5070C94D5070C94D5070C94D50770
:1000A0000C94D5070C94D5070C94D5070631FF099D
:1000B00074A1010975150026FF00952075088102BD
:1000C0000976150026FF00952075089102C00501EC
:1000D0000980A101850319012AB700150126B7007F
:1000E000950175108100C0050C0901A10185041955
:1000F000012AA002150126A002950175108100C0F9
:1001000005010906A1018506050719E029E7150083
:1001100025019508750181020507190029EF1500D1
:10012000250195F07501810205081901290595053C
:1001300075019102950175039101C00660FF096187
:10014000A1010962150026FF0095207508810209AA
:1001500063150026FF00952075089102C00501096E
:1001600006A101050719E029E71500250195087585
:100170000181029501750881010507190029FF1504
:100180000026FF009506750881000508190129055C
:10019000950575019102950175039101C04B4C3A8B
:1001A000206B633A203078253034582C20636F6CF4
:1001B0003A2025752C20726F773A2025752C2070F7
:1001C0007265737365643A202531752C2074696DEE
:1001D000653A2025752C20696E746572727570748D
:1001E0003A202531752C20636F756E743A20257581
:1001F0000A003A7468756D627375703A01012800DF
:100200003A636F6C645F666163653A010128003A86
:1002100073776561745F736D696C653A01012800DD
:100220003A707261795F746F6E65323A010128002D
:100230003A706570655F706F673A010128003A6E29
:100240006963657E323A010128003A6A6F793A01A2
:100250000128003A736D696C65795F6B656B773A5D
:10026000010128003A6D7573636C653A010128003D
:100270003A706570655F6B696E673A010128003AF4
:10028000736D696C65795F737069743A0101280058
:100290003A736D696C65795F6665646F72613A0186
:1002A0000128003A736D696C65795F74616B653A1A
:1002B000010128003A64726F6F6C696E675F666156
:1002C00063653A010128003A68656172743A010178
:1002D00028003A736D696C65795F636174313A0126
:1002E0000128003A736D696C65795F636174323A15
:1002F000010128003A7375727072697365643A017E
:100300000128003A6F6F663A010128003A74686963
:10031000733A01012800010153002900280001025D
:10032000E201012B0103E2003030000102E077011D
:1003300003E0000102E201013D0103E2000102E0ED
:100340000102E2740103E20103E0000102E00102A4
:10035000E2670103E20103E0000102E00102E201C1
:1003600001290103E20103E0000102E00102E501CD
:1003700001290103E50103E00001013B0102E076F0
:100380000103E00001013B0102E061780103E000AC
:1003900001013B0102E061630103E0000102E301AE
:1003A00002E1730103E10103E3000102E3650103DC
:1003B000E3000102E3640103E3000102E301012B16
:1003C000740103E3000102E30102E00101500103B3
:1003D000E00103E3000102E30102E001014F010338
:1003E000E00103E30054455354005B735D000A00D1
:1003F0002530313662003A200025303258000A722A
:100400002F63203031323334353637383941424367
:100410004445460A00FD377A585A000004E6D6B42F
:10042000460200210116000000742FE5A3E018E049
:1004300005945D003D8889C65436C3174FE4FE22FB
:10044000C30D3F4AB07F916E3312C61795BA26D0BE
:10045000DBEB1D9EAFA0CA13F0F97C5162295A5DF7
:10046000246B8239082DF66F96FEF5FEBF40AB2453
:10047000BC3EE14F9D8E52925B65AEFB05710C63F5
:10048000619B5BC384F36EAF1F01F49763B45FF6A7
:1004900017A902F29B3D5006A2FE9BA2F7BAC769BC
:1004A0007A7840D6499D69AAB3A515F0EEAA134003
:1004B00030EE290BBA62477281110C08E068F2BD78
:1004C000A963B2C54043FFA3BB1839E4AF44A77981
:1004D000FC80C7EDD647B3ABA7E8F7859227282362
:1004E00025ED239E987F311CFB4347BAE2E778DC79
:1004F0002A5C947959632E4B90195F5EB262B50CF9
:1005000021586AEBD574ED334C5CF049C299222D29
:10051000AADFB870D2017B4E6DCD3F935414EA3BF5
:1005200097D607E7F9FADFB9B10F29E57B15E9128C
:10053000F22EE6C459116CF658DCF1AF0739DE83B0
:10054000ACF1098FC1063169E318ADD0D4ECC78E88
:1005500033A5B8124DE17E5C21D7855628304C4F2B
:10056000B07B6088A42A0D509DD81420324F3E25C0
:100570008EEBDD84C2720F1E52A68D15F4469B23AE
:10058000C138BECEFF65EA64571D1EB8759A23D4E4
:100590009FDA89DA0D7B5636B6D7CDEE47748D0DCE
:1005A0001EC953D105E1AC44278474F7DC07E0DDB4
:1005B0002D56153DA0A559C552B1F4FAE93663A8E8
:1005C0001ED5CCE4799E337EDDC38A77B897F88058
:1005D0004E2CFF4560FF7BD7583D5F3E4D0C0D080C
:1005E00033E40F983965929F18F2F6D4351977BD28
:1005F00019535AFB661CB934C005B581FF1EAF867E
:10060000C115415A6124F820D625F8F7B1F3924E6E
:10061000381B34B974F6192967635955719C78EE03
:10062000ABE9F13FF73ED3045A216FFD23C8D58EC5
:10063000F807C97ACF9C80F7D4CE3E9AC410027CCA
:10064000ADAEBE12192820290BC29F7F81066AF227
:1006500045C0060F19F3EDF43DBDBB632565DF040E
:10066000A8542FE4E93B29FECCA95CF1F3BD4E234D
:10067000AF3C7879CC20FA36EE1EF250D596EECC0F
:10068000882B39700521FB17B5DA3D99F16AD4271B
:100690003FEB81EED86D0F94040F57D24DCC3F9EA7
:1006A0009A06D6BA75A9CB171B696D37908A873F12
:1006B000E46CBB7DCACEE5D5266C70F075A7347F9F
:1006C000621E3B5C65A0EF4BC6F1C52B9213938372
:1006D0006598DBE36ED83254728F7AAEE3CCC327D1
:1006E00029BA6726C61717B16183196BF0FAB57E70
:1006F000036E21311D4569A661AD644931ECB51D1C
:10070000C4E367DF4B2CDB3564007AC77751D083B5
:100710006A018B411507021C289C777D75C041C07A
:1007200056A22D28682000DF1CD0C02E3D05195888
:10073000E6AD874154C75427F859BA6B00D8F6A4E0
:10074000A11506EB41CE2327E6EB8E9EBFE60206FF
:10075000E9F7DCF868F0ED31EE2AD274228DA98237
:10076000C0C61AAF1FA03FFD569CE947E745F059A8
:10077000C9A9E0FC39F5014461D2CEEA8413A2C3D1
:100780001DFE00C096DDC097B90CE2EB5D006E5413
:10079000B73F254077B2CC20F08AFAFB1DE4B23A8D
:1007A000BE3AE3B847BF354762A3F7613F9A9D7DE4
:1007B000F3BA35AC9EE5194C2DEA28986B52FE90A1
:1007C000A0D0AF6B7A5F3914F4C117796ED1478727
:1007D00014F54799BBEADB4157FAD71952F0EF1BE2
:1007E0006CB88D17E7A01A3E40C3F5ED3574D3D32E
:1007F0003F023090E92347972F583F97C107D0B069
:1008000049487E6322DDC658F85C342000D29F89B7
:1008100023EE50159EC47191471D6DDE9A2A8C6996
:100820005FC3DA664FAA6BCF4DA23FC032638582A9
:10083000C2ECF7B340812A54EF42B799926D7CDF46
:10084000BEDF423E9AAC9C90C4CBABA00D35FCDA27
:10085000963279D7125A78F7938C3E5479114332F5
:100860005863E568A0321876462DBF27D16DD4F4C1
:10087000F39AEB75061F7413DC5ECD5DC523871FED
:10088000439508C7A185C7416AF7E9D138AF547EBF
:100890009166E66EB82D553A64A106899E02F491E0
:1008A000D6880131AC4FAE5875553866E59D81024A
:1008B000492777F443D4139CBD9BEB658DA00B5463
:1008C00025B99D4CD6FB0A842B49FADCF92B2B8EDB
:1008D00051F15F03BDB7264E70876BDC57B96A7C58
:1008E00083EEF9BEBA6709DCD64B49D6F8681DA776
:1008F000CCBEB334F7E51DBC83514F2E148A53ECA4
:1009000078A67CE34BE429D74ED1749A833B09FA4D
:10091000C91DEF7B0914DB6FAC5A3A33113C9309C4
:1009200055287E40B29AB9A097859D43F7589F9C61
:100930009B1763952A722A9D7ED927E1DF4C5AB115
:10094000955B7AC77A01F93B8D4B7D1A36B5F80B6A
:100950001FBC0459B5C7134FCB61E2C47C8E7AE546
:1009600036F4C49E41792601FD13A888F0637747C9
:1009700073AB817BF158E321D3EA7762B7156962E3
:100980004149274275957024BF6335AC74C1D7EDDA
:100990001D6692FF9C3CCDD8EAA23BCCA137B1F8B2
:1009A0003D00A47C04D6F57D4C04F4670D7AFFE687
:1009B00094C0C2F99399405F40EA7AB01163EE8225
:1009C000166A097F31CBF100009349C75B2F0DDD1B
:1009D000590001B00BE1310000435F25E5B1C46768
:1009E000FB020000000004595A8D5F29001F0021FE
:1009F00000230026002D002A00025356008A5F1EA5
:100A00000020002200240027002E003500010001F4
:100A100053065D2B001A0015001C0025001300284A
:100A20000052004B00075D14000800170018000C6E
:100A3000002F0030004A005700855F040007000ABD
:100A4000000D0012003400010050004F00865FE0EE
:100A500000160009000B000F0033003100010058A0
:100A600000875FE1001D00060005000E003800E56C
:100A70000051004E00895F01001B00190011003673
:100A800000010001004D004C00815F035101002C6A
:100A900000100037003900490001000100825FE2C8
:100AA0000001000000000000000000000000000144
:100AB000000100010001000100010001000100012E
:100AC000000100010001000100010001000100011E
:100AD000000100010001000100010001000100010E
:100AE00000010001000100010001000100010001FE
:100AF00000010001000100010001000100010001EE
:100B000000010001000100010001000100010001DD
:100B100000010001000100010001000100010001CD
:100B200000010001000100010001000100010001BD
:100B300000010001000100010001000100010001AD
:100B4000000100010001000100010001000100019D
:100B5000000100010001000100010001000100018D
:100B60000001000100010001000100000000000080
:100B70000000000000000001000100010001000170
:100B8000000100010001000100010001000100015D
:100B9000000100010001000100010001000100014D
:100BA000000100010001000100010001000100013D
:100BB00000250026000100010001000100010001E4
:100BC00000010001002400010001000100010001FA
:100BD00000010001000100010021002300010001CB
:100BE00000010001000100010001000100220001DC
:100BF00000010001000100010001000100010001ED
:100C0000001F00200001000100010001000100019F
:100C100000010001001E006300010001000100014D
:100C20000001000100010027000100010001000196
:100C300000010000000000000000000000000001B2
:100C400000005C005C3B003D003F00420044004C63
:100C5000000100295C01003A003C003E00400043D6
:100C600000450001000100285C035D0100945F96CF
:100C70005F985F41009C5F0100835F0100045D930A
:100C80005F955F975F995F9A5F0100010001000126
:100C900000010004010701010001009B5FA90001A0
:100CA00000825F815F01000100160109010100015E
:100CB00000AA0001008D5F0100010001001B011965
:100CC0000101000100AE000100845F010001001D70
:100CD00001060101000100AC00010001000100015A
:100CE0000001000100010001000100AB0001000152
:100CF00000010001000100E300010000000000000D
:100D000000000000000000010001000100ED06E607
:100D1000101911000002000200E906E61019110086
:100D20000003000100EE06E61019110000040002A5
:100D300000D306E6101911260B05000100EF06E6A8
:100D4000101911000006000200D506E61019110066
:100D50000007000200EB06E6101911000008000170
:100D600000F006E6101911000012000200F106E67C
:100D7000101911000013000200F306E6101911000B
:100D80000014000100F506E610191100001500001E
:100D9000000000AC0A4C170000000000000000003A
:100DA0000000000000000000000000000000000043
:100DB000000000000000000000000000007E0F00A6
:100DC000D4FFFFFFC7000000780000000000000013
:100DD000002A2B2800000000000000000000000096
:100DE0000000000029000000002C1E3420212224D5
:100DF000342627252E362D3738271E1F2021222363
:100E00002425263333362E37381F040506070809F4
:100E10000A0B0C0D0E0F10111213141516171819BA
:100E20001A1B1C1D2F3130232D3504050607080918
:100E30000A0B0C0D0E0F101112131415161718199A
:100E40001A1B1C1D2F3130354C5B435D005B445D2C
:100E5000005B535D005B575D005B525D0009027BE8
:100E600000040100A0FA09040000010301010009C7
:100E7000211101000122400007058103080001093A
:100E800004010002030000000921110100012222D7
:100E90000007058203200001070503032000010964
:100EA0000402000103000000092111010001226D6C
:100EB0000007058403200001090403000203000069
:100EC00000092111010001222200070585032000ED
:100ED00001070505032000011201000200000008BF
:100EE000817204000100010203011C037600690005
:100EF00061006C003A006600360034006300320086
:100F0000620033006300000012035A0065006E00A7
:100F100069007400680061006C0000001803410063
:100F20006C00650063007400610072006400790069
:100F30003900380000000403090411241FBECFEF5C
:100F4000DAE0DEBFCDBF04B603FE18C08091CE0745
:100F50009091CF07A091D007B091D1078730904BE7
:100F6000A740B04B59F41092CE071092CF071092C1
:100F7000D0071092D107E0E0F8E3099511E0A0E076
:100F8000B1E0EAE7F7E602C005900D92A837B10795
:100F9000D9F727E0A8E7B1E001C01D92AE3CB20747
:100FA000E1F70E94F42C0C9470330C940000FF9332
:100FB000EF93E0917801F0917901309709F009956C
:100FC000EF91FF910895FC018591803011F0EFDFE2
:100FD000FBCF0895FF27E0E230E247FF0CC04195C8
:100FE00097FF09C0EDE26095709580959095611D21
:100FF000711D811D911D27FF02C0219530E350E234
:10100000AA27660F771F881F991FAA1FA41710F021
:10101000A41B63955A95A9F7AA3008F0A95FA05DB3
:10102000AF93F395611571058105910541F7ED3297
:1010300011F4EF93F395F21718F43F93F395FBCF68
:101040008F91B5DFFA95E1F70895E991F9918591CE
:10105000803021F0853219F0AADFF9CF089520E021
:10106000E89455915532C1F3503311F46894559179
:101070005A3348F4505390F3220F022E220F220FBE
:10108000200D250FF4CF0EF42195899199915336B7
:1010900019F3533729F1533559F1BC0188279927A2
:1010A000E8945C3621F4899199916894559154366D
:1010B00039F446EF7EF077FF0DC08FEF9FEF0AC047
:1010C00055374AE039F0583540E121F0523642E0D8
:1010D00009F00895FF93EF937DDFEF91FF91B7CF74
:1010E000FF93EF93FC0181918030B9F360DFFBCF78
:1010F000FF93EF9368DFF1CFDF93CF93CDB7DEB7E8
:101100002596A3DFCF91DF910895E8EDF0E080818F
:101110008E7F80831092E2001092DA001092E1003C
:10112000A0EEB0E08C9181608C9380818F7780837A
:1011300019BCA7EDB0E08C918E7F8C9380818F7E5F
:10114000808310929A0708952091E4003091E50081
:1011500095E6A9012091EC00822F817020FF06C046
:101160008091E80080FF06C080E008952091E800AB
:1011700022FD1AC08091BF07882389F0853089F04D
:101180008091EB0085FD0FC02091E4003091E500D7
:1011900042175307F9F29150E1F684E0089582E096
:1011A000089583E0089581E00895EF92FF920F93F0
:1011B0001F93CF937C018B010E94A408C82F81113B
:1011C00017C08091E80085FD0BC08091E8008E7704
:1011D0008093E8000E94A408882399F3C82F08C0D0
:1011E000F70181917F018093F1000150110949F7C6
:1011F0008C2FCF911F910F91FF90EF9008958091C8
:10120000C10787FF13C08091E80082FF06C080916C
:10121000E8008B778093E80004C08091BF078111BC
:10122000F2CF08958091BF078823D9F38091E80019
:1012300080FFF8CF8091E8008E77ECCF982F9093C5
:10124000E900242F762F50E0891731F07091EC00DF
:101250002091ED005091F00021FD07C09F5F973075
:1012600071F78093E90081E008953091EB003E7FB3
:101270003093EB003091ED003D7F3093ED003091E5
:10128000EB0031603093EB007093EC002093ED00A5
:101290005093F0002091EE0027FDE0CF80E008950C
:1012A000B0E0A0E0E6E5F9E00C94C332C8EDD0E090
:1012B00088818F7E8883E7EDF0E080818160808384
:1012C00084E082BF81E080939A0788818E7F888343
:1012D00002EE10E0F80110821092DA0081EEC82EC2
:1012E000D12CF601108288818F778883888180686D
:1012F000888388818F7D888319BC1092BF071092E4
:10130000C0071092BE071092BD0790EEE92EF12C97
:10131000F70180818B7F808388818160888342E0B0
:1013200060E080E00E941E09F60180818E7F80834C
:10133000F801808181608083808188608083F701EB
:1013400080818E7F8083888180618883CDB7DEB77E
:10135000E8E00C94DF32FC018091C7079091C80748
:1013600086179707A0F06115710529F49091E800A0
:101370009E779093E80090E06115710551F491110A
:1013800008C08091E80082FF34C080E00895BC016D
:10139000F2CF8091BF078823C1F18530C1F18091E0
:1013A000E80083FD30C08091E80082FDEACF8091A3
:1013B000E80080FFE1CF8091F3002091F200382F08
:1013C0006115710519F02830310558F091E0283089
:1013D000310509F090E02091E8002E772093E80095
:1013E000CBCF81918093F100615071092F5F3F4F06
:1013F000E7CF8091BF07882341F0853041F080918D
:10140000E80083FFBECF81E0089582E0089583E085
:1014100008950895089580919C0708959C014FB701
:10142000F89480918E0790918F07A0919007B091CA
:1014300091074FBF821B930B08952FB7F8948091AB
:101440008E0790918F07A0919007B09191072FBFC1
:10145000089520918B0730918C072817390771F078
:1014600090938C0780938B07E0918907F0918A070E
:10147000309721F00084F185E02D099508952091A1
:101480008707309188072817390771F090938807EC
:1014900080938707E0918907F0918A07309721F0C0
:1014A0000680F781E02D09950895E0918907F09174
:1014B0008A07309729F00190F081E02D0995089571
:1014C00080E00895452B39F0682381E06F3F09F0F3
:1014D00080E08170089581E0FCCFDC01609183079A
:1014E00080918407962F891301C00895292F30E039
:1014F000F901EE0FFF1FE558F84F408151814A175F
:101500005B07A1F487E08A9FA0018B9F500D1124F7
:10151000415A584F81E0FA0184839613E6CF2F5F3A
:101520003F4F237033272093830708952F5F3F4F4A
:10153000922F9370D8CF1092FC061092FB06EFE525
:10154000F7E08581811102C014821682379687E008
:10155000EB37F807B1F70895B0E0A0E0E2EBFAE06E
:101560000C94C1328FEF9FEF4430510508F469C0ED
:101570004091920741FB882780F990E0880F991FDE
:1015800042FB002700F910E0000F111F000F111F90
:10159000802B912B40FBCC24C0F8D12C8C299D2989
:1015A00043FB222720F9C22FE0E0DE2F53E0CC0FCF
:1015B000DD1F5A95E1F78C2B9D2B44FBAA27A0F940
:1015C000B0E0E4E0AA0FBB1FEA95E1F78A2B9B2B62
:1015D00045FBEE27E0F9F0E0A5E0EE0FFF1FAA952E
:1015E000E1F78E2B9F2B46FB222720F930E0B6E057
:1015F000220F331FBA95E1F7822B932B47FB22274B
:1016000020F930E03695322F222737952795822B07
:10161000932B20919307322F3170F32EE82EF92A65
:1016200026952170B22EBB0CA82EBF28C501BB0C7D
:10163000AA0BBB0BFB0180839183A283B38390E051
:1016400080E0CDB7DEB7EAE00C94DD328091D306BE
:101650009091D40690931301809312010895F89409
:10166000E82FE295EF70F0E031A1282F2F7081E094
:1016700090E001C0880F2A95EAF7982F9095932360
:1016800091A392A1892B82A37894089590919207B7
:1016900092FF06C0282F28712830F9F4877F8460D4
:1016A00093FF06C0282F28712831F1F4877E8461CA
:1016B0002091930720FF06C0382F38713830D9F4B5
:1016C000877F816021FF06C0282F28712831D1F43F
:1016D000877E816194FD877E0895282F24712430B0
:1016E000F9F68B7F8860DCCF282F2471243101F735
:1016F0008B7E8861DDCF382F3171313019F78E7FC5
:101700008860E0CF282F2171213121F78E7E8861FA
:10171000E1CFCF93DF93EC0182389105B1F108F06E
:1017200040C08133910509F49DC048F58932910587
:1017300009F48DC08A9709F49CC0C11522E5D2072F
:1017400008F0BDC0C11531E5D30708F025C1C83E7A
:10175000D10508F0A3C0C13ED10588F5C83AD1052E
:1017600008F08EC0C53AD10508F0F6C0C130D105E9
:1017700031F1209721F1C430D10508F545C08533FA
:10178000910509F45FC0C997C1F6809192078370F3
:1017900009F037C18091930783FF11C0C9E2D0E0FF
:1017A0000EC0833E910599F170F4803E910501F1E0
:1017B000823E910511F68091920782FD21C0CE01F3
:1017C000DF91CF910895863E910561F1873E9105A5
:1017D00071F1843E910509F0B0CF8091930781FFAC
:1017E000EECF80919207C7EED0E084FD0DC0E7CF29
:1017F0008091920780FD33C09091930790FFDFCFD7
:10180000C3EED0E084FFDBCFD0E0C0E0D8CF809142
:10181000920782FDF3C09091930790FDF2C084FF80
:10182000CECFF2CF8091920783FDDDCFC8CF8091DC
:10183000920783FDE9C09091930791FFF0CFC4EE2A
:10184000D0E0BDCF8091920785FFB9CFA7CF80911F
:10185000920785FDDCC08091930783FFB0CFC9E379
:10186000D0E0ADCF8091920786FFA9CFCAE2D0E049
:10187000A6CF8091920786FFA2CFC1E3D0E09FCF91
:10188000CF3BD10508F6C85AD0E0CC0FDD1FCE5DA6
:10189000DE4F0990D881C02DD46491CFC11540E5A9
:1018A000D40708F064C0C11580E4D80708F05CC014
:1018B000CE019A9581159F4108F481CFA5CFC1151E
:1018C00036E5D30718F5C11545E5D40708F07DC006
:1018D000C11584E5D80708F073C09C2F969596959E
:1018E0009E0123703327C115D34508F45AC0C1E0C7
:1018F000D0E002C0CC0FDD1F2A95E2F730E2939FC3
:10190000C0011124C82BD92BDA6859CFC1158AE53B
:10191000D80778F4C11529E5D20708F061C0C115D0
:1019200038E5D30708F470CFDC2FCC27C06FD06A1E
:1019300046CFCE0190568115904208F065CF8D2F8D
:101940008F710E94460B90E0982F882788279F71FF
:101950009C012C2BE90142C0C55AD0E0C15EDE4F8C
:10196000C881D0E0D0642BCFDF70D06A28CF2C2F75
:1019700026952695237080E2289F900111248C2FB4
:101980008370C1E0D0E002C0CC0FDD1F8A95E2F782
:10199000C22BD32BDD6813CFDC2FCC27C16FD06ACD
:1019A0000ECFC1E0D0E002C0CC0FDD1F2A95E2F7D8
:1019B00020E2929FC0011124C82BD92BDC68FFCEF6
:1019C000DC2FCC27C46FD06AFACE8C2F0E94460B36
:1019D000C82FD0E0DC2FCC27CC27DF71D062EFCE30
:1019E0008C2F8F700E94460B34E0D695C7953A95A0
:1019F000E1F7CF709C2FEC01D069E1CEC2EED0E0D0
:101A0000DECEC0EED0E0DBCEC6EED0E0D8CEC5E371
:101A1000D0E0D5CE80913706882331F0109237067A
:101A200010923606109235060895CF93C82F8091F4
:101A3000930782FF0CC0809137068C1741F00E94FB
:101A40001D0A9093360680933506C0933706CF91D2
:101A5000089580959091B20698239093B2060895C8
:101A60001092140610921306109212060895809197
:101A7000D5069091D606892B89F00E941D0A2091E7
:101A8000350630913606AC01421B530B81E02091A4
:101A9000D5063091D6064217530708F480E08170CE
:101AA0000895909116019923D1F09091920797FF94
:101AB00016C0E82FE695E695E695EE31E0F4F0E005
:101AC000E658FE4F282F277081E090E001C0880F74
:101AD0002A95EAF780959281892382830895ECE71D
:101AE000F1E09191891303C0DF0111971C9291E0FD
:101AF000E238F907B1F70895909116019923C1F0E2
:101B00009091920797FF14C0E82FE695E695E69529
:101B1000EE31F8F4F0E0E658FE4F877021E030E057
:101B200001C0220F8A95EAF78281822B8283089571
:101B3000ACE7B1E0EFEF90E02D91821751F0EF3F6D
:101B400019F4211101C0E92F9F5F9630A9F7EF3FEB
:101B500009F408950E2E000CFF0BE658FE4FE6CF59
:101B6000209111069091D005291302C080E00895BC
:101B700030E0F90153E0EE0FFF1F5A95E1F7EF5205
:101B8000FA4F5181561306C05081581303C0528139
:101B9000541304C02F5F3F4F2770E6CF81E00895B4
:101BA000809111069091D005981301C008958F5F20
:101BB0008770FACF292F9A3078F58A3068F590E04F
:101BC0003AE0239F800D911D1124682F677023E058
:101BD000969587952A95E1F7FC01EE0FFF1FE80F18
:101BE000F91FEF55FA4F50E040E080E0219130E0DE
:101BF000062E02C0369527950A94E2F72170332706
:101C0000042E01C0220F0A94EAF7822B4F5F5F4F28
:101C10004330510559F7089580E00895292F9A30EF
:101C200098F58A3088F590E03AE0239F800D911D69
:101C30001124282F277041E001C0440F2A95EAF7AC
:101C400023E0969587952A95E1F7FC01EE0FFF1F9B
:101C5000E80FF91FEF55FA4F30E020E070E05191A6
:101C6000DF011197CB01022E02C0969587950A9449
:101C7000E2F7817081958527842385278C932F5FD8
:101C80003F4F2330310559F7089592959F70963054
:101C900091F058F4925F9F70923058F4803F19F0A1
:101CA00030F4883E30F481E008959A5FF4CF843FA9
:101CB000D1F380E00895883EB0F3813FD1F7F3CFB0
:101CC000809580FF0BC0479A81FF0AC0889A82FFE7
:101CD00009C0469A84FF08C02D9A08954798F4CF0A
:101CE0008898F5CF4698F6CF2D980895829590E084
:101CF0009C01220F331F220F331F2C7C9595879553
:101D0000959587958373282B30E0C901880F991F1B
:101D10008A7A359527952575822B08959C013A95E9
:101D200021153F4150F5FC01EE27F170BC016627FB
:101D30007270AC01442754709C012227387094FFC4
:101D40000EC080E1EF2B09F480E0672B09F0806280
:101D5000452B09F08064232B89F08068089581E089
:101D6000EF2B09F480E0672B09F08260452B09F026
:101D70008460232B19F08860089580E008959FB750
:101D8000F894109298079FBF9091BF07943009F084
:101D900048C02091E9002F703091EC00932F917092
:101DA00030FD90E8922B25E02093E9002091EB0094
:101DB00020FF34C02091EE0027FF30C0209197070C
:101DC000222321F02091E80025FF28C010929707D8
:101DD00026E03091E80035FF14C08093F100809137
:101DE000E80085FD27C08091E80080FFFCCF80914E
:101DF000E8008E778093E8009F709093E90080E080
:101E000008953091BF07343049F43091EB0035FD2F
:101E100005C0215041F481E0809397079F70909313
:101E2000E9008FEF0895EFE9FFE03197F1F700C087
:101E30000000CFCF8FB7F89421E0209398078FBF91
:101E4000DBCF8093940770939607609395078091FA
:101E5000BF078430F9F48093E9008FEF9091E80098
:101E6000815095FD06C095ED9A95F1F7000081111E
:101E7000F5CF8091E80085FF0DC050E040E063E0C1
:101E800070E084E997E00E94D5088091E8008E77A1
:101E90008093E8000895BC0184E00E94210F08951A
:101EA000BC0183E00E94210F0895CF93DF93EC01E2
:101EB000809116018823B1F18091920787FF32C08B
:101EC00060E284E08093E9008FEF9091E800815018
:101ED00095FD06C095ED9A95F1F700008111F5CFBB
:101EE0008091E80085FF1BC08091160170E050E0F2
:101EF00040E0811104C050E040E068E070E0CE01B5
:101F00000E94D5088091E8008E778093E80080E2F7
:101F1000FE01ADE9B7E001900D928A95E1F7DF91FE
:101F2000CF91089568E081E0CDCF81E08093E0001B
:101F300080E28093D8001092C9008FE19EE401975F
:101F4000F1F700C0000087E090EBDC018093CE0742
:101F50009093CF07A093D007B093D10788E19CE07E
:101F60000FB6F894A895809360000FBE9093600020
:101F7000FFCF019708F40895EFE9FFE03197F1F7FB
:101F800000C00000F6CF0F931F93CF93DF9303EDB4
:101F900016E0CAE4D3E0CE010E942633F801819313
:101FA0008F012196CE36F3E0DF07A9F7C3E1DDE02C
:101FB000FE0185919491009711F0FC0109952C96F2
:101FC000FDE0C33ADF07A1F7DF91CF911F910F9199
:101FD00008950F931F93CF93DF93843030F56A30C9
:101FE00020F54A3010F5C42FD0E0CC0FDD1F24E1DE
:101FF000629FC00DD11D112438EC839FC00DD11DEF
:102000001124CE018A960E942633082F10E0102F4B
:102010000027CE018B960E9426339801282BC901F8
:10202000DF91CF911F910F91089590E080E0F8CF5C
:10203000462F2091B0063091B106232B99F4703FC2
:1020400039F4603F79F48091AE069091AF0608951F
:10205000843040F47A3030F46A3020F4672F0E94E4
:10206000E90F089590E080E00895CF92DF92FF920B
:102070000F931F93CF93DF936C010091C907809159
:102080003806082BC7E0D0E010E0FC2EC8010C2E6B
:1020900002C0959587950A94E2F780FD0CC02197C0
:1020A000A0F7F12C8F2DDF91CF911F910F91FF9011
:1020B000DF90CF900895B6018C2F0E9418100E94D7
:1020C000890B019761F3EECFCF93DF93EC010E9470
:1020D0003510BE010E9418100E94890BDF91CF912C
:1020E0000895CF93DF93EC014B815C8169818881F6
:1020F0000E94620A811110C08E819F81009739F081
:102100000E94890B0E94450EDF91CF91089588812E
:1021100099810E946410F6CF80E0F6CFA5E0B0E090
:10212000E4E9F0E10C94C83249835A8389819A81A9
:10213000662399F0222389F00E943510182F682F0A
:1021400089819A810E940E0E69817A81812F0E9475
:1021500018102596E3E00C94E4320E94DA0D182F53
:10216000F3CFFC01262F86819781009739F44081B7
:1021700051816281738184810E948E10089583E26F
:1021800090E00E9426338C3589F484E290E00E942E
:1021900026338D3559F485E290E00E94263391E094
:1021A000833509F090E0892F8170089580E0FCCF9D
:1021B000CF9384E090E00E942633C82F82E290E023
:1021C0000E942633982F8C2FCF910895DB01FC01BC
:1021D0003296259134914217530758F0FC013496FA
:1021E00065917491A901CD010E94063390E080E0D1
:1021F00008958FEF9FEF08950F931F93CF93DF9371
:1022000003ED16E0CAE4D3E0CE010E942633F801C4
:1022100061918F01681719F0CE010E943433219625
:10222000CE36F3E0DF0781F7DF91CF911F910F9159
:102230000895DA019C012E5F3F4FF90145915491B9
:10224000F90125913491A217B30758F0FC01349697
:10225000859194910E9406330E94FC1090E080E0EA
:1022600008958FEF9FEF0895CF93DF93C6E9D3E0F2
:1022700060E0CE010E9434332196C11584E0D80776
:10228000B9F7DF91CF9108951F93CF93DF93122F6A
:102290008430E0F46A30D0F44A30C0F4C42FD0E087
:1022A000CC0FDD1F94E1699FC00DD11D112498EC66
:1022B000899FC00DD11D1124632FCE018A960E94E3
:1022C0003433612FCE018B960E943433DF91CF914E
:1022D0001F910895CF93C82F6FEF81116CE583E2B2
:1022E00090E00E9434336FEFC1116DE584E290E01D
:1022F0000E9434336FEFC11163E585E290E00E94E4
:102300003433CF910895CF93C92F682F84E090E0A4
:102310000E9434336C2F82E290E00E943433CF91DC
:102320000895AAE0B0E0E7E9F1E10C94C332E6E8F1
:10233000F6E088E2DF011D928A95E9F7EFE5F7E024
:102340008CE1DF011D928A95E9F786E8C82E86E0C8
:10235000D82E7F010EE613E0F701D182C0824AE059
:1023600050E0B801CE0101960E94163388E0FE01CC
:102370003196D60101900D928A95E1F789859A856B
:10238000D70113969C938E931297BAE0CB0ED11C73
:10239000E7E0EE0EF11C065F1F4F0639F3E01F0762
:1023A000D9F62A96E8E00C94DF32A4E1B0E0EBED38
:1023B000F1E10C94BF328E010F5F1F4F84E1F801F1
:1023C00011928A95E9F790E5E92E91E0F92E6801DE
:1023D000AA24A394B12CF70181917F018F3F09F4C6
:1023E00046C0F894E82FE295EF70F0E021A18F70DD
:1023F000A50102C0440F551F8A95E2F7CA01922F2A
:10240000982B91A392A18095892382A3789400C0F0
:10241000EAE5F1E021E030E0912C812C41914F3F41
:1024200009F467C0A42FA295AF70B0E090968C918C
:1024300090E04F7002C0959587954A95E2F780FD30
:1024400058C0C901882A992A220F331F51E0E43667
:10245000F50721F7F701319780818F3F11F00E9436
:102460002F0B80EA8A95F1F7F60191828082F2E0E3
:10247000CF0ED11C4AE5E41641E0F40609F0ABCFDB
:1024800044E150E0B8018CE396E00E94F932892BD8
:1024900099F184E1F801ACE3B6E001900D928A95E0
:1024A000E1F781E080933B060E941D0A90933A0673
:1024B000809339068091390690913A060E940E0A5F
:1024C0000697F0F044E150E06CE376E082E796E0B6
:1024D0000E94F932892BC9F084E1ECE3F6E0A2E72F
:1024E000B6E001900D928A95E1F781E010923B06EB
:1024F00008C090E080E0A6CF80913B068111DACF42
:1025000080E06496ECE00C94DB3280E0EFCF8091C9
:10251000B2069091CA07892B80937A018091370681
:10252000882319F18091D5069091D606892B29F040
:102530000E94370D81110E940A0D80917A019091BD
:102540003706892B80937A01809116018823E1F167
:102550008091920787FF38C08EE1ECE7F1E090E0D0
:102560008150A0F591110E940A0D40E250E065E112
:1025700076E08AE791E00E94F932892B21F180E22E
:10258000EAE7F1E0A5E1B6E001900D928A95E1F766
:10259000E0918907F0918A073097A9F080911601A0
:1025A000882359F08091920787FF07C080917A01B4
:1025B00080937B0186E080937A010280F381E02D95
:1025C0008AE791E00995089586E0C7CF21912223FB
:1025D00039F29F5FC5CF80911401877F80931401EA
:1025E0009091CA079D7F9093CA0784FF08C08F7E91
:1025F000809314018091B20682608093B20680912C
:10260000140185FF08C08F7D809314018091B2066C
:1026100080628093B2060E948712089590E080E065
:102620000E943F0A90E080E00E94290A1092CA07A7
:102630000E94871208958093C9070E940E1308957F
:102640008091C907982F9670963021F488600E9477
:102650001B130895877FFBCF21E030E001C0220FDC
:102660008A95EAF720958091C90782230E941B135F
:102670000895909114068095892380931406282F3D
:10268000277091F4282F082E000C330B9217130695
:1026900059F09091930792FF07C085958595859590
:1026A0000E942C130E94300D08959091930792FB85
:1026B000222720F9281769F080FB92F9909393075D
:1026C00080919207909193070E94831182E00E946B
:1026D0003913089521E030E001C0220F8A95EAF70E
:1026E0008091C907822B0E941B1308959091930734
:1026F00092FF10C098E0899F90011124622B609393
:1027000014060E946A130E941D0A90931306809378
:10271000120608950E946A130895809338060E9455
:102720000E1308951092B20680911601ECE7F1E0C5
:10273000882361F08091920787FF08C08EE1DF0156
:102740001D928A95E9F70E940E13089586E0F7CF4F
:10275000AAE2B0E0EEEAF3E10C94C83281EC97E033
:102760002091F100DC012D93CD01B7E0893C9B075E
:10277000B9F78091C207833009F472C0B8F4813090
:1027800009F449C0823009F4B3C08091E80083FFA6
:102790009CC28091C1079091C2079A3008F095C2FF
:1027A000E92FF0E0EE58FC4C0C94AC328A3009F47E
:1027B0008EC08B3009F471C0893039F78091C10720
:1027C000813219F78091C5079091C607009711F0E3
:1027D0000297D9F68091E800877F8093E800809186
:1027E000E80082FF38C09091F3008091F2000297D8
:1027F00031F48091F100813011F0863021F4809124
:10280000F10080939C078091E8008B778093E8002B
:102810000E94FF08BACF8091C107813A09F0B5CF75
:102820008091E800877F8093E8008091C5079091B0
:10283000C607892B61F460E28DE997E070E00E94A1
:10284000AB098091E8008B778093E8009ECF60E031
:1028500090E080E0F3CF8091BF078111C0CF95CF8A
:102860008091C107813A09F090CF8091C50790917E
:10287000C607892B09F089CF8091E800877F809374
:10288000E8008091E80080FFFCCF809116018093E2
:10289000F1008091E8008E77B9CF8091C107813235
:1028A00009F073CF8091C5079091C607892B09F075
:1028B0006CCF8091E800877F8093E8000E94FF083A
:1028C0008091C307809316010E9492135ECF80917E
:1028D000C107813209F059CF8091E800877F80934A
:1028E000E8000E94FF088091C40780939B074DCFAA
:1028F0008091C107813A09F048CF8091E800877F35
:102900008093E8008091E80080FFFCCF80919B07D6
:10291000BECF803899F0823809F0D7C18091C507C1
:102920008F70873008F0D1C18093E9008091EB006F
:1029300085FB882780F91092E90006C08091BD07C9
:102940009091BE07911182609091E800977F9093DB
:10295000E8008093F1001092F1008091E8008E77FA
:10296000B0C1882309F49EC1823009F0AEC18091C4
:10297000C3078111A1C18091C5078F702FEF280F68
:10298000263008F0A2C18093E9002091EB0020FFDF
:1029900093C1933031F48091EB0080628093EB001F
:1029A0008BC19091EB0090619093EB0021E030E0BF
:1029B00001C0220F8A95EAF72093EA001092EA00FC
:1029C0008091EB008860EACF81117FC11091C3072D
:1029D0001F778091E3008078812B8093E3008091C2
:1029E000E800877F8093E8000E94FF088091E8005C
:1029F00080FFFCCF8091E30080688093E30082E059
:102A0000111183E08093BF0760C18058823008F0C5
:102A10005CC12091C3073091C4072C3DE3E03E0721
:102A2000A1F583E08A838AE289834FB7F894DE01B7
:102A3000139620E03EE051E2E32FF0E05093570080
:102A4000E49120FF03C0E295EF703F5FEF708E2F9F
:102A500090E0EA30C0F0C7968D939D932F5F2431AC
:102A600059F74FBF8091E800877F8093E8006AE2C2
:102A700070E0CE0101960E94AB098091E8008B774F
:102A80008093E80022C1C096E7CF8091C50790915E
:102A9000C607432F55274330510509F44AC078F53E
:102AA0004130510509F485C08BE790E0EDE5FEE08B
:102AB0004230510509F009C12091E800277F209399
:102AC000E8002091C7073091C8078217930708F4E0
:102AD0009C0140E02115310509F070C041116EC024
:102AE0008091E80082FDC9CF8091BF07882329F239
:102AF000853019F28091E80083FFF2CFBECF4132DA
:102B0000510509F447C04232510509F0DEC0843056
:102B1000910508F0DAC0FC01EE0FFF1FE859FE4FE7
:102B20000190F081E02D8C599E4FDC018C9190E05A
:102B30001DC0332721303105E9F02115310579F029
:102B400022303105F9F02330310509F0BEC0EAEE3C
:102B5000FEE0E4918E2F90E0EAEEFEE007C0E6E3AF
:102B6000FFE0E4918E2F90E0E6E3FFE0009709F4A8
:102B7000ACC0A2CFECE1FFE0E4918E2F90E0ECE15D
:102B8000FFE0F4CFE8E0FFE0E4918E2F90E0E8E092
:102B9000FFE0ECCF8430910508F097C0880F991FB3
:102BA000FC01E059FE4F0190F081E02D89E090E0BA
:102BB00083CF82E190E0E8EDFEE07ECF8091BF0719
:102BC000882309F45ACF853009F457CF8091E80063
:102BD00083FD53CF8091E80082FD82CF8091E80091
:102BE00080FF78CF9091F3008091F200211531059C
:102BF00019F08830910550F041E0089709F040E065
:102C00008091E8008E778093E80064CF44914093F0
:102C1000F1003196215031090196E8CF803809F052
:102C200054C08091E800877F8093E8008091C007BE
:102C30008093F10092CE811148C01091C3071230E9
:102C400008F043C08091E800877F8093E8001093EC
:102C5000C0070E94FF08112311F084E005C0809195
:102C6000E30087FDFACF81E08093BF0742E061EC8B
:102C700081E00E941E0942E261EC84E00E941E098C
:102C800042E261EC82E00E941E0942E260EC83E0D5
:102C90000E941E0942E261EC85E00E941E098091BB
:102CA000BF0713C08091C307813079F481E093306E
:102CB00009F080E08093BE071092E9008091E8005F
:102CC000877F8093E8000E94FF088091E80083FFDF
:102CD0000AC08091E800877F8093E8008091EB0034
:102CE00080628093EB00AA96E3E00C94E432E3ED7B
:102CF000F6E0128E138E8FEA90E09183808385E058
:102D0000848F28E833E13383228322E330E0378B5A
:102D1000268B28EC30E0318F208F158E178E168E83
:102D200020E530E031A320A382A30E94FC100E9482
:102D300092131092930710929207E3E9F7E08081D3
:102D40008460808380919207909193070E94831101
:102D50000E94C30F08956F927F928F929F92AF92BD
:102D6000BF92CF92DF92FF920F931F93CF93DF9387
:102D7000CDB7DEB72A970FB6F894DEBF0FBECDBF32
:102D8000809010019090110181E090E090931101EA
:102D90008093100189EEA82E89E0B82E10E065011D
:102DA000F12C15C0F30125913491402F6F2D812F07
:102DB0000E94441182E0680E711C0F5F0A3091F787
:102DC000E4E1CE0ED11CF394FAE0FF1619F03601BF
:102DD00000E0E8CF1F5F88ECA80EB11C1430F9F6B4
:102DE0000E9477168E010F5F1F4FF8011192FA941F
:102DF000E9F74AE050E06EE673E0C8010E945833FC
:102E00004AE050E068E773E0C8010E9458334AE0A6
:102E100050E062E873E0C8010E9458334AE050E095
:102E20006CE873E0C8010E945833909211018092BF
:102E300010012A960FB6F894DEBF0FBECDBFDF910A
:102E4000CF911F910F91FF90DF90CF90BF90AF90E7
:102E50009F908F907F906F90089580E00E946A11FC
:102E600060E089E290E00E94343360E088E290E024
:102E70000E94343360E087E290E00E94343360E0E7
:102E800086E290E00E9434330E94AB160E94341117
:102E900081E00E946A110895CF92DF92EF92FF9233
:102EA0008FEF9FEF4430510508F46AC0FB01C080EA
:102EB000D180E280F3800E94921380919207C0FA41
:102EC00080F9B701A601769567955795479540FB20
:102ED00081F9B701A60122E0769567955795479548
:102EE0002A95D1F740FB82F9B701A60133E0769528
:102EF0006795579547953A95D1F740FB83F9B70108
:102F0000A601E4E07695679557954795EA95D1F740
:102F100040FB84F9B701A601F5E0769567955795D2
:102F20004795FA95D1F740FB85F9B701A601A6E0D0
:102F30007695679557954795AA95D1F740FB86F901
:102F4000B701A601B7E07695679557954795BA956D
:102F5000D1F740FB87F98093920780919307D0FACD
:102F600080F9D1FACC24C0F8C0FA81F98093930794
:102F700080919207909193070E94831190E080E0E6
:102F8000FF90EF90DF90CF9008950E9492132FEF63
:102F900084E39CE0215080409040E1F700C00000B5
:102FA00088E19CE00FB6F894A895809360000FBE6E
:102FB00090936000FFCF882341F080959091CA07DD
:102FC00089238093CA070E9487120895882339F0C5
:102FD0009091CA07982B9093CA070E948712089570
:102FE000882321F00E94290D0E94871208958823CA
:102FF00039F09091B206982B9093B2060E948712F6
:103000000895882309F44DC0823879F40E94550A46
:1030100081FF47C089E30E947C0D0E94871289E3EB
:103020000E94510D0E9487120895833859F40E941E
:10303000550A80FF36C083E50E947C0D0E948712EE
:1030400083E5EECF843859F40E94550A82FF29C0E7
:1030500087E40E947C0D0E94871287E4E1CF9CEFF9
:10306000980F913AE8F290E2980F983050F48770F8
:1030700091E001C0990F8A95EAF7892F0E94290DE6
:10308000D1CF9BE5980F933028F490E080E00E9428
:103090003F0A0895885A873120F490E080E00E942A
:1030A000290A0895CF93DF93EC010E940118CE0105
:1030B0000E948E0E9E01205E31092830310510F0ED
:1030C000CD2B29F40E94F017DF91CF9108950E9433
:1030D000DB17FACFCF93C82F8823C9F08238C9F401
:1030E0000E94550A81FD13C089E30E947C0D0E9455
:1030F00087122FEF87EE93E0215080409040E1F758
:1031000000C0000089E30E94510D0E948712CF91F8
:1031100008958338A1F40E94550A80FDF8CF83E515
:103120000E947C0D0E9487122FEF81EE94E02150C7
:1031300080409040E1F700C0000083E5E4CF843890
:10314000A1F40E94550A82FDE2CF87E40E947C0D23
:103150000E9487122FEF81EE94E021508040904032
:10316000E1F700C0000087E4CECF8CEF8C0F813AEE
:1031700088F580911601882301F18091920787FFDD
:103180001CC0EC2FE695E695E695F0E0E658FE4F7C
:10319000828190E04C2F477021E030E002C0220F86
:1031A000331F4A95E2F782239323892B79F08C2FE2
:1031B0000E94510D0E94871209C0ECE7F1E0819155
:1031C000C817A9F321E0E238F207C9F78C2F0E9453
:1031D0007C0D9BCF80E28C0F883068F4C77021E0B3
:1031E00030E001C0220FCA95EAF78091B206822B27
:1031F0008093B2068ACFEBE5EC0FE33040F4F0E0C9
:10320000E15EFE4F808190E00E943F0A80CFC85A65
:10321000C73108F07CCFEC2FF0E0EE0FFF1FEE5D22
:10322000FE4F808191810E94290A71CF1F93CF9315
:10323000DF93182FC091F306D091F406893321F063
:10324000C091F106D091F206812F0E946A18209752
:1032500039F4812F0E940118DF91CF911F910895B9
:103260008FE99FE00197F1F700C000002197EFCFB1
:103270000F931F93CF93DF93C62FD42F022FFC0100
:1032800082818823A9F06093CD070E941D0A909344
:10329000CC078093CB07C77081E001C0880FCA9527
:1032A000EAF70E94F717DF91CF911F910F910895D0
:1032B0008091CD07681332C08091CB079091CC07E5
:1032C0000E940E0A883C910548F510E21D0FCD17AB
:1032D000B9F080E28C0F883040F4C77081E001C003
:1032E000880FCA95EAF70E94F017183048F481E079
:1032F0009D2F977001C0880F9A95EAF70E94F717E3
:10330000802F0E941619183070F6D77081E001C026
:10331000880FDA95EAF70E94F017C5CFC77081E0F1
:1033200001C0880FCA95EAF7F6CFB0E0A0E0EBE95C
:10333000F9E10C94C432E82FF0E0E753F24FD49057
:10334000282F26952695269530E0F901E754F24F6F
:103350000491877010E0082E02C0159507950A9415
:10336000E2F701701127F901E755F24FE490F12CD3
:10337000082E02C0F594E7940A94E2F791E0E9225E
:10338000FF24F901E756F24FC491D0E002C0D59571
:10339000C7958A95E2F7C170DD270115110519F06F
:1033A00081EE0E946A18E114F10419F086EE0E9481
:1033B0006A188D2D0E941619E114F10419F086EE99
:1033C0000E9401180115110519F081EE0E940118E3
:1033D000CD2B19F08CE20E941619CDB7DEB7E7E0CD
:1033E0000C94E032FF920F931F93CF93DF938C01E5
:1033F0008AE0F82EF8018491882309F44BC08130CB
:1034000009F044C0E8012196FE018491813049F41D
:103410002196FE0184910E9416198E010F5F1F4FA5
:10342000E9CF823039F4E8012296FE0184910E94AE
:103430006A18F3CF833039F4E8012296FE018491B3
:103440000E940118EACF843041F7E8012296FE017C
:10345000249190E080E0FE0131962053330B2A3016
:10346000310548F00197C8F2EFE9FFE03197F1F735
:1034700000C00000F7CFF89EA001F99E500D112466
:10348000C901840F951F2491EF01E5CF0E94951982
:10349000E801C3CFCDB7DEB7E5E00C94E2321F936D
:1034A000CF93DF93EC011AE08881882309F43EC0B2
:1034B0008130C9F599818A81913029F422960E9440
:1034C00016192196F1CF923021F422960E946A18A3
:1034D000F8CF933021F422960E940118F2CF943055
:1034E00011F02196EECF229630E020E0AE014F5F42
:1034F0005F4F8053990B8A30910550F0215031096C
:1035000000F38FE99FE00197F1F700C00000F6CFCC
:10351000129FB001139F700D11249C01260F371FBD
:103520008981EA01E3CF0E949519CBCFDF91CF913A
:103530001F910895CF93DF93EC010E948E0E9E01A0
:10354000205E31092830310510F0209741F40E94A7
:10355000F7178C2F0E946A18DF91CF9108950E946F
:10356000E617F7CF662329F02091CA07226020933F
:10357000CA079C013056211540E2340720F0305E26
:103580002115304108F499270E949A1A0895B0E055
:10359000A0E0EDECFAE10C94C4327C018B01D42E56
:1035A0008091140182FF8CC0C091F906D091FA0677
:1035B000CE15DF0521F0E114F10409F081C08091FE
:1035C00014018B7F8093140181FD73C08091F706F5
:1035D0009091F806A801481B590B81E02091120137
:1035E000309113014217530708F480E08170F82EE0
:1035F00080911401F0FA81F980931401FE0183E0B7
:10360000F695E7958A95E1F7EE71FF27ED54F94FAE
:1036100020813181AE014F70552781E090E002C0DA
:10362000880F991F4A95E2F7FF2009F444C0822BC6
:10363000932B918380838091B20681FF08C0809193
:10364000140180618093140182E00E94290D809111
:10365000B20685FF08C08091140180628093140136
:1036600080E20E94290D6F2DCE010E94B21ADD204A
:1036700031F08091EE0685FF02C086FF3BC080914D
:10368000F1069091F2060E94B90F8091F90690918F
:10369000FA069C013056211540E2340720F0305ED6
:1036A0002115304108F499270E9452180E94EB120C
:1036B0001DC081E09BCF8095909582239323B9CF45
:1036C000C701992797013056211540E2340728F0A9
:1036D000305E2115304108F0C7010E9452188091D8
:1036E000F9069091FA068E159F0501F31093F806DE
:1036F0000093F706CDB7DEB7E7E00C94E03268EE52
:103700007EEF90E080E00E94523360E082E090E043
:103710000E94343360E083E090E00E9434331092E2
:10372000380660E084E090E00E94343364E082E296
:1037300090E00E94343360E085E090E00E943433F2
:1037400060E086E090E00E9434336FEF87E090E025
:103750000E94343340E050E0BA0188E090E00E94DB
:10376000463360E08DE090E00E94343340E050E06A
:10377000BA0188E190E00E94463360E087E190E082
:103780000E94343340E050E0BA018CE190E00E94A6
:10379000463370E060E080E290E00E94523340E007
:1037A00050E0BA0188E190E00E94463380E00E9438
:1037B0006A110E942D1740E050E0BA018FE090E0BE
:1037C0000E94463340E050E0BA0183E190E00E945D
:1037D00046330895A4E0B0E0E0EFFBE10C94C03282
:1037E0007C01FC0143815481618180810E94620AD5
:1037F0008111A8C061E0C7010E94B1108C018091C5
:103800009C05F70192818111CAC091110CC004304E
:10381000FDE51F0709F49AC008F056C003303DE5E6
:10382000130709F472C0F7018281882311F40C9404
:10383000DA24C80182519F45409710F00C9411255D
:103840008FEF93E00E94263381116DC06EEED62E6D
:10385000D00E06E913E0D1102BC119821A821B8207
:103860001C8299249A9468012FEFC21AD20AC801C7
:103870000E94263389831A82882309F454C0813038
:1038800009F080C1580132E0A30EB11CC6010E94AC
:103890002633C82E8A83882309F445C0C5010E94B7
:1038A0002633D82E8FEF8C0D833008F00FC15801CE
:1038B00043E0A40EB11CDB82DD2021F0CE01019695
:1038C0000E944F1A8501CFCF06304DE5140709F449
:1038D0004AC007305DE5150709F0A5CFA0900001AB
:1038E000B0900101D090C9070E94921380E00E941D
:1038F0001B1302E915E0A016B10609F444C0C80183
:103900000E94EA1B08501109F6CF0E94921380E032
:103910000E941B138AE991E090939B0580939A057E
:1039200081E080939C0580911406877059F0F7011F
:103930008281882339F08091930782FF03C082E05F
:103940000E9439132496EBE00C94DC320E9492130F
:1039500080E00E941B1382E995E090939B05809381
:103960009A0582E0DECFA0900201B0900301D090D2
:10397000C9070E94921380E00E941B130AE911E01C
:10398000A016B10631F40E9492138D2D0E941B13D4
:10399000CACFC8010E94EA1B085F1F4FF1CF9801F0
:1039A00023503D4523303105C0F521E005306DE55C
:1039B000160709F420E0291709F4B5CF813029F062
:1039C0008230B9F010929C05AECF80919A0590910B
:1039D0009B0571E08A39970729F0FC01389722810D
:1039E000211105C09093030180930201EBCFCF0119
:1039F000F0CF80919A0590919B05E5E082399E0772
:103A000029F0FC0138962281211105C09093010113
:103A100080930001D7CFCF01F0CF813021F18230E8
:103A200009F001CF2091020130910301A0919A0584
:103A3000B0919B05911105C045E0A239B40709F486
:103A4000F2CECD0108962817390709F4ECCE88E0AC
:103A5000F70101900D928A95E1F780919A05909176
:103A60009B05089720C02091000130910101A09191
:103A70009A05B0919B05911105C0F1E0AA39BF07E5
:103A800009F4D1CECD0108972817390709F4CBCE18
:103A900088E0F70101900D928A95E1F780919A05EF
:103AA00090919B05089690939B0580939A05BBCEB9
:103AB0000115F4E01F0709F436CFC8010E94263330
:103AC000811101C0DA940F5F1F4FC5CE8BEF8C0DB3
:103AD000833080F5C8010396DB825C01DD2009F4A8
:103AE000F1CE580154E0A50EB11C0E9426338C8300
:103AF000882309F4E7CE0B811C8101306FEF160794
:103B000010F0102F002776E0C71681F087E0C81666
:103B100049F0C8010E94102B8091F1069091F206A5
:103B20000E94B90FC8010E94EB2ACCCEC8010E94A6
:103B3000102BC8CE94E0C912C5CE5801E4E0AE0EF9
:103B4000B11CC80103960E942633DD2009F4EBCE98
:103B5000882309F4E8CE8150990B989E9001999E94
:103B6000300D11244D2D4150550BCA01820F931F6A
:103B7000019708F4A7CEEFE9FFE03197F1F700C015
:103B80000000F6CFCE0101960E944F1A56019ACE40
:103B900081E00E946A1303C081E00E942C130E94FE
:103BA0002013C1CE82E0F9CF882321F085EE93E087
:103BB0000E94F219F701858182958F701F928F9371
:103BC000858181701F928F9384818F9383818F93DE
:103BD00082811F928F9381811F928F9380811F9288
:103BE0008F931F930F938DE991E09F938F930E9482
:103BF0007C080FB6F894DEBF0FBECDBF76C0882319
:103C0000C9F285ED93E0D4CF8823A1F285EC93E04F
:103C1000CFCF882379F28AEB93E0CACF882351F281
:103C200082EB93E0C5CF882329F28AEA93E0C0CFE4
:103C3000882309F4BFCF8CE993E0BACF882309F435
:103C4000B9CF80E993E0B4CF882309F4B3CF84E8F7
:103C500093E0AECF882309F4ADCF89E793E0A8CFF6
:103C6000882309F4A7CF89E693E00E94F21989E539
:103C700093E09ECF882309F49DCF8BE493E098CF07
:103C8000882309F497CF8DE393E092CF882309F43A
:103C900091CF83E393E00E94F2198BE293E088CF07
:103CA000882309F487CF88E293E082CF882309F440
:103CB00081CF8EE193E07CCF882309F47BCF8CE128
:103CC00093E076CF882309F475CF8AE193E070CF33
:103CD000882309F46FCF86E193E00E94F219909156
:103CE000C90784E089270E941B138091EE0680FF9C
:103CF00038C00E941D0A6C01F7018281882309F4F3
:103D0000D3C08091140182FF08C027E636E040E06E
:103D1000B60190E080E00E94C71A0B31FCE51F0756
:103D200009F4B4C00C312CE5120709F4B5C0909128
:103D30001401892F8E7F90FF81600A313CE51307C3
:103D400009F4ADC0C8019056811540E2940728F0EF
:103D5000905E8115904108F0B5C01092FA0610925D
:103D6000F906033F7CE5170709F4F0C108F095C197
:103D7000083D9CE5190709F4E5C1093DECE51E077E
:103D800009F4F4C1073DFCE51F0709F092C126E2E2
:103D900041EE61EEC7010E943819C5CD882309F4B0
:103DA00009CF8CE093E004CF882309F403CF83E0AC
:103DB00093E0FECE882309F4FDCE84EF92E0F8CEA6
:103DC000882309F4F7CE83EE92E0F2CE882309F43B
:103DD000F1CE82ED92E0ECCE882309F4EBCE87ECB5
:103DE00092E0E6CE882309F4E5CE84EB92E0E0CEC3
:103DF000882309F4DFCE83EA92E0DACE882309F43F
:103E0000D9CE80E992E0D4CE882309F4D3CE8FE7CF
:103E100092E0CECE882309F4CDCE80E792E0C8CEE2
:103E2000882309F4C7CE84E692E0C2CE882309F441
:103E3000C1CE83E592E0BCCE882309F4BBCE8AE4F0
:103E400092E0B6CE882309F4B5CE8EE392E0B0CEF0
:103E5000882309F4AFCE80E392E0AACE882309F448
:103E6000A9CE80E292E0A4CE882309F4A3CE8FE00D
:103E700092E09ECE882309F49DCE80E092E098CE19
:103E8000882309F497CE82EF91E092CE80911401BD
:103E900081608093140156CF809114018E7F8093AE
:103EA00014010E94EB124ECF809114018F7E013ECF
:103EB000110531F0053E1105C1F4809114018F7D8B
:103EC000809314018091140180FF4BCFF701828110
:103ED0000832110528F50E31110508F074C00430C0
:103EE000110580F5811139CF3CCFC801905681155D
:103EF00060E2960720F0905E8115904118F780915E
:103F0000140182FF2ECF8091F00681FD2ACF27E693
:103F100036E040E0B60190E080E00E94C71A21CF71
:103F20000933110558F40D32110518F40B3211053F
:103F3000C9F69091EE0692FDD5CF08C00436110562
:103F4000C1F3D0CF9091EE0694FDCCCF882309F435
:103F50009DC09091B20680913706282F292B322FD1
:103F60003D7FB1F11092FA061092F9063091EE06FB
:103F700031FD2EC0F80143E0F695E7954A95E1F74B
:103F8000EE71FF27ED54F94F98012F70332781E030
:103F900090E002C0880F991F2A95E2F780959095CE
:103FA00020813181822393239183808360E0C80143
:103FB0000E94B21A809137068D7F0E94150D82E013
:103FC0000E943913B0CC9091EE0693FD8BCFBECFFB
:103FD00038E0F701A7E6B6E001900D923A95E1F7D7
:103FE0001092690610926B0610926A06A090F9066C
:103FF000B090FA060A151B0591F53091EE0635FFD3
:104000002EC04091140141FB992490F841FF02C059
:1040100036FF25C04091F7065091F806B601641BA3
:10402000750B683C7105D8F491FF08C080911401AC
:1040300080618093140182E00E94290D8091B20674
:1040400085FF08C08091140180628093140180E292
:104050000E94290D692DC5010E94B21A64CC90916D
:10406000140121FB91F9909314018D7F0E94150D8D
:104070001093FA060093F906D092F806C092F7065C
:104080008091140184608093140199CF970140E0DE
:10409000B601C8010E94C71A46CC053F2CE512079D
:1040A00009F45CC008F456C0063F4CE5140709F457
:1040B00059C0F7013281332309F4BEC41092CD07F1
:1040C0000330FDE51F0708F054C00A3F2CE5120736
:1040D00030F4C80182509C45449708F056C00E94B5
:1040E000D810909393078093920702317CE51707CD
:1040F00009F491C108F0E1C009309CE5190709F401
:1041000068C108F0ABC00530FCE51F0709F455C1D4
:1041100008F092C003303CE5130709F446C108F0EB
:1041200048C180919207816002305CE5150709F46F
:10413000C1C080919207909193070E9483110E94C1
:104140009213F1CB27E245EE65EE24CE26E241EE56
:1041500060EE20CE27E245EE64EE1CCE26E241EE74
:1041600062EE18CE27E245EE66EE14CE28E241E07C
:10417000EBCF053A4DE5140709F4B1CF08F055C06F
:1041800001366DE5160709F4AACF06316CE516076E
:1041900009F457C40A357DE5170709F495C108F0FD
:1041A0006EC101159CE5190709F474C10E3D1C454B
:1041B00009F47DC1F70186819781009709F488C1D0
:1041C0000E94890B182F092FF701C280D580D29445
:1041D0003FE0D322809114068770C1F0AC2CCC2034
:1041E000B1F0892F807F803421F080E2810F883008
:1041F00068F08091930782FF09C082E00E94391322
:10420000809114068770AA24A3948111A12C902E6A
:1042100092942FE09222FBE0F91508F4E6C1E92D13
:10422000F0E0E458FC4C0C94AC32C8018D5A9D452A
:10423000039708F0AACF53CF80919207806207308E
:104240006CE51607B9F180919207806108307CE532
:10425000170780F18091920780642CC00D308CE5A7
:10426000180709F4C0C090F4809192078E7F0B303C
:10427000ECE51E07F9F0809192078C600C30FCE5AC
:104280001F07C0F0809192078D7F14C00F302CE57E
:10429000120709F4B8C008F4AAC000314CE51407AD
:1042A00009F4B5C0809192078F7B01315CE5150759
:1042B00009F03FCF809392073CCF0F3F6CE5160784
:1042C00009F4B3C0A8F50A3F8CE5180709F479C0D2
:1042D000C0F40431ECE51E0709F4B5C008F4A1C030
:1042E00005312CE5120709F024CF8091920782FB5B
:1042F000992790F921E0922790FB82F990FB83F9AE
:10430000D9CF0C3F3CE5130709F475C008F45DC034
:104310000D3F5CE5150709F472C080919307836037
:104320000E3F6CE5160709F004CF8093930701CF89
:1043300001367DE5170709F491C090F401309DE541
:10434000190709F489C008F474C060E00230FDE583
:104350001F0709F0EECE8EE090E00E943433E9CEE4
:104360000D3A2DE51207E9F060F490919207892F3C
:104370008E7F90FF8160053A4DE5140709F49ACFCE
:10438000D8CE0E3A5DE5150751F10F3A6DE51607E7
:1043900009F0CFCE90919307892F877F93FF886094
:1043A000C4CF809193078860C0CF809192078260CC
:1043B00081CF8091920784607DCF80919207886041
:1043C00079CF809193078160B0CF8091930782600D
:1043D000ACCF0E9492138091920780686BCF80913E
:1043E0009307877FA2CF809192078B7F63CF8091C5
:1043F0009207877F5FCF809193078E7F96CF8091C2
:1044000093078D7F92CF809192078F7E53CF8091BB
:1044100092078F7D4FCF0E949213809192078F77E2
:1044200049CF80919207837F45CF809193078C7FFE
:104430007CCF80919307982F909591708E7F892BD8
:1044400090FB81F972CF0E94921390919207892F6D
:1044500097FB87F980582ECF61E07DCF909192072E
:10446000892F8F7E94FF806125CF80919D058111DA
:1044700004C089E20E94510D0FC385E3FBCF0C35C8
:10448000FDE51F07B9F010F1073A1D4509F092CE7E
:104490000E94C5170E9492134FEF54E36CE0415005
:1044A00050406040E1F700C000000E94950F0E945C
:1044B0007F1BEECF8091930782FB882780F991E0E4
:1044C00089270E94551376CE81E0FBCF80E0F9CF9B
:1044D000828100811181882369F0C8010E94351012
:1044E000D82E682FC8010E940E0EB8018D2D0E9493
:1044F000181066CEC8010E94DA0DD82EF6CF202FF4
:104500002F70B22E802F807F19F0B29490EFB922D5
:10451000CC20B9F0BB2069F080E2810F883010F028
:10452000111109C08091B206B82AB092B2060E9459
:104530008712812F58C08091CA07B82AB092CA0743
:10454000F6CF812F0E940118BB2009F44EC080E2F3
:10455000810F883010F0111104C08B2D0E94290D9D
:1045600006C0B0948091CA07B822B092CA070E94D0
:1045700087123BC0302F3F70B32E802F807F803258
:1045800019F0B29480EFB8221123E9F0113009F448
:10459000ABC0CC2009F4B4C0DD2009F47CC020E01D
:1045A000F701408151816281738184810E948E1064
:1045B0008091F00681FDBDCFF701858180FFB9CFE5
:1045C0008F70858368C08091930782FD44C0CC20A2
:1045D000E1F1BB2039F08091B206B82AB092B20660
:1045E0000E94871280E00E946A18692D6850770B3C
:1045F0006430710520F40E94550A0E94600E812FDC
:10460000902F0E94450E8111B6C11092A005109204
:104610009F05AA20A9F08091140680FD11C0F70122
:1046200012828595859585950E946A13C7010E941F
:10463000EA1B809114068595859585950E942C131B
:1046400060E0C7010E94B1107DC980E00E9401189E
:10465000BB2059F282CFCC2011F1D11004C080913F
:1046600037068B2919C041E0D41206C08091370665
:104670008B290E94150DB9CF8091EF06823078F317
:10468000D812EDCF0E940A0D90919E058B2D892B9B
:10469000891380939E058B2D0E94F717A6CFD1100A
:1046A00003C00E940A0D17C08091EF0651E0D51299
:1046B00016C0823008F499CF8091B2068B2109F49C
:1046C00094CF0E940A0D90919E058B2D8095892391
:1046D000891380939E058B2D0E94F01786CF823020
:1046E00000F3D812DECF81CF8091F506CC2021F0E7
:1046F0008D1508F47ACFCFCFD81608F076CFEBCF50
:10470000DD2049F38091F3069091F406193321F0EE
:104710008091F1069091F2060E94B90F812F0E94BC
:10472000011863CF802F86958695837069F081305C
:1047300009F05BCF812F902F9370C11002C090E0E1
:1047400080E00E94290A51CF812F902F9370C110D1
:1047500002C090E080E00E943F0A47CF802F837024
:1047600091F5C11042CF412F429546954770440FB5
:10477000440F812F8F70042E01C0880F0A94EAF72E
:10478000212F207114FF07C02FE030E001C0220F5D
:104790004A95EAF72095302F3695369533703230AA
:1047A00069F050F440913806313029F0822B84238F
:1047B0000E948D131ACF842B822BFACF282B809145
:1047C00038068227F5CF8695CC2011F0802F817096
:1047D000882309F40ACF412F429546954770440F2C
:1047E000440F812F8F70042E01C0880F0A94EAF7BE
:1047F000212F207114FF07C02FE030E001C0220FED
:104800004A95EAF72095302F369536953370323039
:1048100069F050F44091C907313029F0822B84238C
:104820000E941B13E2CE842B822BFACF282B80917F
:10483000C9078227F5CFF02FFF70BF2ECC2029F0BB
:104840008F2F0E946A13812F27CF812F0E94F0178C
:104850008B2D0E942C13C9CE123F89F160F4103FBA
:10486000B9F0113F81F0CC2009F480C0D11061CEA5
:10487000802F8F7128C0133F49F1143FA1F7809119
:10488000930782FD2FC0802F8F71CC2011F31BC0A6
:104890008091F506CC2079F0D81608F0A6CE202F0E
:1048A0002F7181E090E001C0880F2A95EAF790917E
:1048B000C9078927B5CF8D1508F497CEF0CF802F83
:1048C0008F71C110C6CF0E946A138FCE80E0CC20BA
:1048D00009F4A6CF81E0902F9F7101C0880F9A95AF
:1048E000EAF79ECF8091EF06823040F1CC20D1F0E4
:1048F000909114069770943041F40E94300D802FEF
:104900008F710E942C13A12C70CED816E0F7202FA7
:104910002F71B22E822F0E946A1363E08B2D0E94AA
:104920007613F1CFD81630F00E94300D64E0802F5E
:104930008F71F5CF81E00E943913E5CFCC2059F07B
:10494000302F3F71B32E832F0E946A1363E08B2DAB
:104950000E9476134ACE81E00E94391341E04D1542
:1049600008F043CE82E00E9439133FCED110CACE68
:10497000802F8F716ECFCC2019F0D11046CE49CE4A
:10498000D11043CE20E0F7014081518162817381D3
:1049900084810E948E108091F00683FF36CE809134
:1049A0009F059091A005029709F02FCE812F0E94BC
:1049B00016192BCE0031FFE51F0709F4EDC80131B0
:1049C0002FE5120709F4EEC80E94550A80FF09C0BE
:1049D0008091C907882311F082FD03C082E00E9404
:1049E0006A13F7018281882309F4E4C88091C9071A
:1049F000882351F081FF08C02D9A8FE39FE1019732
:104A0000F1F700C000002D98F7018281F801E0580D
:104A1000FF45E732F10508F0CDC8E857FC4C0C948F
:104A2000AC3200313FE5130709F4B2C801314FE55C
:104A3000140751F682E0ADC806315CE5150709F0B0
:104A4000B9CB8091B206982F9A7A2091ED0620FF7B
:104A500004C0482F447409F090E021FF04C0482F9F
:104A6000417109F090E022FF04C0482F487809F016
:104A700090E023FF03C0827209F090E0332309F431
:104A8000F4CC81E0911101C080E080939D0589E222
:104A9000911185E30E947C0D0E9487120C94931C57
:104AA000EF92FF920F931F93CF93DF938091CD05E9
:104AB000807F09F04CC08091CA05882309F447C063
:104AC000C0911106E090D005D091C805F090C905BD
:104AD0000091CB051091CC05EC16C9F1A8016F2D02
:104AE0008D2F0E94620A2C2F30E0811135C0F90110
:104AF00083E0EE0FFF1F8A95E1F7DF01AF52BA4F57
:104B000011968C9111978F1127C08C918D1324C011
:104B100012968C91129781111FC013968D919C91C2
:104B2000801B910B883C9105B8F48091CD058F7066
:104B300080618093CD05EA52FA4F80818F70806149
:104B4000808388EC95E00E94EA1B0E94D00DCDB7CF
:104B5000DEB7E6E00C94E1322F5F3F4FC22FC77003
:104B6000BBCFA5E1B0E0E7EBF5E20C94BB328C01E2
:104B700085E0F801DE01519601900D928A95E1F7EA
:104B8000D8016C9011967C9011971296EC90129728
:104B90001396CD90DC9060E088EC95E00E94B11017
:104BA00088ECA82E85E0B82E5090C8054090C90525
:104BB0008090CB059090CC05A401642D852D0E949A
:104BC000620A81115CC1F090CA0596012819390961
:104BD000FF2009F417C18091CD05982F907F283CC4
:104BE000310508F0D2C0F8012181911181C0FE2C5D
:104BF00024111FC0908195111CC04091CE05509189
:104C0000CF05268137814217530799F4E11011C06F
:104C10008F7080618093CD05C5010E94EA1B809151
:104C2000CD05D80115968C938F2D6596E0E10C94F7
:104C3000D732A601672D862D0E94620AD82E81E008
:104C40008E25D11080E080FF18C04E2D672D862D57
:104C50000E94B00D882389F08091F00680FF0DC07E
:104C600088EC95E00E94EA1B88E0E8ECF5E0DF01C3
:104C70001D928A95E9F7F12CD7CF81E08E25D110CE
:104C800080E0B82FB170DB2E80FF29C04E2D672D3C
:104C9000862D0E94B00DC82E811121C0698A7A8AA2
:104CA00089899A890E946410292F22952F702230B9
:104CB00050F0243078F49F7051F0F8019581907F86
:104CC00031F4FC2CB1CF9F7011F08823D1F3805EBA
:104CD0008830B8F3C8010E94EA1BCD2CF2CFEE2039
:104CE00009F4A2CF8091CD0581608093CD05C3CF1B
:104CF00024111BC09081951118C04091CE05509190
:104D0000CF05268137814217530779F4E1100DC092
:104D10008583C8010E94EA1B88E0F801A8ECB5E091
:104D200001900D928A95E1F77FCFC8010E94711022
:104D3000882339F1EE2029F18091CD058032A0F051
:104D40002091C8053091C9053A8729871B86DD86E1
:104D5000CC868E878091CE059091CF05988B8F87DA
:104D6000CE0109960E94EA1B88E0F801A8ECB5E0A4
:104D700001900D928A95E1F70E945025FF24F3944B
:104D800053CFC8010E94EA1BF9CF992309F468CFD9
:104D9000F8019181941118C09081951115C040912E
:104DA000CE055091CF05268137814217530761F414
:104DB000E1100AC08583C8010E94EA1B88E0D50182
:104DC0001D928A95E9F730CFC8010E94711088239F
:104DD000C1F2EE20B1F28091CD05803228F220910F
:104DE000C8053091C9053A8329831B82DD82CC82B4
:104DF0008E838091CE059091CF0598878F83CE01C9
:104E00000196B0CF283C3105C8F6FE2CEE2009F4FF
:104E1000B8CFF8018181841124C08081851121C01F
:104E20002091CE053091CF058681978128173907CB
:104E3000C1F48091F00682FD6FCF9091CD0590FD79
:104E40006BCF907F09F468CF8091CD058583903F2B
:104E500009F45FCF982F907F905F8F70892B8583A7
:104E600058CFC8010E94711081117ECF8091CD056D
:104E700081608093CD05C8010E94EA1BD5CEEE204B
:104E800009F47FCFC8010E947110F82E882309F41D
:104E900078CF88E0F801A8ECB5E001900D928A95F2
:104EA000E1F78091C8059091C9050E9464100E94A5
:104EB0005025BACEA0E1B0E0E0E6F7E20C94C932AA
:104EC00029873A874B875C876D877E878F87988B8A
:104ED000CE0109960E94B12581112FC088E0FE0104
:104EE0003996DE01119601900D928A95E1F74C8575
:104EF0005D856A8589850E94620A81111EC0A09124
:104F0000D005B0E0CD010196877099272091110658
:104F100028171906E1F093E0AA0FBB1F9A95E1F755
:104F2000AF52BA4F98E0FE01319601900D929A95DA
:104F3000E1F78093D0050E94D00D809111069091E9
:104F4000D005891312C06096E2E00C94E5320E940D
:104F500092131092D0051092110688E0E8ECF5E06B
:104F6000DF011D928A95E9F7E8CFB8E08B9FC00179
:104F700011248F529A4F0E94B125882321F38091EA
:104F8000110690E001968770992780931106D5CF7E
:104F9000EF92FF920F931F93CF93DF938091FE06C2
:104FA000882361F0C091FD068CE0F82E8091FE060A
:104FB000C81748F01092FE061092FD06CDB7DEB776
:104FC000E6E00C94E132EE24E394EC0EE092FD0670
:104FD0000C2F10E0CF9DE0011124C150D94F4B811F
:104FE0005C81698188810E94620A81111DC08E8165
:104FF0009F81892B21F488859985019651F4288118
:1050000039814A815B816C817D818E819F810E9483
:105010005A27F09EF001F19EF00D1124E150F94F56
:10502000148213821092CA07CE2DC0CF1092860729
:105030001092850710921501809184078093830751
:105040000E949B0A0E94C8270895B0E0A0E0EBE20E
:10505000F8E20C94BA32C091830797E0892E01E000
:1050600010E02CE0322E3EEF932E442443948091A6
:1050700084078C1309C00E94C8270E949B0ACDB7E1
:10508000DEB7E1E10C94D632D0E0FE01EE0FFF1F57
:10509000E558F84F80819181889ED001899EB00D9E
:1050A0001124A15AB84F14962C911497211158C06D
:1050B0005090FE06EFEFF6E030E020E0712C5D014D
:1050C000251508F04BC0E284F384D501CD90DC9027
:1050D0006FEF7FEF612C462D50E0DA01AA0FBB1F66
:1050E000AC0DBD1D0D90BC91A02D109731F0EA16AE
:1050F000FB0609F4BA016394EECF6F3F7607A9F17E
:10510000D80102C0AA0FBB1F6A95E2F77A2AB8013C
:10511000062C02C0660F771F0A94E2F7AB014150DC
:10512000510974161506F9F4329EF001339EF00D04
:105130001124E150F94F889ED001899EB00D1124B1
:10514000A15AB84F12962D913C911397378326831D
:10515000908291829187808715964C920E946D0A69
:105160002196C37084CF148213822F5F3F4F3C96E9
:10517000A7CFA9E1B0E0EFEBF8E20C94B932942F9D
:10518000498B252F5A8B6B8B7C8B8D8B4C895D8942
:10519000622F892F0E94620A811109C080919F05A8
:1051A0009091A00501969093A00580939F058B890F
:1051B00081111092CA071D861E861F86188A85E0F7
:1051C000FE017196DE01199601900D928A95E1F724
:1051D0008091930782FF1EC08091D5069091D606DC
:1051E000892BC1F00E941D0A2091120630911306EE
:1051F000821B930B2091D5063091D6068217930718
:1052000020F08091140682FFE2C10E94370D8111C7
:105210000E940A0D4C855D856A8589850E94620A17
:10522000811111C061E0CE0109960E94B1106C019C
:105230008B8527EFC2162CE5D20681F4882321F155
:1052400081E08093150129853A854B855C856D85C4
:105250007E858F8598890E945A27C6C038EFC3166D
:105260003CE5D30629F4882379F00E941628EBCF79
:1052700049EFC4164CE5D40639F4882329F080910F
:1052800015018111F2CFDCCF0FE517E0512CB12CC5
:10529000A12C22242394312C2EEF422EF8014081A0
:1052A000518188248A94982C20E0822F90E0FC0180
:1052B000EE0FFF1FE40FF51F60817181611571050D
:1052C00031F0C616D70609F44C012F5FEECFF12C52
:1052D000FFEF8F169F0609F449C0F8014481F09052
:1052E00015018F2D411180E0F82FF170FF2EF8018C
:1052F000E58086819B85992309F4F8C0FF2009F495
:10530000F5C06090E9067090EA06E11013C0A101B3
:10531000082C01C0440F0A94EAF7842B86838091FD
:10532000FB069091FC068615970520F47092FC060A
:105330006092FB06C10102C0880F991F2A95E2F70F
:105340000197F80126812817190681F480918507B5
:1053500090918607009709F44BC00E940E0A6816C8
:10536000790608F045C021E0F80124835F28FFEFAB
:10537000AF1ABF0A095F1F4F24E0A216B10409F05B
:105380008DCF8B85882309F40DC1552009F40AC1FE
:105390000E941D0A90938607809385078091FE06E0
:1053A000883010F591E0980F9093FE0698E0FE018A
:1053B0003996DE01119601900D929A95E1F73CE045
:1053C000839FC00111248150994F28E0FE0131963E
:1053D000DC0101900D922A95E1F72FEF3FEFFC01E0
:1053E00031872087D386C2866996E2E10C94D53254
:1053F0008091830750918407982FF0E0E0E08513B7
:1054000014C090938307E017F10709F4AFCF90E041
:10541000FC01EE0FFF1FE558F84FB182A082019604
:105420008370992780938407A1CF682E712CF30194
:10543000EE0FFF1FE558F84F2081318147E0429F72
:10544000D001439FB00D1124A15AB84F6D917C91AA
:105450001197798F688F40E020E030E0E32FF0E093
:10546000EE0FFF1F688D798DE60FF71F808091800A
:1054700081149104E1F0F8010190F081E02DFF8B9F
:10548000EE8B20E005C08616970609F44F2D2F5F9E
:10549000E22FF0E0EE0FFF1F6E897F89E60FF71F06
:1054A000608171816115710571F73F5FD7CF44232A
:1054B000D1F0F801231708F0FD0121E024830E1735
:1054C0001F0721F490938307F42E50CF981305C043
:1054D000AE17BF0711F49F5F937093012F5F3F4F8B
:1054E000822F83708CCFF0E0E0E0F7CF90E0E11006
:1054F00020C0B10102C0660F771F2A95E2F79B0119
:10550000215031098217930731F4442309F448C02C
:10551000C5010E946D0AC101082C01C0880F0A94C0
:10552000EAF7982F9095F801868189238683FE2CCF
:105530001DCF9C01082C02C0359527950A94E2F7EF
:10554000A90141705527BC01615071098623972339
:10555000892B11F5452B01F1F80182819381892B6B
:10556000C1F01B821C821D821E8249824A820E94D7
:105570001D0A8160582F9D838C83F801828193815D
:105580008F83988729813A814B816D817E810E942A
:105590005A27F8011582BFCFF22FF170EF2EBBCF43
:1055A000EF2CB9CF9091830780918407981731F041
:1055B0000E942528552009F446CE16CF0E94C82700
:1055C00010928607109285070E949B0AF3CF82E013
:1055D0000E9439131ACEA5E0B0E0E1EFFAE20C9494
:1055E000C9329093AF068093AE06811520E29207F0
:1055F00030F40E9452182596E2E00C94E53280EFD8
:1056000089838A831B820E941D0A8160782F9D8373
:105610008C8349815A816B818D810E94B928EBCF9F
:10562000A5E0B0E0E6E1FBE20C94C9329093AF064E
:105630008093AE06811520E2920730F40E949A1AF8
:105640002596E2E00C94E53280EF89838A8381E03D
:105650008B830E941D0A8160782F9D838C834981F2
:105660005A816B818D810E94B928EACF1F920F92D7
:105670000FB60F9211242F933F934F935F936F9325
:105680007F938F939F93AF93BF93CF93DF93EF93CA
:10569000FF93D091E900DF708091EC00C82FC170BA
:1056A00080FDC0E81092E9008091F000877F809330
:1056B000F00078940E94A8131092E9008091F00005
:1056C00088608093F000CD2BCF70C093E900FF91EC
:1056D000EF91DF91CF91BF91AF919F918F917F918A
:1056E0006F915F914F913F912F910F900FBE0F904F
:1056F0001F9018951F920F920FB60F9211242F939F
:105700003F934F935F936F937F938F939F93AF9349
:10571000BF93EF93FF938091E10082FF15C08091CA
:10572000E20082FF11C08091E1008B7F8093E10055
:10573000209199072F5F822F62E30E94A032992364
:1057400009F4C0C0209399078091DA0080FF28C037
:105750008091D80080FF24C08091DA008E7F8093F2
:10576000DA008091D90080FFE3C080E189BD82E149
:1057700089BD09B400FEFDCF81E08093BF0789E4B5
:105780009EE00E94E30780919A07811109C00E9460
:1057900085080E9450098091E20084608093E200B5
:1057A0008091E10080FF1BC08091E20080FF17C064
:1057B0008091E2008E7F8093E2008091E200806120
:1057C0008093E2008091D80080628093D80019BC59
:1057D00085E08093BF0781E59EE00E94E30780910A
:1057E000E10084FF2FC08091E20084FF2BC080E1A4
:1057F00089BD82E189BD89B5982F917080FFFBCF6B
:105800008091D8008F7D8093D8008091E1008F7EB9
:105810008093E1008091E2008F7E8093E20080918E
:10582000E20081608093E2008091C007882309F440
:1058300089C084E08093BF0785E59EE00E94E3076E
:105840008091BF078091E10083FF2BC08091E2002F
:1058500083FF27C08091E100877F8093E10082E091
:105860008093BF071092C0078091E1008E7F8093E4
:10587000E1008091E2008E7F8093E2008091E2005F
:1058800080618093E20042E060E080E00E941E09B7
:105890008091F00088608093F00089E59EE00E948E
:1058A000E307FF91EF91BF91AF919F918F917F910E
:1058B0006F915F914F913F912F910F900FBE0F907D
:1058C0001F9018951092990780919807882309F4E2
:1058D0003BCF8091BF078430C1F49091E9009F7065
:1058E0002091EC00822F817020FD80E8892B95E0CB
:1058F0009093E9009091EB0090FF04C09091EE002E
:1059000097FD08C08F708093E900109298071CCF14
:105910001092F1009091E80095FDFACF9091E80087
:1059200090FFF0CF9091E8009E779093E800EACF47
:1059300019BC1092BF078DE49EE00E94E30710920D
:105940009A072ECF8091E30087FD93E09093BF07E5
:1059500073CF78941F921FB61F9211248F939F9339
:10596000AF93BF9380918E0790918F07A09190077E
:10597000B09191070196A11DB11D80938E07909360
:105980008F07A0939007B0939107BF91AF919F911C
:105990008F911F901FBE1F9018951F921FB61F92C8
:1059A00011248F939F93AF93BF9380918D078111A3
:1059B00013C080918E0790918F07A0919007B091AE
:1059C00091074196A11DB11D80938E0790938F077B
:1059D000A0939007B0939107BF91AF919F918F9142
:1059E0001F901FBE1F901895CDB7DEB7E4970FB676
:1059F000F894DEBF0FBECDBF85B7806885BF85B781
:105A0000806885BF84B7877F84BF0FB6F894A89558
:105A100080916000886180936000109260000FBEEA
:105A200080E890E00FB6F894809361009093610055
:105A30000FBE8FEB9EE090937901809378010E94D6
:105A400091110E94C30F0E9485080E945009809105
:105A5000E20084608093E20078948091BF078823FD
:105A6000A1F01091E9001F709091EC00892F8170D6
:105A700090FD80E8182B1092E9008091E80083FDEA
:105A80000E94A8131F701093E90082E084BD93E088
:105A900095BD9AEF97BD80936E000E94BF10811153
:105AA00002C00E942D1700E511E0D8018D918D01F3
:105AB0008F3F11F00E942F0BB1E00A351B07A9F7A9
:105AC0000AE511E084E6E82E81E0F82EF8018191E4
:105AD0008F018F3F11F00E942F0BE016F106B1F7F6
