:100000000C94EA030C9407040C9407040C94070462
:100010000C9407040C9407040C9407040C94070434
:100020000C9407040C9407040C9422210C94F621E0
:100030000C94671B0C9407040C9407040C9407049D
:100040000C9407040C9407040C9407040C94070404
:100050000C9407040C94EE1B0C9407040C940704F6
:100060000C9407040C9407040C9407040C940704E4
:100070000C9407040C9407040C9407040C940704D4
:100080000C9407040C9407040C9407040C940704C4
:100090000C9407040C9407040C9407040C940704B4
:1000A0000C9407040C9407040C9407040A002530F0
:1000B0003862003A200025303258000A722F63203F
:1000C00030313233343536370A004B4C3A206B63CB
:1000D0003A203078253034582C20636F6C3A202534
:1000E000752C20726F773A2025752C2070726573FD
:1000F0007365643A202531752C2074696D653A204A
:1001000025752C20696E746572727570743A20259D
:1001100031752C20636F756E743A2025750A003A8C
:10012000706570655F6B696E675F726F79616C3A5D
:10013000010128003A736D696C65795F73706974A9
:100140005F7375727072697365643A010128003AD1
:10015000736D696C65795F7469705F6665646F72F1
:10016000613A010128003A736D696C65795F7461C9
:100170006B656D6F6E65793A010128003A64726FA4
:100180006F6C696E675F666163653A010128003ACA
:1001900068656172743A010128003A736D696C6593
:1001A000795F6361745F66616E63793A010128006B
:1001B0003A736D696C65795F6361745F7370616ECA
:1001C0006973683A010128003A7375727072697335
:1001D00065643A010128003A6F6F663A0101280010
:1001E0003A746869733A010128000102E07601035C
:1001F000E0000102E0630103E0000102E078010396
:10020000E0000102E07A0103E0000102E066010380
:10021000E0000102E0640103E0000102E073010379
:10022000E0000102E0610103E00029002800010272
:10023000E201012B0103E2003030000102E077010E
:1002400003E0000102E201013D0103E2000102E0DE
:100250000102E2740103E20103E0000102E0010295
:10026000E2670103E20103E0000102E00102E201B2
:1002700001290103E20103E0000102E00102E501BE
:1002800001290103E50103E00001013B0102E076E1
:100290000103E00001013B0102E061780103E0009D
:1002A00001013B0102E061630103E0000102E3019F
:1002B00002E1730103E10103E3000102E3650103CD
:1002C000E3000102E3640103E3000102E301012B07
:1002D000740103E3000102E30102E00101500103A4
:1002E000E00103E3000102E30102E001014F010329
:1002F000E00103E300544553540046003E003F0034
:100300004000410049004C004A00260027002D0013
:100310002E002A00075D085D2500120013002F0043
:1003200030003100B85DB75D0C000E000F003300E7
:1003300034002800B95DBB5D0D0036003700380081
:100340001E00AC005200AB0010002C00E200E600E2
:10035000E300500051004F0000003C003B003A0019
:100360003500E000BC5D0A003D00230022002100B2
:1003700020003900E500E10024001C0017001500F2
:1003800008001A0014002B001800290009000700BB
:100390001600040001511F000B002400210025005D
:1003A0002200260023005800850055001E0054003E
:1003B0001F005700200056002B004200270043007A
:1003C0000000440037004500000005001900060049
:1003D0001B001D00E0004C001100010001000100A5
:1003E000010001000100010001004200430044003F
:1003F00045004C00045D055D4100D55DD65D010002
:100400000100010001000100D45D01000100AA000B
:10041000A9000100010001000100AC00AB00AE002A
:100420003A000100B55D010001000100010001007A
:100430000100B45DB65DB35D000001000100010084
:100440000100E000015C010001003F003E003D00B2
:100450003C000100010001004000D25DD15DD05D93
:10046000CF5DCE5DCD5D0100D35D005CC85DC75D35
:10047000C65DC55D01003B0001000100B45DB55DD6
:10048000BF5D0100B35D010001000100010001003A
:10049000B65D010001000100010001000100010042
:1004A000000001000100010000000100CC5DCB5DF7
:1004B000CA5DC95DE3000100010044454255473A69
:1004C0002064697361626C65642E0A00444542557C
:1004D000473A20656E61626C65642E0A000A002549
:1004E000303258006C65645F7461736B3A20004F62
:1004F0006E6573686F743A2074696D656F75740A00
:10050000004F6E6573686F743A2061637469766535
:100510003A2025640A00556E69636F646520696E30
:10052000707574206D6F64652073657420746F3A04
:100530002025750A00556E69636F646520696E70C9
:100540007574206D6F646520696E697420746F3AEC
:100550002025750A0000000000000000002A2B285A
:10056000000000000000000000000000000000008B
:1005700029000000002C1E342021222434262725A7
:100580002E362D3738271E1F2021222324252633DF
:1005900033362E37381F0405060708090A0B0C0DE1
:1005A0000E0F101112131415161718191A1B1C1DF3
:1005B0002F3130232D350405060708090A0B0C0DD1
:1005C0000E0F101112131415161718191A1B1C1DD3
:1005D0002F3130354C00000000000000000000000A
:1005E000000000000000000000000000000000000B
:1005F0000000000000000000007E0F00D4FFFFFF9D
:10060000C7000000780A002530325820006B657959
:10061000626F6172645F7265706F72743A20006419
:10062000656C5F6B65795F6269743A2063616E2700
:10063000742064656C3A20253032580A0061646485
:100640005F6B65795F6269743A2063616E2774201D
:100650006164643A20253032580A005B735D005BA8
:10066000575D005B535D005B525D005B445D005B6A
:10067000435D001403480050002000340036003071
:10068000003100300041000000080351004D004BD4
:100690000000000403090409025B00030100A0FA42
:1006A00009040000010301010009211101000122D8
:1006B000400007058103080001090401000103004F
:1006C0000000092111010001226D000705820320AD
:1006D00000010904020002030000000921110100C9
:1006E00001222200070583032000010705030320E0
:1006F00000011201000200000008EDFE6060010030
:10070000010200010631FF0974A1010975150026D7
:10071000FF009520750881020976150026FF0095D7
:100720002075089102C005010980A1018503190106
:100730002AB700150126B700950175108100C00584
:100740000C0901A101850419012AA002150126A0A6
:1007500002950175108100C005010906A1018506F9
:10076000050719E029E715002501950875018102A3
:100770000507190029EF1500250195F07501810283
:100780000508190129059505750191029501750363
:100790009101C005010906A101050719E029E71526
:1007A00000250195087501810295017508810105F3
:1007B00007190029FF150026FF009506750881001E
:1007C0000508190129059505750191029501750323
:1007D0009101C00011241FBECFEFDAE0DEBFCDBF14
:1007E00011E0A0E0B1E0E4E3F9E402C005900D926D
:1007F000A038B107D9F722E0A0E8B1E001C01D920E
:10080000A93DB207E1F70E942E150C945C240C94CC
:100810000000FF93EF93E0918001F0918101309708
:1008200009F00995EF91FF910895FC0185918030C1
:1008300011F0EFDFFBCF0895FF27E0E230E247FF42
:100840000CC0419597FF09C0EDE2609570958095C9
:100850009095611D711D811D911D27FF02C021957D
:1008600030E350E2AA27660F771F881F991FAA1F3F
:10087000A41710F0A41B63955A95A9F7AA3008F0A5
:10088000A95FA05DAF93F395611571058105910591
:1008900041F7ED3211F4EF93F395F21718F43F930B
:1008A000F395FBCF8F91B5DFFA95E1F70895E991C4
:1008B000F9918591803021F0853219F0AADFF9CFC6
:1008C000089520E0E89455915532C1F3503311F466
:1008D000689455915A3348F4505390F3220F022EE6
:1008E000220F220F200D250FF4CF0EF421958991B0
:1008F0009991533619F3533729F1533559F1BC0106
:1009000088279927E8945C3621F489919991689415
:100910005591543639F446EF7EF077FF0DC08FEFD6
:100920009FEF0AC055374AE039F0583540E121F0D1
:10093000523642E009F00895FF93EF937DDFEF9187
:10094000FF91B7CFFF93EF93FC0181918030B9F312
:1009500060DFFBCFFF93EF9368DFF1CFDF93CF939F
:10096000CDB7DEB72596A3DFCF91DF910895299803
:1009700085E18A95F1F70000299A85E18A95F1F7DA
:10098000000008952E9A85E18A95F1F700002E98CF
:10099000089508950E94C904089508950E94CD0401
:1009A000089584B1826484B923982E98299A569A1E
:1009B0005E980E944D070E94C2040895B0E0A0E036
:1009C000E4EEF4E00C94CA230E94B7040E94B7043A
:1009D0000E94B7040E94B7040E94B7040E94B704A3
:1009E0000E94B70402E811E080E9E82E81E0F82EC9
:1009F000E801AA24A3948991D7018D937D01D12C7C
:100A0000C12CB12C0E94B70483B1B0E18B9FC0010F
:100A10001124807890E00C2C02C0959587950A945B
:100A2000E2F7B82AEFEFCE1ADE0AF8E0CF16D104CB
:100A300049F7FE013197B082F701319780818B151C
:100A400041F0A092AC010E94C71B9093AE0180932D
:100A5000AD0121E0C039D20771F68091AC01882345
:100A6000A1F08091AD019091AE010E94DF1B06972D
:100A700060F0EEE9F1E0D8018D918D018193B1E054
:100A800000391B07C1F71092AC010E94C2040E94FA
:100A9000500781E0CDB7DEB7EAE00C94E623E82FFB
:100AA000F0E0E256FE4F80810895B0E0A0E0EBE573
:100AB000F5E00C94CC238BEB90E00E9415048EE9BA
:100AC000E82E81E0F82ED0E0C0E096EBC92E90E051
:100AD000D92E0EEA10E0DF93CF93DF92CF920E94DF
:100AE000AE0483EB90E00E941504F70181917F0131
:100AF0000E94ED071F928F931F930F930E94AE04E5
:100B00008CEA90E00E94150421968DB79EB7089656
:100B10000FB6F8949EBF0FBE8DBFCE30D105D9F66B
:100B2000CDB7DEB7E8E00C94E8230F931F93CF9383
:100B3000DF93182F092FEB018A81882381F0E12FA1
:100B4000F92FE25BFD45E632F10548F4E25AFB4D30
:100B50000C94BC2360E085EF92E00E945D188D81CB
:100B600082958F701F928F938D8181701F928F93CA
:100B70008C818F938B818F938A811F928F93898130
:100B80001F928F9388811F928F930F931F938AECEC
:100B900090E09F938F930E94AE048DB79EB74096CE
:100BA0000FB6F8949EBF0FBE8DBF81E0DF91CF914D
:100BB0001F910F91089560E085EE92E0CECF60E046
:100BC00085ED92E0CACF60E08AEC92E0C6CF60E0AB
:100BD00082EC92E0C2CF60E08AEB92E0BECF60E0B0
:100BE0008CEA92E0BACF60E080EA92E0B6CF60E0B3
:100BF00084E992E0B2CF60E089E892E0AECF60E0B5
:100C000089E792E00E945D1860E089E692E0A5CF56
:100C100060E08BE592E0A1CF60E08DE492E09DCFB3
:100C200060E083E492E00E945D1860E08BE392E074
:100C300094CF60E088E392E090CF60E08EE292E0B3
:100C40008CCF60E08CE292E088CF60E08AE292E0B4
:100C500084CF60E082E292E080CF60E08AE192E0BF
:100C60007CCF60E082E192E078CF60E08AE092E0C1
:100C700074CF60E082E092E070CF60E08AEF91E0B4
:100C80006CCF60E082EF91E068CF60E08AEE91E0A7
:100C900064CF60E080EE91E060CF60E087ED91E0AE
:100CA0005CCF60E088EC91E058CF60E080EB91E0B1
:100CB00054CF60E08AE991E050CF60E08FE891E0A6
:100CC0004CCF60E08CE791E048CF60E086E691E0B1
:100CD00044CF60E08FE491E040CF60E084E391E0B6
:100CE0003CCF60E08FE191E038CF9C013A9521152F
:100CF0003F4150F5FC01EE27F170BC016627727090
:100D0000AC01442754709C012227387094FF0EC018
:100D100080E1EF2B09F480E0672B09F08062452B1E
:100D200009F08064232B89F08068089581E0EF2B1F
:100D300009F480E0672B09F08260452B09F084609C
:100D4000232B19F08860089580E00895CF93DF93F6
:100D5000EB010E947506FE010995DF91CF91089580
:100D6000CF93DF93EC01805E9109089720F06DEA44
:100D70007BE0209711F466E379E0CE010E94A6069D
:100D80008C2F0E94A708DF91CF910895CF93DF9316
:100D9000EC010E94EB08CE01805E9109089720F0DB
:100DA00064EB7BE0209711F46DE379E0CE010E94C3
:100DB000A606DF91CF9108950F931F93CF93DF93F2
:100DC0008C01EB010E94B006209741F4C8010E94FB
:100DD000C606DF91CF911F910F9108958FE99FE093
:100DE0000197F1F700C000002197EECF70E060E0BE
:100DF0008933910511F460E570E00E94DC060895E6
:100E000081E008950E949505089508950E940507C0
:100E10000895A5E0B0E0EFE0F7E00C94D12349831A
:100E20005A833091B40189819A81311119C06623A6
:100E300099F0222389F00E94250D182F682F8981AF
:100E40009A810E94020D69817A81812F0E94FB1391
:100E50002596E3E00C94ED230E94130D182FF3CF99
:100E60000E94250D69817A81F1CFFC01262F4081F6
:100E700051816281738184810E940907089581E014
:100E80000895CF93DF93EC0160E00E943507BE0127
:100E90000E940607DF91CF9108950E94CA04089529
:100EA0000E94CE04089508950E94CD0B0E9453071E
:100EB0002FEF84E39CE0215080409040E1F700C098
:100EC000000008950E9454070E94121C08950E9479
:100ED00054070E94231C08950F931F93CF93DF9311
:100EE000EC018B010E940207811106C080E0DF91B6
:100EF000CF911F910F910895B801CE010E944F1616
:100F00008823A1F3B801CE010E945319882371F3FD
:100F1000B801CE010E948716882341F3B801CE01A3
:100F20000E94C518882311F3F80182818823D9F023
:100F3000CB35FDE5DF07A9F170F4C130ECE5DE0744
:100F4000B1F0CF3DFCE5DF0721F1C115DC4559F4D7
:100F50000E946207CBCFCD35EDE5DE07F9F020F139
:100F6000C83ADD45C1F0C8010E940007C0CF90918A
:100F70008A02892F8E7F90FF816080938A0280FF92
:100F800005C08CEC94E00E941504B0CF8AEB94E08D
:100F9000FACF0E944F120E946707A8CF0E949411B7
:100FA000E2CF0E949E11DFCF0E94A211DCCFCF932F
:100FB000DF93EC0161E00E943507BE010E946C07DF
:100FC000DF91CF9108950E94441B0E941808089554
:100FD0000E941C080E94491B0895829590E09C0184
:100FE000220F331F220F331F2C7C959587959595E3
:100FF00087958373282B30E0C901880F991F8A7A5F
:10100000359527952575822B089508950E9405082A
:10101000089581E008950E94090808950895CF93E6
:10102000C82F0E9406088C2F0E940B08CF910895AC
:1010300080E00E940F0808950E94AF190E940F08D7
:101040000895CF930E94AF19C82F8091AF018C17DC
:1010500089F1C093AF010E94D31B6093B0017093DC
:10106000B1018093B2019093B30180918A0282FF13
:101070001EC080FF1CC084EE94E00E941504809185
:101080008A0280FF14C01F92CF938FED94E09F934C
:101090008F930E94AE0480918A020F900F900F9060
:1010A0000F9080FF04C08DED94E00E9415048C2FFA
:1010B0000E940F08CF910895ABE0B0E0E2E6F8E0BF
:1010C0000C94D2234F83588769877A878B87611165
:1010D0000E9493101E821D8285E0FE013796DE017C
:1010E000119601900D928A95E1F78091C00282FFDE
:1010F0000CC00E945310882319F082E00E94501106
:101100000E943A1081110E94C1108C819D81892B0F
:1011100061F449815A816B817C818D819E810E941D
:10112000910F2B96E2E00C94EE2389819A8189231A
:101130008F3F79F3CE0101960E943F078111E9CFDD
:10114000F0CFFC01808191810E94570D0895CF93CB
:10115000C82F8823B9F08CEF8C0F813AA8F46C2F3C
:1011600080910001909101010E94521A882329F078
:101170008C2F0E9428100E94CF108C2F0E942010CC
:101180000E94CF10CF91089580E28C0F883048F4F0
:10119000C77081E001C0880FCA95EAF70E947310FA
:1011A000EFCFEBE5EC0FE33040F4F0E0E35CFE4F13
:1011B000808190E00E94121AE5CFC85AC73110F71B
:1011C000EC2FF0E0EE0FFF1FE15FFE4F8081918179
:1011D0000E94281AD7CF882339F19CEF980F913AB3
:1011E00028F40E9428100E94CF10089590E2980FD2
:1011F000983050F4877091E001C0990F8A95EAF712
:10120000892F0E947910EFCF9BE5980F933028F437
:1012100090E080E00E94121A0895885A873120F4E5
:1012200090E080E00E94281A08951F93CF93DF93E7
:10123000182FEB010E94A708209739F4812F0E94F4
:10124000EB08DF91CF911F9108958FE99FE00197FF
:10125000F1F700C000002197EFCF70E060E0893324
:1012600011F460E570E00E9415090895882321F0CB
:101270000E9473100E94CF100895882321F00E94CD
:1012800079100E94CF100895B0E0A0E0EAE4F9E000
:101290000C94CB236C01D62FC72FFC010281F58063
:1012A000F2949FE0F9220E946910E82E8823B9F099
:1012B000E02E0023A1F08C2F807F803421F080E28B
:1012C0008D0F8830D0F08091C00282FF16C082E07E
:1012D0000E9450110E94691091E0E82EE926BC2E70
:1012E000B2948FE0B822FBE0FB1508F468C0EB2D48
:1012F000F0E0EC57FB4D0C94BC23E12CF0CF1C2FFD
:101300001F70C07F11F01295107F002399F01123F8
:1013100059F080E28D0F883010F0D11107C0812F75
:101320000E9473100E94CF108D2F41C0812F0E9408
:101330008610F8CF8D2F0E94EB08112309F43FC0CF
:1013400080E28D0F883010F0D11104C0812F0E94EF
:10135000791003C0812F0E948C100E94CF102FC0E3
:101360001C2F1F70C07FC03211F01295107FDD233B
:1013700081F0D13009F482C0002309F48BC0FF2032
:1013800009F45BC0F601858180FFCECF8F70858325
:1013900054C08091C00282FD33C0002359F0112354
:1013A00029F0812F0E9473100E94CF1080E00E94CC
:1013B000A70805C080E00E94EB081111C7CFEB2DF4
:1013C000E850FF0B349720F40E94AF190E940F08D9
:1013D000EE2089F00E944F1080FD0DC0F6011282B0
:1013E0000E9449100E94600CC6010E94830B0E945B
:1013F00049100E94700CCDB7DEB7E9E00C94E723EA
:101400000023E9F0F11006C00E949610812B0E9483
:101410003609D5CF21E0F21206C00E949610812B2A
:101420000E94AA10CCCF35E0F312EECF0E94C1107B
:101430000E943710812B0E949D10812FE8CFF11060
:1014400003C00E94C11011C081E0F81212C00E94B6
:101450007010812309F4B3CF0E94C1100E9437108D
:10146000912F909589230E949D10812F0E943D0904
:10147000A6CF95E0F91609F4A2CFE3CF002329F017
:10148000E5E0EF1508F49BCFD8CFF4E0FF1508F4A2
:1014900096CFEBCFFF2049F3D93349F4FFEF27EE86
:1014A00033E0F15020403040E1F700C000008D2FC4
:1014B0000E94EB0884CF8C2F86958695837069F007
:1014C000813009F07CCF8D2F9C2F9370011102C0C9
:1014D00090E080E00E94281A72CF8D2F9C2F93708D
:1014E000011102C090E080E00E94121A68CF8C2F98
:1014F0008370A1F5011163CF4D2F4295469547703A
:10150000440F440F2D2F2F7030E0042E02C0220F05
:10151000331F0A94E2F790E080E0D4FF09C08FE027
:1015200090E002C0880F991F4A95E2F78095909548
:10153000C695C695C370822B932BC23049F058F4E0
:10154000C13019F00E942E0C3ACF0E94250C37CFE3
:101550000E94370C34CF0E94220C31CF8695002395
:1015600011F08C2F8170882309F429CF4D2F4295DB
:1015700046954770440F440F2D2F2F7030E0042EF6
:1015800002C0220F331F0A94E2F790E080E0D4FFFC
:1015900009C08FE090E002C0880F991F4A95E2F7DA
:1015A00080959095C695C695C370822B932BC230BB
:1015B00049F058F4C13019F00E949B0C00CF0E94F2
:1015C000920CFDCE0E94A40CFACE0E94460CF7CEDF
:1015D000CF70002329F08C2F0E94600C8D2F17CF25
:1015E0008D2F0E943D098C2F0E94700CE8CED23FB7
:1015F00051F160F4D03FB9F0D13F81F0002309F4FC
:101600005AC0F11091CE8C2F8F7121C0D33F11F1B0
:10161000D43FA1F78091C00282FD26C08C2F8F712C
:10162000002311F314C0002349F084E08F1508F45F
:10163000C6CE8C2F8F710E94820CC1CE95E09F1573
:1016400008F4BDCEF6CF8C2F8F710111CDCF0E9443
:10165000600CB5CE002329F08C2F8F710E94540CA2
:10166000AECE0E944F0CABCE0023C1F00E944F10B3
:10167000843041F40E9446118C2F8F710E94700CAF
:10168000E12C9DCEE4E0EF15D8F3CF718C2F0E94B2
:10169000600C63E08C2F0E942811F2CFF4E0FF155C
:1016A00030F40E94461164E08C2F8F71F4CF81E0FA
:1016B0000E945011E5CFFF2059F0D93309F0F7CE41
:1016C0002FEF37EE83E0215030408040E1F7EDCE40
:1016D0008C2F8F7189CF0F931F93CF93DF93EC01E2
:1016E000688179818A810E94620D8C010E94AD0C13
:1016F0000E94210CB801CE010E944409DF91CF91D4
:101700001F910F910895CF93DF93EC018B819C8102
:10171000892B29F08881998189238F3F51F4DF91AA
:10172000CF910895CE010E946B0BCE010E9441071C
:10173000F6CFCE010E94D7078111F4CF0E94691025
:10174000882369F38A81882351F38091C00282FF44
:10175000E6CF82E00E945011E2CF882321F00E9460
:1017600086100E94CF100895882321F00E948C10CB
:101770000E94CF10089590E080E00E94121A90E03D
:1017800080E00E94281A0E9493100E94CF100895B2
:101790000E9430100E94BB0B08950E9483100E948B
:1017A000C80B089592959F70963091F058F4925F0F
:1017B0009F70923058F4803F19F030F4883E30F436
:1017C00081E008959A5FF4CF843FD1F380E00895DB
:1017D000883EB0F3813FD1F7F3CFFC018381948140
:1017E000892B29F08081918189238F3F11F480E03A
:1017F0000895808191810E94570D0E94D20B089517
:10180000A5E0B0E0E6E0FCE00C94D2232596E2E00F
:101810000C94EE23A6E0B0E0E0E1FCE00C94D223CF
:101820002696E2E00C94EE2308950E94140C08958D
:101830000E94150C9093F0018093EF010E94BB0B66
:10184000089508950E94180C08952091EF01309199
:10185000F001822B932B0E94180C08952091EF0128
:101860003091F001822393230E94180C0895209157
:10187000EF013091F001822793270E94180C089500
:101880000E94140C08950E94400C08950E94430C7D
:101890009093EE018093ED010E94BB0B089590E0C0
:1018A00080E00E94460C089521E030E0A90102C0CA
:1018B000440F551F8A95E2F7CA010E94460C08950D
:1018C00021E030E002C0220F331F8A95E2F78091B9
:1018D000ED019091EE01822B932B0E94460C08950E
:1018E00021E030E002C0220F331F8A95E2F72095F5
:1018F00030958091ED019091EE01822393230E9417
:10190000460C089521E030E002C0220F331F8A9573
:10191000E2F78091ED019091EE01822793270E94DA
:10192000460C08952091ED013091EE01822B932B0E
:101930000E94460C08952091ED013091EE01822322
:1019400093230E94460C08952091ED013091EE0101
:10195000822793270E94460C08950895262F27700A
:1019600091E001C0990F2A95EAF723E076956795F3
:101970002A95E1F7660F771F660F771FFA01E60FCA
:10198000F71F50E040E0682F70E08191DF01119770
:101990009B01042E02C0369527950A94E2F7217028
:1019A00021952827292328272C934F5F5F4F443008
:1019B000510559F70895A82FA77023E096958795AC
:1019C0002A95E1F7880F991F880F991FFB01E80FEF
:1019D000F91F50E040E080E0219130E00A2E02C083
:1019E000369527950A94E2F721703327042E01C01B
:1019F000220F0A94EAF7822B4F5F5F4F4430510564
:101A000059F70895262F9E3068F4883058F438E04E
:101A1000939FB0011124680F711D45EB51E0822F97
:101A20000E94AE0C08959E3070F4883060F448E057
:101A3000949F9001112465EB71E0820F932F911D0B
:101A40000E94DB0C089580E00895B0E0A0E0EBE296
:101A5000FDE00C94CB237C010091ED011091EE018F
:101A60008091EF019091F001082B192BCFE0D0E08D
:101A7000CC24C394D12CBC2EC6010C2E02C0880FDE
:101A8000991F0A94E2F780239123892B49F4219727
:101A900090F7B12C8B2DCDB7DEB7E9E00C94E7239E
:101AA000B7018C2F0E941714019789F3F3CFCF93BE
:101AB000DF93EC010E94250DBE010E941714DF91F7
:101AC000CF9108951F93CF93DF93EB019091B401D1
:101AD000992339F0CB010E94570DDF91CF911F91CF
:101AE0000895882369F0CB010E94250D182F682FD7
:101AF000CE010E94020DBE01812F0E941714EDCF6E
:101B0000CB010E94130D182FF6CF1F93CF93DF93B5
:101B1000C091F10116E08091F2018C1304C0DF91B5
:101B2000CF911F910895D0E01C9FF0011D9FF00DF3
:101B30001124ED50FE4F4081518162817381848177
:101B400095810E940A0C2196C770E5CF409123022F
:101B50005091240260912502709126028091270203
:101B6000909128020E940A0C08951F93CF93DF934F
:101B700080912802807F09F049C080912502882346
:101B800009F444C08091F101C091F20160912302F7
:101B900070912402A0912602B0912702D62FD7235C
:101BA00016E0C81799F190E0109711F0DF3F19F493
:101BB00001968770F6CF189F9001199F300D112460
:101BC000F901ED50FE4F41814713F2CF408146139A
:101BD000EFCF42814111ECCF438154814A1B5B0B13
:101BE000483C510528F7809128028F7080618093CE
:101BF0002802F901E850FE4F80818F708061808358
:101C000083E292E00E94830B0E94850DDF91CF91C9
:101C10001F910895A1E1B0E0E0E1FEE00C94CA2339
:101C20008C0185E0F801DE011D9601900D928A95E8
:101C3000E1F7F801E28083E2C82E82E0D82E6091BD
:101C40002602709127026115710509F44EC1909129
:101C5000230220912402892F82238F3F09F445C15A
:101C600040815181A380B480F0902502F501E61BEC
:101C7000F70BFF2009F4EAC080912802382F307F4B
:101C8000E83CF10508F0A3C031116DC0FE2C25130E
:101C900016C0941314C0E11012C08F70806180933D
:101CA00028020E94A60DC6010E94830B8091280283
:101CB000F80185838F2D6196EAE00C94E623A11448
:101CC000B10429F0842F85238F3F09F027C180E0DC
:101CD000F82FF170DF2E80FF3CC08091F101209140
:101CE000F20136E0821315C04D875E878D859E8593
:101CF0000E94570D292F22952F702230F0F02430AA
:101D000018F59F70F1F0F8019581907FD1F4D12CF6
:101D10001EC090E0389FF001399FF00D1124ED5066
:101D2000FE4F6181651306C06081641303C0628148
:101D3000E6120FC001968770D5CF9F7011F08823EF
:101D400031F3805E883018F3C8010E94830BFD2CAC
:101D5000B1CFEE2009F4AECF80912802816080934C
:101D60002802F12CA7CF251306C0941304C0F80154
:101D7000EE2009F487C0C8010E94ED0B882319F1F9
:101D8000EE2009F180912802803270F02091230228
:101D90003091240238872F831986BB86AA868C87C8
:101DA000CE0107960E94830B86E0F801A3E2B2E021
:101DB00001900D928A95E1F70E94B50D0E94A60D43
:101DC000FF24F39477CFC8010E94830BF9CF311120
:101DD00013C07A2DB98AA88A6E2D89890E94000CB9
:101DE00083E292E00E94830B86E0F60111928A95CD
:101DF000E9F70E94A60DB5CF25130FC094130DC0AF
:101E0000E1100BC0F8018583C8010E94830B86E0B6
:101E1000F60111928A95E9F74DCFC8010E94ED0BAA
:101E2000882389F2EE2079F280912802803208F42A
:101E3000BBCF20912302309124023A8329831B8255
:101E4000BD82AC828E83CE010196ACCFE83CF10519
:101E500008F03EC0FE2CEE2009F4B5CF25132AC0B1
:101E6000941328C08091280280FD1BC0982F907F7A
:101E7000C1F0F8018583903F31F0982F907F905FFB
:101E80008F70892B8583C8010E94830B86E0F8013F
:101E9000A3E2B2E001900D928A95E1F70E94A60DAF
:101EA00009CF86E0F801A3E2B2E001900D928A9595
:101EB000E1F700CFC8010E94ED0B811175CF809131
:101EC0002802816080932802C8010E94830BF2CE11
:101ED0007A2DB98AA88A6E2D89890E94000C86E025
:101EE000F60111928A95E9F7D9CFEE2009F46BCF6C
:101EF000C8010E94ED0BF82E882309F464CF86E018
:101F0000F801A3E2B2E001900D928A95E1F783E235
:101F100092E00E94A1080E94B50DC0CF81E08E25FD
:101F2000D7CEACE0B0E0E7E9FFE00C94D1234F83DB
:101F3000588769877A878B879C87CE0107960E948E
:101F40000A0E882369F08A859B85892B39F04F8199
:101F50005885842F85238F3F09F06BC016E05FC042
:101F600086E0FE013796DE01119601900D928A956A
:101F7000E1F78A859B85892B89F38F819885892351
:101F80008F3F61F32091F20130E0C9010196877023
:101F900099274091F1014817190671F40E94CD0B61
:101FA0001092F2011092F10186E0E3E2F2E0DF012B
:101FB0001D928A95E9F7D2CF96E0929FD001939F28
:101FC000B00D1124AD50BE4FFE01319601900D921F
:101FD0009A95E1F78093F2010E94850DBFCF819F12
:101FE000C00111248D509E4F0E940A0E8823E9F0F3
:101FF000E091F1011E9FF0011124ED50FE4F408150
:10200000518162817381848195810E940A0C809143
:10201000F10190E00196877099278093F1018091FA
:10202000F1019091F2018913DACF2C96E3E00C9440
:10203000ED2369857A858B859C850E940A0C8ECF5D
:10204000682F80910001909101010E94F41A089577
:10205000682F80910001909101010E94021B089558
:1020600080910001909101010E94101B08958091C0
:102070004E0208950E94C71B20914C0230914D02E0
:10208000821B930B9C0181E02838334108F480E0E7
:10209000089580914B028595859585950895809149
:1020A0004B02877008950E94C71B2091490230910E
:1020B0004A02821B930B8838934148F080914B026F
:1020C00082FB882780F991E089278170089580E05C
:1020D000FCCF90914B02977081E009F480E0089565
:1020E00080917102089590917102892B8093710201
:1020F00008958095909171029823909371020895AC
:102100008093710208951092710208959091700267
:10211000892B809370020895809590917002982386
:1021200090937002089510927002089580914F026A
:10213000089508950E949910089590914E0298175D
:1021400021F080934E020E949A10089508950E94F3
:10215000A6100895CF93C82F8091C00282FF0FC0B0
:1021600080914F028C1759F00E94C71B90934D022B
:1021700080934C02C0934F028C2F0E94A710CF91E6
:10218000089580914F02882349F010924F021092D7
:102190004D0210924C0280E00E94A7100895CF9348
:1021A000DF93E0910001F091010180917102808341
:1021B000E0910001F0910101808190917002892BE2
:1021C000808380914F02882321F10E943A10882356
:1021D00071F080918A0280FF08C08FEE94E09F9397
:1021E0008F930E94AE040F900F900E94C110E09157
:1021F0000001F0910101808190914F02892B808331
:1022000080910001909101010E943E1A81110E946B
:10221000C110C0910001D091010140E250E069E29B
:1022200072E0CE010E940D24892B59F080E2FE015C
:10223000A9E2B2E001900D928A95E1F7CE010E94E9
:10224000BF19DF91CF91089508950E942411089538
:102250009091C00292FF17C098E0899F90011124CD
:10226000622B60934B020E94600C0E94C71B9093EC
:102270004A028093490280914B0285958595859508
:102280000E94251108950E94600C089510924B023F
:1022900010924A021092490280E00E94251108958E
:1022A00090914B028095892380934B02282F2770B1
:1022B00091F4282F082E000C330B9217130659F0B7
:1022C0009091C00292FF07C08595859585950E94E3
:1022D000700C0E9446110895CF93C82F8091C002C0
:1022E00082FB992790F99C17E9F0C0FB82F9809353
:1022F000C0028091BF029091C0020E94C91182E089
:102300000E94501180918A0280FF0CC01F92CF93CF
:1023100081E095E09F938F930E94AE040F900F9001
:102320000F900F90CF9108958091C00282FB882773
:1023300080F991E089270E946C11089581E00E9444
:102340006C11089580E00E946C11089590E080E087
:102350000E94222421E0883E9E4F09F020E0822F37
:10236000089582E090E00E941A24089583E090E0AE
:102370000E941A240895CF9384E090E00E941A24CA
:10238000C82F82E290E00E941A24982F8C2FCF91C0
:102390000895CF93C92F682F84E090E00E942824ED
:1023A0006C2F82E290E00E942824CF910895AB0127
:1023B000BC018FE090E00E943A240895AB01BC017B
:1023C00083E190E00E943A24089560E070E0CB0140
:1023D0000E94DE11089560E070E0CB010E94D711E9
:1023E0000E94E511089568EE7EEF90E080E00E9483
:1023F000462460E082E090E00E94282460E083E0D0
:1024000090E00E9428241092F0011092EF0160E009
:1024100084E090E00E94282464E082E290E00E9440
:10242000282460E085E090E00E94282460E086E0B7
:1024300090E00E9428246FEF87E090E00E9428241B
:1024400040E050E0BA0188E090E00E943A2460E069
:102450008DE090E00E94282440E050E0BA0188E13D
:1024600090E00E943A2460E087E190E00E942824F6
:1024700040E050E0BA018CE190E00E943A2470E024
:1024800060E080E290E00E94462440E050E0BA0123
:1024900088E190E00E943A240E94EB1108950E9486
:1024A000F3110895682F8EE090E00E94282408958B
:1024B0000E94D31B609386027093870280938802E8
:1024C00090938902609382027093830280938402C6
:1024D000909385020895089508950E946C120895BE
:1024E00008950E947012089589EF9DE10E94A51938
:1024F0000E946B120E946D12089581E008950E945F
:102500007D120895089508950E9482120E948312F8
:1025100008950E9402150E940E080E9465150895F4
:102520000E94BE1B0E94D1040E9489120E94711257
:102530000895AAE0B0E0EFE9F2E10C94CA230E940A
:10254000DE0484E7A82E82E0B82E750110E0F701C2
:1025500001917F01812F0E944F051F5F1E3009F4FA
:1025600040C00817A1F380918A0281FD0E945505A1
:102570000E947F12C82E10E0812F0E944F05082F65
:10258000F50181915F01081731F1D02ED826F12C89
:10259000EE24E3948D2D8E21B1F0CC20A1F0FE82AB
:1025A0001F8391E0802F8E2109F490E098870E948C
:1025B000C71B8160782F9A8789874E815F816885E4
:1025C0008A850E945C08F394EE0CF8E0FF12E2CFDB
:1025D000F501319700831F5F1E3071F60E9458127B
:1025E00020C00813C0CF0E94C71B8C0180917202CB
:1025F0009091730208171907A1F08FEF89838A83DE
:102600001B820E94C71B8160782F9D838C83498128
:102610005A816B818D810E945C0810937302009334
:1026200072020E9421082A96EAE00C94E623CF93D6
:10263000DF930E941C14EC01811522E59207E8F556
:10264000811531E5930708F0A5C0883E910510F586
:10265000803E910570F5883A910570F4853A9105B0
:1026600008F078C08130910521F1009711F10497AD
:1026700000F5D0E0C0E01DC08F3B9105D0F7C85AEF
:10268000D0E0CC0FDD1FC05CDE4F0990D881C02D9B
:10269000D4640FC0811540E5940708F066C0C115E9
:1026A00080E4D80708F05EC0CE019A9581159F415D
:1026B00000F7CE01DF91CF910895811536E593079C
:1026C00018F5811545E5940708F07DC0C11584E52E
:1026D000D80708F073C09C2F969596959E0123709D
:1026E0003327C115D34508F45AC0C1E0D0E002C079
:1026F000CC0FDD1F2A95E2F730E2939FC001112431
:10270000C82BD92BDA68D5CFC1158AE5D80778F45C
:10271000C11529E5D20708F060C0C11538E5D30717
:1027200008F4A7CFDC2FCC27C06FD06AC2CFCE0170
:1027300090568115904208F09CCF8D2F8F710E948A
:10274000BE1490E0982F882788279F719C012C2B1E
:10275000E90141C0C55AD0E0C259DE4FC881D0E07E
:10276000D064A7CFDF70D06AA4CF282F26952695F6
:10277000237080E2289F900111248C2F8370C1E088
:10278000D0E002C0CC0FDD1F8A95E2F7C22BD32B1D
:10279000DD688FCFD82FCC27C16FD06A8ACFC1E038
:1027A000D0E002C0CC0FDD1F2A95E2F720E2929F15
:1027B000C0011124C82BD92BDC687BCFDC2FCC27A0
:1027C000C46FD06A76CF0E94BE14C82FD0E0DC2F31
:1027D000CC27CC27DF71D0626CCF8C2F8F700E94FA
:1027E000BE1434E0D695C7953A95E1F7CF709C2F8B
:1027F000EC01D0695ECF7E30B8F46830A8F4E72FE2
:10280000F0E09EE0899FE00DF11D112483E0EE0FC2
:10281000FF1F8A95E1F7E60FF11DEE0FFF1FE6504F
:10282000FD4F85919491089580E090E008950E9475
:10283000FB130E941713089582389105B9F1B0F483
:102840008133910509F47DC048F48932910509F47A
:102850006DC08A32910509F47BC0089585339105D6
:1028600009F45FC08933910509F10895833E91050C
:10287000D9F138F4803E910529F1823E910579F134
:102880000895863E9105D9F1873E910509F43EC031
:10289000843E910541F52091C00221FF24C0809122
:1028A000BF0284FD19C087EE90E008952091BF0219
:1028B000237009F05AC02091C00223FF14C089E29E
:1028C00090E008952091BF0220FD38C03091C002F1
:1028D00030FF09C024FF43C090E080E008952091BC
:1028E000BF0222FDF7CF08952091BF0222FD3AC01A
:1028F0003091C00230FD39C024FFF5CFEDCF2091DB
:10290000BF0223FFF0CF24FDE7CFCDCF2091BF0240
:1029100023FD2EC03091C00231FFEECF84EE90E057
:1029200008952091BF0225FFDECFC9CF2091BF02BD
:1029300025FD21C02091C00223FFD5CF89E390E07F
:10294000D2CF2091BF0226FFCECF8AE290E0089539
:102950002091BF0226FFC7CF81E390E0089583EE68
:1029600090E0089582EE90E0089580EE90E0089562
:1029700086EE90E0089585E390E008959091BF027F
:1029800092FF06C0282F28712830F9F4877F8460D1
:1029900093FF06C0282F28712831F1F4877E8461C7
:1029A0002091C00220FF06C0382F38713830D9F48A
:1029B000877F816021FF06C0282F28712831D1F43C
:1029C000877E816194FD877E0895282F24712430AD
:1029D000F9F68B7F8860DCCF282F2471243101F732
:1029E0008B7E8861DDCF382F3171313019F78E7FC2
:1029F0008860E0CF282F2171213121F78E7E8861F8
:102A0000E1CF08950E94A611811102C00E944F12C9
:102A10000E94B11180938A020E94BB119093C00260
:102A20008093BF020E9401150E94B61190E00E949F
:102A3000220C8091ED019091EE010E94430C0895CB
:102A40000E94751E0E9490120E94821E08950E948C
:102A5000871E0E9499120E94A51E08950E94601B65
:102A60000E945B1E0E9474120E9420150E9427156E
:102A70000E948412FBCFCF93DF93EC0197FF0CC031
:102A8000FB018281882341F00E94A415CE019F772B
:102A90000E9434160E94031681E0DF91CF910895C1
:102AA0009091C202923071F48A3050F490E009960D
:102AB0006AE070E00E94A823875A0E942D090895B9
:102AC0008650FBCF0E94521808958CE090E00E943F
:102AD0001A24482F50E070E060E04093C202509307
:102AE000C3026093C4027093C50290918A0290FF62
:102AF0000CC01F928F9385E395E09F938F930E9464
:102B0000AE040F900F900F900F9008956091C20245
:102B10008CE090E00E94282408958093C2020E94D5
:102B2000861580918A0280FF0EC08091C2021F929A
:102B30008F9386E195E09F938F930E94AE040F9050
:102B40000F900F900F9008950E94BC198695817088
:102B50008093C7020E94BC1981708093C10280914A
:102B6000C202813039F48091C702882319F089E3C9
:102B70000E942D090E9470108093C6020E9483104B
:102B80000E9493108091C202823021F158F4882370
:102B9000C1F08130D1F08FE39CE90197F1F700C0DB
:102BA00000000895843051F18530A9F78BE191E060
:102BB0000E94F60685E290E00E94F60688E290E028
:102BC00006C082EE0E94A708E6CF88E193E00E944B
:102BD000F606E1CF8091C102811103C083E50E9416
:102BE0002D0982EE0E94A7088FE39CE90197F1F777
:102BF00000C0000087E50E942D09CDCF86EE0E941F
:102C00002D0988E1F8CF8091C202823011F148F499
:102C1000882381F0813091F08091C6020E9480105B
:102C200008958430F9F08530B9F788E290E00E9489
:102C3000F606F2CF82EE0E94EB08EECF8CE20E9405
:102C40002D098091C702882339F389E30E942D0959
:102C5000E3CF82EE0E94EB088091C1028111DCCFAC
:102C600083E5F4CF88E2F2CF0F931F93CF93DF93E6
:102C70008C01CCE0D0E0C8010C2E02C0969587955F
:102C80000A94E2F78F700E9450152497CC3F8FEF83
:102C9000D80789F7DF91CF911F910F9108950F9376
:102CA0001F93CF93DF93EC018B01FB01828188237B
:102CB00081F00E947010C43EFCE5DF0711F190F432
:102CC000C23EECE5DE07D9F081E0C33EFCE5DF075C
:102CD00099F0B801CE010E943B15DF91CF911F9171
:102CE0000F910895C63E8CE5D80779F060F085E035
:102CF000C13BFDE5DF0769F70E948D15EACF80E053
:102D0000FBCF82E0F9CF83E0F7CF84E0F5CFCF931C
:102D1000DF93EC01FB018281882309F464C1C43094
:102D2000FDE5DF07E0F5CB3F9CE5D90730F49E01D8
:102D300022503C4524313105D8F50E94BB119093B7
:102D4000C0028093BF02C231ECE5DE0709F41FC167
:102D500008F06EC0C9308CE5D80709F4F2C008F05D
:102D60003FC0C530ECE5DE0709F4DBC058F5C330E1
:102D70008CE5D80709F4CDC008F0CFC08091BF0220
:102D80008160C230DC4509F4AEC08091BF029091F1
:102D9000C0020E94C9110E94CD0B80E009C0C63A52
:102DA000EDE5DE0751F238F4C2369DE5D90729F288
:102DB000DF91CF9108959E012E5A3D452330310574
:102DC000B8F7BBCF8091BF028062C730FCE5DF0758
:102DD00009F489C008F4B1C08091BF02806483C047
:102DE000CD309CE5D90709F4BAC070F48091BF02D8
:102DF0008E7FCB30FCE5DF0709F475C008F4A7C06F
:102E00008091BF028D7F6FC0CF309CE5D90709F458
:102E1000B6C008F4A8C0C031FCE5DF0709F4B3C0B0
:102E2000C131DC4509F0B1CF8091BF028F7B5BC01F
:102E3000C1159DE5D90709F4B4C098F5CB3FFCE571
:102E4000DF0709F472C0B8F4C4319CE5D90709F46E
:102E5000B6C008F4A2C0C531DC4509F096CF809118
:102E6000BF0282FB992790F921E0922790FB82F91B
:102E700090FB83F938C0CD3F8CE5D80709F477C0C3
:102E800008F457C0CE3FECE5DE0709F474C080912A
:102E9000C0028360CF3FDC4509F077CF8093C0024A
:102EA00074CFC2368DE5D80709F496C068F4C230F5
:102EB000EDE5DE0709F48CC008F477C0C330DD45CA
:102EC00009F063CF80E085C0CE3A9DE5D907E9F0EF
:102ED00068F49091BF02892F8E7F90FF8160C63A7F
:102EE000DD4509F052CF8093BF024FCFCF3A8DE539
:102EF000D80789F1C03BDD4509F047CF9091C0026A
:102F0000892F877F93FF8860C9CF8091C002886036
:102F1000C5CF8091BF028260E6CF8091BF028460FE
:102F2000E2CF8091BF028860DECF8091C0028160D5
:102F3000B5CF8091C0028260B1CF8091BF02806125
:102F4000D2CF0E94CD0B8091BF028068CCCF809100
:102F5000BF028C60C8CF8091C002877F9FCF8091D5
:102F6000BF028B7FC0CF8091BF02877FBCCF809193
:102F7000C0028E7F93CF8091C0028D7F8FCF8091D2
:102F8000BF028F7EB0CF8091BF028F7DACCF0E94F9
:102F9000CD0B8091BF028F77A6CF8091BF02837F38
:102FA000A2CF8091C0028C7F79CF8091C002982FF0
:102FB000909591708E7F892B90FB81F96FCF0E9445
:102FC000CD0B9091BF02892F97FB87F980588BCF4B
:102FD00081E00E945212D9CE9091BF02892F8F7E3C
:102FE00094FF806180CF81E0E3CEB0E0A0E0EBEF22
:102FF000F7E10C94CD23E82FF0E0EB5AFA4FD49090
:10300000282F26952695269530E0F901EB50FA4FAA
:103010000491877010E0082E02C0159507950A9458
:10302000E2F701701127F901EB51FA4FE490F12C0E
:10303000082E02C0F594E7940A94E2F791E0E922A1
:10304000FF24F901EB52FA4FC491D0E002C0D595AC
:10305000C7958A95E2F7C170DD270115110519F0B2
:1030600081EE0E94A708E114F10419F086EE0E9497
:10307000A7088D2D0E942D09E114F10419F086EEA8
:103080000E94EB080115110519F081EE0E94EB0872
:10309000CD2B19F08CE20E942D09CDB7DEB7E7E009
:1030A0000C94E923982F9F709A50963020F0805D01
:1030B0000E94F5170895895AFBCFEF92FF920F9364
:1030C0001F93CF93DF938C01F62E8AE0E82EF80150
:1030D0008491882309F454C0813009F04DC0E8017F
:1030E0002196FE018491813091F42196FE01849114
:1030F0000E942D098E010F5F1F4F8F2D815038F3D5
:10310000EFE9FFE03197F1F700C00000F7CF823020
:1031100039F4E8012296FE0184910E94A708EACFC3
:10312000833039F4E8012296FE0184910E94EB0875
:10313000E1CF8430F9F6E8012296FE01249190E077
:1031400080E0FE0131962053330B2A30310548F0E0
:10315000019780F2EFE9FFE03197F1F700C000003E
:10316000F7CFE89EA001E99E500D1124C901840FFC
:10317000951F2491EF01E5CF0E94F517E801BACF22
:10318000CDB7DEB7E6E00C94EA23CF93DF93EB01F3
:1031900086319C4511F50E9470109A81992399F00F
:1031A0008A7A91E009F490E090938B02811109C032
:1031B00089E20E9420100E94CF1080E0DF91CF9121
:1031C000089585E3F6CF80918B02811104C089E2D6
:1031D0000E942810F0CF85E3FBCF81E0EFCF0F9363
:1031E0001F93CF93DF93C42FD22FFC0182818823BA
:1031F000C9F040938E020E94C71B90938D0280936A
:103200008C0280E28C0F883040F4C77081E001C0EE
:10321000880FCA95EAF70E943609DF91CF911F9176
:103220000F91089510918E02141332C080918C0278
:1032300090918D020E94DF1B883C910548F5C0E209
:10324000CD0F1D17B9F080E2810F883040F4177060
:1032500081E001C0880F1A95EAF70E943D09C83045
:1032600048F481E09D2F977001C0880F9A95EAF786
:103270000E943609802F0E942D09C83070F6D77041
:1032800081E001C0880FDA95EAF70E943D09C5CFB9
:1032900080E28C0F883008F6C77081E001C0880F8B
:1032A000CA95EAF7F2CF0F939C01CB01243F4CE57E
:1032B000340759F1A8F4293DFCE53F0701F12A3D07
:1032C0004CE53407D1F1283D3C4591F406E221EE6E
:1032D00041EE68ED7CE50E94EF1880E00F910895C3
:1032E000263FFCE53F07E9F0B0F0273F3C45F9F009
:1032F000FC018281882339F110928E02EFCF07E220
:1033000025EE45EE69ED7CE5E6CF06E221EE40EEE6
:1033100064EF7CE5E0CF07E225EE44EE65EF7CE567
:10332000DACF06E221EE42EE66EF7CE5D4CF07E28B
:1033300025EE46EE67EF7CE5CECF08E221E045EED4
:103340006AED7CE5C8CF81E0C9CF9093810180937D
:103350008001089590939402809393020895E091E0
:103360009302F0919402309729F00190F081E02DC2
:103370000995089580E008950E94AF190895EF928D
:10338000FF920F931F93CF93DF93EC01E091930291
:10339000F0919402309709F440C080910E01882387
:1033A00041F08091BF0287FF04C08881898386E055
:1033B00088830280F381E02DCE01099580918A02F5
:1033C00082FF2BC080FF04C08DE096E00E941504B0
:1033D00010E000E087E0E82E86E0F82E80918A0277
:1033E00080FF0EC0FE01E00FF11F80811F928F93BE
:1033F000FF92EF920E94AE040F900F900F900F90EB
:103400000F5F1F4F0830110549F780918A0280FF36
:1034100004C085E096E00E941504CDB7DEB7E6E073
:103420000C94EA23209191023091920228173907D7
:1034300071F09093920280939102E0919302F09147
:103440009402309721F00680F781E02D09950895C8
:1034500020918F02309190022817390771F09093D4
:10346000900280938F02E0919302F0919402309742
:1034700021F00084F185E02D09950895FC01329634
:1034800080910E01882321F08091BF029EE187FF89
:1034900096E080E0915008F4089521912223D1F321
:1034A0008F5FF8CF662301F120910E012223F1F006
:1034B0002091BF0227FF1AC0462F46954695469594
:1034C0004E3190F4677021E030E002C0220F331FCC
:1034D0006A95E2F7840F911DFC01828190E0282318
:1034E000392381E0232B69F480E00895FC013296B2
:1034F00008962191261721F0E817F907D1F7F4CFA4
:1035000081E008959C01FC0132969FEF80E041919B
:10351000461751F09F3F19F4411101C0982F8F5F5A
:103520008630A9F79F3F09F40895290F311D97FDB3
:103530003A95F90162830895FC013296089621912B
:10354000261303C0DF0111971C92E817F907B9F79A
:103550000895E62FE695E695E695EE3170F4E80FCE
:10356000F92FF11D677021E030E001C0220F6A954C
:10357000EAF78281822B8283089580918A0280FFFC
:103580000CC01F926F938DE396E09F938F930E94E0
:10359000AE040F900F900F900F900895E62FE695D0
:1035A000E695E695EE3178F4E80FF92FF11D677096
:1035B00021E030E001C0220F6A95EAF72095828170
:1035C00028232283089580918A0280FF0CC01F92D5
:1035D0006F938FE196E09F938F930E94AE040F90BC
:1035E0000F900F900F90089520910E01222339F033
:1035F0002091BF0227FF03C00E94A91A08950E94CC
:10360000821A089520910E01222339F02091BF02E1
:1036100027FF03C00E94CE1A08950E949C1A0895A5
:10362000FC01329680910E01882351F08091BF02F7
:1036300087FF06C08EE1DF011D928A95E9F70895A4
:1036400086E0F9CF08950E94221B0895811106C0DB
:1036500081E0809395020E94231B089582E0F9CFB8
:1036600083E0809395020E94231B08950E94261BED
:10367000089581E0809395020E94231B08950E9483
:10368000391B0895089508950E94431B08950895D5
:1036900008950E94421B0895CF930E94471B0E94E9
:1036A000DE040E94481BC0E08C2F0E944F05811150
:1036B00005C0CF5FCE30C1F7CF91089581E0FCCF38
:1036C00085B7806885BF85B7806885BF08951F92DC
:1036D0001FB61F9211248F939F93AF93BF93809136
:1036E0009602811113C08091C8029091C902A091E5
:1036F000CA02B091CB024196A11DB11D8093C802B0
:103700009093C902A093CA02B093CB02BF91AF912C
:103710009F918F911F901FBE1F9018958091D0028E
:10372000843031F10E94E3071092960288E190E024
:1037300020E40FB6F894A895809360000FBE209304
:10374000600083B7817F846083BF83B7816083BF5C
:103750007894889583B78E7F83BF0FB6F894A89529
:1037600080916000886180936000109260000FBEBD
:1037700008950E94CD0B0E94E807089582E084BD61
:1037800093E095BD9AEF97BD80936E0008952FB793
:10379000F8948091C8029091C902A091CA02B09198
:1037A000CB022FBF08952FB7F8946091C802709193
:1037B000C9028091CA029091CB022FBF08959C014B
:1037C0004FB7F8948091C8029091C902A091CA02A3
:1037D000B091CB024FBF821B930B089578941F9238
:1037E0001FB61F9211248F939F93AF93BF93809125
:1037F000C8029091C902A091CA02B091CB02019671
:10380000A11DB11D8093C8029093C902A093CA0262
:10381000B093CB02BF91AF919F918F911F901FBE2C
:103820001F90189587E797E7909301088093000809
:1038300088E19AE00FB6F894A895809360000FBED7
:1038400090936000FFCF88E19AE00FB6F894A895B6
:10385000809360000FBE90936000FFCF8091BD0207
:1038600008950895CF93DF93EC0180910E01882392
:10387000B1F18091BF0287FF32C060E282E08093A5
:10388000E9008FEF9091E800815095FD06C095ED1D
:103890009A95F1F700008111F5CF8091E80085FF3E
:1038A0001BC080910E0170E050E040E0811104C027
:1038B00050E040E068E070E0CE010E94161F809169
:1038C000E8008E778093E80080E2FE01ADE9B2E087
:1038D00001900D928A95E1F7DF91CF91089568E00C
:1038E00081E0CDCF8093990270939B0260939A02FE
:1038F0008091D002843001F582E08093E9008FEF5F
:103900009091E800815095FD06C095ED9A95F1F7EC
:1039100000008111F5CF8091E80085FF0DC050E0D7
:1039200040E063E070E089E992E00E94161F809118
:10393000E8008E778093E8000895BC0184E00E943F
:10394000721C0895BC0183E00E94721C08950895C2
:103950008FE696E00E9415048091CF02811109C084
:103960000E94A6200E9403218091E200846080933F
:10397000E20008958BE696E00E9415041092CF02B3
:10398000089587E696E00E9415040E94391B089569
:1039900083E696E00E9415046091CC0281E06111FB
:1039A00001C080E00E94301B08958FE596E00E94E0
:1039B00015049091D00281E0943009F080E060918C
:1039C000CC020E94361B0895209198022F5F822F0F
:1039D00062E30E949C23992319F020939802089592
:1039E0001092980280919C028823F1F08091D0027D
:1039F0008430C1F49091E9009F702091EC00822FF7
:103A0000817020FD80E8892B93E09093E9009091EC
:103A1000EB0090FF04C09091EE0097FD08C08F70FE
:103A20008093E90010929C0208951092F100909109
:103A3000E80095FDFACF9091E80090FFF0CF9091CB
:103A4000E8009E779093E800EACF42E061EC81E0E5
:103A50000E94222042E261EC82E00E94222042E2A7
:103A600061EC83E00E9422209091D00281E09430AA
:103A700009F080E06091CC020E94261B089580919D
:103A8000D202833009F461C030F48130D1F1823048
:103A900009F49EC008958A3009F48AC08B3009F475
:103AA0006FC0893009F050C08091D102813209F095
:103AB0004BC08091D5029091D602029708F044C085
:103AC0008091E800877F8093E8008091E80082FF82
:103AD00037C09091F3008091F200029731F4809109
:103AE000F100813011F0863021F48091F100809353
:103AF000BD028091E8008B778093E8000E945620F9
:103B000023C08091D102813AF9F48091E800877F47
:103B10008093E8008091D5029091D602892B61F4C0
:103B200060E28DE992E070E00E94651F8091E800FC
:103B30008B778093E800089560E090E080E0F3CF19
:103B40008091D0028111C1CF08958091D102813A34
:103B5000D9F78091D5029091D602892BA9F780914F
:103B6000E800877F8093E8008091E80080FFFCCF29
:103B700080910E018093F1008091E8008E77BCCF98
:103B80008091D102813201F78091D5029091D602C5
:103B9000892BD1F68091E800877F8093E8000E940E
:103BA00056208091D30280930E010E94CD0B089580
:103BB0008091D102813241F68091E800877F809325
:103BC000E8000E9456208091D4028093BE0208959E
:103BD0008091D102813A09F0B7CF8091E800877FC8
:103BE0008093E8008091E80080FFFCCF8091BE02C6
:103BF000C1CF9FB7F89410929C029FBF9091D002C2
:103C0000943009F048C02091E9002F703091EC0009
:103C1000932F917030FD90E8922B23E02093E900E0
:103C20002091EB0020FF34C02091EE0027FF30C030
:103C300020919702222321F02091E80025FF28C03F
:103C40001092970226E03091E80035FF14C080936F
:103C5000F1008091E80085FD27C08091E80080FF99
:103C6000FCCF8091E8008E778093E8009F7090935E
:103C7000E90080E008953091D002343049F4309169
:103C8000EB0035FD05C0215041F481E0809397029F
:103C90009F709093E9008FEF0895EFE9FFE031976F
:103CA000F1F700C00000CFCF8FB7F89421E0209348
:103CB0009C028FBFDBCF84B7877F84BF0FB6F89499
:103CC000A8958091600088618093600010926000E8
:103CD0000FBE80E890E00FB6F89480936100909357
:103CE00061000FBE0E943F1B08950E94A6200E9403
:103CF0000321E2EEF0E080818460808378940E946A
:103D00008123089582E091E00E94AA19089580918C
:103D1000D002853051F48BE596E00E941504809125
:103D2000D002853019F00E94B91B08950E948E1BA5
:103D30008091CE02882399F30E944C1B882379F34B
:103D40000E94001F0E94CD0BEACF08950E94A91E79
:103D50000895292F33272330310521F168F42130CC
:103D6000310509F443C02230310509F444C090E024
:103D700080E030E020E026C02132310551F12232CE
:103D80003105A9F76330710590F7FB01EE0FFF1FB6
:103D9000EC58FE4F208131816F587E4FFB018081AE
:103DA00090E010C099278130910581F0009729F0AB
:103DB0000297E9F6E3E7F6E002C0E3E9F6E0849172
:103DC00090E09F01FA01318320830895E9E8F6E04D
:103DD000F6CF6330710558F6660F771FFB01E65882
:103DE000FE4F2081318189E090E0ECCF82E190E0CC
:103DF00022EF36E0E7CF8BE590E027E936E0E2CF2F
:103E000080E189BD82E189BD09B400FEFDCF8091CA
:103E1000D8008F7D8093D8008091E00082608093ED
:103E2000E0008091E00081FDFCCF0895AF92BF9249
:103E3000CF92DF92FF920F931F93CF93DF936C018A
:103E4000EB018A010E947520F82E811123C0011513
:103E5000110539F0F80180819181C81BD90BC80E7A
:103E6000D91EB12CA12C2097A9F08091E80085FDE6
:103E700022C08091E8008E778093E800011511053B
:103E8000A1F0F80180819181A80EB91EB182A082B3
:103E900085E0F82E8F2DDF91CF911F910F91FF902C
:103EA000DF90CF90BF90AF9008950E947520882337
:103EB000D1F2F82EEFCFF60181916F018093F100DE
:103EC0002197FFEFAF1ABF0ACECFFC018091D70236
:103ED0009091D80286179707A0F06115710529F413
:103EE0009091E8009E779093E80090E0611571054D
:103EF00051F4911108C08091E80082FF34C080E045
:103F00000895BC01F2CF8091D0028823C1F18530A1
:103F1000C1F18091E80083FD30C08091E80082FD0E
:103F2000EACF8091E80080FFE1CF8091F3002091FB
:103F3000F200382F6115710519F02830310558F05D
:103F400091E02830310509F090E02091E8002E77CB
:103F50002093E800CBCF81918093F10061507109EB
:103F60002F5F3F4FE7CF8091D002882341F085300B
:103F700041F08091E80083FFBECF81E0089582E0A8
:103F8000089583E00895FC018091D7029091D802B2
:103F900086179707A0F06115710529F48091E80054
:103FA0008E778093E80090E06115710551F49111CE
:103FB00008C08091E80082FF35C080E00895BC0110
:103FC000F2CF8091D0028823C9F18530C9F1809168
:103FD000E80083FD31C08091E80082FDEACF809146
:103FE000E80080FFE1CF8091F3002091F200382FAC
:103FF0006115710519F02830310558F091E028302D
:10400000310509F090E08091E8008E778093E80018
:10401000CBCF84918093F1003196615071092F5F6D
:104020003F4FE6CF8091D002882341F0853041F0A8
:104030008091E80083FFBDCF81E0089582E008957C
:1040400083E00895982F973028F08F708093E900CF
:1040500081E008959093E900242F762F50E098177F
:1040600031F07091EC002091ED005091F00021FDB5
:1040700002C09F5FE8CF3091EB003E7F3093EB00B2
:104080003091ED003D7F3093ED003091EB003160D9
:104090003093EB007093EC002093ED005093F00010
:1040A0002091EE0027FDE5CF80E008958091D102B8
:1040B00087FF13C08091E80082FF06C08091E8006E
:1040C0008B778093E80004C08091D0028111F2CFF9
:1040D00008958091D0028823D9F38091E80080FF71
:1040E000F8CF8091E8008E77ECCF2091E4003091FA
:1040F000E50095E6A9012091EC00822F817020FF58
:1041000006C08091E80080FF06C080E008952091FD
:10411000E80022FD1AC08091D002882389F0853002
:1041200089F08091EB0085FD0FC02091E400309173
:10413000E50042175307F9F29150E1F684E0089543
:1041400082E0089583E0089581E008950E9415219A
:104150000E941D21E0EEF0E0808181608083E8ED27
:10416000F0E080818F77808319BCA7EDB0E08C915F
:104170008E7F8C9380818F7E80831092CF020895F2
:104180000F931F93CF93DF930E9415210E941D214F
:10419000C8EDD0E088818F778883888180688883A4
:1041A00088818F7D888319BC1092D0021092CC0236
:1041B0001092CE021092CD0200EE10E0F801808144
:1041C0008B7F808388818160888342E060E080E02B
:1041D0000E942220E1EEF0E080818E7F8083E2EE7B
:1041E000F0E0808181608083808188608083F80135
:1041F00080818E7F8083888180618883DF91CF91E9
:104200001F910F910895E8EDF0E080818F7E80830B
:10421000E7EDF0E080818160808384E082BF81E00F
:104220008093CF020E94C0200895E8EDF0E08081E5
:104230008E7F80831092E20008951092DA0010922F
:10424000E10008951F920F920FB60F9211242F9341
:104250003F934F935F936F937F938F939F93AF930E
:10426000BF93EF93FF938091E10082FF0BC0809199
:10427000E20082FF07C08091E1008B7F8093E10024
:104280000E94E41C8091DA0080FF19C08091D80060
:1042900080FF15C08091DA008E7F8093DA008091D4
:1042A000D90080FF96C080E189BD82E189BD09B453
:1042B00000FEFDCF81E08093D0020E94A81C809177
:1042C000E10080FF19C08091E20080FF15C080915D
:1042D000E2008E7F8093E2008091E2008061809313
:1042E000E2008091D80080628093D80019BC85E0FC
:1042F0008093D0020E94C81C8091E10084FF2BC0F3
:104300008091E20084FF27C080E189BD82E189BD00
:1043100089B5982F917080FFFBCF8091D8008F7D59
:104320008093D8008091E1008F7E8093E10080919E
:10433000E2008F7E8093E2008091E20081608093B2
:10434000E2008091CC02882309F449C084E0809384
:10435000D0020E94D51C8091E10083FF29C080918A
:10436000E20083FF25C08091E100877F8093E10018
:1043700082E08093D0021092CC028091E1008E7F87
:104380008093E1008091E2008E7F8093E200809133
:10439000E20080618093E20042E060E080E00E9401
:1043A00022208091F00088608093F0000E94C11C60
:1043B000FF91EF91BF91AF919F918F917F916F91FD
:1043C0005F914F913F912F910F900FBE0F901F90D3
:1043D000189519BC1092D0020E94BA1C70CF80911F
:1043E000E30087FD93E09093D002B3CF1F920F922A
:1043F0000FB60F9211242F933F934F935F936F93B8
:104400007F938F939F93AF93BF93CF93DF93EF935C
:10441000FF93D091E900DF708091EC00C82FC1704C
:1044200080FDC0E81092E9008091F000877F8093C2
:10443000F00078940E943A221092E9008091F000F6
:1044400088608093F000CD2BCF70C093E900FF917E
:10445000EF91DF91CF91BF91AF919F918F917F911C
:104460006F915F914F913F912F910F900FBE0F90E1
:104470001F901895AAE2B0E0E0E4F2E20C94D12398
:1044800081ED92E02091F100FC012193CF01F2E057
:10449000893D9F07B9F70E943F1D8091E80083FF87
:1044A0001EC18091D1029091D2029A3008F017C1BA
:1044B000E92FF0E0E057FB4D0C94BC23803899F0D5
:1044C000823809F00CC18091D5028F70873008F0D6
:1044D00006C18093E9008091EB0085FB882780F975
:1044E0001092E90006C08091CD029091CE02911108
:1044F00082609091E800977F9093E8008093F100AC
:104500001092F1008091E8008E77E5C0882309F4CD
:10451000D3C0823009F0E3C08091D3028111D6C0AC
:104520008091D5028F702FEF280F263008F0D7C06A
:104530008093E9002091EB0020FFC8C0933031F454
:104540008091EB0080628093EB00C0C09091EB0003
:1045500090619093EB0021E030E001C0220F8A953A
:10456000EAF72093EA001092EA008091EB0088605D
:10457000EACF8111B4C01091D3021F778091E3007C
:104580008078812B8093E3008091E800877F80937F
:10459000E8000E9456208091E80080FFFCCF8091C7
:1045A000E30080688093E30082E0111183E0809350
:1045B000D00295C08058823008F091C08091D3021B
:1045C0009091D4028C3D23E09207A1F583E08A8389
:1045D0008AE289834FB7F894DE01139620E03EE02B
:1045E00051E2E32FF0E050935700E49120FF03C025
:1045F000E295EF703F5FEF708E2F90E0EA30C0F0F1
:10460000C7968D939D932F5F243159F74FBF8091AB
:10461000E800877F8093E8006AE270E0CE010196AF
:104620000E94651F8091E8008B778093E80057C057
:10463000C096E7CF6091D5027091D602AE014F5F70
:104640005F4F0E94A61EBC01892B09F448C09091BF
:10465000E800977F9093E80089819A810E94C31FA8
:10466000E1CF8038E1F58091E800877F8093E80012
:104670008091CC028093F10045CF811130C09091A0
:10468000D302923060F58091E800877F8093E80044
:104690009093CC020E9456208091CC02882311F086
:1046A00084E005C08091E30087FDFACF81E080932C
:1046B000D0020E94251D13C08091D302813079F46D
:1046C00081E0933009F080E08093CE021092E900FF
:1046D0008091E800877F8093E8000E9456208091B7
:1046E000E80083FF0AC08091E800877F8093E8009C
:1046F0008091EB0080628093EB00AA96E3E00C943B
:10470000ED23CF938091D0028823A1F0C091E900DE
:10471000CF709091EC00892F817090FD80E8C82BBC
:104720001092E9008091E80083FD0E943A22CF7048
:10473000C093E900CF910895991B79E004C0991FB7
:10474000961708F0961B881F7A95C9F780950895EB
:1047500097FB072E16F4009407D077FD09D00E942E
:10476000F92307FC05D03EF4909581959F4F08955D
:10477000709561957F4F0895EE0FFF1F0590F4919E
:10478000E02D09942F923F924F925F926F927F9209
:104790008F929F92AF92BF92CF92DF92EF92FF9251
:1047A0000F931F93CF93DF93CDB7DEB7CA1BDB0BFD
:1047B0000FB6F894DEBF0FBECDBF09942A883988A2
:1047C00048885F846E847D848C849B84AA84B984A9
:1047D000C884DF80EE80FD800C811B81AA81B981B5
:1047E000CE0FD11D0FB6F894DEBF0FBECDBFED01C9
:1047F0000895AA1BBB1B51E107C0AA1FBB1FA61728
:10480000B70710F0A61BB70B881F991F5A95A9F779
:1048100080959095BC01CD010895FB01DC0104C099
:104820008D910190801921F441505040C8F7881BA8
:10483000990B0895F999FECF92BD81BDF89A9927F9
:1048400080B50895A8E1B0E042E050E00C944E2419
:10485000262FF999FECF92BD81BDF89A019700B439
:10486000021639F01FBA20BD0FB6F894FA9AF99AD9
:104870000FBE08950396272F0E9429240E94282402
:10488000252F0E942924242F0C9429240196272FB8
:104890000E9429240C942824DC01CB01FC01F99905
:1048A000FECF06C0F2BDE1BDF89A319600B40D927C
:1048B00041505040B8F70895F894FFCFAA05DB05A2
:1048C000DF05E305E705EB05EF05F305F705FB0558
:1048D000FF0508060C06100619061D06210625060A
:1048E000AF0529062D063106350639063D06410677
:1048F000450649064D065106550659065D066106F0
:10490000650669066D0671067F097F09B009B00961
:104910005B0ADF09DF09DF09770AE80AF70AF70A05
:104920005E2286226F2386226F23B922DA226F232A
:0449300031233D23CF
:1049340050022E1C321CA71CA21C9D1C311C01E21F
:1049440000E900EA00B500B600B700CD008301CC51
:10495400008A0192019401210223022402250226E5
:104964000227022A02B300B4006F00700081828320
:10497400E200E900EA00B500B600B700CD0083010B
:10498400CC008A019201940121022302240225020F
:10499400260227022A02B300B4006F00700081824D
:1049A40083406D22930726070407A906C206DB0687
:00000001FF
