:100000000C945F040C9473050C947C040C946C06A3
:100010000C947C040C947C040C947C040C947C0460
:100020000C947C040C947C040C9436220C940A23CB
:100030000C945A1C0C947C040C947C040C947C044A
:100040000C947C040C947C040C947C040C947C0430
:100050000C947C040C94E11C0C947C040C947C04A3
:100060000C947C040C947C040C947C040C947C0410
:100070000C947C040C947C040C947C040C947C0400
:100080000C947C040C947C040C947C040C9461050A
:100090000C947C040C947C040C947C040C947C04E0
:1000A0000C947C040C947C040C947C040A00253091
:1000B000313662003A200025303258000A722F6330
:1000C00020303132333435363738394142434445B4
:1000D000460A00253032580A00506172697479204E
:1000E0006572726F720A004672616D652065727288
:1000F0006F720A00000029001E001F00200021006E
:100100002200230024002500260027002D002E00B9
:100110002A002B0014001A000800150017001C000C
:1001200018000C00120013002F0030002800E0001F
:1001300004001600070009000A000B000D000E0065
:100140000F00330034003500E10031001D001B00BA
:1001500006001900050011001000360037003800B5
:10016000E5004600E2002C0039003A003B003C006C
:100170003D003E003F00400041004200430053006C
:1001800047005F006000610056005C005D005E009B
:10019000570059005A005B00620063000000000035
:1001A000000000000000000000000000000000004F
:1001B000000000000000000000000000000000003F
:1001C000000000000000000000000000000000002F
:1001D000000000000000000000000000000000001F
:1001E000000000000000000000000000000000000F
:1001F0000000000044454255473A2064697361623B
:100200006C65642E0A0044454255473A20656E618C
:10021000626C65642E0A000A0025303258006C6555
:10022000645F7461736B3A20004F6E6573686F741E
:100230003A2074696D656F75740A004F6E65736856
:100240006F743A206163746976653A2025640A0008
:100250003F00433E20004C25640A000A092D20532C
:100260007461747573202D0A686F73745F6B6579A0
:10027000626F6172645F6C65647328293A2025306F
:1002800032580A6B6579626F6172645F70726F7465
:100290006F636F6C3A20253032580A6B6579626F54
:1002A0006172645F69646C653A20253032580A6B6C
:1002B00065796D61705F636F6E6669672E6E6B72D4
:1002C0006F3A20253032580A74696D65725F726525
:1002D0006164333228293A202530386C580A0025C9
:1002E00073000A092D20436F6E736F6C65202D0A11
:1002F0004553432F713A09717569740A000A092D33
:10030000204D61676963202D0A443A09446562758E
:1003100067204D65737361676520546F67676C650F
:100320000A583A094D6174726978204465627567AC
:10033000204D6F646520546F67676C65202D2053D6
:10034000686F77206B657970726573736573206968
:100350006E206D617472697820677269640A4B3A25
:10036000094B6579626F617264204465627567202C
:10037000546F67676C65202D2053686F77206B651D
:10038000797072657373207265706F72740A4D3A7A
:10039000094465627567204D6F75736520546F67FA
:1003A000676C650A563A0956657273696F6E0A532F
:1003B0003A095374617475730A433A094163746965
:1003C0007661746520436F6E736F6C65204D6F644A
:1003D000650A46312D4631303A09537769746368AE
:1003E00020746F204C6179657220302D39202846A9
:1003F0003130203D204C30290A302D393A095377CD
:100400006974636820746F204C6179657220302DA7
:10041000390A47524156453A09537769746368204F
:10042000746F204C6179657220302028616C74658E
:10043000726E617465290A423A094A756D702074BA
:100440006F20426F6F746C6F616465720A4553432D
:100450003A094A756D7020746F20426F6F746C6F2B
:10046000616465722028616C7465726E61746529BF
:100470000A453A095072696E7420454550524F4DF5
:100480002053657474696E67730A4241434B53503D
:100490004143453A09436C65617220454550524FCE
:1004A0004D0A4E3A094E4B524F20546F67676C65A8
:1004B0000A006B65796D61705F636F6E6669672EA8
:1004C0007261773A20253032580A2E737761705F57
:1004D000636F6E74726F6C5F636170736C6F636B6C
:1004E0003A2025750A2E636170736C6F636B5F74BD
:1004F0006F5F636F6E74726F6C3A2025750A2E738E
:100500007761705F6C63746C5F6C6775693A202506
:10051000750A2E737761705F7263746C5F726775B2
:10052000693A2025750A2E737761705F6C616C746F
:100530005F6C6775693A2025750A2E737761705F65
:1005400072616C745F726775693A2025750A2E6E48
:100550006F5F6775693A2025750A2E737761705F42
:1005600067726176655F6573633A2025750A2E733D
:100570007761705F6261636B736C6173685F626106
:10058000636B73706163653A2025750A2E6E6B721A
:100590006F3A2025750A2E737761705F657363610A
:1005A00070655F636170736C6F636B3A2025750AC9
:1005B0000064656275675F636F6E6669672E72615E
:1005C000773A20253032580A2E656E61626C653AA2
:1005D0002025750A2E6D61747269783A2025750A96
:1005E0002E6B6579626F6172643A2025750A2E6DF3
:1005F0006F7573653A2025750A006565636F6E66D1
:1006000069673A0A64656661756C745F6C617965E7
:10061000723A2025750A003F004E4B524F3A206F28
:1006200066660A004E4B524F3A206F6E0A000A6D02
:100630006F7573653A206F66660A000A6D6F757391
:10064000653A206F6E0A000A6B6579626F617264A9
:100650003A206F66660A000A6B6579626F617264A0
:100660003A206F6E0A000A6D61747269783A206FE1
:1006700066660A000A6D61747269783A206F6E0AC4
:10068000000A64656275673A206F66660A000A644C
:10069000656275673A206F6E0A000A0A4A756D70C6
:1006A000696E6720746F20626F6F746C6F61646530
:1006B000722E2E2E2000433E2000436C656172692D
:1006C0006E6720454550524F4D0A000A00253032D2
:1006D0005820006B6579626F6172645F7265706F3C
:1006E00072743A200064656C5F6B65795F6269744F
:1006F0003A2063616E27742064656C3A202530329D
:10070000580A006164645F6B65795F6269743A20BE
:1007100063616E2774206164643A20253032580A80
:10072000005B735D005B575D005B535D005B525D7A
:10073000005B445D005B435D003803490042004DAF
:10074000002000500043006A00720020006B00652A
:1007500000790062006F0061007200640020006395
:10076000006F006E00760065007200740065007214
:10077000000000080351004D004B00000004030975
:100780000409025B00030100A0FA09040000010350
:100790000101000921110100012240000705810328
:1007A00008000109040100010300000009211101F2
:1007B0000001226D000705820320000109040200E8
:1007C0000203000000092111010001222200070597
:1007D000830320000107050303200001120100022A
:1007E00000000008EDFE5772010001020001063111
:1007F000FF0974A1010975150026FF0095207508F1
:1008000081020976150026FF00952075089102C027
:1008100005010980A101850319012AB700150126E8
:10082000B700950175108100C0050C0901A1018573
:100830000419012AA002150126A002950175108154
:1008400000C005010906A1018506050719E029E791
:10085000150025019508750181020507190029EF8A
:100860001500250195F0750181020508190129057A
:10087000950575019102950175039101C005010966
:1008800006A101050719E029E7150025019508755E
:100890000181029501750881010507190029FF15DD
:1008A0000026FF0095067508810005081901290535
:1008B000950575019102950175039101C000112400
:1008C0001FBECFEFDAE0DEBFCDBF12E0A0E0B1E0A7
:1008D000EEE3FBE402C005900D92A634B107D9F710
:1008E00023E0A6E4B2E001C01D92A83BB207E1F705
:1008F0000E948D160C9448250C940000FF93EF93F2
:10090000E0914602F0914702309709F00995EF9186
:10091000FF910895FC018591803011F0EFDFFBCF4E
:100920000895FF27E0E230E247FF0CC0419597FFB2
:1009300009C0EDE26095709580959095611D711DDF
:10094000811D911D27FF02C0219530E350E2AA27A7
:10095000660F771F881F991FAA1FA41710F0A41BEA
:1009600063955A95A9F7AA3008F0A95FA05DAF93E7
:10097000F395611571058105910541F7ED3211F48B
:10098000EF93F395F21718F43F93F395FBCF8F9104
:10099000B5DFFA95E1F70895E991F99185918030F5
:1009A00021F0853219F0AADFF9CF089520E0E8940C
:1009B00055915532C1F3503311F4689455915A331F
:1009C00048F4505390F3220F022E220F220F200DD5
:1009D000250FF4CF0EF4219589919991533619F38F
:1009E000533729F1533559F1BC0188279927E894E9
:1009F0005C3621F48991999168945591543639F473
:100A000046EF7EF077FF0DC08FEF9FEF0AC055379E
:100A10004AE039F0583540E121F0523642E009F021
:100A20000895FF93EF937DDFEF91FF91B7CFFF9391
:100A3000EF93FC0181918030B9F360DFFBCFFF932E
:100A4000EF9368DFF1CFDF93CF93CDB7DEB7259675
:100A5000A3DFCF91DF9108952091590230E02F5FFD
:100A60003F4F2F7033279091580281E09217130661
:100A700009F080E008952091590230E0F901EE0F6D
:100A8000FF1FE65AFD4F918380832F5F3F4F2F70EA
:100A90003327209359020895CF93C0E0C1600E948C
:100AA0002C05811104C08C2F90E00E943B05CF9152
:100AB000089508950E945905089508950E945D05BE
:100AC00008958F938FB78F939F9380915602909143
:100AD0005702019690935702809356029F918F91EF
:100AE0008FBF8F9118951F920F920FB60F921124FE
:100AF0008F929F92AF92BF92CF92DF92EF92FF922E
:100B00002F933F934F935F936F937F938F939F9315
:100B1000AF93BF93CF93EF93FF9329B1809194004C
:100B200090919500C0905602D0905702F12CE12C84
:100B30007601DD24CC24B0E0A0E0C82AD92AEA2A34
:100B4000FB2A8091520290915302A0915402B091DD
:100B5000550220FD38C00097A105B105D1F0A701CD
:100B60009601281B390B4A0B5B0BDA01C9010A9766
:100B7000A109B1098B359105A105B105E0F10E94EC
:100B80004C0510925202109253021092540210928D
:100B90005502FF91EF91CF91BF91AF919F918F91AE
:100BA0007F916F915F914F913F912F91FF90EF90C7
:100BB000DF90CF90BF90AF909F908F900F900FBE1F
:100BC0000F901F9018950097A105B10561F046019F
:100BD0005701881A990AAA0ABB0A3BEF83169104A7
:100BE000A104B10488F081E090E0909351028093D9
:100BF000500280934F02C0925202D0925302E09270
:100C00005402F0925502C5CF4091500250915102CA
:100C100080914F02682F6150770B9B01BA0102C08F
:100C2000769567952A95E2F79B01217078E2871601
:100C30009104A104B10408F041C021110FC021E0CA
:100C400030E0082E02C0220F331F0A94E2F7242B53
:100C5000352B309351022093500238C00E944C052E
:100C600010925202109253021092540210925502A6
:100C700080914F028A3008F4BECFC0E0CE7F209131
:100C800050023091510220FBC1F9C9019695879518
:100C9000982F990F990F990FC770C92BF82EF294BE
:100CA000F69447E0F42231FBC2F90E942C05811131
:100CB00068CF8C2F9F2D0E943B0563CF9EE789163E
:100CC0009104A104B10430F0222341F28F5F80939C
:100CD0004F02CECF30E0B5CF1F920F920FB60F92DA
:100CE0001124CF92DF92EF92FF920F931F932F93D5
:100CF0003F934F935F936F937F938F939F93AF93A4
:100D0000BF93CF93DF93EF93FF9339B1347040914A
:100D10009400509195008091560290915702B0E056
:100D2000A0E0DC019927882770E060E0842B952BF8
:100D3000A62BB72B40914B0250914C0260914D0273
:100D400070914E02411551056105710589F431110B
:100D500037C010924A0210924902109248028093C2
:100D60004B0290934C02A0934D02B0934E0228C0C8
:100D70007C018D01E41AF50A060B170BB801A701D7
:100D80006701780103E3C01AD108E108F10819E00E
:100D9000C116D104E104F10460F14556510961091D
:100DA0007109433151056105710570F10E944C05CF
:100DB00010924B0210924C0210924D0210924E0271
:100DC000FF91EF91DF91CF91BF91AF919F918F9163
:100DD0007F916F915F914F913F912F911F910F9153
:100DE000FF90EF90DF90CF900F900FBE0F901F906D
:100DF00018954091480221E0240F2093480240FFBB
:100E00000AC031111DC0ABCF2091480220FFCECFC8
:100E10002E5F20934802332309F4A1CF269541E0A9
:100E200050E002C0440F551F2A95E2F72091490275
:100E300030914A02242B352B30934A0220934902E9
:100E400020914802233108F48ACFC0E0CE7F209160
:100E5000490230914A0220FBC1F9C9019695879554
:100E6000982F990F990F990FC770C92BD82FD2952A
:100E7000D695D77031FBC2F90E942C05811198CF0D
:100E8000CE010E943B0594CFEAE7F2E01182108286
:100E9000138212821582148217821682118610869E
:100EA0001386128615861486178616861092900071
:100EB00083E080939100E1E7F0E0808181608083AE
:100EC0005A9A8DB385608DBBE9E6F0E0808181613F
:100ED0008083569A0E94A8080895CF938091580263
:100EE00090915902981709F43FC090E0FC01EE0F71
:100EF000FF1FE65AFD4F2081C18101968F7099270F
:100F00008093580290916F039170822F837082308A
:100F100081F1992341F087EE90E09F938F930E9497
:100F200023050F900F905E9A10927B0210927A0226
:100F300010927D0210927C0210927F0210927E022B
:100F4000109281021092800210928302109282020B
:100F500010928502109284021092870210928602EB
:100F600010928902109288020E94AB0881E0CF9112
:100F70000895822F869586958695C295CC0FC07E62
:100F8000C82B22FB882780F930E020E04C2F50E06E
:100F900061E0FA01022E02C0F595E7950A94E2F7A6
:100FA000E0FD86272F5F3F4F2830310591F78111F3
:100FB00006C0992309F4B7CF89ED90E0AECF99230D
:100FC00061F05F934F9383ED90E09F938F930E9426
:100FD00023050F900F900F900F905E98EC2FE295E5
:100FE000E770F0E02C2F2F7081E090E002C0880FB6
:100FF000991F2A95E2F7EE0FFF1FE658FD4FC7FF36
:1010000009C080959095208131818223932391831B
:101010008083AACF20813181822B932BF8CFB0E03F
:10102000A0E0E5E1F8E00C94CC248CEB90E00E9489
:101030008A048AE7E82E82E0F82ED0E0C0E097EB41
:10104000C92E90E0D92E0EEA10E0DF93CF93DF9205
:10105000CF920E94230584EB90E00E948A04F7015E
:10106000819191917F010E945A099F938F931F93C1
:101070000F930E9423058CEA90E00E948A04219637
:101080008DB79EB708960FB6F8949EBF0FBE8DBF62
:10109000C830D105D1F6CDB7DEB7E8E00C94E8242E
:1010A000E82FF0E0EE0FFF1FE658FD4F80819181A1
:1010B000089581E0089581E008950E945B080895F5
:1010C00008950E9460080895A5E0B0E0EAE6F8E01F
:1010D0000C94D12449835A8330918F0289819A815B
:1010E000311119C0662399F0222389F00E947E0EE7
:1010F000182F682F89819A810E945B0E69817A81FD
:10110000812F0E945B152596E3E00C94ED240E944C
:101110006C0E182FF3CF0E947E0E69817A81F1CF79
:10112000FC01262F408151816281738184810E945C
:101130006408089581E00895CF93DF93EC0160E0A7
:101140000E949008BE010E946108DF91CF9108952E
:101150000E945A0508950E945E05089508950E9410
:10116000260D0E94AE082FEF84E39CE021508040C2
:101170009040E1F700C0000008950E94AF080E946F
:10118000051D08950E94AF080E94371D08950F9312
:101190001F93CF93DF93EC018B010E945D088111B7
:1011A00006C080E0DF91CF911F910F910895B801A3
:1011B000CE010E94481A8823A1F3B801CE010E94F3
:1011C0009A16882371F3B801CE010E94BA198823B8
:1011D00041F3F80182818823D9F0CB35FDE5DF07A3
:1011E000A9F170F4C130ECE5DE07B1F0CF3DFCE5CC
:1011F000DF0721F1C115DC4559F40E94BD08D1CFAC
:10120000CD35EDE5DE07F9F020F1C83ADD45C1F056
:10121000C8010E945908C6CF90916F03892F8E7F15
:1012200090FF816080936F0380FF05C086E092E0AD
:101230000E948A04B6CF84EF91E0FACF0E94A513F2
:101240000E94C208AECF0E94EA12E2CF0E94F412BE
:10125000DFCF0E94F812DCCFCF93DF93EC0161E087
:101260000E949008BE010E94C708DF91CF910895A7
:101270000E94361C0E947A0908950E947E090E94ED
:101280003B1C0895829590E09C01220F331F220F92
:10129000331F2C7C95958795959587958373282B7F
:1012A00030E0C901880F991F8A7A359527952575F1
:1012B000822B0895CF93DF93D92F0E944209C82F24
:1012C0008D2F0E9442099C2FDF91CF9108950895A0
:1012D0000E946709089581E008950E946B090895AE
:1012E0000895CF93C82F0E9468098C2F0E946D0922
:1012F000CF91089580E00E94710908950E94A41A78
:101300000E9471090895CF930E94A41AC82F80915A
:101310008A028C1789F1C0938A020E94C61C6093CE
:101320008B0270938C0280938D0290938E02809139
:101330006F0382FF1EC080FF1CC08EE192E00E94FE
:101340008A0480916F0380FF14C01F92CF9389E1BC
:1013500092E09F938F930E94230580916F030F90DB
:101360000F900F900F9080FF04C087E192E00E94E1
:101370008A048C2F0E947109CF910895ABE0B0E0F0
:10138000E4ECF9E00C94D2244F83588769877A877C
:101390008B8761110E94E9111E821D8285E0FE018A
:1013A0003796DE01119601900D928A95E1F78091B2
:1013B000A60382FF0CC00E94AC11882319F082E0C2
:1013C0000E94A6120E94931181110E9417128C8113
:1013D0009D81892B61F449815A816B817C818D814A
:1013E0009E810E94EA102B96E2E00C94EE24898103
:1013F0009A8189238F3F79F3CE0101960E949A0842
:101400008111E9CFF0CFFC01808191810E94B00E63
:101410000895CF93C82F8823E1F08CEF8C0F813A89
:10142000D0F48C2F0E947719811113C06C2F8091FA
:101430000001909101010E94441B882329F08C2F08
:101440000E9481110E9425128C2F0E9479110E9406
:101450002512CF91089580E28C0F883048F4C77030
:1014600081E001C0880FCA95EAF70E94CC11EFCF46
:10147000EBE5EC0FE33040F4F0E0E35CFE4F8081FD
:1014800090E00E94041BE5CFC85AC73110F7EC2F3B
:10149000F0E0EE0FFF1FE15FFE4F808191810E941F
:1014A0001A1BD7CF882339F19CEF980F913A28F473
:1014B0000E9481110E942512089590E2980F9830A1
:1014C00050F4877091E001C0990F8A95EAF7892F4F
:1014D0000E94D211EFCF9BE5980F933028F490E053
:1014E00080E00E94041B0895885A873120F490E020
:1014F00080E00E941A1B08951F93CF93DF93182F4B
:10150000EB010E94090A209739F4812F0E94520AA8
:10151000DF91CF911F9108958FE99FE00197F1F737
:1015200000C000002197EFCF70E060E0893311F434
:1015300060E570E00E947C0A0895882321F00E94F3
:10154000CC110E9425120895882321F00E94D21107
:101550000E9425120895B0E0A0E0E1EBFAE00C94BF
:10156000CB246C01D62FC72FFC010281F580F294A9
:101570009FE0F9220E94C211E82E8823B9F0E02EE4
:101580000023A1F08C2F807F803421F080E28D0F2A
:101590008830D0F08091A60382FF16C082E00E94BE
:1015A000A6120E94C21191E0E82EE926BC2EB29448
:1015B0008FE0B822FBE0FB1508F468C0EB2DF0E0EB
:1015C000E65BFA4D0C94BC24E12CF0CF1C2F1F706D
:1015D000C07F11F01295107F002399F0112359F06C
:1015E00080E28D0F883010F0D11107C0812F0E944A
:1015F000CC110E9425128D2F41C0812F0E94DC1139
:10160000F8CF8D2F0E94520A112309F43FC080E2C7
:101610008D0F883010F0D11104C0812F0E94D2119B
:1016200003C0812F0E94E2110E9425122FC01C2F9F
:101630001F70C07FC03211F01295107FDD2381F042
:10164000D13009F482C0002309F48BC0FF2009F4D3
:101650005BC0F601858180FFCECF8F70858354C03B
:101660008091A60382FD33C0002359F0112329F095
:10167000812F0E94CC110E94251280E00E94090A4D
:1016800005C080E00E94520A1111C7CFEB2DE8502F
:10169000FF0B349720F40E94A41A0E947109EE20D7
:1016A00089F00E94A81180FD0DC0F60112820E94EF
:1016B000A2110E94B90DC6010E94EA0C0E94A2115B
:1016C0000E94C90DCDB7DEB7E9E00C94E7240023F2
:1016D000E9F0F11006C00E94EC11812B0E949D0AD6
:1016E000D5CF21E0F21206C00E94EC11812B0E949E
:1016F0000012CCCF35E0F312EECF0E9417120E94F9
:101700009011812B0E94F311812FE8CFF11003C0BB
:101710000E94171211C081E0F81212C00E94C91174
:10172000812309F4B3CF0E9417120E949011912FC8
:10173000909589230E94F311812F0E94A40AA6CFBD
:1017400095E0F91609F4A2CFE3CF002329F0E5E0F4
:10175000EF1508F49BCFD8CFF4E0FF1508F496CF2F
:10176000EBCFFF2049F3D93349F4FFEF27EE33E005
:10177000F15020403040E1F700C000008D2F0E9462
:10178000520A84CF8C2F86958695837069F08130BC
:1017900009F07CCF8D2F9C2F9370011102C090E037
:1017A00080E00E941A1B72CF8D2F9C2F9370011125
:1017B00002C090E080E00E94041B68CF8C2F8370F1
:1017C000A1F5011163CF4D2F429546954770440F07
:1017D000440F2D2F2F7030E0042E02C0220F331F34
:1017E0000A94E2F790E080E0D4FF09C08FE090E037
:1017F00002C0880F991F4A95E2F780959095C6958B
:10180000C695C370822B932BC23049F058F4C13077
:1018100019F00E94870D3ACF0E947E0D37CF0E94AB
:10182000900D34CF0E947B0D31CF8695002311F0AF
:101830008C2F8170882309F429CF4D2F429546952E
:101840004770440F440F2D2F2F7030E0042E02C03C
:10185000220F331F0A94E2F790E080E0D4FF09C022
:101860008FE090E002C0880F991F4A95E2F78095BB
:101870009095C695C695C370822B932BC23049F0C4
:1018800058F4C13019F00E94F40D00CF0E94EB0D06
:10189000FDCE0E94FD0DFACE0E949F0DF7CECF70B7
:1018A000002329F08C2F0E94B90D8D2F17CF8D2F7B
:1018B0000E94A40A8C2F0E94C90DE8CED23F51F19C
:1018C00060F4D03FB9F0D13F81F0002309F45AC051
:1018D000F11091CE8C2F8F7121C0D33F11F1D43FE5
:1018E000A1F78091A60382FD26C08C2F8F71002363
:1018F00011F314C0002349F084E08F1508F4C6CE1C
:101900008C2F8F710E94DB0DC1CE95E09F1508F4DE
:10191000BDCEF6CF8C2F8F710111CDCF0E94B90DA6
:10192000B5CE002329F08C2F8F710E94AD0DAECE65
:101930000E94A80DABCE0023C1F00E94A8118430F4
:1019400041F40E949C128C2F8F710E94C90DE12CD2
:101950009DCEE4E0EF15D8F3CF718C2F0E94B90D26
:1019600063E08C2F0E947E12F2CFF4E0FF1530F47A
:101970000E949C1264E08C2F8F71F4CF81E00E9452
:10198000A612E5CFFF2059F0D93309F0F7CE2FEF9B
:1019900037EE83E0215030408040E1F7EDCE8C2FD0
:1019A0008F7189CF0F931F93CF93DF93EC016881E1
:1019B00079818A810E94BB0E8C010E94060E0E94D2
:1019C0007A0DB801CE010E94AB0ADF91CF911F9131
:1019D0000F910895CF93DF93EC018B819C81892B2C
:1019E00029F08881998189238F3F51F4DF91CF912C
:1019F0000895CE010E94D20CCE010E949C08F6CF21
:101A0000CE010E942C098111F4CF0E94C2118823BB
:101A100069F38A81882351F38091A60382FFE6CF80
:101A200082E00E94A612E2CF90E080E00E94041BB8
:101A300090E080E00E941A1B0E94E9110E9425128A
:101A400008950E9489110E94140D08950E94D911D1
:101A50000E94210D089592959F70963091F058F450
:101A6000925F9F70923058F4803F19F030F4883EB6
:101A700030F481E008959A5FF4CF843FD1F380E0A1
:101A80000895883EB0F3813FD1F7F3CFFC01838105
:101A90009481892B29F08081918189238F3F11F4D2
:101AA00080E00895808191810E94B00E0E942B0DEC
:101AB0000895A5E0B0E0EFE5FDE00C94D224259672
:101AC000E2E00C94EE24A6E0B0E0E9E6FDE00C9440
:101AD000D2242696E2E00C94EE2408950E946D0D27
:101AE00008950E946E0D9093D3028093D2020E94BB
:101AF000140D089508950E94710D08952091D20249
:101B00003091D302822B932B0E94710D0895209166
:101B1000D2023091D302822393230E94710D089543
:101B20002091D2023091D302822793270E94710D17
:101B300008950E946D0D08950E94990D08950E94C8
:101B40009C0D9093D1028093D0020E94140D0895B1
:101B500090E080E00E949F0D089521E030E0A9010F
:101B600002C0440F551F8A95E2F7CA010E949F0DDB
:101B7000089521E030E002C0220F331F8A95E2F77A
:101B80008091D0029091D102822B932B0E949F0DC5
:101B9000089521E030E002C0220F331F8A95E2F75A
:101BA000209530958091D0029091D1028223932389
:101BB0000E949F0D089521E030E002C0220F331FE4
:101BC0008A95E2F78091D0029091D10282279327E3
:101BD0000E949F0D08952091D0023091D102822B56
:101BE000932B0E949F0D08952091D0023091D10235
:101BF000822393230E949F0D08952091D00230915B
:101C0000D102822793270E949F0D08950895262FC1
:101C1000277091E001C0990F2A95EAF723E07695A5
:101C200067952A95E1F7660F771F660F771FFA0110
:101C3000E60FF71F50E040E0682F70E08191DF0170
:101C400011979B01042E02C0369527950A94E2F75E
:101C5000217021952827292328272C934F5F5F4F38
:101C60004430510559F70895A82FA77023E09695A1
:101C700087952A95E1F7880F991F880F991FFB0117
:101C8000E80FF91F50E040E080E0219130E00A2E9B
:101C900002C0369527950A94E2F721703327042E67
:101CA00001C0220F0A94EAF7822B4F5F5F4F443046
:101CB000510559F70895262F983068F4803158F46B
:101CC00030E1939FB0011124680F711D40E952E08B
:101CD000822F0E94070E0895983070F4803160F4CE
:101CE00040E1949F9001112460E972E0820F932FEC
:101CF000911D0E94340E089580E00895B0E0A0E0A8
:101D0000E4E8FEE00C94CB247C010091D002109119
:101D1000D1028091D2029091D302082B192BCFE0EF
:101D2000D0E0CC24C394D12CBC2EC6010C2E02C012
:101D3000880F991F0A94E2F780239123892B49F495
:101D4000219790F7B12C8B2DCDB7DEB7E9E00C943D
:101D5000E724B7018C2F0E947615019789F3F3CF02
:101D6000CF93DF93EC010E947E0EBE010E94761598
:101D7000DF91CF9108951F93CF93DF93EB01909163
:101D80008F02992339F0CB010E94B00EDF91CF91E1
:101D90001F910895882369F0CB010E947E0E182FB1
:101DA000682FCE010E945B0EBE01812F0E94761526
:101DB000EDCFCB010E946C0E182FF6CF1F93CF935F
:101DC000DF93C091D40216E08091D5028C1304C039
:101DD000DF91CF911F910895D0E01C9FF0011D9FCE
:101DE000F00D1124EA52FD4F4081518162817381CF
:101DF000848195810E94630D2196C770E5CF409143
:101E000006035091070360910803709109038091C4
:101E10000A0390910B030E94630D08951F93CF93C3
:101E2000DF9380910B03807F09F049C08091080304
:101E3000882309F444C08091D402C091D5026091F6
:101E4000060370910703A0910903B0910A03D62FEE
:101E5000D72316E0C81799F190E0109711F0DF3FF3
:101E600019F401968770F6CF189F9001199F300DD5
:101E70001124F901EA52FD4F41814713F2CF40810D
:101E80004613EFCF42814111ECCF438154814A1B6D
:101E90005B0B483C510528F780910B038F708061E4
:101EA00080930B03F901E552FD4F80818F708061B3
:101EB000808386E093E00E94EA0C0E94DE0EDF91B0
:101EC000CF911F910895A1E1B0E0E9E6FFE00C9405
:101ED000CA248C0185E0F801DE011D9601900D9267
:101EE0008A95E1F7F801E28086E0C82E83E0D82EDB
:101EF0006091090370910A036115710509F44EC1DF
:101F00009091060320910703892F82238F3F09F4C4
:101F100045C140815181A380B480F0900803F50150
:101F2000E61BF70BFF2009F4EAC080910B03382F62
:101F3000307FE83CF10508F0A3C031116DC0FE2CE4
:101F4000251316C0941314C0E11012C08F70806165
:101F500080930B030E94FF0EC6010E94EA0C809141
:101F60000B03F80185838F2D6196EAE00C94E6243B
:101F7000A114B10429F0842F85238F3F09F027C1D4
:101F800080E0F82FF170DF2E80FF3CC08091D402FA
:101F90002091D50236E0821315C04D875E878D856E
:101FA0009E850E94B00E292F22952F702230F0F0CE
:101FB000243018F59F70F1F0F8019581907FD1F4ED
:101FC000D12C1EC090E0389FF001399FF00D1124F4
:101FD000EA52FD4F6181651306C06081641303C03E
:101FE0006281E6120FC001968770D5CF9F7011F005
:101FF000882331F3805E883018F3C8010E94EA0C10
:10200000FD2CB1CFEE2009F4AECF80910B0381609F
:1020100080930B03F12CA7CF251306C0941304C0A3
:10202000F801EE2009F487C0C8010E94460D8823FC
:1020300019F1EE2009F180910B03803270F02091AC
:1020400006033091070338872F831986BB86AA863B
:102050008C87CE0107960E94EA0C86E0F801A6E084
:10206000B3E001900D928A95E1F70E940E0F0E9455
:10207000FF0EFF24F39477CFC8010E94EA0CF9CF3A
:10208000311113C07A2DB98AA88A6E2D89890E94D0
:10209000590D86E093E00E94EA0C86E0F601119269
:1020A0008A95E9F70E94FF0EB5CF25130FC0941350
:1020B0000DC0E1100BC0F8018583C8010E94EA0C35
:1020C00086E0F60111928A95E9F74DCFC8010E948A
:1020D000460D882389F2EE2079F280910B0380323D
:1020E00008F4BBCF20910603309107033A8329837C
:1020F0001B82BD82AC828E83CE010196ACCFE83CC0
:10210000F10508F03EC0FE2CEE2009F4B5CF2513F2
:102110002AC0941328C080910B0380FD1BC0982F08
:10212000907FC1F0F8018583903F31F0982F907F28
:10213000905F8F70892B8583C8010E94EA0C86E02E
:10214000F801A6E0B3E001900D928A95E1F70E94B4
:10215000FF0E09CF86E0F801A6E0B3E001900D92F2
:102160008A95E1F700CFC8010E94460D811175CF15
:1021700080910B03816080930B03C8010E94EA0CDD
:10218000F2CE7A2DB98AA88A6E2D89890E94590DBE
:1021900086E0F60111928A95E9F7D9CFEE2009F48D
:1021A0006BCFC8010E94460DF82E882309F464CF36
:1021B00086E0F801A6E0B3E001900D928A95E1F780
:1021C00086E093E00E94030A0E940E0FC0CF81E0D8
:1021D0008E25D7CEACE0B0E0E0EFF0E10C94D12456
:1021E0004F83588769877A878B879C87CE010796AC
:1021F0000E94630F882369F08A859B85892B39F0BB
:102200004F815885842F85238F3F09F06BC016E0DE
:102210005FC086E0FE013796DE01119601900D92B7
:102220008A95E1F78A859B85892B89F38F8198852B
:1022300089238F3F61F32091D50230E0C9010196D7
:10224000877099274091D4024817190671F40E94AB
:10225000260D1092D5021092D40286E0E6E0F3E05B
:10226000DF011D928A95E9F7D2CF96E0929FD001C7
:10227000939FB00D1124AA52BD4FFE0131960190DB
:102280000D929A95E1F78093D5020E94DE0EBFCFA2
:10229000819FC00111248A529D4F0E94630F8823A1
:1022A000E9F0E091D4021E9FF0011124EA52FD4FA3
:1022B0004081518162817381848195810E94630D87
:1022C0008091D40290E00196877099278093D40280
:1022D0008091D4029091D5028913DACF2C96E3E055
:1022E0000C94ED2469857A858B859C850E94630D0D
:1022F0008ECF682F80910001909101010E94E61B12
:102300000895682F80910001909101010E94F41BB3
:10231000089580910001909101010E94021C08958E
:102320008091310308950E94BA1C20912F033091AF
:102330003003821B930B9C0181E02838334108F461
:1023400080E0089580912E03859585958595089563
:1023500080912E03877008950E94BA1C20912C034F
:1023600030912D03821B930B8838934148F0809164
:102370002E0382FB882780F991E0892781700895D8
:1023800080E0FCCF90912E03977081E009F480E00B
:10239000089580915403089590915403892B80935C
:1023A0005403089580959091540398239093540377
:1023B000089510925403089590915303892B8093AC
:1023C000530308958095909153039823909353035A
:1023D000089510925303089580913203089508954B
:1023E0000E94EF11089590913103981721F0809386
:1023F00031030E94F011089508950E94FC11089580
:10240000CF93C82F8091A60382FF0FC08091320323
:102410008C1759F00E94BA1C9093300380932F03BD
:10242000C09332038C2F0E94FD11CF9108958091AB
:102430003203882349F01092320310923003109235
:102440002F0380E00E94FD110895CF93DF93E09168
:102450000001F0910101809154038083E09100011B
:10246000F0910101808190915303892B80838091A9
:102470003203882321F10E949311882371F0809107
:102480006F0380FF08C089E292E09F938F930E94C0
:1024900023050F900F900E941712E0910001F09118
:1024A0000101808190913203892B8083809100010A
:1024B000909101010E94301B81110E941712C0915E
:1024C0000001D091010140E250E06CE073E0CE01E8
:1024D0000E94F924892B59F080E2FE01ACE0B3E0C0
:1024E00001900D928A95E1F7CE010E94B11ADF9119
:1024F000CF91089508950E947A1208959091A603AD
:1025000092FF17C098E0899F90011124622B60937D
:102510002E030E94B90D0E94BA1C90932D03809344
:102520002C0380912E038595859585950E947B12BD
:1025300008950E94B90D089510922E0310922D0354
:1025400010922C0380E00E947B12089590912E033C
:102550008095892380932E03282F277091F4282FAC
:10256000082E000C330B9217130659F09091A60316
:1025700092FF07C08595859585950E94C90D0E949B
:102580009C120895CF93C82F8091A60382FB9927B0
:1025900090F99C17E9F0C0FB82F98093A603809123
:1025A000A5039091A6030E941F1382E00E94A61229
:1025B00080916F0380FF0CC01F92CF938BE392E05A
:1025C0009F938F930E9423050F900F900F900F9071
:1025D000CF9108958091A60382FB882780F991E02E
:1025E00089270E94C212089581E00E94C2120895B4
:1025F00080E00E94C212089590E080E00E940E25C3
:1026000021E0883E9E4F09F020E0822F089582E06D
:1026100090E00E940625089583E090E00E94062540
:102620000895CF9384E090E00E940625C82F82E2AF
:1026300090E00E940625982F8C2FCF910895CF937C
:10264000C92F682F84E090E00E9414256C2F82E24D
:1026500090E00E941425CF910895AB01BC018FE05A
:1026600090E00E9426250895AB01BC0183E190E033
:102670000E942625089560E070E0CB010E9434138B
:10268000089560E070E0CB010E942D130E943B137F
:10269000089568EE7EEF90E080E00E94322560E0D1
:1026A00082E090E00E94142560E083E090E00E94C8
:1026B00014251092D3021092D20260E084E090E0E0
:1026C0000E94142564E082E290E00E94142560E0FC
:1026D00085E090E00E94142560E086E090E00E9492
:1026E00014256FEF87E090E00E94142540E050E051
:1026F000BA0188E090E00E94262560E08DE090E03D
:102700000E94142540E050E0BA0188E190E00E9468
:10271000262560E087E190E00E94142540E050E02B
:10272000BA018CE190E00E94262570E060E080E232
:1027300090E00E94322540E050E0BA0188E190E04C
:102740000E9426250E94411308950E94491308956E
:10275000682F8EE090E00E94142508950E94C61C08
:1027600060936B0370936C0380936D0390936E037F
:1027700060936703709368038093690390936A037F
:102780000895089508950E94C213089508950E941F
:10279000C61308958DE09FE10E949A1A0E94C1130A
:1027A0000E94C313089581E008950E94D3130895F1
:1027B000089508950E94D8130E94D91308950E9485
:1027C00061160E94700908950E94B11C0E9444077E
:1027D0000E94DF130E94C7130895AAE0B0E0E3EF60
:1027E000F3E10C94C7240E946D0727E5822E23E0B5
:1027F000922E640110E0F601E190F1906F01812FBB
:102800000E9450081F5F183009F449C0E816F90605
:1028100091F380916F0381FD0E940F080E94D513F0
:10282000782E10E0812F0E9450087C01F401A190C5
:10283000B1904F018A159B0561F1A826BF2400E0E5
:10284000CC24C394D12CC5018C219D21892BC1F0AE
:102850007720B1F00E831F8321E0C7018C219D21D9
:10286000892B09F420E028870E94BA1C8160782F08
:102870009A8789874E815F8168858A850E94BE0913
:102880000F5FCC0CDD1C0031F1F6F4013297F182C0
:10289000E0821F5F183031F60E94AE1322C0E816A6
:1028A000F90609F0B6CF0E94BA1C8C01809155033D
:1028B0009091560308171907A1F08FEF89838A8337
:1028C0001B820E94BA1C8160782F9D838C83498172
:1028D0005A816B818D810E94BE091093560300932B
:1028E00055030E9483092A96EDE00C94E324CF93CC
:1028F000DF930E947B15EC01811522E59207E8F534
:10290000811531E5930708F0A5C0883E910510F5C3
:10291000803E910570F5883A910570F4853A9105ED
:1029200008F078C08130910521F1009711F10497EA
:1029300000F5D0E0C0E01DC08F3B9105D0F7C85A2C
:10294000D0E0CC0FDD1FC05CDE4F0990D881C02DD8
:10295000D4640FC0811540E5940708F066C0C11526
:1029600080E4D80708F05EC0CE019A9581159F419A
:1029700000F7CE01DF91CF910895811536E59307D9
:1029800018F5811545E5940708F07DC0C11584E56B
:10299000D80708F073C09C2F969596959E012370DA
:1029A0003327C115D34508F45AC0C1E0D0E002C0B6
:1029B000CC0FDD1F2A95E2F730E2939FC00111246E
:1029C000C82BD92BDA68D5CFC1158AE5D80778F49A
:1029D000C11529E5D20708F060C0C11538E5D30755
:1029E00008F4A7CFDC2FCC27C06FD06AC2CFCE01AE
:1029F00090568115904208F09CCF8D2F8F710E94C8
:102A00001D1690E0982F882788279F719C012C2BFA
:102A1000E90141C0C55AD0E0C259DE4FC881D0E0BB
:102A2000D064A7CFDF70D06AA4CF282F2695269533
:102A3000237080E2289F900111248C2F8370C1E0C5
:102A4000D0E002C0CC0FDD1F8A95E2F7C22BD32B5A
:102A5000DD688FCFD82FCC27C16FD06A8ACFC1E075
:102A6000D0E002C0CC0FDD1F2A95E2F720E2929F52
:102A7000C0011124C82BD92BDC687BCFDC2FCC27DD
:102A8000C46FD06A76CF0E941D16C82FD0E0DC2F0D
:102A9000CC27CC27DF71D0626CCF8C2F8F700E9437
:102AA0001D1634E0D695C7953A95E1F7CF709C2F67
:102AB000EC01D0695ECF7830B0F46031A0F498E0DA
:102AC000899FF0011124E70FF11D84E0EE0FFF1F35
:102AD0008A95E1F7E60FF11DEE0FFF1FEC50FF4F57
:102AE00085919491089580E090E008950E945B158F
:102AF0000E947714089582389105B9F1B0F48133BA
:102B0000910509F47DC048F48932910509F46DC03E
:102B10008A32910509F47BC008958533910509F443
:102B20005FC08933910509F10895833E9105D9F17C
:102B300038F4803E910529F1823E910579F108959E
:102B4000863E9105D9F1873E910509F43EC0843E49
:102B5000910541F52091A60321FF24C08091A50392
:102B600084FD19C087EE90E008952091A50323709D
:102B700009F05AC02091A60323FF14C089E290E017
:102B800008952091A50320FD38C03091A60330FFA1
:102B900009C024FF43C090E080E008952091A50380
:102BA00022FDF7CF08952091A50322FD3AC0309170
:102BB000A60330FD39C024FFF5CFEDCF2091A5034A
:102BC00023FFF0CF24FDE7CFCDCF2091A50323FD38
:102BD0002EC03091A60331FFEECF84EE90E0089531
:102BE0002091A50325FFDECFC9CF2091A50325FDA8
:102BF00021C02091A60323FFD5CF89E390E0D2CF57
:102C00002091A50326FFCECF8AE290E0089520917F
:102C1000A50326FFC7CF81E390E0089583EE90E0FF
:102C2000089582EE90E0089580EE90E0089586EE9B
:102C300090E0089585E390E008959091A50392FFB8
:102C400006C0282F28712830F9F4877F846093FF0D
:102C500006C0282F28712831F1F4877E84612091E5
:102C6000A60320FF06C0382F38713830D9F4877F8B
:102C7000816021FF06C0282F28712831D1F4877E7A
:102C8000816194FD877E0895282F24712430F9F600
:102C90008B7F8860DCCF282F2471243101F78B7E55
:102CA0008861DDCF382F3171313019F78E7F886020
:102CB000E0CF282F2171213121F78E7E8861E1CF6D
:102CC00008950E94FC12811102C00E94A5130E9467
:102CD000071380936F030E9411139093A6038093B0
:102CE000A5030E9460160E940C1390E00E947B0DC9
:102CF0008091D0029091D1020E949C0D08950E9473
:102D0000891F0E94E4130E94961F08950E949B1F32
:102D10000E94ED130E94B91F08950E94531C0E9447
:102D20006F1F0E94CA130E947F160E9486160E947F
:102D3000DA13FBCFCF93DF93EC01FB018281882371
:102D400009F464C1C430FDE5DF07E0F5CB3F9CE545
:102D5000D90730F49E0122503C4524313105D8F585
:102D60000E9411139093A6038093A503C231ECE552
:102D7000DE0709F41FC108F06EC0C9308CE5D80722
:102D800009F4F2C008F03FC0C530ECE5DE0709F4F5
:102D9000DBC058F5C3308CE5D80709F4CDC008F086
:102DA000CFC08091A5038160C230DC4509F4AEC07C
:102DB0008091A5039091A6030E941F130E94260DE7
:102DC00080E009C0C63AEDE5DE0751F238F4C236BC
:102DD0009DE5D90729F2DF91CF9108959E012E5AE2
:102DE0003D4523303105B8F7BBCF8091A503806204
:102DF000C730FCE5DF0709F489C008F4B1C0809151
:102E0000A503806483C0CD309CE5D90709F4BAC01E
:102E100070F48091A5038E7FCB30FCE5DF0709F4C9
:102E200075C008F4A7C08091A5038D7F6FC0CF3017
:102E30009CE5D90709F4B6C008F4A8C0C031FCE588
:102E4000DF0709F4B3C0C131DC4509F0B1CF80918F
:102E5000A5038F7B5BC0C1159DE5D90709F4B4C0FC
:102E600098F5CB3FFCE5DF0709F472C0B8F4C43134
:102E70009CE5D90709F4B6C008F4A2C0C531DC4509
:102E800009F096CF8091A50382FB992790F921E064
:102E9000922790FB82F990FB83F938C0CD3F8CE5F7
:102EA000D80709F477C008F457C0CE3FECE5DE0739
:102EB00009F474C08091A6038360CF3FDC4509F01C
:102EC00077CF8093A60374CFC2368DE5D80709F477
:102ED00096C068F4C230EDE5DE0709F48CC008F452
:102EE00077C0C330DD4509F063CF80E085C0CE3ABE
:102EF0009DE5D907E9F068F49091A503892F8E7FAD
:102F000090FF8160C63ADD4509F052CF8093A5035A
:102F10004FCFCF3A8DE5D80789F1C03BDD4509F0A9
:102F200047CF9091A603892F877F93FF8860C9CFF1
:102F30008091A6038860C5CF8091A5038260E6CF0B
:102F40008091A5038460E2CF8091A5038860DECFE5
:102F50008091A6038160B5CF8091A6038260B1CF36
:102F60008091A5038061D2CF0E94260D8091A50398
:102F70008068CCCF8091A5038C60C8CF8091A603D8
:102F8000877F9FCF8091A5038B7FC0CF8091A503C2
:102F9000877FBCCF8091A6038E7F93CF8091A603BD
:102FA0008D7F8FCF8091A5038F7EB0CF8091A503B9
:102FB0008F7DACCF0E94260D8091A5038F77A6CF81
:102FC0008091A503837FA2CF8091A6038C7F79CFC8
:102FD0008091A603982F909591708E7F892B90FBFE
:102FE00081F96FCF0E94260D9091A503892F97FB41
:102FF00087F980588BCF81E00E94A813D9CE909199
:10300000A503892F8F7E94FF806180CF81E0E3CE7E
:10301000CF93C82F1F928F9386E592E09F938F9353
:103020000E94230581E090E002C0880F991FCA9595
:10303000E2F70E947B0D0E94260D0F900F900F90DB
:103040000F90CF910895B0E0A0E0E9E2F8E10C9490
:10305000CD24EBEFE80FEF3308F03EC1F0E0EA5A81
:10306000FA4D0C94BC240E940C131F928F938AEF8C
:1030700095E09F938F930E9423050E94071383FB83
:10308000992790F91F929F9382FB992790F91F929D
:103090009F9381FB992790F91F929F93982F91708E
:1030A0001F929F931F928F9381EB95E09F938F9335
:1030B0000E9423050E94111393FB222720F91F92DF
:1030C0002F9387FB222720F91F922F9386FB22271D
:1030D00020F91F922F9385FB222720F91F922F930F
:1030E00084FB222720F91F922F9383FB222720F9AC
:1030F0001F922F9382FB222720F91F922F9391FB7F
:10310000222720F91F922F93292F21701F922F938E
:1031100081FB222720F91F922F93282F21701F92C5
:103120002F939F938F9382EB94E09F938F930E94B2
:1031300023058DB79EB78A960FB6F8949EBF0FBE33
:103140008DBF81E01CC08AEB96E00E948A040E9439
:10315000A513F7CF8DEF92E00E948A04F2CF809101
:103160006F03807F80936F0382EE92E00E948A0457
:1031700086EB96E00E948A0481E080937003CDB7CD
:10318000DEB7E7E00C94E9248AE996E00E948A041D
:103190000E94BD08D6CF90916F03892F8E7F90FF3C
:1031A000816080936F0380FF03C08EE896E0D4CFE8
:1031B00081E896E00E948A0480916F03817F80936A
:1031C0006F03BFCF90916F03892F8D7F91FF826036
:1031D00080936F0381FF08C084E796E00E948A0411
:1031E00080916F038160EBCF86E696E0B5CF90913A
:1031F0006F03892F8B7F92FF846080936F0382FF20
:1032000003C087E596E0EACF87E496E0A5CF9091EA
:103210006F03892F877F93FF886080936F0383FFFD
:1032200003C08BE396E0DACF8EE296E095CF81E79C
:1032300091E09F938F938FED92E09F938F930E94E5
:1032400023050F900F900F900F907BCF0E94C61C0C
:10325000062FF72EE82ED92EC091A503C7FBCC2749
:10326000C0F91091A403D0910E010E94A41ADF921C
:10327000EF92FF920F931F92CF931F921F931F9273
:10328000DF931F928F938BE592E09F938F930E9421
:1032900023058DB79EB70E960FB6F8949EBF0FBE4E
:1032A0008DBF4FCF0E94260D9091A503892F97FBCC
:1032B00087F980588093A50387FF03C084E296E0D6
:1032C0004BCF89E196E048CF80E00E94081839CFC3
:1032D0008953FBCF8D51F9CF87E196E00E948A0494
:1032E00080E04DCF80E008950E9472190895CF9339
:1032F000C82F80917003882331F0813099F01092AB
:10330000700380E00DC00E94C9118232D1F78C2F6A
:103310000E947219811119C08C2F0E94231881708C
:10332000CF9108950E94C911823289F38C2F0E9497
:103330007419811119C0C431C9F050F4CB3061F057
:1033400080E592E00E948A0413C081E090E0E7CF1C
:10335000C93261F0C833A1F782EE92E00E948A047C
:1033600082E592E00E948A0481E0D9CF1092700336
:1033700080E0D5CFCF93DF93EB0186319C4511F5EB
:103380000E94C9119A81992399F08A7A91E009F4EF
:1033900090E090937103811109C089E20E94791134
:1033A0000E94251280E0DF91CF91089585E3F6CF4A
:1033B00080917103811104C089E20E948111F0CFD4
:1033C00085E3FBCF81E0EFCF0F931F93CF93DF9384
:1033D000C42FD22FFC0182818823C9F0409374034B
:1033E0000E94BA1C909373038093720380E28C0F47
:1033F000883040F4C77081E001C0880FCA95EAF7B1
:103400000E949D0ADF91CF911F910F910895109115
:103410007403141332C080917203909173030E945D
:10342000D21C883C910548F5C0E2CD0F1D17B9F0BC
:1034300080E2810F883040F4177081E001C0880F6E
:103440001A95EAF70E94A40AC83048F481E09D2F3B
:10345000977001C0880F9A95EAF70E949D0A802F05
:103460000E94940AC83070F6D77081E001C0880FBE
:10347000DA95EAF70E94A40AC5CF80E28C0F883063
:1034800008F6C77081E001C0880FCA95EAF7F2CF4D
:103490000F939C01CB01243F4CE5340759F1A8F46C
:1034A000293DFCE53F0701F12A3D4CE53407D1F108
:1034B000283D3C4591F406E221EE41EE68ED7CE5C5
:1034C0000E94E41980E00F910895263FFCE53F0734
:1034D000E9F0B0F0273F3C45F9F0FC0182818823F8
:1034E00039F110927403EFCF07E225EE45EE69ED56
:1034F0007CE5E6CF06E221EE40EE64EF7CE5E0CF2E
:1035000007E225EE44EE65EF7CE5DACF06E221EE38
:1035100042EE66EF7CE5D4CF07E225EE46EE67EF9C
:103520007CE5CECF08E221E045EE6AED7CE5C8CF30
:1035300081E0C9CF9093470280934602089590930B
:103540007A03809379030895E0917903F0917A03E7
:10355000309729F00190F081E02D0995089580E0E1
:103560000895EF92FF920F931F93CF93DF93EC0197
:10357000E0917903F0917A03309709F440C080918B
:103580000E01882341F08091A50387FF04C0888144
:10359000898386E088830280F381E02DCE0109953E
:1035A00080916F0382FF2BC080FF04C083ED96E003
:1035B0000E948A0410E000E08DECE82E86E0F82EF0
:1035C00080916F0380FF0EC0FE01E00FF11F80812C
:1035D0001F928F93FF92EF920E9423050F900F90FE
:1035E0000F900F900F5F1F4F0830110549F7809122
:1035F0006F0380FF04C08BEC96E00E948A04CDB775
:10360000DEB7E6E00C94EA2420917703309178034A
:103610002817390771F09093780380937703E0912E
:103620007903F0917A03309721F00680F781E02D3D
:10363000099508952091750330917603281739076D
:1036400071F09093760380937503E0917903F09184
:103650007A03309721F00084F185E02D09950895D3
:10366000FC01329680910E01882321F08091A50300
:103670009EE187FF96E080E0915008F40895219143
:103680002223D1F38F5FF8CF662301F120910E0141
:103690002223F1F02091A50327FF1AC0462F46955B
:1036A000469546954E3190F4677021E030E002C0B7
:1036B000220F331F6A95E2F7840F911DFC0182816E
:1036C00090E02823392381E0232B69F480E00895DA
:1036D000FC01329608962191261721F0E817F90788
:1036E000D1F7F4CF81E008959C01FC0132969FEF61
:1036F00080E04191461751F09F3F19F4411101C0FC
:10370000982F8F5F8630A9F79F3F09F40895290FFE
:10371000311D97FD3A95F90162830895FC013296B7
:1037200008962191261303C0DF0111971C92E81718
:10373000F907B9F70895E62FE695E695E695EE3197
:1037400070F4E80FF92FF11D677021E030E001C03F
:10375000220F6A95EAF78281822B828308958091F5
:103760006F0380FF0CC01F926F9383E097E09F93DD
:103770008F930E9423050F900F900F900F90089544
:10378000E62FE695E695E695EE3178F4E80FF92F09
:10379000F11D677021E030E001C0220F6A95EAF761
:1037A0002095828128232283089580916F0380FFD2
:1037B0000CC01F926F9385EE96E09F938F930E94AB
:1037C00023050F900F900F900F90089520910E01F8
:1037D000222339F02091A50327FF03C00E949B1BE1
:1037E00008950E94741B089520910E01222339F040
:1037F0002091A50327FF03C00E94C01B08950E94CB
:103800008E1B0895FC01329680910E01882351F0A1
:103810008091A50387FF06C08EE1DF011D928A9586
:10382000E9F7089586E0F9CF08950E94141C0895E1
:10383000811106C081E080937B030E94151C0895CE
:1038400082E0F9CF83E080937B030E94151C0895EA
:103850000E94181C089581E080937B030E94151C30
:1038600008950E942B1C0895089508950E94351C08
:103870000895089508950E94341C0895CF930E94DE
:10388000391C0E946D070E943A1CC0E08C2F0E94D8
:103890005008892B31F4CF5FC830C1F780E0CF9159
:1038A000089581E0FCCF85B7806885BF85B78068C3
:1038B00085BF08951F921FB61F9211248F939F9367
:1038C000AF93BF9380917C03811113C08091A703B4
:1038D0009091A803A091A903B091AA034196A11DBC
:1038E000B11D8093A7039093A803A093A903B0935D
:1038F000AA03BF91AF919F918F911F901FBE1F9000
:1039000018958091AF03843031F10E9438091092EC
:103910007C0388E190E020E40FB6F894A8958093AA
:1039200060000FBE2093600083B7817F846083BFF7
:1039300083B7816083BF7894889583B78E7F83BF78
:103940000FB6F894A895809160008861809360001C
:10395000109260000FBE08950E94260D0E943D093E
:10396000089582E084BD93E095BD9AEF97BD809362
:103970006E0008952FB7F8948091A7039091A80343
:10398000A091A903B091AA032FBF08952FB7F8946F
:103990006091A7037091A8038091A9039091AA0355
:1039A0002FBF08959C014FB7F8948091A703909181
:1039B000A803A091A903B091AA034FBF821B930B48
:1039C000089578941F921FB61F9211248F939F938E
:1039D000AF93BF938091A7039091A803A091A903EF
:1039E000B091AA030196A11DB11D8093A7039093E6
:1039F000A803A093A903B093AA03BF91AF919F918D
:103A00008F911F901FBE1F901895F89481E08093AE
:103A1000E00080E28093D800E9ECF0E010828FE1D2
:103A20009EE40197F1F700C000001DBA10926800F3
:103A30001CBC10BE1FBA10927A0010926E00109239
:103A40006F0010927100109272001082ECEBF0E0A7
:103A5000108214B817B81AB81DB810BA108215B869
:103A600018B81BB81EB811BA0C94003F089588E12D
:103A70009AE00FB6F894A895809360000FBE9093DB
:103A80006000FFCF8091A30308950895CF93DF9343
:103A9000EC0180910E018823B1F18091A50387FF8D
:103AA00032C060E282E08093E9008FEF9091E800FD
:103AB000815095FD06C095ED9A95F1F700008111B2
:103AC000F5CF8091E80085FF1BC080910E0170E06A
:103AD00050E040E0811104C050E040E068E070E058
:103AE000CE010E942A208091E8008E778093E80022
:103AF00080E2FE01A3E8B3E001900D928A95E1F720
:103B0000DF91CF91089568E081E0CDCF80937F036E
:103B100070938103609380038091AF03843001F53B
:103B200082E08093E9008FEF9091E800815095FD4D
:103B300006C095ED9A95F1F700008111F5CF8091BF
:103B4000E80085FF0DC050E040E063E070E08FE7E3
:103B500093E00E942A208091E8008E778093E8000D
:103B60000895BC0184E00E94861D0895BC0183E095
:103B70000E94861D0895089585E397E00E948A04B7
:103B80008091AE03811109C00E94BA210E941722C0
:103B90008091E20084608093E200089581E397E0E1
:103BA0000E948A041092AE0308958DE297E00E946D
:103BB0008A040E942B1C089589E297E00E948A04DF
:103BC0006091AB0381E0611101C080E00E94221C82
:103BD000089585E297E00E948A049091AF0381E006
:103BE000943009F080E06091AB030E94281C089596
:103BF00020917E032F5F822F62E30E94B0249923DD
:103C000019F020937E03089510927E038091820321
:103C10008823F1F08091AF038430C1F49091E900E2
:103C20009F702091EC00822F817020FD80E8892B0D
:103C300093E09093E9009091EB0090FF04C0909185
:103C4000EE0097FD08C08F708093E9001092820308
:103C500008951092F1009091E80095FDFACF9091AF
:103C6000E80090FFF0CF9091E8009E779093E800F5
:103C7000EACF42E061EC81E00E94362142E261EC51
:103C800082E00E94362142E261EC83E00E9436210C
:103C90009091AF0381E0943009F080E06091AB0334
:103CA0000E94181C08958091B103833009F461C00B
:103CB00030F48130D1F1823009F49EC008958A3009
:103CC00009F48AC08B3009F46FC0893009F050C004
:103CD0008091B003813209F04BC08091B403909180
:103CE000B503029708F044C08091E800877F809375
:103CF000E8008091E80082FF37C09091F300809146
:103D0000F200029731F48091F100813011F0863099
:103D100021F48091F1008093A3038091E8008B77D8
:103D20008093E8000E946A2123C08091B003813A09
:103D3000F9F48091E800877F8093E8008091B403D4
:103D40009091B503892B61F460E283E893E070E021
:103D50000E9479208091E8008B778093E800089595
:103D600060E090E080E0F3CF8091AF038111C1CF9C
:103D700008958091B003813AD9F78091B40390916E
:103D8000B503892BA9F78091E800877F8093E8002D
:103D90008091E80080FFFCCF80910E018093F100BC
:103DA0008091E8008E77BCCF8091B003813201F71B
:103DB0008091B4039091B503892BD1F68091E800EE
:103DC000877F8093E8000E946A218091B2038093EC
:103DD0000E010E94260D08958091B003813241F6B4
:103DE0008091E800877F8093E8000E946A2180919B
:103DF000B3038093A40308958091B003813A09F03E
:103E0000B7CF8091E800877F8093E8008091E80039
:103E100080FFFCCF8091A403C1CF9FB7F89410928C
:103E200082039FBF9091AF03943009F048C0209166
:103E3000E9002F703091EC00932F917030FD90E8E5
:103E4000922B23E02093E9002091EB0020FF34C067
:103E50002091EE0027FF30C020917D03222321F026
:103E60002091E80025FF28C010927D0326E03091C4
:103E7000E80035FF14C08093F1008091E80085FDD3
:103E800027C08091E80080FFFCCF8091E8008E770A
:103E90008093E8009F709093E90080E0089530914E
:103EA000AF03343049F43091EB0035FD05C02150AB
:103EB00041F481E080937D039F709093E9008FEF40
:103EC0000895EFE9FFE03197F1F700C00000CFCF90
:103ED0008FB7F89421E0209382038FBFDBCF84B7A4
:103EE000877F84BF0FB6F894A895809160008861A1
:103EF00080936000109260000FBE80E890E00FB6E3
:103F0000F89480936100909361000FBE0E94311C71
:103F100008950E94BA210E941722E2EEF0E080810B
:103F20008460808378940E949524089582E091E0D3
:103F30000E949F1A08958091AF03853051F481E269
:103F400097E00E948A048091AF03853019F00E94A7
:103F5000AC1C08950E94811C8091AD03882399F3C5
:103F60000E943E1C882379F30E9414200E94260D93
:103F7000EACF08950E94BD1F0895292F33272330CB
:103F8000310521F168F42130310509F443C02230B4
:103F9000310509F444C090E080E030E020E026C024
:103FA0002132310551F122323105A9F76330710513
:103FB00090F7FB01EE0FFF1FE75CFD4F2081318181
:103FC0006A5C7D4FFB01808190E010C099278130B1
:103FD000910581F0009729F00297E9F6E9E3F7E00F
:103FE00002C0EDE7F7E0849190E09F01FA01318390
:103FF00020830895E3E7F7E0F6CF6330710558F6C4
:10400000660F771FFB01E15CFD4F2081318189E064
:1040100090E0ECCF82E190E02CED37E0E7CF8BE54C
:1040200090E021E837E0E2CF80E189BD82E189BDFF
:1040300009B400FEFDCF8091D8008F7D8093D80019
:104040008091E00082608093E0008091E00081FD3B
:10405000FCCF0895AF92BF92CF92DF92FF920F9361
:104060001F93CF93DF936C01EB018A010E9489219A
:10407000F82E811123C00115110539F0F801808156
:104080009181C81BD90BC80ED91EB12CA12C209729
:10409000A9F08091E80085FD22C08091E8008E772C
:1040A0008093E80001151105A1F0F801808191814C
:1040B000A80EB91EB182A08285E0F82E8F2DDF9167
:1040C000CF911F910F91FF90DF90CF90BF90AF9055
:1040D00008950E9489218823D1F2F82EEFCFF601AE
:1040E00081916F018093F1002197FFEFAF1ABF0A12
:1040F000CECFFC018091B6039091B7038617970746
:10410000A0F06115710529F49091E8009E779093D5
:10411000E80090E06115710551F4911108C080919B
:10412000E80082FF34C080E00895BC01F2CF8091A6
:10413000AF038823C1F18530C1F18091E80083FD90
:1041400030C08091E80082FDEACF8091E80080FFD6
:10415000E1CF8091F3002091F200382F61157105B5
:1041600019F02830310558F091E02830310509F078
:1041700090E02091E8002E772093E800CBCF81914A
:104180008093F100615071092F5F3F4FE7CF80911D
:10419000AF03882341F0853041F08091E80083FF30
:1041A000BECF81E0089582E0089583E00895FC0188
:1041B0008091B6039091B70386179707A0F0611519
:1041C000710529F48091E8008E778093E80090E0F3
:1041D0006115710551F4911108C08091E80082FFCA
:1041E00035C080E00895BC01F2CF8091AF038823F1
:1041F000C9F18530C9F18091E80083FD31C080911B
:10420000E80082FDEACF8091E80080FFE1CF809155
:10421000F3002091F200382F6115710519F0283054
:10422000310558F091E02830310509F090E0809197
:10423000E8008E778093E800CBCF84918093F100E3
:104240003196615071092F5F3F4FE6CF8091AF03E8
:10425000882341F0853041F08091E80083FFBDCF95
:1042600081E0089582E0089583E00895982F9730C3
:1042700028F08F708093E90081E008959093E90021
:10428000242F762F50E0981731F07091EC00209198
:10429000ED005091F00021FD02C09F5FE8CF30910A
:1042A000EB003E7F3093EB003091ED003D7F30938B
:1042B000ED003091EB0031603093EB007093EC0037
:1042C0002093ED005093F0002091EE0027FDE5CF04
:1042D00080E008958091B00387FF13C08091E800CB
:1042E00082FF06C08091E8008B778093E80004C0CD
:1042F0008091AF038111F2CF08958091AF0388239D
:10430000D9F38091E80080FFF8CF8091E8008E77A4
:10431000ECCF2091E4003091E50095E6A9012091D1
:10432000EC00822F817020FF06C08091E80080FFA2
:1043300006C080E008952091E80022FD1AC0809117
:10434000AF03882389F0853089F08091EB0085FDEB
:104350000FC02091E4003091E50042175307F9F2B5
:104360009150E1F684E0089582E0089583E0089595
:1043700081E008950E9429220E943122E0EEF0E0BF
:10438000808181608083E8EDF0E080818F77808399
:1043900019BCA7EDB0E08C918E7F8C9380818F7ECD
:1043A00080831092AE0308950F931F93CF93DF93F2
:1043B0000E9429220E943122C8EDD0E088818F77A7
:1043C000888388818068888388818F7D888319BCF1
:1043D0001092AF031092AB031092AD031092AC0396
:1043E00000EE10E0F80180818B7F808388818160FE
:1043F000888342E060E080E00E943621E1EEF0E058
:1044000080818E7F8083E2EEF0E080818160808316
:10441000808188608083F80180818E7F808388819D
:1044200080618883DF91CF911F910F910895E8ED0E
:10443000F0E080818F7E8083E7EDF0E08081816015
:10444000808384E082BF81E08093AE030E94D42108
:104450000895E8EDF0E080818E7F80831092E20085
:1044600008951092DA001092E10008951F920F92C1
:104470000FB60F9211242F933F934F935F936F9337
:104480007F938F939F93AF93BF93EF93FF9380910D
:10449000E10082FF0BC08091E20082FF07C08091A3
:1044A000E1008B7F8093E1000E94F81D8091DA008B
:1044B00080FF19C08091D80080FF15C08091DA007C
:1044C0008E7F8093DA008091D90080FF96C080E1D2
:1044D00089BD82E189BD09B400FEFDCF81E08093F2
:1044E000AF030E94BC1D8091E10080FF19C0809144
:1044F000E20080FF15C08091E2008E7F8093E20091
:104500008091E20080618093E2008091D800806217
:104510008093D80019BC85E08093AF030E94DC1D16
:104520008091E10084FF2BC08091E20084FF27C0CE
:1045300080E189BD82E189BD89B5982F917080FFA6
:10454000FBCF8091D8008F7D8093D8008091E100CF
:104550008F7E8093E1008091E2008F7E8093E20065
:104560008091E20081608093E2008091AB03882318
:1045700009F449C084E08093AF030E94E91D809153
:10458000E10083FF29C08091E20083FF25C0809174
:10459000E100877F8093E10082E08093AF03109277
:1045A000AB038091E1008E7F8093E1008091E20077
:1045B0008E7F8093E2008091E20080618093E20030
:1045C00042E060E080E00E9436218091F000886047
:1045D0008093F0000E94D51DFF91EF91BF91AF91A4
:1045E0009F918F917F916F915F914F913F912F910B
:1045F0000F900FBE0F901F90189519BC1092AF032B
:104600000E94CE1D70CF8091E30087FD93E09093D0
:10461000AF03B3CF1F920F920FB60F9211242F93B7
:104620003F934F935F936F937F938F939F93AF933A
:10463000BF93CF93DF93EF93FF93D091E900DF70A7
:104640008091EC00C82FC17080FDC0E81092E90095
:104650008091F000877F8093F00078940E944E2331
:104660001092E9008091F00088608093F000CD2BDB
:10467000CF70C093E900FF91EF91DF91CF91BF918F
:10468000AF919F918F917F916F915F914F913F91EA
:104690002F910F900FBE0F901F901895AAE2B0E0D7
:1046A000E4E5F3E20C94D12480EB93E02091F10057
:1046B000FC012193CF01F3E0883B9F07B9F70E94EB
:1046C000531E8091E80083FF1EC18091B00390913A
:1046D000B1039A3008F017C1E92FF0E0EB56FA4D1C
:1046E0000C94BC24803899F0823809F00CC1809178
:1046F000B4038F70873008F006C18093E900809181
:10470000EB0085FB882780F91092E90006C08091B4
:10471000AC039091AD03911182609091E800977F76
:104720009093E8008093F1001092F1008091E800EE
:104730008E77E5C0882309F4D3C0823009F0E3C046
:104740008091B2038111D6C08091B4038F702FEF96
:10475000280F263008F0D7C08093E9002091EB00A5
:1047600020FFC8C0933031F48091EB0080628093C9
:10477000EB00C0C09091EB0090619093EB0021E0C2
:1047800030E001C0220F8A95EAF72093EA001092E8
:10479000EA008091EB008860EACF8111B4C01091EB
:1047A000B2031F778091E3008078812B8093E30030
:1047B0008091E800877F8093E8000E946A218091C1
:1047C000E80080FFFCCF8091E30080688093E300E5
:1047D00082E0111183E08093AF0395C0805882304E
:1047E00008F091C08091B2039091B3038C3D23E017
:1047F0009207A1F583E08A838AE289834FB7F89410
:10480000DE01139620E03EE051E2E32FF0E050930A
:104810005700E49120FF03C0E295EF703F5FEF7017
:104820008E2F90E0EA30C0F0C7968D939D932F5F56
:10483000243159F74FBF8091E800877F8093E800CB
:104840006AE270E0CE0101960E9479208091E80032
:104850008B778093E80057C0C096E7CF6091B40390
:104860007091B503AE014F5F5F4F0E94BA1FBC014C
:10487000892B09F448C09091E800977F9093E80055
:1048800089819A810E94D720E1CF8038E1F580911B
:10489000E800877F8093E8008091AB038093F1006C
:1048A00045CF811130C09091B203923060F5809174
:1048B000E800877F8093E8009093AB030E946A2111
:1048C0008091AB03882311F084E005C08091E30060
:1048D00087FDFACF81E08093AF030E94391E13C099
:1048E0008091B203813079F481E0933009F080E067
:1048F0008093AD031092E9008091E800877F809358
:10490000E8000E946A218091E80083FF0AC080913C
:10491000E800877F8093E8008091EB0080628093BD
:10492000EB00AA96E3E00C94ED24CF938091AF03C3
:104930008823A1F0C091E900CF709091EC00892FFD
:10494000817090FD80E8C82B1092E9008091E8000A
:1049500083FD0E944E23CF70C093E900CF9108954C
:10496000991B79E004C0991F961708F0961B881FC1
:104970007A95C9F780950895EE0FFF1F0590F49181
:10498000E02D09942F923F924F925F926F927F9207
:104990008F929F92AF92BF92CF92DF92EF92FF924F
:1049A0000F931F93CF93DF93CDB7DEB7CA1BDB0BFB
:1049B0000FB6F894DEBF0FBECDBF09942A883988A0
:1049C00048885F846E847D848C849B84AA84B984A7
:1049D000C884DF80EE80FD800C811B81AA81B981B3
:1049E000CE0FD11D0FB6F894DEBF0FBECDBFED01C7
:1049F0000895FB01DC0104C08D910190801921F420
:104A000041505040C8F7881B990B0895F999FECF83
:104A100092BD81BDF89A992780B50895A8E1B0E0CC
:104A200042E050E00C943A25262FF999FECF92BD32
:104A300081BDF89A019700B4021639F01FBA20BD63
:104A40000FB6F894FA9AF99A0FBE08950396272F95
:104A50000E9415250E941425252F0E941525242F1C
:104A60000C9415250196272F0E9415250C941425CA
:104A7000DC01CB01FC01F999FECF06C0F2BDE1BD1E
:104A8000F89A319600B40D9241505040B8F708950D
:104A9000F894FFCFE60AE60A170B170BC20B460B7A
:104AA000460B460BDE0B4F0C5E0C5E0CC418AF18A9
:104AB000CB1833186C196C19AA186C196C19F718E3
:104AC0006C19071952196C196C196C196C19261983
:104AD0006C196C1917196C19E2186C196C196A1990
:104AE0006A196A196A196A196A196A196A196A19AE
:104AF00064196C19C418A3186C196C196C196C1909
:104B00006C196C196C196C196C196C1964196C1985
:104B10006C19AA186C196819681968196819681944
:104B20006819681968196819641972239A2383240B
:0E4B30009A238324CD23EE238324452451248D
:104B3E003303421D461DBB1DB61DB11D451D01E2B1
:104B4E0000E900EA00B500B600B700CD008301CC45
:104B5E00008A0192019401210223022402250226D9
:104B6E000227022A02B300B4006F00700081828314
:104B7E00E200E900EA00B500B600B700CD008301FF
:104B8E00CC008A0192019401210223022402250203
:104B9E00260227022A02B300B4006F007000818241
:104BAE00830A092D2056657273696F6E202D0A5681
:104BBE0049443A2030784645454428514D4B2920EA
:104BCE005049443A203078373235372849424D2003
:104BDE0050436A72206B6579626F61726420636FF5
:104BEE006E76657274657229205645523A20307879
:104BFE00303030310A4255494C443A202028417514
:104C0E00672032362032303234290A4F5054494F01
:104C1E004E533A204C5546412045585452414B452F
:104C2E005920434F4E534F4C4520434F4D4D414E0F
:104C3E0044204E4B524F203531320A4743433A20DF
:104C4E00382E352E30204156522D4C4942433A20B3
:104C5E00322E312E30204156525F415243483A2077
:104C6E00617672350A00406D227D081008EE0793BA
:064C7E0007AC07C50700AA
:00000001FF
