:100000000C9469060C9491060C9491060C9491063C
:100010000C9491060C9491060C9491060C94910604
:100020000C9491060C9491060C942B2C0C94FF2CA0
:100030000C9404260C9491060C9491060C94910651
:100040000C9491060C9491060C9491060C949106D4
:100050000C9491060C948B260C9491060C949106AA
:100060000C9491060C9491060C9491060C949106B4
:100070000C9491060C9491060C9491060C949106A4
:100080000C9491060C9491060C9491060C94910694
:100090000C9491060C9491060C9491060C94910684
:1000A0000C9491060C9491060C94910630782530AE
:1000B00034580A0043616C2062696E2025752C203B
:1000C0005468726573686F6C643D25752041737365
:1000D00069676E6D656E74733A0A0043616C204106
:1000E0006C6C205A65726F203D2025752C20436171
:1000F0006C20416C6C204F6E6573203D2025750A85
:1001000000537461636B20757365643A2025642025
:1001100062797465730A0043616C69627261746923
:100120006F6E20746F6F6B3A202575206D730A0017
:1001300020444F4E450A006461635F696E6974280C
:10014000290020444F4E450A0073686966745F6950
:100150006E697428290078776861747369742F69EF
:10016000626D2F6661742F756E6976657273616C4E
:10017000000000000000000000000000000000007F
:10018000000000000000000000000000005300011B
:10019000510000000000000000000000000000000E
:1001A0000000000000000000002A000000290047B5
:1001B000003B0035001E001F002000220023002508
:1001C0000026002D002E00310000000000600061BC
:1001D00000005C2B0014001A00210015001C0024F4
:1001E00000270013002F00310000005F005E005563
:1001F000003C003D0039000400080017000A001808
:1002000000120033003200300000005C005D005638
:10021000003E003F0064001600070009000B000DBF
:10022000000C000F0034002800000000005A005BA2
:100230000040004100E1001D001B001900050010F6
:10024000000E003800E500E500000059006300588A
:100250000042004300E000E20006002C001100E62E
:1002600000360037000000E4000000620062005821
:10027000000000000000000000000000000000007E
:10028000000000000000000000000000000100016C
:10029000000000000000000000000000000000005E
:1002A000000000000000000000010000000100014B
:1002B00000010029003A003B003C003E003F0041A5
:1002C0000042004400450001000000000001000160
:1002D0000029000100010001003D00010001004073
:1002E00000430001000100010000000100010001C5
:1002F00000010001000100010001000100010001F6
:1003000000010001000100010000000100010001E6
:1003100000010001000100010001000100010001D5
:1003200000010001000100010000000000010001C7
:1003300000010001000100010001000100010001B5
:1003400000010001000100010000000100010001A6
:100350000001000100010001000100025101000143
:100360000001000100000001000000010001000187
:10037000000000000000000000000000000000007D
:10038000000000000000000000000000000100016B
:10039000000000000000000000000000000000005D
:1003A000000000000000000000010000000100014A
:1003B0000001000100010001000100010001000135
:1003C0000001000100010001000000000001000127
:1003D0000001000100010001000100005C010001BA
:1003E0000001000100010001000000010001000106
:1003F000000100010001000100DF5C0100010001BB
:1004000000010001000100010000000100010001E5
:10041000000100010001000100015C010001000178
:1004200000010001000100010000000000010001C6
:1004300000010001000100010001000100010001B4
:1004400000010001000100010000000100010001A5
:100450000001000100010001000100010001000194
:100460000001000100000001000000010001000186
:100470000044454255473A2064697361626C656483
:100480002E0A0044454255473A20656E61626C650C
:10049000642E0A000A0025303258006C65645F74CF
:1004A00061736B3A20004F6E6573686F743A207405
:1004B000696D656F75740A004F6E6573686F743A85
:1004C000206163746976653A2025640A006D617461
:1004D000726978207363616E206672657175656EEE
:1004E00063793A20256C750A000A0025303136629E
:1004F000003A200025303258000A722F6320303134
:1005000032333435363738394142434445460A00A0
:100510003F00433E20004C25640A000A092D205369
:100520007461747573202D0A686F73745F6B6579DD
:10053000626F6172645F6C65647328293A202530AC
:1005400032580A6B6579626F6172645F70726F74A2
:100550006F636F6C3A20253032580A6B6579626F91
:100560006172645F69646C653A20253032580A74A0
:10057000696D65725F72656164333228293A20259E
:1005800030386C580A002573000A092D20436F6E1D
:10059000736F6C65202D0A4553432F713A097175AD
:1005A00069740A000A092D204D61676963202D0ACC
:1005B000443A094465627567204D657373616765E8
:1005C00020546F67676C650A583A094D6174726907
:1005D00078204465627567204D6F646520546F67AD
:1005E000676C65202D2053686F77206B657970727A
:1005F000657373657320696E206D6174726978200C
:10060000677269640A4B3A094B6579626F6172647B
:1006100020446562756720546F67676C65202D20E4
:1006200053686F77206B657970726573732072659C
:10063000706F72740A4D3A094465627567204D6F98
:1006400075736520546F67676C650A563A0956657D
:100650007273696F6E0A533A095374617475730A41
:10066000433A09416374697661746520436F6E7320
:100670006F6C65204D6F64650A46312D4631303A06
:100680000953776974636820746F204C61796572CF
:1006900020302D392028463130203D204C30290A89
:1006A000302D393A0953776974636820746F204C90
:1006B0006179657220302D390A47524156453A0911
:1006C00053776974636820746F204C617965722078
:1006D000302028616C7465726E617465290A423A33
:1006E000094A756D7020746F20426F6F746C6F6172
:1006F0006465720A4553433A094A756D7020746FF8
:1007000020426F6F746C6F616465722028616C7435
:1007100065726E617465290A453A095072696E7492
:1007200020454550524F4D2053657474696E677370
:100730000A4241434B53504143453A09436C65617A
:100740007220454550524F4D0A006B65796D6170BE
:100750005F636F6E6669672E7261773A202530326B
:10076000580A2E737761705F636F6E74726F6C5F7F
:10077000636170736C6F636B3A2025750A2E636139
:1007800070736C6F636B5F746F5F636F6E74726FA7
:100790006C3A2025750A2E737761705F6C63746CF8
:1007A0005F6C6775693A2025750A2E737761705FF3
:1007B0007263746C5F726775693A2025750A2E73CF
:1007C0007761705F6C616C745F6C6775693A202546
:1007D000750A2E737761705F72616C745F726775F2
:1007E000693A2025750A2E6E6F5F6775693A202574
:1007F000750A2E737761705F67726176655F6573E6
:10080000633A2025750A2E737761705F6261636BAE
:10081000736C6173685F6261636B73706163653A87
:100820002025750A2E6E6B726F3A2025750A2E737D
:100830007761705F6573636170655F636170736C2E
:100840006F636B3A2025750A0064656275675F63A4
:100850006F6E6669672E7261773A20253032580ACA
:100860002E656E61626C653A2025750A2E6D617485
:100870007269783A2025750A2E6B6579626F61720C
:10088000643A2025750A2E6D6F7573653A202575BB
:100890000A006565636F6E6669673A0A646566613A
:1008A000756C745F6C617965723A2025750A003F3A
:1008B000000A6D6F7573653A206F66660A000A6DEF
:1008C0006F7573653A206F6E0A000A6B6579626F07
:1008D0006172643A206F66660A000A6B6579626F1E
:1008E0006172643A206F6E0A000A6D6174726978F1
:1008F0003A206F66660A000A6D61747269783A2060
:100900006F6E0A000A64656275673A206F66660A50
:10091000000A64656275673A206F6E0A000A0A4A27
:10092000756D70696E6720746F20626F6F746C6F85
:10093000616465722E2E2E2000433E2000436C65BC
:100940006172696E6720454550524F4D0A006861DB
:10095000707469635F636F6E6669672E636F6E7430
:10096000203D2025750A006861707469635F636FBC
:100970006E6669672E636F6E74203D2025750A00D0
:100980006861707469635F636F6E6669672E647710
:10099000656C6C203D2025750A0068617074696380
:1009A0005F636F6E6669672E62757A7A203D2025D7
:1009B000750A006861707469635F636F6E6669676A
:1009C0002E616D706C6974756465203D2025750A13
:1009D000006861707469635F636F6E6669672E6D2E
:1009E0006F6465203D2025750A0068617074696335
:1009F0005F636F6E6669672E6D6F6465203D2025AD
:100A0000750A006861707469635F636F6E66696719
:100A10002E666565646261636B203D2025750A0062
:100A20006861707469635F636F6E6669672E66657F
:100A300065646261636B203D2025750A0068617002
:100A40007469635F636F6E6669672E656E61626C61
:100A500065203D2025750A006861707469635F63D5
:100A60006F6E6669672E656E61626C65203D20253C
:100A7000750A006861707469635F636F6E666967A9
:100A80002E6D6F6465203D2025640A0068617074D6
:100A900069635F636F6E6669672E656E61626C6520
:100AA000203D2025640A006861707469635F636F8C
:100AB0006E66696720656570726F6D0A00536F6CB2
:100AC000656E6F69642064726976657220696E690B
:100AD0007469616C697A65640A000A0025303258CD
:100AE00020006B6579626F6172645F7265706F720E
:100AF000743A20005B735D005B575D005B535D00E3
:100B00005B525D005B445D005B435D002E03700043
:100B1000750072006400650061002E0072006F00B5
:100B20003A0071006D006B005F007800770068008C
:100B30006100740073006900740000001E03490026
:100B400042004D0020004D006F00640065006C0005
:100B500020004600200041005400000076034900B8
:100B600042004D002F0054006F006D002000570020
:100B70006F006E0067002D0043006F0072006E0072
:100B800061006C006C002F006C0069007300740041
:100B90006F0066006F007000740069006F006E00E7
:100BA00073002F006B006D006E006F007600320046
:100BB0003000310037002F005000750072006400D3
:100BC00065006100200041006E0064007200650055
:100BD000690000000403090409026200030100A087
:100BE000FA090400000103010100092111010001BB
:100BF00022400007058103080001090401000203E7
:100C000000000009211101000122220007058203D2
:100C1000200001070503032000010904020002036C
:100C200000000009211101000122220007058403B0
:100C3000200001070504032000011201000200004A
:100C40000008C016DB270100010203010631FF097D
:100C500074A1010975150026FF0095207508810211
:100C60000976150026FF00952075089102C00660E0
:100C7000FF0961A1010962150026FF009520750892
:100C800081020963150026FF00952075089102C0B6
:100C900005010906A101050719E029E7150025014D
:100CA00095087501810295017508810105071900F4
:100CB00029FF150026FF0095067508810005081913
:100CC000012905950575019102950175039101C0F2
:100CD000EC0C11241FBECFEFDAE0DEBFCDBF12E077
:100CE000A0E0B1E0E4E3FFE502C005900D92A4307E
:100CF000B107D9F723E0A4E0B2E001C01D92A43906
:100D0000B207E1F716E0C9E6D6E004C02197FE017C
:100D10000E94C52EC836D107C9F70E944B1C0C94FF
:100D2000672F0C940000FF93EF93E0910402F09181
:100D30000502309709F00995EF91FF910895FC01A4
:100D40008591803011F0EFDFFBCF0895FF27E0E2BF
:100D500030E247FF0CC0419597FF09C0EDE2609576
:100D6000709580959095611D711D811D911D27FFC6
:100D700002C0219530E350E2AA27660F771F881F33
:100D8000991FAA1FA41710F0A41B63955A95A9F7E1
:100D9000AA3008F0A95FA05DAF93F39561157105C6
:100DA0008105910541F7ED3211F4EF93F395F217B8
:100DB00018F43F93F395FBCF8F91B5DFFA95E1F7E8
:100DC0000895E991F9918591803021F0853219F0EB
:100DD000AADFF9CF089520E0E89455915532C1F388
:100DE000503311F4689455915A3348F4505390F3AA
:100DF000220F022E220F220F200D250FF4CF0EF40A
:100E0000219589919991533619F3533729F1533527
:100E100059F1BC0188279927E8945C3621F489911F
:100E2000999168945591543639F446EF7EF077FFE6
:100E30000DC08FEF9FEF0AC055374AE039F05835A3
:100E400040E121F0523642E009F00895FF93EF931C
:100E50007DDFEF91FF91B7CFFF93EF93FC0181917D
:100E60008030B9F360DFFBCFFF93EF9368DFF1CF02
:100E7000DF93CF93CDB7DEB72596A3DFCF91DF9178
:100E800008958E9A869A219A229A8E9A29982A985B
:100E9000089590638E9820E130E097FF0EC02A9A63
:100EA000880F991F299A299821503109B1F78E9AF4
:100EB0008AE28A95F1F700C008952A98F1CF2A981E
:100EC00080E190E0299A29980197E1F78F9A8F980D
:100ED00008950F931F9329988F98EFE0F0E077FF24
:100EE00018C02A9A299A309719F42115310509F466
:100EF0002998660F771F881F991F319780F78F9A5F
:100F0000012B09F48F98452B31F02A9A1F910F91EC
:100F100008952A98E7CF2A98F9CF2FE030E090E0A3
:100F20008217930739F42A9A299A2998215031096E
:100F3000B8F708952A98F8CF229A269A879A219A84
:100F40002E988F9829980E945F078AE28A95F1F778
:100F500000C00895A5E0B0E0E0EBF7E00C94D52EDA
:100F60007B018A010E948D07B7016F5F7F4FFE01F1
:100F7000319680E090E0F894D6B0E9B0F3B0CFB00D
:100F8000D192E192F192C1928F9AD6B0E9B0F3B0CA
:100F9000CFB0D082E082F082C08201968617970798
:100FA000A0F378948F980E945F078AE28A95F1F700
:100FB00000C02C2D30E08E2D83709F2D9071892BD9
:100FC0009D2D92959470892B9E2D96959870892BC6
:100FD0009F2D990F9074892BA901440F551F4072C2
:100FE000842B220F331F220F331F2078822B0115F1
:100FF000110501F15A814B812C8130E09981929544
:101000009470652F6370742F7071672B962B5695B3
:101010005870952B440F4074942BA901440F551F11
:101020004072942B220F331F220F331F2078922BF4
:10103000F80190832596E8E00C94F12EB0E0A0E052
:10104000E4E2F8E00C94CF2E782E662E822E922EBB
:1010500096940FEF1FE0D12CC12CE42EF12CE60169
:10106000C00FD11FD695C795CE010E944907A12C6C
:10107000B12CA8100EC0B914F0F48E010150110962
:10108000C016D10660F3C601CDB7DEB7EEE00C9412
:10109000EB2E50E040E0B701872D0E94AA0790E0B8
:1010A000062C02C0959587950A94E2F781709927DE
:1010B000B80EA394DECF6E019B1428F78FEFC81AE9
:1010C000D80ADECF97E0961B692F9FE0981B892FE7
:1010D0000E941E080895B0E0A0E0E1E7F8E00C945B
:1010E000CB2E462E542EEE24EA942FE0F22E10E062
:1010F00000E037E0332EAA24A394B12C5FE0252E24
:10110000C82ED12CE801CE0DDF1D552051F1D6950A
:10111000C795CE010E944907612C87E0882E912C4B
:10112000712C462D632D681980E00E940E0D892BCD
:1011300039F0C501082C01C0880F0A94EAF7782A13
:1011400081E0881A910868F7822C8618912C9410F7
:101150000AC0639480E16812E0CF511027C08E016D
:101160000FC02196D4CF50E040E0B601882D552025
:1011700089F00E94AA078721B9F08E010F5F1F4FE7
:101180000E151F0508F4BECFC801CDB7DEB7E2E1EA
:101190000C94E72E0E94AA078721871529F07E016B
:1011A00081E0E81AF108ECCF9394D1CF7E01E8CF2B
:1011B000A4E1B0E0EEEDF8E00C94CD2E4AE050E072
:1011C0006FEF70E0CE010B960E94182F4AE050E0BE
:1011D0006FEF70E0CE0101960E94182F41E060E1B0
:1011E00083E00E946B08909308038093070340E01C
:1011F00060E183E00E946B089093F6028093F50211
:1012000020910703309108032115310511F0215079
:101210003109FC0131962E173F0708F49F012E1B60
:101220003F0B6901CC0CDD1C0BEE12E078018AE06B
:10123000A82EB12CC901B5010E94B12E6E0F7F1FDF
:10124000D7016D937D937D012C0D3D1DB5EFEB1600
:10125000B2E0FB0679F7F12CE12CEFE07E2EAA2418
:10126000A394B12CA7E06A2E4E2C572C5E18450192
:101270000E2C02C0880C991C0A94E2F7D12CC12CC8
:10128000442D6C2D80E00E940E0D892B09F46CC05A
:1012900020E143E0662D6C19852D0E941E082091E7
:1012A000EB023091EC02AC01421B530B57FF03C021
:1012B000519541955109EDEEF2E020E031E0619168
:1012C0007191DC01A61BB70BBD01B7FF03C071957F
:1012D000619571096417750710F4AB01232F3F5F07
:1012E000353069F730E0F90153E0EE0FFF1F5A95F2
:1012F000E1F7EC0DFD1DEE0FFF1FE75FFC4F408196
:1013000051814829592951834083220F331FE1E03D
:10131000F0E0EC0FFD1FE20FF31F428553854F3FB6
:10132000540719F04817590740F4E1E0F0E0EC0FDA
:10133000FD1FE20FF31F93878287E1E0F0E0EC0FDF
:10134000FD1FE20FF31F408151814F3F540719F0F9
:101350008417950748F441E050E04C0F5D1F240FBF
:10136000351FD9018D939C93BFEFCB1ADB0AE8E0C0
:10137000CE16D10409F084CFFFEFEF1AFF0A40E147
:10138000E416F10409F070CFFE013B9630E020E056
:101390006FEF7FE0819191918F3F980759F0A1E025
:1013A000B0E0AC0FBD1FA20FB31F4D915C914F3F3A
:1013B0005407B9F4D8018D919C91805A9F4F8115A3
:1013C000B0E19B0798F0D8016D937C930E5F1F4F9F
:1013D0002E5F3F4F2A303105E9F66496E0E10C9428
:1013E000E92E840F951F96958795E7CFD8018D93A9
:1013F0009C93ECCF892B41F05F9A672B39F0769A5A
:10140000452B31F02E9A08955F98F7CF7698F8CF54
:101410002E980895579A6E9A269A50E040E070E010
:1014200060E090E080E00E94FA0989E491E09F93F7
:101430008F930E9438070E949C0782E491E09F935B
:101440008F930E94380787E391E09F938F930E94C8
:1014500038070E94410780E391E09F938F930E9499
:10146000380781B3806381BB85B1806385B98BB157
:1014700083618BB9469A0E94642690935A038093A5
:1014800059030E94D8080E94642620915903309184
:101490005A03821B930B90935A0380935903559AD6
:1014A0005D9A209A289A8DB79EB708960FB6F89441
:1014B0009EBF0FBE8DBF0895CF93DF93C82F0E94AC
:1014C000450ED82F882369F0C2FB442740F9C1FBA1
:1014D000662760F950E070E08C2F817090E00E94E8
:1014E000FA098D2FDF91CF9108950E940A0A08957D
:1014F000CF93DF93A7EFB2E0FC01AC01405F5F4FF9
:1015000080E06D917D91219131916217730709F00F
:1015100081E0ED01229739832883E417F50789F7E5
:10152000DF91CF910895B0E0A0E0E9E9FAE00C94F2
:10153000D02E8091060281117BC00E9470266031FE
:1015400077428105910508F473C080915A038F9307
:10155000809159038F9387E191E09F938F930E942D
:1015600038070E94FB0C9F938F9381E091E09F933B
:101570008F930E9438078091F6028F938091F50235
:101580008F93809108038F93809107038F938BED46
:1015900090E09F938F930E9438070BEE12E099E042
:1015A000E92E93E0F92E8DB79EB70E960FB6F894FC
:1015B0009EBF0FBE8DBFD0E0C0E024EBC22E20E066
:1015C000D22E3CEAA32E30E0B32EF8018081918127
:1015D0000E5F1F4F9F938F93DF93CF93DF92CF9236
:1015E0000E9438070F900F900F900F900F900F9060
:1015F000470188E0782EF40180819181F2E08F0E1E
:10160000911C9F938F93BF92AF920E9438077A9458
:101610000F900F900F900F907110EDCF219620E159
:10162000E20EF11CC530D10581F681E080930602FF
:10163000CDB7DEB7EDE00C94EC2EA4E0B0E0E3E231
:10164000FBE00C94CB2E4C0180E1F40111928A95C1
:10165000E9F72BEEC22E22E0D22E39E0A32E33E0A2
:10166000B32E47E0242E312CF601819191916F0128
:101670000E94490710E000E0FFE0F01BFB830C83B1
:1016800044244394512C002E02C0440C551C0A944F
:10169000E2F73501F12CE12C80E0F3012191319149
:1016A0003F0124213521232BA1F1811109C0AE0175
:1016B0004F5F5F4F63E070E08B810E94AA078A83CF
:1016C00091012E193F09898190E0022E02C0959563
:1016D00087950A94E2F780FD1BC0F701EE0FFF1F0C
:1016E000E80DF91D4A81842F90E002C095958795F9
:1016F0002A95E2F7817099270C8002C0880F991F04
:101700000A94E2F720813181822B932B918380838D
:1017100081E09FEFE91AF90AE8E0EE16F10409F01A
:10172000BCCF0F5F1F4F0031110509F0A5CFF0E1CD
:10173000AF0EB11C45EFC41642E0D40609F094CFB9
:101740002496E2E10C94E72ECF93DF93EC010E9404
:10175000930A80910001882349F0CE010E941D0B5D
:10176000CE010E94780ADF91CF91089580E1FE01B9
:1017700011928A95E9F7F4CFA0E3B0E0E2ECFBE048
:101780000C94D32E8C0142E050E061E171E00E94A4
:10179000022F7C01892B11F580911101909112018A
:1017A0009A83898383E28B83D80112962C911297B6
:1017B000EFEEE20FEE3068F4F0E0E759F04D0C94F4
:1017C000C52E82E28B8382E08C831D821E8285E09F
:1017D0008F8360E2CE0101960E94FF26E096EAE048
:1017E0000C94EF2E82E28B83809100018C83109207
:1017F0000001EFCF82E28B83809100018C8381E036
:1018000080930001E6CF10920001EFE3FCE93197ED
:10181000F1F700C000000E94AF268FE39CE901971A
:10182000F1F700C0000082E28B83D3CF82E28B838A
:10183000CE0181960E941D0B80E1FE01B196DE0172
:10184000149601900D928A95E1F7C3CF82E28B83C3
:1018500085E08C831396EC91F0E0DF01AA0FBB1FAB
:10186000A551BD4F8D919C919E838D8394E0EE0F89
:10187000FF1F9A95E1F7E75FFC4F80E1DE011796C5
:10188000E0CF82E28B831396EC91EB3110F01C8257
:10189000A0CFF0E0EA5AFE4FDE0114969F01235ECE
:1018A0003F4F84918D93882309F493CF31962E175F
:1018B0003F07B9F78ECF82E28B8310E000E06FEF35
:1018C000C8010E94332F0F5F1F4F0F3FB3E01B076C
:1018D000B1F77FCF82E28B83F801D380C480A580EB
:1018E0008E010F5F1F4FB12CEA14FB040CF071CF77
:1018F00028E043E06C2D8D2D0E946208D8011396DC
:101900008C93139714969C9381E08D0D803118F081
:1019100081EF8D0DC3940E5F1F4FB7E0BC1508F427
:1019200058CFEFEFEE1AFE0AD82EDECF82E28B837D
:1019300080E18C8388E08D8394E09E838F83888709
:1019400093E0998791E09A879FEF9B879FE09C8720
:101950008D871E861F86188A3CCF92E29B83139642
:101960006D917D918D919C9116972E31E9F417968A
:10197000EC901797F12C18962C91189730E0199647
:101980000C9110E0A7010E94690783B182FB8827B0
:1019900080F98C8383B1869581708D838FB1881F88
:1019A0008827881F8E8315CF10E000E030E020E00C
:1019B000E9CF82E28B83F801838194810E944907F9
:1019C00008CF82E28B8350E040E070E060E08FEF70
:1019D0000E94AA078C83FDCE8DB79EB790935C03BF
:1019E00080935B03E4E9F3E02AEA8E179F0708F48B
:1019F00008952193FACF80915B0390915C03E4E911
:101A0000F3E020812A3A29F080E09BE08E1B9F0BB7
:101A100008958E179F07C0F33196F3CF8330C0F43B
:101A20006830B0F44031A0F498E0899FF0011124AF
:101A3000E60FF11D84E0EE0FFF1F8A95E1F7E40F3A
:101A4000F11DEE0FFF1FEF58FE4F85919491089501
:101A500081E090E0089581E0089581E008950E947A
:101A60002D0D089508950E94320D0895A5E0B0E06F
:101A7000ECE3FDE00C94DA2E49835A8330910C029A
:101A800089819A81311119C0662399F0222389F046
:101A90000E941313182F682F89819A810E94F012D7
:101AA00069817A81812F0E94601A2596E3E00C9467
:101AB000F62E0E940113182FF3CF0E941313698191
:101AC0007A81F1CFFC01262F40815181628173819F
:101AD00084810E94360D089581E00895CF93DF93AD
:101AE000EC0160E00E94620DBE010E94330DDF91A7
:101AF000CF9108950E94851B08950E94891B089527
:101B000008950E94BB110E94800D2FEF84E39CE09A
:101B1000215080409040E1F700C000000E941C244A
:101B200008950E94810D0E94AF2608950E94810DA4
:101B30000E94C02608950F931F93CF93DF93EC016B
:101B40008B010E947B20811106C080E0DF91CF9144
:101B50001F910F910895B801CE010E942F0D882387
:101B6000A1F3B801CE010E948724882371F3B80144
:101B7000CE010E94E71C882341F3B801CE010E94E8
:101B80002020882311F3F80182818823D9F0CB35F6
:101B9000FDE5DF07A9F170F4C130ECE5DE07B1F037
:101BA000CF3DFCE5DF0721F1C115DC4559F40E946A
:101BB000910DCBCFCD35EDE5DE07F9F020F1C83A38
:101BC000DD45C1F0C8010E942B0DC0CF9091C80225
:101BD000892F8E7F90FF81608093C80280FF05C0AF
:101BE00083E894E00E949F06B0CF81E794E0FACFAB
:101BF0000E9435180E94960DA8CF0E947F17E2CF51
:101C00000E948917DFCF0E948D17DCCFCF93DF931F
:101C1000EC0161E00E94620DBE010E949B0DDF910C
:101C2000CF9108950E94E0250E94570E08950E94CA
:101C30005B0E0E94E5250895829590E09C01220F9D
:101C4000331F220F331F2C7C95958795959587958B
:101C50008373282B30E0C901880F991F8A7A359544
:101C600027952575822B0895CF93DF93D92F0E9456
:101C70001C0EC82F8D2F0E941C0E9C2FDF91CF9120
:101C8000089508950E94410E089581E00895579A9D
:101C90005F986E9A7698269A2E980895CF93C82FBB
:101CA0000E94420E8C2F0E945C0ACF91089580E022
:101CB0000E944E0E08950E94E3240E944E0E089545
:101CC000CF930E94E324C82F809107028C1789F1DB
:101CD000C09307020E947026609308027093090265
:101CE00080930A0290930B028091C80282FF1EC06B
:101CF00080FF1CC08BE994E00E949F068091C8027F
:101D000080FF14C01F92CF9386E994E09F938F9336
:101D10000E9438078091C8020F900F900F900F908B
:101D200080FF04C084E994E00E949F068C2F0E94EB
:101D30004E0ECF910895ABE0B0E0E1EAFEE00C94E6
:101D4000DB2E4F83588769877A878B8761110E94C2
:101D50007E161E821D8285E0FE013796DE011196F9
:101D600001900D928A95E1F780915E0382FF0CC08D
:101D70000E944116882319F082E00E943B170E94BE
:101D8000281681110E94AC168C819D81892B61F4EB
:101D900049815A816B817C818D819E810E947F1552
:101DA0002B96E2E00C94F72E89819A8189238F3F4C
:101DB00079F3CE0101960E946C0D8111E9CFF0CF2D
:101DC000FC01808191810E9445130895CF93C82F13
:101DD0008823E1F08CEF8C0F813AD0F48C2F0E9495
:101DE000DD1F811113C06C2F8091010190910201C0
:101DF0000E947225882329F08C2F0E9416160E94BB
:101E0000BA168C2F0E940E160E94BA16CF91089512
:101E100080E28C0F8830D0F7C77081E001C0880F56
:101E2000CA95EAF70E946116EFCF882339F19CEF3B
:101E3000980F913A28F40E9416160E94BA16089537
:101E400090E2980F983050F4877091E001C0990F9C
:101E50008A95EAF7892F0E946716EFCF9BE5980FC6
:101E6000933028F490E080E00E9434250895885A49
:101E7000873120F490E080E00E944A2508951F9366
:101E8000CF93DF93182FEB010E94E60E209739F4D1
:101E9000812F0E94150FDF91CF911F9108958FE937
:101EA0009FE00197F1F700C000002197EFCF70E0AD
:101EB00060E0893311F460E570E00E943F0F0895FF
:101EC000882321F00E9461160E94BA160895882383
:101ED00021F00E9467160E94BA160895B0E0A0E0B3
:101EE000E4E7FFE00C94D42E6C01D62FC72FFC0141
:101EF000F280058102950F700E945716E82E882304
:101F0000B9F0EF2CFF20A1F08C2F807F803421F0DE
:101F100080E28D0F8830D0F080915E0382FF16C082
:101F200082E00E943B170E94571691E0E82EE926B6
:101F3000BC2EB2948FE0B822FBE0FB1508F468C019
:101F4000EB2DF0E0E958F04D0C94C52EE12CF0CFCC
:101F50001C2F1F70C07F11F01295107FFF2099F089
:101F6000112359F080E28D0F883010F0D11107C095
:101F7000812F0E9461160E94BA168D2F41C0812FB9
:101F80000E947116F8CF8D2F0E94150F112309F4AE
:101F90003FC080E28D0F883010F0D11104C0812F36
:101FA0000E94671603C0812F0E9477160E94BA16FE
:101FB0002FC01C2F1F70C07FC03211F01295107FF0
:101FC000DD2381F0D13009F47FC0FF2009F486C001
:101FD000002309F45AC0F601858180FFCECF8F70AF
:101FE000858353C080915E0382FD34C0FF2059F089
:101FF000112329F0812F0E9461160E94BA1680E0F9
:102000000E94E60E05C080E00E94150F1111C7CF97
:102010002B2D2850330B2430310520F40E94E3246B
:102020000E944E0EEE2089F00E943D1680FD0DC0EC
:10203000F60112820E9437160E944E12C6010E94BB
:1020400087110E9437160E945E12CDB7DEB7E9E015
:102050000C94F02EFF20D9F0011106C00E948116C9
:10206000812B0E94600FD4CF013031F40E94811681
:10207000812B0E949516CCCF053081F70E94AC16BB
:102080000E942516812B0E948816812FEACF01110C
:1020900003C00E94AC1610C0013091F40E945E167D
:1020A000812309F4B5CF0E94AC160E942516912F0A
:1020B000909589230E948816812F0E94670FA8CFD0
:1020C000053009F4A5CFE5CFFF2021F0063008F058
:1020D0009FCFDBCF053008F09BCFEECF002361F31D
:1020E000D93349F4FFEF27EE33E0F1502040304080
:1020F000E1F700C000008D2F0E94150F89CF8C2FB3
:102100008370A1F5F11084CF4D2F4295469547700D
:10211000440F440F2D2F2F7030E0042E02C0220FE9
:10212000331F0A94E2F790E080E0D4FF09C08FE00B
:1021300090E002C0880F991F4A95E2F7809590952C
:10214000C695C695C370822B932BC23049F058F4C4
:10215000C13019F00E941C125BCF0E94131258CF9D
:102160000E94251255CF0E94101252CF8695FF2053
:1021700011F08C2F8170882309F44ACF4D2F42959E
:1021800046954770440F440F2D2F2F7030E0042EDA
:1021900002C0220F331F0A94E2F790E080E0D4FFE0
:1021A00009C08FE090E002C0880F991F4A95E2F7BE
:1021B00080959095C695C695C370822B932BC2309F
:1021C00049F058F4C13019F00E94891221CF0E94C1
:1021D00080121ECF0E9492121BCF0E94341218CF81
:1021E000CF70FF2029F08C2F0E944E128D2F39CFF7
:1021F0008D2F0E94670F8C2F0E945E1209CFD23F55
:1022000041F160F4D03FB9F0D13F81F0FF2009F4F3
:1022100056C00111B2CE8C2F8F711FC0D33F01F178
:10222000D43FA1F780915E0382FD24C08C2F8F7173
:10223000FF2011F312C0FF2041F0053008F0E8CE76
:102240008C2F8F710E947012E3CE063008F0E0CE22
:10225000F7CF8C2F8F71F110CFCF0E944E12D8CEB6
:10226000FF2029F08C2F8F710E944212D1CE0E9444
:102270003D12CECEFF20B9F00E943D16843041F4CD
:102280000E9431178C2F8F710E945E12E12CC0CEFC
:102290000530E0F7CF718C2F0E944E1263E08C2F37
:1022A0000E941317F3CF053030F00E94311764E01D
:1022B0008C2F8F71F5CF81E00E943B17E7CF002371
:1022C00059F0D93309F017CF8FEF97EEE3E0815043
:1022D0009040E040E1F70DCF8C2F8F718DCF0F93A1
:1022E0001F93CF93DF93EC01688179818A810E94EB
:1022F00050138C010E949B120E940F12B801CE0154
:102300000E946E0FDF91CF911F910F910895CF938F
:10231000DF93EC018B819C81892B29F08881998145
:1023200089238F3F51F4DF91CF910895CE010E9410
:102330006F11CE010E946E0DF6CFCE010E94060EE7
:102340008111F4CF0E945716882369F38A8188236C
:1023500051F380915E0382FFE6CF82E00E943B173B
:10236000E2CF0E947E160E94BA1608950E941E16A1
:102370000E94B11108950E946E160E94B611089530
:1023800092959F70963091F058F4925F9F709230C2
:1023900058F4803F19F030F4883E30F481E008951D
:1023A0009A5FF4CF843FD1F380E00895883EB0F384
:1023B000813FD1F7F3CFFC0183819481892B29F0F0
:1023C0008081918189238F3F11F480E0089580817D
:1023D00091810E9445130E94C0110895A5E0B0E0CC
:1023E000E4EFF1E10C94DB2E2596E2E00C94F72E5D
:1023F000A6E0B0E0EEEFF1E10C94DB2E2696E2E0F1
:102400000C94F72E08950E94021208950E94031260
:102410009093500280934F020E94B1110895089545
:102420000E940612089520914F0230915002822B93
:10243000932B0E940612089520914F023091500272
:10244000822393230E940612089520914F02309117
:102450005002822793270E94061208950E940212BA
:1024600008950E942E1208950E94311290934E02F8
:1024700080934D020E94B111089590E080E00E9487
:102480003412089521E030E0A90102C0440F551F25
:102490008A95E2F7CA010E943412089521E030E0E3
:1024A00002C0220F331F8A95E2F780914D0290916E
:1024B0004E02822B932B0E943412089521E030E0CB
:1024C00002C0220F331F8A95E2F720953095809144
:1024D0004D0290914E02822393230E94341208955C
:1024E00021E030E002C0220F331F8A95E2F780918D
:1024F0004D0290914E02822793270E943412089534
:1025000020914D0230914E02822B932B0E94341267
:10251000089520914D0230914E02822393230E9410
:102520003412089520914D0230914E028227932754
:102530000E94341208950895262F277091E001C05B
:10254000990F2A95EAF723E0769567952A95E1F7A2
:10255000660F771F660F771FFA01E60FF71F50E02F
:1025600040E0682F70E08191DF0111979B01042EFC
:1025700002C0369527950A94E2F721702195282705
:10258000292328272C934F5F5F4F4430510559F77B
:102590000895A82FA77023E0969587952A95E1F7CF
:1025A000880F991F880F991FFB01E80FF91F50E052
:1025B00040E080E0219130E00A2E02C03695279558
:1025C0000A94E2F721703327042E01C0220F0A94E7
:1025D000EAF7822B4F5F5F4F4430510559F708955A
:1025E000262F983068F4803158F430E1939FB00181
:1025F0001124680F711D4DE052E0822F0E949C1241
:102600000895983070F4803160F440E1949F900117
:1026100011246DE072E0820F932F911D0E94C91268
:10262000089580E00895B0E0A0E0E9E1F3E10C94C2
:10263000D42E7C0100914D0210914E0280914F02E8
:1026400090915002082B192BCFE0D0E0CC24C394FA
:10265000D12CBC2EC6010C2E02C0880F991F0A94E3
:10266000E2F780239123892B49F4219790F7B12C2D
:102670008B2DCDB7DEB7E9E00C94F02EB7018C2F8F
:102680000E947B1A019789F3F3CFCF93DF93EC017C
:102690000E941313BE010E947B1ADF91CF9108950F
:1026A0001F93CF93DF93EB0190910C02992339F0A4
:1026B000CB010E944513DF91CF911F91089588238C
:1026C00069F0CB010E941313182F682FCE010E94CE
:1026D000F012BE01812F0E947B1AEDCFCB010E9428
:1026E0000113182FF6CF1F93CF93DF93C0915102A0
:1026F00016E0809152028C1304C0DF91CF911F919C
:102700000895D0E01C9FF0011D9FF00D1124ED5A9B
:10271000FD4F4081518162817381848195810E9446
:10272000F8112196C770E5CF409183025091840241
:102730006091850270918602809187029091880253
:102740000E94F81108951F93CF93DF938091880220
:10275000807F09F049C080918502882309F444C034
:1027600080915102C0915202609183027091840263
:10277000A0918602B0918702D62FD72316E0C81702
:1027800099F190E0109711F0DF3F19F401968770EE
:10279000F6CF189F9001199F300D1124F901ED5AC1
:1027A000FD4F41814713F2CF40814613EFCF428165
:1027B0004111ECCF438154814A1B5B0B483C5105CE
:1027C00028F7809188028F70806180938802F901D8
:1027D000E85AFD4F80818F708061808383E892E0AA
:1027E0000E9487110E947313DF91CF911F9108956A
:1027F000A1E1B0E0EEEFF3E10C94D32E8C0185E083
:10280000F801DE011D9601900D928A95E1F7F8011D
:10281000E28083E8C82E82E0D82E60918602709113
:1028200087026115710509F44EC1909183022091D0
:102830008402892F82238F3F09F445C14081518151
:10284000A380B480F0908502F501E61BF70BFF2012
:1028500009F4EAC080918802382F307FE83CF10506
:1028600008F0A3C031116DC0FE2C251316C09413BF
:1028700014C0E11012C08F708061809388020E94A2
:102880009413C6010E94871180918802F801858304
:102890008F2D6196EAE00C94EF2EA114B10429F07B
:1028A000842F85238F3F09F027C180E0F82FF17036
:1028B000DF2E80FF3CC0809151022091520236E011
:1028C000821315C04D875E878D859E850E944513B6
:1028D000292F22952F702230F0F0243018F59F70A8
:1028E000F1F0F8019581907FD1F4D12C1EC090E0D9
:1028F000389FF001399FF00D1124ED5AFD4F618191
:10290000651306C06081641303C06281E6120FC0C4
:1029100001968770D5CF9F7011F0882331F3805EC8
:10292000883018F3C8010E948711FD2CB1CFEE202A
:1029300009F4AECF80918802816080938802F12CE7
:10294000A7CF251306C0941304C0F801EE2009F4A4
:1029500087C0C8010E94DB11882319F1EE2009F11C
:1029600080918802803270F020918302309184023D
:1029700038872F831986BB86AA868C87CE01079657
:102980000E94871186E0F801A3E8B2E001900D9261
:102990008A95E1F70E94A3130E949413FF24F394F5
:1029A00077CFC8010E948711F9CF311113C07A2D5A
:1029B000B98AA88A6E2D89890E94EE1183E892E077
:1029C0000E94871186E0F60111928A95E9F70E942C
:1029D0009413B5CF25130FC094130DC0E1100BC095
:1029E000F8018583C8010E94871186E0F6011192E3
:1029F0008A95E9F74DCFC8010E94DB11882389F23F
:102A0000EE2079F280918802803208F4BBCF2091C9
:102A10008302309184023A8329831B82BD82AC8277
:102A20008E83CE010196ACCFE83CF10508F03EC0A4
:102A3000FE2CEE2009F4B5CF25132AC0941328C02C
:102A40008091880280FD1BC0982F907FC1F0F80113
:102A50008583903F31F0982F907F905F8F70892B06
:102A60008583C8010E94871186E0F801A3E8B2E0DF
:102A700001900D928A95E1F70E94941309CF86E0A8
:102A8000F801A3E8B2E001900D928A95E1F700CF3A
:102A9000C8010E94DB11811175CF8091880281608D
:102AA00080938802C8010E948711F2CE7A2DB98ADC
:102AB000A88A6E2D89890E94EE1186E0F601119296
:102AC0008A95E9F7D9CFEE2009F46BCFC8010E94AF
:102AD000DB11F82E882309F464CF86E0F801A3E81F
:102AE000B2E001900D928A95E1F783E892E00E94AE
:102AF000E00E0E94A313C0CF81E08E25D7CEACE0BC
:102B0000B0E0E5E8F5E10C94DA2E4F835887698749
:102B10007A878B879C87CE0107960E94F8138823BB
:102B200069F08A859B85892B39F04F815885842FE0
:102B300085238F3F09F06BC016E05FC086E0FE0181
:102B40003796DE01119601900D928A95E1F78A85FC
:102B50009B85892B89F38F81988589238F3F61F32A
:102B60002091520230E0C901019687709927409167
:102B700051024817190671F40E94BB1110925202BB
:102B80001092510286E0E3E8F2E0DF011D928A959F
:102B9000E9F7D2CF96E0929FD001939FB00D112418
:102BA000AD5ABD4FFE01319601900D929A95E1F715
:102BB000809352020E947313BFCF819FC0011124E2
:102BC0008D5A9D4F0E94F8138823E9F0E09151023D
:102BD0001E9FF0011124ED5AFD4F40815181628109
:102BE0007381848195810E94F8118091510290E057
:102BF000019687709927809351028091510290919C
:102C000052028913DACF2C96E3E00C94F62E6985F4
:102C10007A858B859C850E94F8118ECF682F8091D4
:102C20000101909102010E94A8250895682F8091CA
:102C30000101909102010E94AB250895809101014C
:102C4000909102010E94AE25089580919602089508
:102C50000E9464262091940230919502821B930B6E
:102C60009C0181E02838334108F480E00895809188
:102C70009302859585958595089580919302877037
:102C800008950E9464262091910230919202821B45
:102C9000930B8838934148F08091930282FB8827F8
:102CA00080F991E089278170089580E0FCCF9091B0
:102CB0009302977081E009F480E008958091A10269
:102CC00008959091A102892B8093A1020895809587
:102CD0009091A10298239093A10208951092A102CD
:102CE00008959091A002892B8093A0020895809569
:102CF0009091A00298239093A00208951092A002B0
:102D0000089580919702089508950E948416089569
:102D100090919602981721F0809396020E94851652
:102D2000089508950E9491160895CF93C82F809119
:102D30005E0382FF0FC0809197028C1759F00E94AA
:102D400064269093950280939402C09397028C2FEF
:102D50000E949216CF91089580919702882349F09E
:102D600010929702109295021092940280E00E94B5
:102D700092160895CF93DF93E0910101F091020143
:102D80008091A1028083E0910101F0910201808194
:102D90009091A002892B808380919702882321F152
:102DA0000E942816882371F08091C80280FF08C015
:102DB00086EA94E09F938F930E9438070F900F90BC
:102DC0000E94AC16E0910101F09102018081909186
:102DD0009702892B808380910101909102010E94CA
:102DE000602581110E94AC16C0910101D0910201B1
:102DF00048E050E069E872E0CE010E94022F892B82
:102E000059F088E0FE01A9E8B2E001900D928A95A0
:102E1000E1F7CE010E94F024DF91CF91089508954B
:102E20000E940F17089590915E0392FF17C098E0DB
:102E3000899F90011124622B609393020E944E128D
:102E40000E94642690939202809391028091930253
:102E50008595859585950E94101708950E944E12BC
:102E6000089510929302109292021092910280E0C3
:102E70000E94101708959091930280958923809362
:102E80009302282F277091F4282F082E000C330B63
:102E90009217130659F090915E0392FF07C0859533
:102EA000859585950E945E120E9431170895CF93F3
:102EB000C82F80915E0382FB992790F99C17E9F057
:102EC000C0FB82F980935E0380915D0390915E0365
:102ED0000E94B41782E00E943B178091C80280FFD5
:102EE0000CC01F92CF9388EB94E09F938F930E9426
:102EF00038070F900F900F900F90CF910895809109
:102F00005E0382FB882780F991E089270E9457178A
:102F1000089581E00E945717089580E00E94571796
:102F2000089590E080E00E942D2F21E0883E9E4F82
:102F300009F020E0822F089582E090E00E941F2F88
:102F4000089583E090E00E941F2F0895CF9384E0BE
:102F500090E00E941F2FC82F82E290E00E941F2F56
:102F6000982F8C2FCF910895CF93C92F682F84E08D
:102F700090E00E94332F6C2F82E290E00E94332F6A
:102F8000CF910895AB01BC018FE090E00E94452FE6
:102F90000895AB01BC0183E190E00E94452F0895A4
:102FA00060E070E0CB010E94C917089560E070E016
:102FB000CB010E94C2170E94D017089568EE7EEFE1
:102FC00090E080E00E94512F60E082E090E00E945B
:102FD000332F60E083E090E00E94332F1092500284
:102FE00010924F0260E084E090E00E94332F64E092
:102FF00082E290E00E94332F60E085E090E00E9442
:10300000332F60E086E090E00E94332F6FEF87E07F
:1030100090E00E94332F40E050E0BA0188E090E059
:103020000E94452F60E08DE090E00E94332F40E049
:1030300050E0BA0188E190E00E94452F60E087E10E
:1030400090E00E94332F40E050E0BA018CE190E024
:103050000E94452F70E060E080E290E00E94512FD6
:103060000E94AC210E94D61708950E94DE17089591
:1030700088E190E00E94272F0895AB01BC0188E110
:1030800090E00E94452F0895682F8EE090E00E9406
:10309000332F08950E9470266093C4027093C50276
:1030A0008093C6029093C7026093C0027093C102DE
:1030B0008093C2029093C3020895CF92DF92EF9261
:1030C000FF928091B8029091B902A091BA02B0919A
:1030D000BB020196A11DB11D8093B8029093B90265
:1030E000A093BA02B093BB020E9470266B017C01D0
:1030F0008091BC029091BD02A091BE02B091BF022E
:10310000A7019601281B390B4A0B5B0BDA01C90199
:10311000883E9340A105B105E0F18091C80280FF8F
:1031200018C08091BB028F938091BA028F938091D7
:10313000B9028F938091B8028F938DEC94E09F93A6
:103140008F930E9438070F900F900F900F900F9061
:103150000F908091B8029091B902A091BA02B091FB
:10316000BB028093B4029093B502A093B602B093D1
:10317000B702C092BC02D092BD02E092BE02F092B1
:10318000BF021092B8021092B9021092BA021092C5
:10319000BB02FF90EF90DF90CF90089508950895BF
:1031A0000E94CF18089508950E94D31808958FE7BC
:1031B00098E20E94D9240E94CE180E94D018089547
:1031C00081E008950E94E0180895089508950E94EE
:1031D000E5180E94E61808950E94661B0E94470E9B
:1031E0000E94012208950E945B260E94D61B0E9425
:1031F000EC188091C80281608093C8020E94D418A4
:103200000895AAE0B0E0E7E0F9E10C94D02E0E9426
:10321000EA1B24EA822E22E0922E640110E0F601DD
:10322000E190F1906F01812F0E948C1B1F5F18307D
:1032300029F0E816F90699F311E005C011E0E81647
:10324000F90609F410E00E945D18111126C00E94D1
:1032500064268C018091A2029091A302081719079D
:10326000A1F08FEF89838A831B820E94642681608C
:10327000782F9D838C8349815A816B818D810E9437
:103280009B0E1093A3020093A2020E94E1200E94D1
:10329000600E2A96EDE00C94EC2E8091C80281FD20
:1032A0000E94951B0E94E218782E10E0812F0E9448
:1032B0008C1B7C01F401A190B1904F018A159B05F4
:1032C00061F1A826BF2400E0CC24C394D12CC50111
:1032D0008C219D21892BC1F07720B1F00E831F83B3
:1032E00021E0C7018C219D21892B09F420E028874A
:1032F0000E9464268160782F9A8789874E815F813A
:1033000068858A850E949B0E0F5FCC0CDD1C003106
:10331000F1F6F4013297F182E0821F5F183031F646
:103320000E944A18B2CFCF93DF930E94801AEC011B
:10333000811523E5920790F5811532E5930708F092
:103340008EC0811540E29407C8F4C11581E0D8070A
:1033500088F4C53AD10548F4C430D10558F4C130D9
:10336000D10541F0D0E0C0E005C0CE01805E9109FA
:103370000897C0F7CE01DF91CF910895811521E51F
:10338000920708F067C0811530E5930708F04EC03A
:103390008115904438F3DF70D06AECCFC11586E513
:1033A000D807F0F4C11525E5D20708F070C0C115A3
:1033B00034E5D30708F066C0CE018370992721E079
:1033C00030E002C0220F331F8A95E2F7C695C695FA
:1033D00040E2C49FE0011124C22BD32BDA68CACF8C
:1033E000C1154AE5D40778F4C11589E5D80708F076
:1033F00059C0C11528E5D20708F4B4CFDC2FCC277B
:10340000C06FD06AB7CFCE0190568115904208F0B8
:10341000A9CF8D2F8F710E94221B90E0982F8827B3
:1034200088279F719C012C2BE9013AC0282F2695F3
:103430002695237040E2249F900111248370C1E0FF
:10344000D0E002C0CC0FDD1F8A95E2F7C22BD32B50
:10345000DD6890CFD82FCC27C16FD06A8BCF837017
:10346000992721E030E002C0220F331F8A95E2F74E
:10347000C695C69580E2C89FE0011124C22BD32BCC
:10348000DC6878CFDC2FCC27C46FD06A73CF8C2F49
:103490000E94221BC82FD0E0DC2FCC27CC27DF7165
:1034A000D06268CF8C2F8F700E94221B34E0D6959B
:1034B000C7953A95E1F7CF709C2FEC01D0695ACFB0
:1034C0007830B0F46031A0F498E0899FF0011124C5
:1034D000E70FF11D84E0EE0FFF1F8A95E1F7E60F7D
:1034E000F11DEE0FFF1FEF58FE4F85919491089547
:1034F00080E090E008950E94601A0E949319089558
:1035000082389105B9F1B0F48133910509F47DC099
:1035100048F48932910509F46DC08A32910509F4A5
:103520007BC008958533910509F45FC08933910507
:1035300009F10895833E9105D9F138F4803E910553
:1035400029F1823E910579F10895863E9105D9F1E0
:10355000873E910509F43EC0843E910541F52091D6
:103560005E0321FF24C080915D0384FD19C087EEB6
:1035700090E0089520915D03237009F05AC02091D6
:103580005E0323FF14C089E290E0089520915D035B
:1035900020FD38C030915E0330FF09C024FF43C0D6
:1035A00090E080E0089520915D0322FDF7CF08951B
:1035B00020915D0322FD3AC030915E0330FD39C099
:1035C00024FFF5CFEDCF20915D0323FFF0CF24FD45
:1035D000E7CFCDCF20915D0323FD2EC030915E0358
:1035E00031FFEECF84EE90E0089520915D0325FF3A
:1035F000DECFC9CF20915D0325FD21C020915E0360
:1036000023FFD5CF89E390E0D2CF20915D0326FF41
:10361000CECF8AE290E0089520915D0326FFC7CFC8
:1036200081E390E0089583EE90E0089582EE90E0CB
:10363000089580EE90E0089586EE90E0089585E389
:1036400090E0089590915D0392FF06C0282F2871A5
:103650002830F9F4877F846093FF06C0282F2871F3
:103660002831F1F4877E846120915E0320FF06C03B
:10367000382F38713830D9F4877F816021FF06C038
:10368000282F28712831D1F4877E816194FD877EAF
:103690000895282F24712430F9F68B7F8860DCCFC1
:1036A000282F2471243101F78B7E8861DDCF382FDC
:1036B0003171313019F78E7F8860E0CF282F21716A
:1036C000213121F78E7E8861E1CF08950E94911704
:1036D000811102C00E9435180E949C178093C80275
:1036E0000E94A61790935E0380935D030E94651B62
:1036F0000E94A11790E00E94101280914D029091BB
:103700004E020E943112089508950E94841B08956C
:1037100008950E94881B0895E82FF0E0EE0FFF1F28
:10372000E159FC4F808191810895B0E0A0E0EBE980
:10373000FBE10C94D52E89EF94E00E949F068FE662
:10374000E82E83E0F82ED0E0C0E094EFC92E94E09C
:10375000D92E0BEE14E0DF93CF93DF92CF920E942D
:10376000380781EF94E00E949F06F70181919191C3
:103770007F010E94340E9F938F931F930F930E949B
:10378000380789EE94E00E949F0621968DB79EB778
:1037900008960FB6F8949EBF0FBE8DBFC830D105F6
:1037A000D1F6CDB7DEB7E8E00C94F12E0E94750A91
:1037B000EFE5F3E0AFE6B3E0119211921D921D9296
:1037C00083E0EF36F807C1F788E00E94FD1B0E94F6
:1037D0007A0D0895CF938FE593E00E94A40B282FD4
:1037E00048E06FE673E08FE593E00E94FE1BC82F70
:1037F0000E947D0D8C2FCF9108950895CF92DF9276
:10380000EF92FF921F93CF93DF936C017B01C42F44
:10381000222349F081E08093CB020E94642690939A
:10382000CA028093C9021091CB0211110AC010E0A4
:10383000812FDF91CF911F91FF90EF90DF90CF907C
:1038400008958091C9029091CA020E947C26059732
:1038500070F3D0E0CC0FDD1FAE01B601C7010E94AE
:10386000022F892B41F0AE01B601C7010E940F2F34
:103870001092CB02DDCF10E0FBCF0E94FB280E940C
:10388000F3180E94082908950E940D290E94011929
:103890000E942B2908950E94FD250E94E1280E9484
:1038A000D7180E943D1C0E94441C0E94E718FBCFC1
:1038B00080930301089590E0FC01E453FD4F2081C3
:1038C00021110AC05A9AFC01E053FD4F1082815326
:1038D0009D4FFC01108208955A98F5CFCF93DF9346
:1038E000C82FD0E08091800382FD06C0FE01E05326
:1038F000FD4F908191111DC0FE01E153FD4F82FFEC
:1039000003C08081811115C0DE01A053BD4F81E04D
:103910008C9380830E946426FE01EE0FFF1FE35309
:10392000FD4F91838083C453DD4F8881882321F02C
:103930005A9ADF91CF9108955A98FBCF80E00E9468
:103940006E1C08958091D002882359F18091CD0298
:103950009091CE020E947C2620910301281719061F
:1039600020F480E00E945B1C08952091800322FFD8
:1039700018C09091CF0282FD0BC0911112C081E05E
:103980008093CF028091CC02882351F05A9A0895F7
:10399000992339F01092CF028091CC028823B1F3A1
:1039A0005A98089581E08093CC025A98529A809157
:1039B000DC02823019F480E00E946E1C0895809130
:1039C000CC02811102C05A9A08955A980895CF9353
:1039D000DF93EC01FB018281882309F464C1C430C8
:1039E000FDE5DF07E0F5CB3F9CE5D90730F49E010C
:1039F00022503C4524313105D8F50E94A6179093FA
:103A00005E0380935D03C231ECE5DE0709F41FC15C
:103A100008F06EC0C9308CE5D80709F4F2C008F090
:103A20003FC0C530ECE5DE0709F4DBC058F5C33014
:103A30008CE5D80709F4CDC008F0CFC080915D03B4
:103A40008160C230DC4509F4AEC080915D03909185
:103A50005E030E94B4170E94BB1180E009C0C63A01
:103A6000EDE5DE0751F238F4C2369DE5D90729F2BB
:103A7000DF91CF9108959E012E5A3D4523303105A7
:103A8000B8F7BBCF80915D038062C730FCE5DF07EC
:103A900009F489C008F4B1C080915D03806483C0DB
:103AA000CD309CE5D90709F4BAC070F480915D036C
:103AB0008E7FCB30FCE5DF0709F475C008F4A7C0A2
:103AC00080915D038D7F6FC0CF309CE5D90709F4ED
:103AD000B6C008F4A8C0C031FCE5DF0709F4B3C0E4
:103AE000C131DC4509F0B1CF80915D038F7B5BC0B4
:103AF000C1159DE5D90709F4B4C098F5CB3FFCE5A5
:103B0000DF0709F472C0B8F4C4319CE5D90709F4A1
:103B1000B6C008F4A2C0C531DC4509F096CF80914B
:103B20005D0382FB992790F921E0922790FB82F9AF
:103B300090FB83F938C0CD3F8CE5D80709F477C0F6
:103B400008F457C0CE3FECE5DE0709F474C080915D
:103B50005E038360CF3FDC4509F077CF80935E033F
:103B600074CFC2368DE5D80709F496C068F4C23028
:103B7000EDE5DE0709F48CC008F477C0C330DD45FD
:103B800009F063CF80E085C0CE3A9DE5D907E9F022
:103B900068F490915D03892F8E7F90FF8160C63A13
:103BA000DD4509F052CF80935D034FCFCF3A8DE5CD
:103BB000D80789F1C03BDD4509F047CF90915E03FE
:103BC000892F877F93FF8860C9CF80915E038860CB
:103BD000C5CF80915D038260E6CF80915D038460F4
:103BE000E2CF80915D038860DECF80915E038160CB
:103BF000B5CF80915E038260B1CF80915D0380611B
:103C0000D2CF0E94BB1180915D038068CCCF8091A0
:103C10005D038C60C8CF80915E03877F9FCF8091CA
:103C20005D038B7FC0CF80915D03877FBCCF809188
:103C30005E038E7F93CF80915E038D7F8FCF8091C7
:103C40005D038F7EB0CF80915D038F7DACCF0E94EE
:103C5000BB1180915D038F77A6CF80915D03837F39
:103C6000A2CF80915E038C7F79CF80915E03982FE5
:103C7000909591708E7F892B90FB81F96FCF0E9478
:103C8000BB1190915D03892F97FB87F980588BCFEB
:103C900081E00E944418D9CE90915D03892F8F7ED8
:103CA00094FF806180CF81E0E3CECF93C82F1F9235
:103CB0008F9386E195E09F938F930E94380781E070
:103CC00090E002C0880F991FCA95E2F70E94101277
:103CD0000E94BB110F900F900F900F90CF910895FD
:103CE000EF92FF920F931F93CF93DF938B3109F4E1
:103CF00010C108F0B0C08B3009F4CCC008F082C00D
:103D0000863009F4DAC048F4853009F4B2C08FEA8D
:103D100098E00E949F0680E0E0C0873009F4E2C08E
:103D20008830A9F70E94A1171F928F9382E998E02B
:103D30009F938F930E9438070E949C1783FB9927BB
:103D400090F91F929F9382FB992790F91F929F935E
:103D500081FB992790F91F929F93982F91701F9242
:103D60009F931F928F9389E498E09F938F930E9473
:103D700038070E94A61793FB222720F91F922F9342
:103D800087FB222720F91F922F9386FB222720F9F9
:103D90001F922F9385FB222720F91F922F9384FBDC
:103DA000222720F91F922F9383FB222720F91F92AD
:103DB0002F9382FB222720F91F922F9391FB22271A
:103DC00020F91F922F93292F21701F922F9381FB8F
:103DD000222720F91F922F93282F21701F922F93B3
:103DE0009F938F938AE497E09F938F930E94380765
:103DF0008DB79EB78A960FB6F8949EBF0FBE8DBF43
:103E000081E06BC0803109F49CC080F48E3009F0F1
:103E10007ECF9091C802892F8B7F92FF8460809320
:103E2000C80282FF8BC08AED98E07FC0863109F41A
:103E300098C0893109F06BCF83E191E09F938F9314
:103E400086E895E09F938F930E9438070F900F901C
:103E50000F900F90D5CF8A3249F190F4873211F14B
:103E600028F48E3108F453CF8D511DC0893209F0EA
:103E70004ECF8DE199E00E949F060E94910DC0CF28
:103E8000833468F48A3308F091C0853359F088335D
:103E900009F03DCF84EA95E00E949F06B1CF8334BC
:103EA00009F035CF80E00E94551EAACF8DE399E03E
:103EB0000E949F060E943518A3CF8091C802807F80
:103EC0008093C80289E895E00E949F0689E399E003
:103ED0000E949F0681E08093D102CDB7DEB7E6E075
:103EE0000C94F32E9091C802892F8E7F90FF8160F1
:103EF0008093C80280FF03C081E199E0CDCF84E0C8
:103F000099E00E949F068091C802817F8093C80239
:103F100077CF9091C802892F8D7F91FF8260809327
:103F2000C80281FF08C087EF98E00E949F06809139
:103F3000C8028160EBCF89EE98E0AECF8AEC98E0C2
:103F4000ABCF9091C802892F877F93FF88608093C1
:103F5000C80283FF03C08EEB98E0E7CF81EB98E0C7
:103F60009BCF0E947026162F072FF82EE92ED09196
:103F7000EA02C09110010E94E324EF92FF920F9396
:103F80001F931F92DF931F92CF931F928F938BE10A
:103F900095E09F938F930E9438078DB79EB70C963C
:103FA0000FB6F8949EBF0FBE8DBF2ACF89537BCF2B
:103FB00080E008950E94D81F0895CF93C82F809164
:103FC000D102882331F0813099F01092D10280E043
:103FD0000DC00E945E168232D1F78C2F0E94D81F2E
:103FE000811119C08C2F0E94701E8170CF9108958D
:103FF0000E945E16823289F38C2F0E94DA1F811193
:1040000019C0C431C9F050F4CB3061F080E195E0C3
:104010000E949F0613C081E090E0E7CFC93261F0B3
:10402000C833A1F789E895E00E949F0682E195E0F8
:104030000E949F0681E0D9CF1092D10280E0D5CFB7
:10404000CF93DF93EB0186319C4511F50E945E16FC
:104050009A81992399F08A7A91E009F490E09093FB
:10406000D202811109C089E20E940E160E94BA167E
:1040700080E0DF91CF91089585E3F6CF8091D20261
:10408000811104C089E20E941616F0CF85E3FBCFB0
:1040900081E0EFCF811522E5920780F48115E1E5FB
:1040A0009E0738F5803E910538F0883E910508F16D
:1040B000905481159041C0F081E011C081152AE52E
:1040C000920770F48115E9E59E0798F481159845EB
:1040D00098F3FB019581907F81E0903551F408952C
:1040E00090568115904240F7FB019581907F81E0C9
:1040F000B1F780E008950F931F93CF93DF938C0166
:10410000EB018A81882361F0F801E75EFC45ED3020
:10411000F10530F4ED57F04D0C94C52E0E9421218D
:104120000E94A123882391F08091DC02823071F4F7
:104130008A818823A9F10E94A523823038F4BE0128
:10414000C8010E944A2081110E94192481E0DF9158
:10415000CF911F910F9108950E944521E1CF0E94B8
:104160006921DECF0E94AC21DBCF0E947D21D8CF18
:104170000E941623D5CF0E948F22D2CF0E94A02268
:10418000CFCF0E946323CCCF0E948223C9CF0E944D
:10419000E723C6CF0E94F123C3CF0E940524C0CFDE
:1041A0000E94A523882391F2CACF80917F0380FFCC
:1041B00006C08091DC02823011F45B9A08955B980E
:1041C00008950E94A21C08958091C80280FF38C003
:1041D00087EA9AE09F938F930E9438078091C802E4
:1041E0000F900F9080FF2CC080917F0381701F92F1
:1041F0008F938CE89AE09F938F930E943807809169
:10420000C8020F900F900F900F9080FF19C08091FF
:104210007F03982F9695969596958091800383704D
:104220008295880F807E892B1F928F9383E79AE077
:104230009F938F930E9438070F900F900F900F90CD
:104240000895CF93DF93CFE7D3E08881816088839F
:104250000E94D520888181701F928F9388E59AE013
:104260009F938F930E94380760917F037091800322
:1042700080918103909182030E943D180F900F90CE
:104280000F900F90DF91CF910895CF93DF93CFE7F9
:10429000D3E088818E7F88830E94D52088818170B9
:1042A0001F928F938DE39AE09F938F930E9438071C
:1042B00060917F03709180038091810390918203CC
:1042C0000E943D180F900F900F900F90DF91CF91AB
:1042D000089580917F0380FF0DC00E944521609169
:1042E0007F037091800380918103909182030E94EB
:1042F0003D1808950E942121F2CF90917F03892FCC
:1043000086958F5F8370880F997F892B80937F03B9
:10431000982F9670963019F4897F80937F0380914F
:104320007F03867091E009F090E01F929F9380E2F6
:104330009AE09F938F930E94380760917F0370915A
:10434000800380918103909182030E943D180F9019
:104350000F900F900F9008950F931F93CF93DF93BB
:10436000CFE7D3E08881816088830E94D52088814F
:10437000897F888300E813E0F80180818770E1E895
:10438000F3E090819C7F9083806A8B7FF80180832B
:1043900084E10E94581C60917F037091800380919A
:1043A0008103909182030E943D18888186958370D5
:1043B0001F928F9383E09AE09F938F930E94380718
:1043C0008881982F969596959695F80180818370AF
:1043D0008295880F807E892B1F928F938AEE99E0B9
:1043E0009F938F930E9438078DB79EB708960FB69C
:1043F000F8949EBF0FBE8DBFDF91CF911F910F919B
:1044000008950E949117811102C00E9435180E94E0
:10441000381860937F037093800380938103909397
:10442000820390918003969596959695809181034D
:1044300083708295880F807E892B0E94581C809102
:104440007F0390918003A0918103B0918203892B17
:104450008A2B8B2B71F080918003982F96959695DF
:1044600096958091810383708295880F807E892B39
:10447000A1F40E94AC210E94D21C8091C80280FF4E
:1044800008C08DEB9AE09F938F930E9438070F909E
:104490000F900E94E420539A08950E94D520EBCFFC
:1044A0000F931F93CF93DF93CFE7D3E0282F220FF3
:1044B000220F220F98819770922B98838295869570
:1044C000837000E813E0F80190819C7F892B808342
:1044D00060917F03709180038091810390918203AA
:1044E0000E943D188881982F969596959695F8018B
:1044F000808183708295880F807E892B1F928F9395
:1045000081ED99E09F938F930E9438070F900F9051
:104510000F900F90DF91CF911F910F91089580918F
:104520007F03982F9695969596958091800383703A
:104530008295880F807E892B8F5F0E94502208957C
:1045400080917F03982F96959695969580918003FC
:1045500083708295880F807E892B81500E94502223
:1045600008950F931F93CF93DF93C1E8D3E0282FD3
:10457000220F220F220F98819770922B988302E8C6
:1045800013E0982F929596959770F8018081887F17
:10459000892B808360917F037091800380918103D8
:1045A000909182030E943D188881982F9695969548
:1045B0009695F80180818295880F807E892B1F92C5
:1045C0008F9383EB99E09F938F930E9438070F900E
:1045D0000F900F900F90DF91CF911F910F91089541
:1045E00091E0811101C090E08091800390FB82F9FD
:1045F0008093800360917F03709180038091810399
:10460000909182030E943D188091800382FB88274D
:1046100080F91F928F938AE999E09F938F930E946C
:1046200038070F900F900F900F900895E0E8F3E097
:10463000908192FB882780F921E0822780FB92F904
:1046400090830E94F02208950F931F93CF93DF93DE
:10465000C0E8D3E0282F220F220F220F98819770F5
:10466000922B988382958695837001E813E0F80178
:1046700090819C7F892B808360917F037091800360
:1046800080918103909182030E943D188881982F28
:10469000969596959695F801808183708295880FFE
:1046A000807E892B1F928F9380E899E09F938F9350
:1046B0000E9438070F900F900F900F90DF91CF91CD
:1046C0001F910F910895CF93DF93C09180038C2F9A
:1046D000869586958695C0918103C370C295CC0F4F
:1046E000C07EC82BC43658F4D0E021968C2F0E948F
:1046F000581C8C2F0E942423DF91CF910895C4E091
:10470000D0E0F4CFCF93DF93C09180038C2F8695B8
:1047100086958695C0918103C370C295CC0FC07EEB
:10472000C82BC53058F0C150DD0B8C2F0E94581C8F
:104730008C2F0E942423DF91CF910895C4E6D0E00E
:10474000F4CF80917F038170089580917F0380FF73
:1047500003C086958370089580E00895E1E8F3E052
:104760008081846080831F9281E08F9387E699E047
:104770009F938F930E94380760917F03709180030D
:1047800080918103909182030E943D180F900F90B9
:104790000F900F900895E1E8F3E080818B7F808394
:1047A0001F921F928EE499E09F938F930E94380787
:1047B00060917F03709180038091810390918203C7
:1047C0000E943D180F900F900F900F9008958091C8
:1047D000810382FF03C00E94CB2308950E94AE2371
:1047E000089580918103982F96959695969580913E
:1047F00082038295880F807E892B883720F4865F1C
:104800000E94B122089588E7FBCF80918103982F01
:10481000969596959695809182038295880F807ED5
:10482000892B843120F08A500E94B122089584E1BE
:10483000FBCF0E949E1C08950E94DF1C08950E94D9
:10484000D520539A08950F931F93CF93DF93C42FCE
:10485000D22FFC0182818823C9F04093D5020E94A7
:1048600064269093D4028093D30280E28C0F883028
:1048700040F4C77081E001C0880FCA95EAF70E9432
:10488000600FDF91CF911F910F9108951091D50284
:10489000141332C08091D3029091D4020E947C26DE
:1048A000883C910548F5C0E2CD0F1D17B9F080E2B4
:1048B000810F883040F4177081E001C0880F1A958D
:1048C000EAF70E94670FC83048F481E09D2F977087
:1048D00001C0880F9A95EAF70E94600F802F0E940E
:1048E000570FC83070F6D77081E001C0880FDA9595
:1048F000EAF70E94670FC5CF80E28C0F883008F678
:10490000C77081E001C0880FCA95EAF7F2CF0F9314
:104910009C01CB01243F4CE5340759F1A8F4293D13
:10492000FCE53F0701F12A3D4CE53407D1F1283D74
:104930003C4591F406E221EE41EE68ED7CE50E94F3
:10494000232480E00F910895263FFCE53F07E9F01E
:10495000B0F0273F3C45F9F0FC018281882339F112
:104960001092D502EFCF07E225EE45EE69ED7CE52A
:10497000E6CF06E221EE40EE64EF7CE5E0CF07E211
:1049800025EE44EE65EF7CE5DACF06E221EE42EE5D
:1049900066EF7CE5D4CF07E225EE46EE67EF7CE5D7
:1049A000CECF08E221E045EE6AED7CE5C8CF81E09C
:1049B000C9CF909305028093040208959093DB027F
:1049C0008093DA020895E091DA02F091DB023097E9
:1049D00029F00190F081E02D0995089580E0089577
:1049E000EF92FF920F931F93CF93DF938C01E0918F
:1049F000DA02F091DB02309791F10280F381E02D31
:104A000009958091C80282FF2AC080FF04C082EE0F
:104A10009AE00E949F06D0E0C0E08CEDE82E8AE08C
:104A2000F82E8091C80280FF0EC0F801EC0FFD1F28
:104A300080811F928F93FF92EF920E9438070F9010
:104A40000F900F900F902196C830D10551F78091AB
:104A5000C80280FF04C08AED9AE00E949F06CDB78D
:104A6000DEB7E6E00C94F32E2091D8023091D90203
:104A70002817390771F09093D9028093D802E091FA
:104A8000DA02F091DB02309721F00680F781E02D09
:104A9000099508952091D6023091D7022817390739
:104AA00071F09093D7028093D602E091DA02F091F0
:104AB000DB02309721F00084F185E02D09950895FF
:104AC0009C012E5F3F4FAC01485F5F4F80E0241791
:104AD000350709F40895F90191919F019923B9F3DC
:104AE0008F5FF5CF662349F0FC013296089621913D
:104AF000261729F0E817F907D1F780E0089581E03B
:104B000008959C01FC0132969FEF80E04191461789
:104B100051F09F3F19F4411101C0982F8F5F8630EB
:104B2000A9F79F3F09F40895290F311D97FD3A9584
:104B3000F90162830895FC013296089621912613AB
:104B400003C0DF0111971C92E817F907B9F7089520
:104B50000E94812508950E949B250895029626E0D3
:104B6000FC0111922A95E9F7089508950E94B52550
:104B70000895CF93C1E08111C2E0C093DC020E948E
:104B80001F248C2F0E94B625CF91089583E0809337
:104B9000DC020E941F2483E00E94B62508950E9433
:104BA000B925089581E08093DC020E941F2481E0F2
:104BB0000E94B62508950E94D2250895089508956B
:104BC0000E94DF250895089508950E94DE25089526
:104BD000CF930E94E3250E94EA1B0E94E425C0E0D7
:104BE0008C2F0E948C1B892B31F4CF5FC830C1F70A
:104BF00080E0CF91089581E0FCCF85B7806885BFC4
:104C000085B7806885BF08951F921FB61F92112433
:104C10008F939F93AF93BF938091DD02811113C057
:104C20008091830390918403A0918503B0918603C2
:104C30004196A11DB11D8093830390938403A0939B
:104C40008503B0938603BF91AF919F918F911F9081
:104C50001FBE1F90189580918B03843031F10E9404
:104C6000120E1092DD0288E190E020E40FB6F89475
:104C7000A895809360000FBE2093600083B7817F6A
:104C8000846083BF83B7816083BF7894889583B73E
:104C90008E7F83BF0FB6F894A895809160008861DD
:104CA00080936000109260000FBE08950E94BB11B7
:104CB0000E94170E089582E084BD93E095BD9AEF9F
:104CC00097BD80936E0008952FB7F8948091830369
:104CD00090918403A0918503B09186032FBF08951E
:104CE0002FB7F894609183037091840380918503BA
:104CF000909186032FBF08959C014FB7F89480913F
:104D0000830390918403A0918503B09186034FBFE4
:104D1000821B930B089578941F921FB61F92112443
:104D20008F939F93AF93BF9380918303909184035C
:104D3000A0918503B09186030196A11DB11D8093BA
:104D4000830390938403A0938503B0938603BF915C
:104D5000AF919F918F911F901FBE1F90189587E76D
:104D600097E7909301088093000888E19AE00FB6D6
:104D7000F894A895809360000FBE90936000FFCFD9
:104D800088E19AE00FB6F894A895809360000FBE72
:104D900090936000FFCF8091E902089508950895EF
:104DA000CF93DF93EC0181E08093E9008FEF909146
:104DB000E800815095FD06C095ED9A95F1F7000049
:104DC0008111F5CF8091E80085FF14C050E040E0EC
:104DD00068E070E0CE010E94D0298091E8008E77D3
:104DE0008093E80088E0FE01A1EEB2E001900D9210
:104DF0008A95E1F7DF91CF91089508950895CF93B3
:104E0000FC01603221F580918B03843001F5C09163
:104E1000E900CF702091EC00922F917020FD90E876
:104E2000C92B82E08093E9008091E80080FF0CC0EC
:104E300050E040E060E270E0CF010E94D029809114
:104E4000E8008E778093E800CF70C093E900CF919F
:104E5000089588E09BE00E949F0680918A0381115B
:104E600009C00E94AF2B0E940C2C8091E20084604C
:104E70008093E200089584E09BE00E949F061092D8
:104E80008A03089580E09BE00E949F060E94D2253D
:104E900008958CEF9AE00E949F066091870381E05D
:104EA000611101C080E00E94C625089588EF9AE054
:104EB0000E949F0690918B0381E0943009F080E07E
:104EC000609187030E94CF2508952091DF022F5F14
:104ED000822F62E30E94A52E992319F02093DF020E
:104EE00008951092DF028091E0028823F1F0809112
:104EF0008B038430C1F49091E9009F702091EC0005
:104F0000822F817020FD80E8892B94E09093E90046
:104F10009091EB0090FF04C09091EE0097FD08C0C7
:104F20008F708093E9001092E00208951092F100D2
:104F30009091E80095FDFACF9091E80090FFF0CFB6
:104F40009091E8009E779093E800EACF42E061EC10
:104F500081E00E942B2B42E261EC82E00E942B2B2D
:104F600042E260EC83E00E942B2B42E261EC84E0A1
:104F70000E942B2B90918B0381E0943009F080E00C
:104F8000609187030E94B925089580918D03833035
:104F900009F461C030F48130D1F1823009F49EC04F
:104FA00008958A3009F48AC08B3009F46FC08930C3
:104FB00009F050C080918C03813209F04BC0809180
:104FC000900390919103892B09F044C08091E800EF
:104FD000877F8093E8008091E80082FF37C090913E
:104FE000F3008091F200029731F48091F10081305A
:104FF00011F0863021F48091F1008093E9028091D4
:10500000E8008B778093E8000E945F2B23C080919B
:105010008C03813AF9F48091E800877F8093E8005F
:105020008091900390919103892B61F468E081EE67
:1050300092E070E00E946E2A8091E8008B77809366
:10504000E800089560E090E080E0F3CF80918B036A
:105050008111C1CF089580918C03813AD9F7809155
:10506000900390919103892BA9F78091E800877FA5
:105070008093E8008091E80080FFFCCF80911001D0
:105080008093F1008091E8008E77BCCF80918C03F3
:10509000813201F78091900390919103892BD1F691
:1050A0008091E800877F8093E8000E945F2B8091C9
:1050B0008E03809310010E94BB11089580918C0390
:1050C000813241F68091E800877F8093E8000E945A
:1050D0005F2B80918F038093EA02089580918C0367
:1050E000813A09F0B7CF8091E800877F8093E8008C
:1050F0008091E80080FFFCCF8091EA02C1CF9FB78A
:10510000F8941092E0029FBF90918B03943009F0C5
:1051100048C02091E9002F703091EC00932F9170DE
:1051200030FD90E8922B24E02093E9002091EB00E1
:1051300020FF34C02091EE0027FF30C02091DE0216
:10514000222321F02091E80025FF28C01092DE02E2
:1051500026E03091E80035FF14C08093F100809183
:10516000E80085FD27C08091E80080FFFCCF80919A
:10517000E8008E778093E8009F709093E90080E0CC
:10518000089530918B03343049F43091EB0035FDB4
:1051900005C0215041F481E08093DE029F7090931E
:1051A000E9008FEF0895EFE9FFE03197F1F700C0D4
:1051B0000000CFCF8FB7F89421E02093E0028FBF9B
:1051C000DBCF84B7877F84BF0FB6F894A895809112
:1051D0006000886180936000109260000FBE80E8DC
:1051E00090E00FB6F89480936100909361000FBE39
:1051F0000E94DB2508950E94AF2B0E940C2CE2EE4A
:10520000F0E080818460808378940E948A2E0895E3
:1052100084E091E00E94DE24089580918B03853024
:1052200051F484EF9AE00E949F0680918B038530B1
:1052300019F00E94562608950E942B26809189031A
:10524000882399F30E94E825882379F30E94BA29DC
:105250000E94BB11EACFA0E2B0E0E1E3F9E20C94D6
:10526000DB2E80918B03843009F583E08093E90085
:105270008091E80082FF1AC08091E80090E085FFED
:1052800009C050E040E060E270E0CE0101960E946B
:105290001F2A91E08091E8008B778093E8009923A2
:1052A00029F060E2CE0101960E94BC0BA096E2E0DC
:1052B0000C94F72E0E945D290895292F332723305F
:1052C000310521F168F42130310509F449C022305B
:1052D000310509F44AC090E080E030E020E029C0C8
:1052E0002132310581F122323105A9F76330710590
:1052F00090F7FB01EE0FFF1FE850FE4F2081318138
:105300006B507E4FFB01808190E013C09927813064
:10531000910599F0009741F08230910589F003974B
:10532000D1F6ECE0FBE002C0E4EDFBE0849190E01C
:105330009F01FA01318320830895ECE5FBE0F6CF6D
:10534000ECE3FBE0F3CF6330710528F6660F771FBF
:10535000FB01E250FE4F2081318189E090E0E9CFEE
:1053600082E190E02AE33CE0E4CF82E690E028EDA1
:105370003BE0DFCF80E189BD82E189BD09B400FE59
:10538000FDCF8091D8008F7D8093D8008091E00080
:1053900082608093E0008091E00081FDFCCF089561
:1053A000AF92BF92CF92DF92FF920F931F93CF9352
:1053B000DF936C01EB018A010E947E2BF82E811194
:1053C00023C00115110539F0F80180819181C81BB6
:1053D000D90BC80ED91EB12CA12C2097A9F0809111
:1053E000E80085FD22C08091E8008E778093E80078
:1053F00001151105A1F0F80180819181A80EB91E57
:10540000B182A08285E0F82E8F2DDF91CF911F9180
:105410000F91FF90DF90CF90BF90AF9008950E94C2
:105420007E2B8823D1F2F82EEFCFF60181916F0108
:105430008093F1002197FFEFAF1ABF0ACECFAF9252
:10544000BF92CF92DF92FF920F931F93CF93DF9380
:105450006C01EB018A010E947E2BF82E811123C082
:105460000115110539F0F80180819181C81BD90B14
:10547000C80ED91EB12CA12C2097A9F08091E8006C
:1054800085FD22C08091E8008B778093E8000115AC
:105490001105A1F0F80180819181A80EB91EB18299
:1054A000A08285E0F82E8F2DDF91CF911F910F9173
:1054B000FF90DF90CF90BF90AF9008950E947E2B19
:1054C0008823D1F2F82EEFCF8091F100F60181937D
:1054D0006F012197FFEFAF1ABF0ACECFFC01809179
:1054E00092039091930386179707A0F061157105B9
:1054F00029F49091E8009E779093E80090E0611580
:10550000710551F4911108C08091E80082FF34C008
:1055100080E00895BC01F2CF80918B038823C1F114
:105520008530C1F18091E80083FD30C08091E800B2
:1055300082FDEACF8091E80080FFE1CF8091F30007
:105540002091F200382F6115710519F028303105CE
:1055500058F091E02830310509F090E02091E80002
:105560002E772093E800CBCF81918093F10061509A
:1055700071092F5F3F4FE7CF80918B03882341F064
:10558000853041F08091E80083FFBECF81E008952F
:1055900082E0089583E00895FC0180919203909148
:1055A000930386179707A0F06115710529F4809180
:1055B000E8008E778093E80090E06115710551F462
:1055C000911108C08091E80082FF35C080E0089505
:1055D000BC01F2CF80918B038823C9F18530C9F1DA
:1055E0008091E80083FD31C08091E80082FDEACF20
:1055F0008091E80080FFE1CF8091F3002091F200DC
:10560000382F6115710519F02830310558F091E0F7
:105610002830310509F090E08091E8008E77809382
:10562000E800CBCF84918093F100319661507109ED
:105630002F5F3F4FE6CF80918B03882341F0853069
:1056400041F08091E80083FFBDCF81E0089582E0C2
:10565000089583E00895982F973028F08F708093F5
:10566000E90081E008959093E900242F762F50E01F
:10567000981731F07091EC002091ED005091F000FE
:1056800021FD02C09F5FE8CF3091EB003E7F309359
:10569000EB003091ED003D7F3093ED003091EB0059
:1056A00031603093EB007093EC002093ED00509349
:1056B000F0002091EE0027FDE5CF80E00895809175
:1056C0008C0387FF13C08091E80082FF06C08091A1
:1056D000E8008B778093E80004C080918B038111F0
:1056E000F2CF089580918B038823D9F38091E8004D
:1056F00080FFF8CF8091E8008E77ECCF2091E40016
:105700003091E50095E6A9012091EC00822F81708F
:1057100020FF06C08091E80080FF06C080E0089569
:105720002091E80022FD1AC080918B03882389F024
:10573000853089F08091EB0085FD0FC02091E40059
:105740003091E50042175307F9F29150E1F684E0F9
:10575000089582E0089583E0089581E008950E940D
:105760001E2C0E94262CE0EEF0E080818160808378
:10577000E8EDF0E080818F77808319BCA7EDB0E081
:105780008C918E7F8C9380818F7E808310928A0390
:1057900008950F931F93CF93DF930E941E2C0E94B6
:1057A000262CC8EDD0E088818F7788838881806837
:1057B000888388818F7D888319BC10928B03109217
:1057C0008703109289031092880300EE10E0F8011D
:1057D00080818B7F808388818160888342E060E064
:1057E00080E00E942B2BE1EEF0E080818E7F8083B1
:1057F000E2EEF0E080818160808380818860808338
:10580000F80180818E7F8083888180618883DF9129
:10581000CF911F910F910895E8EDF0E080818F7E88
:105820008083E7EDF0E080818160808384E082BF47
:1058300081E080938A030E94C92B0895E8EDF0E08F
:1058400080818E7F80831092E20008951092DA00AA
:105850001092E10008951F920F920FB60F9211243B
:105860002F933F934F935F936F937F938F939F9368
:10587000AF93BF93EF93FF938091E10082FF0BC042
:105880008091E20082FF07C08091E1008B7F8093CE
:10589000E1000E9465278091DA0080FF19C08091A5
:1058A000D80080FF15C08091DA008E7F8093DA00E7
:1058B0008091D90080FF96C080E189BD82E189BDD9
:1058C00009B400FEFDCF81E080938B030E9429275D
:1058D0008091E10080FF19C08091E20080FF15C037
:1058E0008091E2008E7F8093E2008091E2008061EF
:1058F0008093E2008091D80080628093D80019BC28
:1059000085E080938B030E9449278091E10084FF0A
:105910002BC08091E20084FF27C080E189BD82E135
:1059200089BD89B5982F917080FFFBCF8091D800F9
:105930008F7D8093D8008091E1008F7E8093E1007D
:105940008091E2008F7E8093E2008091E20081608E
:105950008093E20080918703882309F449C084E0A2
:1059600080938B030E9456278091E10083FF29C01A
:105970008091E20083FF25C08091E100877F8093C2
:10598000E10082E080938B03109287038091E10015
:105990008E7F8093E1008091E2008E7F8093E20011
:1059A0008091E20080618093E20042E060E080E06C
:1059B0000E942B2B8091F00088608093F0000E9461
:1059C0004227FF91EF91BF91AF919F918F917F916E
:1059D0006F915F914F913F912F910F900FBE0F905C
:1059E0001F90189519BC10928B030E943B2770CF13
:1059F0008091E30087FD93E090938B03B3CF1F92D8
:105A00000F920FB60F9211242F933F934F935F93F2
:105A10006F937F938F939F93AF93BF93CF93DF93B6
:105A2000EF93FF93D091E900DF708091EC00C82FD5
:105A3000C17080FDC0E81092E9008091F000877F7E
:105A40008093F00078940E94432D1092E900809199
:105A5000F00088608093F000CD2BCF70C093E900F8
:105A6000FF91EF91DF91CF91BF91AF919F918F9176
:105A70007F916F915F914F913F912F910F900FBE4A
:105A80000F901F901895AAE2B0E0E9E4FDE20C94B3
:105A9000DA2E8CE893E02091F100FC012193CF01F4
:105AA000F3E084399F07B9F70E94C5278091E80089
:105AB00083FF1EC180918C0390918D039A3008F072
:105AC00017C1E92FF0E0E057F04D0C94C52E803857
:105AD00099F0823809F00CC1809190038F70873063
