:100000000C9457060C949E060C949E060C949E0627
:100010000C949E060C949E060C949E060C949E06D0
:100020000C949E060C949E060C94A6280C946228B0
:100030000C949E060C949E060C949E060C949E06B0
:100040000C949E060C94FC310C949E060C949E0617
:100050000C949E060C943C320C949E060C949E06C6
:100060000C949E060C949E060C949E060C949E0680
:100070000C949E060C949E060C949E060C949E0670
:100080000C949E060C949E060C949E060C949E0660
:100090000C949E060C949E060C949E060C949E0650
:1000A0000C949E060C949E060C949E060631FF0945
:1000B00074A1010975150026FF00952075088102BD
:1000C0000976150026FF00952075089102C00501EC
:1000D0000902A10185020901A100050919012905EB
:1000E00015002501950575018102950175038101B2
:1000F0000501093009311581257F950275088106B2
:1001000009381581257F950175088106050C0A3887
:10011000021581257F950175088106C0C00501097A
:1001200080A101850319012AB700150126B70095A2
:100130000175108100C0050C0901A1018504190198
:100140002AA002150126A002950175108100C005A4
:10015000010906A1018505050719E029E715002514
:10016000019508750181020507190029EF15002581
:100170000195F0750181020508190129059505759C
:10018000019102950175039101C00660FF0961A10B
:10019000010962150026FF00952075088102096398
:1001A000150026FF00952075089102C0050109067B
:1001B000A101050719E029E715002501950875013A
:1001C00081029501750881010507190029FF1500B5
:1001D00026FF009506750881000508190129059577
:1001E0000575019102950175039101C000000000A1
:1001F00000000000000000000000000000000000FF
:100200007E0F00D4FFFFFFC7000000780000000051
:10021000000000002A2B2800000000000000000061
:100220000000000000000029000000002C1E342007
:10023000212224342627252E362D3738271E1F202D
:100240002122232425263333362E37381F04050672
:100250000708090A0B0C0D0E0F10111213141516B6
:100260001718191A1B1C1D2F3130232D35040506B4
:100270000708090A0B0C0D0E0F1011121314151696
:100280001718191A1B1C1D2F3130354C30782530AA
:1002900033580A0043616C2062696E2025752C205A
:1002A0005468726573686F6C643D25752041737383
:1002B00069676E6D656E74733A0A0043616C204124
:1002C0006C6C205A65726F203D2025752C2043618F
:1002D0006C20416C6C204F6E6573203D2025750AA3
:1002E0000043616C6962726174696F6E20746F6F34
:1002F0006B3A202575206D730A006861707469631C
:100300005F636F6E6669672E656E61626C65203D26
:100310002025750A006861707469635F636F6E669B
:1003200069672E656E61626C65203D2025750A0047
:100330006861707469635F636F6E6669672E6D6F65
:100340006465203D2025750A006861707469635FEB
:10035000636F6E6669672E666565646261636B20B4
:100360003D2025750A006861707469635F636F6E74
:100370006669672E6D6F6465203D2025750A0068EB
:1003800061707469635F636F6E6669672E616D701B
:100390006C6974756465203D2025750A006861707C
:1003A0007469635F636F6E6669672E6477656C6CF2
:1003B000203D2025750A0064796E616D6963206DAA
:1003C0006163726F3A20736C6F7420256420706CC7
:1003D00061796261636B0A0064796E616D696320A3
:1003E0006D6163726F3A20736C6F742025642073A3
:1003F000617665642C206C656E6774683A202564AC
:100400000A0064796E616D6963206D6163726F3A91
:10041000207472696D6D696E672061207472616904
:100420006C696E67206B65792D646F776E206576D9
:10043000656E740D0A006861707469635F636F6E46
:100440006669672E666565646261636B203D202581
:10045000750A006861707469635F636F6E666967CF
:100460002E62757A7A203D2025750A004B4C3A2081
:100470006B633A203078253034582C20636F6C3A07
:100480002025752C20726F773A2025752C207072EC
:1004900065737365643A202531752C2074696D6528
:1004A0003A2025752C20696E746572727570743AE5
:1004B000202531752C20636F756E743A2025750ADE
:1004C000003A706570655F6B696E675F726F796126
:1004D0006C3A010128003A736D696C65795F73703D
:1004E00069745F7375727072697365643A0101288B
:1004F000003A736D696C65795F7469705F666564F5
:100500006F72613A010128003A736D696C65795F19
:1005100074616B656D6F6E65793A010128003A640C
:10052000726F6F6C696E675F666163653A0101287F
:10053000003A68656172743A010128003A736D6986
:100540006C65795F6361745F66616E63793A01011E
:1005500028003A736D696C65795F6361745F7370CD
:10056000616E6973683A010128003A73757270729E
:10057000697365643A010128003A6F6F663A0101B8
:1005800028003A746869733A010128000102E07694
:100590000103E0000102E0630103E0000102E078F2
:1005A0000103E0000102E07A0103E0000102E066DD
:1005B0000103E0000102E0640103E0000102E073D6
:1005C0000103E0000102E0610103E00001015300CA
:1005D000290028000102E201012B0103E200303072
:1005E000000102E0770103E0000102E201013D01A8
:1005F00003E2000102E00102E2740103E20103E010
:10060000000102E00102E2670103E20103E00001F0
:1006100002E00102E20101290103E20103E000011D
:1006200002E00102E50101290103E50103E0000107
:10063000013B0102E0760103E00001013B0102E021
:1006400061780103E00001013B0102E06163010305
:10065000E0000102E30102E1730103E10103E300B1
:100660000102E3650103E3000102E3640103E30027
:100670000102E301012B740103E3000102E3010223
:10068000E00101500103E00103E3000102E3010284
:10069000E001014F0103E00103E30054455354001E
:1006A00044454255473A2064697361626C65642E23
:1006B0000A0044454255473A20656E61626C6564A4
:1006C0002E0A006164645F6B65795F6269743A2029
:1006D00063616E2774206164643A20253032580AC1
:1006E0000064656C5F6B65795F6269743A20636171
:1006F0006E27742064656C3A20253032580A000A4F
:10070000002530325820006B6579626F6172645F3A
:100710007265706F72743A2000290A002575002FE7
:10072000002575005D280025640020002564002058
:100730000025640020002564007C0025303258002C
:100740006D6F7573656B6579205B62746E7C782064
:1007500079207620685D287265702F61636C293A74
:10076000205B00000000000000000000000001020B
:1007700004060A0F17202C3A4A5D71879DB3C7DA29
:10078000E9F5FCFFFCF5E9DAC7B39D87715D4A3AEC
:100790002C20170F0A0604020100000000000000D0
:1007A00000000020444F4E450A006461635F696E9B
:1007B000697428290020444F4E450A007368696611
:1007C000745F696E69742829006861707469635F79
:1007D000636F6E6669672E6D6F6465203D202564CA
:1007E0000A006861707469635F636F6E6669672E83
:1007F000656E61626C65203D2025640A0068617049
:100800007469635F636F6E666967206570726F6D90
:100810000A00536F6C656E6F696420647269766557
:100820007220696E697469616C697A65640A000A8C
:10083000002530313662003A200025303258000A57
:10084000722F6320303132333435363738394142F4
:10085000434445460A000A0025303258006B65794A
:10086000626F6172645F7365745F6C65643A2000E7
:100870005B735D004B6579626F61726420737461B4
:1008800072742E0A005B435D005B445D005B535D48
:10089000005B575D005B525D0009027B00040100B4
:1008A000A0FA09040000010301010009211101005F
:1008B000012240000705810308000A090401000223
:1008C0000300000009211101000122220007058216
:1008D00003200001070503032000010904020001B1
:1008E0000300000009211101000122BC000705845A
:1008F0000320000A0904030002030000000921117B
:1009000001000122220007058503200001070505DB
:100910000320000112011001000000088104020000
:100920000100010203010403300000003A03490002
:1009300042004D0020004D006F00640065006C0017
:10094000200046002000580054002F00420069009B
:10095000670066006F006F007400200046005800BA
:10096000540061006C000000860354006F006D00AD
:10097000200057006F006E0067002D0043006F00DD
:1009800072006E0061006C006C002F0041006C0072
:100990006500630074006100720064007900390032
:1009A00038002F005000750072006400650061007F
:1009B000200041006E0064007200650069002F0095
:1009C0006B006D006E006F00760032003000310069
:1009D00037002F006C006900730074006F00660020
:1009E0006F007000740069006F006E0073000000FB
:1009F0000403090464796E616D6963206D6163723B
:100A00006F207265636F7264696E673A20737461F8
:100A1000727465640D0A0064796E616D6963206D9E
:100A20006163726F3A20736C6F74202564206C656B
:100A30006E6774683A2025642F25640A0064796E15
:100A4000616D6963206D6163726F3A2069676E6FD3
:100A500072696E672061206C656164696E67206BE6
:100A600065792D7570206576656E740D0A00125DCE
:100A70001E001F0021002300240026002D002E0050
:100A80002A0001535500290035001A0020002200D9
:100A90001C00250027003000240054005600075D8C
:100AA0002B001400080017001800120013002F007C
:100AB000310025002600065D3900160007001500EC
:100AC0000D000C00330001002100220057000D5DD5
:100AD000E1000400060009000B000E000F003400C6
:100AE00028001F0023000E5D115D01001B000A009D
:100AF000110036003800E5001E00200067000F5D81
:100B0000E0001D002A001900050010003700510008
:100B1000520063002A000A5D095D0251E2000100F3
:100B20002C00E600E40050004F00270058000100B0
:100B300001000100010001000100010001000100AD
:100B4000010001000100010001000100010001009D
:100B50000100010001000100490001000100010045
:100B6000010001000100010001000100010001007D
:100B700001004A004B0001000100010001000100DA
:100B800001000100010001004C004D0001000100C6
:100B9000010001000100010001000100010001004D
:100BA000010001004E0001000100010001000100F0
:100BB000010001000100010001000100010001002D
:100BC000010001000100010001000100010001001D
:100BD000010001000100010001000100010001000D
:100BE0000100010001000100010001000100015CA1
:100BF0003A003B003D003F004000420044004500F9
:100C00004C0001000100005C2900245D3C003E0016
:100C1000285D410043000100010001000100045D66
:100C20000100235D255D275D295D2B5D2C5D0100A5
:100C300001000B5D0100035DE0001C5D1D5D265D94
:100C400001002A5DAA0001000A5D155D0100010096
:100C500001001B5D215D1E5D010001000100A90076
:100C600001000C5D095D010001000100205D010033
:100C70000100AC00AE000100010001000100010014
:100C8000E3001F5D0100225D01000100AB000C5D6F
:100C90000B5D0100010001000100010001000100E5
:100CA0000100010001000A5D095D0100010011243D
:100CB0001FBECFEFDAE0DEBFCDBF04B603FE27C014
:100CC0008091360690913706A0913806B09139068A
:100CD0008730904BA740B04BD1F41092360610925B
:100CE0003706109238061092390614BE84B7877FF3
:100CF00084BF0FB6F894A8958091600088618093B6
:100D00006000109260000FBEE0E0F8E3099511E08A
:100D1000A0E0B1E0E2EBF6E602C005900D92AC383F
:100D2000B107D9F726E0ACE8B1E001C01D92A633C7
:100D3000B207E1F70E94FA290C94FF320C940000EC
:100D4000FF93EF93E0918C01F0918D01309709F0C2
:100D50000995EF91FF910895FC018591803011F084
:100D6000EFDFFBCF0895FF27E0E230E247FF0CC042
:100D7000419597FF09C0EDE260957095809590953B
:100D8000611D711D811D911D27FF02C0219530E35A
:100D900050E2AA27660F771F881F991FAA1FA41762
:100DA00010F0A41B63955A95A9F7AA3008F0A95F23
:100DB000A05DAF93F395611571058105910541F72C
:100DC000ED3211F4EF93F395F21718F43F93F39586
:100DD000FBCF8F91B5DFFA95E1F70895E991F9918D
:100DE0008591803021F0853219F0AADFF9CF08957E
:100DF00020E0E89455915532C1F3503311F46894D2
:100E000055915A3348F4505390F3220F022E220F7B
:100E1000220F200D250FF4CF0EF421958991999181
:100E2000533619F3533729F1533559F1BC0188274B
:100E30009927E8945C3621F48991999168945591A9
:100E4000543639F446EF7EF077FF0DC08FEF9FEFF9
:100E50000AC055374AE039F0583540E121F05236A2
:100E600042E009F00895FF93EF937DDFEF91FF914A
:100E7000B7CFFF93EF93FC0181918030B9F360DF2E
:100E8000FBCFFF93EF9368DFF1CFDF93CF93CDB725
:100E9000DEB72596A3DFCF91DF910895E8EDF0E06E
:100EA00080818E7F80831092E2001092DA0010928F
:100EB000E100A0EEB0E08C9181608C9380818F770F
:100EC000808319BCA7EDB0E08C918E7F8C938081DC
:100ED0008F7E80831092030608952091E400309164
:100EE000E50095E6A9012091EC00822F817020FF9A
:100EF00006C08091E80080FF06C080E00895209140
:100F0000E80022FD1AC080912906882389F08530E7
:100F100089F08091EB0085FD0FC02091E4003091B5
:100F2000E50042175307F9F29150E1F684E0089585
:100F300082E0089583E0089581E00895EF92FF92A2
:100F40000F931F93CF937C018B010E946D07C82FD5
:100F5000811117C08091E80085FD0BC08091E800E9
:100F60008E778093E8000E946D07882399F3C82F3D
:100F700008C0F70181917F018093F10001501109B0
:100F800049F78C2FCF911F910F91FF90EF9008950B
:100F900080912B0687FF13C08091E80082FF06C076
:100FA0008091E8008B778093E80004C08091290647
:100FB0008111F2CF0895809129068823D9F3809179
:100FC000E80080FFF8CF8091E8008E77ECCF982F73
:100FD0009093E900242F762F50E0891731F070911B
:100FE000EC002091ED005091F00021FD07C09F5FC3
:100FF000973071F78093E90081E008953091EB001C
:101000003E7F3093EB003091ED003D7F3093ED005B
:101010003091EB0031603093EB007093EC00209343
:10102000ED005093F0002091EE0027FDE0CF80E02E
:101030000895CF92DF92EF92FF920F931F93CF9379
:10104000DF93C8EDD0E088818F7E8883E7EDF0E004
:1010500080818160808384E082BF81E08093030689
:1010600088818E7F888302EE10E0F8011082109252
:10107000DA0081EEC82ED12CF601108288818F779C
:10108000888388818068888388818F7D888319BC64
:101090001092290610922A06109227061092260610
:1010A00090EEE92EF12CF70180818B7F808388817F
:1010B0008160888342E060E080E00E94E707F601FB
:1010C00080818E7F8083F801808181608083808130
:1010D00088608083F70180818E7F80838881806132
:1010E0008883DF91CF911F910F91FF90EF90DF9058
:1010F000CF900895FC0180913106909132068617B9
:101100009707A0F06115710529F49091E8009E778A
:101110009093E80090E06115710551F4911108C0B9
:101120008091E80082FF34C080E00895BC01F2CFD6
:10113000809129068823C1F18530C1F18091E800B2
:1011400083FD30C08091E80082FDEACF8091E80005
:1011500080FFE1CF8091F3002091F200382F6115DC
:10116000710519F02830310558F091E0283031052B
:1011700009F090E02091E8002E772093E800CBCF93
:1011800081918093F100615071092F5F3F4FE7CF4C
:1011900080912906882341F0853041F08091E80054
:1011A00083FFBECF81E0089582E0089583E0089533
:1011B00080912906843011F482E0089581E0089539
:1011C00080910506089590919205803F41F48091A9
:1011D000930587FD10929305992371F00895813F3F
:1011E00029F4809193051816ACF3F6CF823F81F471
:1011F00097FFF2CF109292058091930590919405FC
:10120000892B90919505892B49F710928D050895AA
:10121000833F19F4191674F3DFCF893F39F48091B5
:1012200094051816CCF610929405D6CF8A3F29F46F
:101230008091940587FFD0CFF6CF8B3F39F4809112
:10124000950587FFC9CF10929505C6CF8C3F29F42D
:10125000809195051816BCF3BFCF843F31F480917F
:1012600091058E7F80939105B7CF853F21F48091C2
:1012700091058D7FF7CF863F21F4809191058B7F7B
:10128000F1CF873F21F480919105877FEBCF883F95
:1012900021F4809191058F7EE5CF8D3F31F48091CF
:1012A00056058E7F8093560597CF8E3F21F480910F
:1012B00056058D7FF7CF8F3F09F08ECF8091560571
:1012C0008B7FF0CF8091560580FD16C081FD16C042
:1012D00082FD16C080918D058823A1F0883280F4AC
:1012E00028E0829FC001112468E270E00E948032F1
:1012F000862F672B39F0089582E0089584E00895E1
:1013000088E0089581E008958091560580FD14C01D
:1013100081FD14C082FD16C080918D05882381F067
:10132000843180F422E3829FC001112464E170E0E3
:101330000E948032862F08958CE0089589E10895F7
:1013400085E0089582E30895803F31F40E94840986
:101350008195809393050895813F19F40E94840933
:10136000F8CF823F31F40E948409819580939205E1
:101370000895833F19F40E948409F8CF893F29F426
:101380000E9462098093940508958A3F21F40E9487
:1013900062098195F7CF8B3F31F40E9462098195F4
:1013A0008093950508958C3F19F40E946209F8CF47
:1013B000843F31F480919105816080939105089577
:1013C000853F21F4809191058260F7CF863F21F41B
:1013D000809191058460F1CF873F21F48091910540
:1013E0008860EBCF883F21F4809191058061E5CF43
:1013F0008D3F31F4809156058160809356050895A4
:101400008E3F21F4809156058260F7CF8F3FB9F768
:10141000809156058460F1CF87E797E790930108A4
:101420008093000888E19AE00FB6F894A89580931D
:1014300060000FBE90936000FFCF9C014FB7F894FF
:101440008091520590915305A0915405B091550596
:101450004FBF821B930B08952FB7F89480915205CC
:1014600090915305A0915405B09155052FBF089553
:10147000829590E09C01220F331F220F331F2C7C9A
:1014800095958795959587958373282B30E0C901AD
:10149000880F991F8A7A359527952575822B08958F
:1014A00080914D05811110924D0508952CE0929F79
:1014B000800D1124982F977086958695869525E046
:1014C000829FF0011124E75FFA4F50E040E080E096
:1014D000219130E0092E02C0369527950A94E2F753
:1014E00021703327042E01C0220F0A94EAF7822BC1
:1014F0004F5F5F4F4530510559F708952CE0929F9B
:10150000800D1124982F977041E001C0440F9A95E7
:10151000EAF786958695869595E0899FF0011124D6
:10152000E75FFA4F90E080E070E05191DF011197A2
:101530009B01082E02C0369527950A94E2F7217088
:1015400021952527242325272C9301968530910565
:1015500061F70895809108059091D704981301C010
:1015600008958F5F8770FACF2091CA013091CB0127
:101570002817390771F09093CB018093CA01E0914D
:101580007705F0917805309721F00084F185E02D02
:10159000099408952091C8013091C901281739078D
:1015A00071F09093C9018093C801E0917705F091A3
:1015B0007805309721F00680F781E02D0994089591
:1015C000E0917705F0917805309721F00190F08156
:1015D000E02D099480E008958091610582FD04C0AA
:1015E0009091C501911112C082FF04C08091C40185
:1015F00081110CC081E08093C5018093C4010E94D9
:101600002C0A9093C3018093C2015A9A08958115C0
:1016100022E5920780F48115E1E59E07E8F4803E1B
:10162000910538F0883E9105B8F0905481159041AD
:1016300070F081E019C0811528E59207D0F381157B
:10164000E9E59E0758F090568115904290F7FB010E
:101650009581907F81E041F480E00895FB019581C0
:10166000907F81E09035C1F708958091600580FFFB
:1016700006C080912806813011F45B9A08955B982A
:1016800008950E94350B539A08959091750592FF25
:1016900006C0282F28712830F9F4877F846093FFD3
:1016A00006C0282F28712831F1F4877E84612091AB
:1016B000760520FF06C0382F38713830D9F4877F7F
:1016C000816021FF06C0282F28712831D1F4877E40
:1016D000816194FD877E0895282F24712430F9F6C6
:1016E0008B7F8860DCCF282F2471243101F78B7E1B
:1016F0008861DDCF382F3171313019F78E7F8860E6
:10170000E0CF282F2171213121F78E7E8861E1CF32
:10171000CF93DF93972F70E02CE0929F600D711DA7
:101720001124FB0130E6839FE00DF11D1124EE0F23
:10173000FF1FE259F54FC591D491CE01C238D105B2
:10174000B9F1E8F5C133D10509F499C050F5C932B2
:10175000D10509F48DC0CA32D10509F497C0C1156D
:1017600021E5D20708F0BFC0C11530E5D30708F066
:1017700016C1C83ED10508F09DC0C03ED10568F530
:10178000C83AD10508F089C0C53AD10508F0FFC0B4
:10179000C130D10511F1209709F443C02497E8F432
:1017A00040C0C533D10509F45CC0C933D105B9F6D1
:1017B00020917505237089F080EE90E00EC0C33E45
:1017C000D10591F168F4C03ED105F9F0C23ED105D2
:1017D00031F62091750522FD20C0DF91CF9108954B
:1017E000C63ED10561F1C73ED10581F1C43ED105A8
:1017F00009F0B5CF2091760521FFEFCF80917505D7
:1018000084FD0FC087EE90E0E8CF2091750520FDA4
:1018100012C13091760530FFE0CF83EE90E024FFD7
:10182000DCCF90E080E0D9CF2091750522FD06C184
:101830003091760530FDC0CF24FFCFCFF2CF20917D
:10184000750523FFCACF24FDECCFDCCF20917505B1
:1018500023FDF7C03091760531FFEECF84EE90E0A6
:10186000BCCF2091750525FFB8CF89E290E0B5CFB8
:101870002091750525FFB1CF85E390E0AECF209193
:10188000750526FFAACF8AE290E0A7CF20917505C3
:1018900026FFA3CF81E390E0A0CFCF3BD10508F690
:1018A000C85AD0E0CC0FDD1FC95BDE4F888199811B
:1018B000946493CFC11520E2D20760F4C11531E0E2
:1018C000D30708F08ACFCE019065C03FD10508F05C
:1018D00084CFA7CFC11580E4D80708F4A2CFCE01EA
:1018E0009F70906A7ACFC11595E5D90710F5C1159B
:1018F00024E5D20708F088C0C11533E5D30708F006
:101900006FC0C11582E5D80708F465C09E01237039
:10191000332781E090E002C0880F991F2A95E2F7F3
:10192000C695C69520E2C29FE00111248C2B9D2B09
:1019300050C0C11599E5D907A0F4C11528E5D20713
:1019400008F067C0C11536E5D30708F06ACF8C2FC1
:101950000E94450B90E0982F882788279F719062FE
:101960003CCFC1158AE5D80708F458C0CE0190567F
:101970008115904208F055CF8D2F8F710E94450B35
:1019800090E0982F882788279F718C2BE8CFC55A25
:10199000D0E0CC5BDE4F888190E090641ECF9E014A
:1019A000E4E036952795EA95E1F723708C2F86952C
:1019B0008695837030E2839FC0011124922BC370FF
:1019C00021E030E002C0220F331FCA95E2F7822BDC
:1019D000932B9C6802CF9C2F8827816F906AFDCE45
:1019E0009E012370332781E090E002C0880F991F89
:1019F0002A95E2F7C695C69530E2C39FE00111240F
:101A00008C2B9D2B9A68E9CE9C2F8827846F906A37
:101A1000E4CE9C2F8827806F906ADFCE8C2F8F704A
:101A20000E94450B34E0D695C7953A95E1F7CF7003
:101A30009C2F9069D2CE89E390E0CFCE82EE90E0E9
:101A4000CCCE86EE90E0C9CEBF92CF92DF92EF92DD
:101A5000FF920F931F93CF93DF938C01C0904505A6
:101A6000D0904605E0904705F090480580914E05DE
:101A700090914F05A0915005B0915105C82AD92ADF
:101A8000EA2AFB2ACFE1D0E0BC2ED701C6010C2EFA
:101A900004C0B695A795979587950A94D2F780FDCF
:101AA0000EC0219788F7B12C8B2DDF91CF911F911C
:101AB0000F91FF90EF90DF90CF90BF900895B80105
:101AC0008C2F0E94880B019761F3EECFCF93DF93A9
:101AD000EC010E94240DBE01DF91CF910C94880B84
:101AE0000E94660D292F2F7092959F7092509E3004
:101AF00078F4E92FF0E0EF5FFC4C0C949432803FD7
:101B000019F020F4883E20F481E00895843FE1F349
:101B100080E00895883EC0F3813FD1F7F5CF822F52
:101B2000869586958695089581FB222720F982FB6C
:101B3000992790F980FF08C05F9A222339F0769A9E
:101B4000992331F02E9A08955F98F7CF7698F8CFC1
:101B50002E9808951F93CF93DF9300D000D00F925B
:101B6000CDB7DEB749835A8389819A81662321F1F3
:101B70000E94240D182F682F89819A810E947E0A65
:101B80008A81E981F0E09CE0899FE00DF11D11243C
:101B900080E6189FE00DF11D1124EE0FFF1FE259A2
:101BA000F54F859194910F900F900F900F900F909B
:101BB000DF91CF911F9108950E94560A182FE0CF10
:101BC0002A9880E190E0299A29980197E1F78F9A65
:101BD0008F98089586B159B143B12FB130E0952F58
:101BE0009370642F6071962B82958470982B569514
:101BF0005870952B440F4074942BA901440F551F26
:101C00004072942B220F331F220F331F2078892F0D
:101C1000822B08950F931F93CF93DF93F901A09127
:101C20003306B0913406309135063170228121118E
:101C30000EC08A179B0759F4332309F46CC08DE357
:101C40009AE0DF91CF911F910F910C94AC0626E0A2
:101C50004202E00111248D010C1B1D0B601771075E
:101C600079F056E001900D925A95E1F7E091330634
:101C7000F0913406EC0FFD1FF0933406E093330629
:101C8000332309F448C0E42F042E000CFF0B681B1B
:101C9000790B75956795ABEABAEA6A9F90016B9FDD
:101CA000300D7A9F300D11242E9FB0012F9F700DA3
:101CB0003E9F700D11246F5F7F4F2091330630914E
:101CC0003406281B390B359527952A9FC0012B9F79
:101CD000900D3A9F900D11248E9F90018F9F300D93
:101CE0009E9F300D112482E0413009F481E07F9302
:101CF0006F933F932F931F928F9387E19AE09F9367
:101D00008F930E9445078DB79EB708960FB6F8943B
:101D10009EBF0FBE8DBFDF91CF911F910F91089590
:101D20008091350683FF7EC080E497E00E94AC0678
:101D3000809191051F928F938BE397E09F938F93F0
:101D40000E94450789E397E00E94AC0680919205C6
:101D5000282F082E000C330B3F938F9386E397E0D8
:101D60009F938F930E94450784E397E00E94AC06FF
:101D700080919305282F082E000C330B3F938F93EF
:101D800081E397E09F938F930E9445078FE297E04E
:101D90000E94AC0680919405282F082E000C330B6E
:101DA0003F938F938CE297E09F938F930E94450718
:101DB0008AE297E00E94AC0680919505282F082EB4
:101DC000000C330B3F938F9387E297E09F938F93A1
:101DD0000E94450784E297E00E94AC0680918D0541
:101DE0001F928F9381E297E09F938F930E94450704
:101DF0008FE197E00E94AC06809156051F928F9369
:101E00008CE197E09F938F930E94450789E197E0CB
:101E10000E94AC068DB79EB74C960FB6F8949EBF45
:101E20000FBE8DBFE0917705F0917805309749F0AE
:101E300082E0809390050480F581E02D80E995E0B3
:101E400009950E942C0A90938C0580938B05089528
:101E5000EF92FF920F931F93CF93DF9380914C05E6
:101E600090914B05892B90914A05892B80938E0187
:101E700090914D059923B1F0892B80938E0180912B
:101E80001001882309F45DC08091750587FF59C052
:101E90008EE1E0E9F1E090E0815008F054C091114A
:101EA0000E94500AE0917705F0917805309709F487
:101EB00050C080911001882359F08091750587FFEB
:101EC00007C080918E0180938F0185E080938E0101
:101ED0000280F381E02D8EE891E00995809135062E
:101EE00082FF37C080FF04C087E097E00E94AC0605
:101EF000CEE8D1E086E9E82E81E0F82E01E017E097
:101F00008091350680FF0BC088811F928F931F93AD
:101F10000F930E9445070F900F900F900F902196FE
:101F2000EC16FD0669F78091350680FF12C08FEF31
:101F300096E0DF91CF911F910F91FF90EF900C945D
:101F4000AC0686E0A6CF2191222309F4A5CF9F5F9E
:101F5000A3CFDF91CF911F910F91FF90EF90089544
:101F600010924B0510924A050E94280F86E0E0E986
:101F7000F5E0DF011D928A95E9F710928D05109228
:101F800056050E94900E90E080E00E94CA0A90E000
:101F900080E00C94B40A60934505709346058093E5
:101FA0004705909348050C94B00F0F931F9341E0A1
:101FB00050E060E070E004C0440F551F661F771FBB
:101FC0008A95D2F78091450590914605A0914705E5
:101FD000B09148058A019B01082719272A273B272A
:101FE000C901B8011F910F910C94CB0F0F931F9350
:101FF00041E050E060E070E004C0440F551F661FF0
:10200000771F8A95D2F7CB01BA01609570958095BC
:102010009095009145051091460520914705309116
:10202000480560237123822393231F910F910C9401
:10203000CB0F909149058095892380934905282FDE
:10204000277071F4282F082E000C330B92171306FB
:1020500039F08595859585950E94F60F1092490572
:1020600008950F931F9341E050E060E070E004C0DA
:10207000440F551F661F771F8A95D2F7809145053B
:1020800090914605A0914705B09148058A019B01B2
:10209000082B192B2A2B3B2BC901B8011F910F913B
:1020A0000C94CB0F60934E0570934F0580935005B1
:1020B000909351050C94B00F882341F08095909136
:1020C0004C05892380934C050C94280F0895882390
:1020D00039F090914C05982B90934C050C94280F57
:1020E000089590911001992359F19091750597FFEA
:1020F00027C0E82FE695E695E695EE3180F4F0E00E
:10210000E257FE4F282F277081E090E001C0880F32
:102110002A95EAF780959281892382830895909188
:10212000350690FF19C01F928F9381EE96E09F9322
:102130008F930E9445070F900F900F900F90089576
:10214000E0E9F1E09191891303C0DF0111971C923E
:1021500091E0E639F907B1F70895909110019923BC
:1021600049F19091750597FF25C0E82FE695E69512
:10217000E695EE3170F4F0E0E257FE4F877021E013
:1021800030E001C0220F8A95EAF78281822B828398
:1021900008959091350690FF1EC01F928F9383EC97
:1021A00096E09F938F930E9445070F900F900F909A
:1021B0000F900895A0E9B1E0EFEF90E02D91821724
:1021C00051F0EF3F19F4211101C0E92F9F5F9630C4
:1021D000A9F7EF3F09F408950E2E000CFF0BE2570C
:1021E000FE4FD5CF882309F459C0823871F40E947C
:1021F000E00A81FF53C089E30E94AD100E94280FBE
:1022000089E30E9471100C94280F833859F40E94BE
:10221000E00A80FF43C083E50E94AD100E94280FB2
:1022200083E5EFCF843859F40E94E00A82FF36C07C
:1022300087E40E94AD100E94280F87E4E2CF9CEF54
:10224000980F913AF0F290E2980F983088F48770E6
:1022500021E030E0A90102C0440F551F8A95E2F742
:10226000CA01809590914C05892380934C05CBCF72
:102270009BE5980F933020F490E080E00C94CA0A1C
:1022800098E5980F973120F490E080E00C94B40A20
:10229000803F20F00E94E3080C94900E08959F92D6
:1022A000AF92BF92CF92DF92EF92FF920F931F9364
:1022B000CF93DF938C01EB01942E79016AEF4602F4
:1022C00060011124809135068170C017D10739F063
:1022D0005E01AC0CBD1CF5019281911139C08823BF
:1022E00041F1CE01801B910B959587952BEA3AEA37
:1022F000829FA001839F500D929F500D1124692D44
:1023000064039001659F300D112481E0981641F11E
:1023100082E03F932F931F928F9388ED93E09F93DA
:102320008F930E9445070F900F900F900F900F9082
:102330000F90F701D183C083DF91CF911F910F914F
:10234000FF90EF90DF90CF90BF90AF909F90089557
:10235000882321F082E094E00E94AC06E501B2CF30
:1023600081E0D7CF9FB7F894109201069FBF90915C
:102370002906943009F048C02091E9002F7030916F
:10238000EC00932F917030FD90E8922B25E0209384
:10239000E9002091EB0020FF34C02091EE0027FFE0
:1023A00030C020915905222321F02091E80025FF1B
:1023B00028C01092590526E03091E80035FF14C07E
:1023C0008093F1008091E80085FD27C08091E800AE
:1023D00080FFFCCF8091E8008E778093E8009F70AB
:1023E0009093E90080E0089530912906343049F453
:1023F0003091EB0035FD05C0215041F481E0809320
:1024000059059F709093E9008FEF0895EFE9FFE081
:102410003197F1F700C00000CFCF8FB7F89421E0DB
:10242000209301068FBFDBCFCF93DF9300D00F92B5
:10243000CDB7DEB790912906943011F589837B835F
:102440006A839093E9008FEF9091E800815095FDA9
:1024500006C095ED9A95F1F700008111F5CF8091B6
:10246000E80085FF0DC050E040E063E070E0CE0181
:1024700001960E949E078091E8008E778093E80085
:102480000F900F900F90DF91CF910895CF93DF932E
:10249000EC010E94D808823011F0843031F4BE0182
:1024A00084E0DF91CF910C941412DF91CF910895C5
:1024B000BC0183E00C941412CF93DF93EC010E94D3
:1024C000D808823011F08430F9F484E08093E90078
:1024D0008FEF9091E800815095FD06C095ED9A959B
:1024E000F1F700008111F5CF8091E80085FF0CC065
:1024F00050E040E066E070E0CE010E949E078091CF
:10250000E8008E778093E800DF91CF910895CF9314
:10251000DF93EC010E94D808823011F08430B9F5C5
:10252000809110018823B1F18091750587FF32C039
:1025300060E284E08093E9008FEF9091E8008150A1
:1025400095FD06C095ED9A95F1F700008111F5CF44
:102550008091E80085FF1BC08091100170E050E081
:1025600040E0811104C050E040E068E070E0CE013E
:102570000E949E078091E8008E778093E80080E2B9
:10258000FE01A6E0B6E001900D928A95E1F7DF9199
:10259000CF91089568E081E0CDCFCF93C82F8823F5
:1025A00009F4AEC08238C1F40E94E00A81FDA8C0DF
:1025B00089E30E94AD100E94280F2FEF81EE94E076
:1025C000215080409040E1F700C0000089E30E9464
:1025D0007110CF910C94280F8338A1F40E94E00A67
:1025E00080FD8EC083E50E94AD100E94280F2FEF62
:1025F00081EE94E0215080409040E1F700C000005F
:1026000083E5E5CF8438A1F40E94E00A82FD78C01A
:1026100087E40E94AD100E94280F2FEF81EE94E016
:10262000215080409040E1F700C0000087E4CFCF08
:102630008CEF8C0F813A88F580911001882301F18D
:102640008091750587FF1CC0EC2FE695E695E69511
:10265000F0E0E257FE4F828190E04C2F477021E07E
:1026600030E002C0220F331F4A95E2F78223932302
:10267000892B79F08C2F0E9471100E94280F09C0BD
:10268000E0E9F1E08191C817A9F321E0E639F2070A
:10269000C9F78C2F0E94AD109CCF80E28C0F883040
:1026A00068F4C77021E030E001C0220FCA95EAF754
:1026B00080914C05822B80934C058BCFEBE5EC0F82
:1026C000E33040F4F0E0EC5BFE4F808190E0CF918E
:1026D0000C94CA0AE8E5EC0FE73150F4F0E0EE0F95
:1026E000FF1FE95BFE4F80819181CF910C94B40A6A
:1026F000C03F30F08C2F0E94A409CF910C94900E13
:10270000CF910895CF93C82F0E94CD12C93349F4B9
:102710002FEF87EE93E0215080409040E1F700C01A
:1027200000008C2FCF910C94F2100F931F93CF9336
:10273000DF93C62FD42F022FFC0182818823A1F0C2
:102740006093CD040E942C0A9093C7018093C60128
:10275000C77081E001C0880FCA95EAF7DF91CF9179
:102760001F910F910C9467101091CD04161335C072
:102770008091C6019091C7010E941D0A883C910575
:1027800060F5C0E2CD0F1D17B9F080E2810F8830EF
:1027900040F4177081E001C0880F1A95EAF70E9493
:1027A0005C10C83048F481E09D2F977001C0880FFD
:1027B0009A95EAF70E946710802F0E948213C83012
:1027C00098F4D77081E001C0880FDA95EAF7DF91BD
:1027D000CF911F910F910C945C10C77081E001C0E4
:1027E000880FCA95EAF7F3CFDF91CF911F910F9130
:1027F0000895CF92DF92EF92FF920F931F93CF93A2
:10280000DF93EC018AE0C82EFE018491882309F44D
:1028100083C0813009F040C031968491813051F4F9
:102820002296FE011491812F0E94CD12812F0E94C9
:10283000F21007C0823039F42296FE0184910E9482
:10284000CD122196E1CF833021F42296FE018491AE
:10285000EECF843009F05EC02296FE01249190E014
:1028600080E0FE0131962053330B2A30310548F0C9
:10287000019738F3EFE9FFE03197F1F700C000006E
:10288000F7CFC89EA001C99E500D1124C901840F25
:10289000951F2491EF01E5CFE82FF0E0E45FFD4FB5
:1028A000D490082F06950695069510E0F801E4509F
:1028B000FE4FE4908770F12C082E02C0F594E79447
:1028C0000A94E2F721E0E222FF2404511E4FF801AE
:1028D000049110E002C0159507958A95E2F7017002
:1028E0001127E114F10419F081EE0E94CD120115B7
:1028F000110519F086EE0E94CD128D2D0E948213D3
:10290000012B19F086EE0E94F21081EEEF2809F4F7
:1029100098CF8DCFEF0195CFDF91CF911F910F9180
:10292000FF90EF90DF90CF900895CF92DF92EF92DB
:10293000FF920F931F93CF93DF9300D000D00F929D
:10294000CDB7DEB78A012FE030E090E08217930721
:1029500009F079C02A9A299A299821503109B0F7AB
:102960006F5F7F4FFE01319680E090E0F894D6B023
:10297000E9B0F3B0CFB0D192E192F192C1928F9AC7
:10298000D6B0E9B0F3B0CFB0D082E082F082C0829E
:10299000019686179707A0F378948F980E94E00D10
:1029A0008AE28A95F1F700C02C2D30E08E2D8370DD
:1029B0009F2D9071892B9D2D92959470892B9E2D22
:1029C00096959870892B9F2D990F9074892BA9014A
:1029D000440F551F4072842B220F331F220F331FC9
:1029E0002078822B0115110501F15A814B812C8130
:1029F00030E0998192959470652F6370742F707197
:102A0000672B962B56955870952B440F4074942B3A
:102A1000A901440F551F4072942B220F331F220F20
:102A2000331F2078922BF80190830F900F900F9016
:102A30000F900F90DF91CF911F910F91FF90EF902A
:102A4000DF90CF9008952A9886CF90638E9820E1EA
:102A500030E097FF0EC02A9A880F991F299A29986B
:102A600021503109B1F78E9A8AE28A95F1F700C0B8
:102A700008952A98F1CF2F923F924F925F926F92D2
:102A80007F928F929F92AF92BF92CF92DF92EF92FE
:102A9000FF920F931F93CF93DF9300D000D00F923C
:102AA000CDB7DEB78B83262E3A01EE24EA94AFE051
:102AB000FA2E0FEF1FEF662329F0E12CF0E1FF2E35
:102AC00010E000E044244394512CC8018E0D9F1D5A
:102AD0009D838C83222009F484C0FC0197FF03C0EE
:102AE0003196FD83EC838C819D81959587959D839F
:102AF0008C838C819D810E9425155EE6852E5AE08F
:102B0000952ED12CC12CB2010C2C02C0660F771F60
:102B10000A94E2F7940190E080E0A0E0611471046F
:102B200059F0FC01EE0FFF1FE60DF71D40815181AA
:102B300046235723452B81F0F90145915491452BAC
:102B400059F047E050E0481B590BF20102C0EE0F6C
:102B5000FF1F4A95E2F7AE2B0196285E3F4F883063
:102B60009105E1F6FB81FA23F9832FE02C192A83E2
:102B7000AA24A394B12C312C50E040E063E070E033
:102B80008A812220B1F10E9495149981892391E0D4
:102B900009F090E0390EC501831991090997E4F114
:102BA0000C811D810F5F1F4F0E151F050CF48DCF7B
:102BB000C8010F900F900F900F900F90DF91CF9161
:102BC0001F910F91FF90EF90DF90CF90BF90AF904B
:102BD0009F908F907F906F905F904F903F902F903D
:102BE0000895EC81FD813196F595E795FD83EC83A1
:102BF00080CF0E949514E9818E2391E08E1390E09E
:102C0000390EC50183199109099734F0EC80FD80D4
:102C1000F1E0EF1AF108C8CF28E0231540F08FEF5C
:102C2000A81AB80A91E1A916B10409F0A5CFEFEFEF
:102C3000CE1ADE0AF2E08F0E911C2CE0C216D104EF
:102C400009F061CF211003C00C811D81ADCFEC8054
:102C5000FD80AACF2F923F924F925F926F927F9208
:102C60008F929F92AF92BF92CF92DF92EF92FF929C
:102C70000F931F93CF93DF93CDB7DEB728970FB68F
:102C8000F894DEBF0FBECDBF8C01462E842E0E946D
:102C90002515C8010E9425152EE6E22E2AE0F22E07
:102CA00040E1449E20011124C20189559A4F2C0114
:102CB00010E000E0FE0131966F0166246394712CF0
:102CC000912C47E0A42EB12CF60148E011924A95D0
:102CD000E9F78FE0282E201A90E1392E50E040E0ED
:102CE00063E070E0822D0E949514F60127E030E049
:102CF00090E0AC01022E02C0559547950A94E2F788
:102D000040FF03C040814F5F40832150310931961D
:102D10002F3F320771F73A943110E0CFA301002E14
:102D200002C0440F551F0A94E2F7D201970190E0C8
:102D300080E0F90165917491672BC9F0B501681BBA
:102D4000790BF40102C0F595E7956A95E2F7E0FF8B
:102D50000EC0F601E80FF91F6081693040F06D91F7
:102D60007C911197642B752B11967C936E93019631
:102D7000285E3F4F129688309105D9F60F5F1F4F9E
:102D8000F2E0EF0EF11C0C30110509F09DCF2896F2
:102D90000FB6F894DEBF0FBECDBFDF91CF911F916C
:102DA0000F91FF90EF90DF90CF90BF90AF909F90EA
:102DB0008F907F906F905F904F903F902F900895ED
:102DC00090E0DC0124E0AA0FBB1F2A95E1F7A9558A
:102DD000BA4F70E0FB0134E0EE0FFF1F3A95E1F7C8
:102DE000E955FA4F20E101900D922A95E1F7660F1F
:102DF000771FFB01E950FA4F20813181880F991F1D
:102E0000FC01E950FA4F31832083640F751FFB01E9
:102E100020813181840F951FFC0131832083089527
:102E2000CF9384E090E00E949A32C82F81E290E034
:102E30000E949A32982F8C2FCF91089510924C05B2
:102E400080911001E0E9F1E0882359F08091750547
:102E500087FF07C08EE1DF011D928A95E9F70C9488
:102E6000B00F86E0F8CFCF93DF93EC018091350669
:102E700080FF04C084EF99E00E94AC060E941E17F8
:102E800060E070E0CB010E94CB0FD0933406C0937A
:102E90003306DF91CF9108951F93CF93DF93CDB782
:102EA000DEB7AA970FB6F894DEBF0FBECDBF8BE298
:102EB00096E02091F100DC012D93CD01B6E0833343
:102EC0009B07B9F780912C06833009F471C0B8F4E0
:102ED000813009F448C0823009F4B2C08091E80022
:102EE00083FF3AC180912B0690912C069A3008F00E
:102EF00033C1E92FF0E0E15FFC4C0C9494328A304E
:102F000009F48DC08B3009F470C0893039F7809195
:102F10002B06813219F780912F0690913006009789
:102F200011F00297D9F68091E800877F8093E8003E
:102F30008091E80082FF37C09091F3008091F20009
:102F4000029729F48091F1008B7F813021F48091E8
:102F5000F100809305068091E8008B778093E8006C
:102F60000E94C807BBCF80912B06813A09F0B6CFEB
:102F70008091E800877F8093E80080912F069091F0
:102F80003006892B61F460E286E096E070E00E94F2
:102F90007A088091E8008B778093E8009FCF60E00B
:102FA00090E080E0F3CF809129068111C1CF96CFC8
:102FB00080912B06813A09F091CF80912F06909154
:102FC0003006892B09F08ACF8091E800877F8093B3
:102FD000E8008091E80080FFFCCF80911001809391
:102FE000F1008091E8008E77B9CF80912B06813275
:102FF00009F074CF80912F0690913006892B09F04B
:103000006DCF8091E800877F8093E8000E94C80719
:1030100080912D06809310010E941E175FCF809132
:103020002B06813209F05ACF8091E800877F809388
:10303000E8000E94C80780912E06809304064ECFB8
:1030400080912B06813A09F049CF8091E800877F73
:103050008093E8008091E80080FFFCCF8091040617
:10306000BECF803899F0823809F076C080912F0663
:103070008F70873008F070C08093E9008091EB007A
:1030800085FB882780F91092E90006C0809126060A
:1030900090912706911182609091E800977F90931C
:1030A000E8008093F1001092F1008091E8008E77A3
:1030B000CFC1882309F4BCC1823009F04DC0809192
:1030C0002D068111C0C180912F068F702FEF280F20
:1030D000263008F041C08093E9002091EB0020FFEA
:1030E000B2C1933031F48091EB0080628093EB00A9
:1030F000AAC19091EB0090619093EB0021E030E049
:1031000001C0220F8A95EAF72093EA001092EA00A4
:103110008091EB008860EACF81111EC010912D06CE
:103120001F778091E3008078812B8093E30080916A
:10313000E800877F8093E8000E94C8078091E8003C
:1031400080FFFCCF8091E30080688093E30082E001
:10315000111183E0809329068091E80083FF0AC063
:103160008091E800877F8093E8008091EB00806287
:103170008093EB00AA960FB6F894DEBF0FBECDBFCA
:10318000DF91CF911F9108958058823028F72091C8
:103190002D0630912E062C3DE3E03E07A1F583E09D
:1031A0008A838AE289834FB7F894DE01139620E080
:1031B0003EE051E2E32FF0E050935700E49120FF0E
:1031C00003C0E295EF703F5FEF708E2F90E0EA3022
:1031D000C0F0C7968D939D932F5F243159F74FBF51
:1031E0008091E800877F8093E8006AE270E0CE017A
:1031F00001960E947A088091E8008B778093E8001E
:10320000ABCFC096E7CF80912F0690913006432F29
:1032100055274330510509F44AC078F5413051052E
:1032200009F485C08BE790E0E9E9F8E04230510508
:1032300009F092CF2091E800277F2093E8002091A9
:103240003106309132068217930708F49C0140E062
:103250002115310509F070C041116EC08091E80060
:1032600082FDC9CF80912906882329F2853019F281
:103270008091E80083FFF2CFBECF4132510509F4BF
:1032800047C04232510509F067CF8430910508F0FC
:1032900063CFFC01EE0FFF1FE558FE4F0190F08158
:1032A000E02D89589E4FDC018C9190E01DC03327A2
:1032B00021303105E9F02115310579F02230310551
:1032C000F9F02330310509F047CFE6E2F9E0E49167
:1032D0008E2F90E0E6E2F9E007C0E0EFF9E0E4913C
:1032E0008E2F90E0E0EFF9E0009709F435CFA2CF00
:1032F000E8E6F9E0E4918E2F90E0E8E6F9E0F4CF1B
:10330000ECE2F9E0E4918E2F90E0ECE2F9E0ECCF12
:103310008430910508F020CF880F991FFC01ED57EC
:10332000FE4F0190F081E02D89E090E083CF82E1B3
:1033300090E0E4E1F9E07ECF80912906882309F44A
:103340005ACF853009F457CF8091E80083FD53CFE1
:103350008091E80082FD82CF8091E80080FF78CFE5
:103360009091F3008091F2002115310519F0883019
:10337000910550F041E0089709F040E08091E800A5
:103380008E778093E80064CF44914093F1003196AA
:10339000215031090196E8CF803809F0DDCE8091C7
:1033A000E800877F8093E80080912A068093F100EF
:1033B0007CCE8111D1CE10912D06123008F0CCCEEA
:1033C0008091E800877F8093E80010932A060E948E
:1033D000C807112311F084E005C08091E30087FD48
:1033E000FACF81E08093290642E061EC81E00E94FF
:1033F000E70742E261EC84E00E94E70742E261EC09
:1034000082E00E94E70742E260EC83E00E94E70767
:1034100042E261EC85E00E94E7079091290681E095
:10342000943009F080E0809328060E94410B94CEEE
:1034300080912D06813009F08FCE81E0933009F024
:1034400080E0809327061092E9008091E800877F52
:103450008093E8000E94C8077FCE2F923F924F9240
:103460005F926F927F928F929F92AF92BF92CF9214
:10347000DF92EF92FF920F931F93CF93DF9300D0D1
:1034800000D0CDB7DEB74C0180E1F40111928A95EE
:10349000E9F727EFC22E25E0D22E37EAA32E35E03A
:1034A000B32E47E0242E312CF601819191916F01CA
:1034B0000E94251510E000E0FFE0F01BFB830C8369
:1034C00044244394512C002E02C0440C551C0A94F1
:1034D000E2F73501F12CE12C80E0F30121913191EB
:1034E0003F0124213521232BA1F1811109C0AE0117
:1034F0004F5F5F4F63E070E08B810E9495148A8379
:1035000091012E193F09898190E0022E02C0959504
:1035100087950A94E2F780FD1BC0F701EE0FFF1FAD
:10352000E80DF91D4A81842F90E002C0959587959A
:103530002A95E2F7817099270C8002C0880F991FA5
:103540000A94E2F720813181822B932B918380832F
:1035500081E09FEFE91AF90AE8E0EE16F10409F0BC
:10356000BCCF0F5F1F4F0C30110509F0A5CFF0E164
:10357000AF0EB11C41E0C41646E0D40609F094CF6A
:103580000F900F900F900F90DF91CF911F910F919F
:10359000FF90EF90DF90CF90BF90AF909F908F9073
:1035A0007F906F905F904F903F902F9008957F9203
:1035B0008F929F92AF92BF92CF92DF92EF92FF9243
:1035C0000F931F93CF93DF938091BE0181117CC035
:1035D0002FB7F8948091520590915305A09154050E
:1035E000B09155052FBF80319742A105B10508F470
:1035F0006BC080915F058F9380915E058F9381EE04
:1036000092E09F938F930E94450780915B058F9373
:1036100080915A058F9380915D058F9380915C0511
:103620008F938BEB92E09F938F930E94450707EF58
:1036300015E097EAE92E95E0F92E8DB79EB70A9628
:103640000FB6F8949EBF0FBE8DBFD0E0C0E024E956
:10365000C22E22E0D22E3CE8A32E32E0B32ED801B7
:103660008C9111969C910E5F1F4F9F938F93DF93C8
:10367000CF93DF92CF920E9445070F900F900F904B
:103680000F900F900F90470188E0782ED4018C9115
:1036900011969C91B2E08B0E911C9F938F93BF92D9
:1036A000AF920E9445077A940F900F900F900F9061
:1036B0007110ECCF2196E0E1EE0EF11CC530D10582
:1036C00071F681E08093BE0180910501882309F4A1
:1036D00075C085E695E00E942D1AEEEAF1E045E618
:1036E00055E0C0E021913191DA018D919D91AD01BC
:1036F0002817390709F0C1E09F0122503109D9018B
:103700008D939C93B1E0EE3BFB0761F7CC2309F46A
:103710005DC081E08093C1010E942C0A9093C0019A
:103720008093BF018091BF019091C0010E941D0A4A
:10373000069708F44FC080916505909166059093B7
:103740007A0580937905809167059091680590933B
:103750007C0580937B058091690590916A05909323
:103760007E0580937D0580916B0590916C0590930B
:10377000800580937F0580916D0590916E059093F3
:1037800082058093810580916F05909170059093DB
:1037900084058093830580917105909172059093C3
:1037A00086058093850580917305909174059093AB
:1037B0008805809387051092C1010CC0E5E6F5E00D
:1037C00080E1DF011D928A95E9F787CF8091C101E1
:1037D0008111A8CF8091C501882381F08091C20119
:1037E0009091C3010E941D0A209104012817190617
:1037F000A0F45A981092C5011092C4018C2FDF9149
:10380000CF911F910F91FF90EF90DF90CF90BF90DD
:10381000AF909F908F907F9008952091610522FF37
:10382000EDCF9091C40182FD07C09111E7CF81E0F7
:103830008093C4015A9AE2CF992301F31092C401F4
:103840005A98DCCFAB01BC0188E190E00C94C03207
:103850000F931F93CF93DF93C1E6D5E0282F220F5C
:10386000220F220F98819770922B988382958695CC
:10387000837002E615E0F80190819C7F892B80839C
:10388000609160057091610580916205909163057A
:103890000E94221C8881982F969596959695F801FE
:1038A000808183708295880F807E892B1F928F93F1
:1038B0008DE993E09F938F930E9445070F900F909F
:1038C0000F900F90DF91CF911F910F9108950F935B
:1038D0001F93CF93DF93C2E6D5E0282F220F220F4C
:1038E000220F98819770922B988303E615E0982F0A
:1038F000929596959770F8018081887F892B8083B7
:1039000060916005709161058091620590916305F9
:103910000E94221C8881982F969596959695F8017D
:1039200080818295880F807E892B1F928F938FE7ED
:1039300093E09F938F930E9445070F900F900F90F5
:103940000F90DF91CF911F910F9108950F931F93C7
:10395000CF93DF93C0E6D5E0282F220F220F220F4E
:1039600098819770922B988382958695837001E653
:1039700015E0F80190819C7F892B80836881798193
:103980008A819B810E94221C8881982F969596950A
:103990009695F801808183708295880F807E892BAF
:1039A0001F928F9386E693E09F938F930E94450723
:1039B0000F900F900F900F90DF91CF911F910F916B
:1039C00008950F931F93CF93DF93C0E6D5E08881CE
:1039D000816088830E94350B8881897F888301E616
:1039E00015E0F80180818770E2E6F5E090819C7F28
:1039F000908380628B7FF801808384E08093040150
:103A0000688179818A819B810E94221C88818695A8
:103A100083701F928F9389E493E09F938F930E940A
:103A200045078881982F969596959695F8018081FF
:103A300083708295880F807E892B1F928F9380E3FD
:103A400093E09F938F930E9445078DB79EB708968A
:103A50000FB6F8949EBF0FBE8DBFDF91CF911F911F
:103A60000F910895CF93DF93C0E6D5E088818E7FD4
:103A700088830E94350B1F921F9285E193E09F93EC
:103A80008F930E9445070F900F900F900F906881C1
:103A900079818A819B81DF91CF910C94221CCF93F5
:103AA000DF93C0E6D5E08881816088830E94350B72
:103AB0001F9281E08F938AEF92E09F938F930E94F1
:103AC00045070F900F900F900F90688179818A8140
:103AD0009B81DF91CF910C94221C6CEE7EEF90E0E5
:103AE00080E00E94CC3260E082E090E00E94AE3242
:103AF00060E083E090E00E94AE3210924E0510929A
:103B00004F05109250051092510560E084E090E05E
:103B10000E94AE3260E081E290E00E94AE3260E04E
:103B200085E090E00E94AE3260E086E090E00E9486
:103B3000AE326FEF87E090E00E94AE3240E050E09E
:103B4000BA0188E090E00E94C03260E08DE090E031
:103B50000E94AE3240E050E0BA0188E190E00E945D
:103B6000C03260E087E190E00E94AE3240E050E079
:103B7000BA018CE190E00E94C03260E080E290E007
:103B80000E94AE320E94E11C40E050E0BA018FE09A
:103B900090E00E94C03240E050E0BA0183E190E042
:103BA0000C94C0324F925F926F927F928F929F924D
:103BB000AF92BF92CF92DF92EF92FF920F931F933B
:103BC000CF93DF938C01FC0183819481892B39F0A1
:103BD00040815181842F85238F3F09F0DFC6DF911B
:103BE000CF911F910F91FF90EF90DF90CF90BF90FA
:103BF000AF909F908F907F906F905F904F900895BF
:103C0000F80182818111E8C6C430FDE5DF0709F4BF
:103C10008AC008F06FC0C3303DE5D30709F47BC00C
:103C2000C63EFCE5DF0709F0DCC6F80182818111A0
:103C30000E944F1DF8018281C93EFCE5DF0709F0B3
:103C4000C3C081110E94E11CF8018281CC3EFCE5D9
:103C5000DF0709F0F0C0882381F080916005982F7C
:103C60009695969596958091610583708295880FBB
:103C7000807E892B8F5F0E94A61CF8018281C23F43
:103C8000FCE5DF0709F0F0C08823B1F08091610501
:103C9000982F96959695969580916205837082955A
:103CA000880F807E892B853008F400C18150990BE4
:103CB000809304010E94281C8091600580FF06C14A
:103CC00090912806913009F001C1F8019281992361
:103CD00009F401C186958370823008F4EEC0FE01BC
:103CE000E850FD45E632F10508F0FDC0E75EFC4C0A
:103CF0000C949432C6308DE5D807D9F0C7309DE5D5
:103D0000D90709F08DCF60910001709101014FEF4B
:103D100086EC94E015C08CEC91E00E94331781E0B2
:103D20008093CC045CCF86EC94E00E94331782E051
:103D3000F7CF609102017091030141E08CEC91E0BA
:103D4000DF91CF911F910F91FF90EF90DF90CF9077
:103D5000BF90AF909F908F907F906F905F904F90AB
:103D60000C941028609133067091340622E031E003
:103D700041E08CEC91E00E944F112BC6609133061C
:103D80007091340620E031E04FEF86EC94E0F3CF01
:103D9000813061F0823009F043CF6091020170916F
:103DA000030198014FEF86EC94E008C06091000198
:103DB00070910101980141E08CEC91E00E940A0EA3
:103DC0002FCF81110E94321DF8018281CA3EFCE58D
:103DD000DF0709F024C6882371F190916005892FCF
:103DE00086958F5F8370880F997F892B80936005FC
:103DF000982F9670963019F4897F80936005809192
:103E00006005867091E009F090E01F929F9386E331
:103E100094E09F938F930E94450760916005709195
:103E2000610580916205909163050E94221C0F90AC
:103E30000F900F900F90F8018281CD3EFCE5DF07D7
:103E400009F019C6882381F080916005982F969516
:103E5000969596958091610583708295880F807EF6
:103E6000892B81500E94A61CF8018281CF3EFCE57F
:103E7000DF0709F01FC6882309F41ECF8091620571
:103E8000982F969596959695809163058295880FC3
:103E9000807E892B883768F4865F0E94671C0CCF70
:103EA0000E944F1DB2C584E090E000C684E690E019
:103EB000FFCE88E7F2CF84E1F0CFB801CE010E94B7
:103EC000070B882309F40BCF0E94EC0AF8018281CA
:103ED000811105CF08C0867031F0B801CE010E9473
:103EE000070B8111F1CFF801858182958F701F92A8
:103EF0008F93858181701F928F9384818F938381AB
:103F00008F9382811F928F9381811F928F938081E3
:103F10001F928F93DF93CF938CE694E09F938F93C0
:103F20000E9445078DB79EB740960FB6F8949EBF86
:103F30000FBE8DBFC33F9CE5D90709F423C108F02C
:103F4000B5C0C83DFCE5DF0709F418C1C93D2CE543
:103F5000D20709F423C1C73D3CE5D30709F0B5C03A
:103F600026E241EE61EEC801DF91CF911F910F91E2
:103F7000FF90EF90DF90CF90BF90AF909F908F9089
:103F80007F906F905F904F900C9495138BE996E023
:103F90000E94F913A8CF8BE896E0FACF8BE796E062
:103FA000F7CF80E796E0F4CF88E696E0F1CF80E6A1
:103FB00096E0EECF82E596E0EBCF86E496E0E8CFA0
:103FC0008AE396E0E5CF8FE296E0E2CF8FE196E0DC
:103FD0000E94F9138FE096E0DBCF81E096E0D8CF26
:103FE00083EF95E0D5CF89EE95E00E94F91381EE3D
:103FF00095E0CECF8EED95E0CBCF84ED95E0C8CFA8
:1040000082ED95E0C5CF80ED95E0C2CF8CEC95E0D8
:104010000E94F91381E0DF91CF911F910F91FF90E2
:10402000EF90DF90CF90BF90AF909F908F907F9058
:104030006F905F904F900C94D50F84EC95E0A8CFD3
:104040008CEB95E0A5CF84EB95E0A2CF8CEA95E0D0
:104050009FCF84EA95E09CCF8CE995E099CF84E9E5
:1040600095E096CF8CE895E093CF82E895E090CFED
:1040700089E795E08DCF8AE695E08ACF82E595E0E5
:1040800087CF8CE395E084CF81E395E081CF8EE10B
:1040900095E07ECF88E095E07BCF81EF94E078CF0C
:1040A00086ED94E075CF81EC94E072CFC53F8CE54E
:1040B000D80709F46FC008F469C027E245EE66EE40
:1040C000C63FECE5DE0709F44ECFF8018281882374
:1040D00009F40BC51092CD04C230FCE5DF0708F4EB
:1040E0003EC1C6312CE5D20738F09E012A5F3C451F
:1040F0002930310508F033C10E94101790937605DE
:1041000080937505C0313CE5D30709F4F7C008F08A
:1041100085C0C8309CE5D90709F4E6C008F054C052
:10412000C430FCE5DF0709F4D7C0D8F5C2303CE560
:10413000D30709F4C7C0C330DC4509F4C9C0609196
:104140007505C091760584E090E00E94AE326C2F38
:1041500081E290E00E94AE32DF91CF911F910F91EA
:10416000FF90EF90DF90CF90BF90AF909F908F9097
:104170007F906F905F904F900C941E1727E245EE52
:1041800065EEF1CE26E241EE60EEEDCE27E245EEA1
:1041900064EEE9CE26E241EE62EEE5CE28E241E0B1
:1041A000EFCF809175058061C6309CE5D90709F491
:1041B0008CC0809175058860C730DC4508F485C0E7
:1041C00080917505806281C0809175058D7FCC30AE
:1041D000FCE5DF0709F479C070F4809175058C6007
:1041E000CA303CE5D30709F470C008F481C080915F
:1041F00075058E7F6AC080917505877FCE309CE5FE
:10420000D90709F462C0809175058B7FCF30DC45FA
:1042100008F45BC0809175058F7E57C0CB3FFCE5ED
:10422000DF0709F45DC030F5C3313CE5D30709F47D
:104230006DC078F4C1319CE5D90709F463C0C2317F
:10424000DC4509F07CCF0E941E17809175058F77A1
:104250003CC0C531FCE5DF0709F460C008F474C058
:10426000809176058160CA3FDC4509F068CF809374
:10427000760565CFCF3F8CE5D80709F44BC088F4AD
:10428000809176058D7FCD3FECE5DE0781F380914F
:1042900076058E7FCE3FDC4550F3809176058360B6
:1042A000E6CFC1302DE5D20709F457C008F442C06B
:1042B00060E0C230DD4509F042CF8EE090E00E9420
:1042C000AE323DCF8091750581608093750537CF03
:1042D000809175058260F9CF809175058460F5CF76
:1042E000809176058260C3CF809175058064EDCFA3
:1042F0000E941E17809175058068E7CF8091750533
:104300008F7DE3CF809175058F7BDFCF8091750521
:10431000837FDBCF809176058C7FA9CF8091750557
:1043200082FB992790F921E0922790FB82F990FB7C
:1043300083F9CBCF80917605982F909591708E7FE1
:10434000892B90FB81F993CF0E941E1790917505E0
:10435000892F97FB87F98058B8CF61E0AECFC6317F
:104360009CE5D90709F0CDC380914C058A7A91E08C
:1043700009F490E09093CE04811115C089E20E9467
:10438000AD10DF91CF911F910F91FF90EF90DF90D3
:10439000CF90BF90AF909F908F907F906F905F90E5
:1043A0004F900C94280F85E3EACF85E3A7C3909143
:1043B0003506892F8E7F90FF81608093350680FFC0
:1043C00014C082EB96E0DF91CF911F910F91FF9087
:1043D000EF90DF90CF90BF90AF909F908F907F90A5
:1043E0006F905F904F900C94AC0680EA96E0EBCF14
:1043F000DF91CF911F910F91FF90EF90DF90CF90C1
:10440000BF90AF909F908F907F906F905F904F90F4
:104410000C946D1DF801C081D1818823D1F1CE01AA
:104420000E94240DF82E682FCE010E947E0ABE0144
:104430008F2D0E94880BD82FC92FA82EF801C58078
:10444000C2943FE0C322F280F11010924B0580919C
:104450004905877079F0FF2069F080E28D0F883080
:1044600048F082E00E941910809149058770EE247F
:10447000E3948111E12CDC2ED2942FE0D222FBE0D8
:10448000FD1508F440C0ED2DF0E0E15CFC4C0C940F
:104490009432CE010E94560AF82EC9CF2C2F2F70CD
:1044A000C22EC07F19F0C29490EFC922FF20C9F03C
:1044B000CC2069F080E28D0F883010F0A1100BC085
:1044C00080914C05C82AC0924C050E94280F8D2F60
:1044D0000E94CD1218C080914B05C82AC0924B058E
:1044E000F4CF8D2F0E94F210CC2069F0C094D05EE2
:1044F000D83010F0A1103FC080914C05C822C09266
:104500004C050E94280FED2DE850FF0B349720F446
:104510000E94E00A0E94940DEE20A9F080914905C6
:1045200080FD11C0F80112828595859585950E94C0
:104530003110C8010E94D21D80914905859585954D
:1045400085950E94F60FF801408151816281738147
:104550008481DF91CF911F910F91FF90EF90DF90B9
:10456000CF90BF90AF909F908F907F906F905F9013
:104570004F900C94AA0D80914B05C822C0924B0518
:10458000C0CF3C2F3F70B32EC07FC03219F0B29421
:1045900080EFB822AA2071F091E0A91661F1FF2006
:1045A000B9F1CC2071F1F801858180FF90CF8F7037
:1045B000858327C0FF2091F090914D058B2D892B8D
:1045C000C11003C00E9467109ECFE1E0CE12FACF67
:1045D000981709F498CF80934D0595CFC11006C068
:1045E0000E94500A8B2D0E945C108DCFF1E0CF16F7
:1045F00009F489CFF5CFFF2031F025E02C1508F420
:1046000082CF8B2DDFCF34E03C1508F47CCFEACF8E
:10461000CC2041F3D93349F4FFEF27EE33E0F150DA
:1046200020403040E1F700C000008D2F0E94F210C2
:104630006ACF8C2F86958695837069F0813009F05A
:1046400062CF8D2F9C2F9370F11002C090E080E01C
:104650000E94B40A58CF8D2F9C2F9370F11002C086
:1046600090E080E00E94CA0A4ECFFF2009F1D53FBA
:1046700099F0D63FB9F0D43F49F48091CF0490919E
:10468000D00481609093D0048093CF048D2F0E943A
:10469000A4090E94900E37CF8091CF049091D0044E
:1046A0008260F0CF8091CF049091D0048460EACFF3
:1046B000D53F89F0D63FA9F0D43F49F48091CF048B
:1046C0009091D0048E7F9093D0048093CF048D2F4F
:1046D0000E94E308DECF8091CF049091D0048D7FBB
:1046E000F2CF8091CF049091D0048B7FECCF8C2FB0
:1046F000837009F065C0F11006CF8D2F82958695E5
:104700008770880F880F6D2F6F70862E912CB12CBB
:10471000A12C082E04C0880C991CAA1CBB1C0A944E
:10472000D2F740E050E0BA01D4FF0FC04FE050E0B4
:1047300060E070E004C0440F551F661F771F8A9524
:10474000D2F74095509560957095C695C695C37003
:10475000C23019F1D8F440904E0550904F0560904A
:10476000500570905105C13069F0482959296A29CE
:104770007B29CB01BA0164217521862197210E94F2
:104780005210C1CE84289528A628B728CB01BA019B
:10479000682979298A299B29F2CF482959296A2928
:1047A0007B2980904E0590904F05A0905005B090C9
:1047B0005105CB01BA01682579258A259B25DFCFD4
:1047C0008695FF2011F08C2F8170882309F49BCEF1
:1047D0008D2F829586958770880F880F6D2F6F704B
:1047E000862E912CB12CA12C082E04C0880C991C6B
:1047F000AA1CBB1C0A94D2F740E050E0BA01D4FFD7
:104800000FC04FE050E060E070E004C0440F551F5F
:10481000661F771F8A95D2F74095509560957095E1
:10482000C695C695C370C23019F1D8F440904505BD
:10483000509046056090470570904805C13069F07A
:10484000482959296A297B29CB01BA01642175219C
:10485000862197210E94CB0F56CE84289528A62822
:10486000B728CB01BA01682979298A299B29F2CF77
:10487000482959296A297B29809045059090460549
:10488000A0904705B0904805CB01BA01682579256D
:104890008A259B25DFCFCF70FF2029F08C2F0E9427
:1048A00031108D2F8FCE8D2F0E945C108C2F0E9487
:1048B000F60F29CE8D2F92EFA916E9F19A1570F017
:1048C000E0EFAE1601F1F1EFAF1669F1FF2009F448
:1048D00055C0C110FCCD8C2F8F712AC023EFA216BA
:1048E00079F134EFA312F2CFFF20E9F1CF718C2FD1
:1048F0000E943110E8E0CE9FC001112483608093B4
:1049000049058C2F15C0FF2049F084E08C1508F470
:10491000FACD8C2F8F710E94D50FF5CD95E09C15A7
:1049200008F4F1CDF6CF8C2F8F71FF2009F4BFCFA3
:104930000E943110E8CD8C2F8F71FF20C9F3B7CFC3
:1049400060E070E0CB01FF2009F484CFCF7161E01B
:1049500070E080E090E004C0660F771F881F991F09
:10496000CA95D2F777CF81E00E941910F1E0FC15CB
:1049700008F0C9CD82E00E941910C5CDCC2059F0B5
:10498000893309F052CE2FEF37EE83E021503040CB
:104990008040E1F748CE8C2F8F7189CF628173817F
:1049A00084810E94AA0DEC018091CC04882309F433
:1049B00027C9C530EDE5DE0709F0EAC9F8019281A3
:1049C000992309F40CC9813009F4CCC9823009F467
:1049D000D5C91092CC0403C9C63E2CE5D20709F410
:1049E00027C9F8018281C73EFCE5DF0709F4E9C960
:1049F000C83E2CE5D20709F01DC9882381F08091BB
:104A0000600580FF4DCA0E94321D60916005709163
:104A1000610580916205909163050E94221CF80156
:104A20008281CB3EFCE5DF0709F00EC9882319F12E
:104A300090916105892F8B7F92FF8460809361053F
:104A400060916005709161058091620590916305A8
:104A50000E94221C8091610582FB882780F91F92A9
:104A60008F9383E594E09F938F930E9445070F9067
:104A70000F900F900F90F8018281C13FFCE5DF0796
:104A800009F0FBC88823B1F080916105982F9695B5
:104A9000969596958091620583708295880F807EA9
:104AA000892B843608F0FFC990E0019680930401B9
:104AB0000E94281CF8018281C03FFCE5DF0709F055
:104AC000FBC8882309F4F8C880916205982F969551
:104AD00096959695809163058295880F807E892BA7
:104AE000843108F4E8C98A50D8C9C631DC4509F0D8
:104AF00091CC8091CE04811158CC89E20E94711032
:104B000040CCC1309CE5D90709F451CCCE3DECE551
:104B1000DE0709F46DCCC115DC4509F07BCC0E94A1
:104B20001E17EFEFF4E32CE0E150F0402040E1F7F6
:104B300000C000005A9887E797E790930108809398
:104B400000080E940C0A1F93CF93DF938091D60434
:104B5000807FA9F48091D304882389F0809108058F
:104B6000D091D7046091D1047091D204A091D40463
:104B7000B091D504C62FC72316E0D81304C0DF9127
:104B8000CF911F91089590E0109711F0CF3F19F445
:104B900001968770F2CF189F9001199F300D112454
:104BA000F901E852FB4F41814713F2CF4081461390
:104BB000EFCF42814111ECCF438154814A1B5B0B03
:104BC000483C510528F78091D6048F70806180930E
:104BD000D604F901E352FB4F80818F70806180839E
:104BE00081ED94E00E94D21DDF91CF911F910C9432
:104BF000AA0AAF92BF92CF92DF92EF92FF920F93E9
:104C00001F93CF93DF93CDB7DEB761970FB6F894BC
:104C1000DEBF0FBECDBF8C0185E0F801DE011D9621
:104C200001900D928A95E1F7F80180819181E280EF
:104C300021EDA22E24E0B22E6091D4047091D5040F
:104C40006115710509F43EC13091D1044091D2043F
:104C5000232F24232F3F09F435C1C380D480F09043
:104C6000D304F601E61BF70BFF2009F4FBC02091EB
:104C7000D604522F507FE83CF10508F0BBC051111B
:104C800078C0FE2C491321C038131FC0E1101DC08D
:104C90002F7020612093D604C5010E94D21D8091FF
:104CA000D604F80185838F2D61960FB6F894DEBF88
:104CB0000FBECDBFDF91CF911F910F91FF90EF906D
:104CC000DF90CF90BF90AF900895CD2829F0282F86
:104CD00029232F3F09F014C120E0F22FF170DF2EBD
:104CE00020FF3DC0209108054091D70456E02413D1
:104CF00015C08D879E878D859E850E94660D292F04
:104D000022952F702230F8F0243020F59F70F9F0B2
:104D1000F8019581907FD9F4D12C1FC030E0529FCB
:104D2000F001539FF00D1124E852FB4F618196135F
:104D300006C06081861303C06281E61210C02F5F37
:104D40003F4F2770D4CF9F7011F0882329F3805EE6
:104D5000883010F3C8010E94D21DFD2CA4CFEE2094
:104D600009F4A1CF8091D60481608093D604F12C00
:104D70009ACF491312C0381310C0E1100EC0F801C9
:104D80002583C8010E94D21D86E0F801A1EDB4E0A0
:104D900001900D928A95E1F786CF8D879E878D854C
:104DA0009E850E94700D882309F1EE20F9F0809114
:104DB000D604803270F02091D1043091D20438872B
:104DC0002F831986DB86CA868C87CE0107960E94C0
:104DD000D21D86E0F801A1EDB4E001900D928A9514
:104DE000E1F70E94A325FF24F3945DCFC8010E9440
:104DF000D21DF9CF51110AC081ED94E00E94D21D5D
:104E000086E0F50111928A95E9F7B1CF49130FC0F9
:104E100038130DC0E1100BC0F8012583C8010E94B2
:104E2000D21D86E0F50111928A95E9F73CCF8D8776
:104E30009E878D859E850E94700D8823B9F2EE2095
:104E4000A9F28091D604803220F22091D1043091D1
:104E5000D2043A8329831B82DD82CC828E83CE01E9
:104E60000196B5CFE83CF105E0F6FE2CEE2009F402
:104E7000BDCF491316C0381314C08091D60480FDED
:104E800083CF982F907F09F47FCFF8018583903FDF
:104E900009F477CF982F907F905F8F70892B85834F
:104EA00070CF8D879E878D859E850E94700D8111A4
:104EB00090CF8091D60481608093D604C8010E946F
:104EC000D21DF1CEEE2009F491CF8D879E878D857E
:104ED0009E850E94700DF82E882309F487CF86E006
:104EE000F801A1EDB4E001900D928A95E1F780916F
:104EF000D1049091D2040E94660D0E94A325D3CEC6
:104F000021E02E25EACE1F93CF93DF93CDB7DEB7F6
:104F100067970FB6F894DEBF0FBECDBF4B8B5C8B8F
:104F20006D8B7E8B8F8B1A8A198A85E0FE017396B2
:104F3000DE011D9601900D928A95E1F786E0FE0153
:104F40003D96DE01179601900D928A95E1F7CE010C
:104F500007960E94F925882389F016E080910805BC
:104F60009091D704891349C067960FB6F894DEBFB5
:104F70000FBECDBFDF91CF911F91089586E0FE0156
:104F80003796DE01119601900D928A95E1F78A8598
:104F90009B85892B11F38F81988589238F3FE9F2B7
:104FA0002091D70430E0C90101968770992740917C
:104FB00008054817190671F40E941E171092D704AD
:104FC0001092080586E0E1EDF4E0DF011D928A957C
:104FD000E9F7C3CF96E0929FD001939FB00D1124C3
:104FE000A852BB4FFE01319601900D929A95E1F7C0
:104FF0008093D7040E94AA0AB0CF819FC0011124D8
:1050000088529B4F0E94F925882309F4ADCF8091E7
:10501000080590E0019687709927809308059ECF38
:105020008F929F92AF92BF92EF92FF920F931F9336
:10503000CF93DF93EC017B01042F8091350680FF35
:1050400010C082E0413009F481E01F928F9387EB1A
:1050500093E09F938F930E9445070F900F900F90BE
:105060000F908090450590904605A0904705B09020
:1050700048050E941E1760E070E0CB010E94CB0F34
:1050800086E0080280011124CE15DF05A9F40E94F4
:105090001E178092450590924605A0924705B09252
:1050A0004805DF91CF911F910F91FF90EF90BF9036
:1050B000AF909F908F900895CE010E94D21DC00F97
:1050C000D11FE2CF1F920F920FB60F9211242F9390
:1050D0003F934F935F936F937F938F939F93AF9380
:1050E000BF93CF93DF93EF93FF93D091E900DF70ED
:1050F0008091EC00C82FC17080FDC0E81092E900DB
:105100008091F000877F8093F00078940E944C1784
:105110001092E9008091F00088608093F000CD2B20
:10512000CF70C093E900FF91EF91DF91CF91BF91D4
:10513000AF919F918F917F916F915F914F913F912F
:105140002F910F900FBE0F901F9018951F920F92E6
:105150000FB60F9211242F933F934F935F936F934A
:105160007F938F939F93AF93BF93EF93FF93809120
:10517000E10082FF15C08091E20082FF11C08091A2
:10518000E1008B7F8093E100209102062F5F822F48
:1051900062E30E946032992309F4E5C0209302067D
:1051A0008091DA0080FF28C08091D80080FF24C061
:1051B0008091DA008E7F8093DA008091D90080FFA1
:1051C00008C180E189BD82E189BD09B400FEFDCF3F
:1051D00081E08093290685E898E00E94AC068091E2
:1051E0000306811109C00E944E070E941908809190
:1051F000E20084608093E2008091E10080FF25C09E
:105200008091E20080FF21C08091E2008E7F809338
:10521000E2008091E20080618093E2008091D800FA
:1052200080628093D80019BC85E0809329068DE8C0
:1052300098E00E94AC0682E0809328060E94410B11
:1052400080916F00826080936F008091E10084FF05
:1052500046C08091E20084FF42C080E189BD82E1C6
:1052600089BD89B5982F917080FFFBCF8091D800C0
:105270008F7D8093D8008091E1008F7E8093E10044
:105280008091E2008F7E8093E2008091E200816055
:105290008093E20080912A06882309F4A4C084E068
:1052A0008093290681E998E00E94AC060E941E17AF
:1052B0000E94E00A0E94940D9091290681E09430AA
:1052C00009F080E0809328060E94410B80916F00D6
:1052D0008D7F80936F000E94E00A0E94940D809160
:1052E000E10083FF2FC08091E20083FF2BC08091FB
:1052F000E100877F8093E10082E08093290610928D
:105300002A068091E1008E7F8093E1008091E20087
:105310008E7F8093E2008091E20080618093E200C2
:1053200042E060E080E00E94E7078091F000886042
:105330008093F00085E998E00E94AC061092280660
:105340000E94410BFF91EF91BF91AF919F918F917F
:105350007F916F915F914F913F912F910F900FBE71
:105360000F901F90189510920206809101068823D5
:1053700009F416CF809129068430C1F49091E90098
:105380009F702091EC00822F817020FD80E8892B96
:1053900095E09093E9009091EB0090FF04C090910C
:1053A000EE0097FD08C08F708093E900109201060F
:1053B000F7CE1092F1009091E80095FDFACF909110
:1053C000E80090FFF0CF9091E8009E779093E8007E
:1053D000EACF19BC1092290689E898E00E94AC0631
:1053E0001092030609CF8091E30087FD93E090932C
:1053F000290658CFCDB7DEB7CE55D1090FB6F894F0
:10540000DEBF0FBECDBF84B7877F84BF0FB6F894D1
:10541000A895809160008861809360001092600080
:105420000FBE80E890E00FB6F894809361009093EF
:1054300061000FBE109228060E94410B85B780685C
:1054400085BF85B7806885BF0E944E070E941908F6
:105450008091E20084608093E20082EB91E190937E
:105460008D0180938C017894809129068823A1F086
:105470001091E9001F709091EC00892F817090FDD0
:1054800080E8182B1092E9008091E80083FD0E94CB
:105490004C171F701093E90082E084BD93E095BD26
:1054A0009AEF97BD80936E00579A6E9A269A5F98EE
:1054B00076982E988CEB97E09F938F930E944507E8
:1054C000229A269A879A219A2E988F9829980E9434
:1054D000E00D2AE22A95F1F700C085EB97E09F9353
:1054E0008F930E9445078AEA97E09F938F930E94CB
:1054F00045078E9A869A219A229A8E9A29982A98F6
:1055000083EA97E09F938F930E94450781B380635E
:1055100081BB85B1806385B98BB183618BB9469AB4
:105520000E942C0A90935F0580935E058FEF9FE0A9
:105530000E9425158FEF9FE00E9425158FEF9FE0B9
:105540000E9425150FB6F894DEBF0FBECDBF10E147
:1055500000E00E94EA0D8095082B5AE25A95F1F777
:1055600000C01150B1F790E080E00E94251590E056
:1055700080E00E94251590E080E00E94251570E1F2
:10558000F72E0E94EA0D182B6AE26A95F1F700C027
:10559000FA94F110F6CF102350E040E061E0812F43
:1055A0000E943B1590935D0580935C0550E040E0C0
:1055B00060E0812F0E943B15F82E092F80935A0539
:1055C00090935B054AE050E06FEF70E0CE010196EA
:1055D0000E94F83250915C0540915D058F2D902F0F
:1055E0008F3FAFE09A0714F08EEF9FE00196252FD2
:1055F000342F281739070CF49C016901C81AD90AFD
:105600007601EE0CFF1CEE0CFF1C57EF652E55E0EB
:10561000752EF30165E0A62EB12CC701B5010E94DD
:105620006C32C901861B970B81939193EC18FD088E
:10563000B6E0E130FB0789F78FEFC82E85E0D82E62
:1056400097EDE92E95E0F92E04E0412F602FF60149
:10565000929182916F010E942A165701F0E1AF0EDC
:10566000B11CF70168E081919191D5014D915D9157
:105670005D019F0122503109842B952BD9018D9317
:105680009C93615081F70150B0E1EB1AF1080111D0
:10569000DCCFF7EAEF2EF5E0FF2E4EE65AE0D70119
:1056A00087E090E0412E512C88248394912C520164
:1056B000082E02C0B594A7940A94E2F7E1E0AE2266
:1056C000BB24BA0130E020E0FB01C590D490CD2886
:1056D00091F0A114B10479F06401022E02C0CC0C47
:1056E000DD1C0A94E2F7ED91FC911197EC29FD295C
:1056F0001196FC93EE932F5F3F4F6E5F7F4F2C30E0
:10570000310511F701971296485E5F4F8F3F98075A
:1057100071F69E012F5F3F4F6D963FAF2EAF6D9795
:10572000E7EFCE2EE5E0DE2E590100E0F70148E07C
:10573000043009F08AC1A70160E0812F0E943B1567
:10574000D5018D939D935D01A70161E0812F0E949A
:105750003B15F601819391936F01F0E1EF0EF11C7F
:105760000F5F053019F7912C00E065E0E62EF12C73
:1057700070EF872EA92CB12C6701CA18DB08802F87
:10578000002E000C990B8C159D050CF46DC184E066
:10579000382E391825E0C216D10409F05FC22FEF68
:1057A0003FE0D3018D919D913D016D96EEADFFAD32
:1057B0006D97419151916D96FFAFEEAF6D97840F4C
:1057C000951F97FD019695958795805A9F4FF301F8
:1057D0003297811540E1940708F44FC2318320834A
:1057E00051E0651656E07506E1F60E942C0A2091FC
:1057F0005E0530915F05821B930B90935F0580934C
:105800005E05559A5D9A209A289AE5E6F5E0A9E7A3
:10581000B5E0119211921D921D9265E0E537F607F1
:10582000C1F790E080E00E94A8328C3E9E4F11F0BC
:105830000E946D1D8091350681608093350690E051
:1058400080E00E94A8328C3E9E4F11F00E946D1D98
:1058500088E190E00E94A232609360057093610538
:1058600080936205909363052091610526952695A6
:1058700026953091620533703295330F307E232B9D
:1058800020930401672B682B692B11F02111F8C1BB
:105890000E94E11C5A98529A80912806813011F496
:1058A0000E94EC0A8091350680FF44C082E198E0B6
:1058B0009F938F930E944507809135060F900F901C
:1058C00080FF38C08DEF97E09F938F930E9445072C
:1058D000809135060F900F9080FF2CC0809160055D
:1058E00081701F928F9382EE97E09F938F930E9417
:1058F0004507809135060F900F900F900F9080FF15
:1059000019C080916005982F9695969596958091EF
:10591000610583708295880F807E892B1F928F93FB
:1059200089EC97E09F938F930E9445070F900F900B
:105930000F900F90539A90E080E00E94A8328C3E26
:105940009E4F11F00E946D1D82E090E00E949A32FD
:10595000809335060E941017909376058093750505
:1059600083E090E00E949A32682F70E090E080E03F
:105970000E94521086E091E090937805809377051D
:105980008091810088608093810080918100816096
:10599000809381008FB7F89493E09093890090ED05
:1059A000909388008FBF84E798E00E94AC06209116
:1059B0007501309176016F963FAF2EAF6F97809152
:1059C0002906853009F45FC10E94D71A57E9652E70
:1059D00055E0752E69E7462E65E0562E10E000E092
:1059E0006C960FAF6C97D201ED90FD902D01F301F5
:1059F000A190B1903F01AE14BF0409F05BC10F5FED
:105A00001F4F0830110561F78FEF67968FAF6797CB
:105A100068968FAF689769961FAE69970E942C0AA7
:105A20008160782F6B969FAF8EAF6B9767964FAD67
:105A3000679768965FAD689769966FAD69976B9643
:105A40008FAD6B970E94832778C121913191DF013F
:105A500012978685978580959095822393238D93C1
:105A60009C93415091F767CE54E0880F991F5A9547
:105A7000E1F7FC01E955FA4F88E021913191232BA0
:105A800009F098C48150C9F755245394500E09C0A9
:105A9000AE014F5F5F4F652D8FEF850D0E94E016C1
:105AA00053945C141D04A4F3482D95014203F001A6
:105AB000439FF00D1124E951FA4F88E011921192A1
:105AC0008150E1F7939456CE880F991FFC01E9505D
:105AD000FA4FA1E0B0E0AC0FBD1F8A0F9B1F4081C1
