:020000041000EA
:1000000000B5324B212058609868022188439860DF
:10001000D860186158612E4B002199600421596104
:100020000121F02299502B49196001219960352056
:1000300000F044F80222904214D00621196600F024
:1000400034F8196E01211966002018661A6600F04E
:100050002CF8196E196E196E052000F02FF8012189
:100060000842F9D1002199601B49196000215960AB
:100070001A491B48016001219960EB211966A021F2
:10008000196600F012F800219960164914480160C1
:100090000121996001BC002800D000471248134993
:1000A000086003C880F30888084703B5996A0420EC
:1000B0000142FBD001200142F8D103BD02B5186610
:1000C0001866FFF7F2FF186E186E02BD00000240BE
:1000D000000000180000070000035F00212200005C
:1000E000F4000018222000A00001001008ED00E03C
:1000F000000000000000000000000000070B8FD58A
:10010000000404209D020010913F00109F02001087
:100110009F0200109F0200109F0200109F0200101B
:100120009F0200109F0200109F0200109F0200100B
:100130009F0200109F0200109F020010AD3E0010B1
:100140009F0200109F0200109F0200109F020010EB
:100150009F020010013C00109F0200109F0200103F
:100160009F0200109F0200109F0200109F020010CB
:100170009F0200109F0200109F0200106D3F0010B0
:100180002D3F00109F0200109F0200109F020010E0
:100190009F0200109F0200109F0200109F0200109B
:1001A0009F0200109F0200109F0200109F0200108B
:1001B0009F0200109F0200109F0200109F0200107B
:1001C00072B6254880F30888244880F30988022005
:1001D00080F31488BFF36F8F21482249086003F031
:1001E0000EFD03F038FF204820491B4A914202DAF5
:1001F00008600431FAE71E49184A914202DA0860A1
:100200000431FAE71B491C4A1C4B9A4204DA08687D
:10021000106004310432F8E700201949194A91426C
:1002200002DA08600431FAE703F0FCFE03F014FF81
:10023000154C164DAC4203DA216888470434F9E7BF
:1002400007F05EF9124C134DAC4203DA216888477F
:100250000434F9E71049084700040420000C042086
:100260000001001008ED00E0555555550000042030
:1002700000040420589E0010000000205C050020AF
:100280005C050020B4240020C0010010C001001053
:10029000C0010010C00100105540001090E700F0B0
:1002A00000F8FEE7F0B544464D4656465F46F0B4CA
:1002B0006B46CB60C3689D46F0BCA046A946B246DB
:1002C000BB46F0BD03F02AFE62B6281CA047002002
:1002D00003F072FEFEE703F083FE024A024B136056
:1002E000FEE7C04604ED00E000000080F0B5CE4619
:1002F000474615042D0C2E0080B50704140C3F0C46
:100300009946030C7E435D43674363437F19340C76
:10031000E4199C46A54203D980235B029846C44455
:100320004B4643435143250C36046544360C2404A4
:10033000A4195B19591820000CBC90469946F0BDD1
:1003400002B4714649084900095649008E4402BC6E
:100350007047C04602B4714649084900095C49002B
:100360008E4402BC7047C04603B471464908400041
:100370004900095E49008E4403BC704703B47146CE
:10038000490840004900095A49008E4403BC70479F
:1003900003B471460231890880008900085840186A
:1003A000864603BCF746C046002243088B4274D3FE
:1003B00003098B425FD3030A8B4244D3030B8B4266
:1003C00028D3030C8B420DD3FF22090212BA030C6F
:1003D0008B4202D31212090265D0030B8B4219D350
:1003E00000E0090AC30B8B4201D3CB03C01A524170
:1003F000830B8B4201D38B03C01A5241430B8B42B8
:1004000001D34B03C01A5241030B8B4201D30B03A0
:10041000C01A5241C30A8B4201D3CB02C01A5241C7
:10042000830A8B4201D38B02C01A5241430A8B428A
:1004300001D34B02C01A5241030A8B4201D30B0273
:10044000C01A5241CDD2C3098B4201D3CB01C01A8D
:10045000524183098B4201D38B01C01A5241430997
:100460008B4201D34B01C01A524103098B4201D385
:100470000B01C01A5241C3088B4201D3CB00C01AF2
:10048000524183088B4201D38B00C01A524143086A
:100490008B4201D34B00C01A5241411A00D201468F
:1004A000524110467047FFE701B5002000F0F0F818
:1004B00002BDC0460029F7D076E7704703460B43DC
:1004C0007FD4002243088B4274D303098B425FD34D
:1004D000030A8B4244D3030B8B4228D3030C8B4279
:1004E0000DD3FF22090212BA030C8B4202D312125F
:1004F000090265D0030B8B4219D300E0090AC30B34
:100500008B4201D3CB03C01A5241830B8B4201D3E0
:100510008B03C01A5241430B8B4201D34B03C01AC9
:100520005241030B8B4201D30B03C01A5241C30A41
:100530008B4201D3CB02C01A5241830A8B4201D3B2
:100540008B02C01A5241430A8B4201D34B02C01A9C
:100550005241030A8B4201D30B02C01A5241CDD241
:10056000C3098B4201D3CB01C01A524183098B428C
:1005700001D38B01C01A524143098B4201D34B0175
:10058000C01A524103098B4201D30B01C01A5241D8
:10059000C3088B4201D3CB00C01A524183088B425F
:1005A00001D38B00C01A524143088B4201D34B0048
:1005B000C01A5241411A00D20146524110467047BA
:1005C0005DE0CA0F00D04942031000D340425340BF
:1005D00000229C4603098B422DD3030A8B4212D37F
:1005E000FC22890112BA030A8B420CD389019211B1
:1005F0008B4208D3890192118B4204D389013AD0EE
:10060000921100E08909C3098B4201D3CB01C01AC2
:10061000524183098B4201D38B01C01A52414309D5
:100620008B4201D34B01C01A524103098B4201D3C3
:100630000B01C01A5241C3088B4201D3CB00C01A30
:10064000524183088B4201D38B00C01A5241D9D248
:1006500043088B4201D34B00C01A5241411A00D2C9
:100660000146634652415B10104601D34042002BC5
:1006700000D54942704763465B1000D3404201B544
:10068000002000F005F802BD0029F8D016E77047F9
:100690007047C046002B11D1002A0FD1002900D18C
:1006A000002802D00021C943081C07B4024802A157
:1006B0004018029003BDC046D9FFFFFF03B468464F
:1006C00001B5029800F006F8019B9E4602B00CBCF2
:1006D0007047C046F0B557464E464546DE46E0B543
:1006E000040083B00D00924699468B4230D82DD03D
:1006F0004946504600F0C0F829000600200000F0EE
:10070000BBF8331A9846203B9B4633D45A4653468F
:10071000934042461F00534693401E00AF423AD8D2
:10072000AF4200D17BE05B46A41BBD41002B00DA49
:1007300078E0002200230092019301235A4693405F
:100740000193012342469340009328E08242CFD98F
:1007500000220023009201930C9B002B01D01C600F
:100760005D600098019903B03CBC90469946A24652
:10077000AB46F0BD424620239B1A5246DA40414622
:1007800013004A468A40170042461F43534693408F
:100790001E00AF42C4D900220023009201934346B9
:1007A000002BD9D0FB079C46614672080A437B08A0
:1007B00046460EE0AB4201D1A2420CD8A41A9D419C
:1007C000012024196D410021013E24184D41002EC5
:1007D00006D0AB42EED9013E24196D41002EF8D16E
:1007E000009801995B4600196941002B25DB2B001D
:1007F0005A464446D3402A00E2401C005B4615009E
:10080000002B2BDB26005F46BE4033002600474608
:10081000BE403200801A9941009001919CE7A342AA
:10082000B9D880E74246202300219B1A002200917C
:1008300001920122DA40019283E7424620239B1A6B
:100840002A0046469A402300F340444613432A00B8
:10085000E2401C005B461500002BD3DA2023424601
:1008600026009B1ADE402F00B4464646B740664637
:100870003B003343CAE7C04610B5002903D100F05E
:1008800007F8203002E0081C00F002F810BDC04656
:100890001C2101231B04984201D3000C10391B0AB0
:1008A000984201D3000A08391B09984201D3000974
:1008B000043902A2105C40187047C04604030202CB
:1008C000010101010000000000000000F0B505007A
:1008D0000C2485B00F00110E1202019201981A002B
:1008E00000230291FFF7D6FE6C43274B0600E41865
:1008F00063680391834200D260602B1FDBB20093D8
:10090000C023009A9B012343012A2ED8012F2CD10A
:1009100003221A603B00A2681A42FCD0E02223683E
:1009200013408022520122431360009B012B09D8FF
:10093000032123687B400B4013600123BB40A26866
:100940001342FCD0802380229B01234312011A60B2
:100950000198039B666032000299FFF79BFE0B4BE8
:10096000AD00E850012005B0F0BD802212011A60F0
:10097000064BAA00D1580029D0D05869FFF714FDC2
:1009800001300138FDD1C9E700800040A40B0020F0
:1009900070B5040008001E491500FFF705FD802210
:1009A00023682D0492012A43002B0FDA3F2123688C
:1009B0000B40012B0AD1A3681B051B0D984205D1E2
:1009C000EE21E368C9020B409A421CD0114B9C42B5
:1009D0001AD080235B011049104D0B6010490B6049
:1009E0001E00A9688E43FBD101232360C023211D73
:1009F0009B010B432121A060196021680029FCDACA
:100A0000E26008221A6070BD80239B01E3E7C046C4
:100A1000001BB70000C0024000E0004000C00040E2
:100A200000F000408322274B920010B5DA620022CA
:100A3000AA21254B09019A67244A254811602F21D4
:100A4000D1602449086051680029FCDA0121224A5A
:100A500011605A6C012AFCD10321204A11609C6B61
:100A6000012CFCD106221E491E48FFF791FF0522EA
:100A70001D491E48FFF78CFF1D4B02211A00042060
:100A8000FFF724FF1B4B21001A000520FFF71EFF74
:100A9000194B00211A000720FFF718FF164B002101
:100AA0001A000820FFF712FF144B134A00210920F7
:100AB000FFF70CFF0F4B00211A000620FFF706FF7F
:100AC00010BDC0460080054000800040004002404C
:100AD00000B0FA00006002403CB0004030B000407E
:100AE000002F68590080024000389C1C00C0024062
:100AF000001BB70040597307006CDC021BB70000F5
:100B000010B5002903D101240A4A0B4BD4500B4ADB
:100B1000CB009B188022DC6F12012243DA6701228E
:100B20000231890041184B685B695A7500229A7539
:100B300010BDC04600001150682000000400105095
:100B400010B5002903D102240A4A0B4BD4500B4A9A
:100B5000CB009B188022DC6F12012243DA6701224E
:100B60000231890041184B689B69DA7400221A75BA
:100B700010BDC04600001150682000000800105051
:100B8000F0B5002930D11D4BDD6C8B1C9B00C018CB
:100B9000406801228469267DA27433005F1EBB4138
:100BA000724022752668408A5F03B04200D9300047
:100BB0008023DB000343124A9BB23B43134062682D
:100BC0008018864202D88022D20113430D4A154074
:100BD00080229205154300290BD1084AD5640A4AA0
:100BE000C90089184B60F0BD084ACB009B185D68AE
:100BF000CBE70648CA0012185560F0E70000115014
:100C0000FF7FFFFFFFFFFFAF80001050000010507C
:100C10007F220138C31713401B18DB110133DB019E
:100C200002329BB2FF3210B593420ED0FF248022D5
:100C30000749D200240259181000214204D0181C80
:100C4000934200D9101C80B210BD80208000FBE7C9
:100C500080FDFFFFF0B58B1C9B00C3185F6885B05B
:100C600000900C1E7E69BD6910D14023414AB383B8
:100C7000B261B182B175698229758021AA61AB83A5
:100C80003D4A3E4B8905D15005B0F0BD002E38D00D
:100C90003B4BCA00D31803933A4BD2180023D367B7
:100CA000B3753A68B3820192012A5FD1388AFFF79F
:100CB000AFFF802202239200904208D080220133AD
:100CC000D200904203D0431EFF3B5A425341DB0601
:100CD0000293009AE23294466346118842008A18D1
:100CE0001A80294BB083CA18019B8131B261FF3150
:100CF0009A060A43802109060A430399029B04C10C
:100D0000CB67002DC0D01E4BE400E6181F4B4020DF
:100D1000E4180023E3672B753C686B82012C11D12A
:100D2000388AFFF775FF802202239200904208D094
:100D300080220133D200904203D0431EFF3B5A422F
:100D40005341DB06009AA406E23211884718178047
:100D50000D4AA8838A18AA6180228131FF310C4391
:100D60001206144374600836F3678DE7029340203F
:100D7000AFE7C04600011050000011504C200000A9
:100D80000000105004001050800110500800105056
:100D900010B50E4C0E4B20000021E360FFF75AFF08
:100DA00000230C4AE2341360012223800A49D00058
:100DB0000A4C4018D1000C198360E367C3600848EF
:100DC00001320918CB670F2AF0D110BD8006002030
:100DD000C892001000001150F8FF0F50040010508E
:100DE00008001050034B1A6882431A609A68104238
:100DF000FCD0704700C00040BFF35F8FD023BE22FD
:100E00001B0652009B5062B6704772B6D021BE22BC
:100E1000090652008B58002BFCD0BFF35F8F704740
:100E200070B50E0001210C00B4400500408920433C
:100E30006881B01C8000281840688469A260002284
:100E400023606260E260934205D0418A013B5818FA
:100E5000FFF7AAFA81B2218228003100FFF790FE45
:100E600070BD00000300020010B5D6331B78DE32DF
:100E700013707F221340064A0400136043681B6806
:100E8000002B01D0012198470323237010BDC046D9
:100E900000001150036910B51960C268013AC260C0
:100EA000C2699B1882690361934201D3436A03615B
:100EB00000238362036B002B00D0984710BD436969
:100EC00002699A4203D1C2680020824202D118000E
:100ED00008C80B607047C368C269013BC3604369BF
:100EE00010B59B1882694361934201D3436A436101
:100EF00000238362036B002B00D0984710BD0000D5
:100F000010B5FFF782FFEFF30983203B83F30988D5
:100F100080225204DA61D02212061168064A890042
:100F2000521852681168D26888689168034A8842EA
:100F300000D9034A9A6110BD880B0020DA02001024
:100F4000D7020010FEE700238268037503691B685F
:100F500099689142FBD25A68036042601060586001
:100F6000704710B50C00FFF750FF207D052807D80B
:100F7000FFF7F0F90C060603130F0022A3691A60AD
:100F800001235B42A3612000FFF7DDFFFFF734FF81
:100F900010BDA2699368013393606268236813608F
:100FA0005A60EDE7D0231B061968084A89005218D9
:100FB0005268016910B5914205D01A6D920702D5A9
:100FC000012252425A65FFF7BEFF10BD880B002078
:100FD00070B5022504006D422068844200D170BDC6
:100FE000036823605C608561FFF7DCFFF4E770B5A0
:100FF00005000E000468AC4200D170BDE3683343C5
:10100000E360236933420AD06068A368C26913436E
:10101000027DC3610A2A04D182691A4207D1246879
:10102000E9E70B2AFBD1826913409A42F7D10023EA
:101030008361FFF7B7FFF2E7036810B5002B05D017
:101040000022026099611800FFF7ACFF10BD00009C
:10105000D0231B061A68094B92009B185968036835
:1010600010B59A68846812199A60426813605A60D1
:1010700000230360013B8B6110BDC046880B00203C
:1010800010B503689C68A2420CD85C688A600B604B
:101090004C602160596099688A1A9A6001235B420A
:1010A000836010BD121B1B68ECE7000070B50D4C8F
:1010B000050023680E00002B02D02000FFF7C8FFB8
:1010C000D0231B061A68084B92009B185868074BE0
:1010D0002A00E36000231030210026616361FFF7DE
:1010E000CFFF70BD440D0020880B0020812C001024
:1010F00070477047C26F70B51468030021780120F3
:10110000042919D1197A022916D105005179628969
:101110008D40154210D1DA691D6AAA4202D19D693B
:10112000002D09D104320120002A05D09B6A20003D
:10113000043BFFF775FE002070BD2131890010B51A
:101140000C58002C2CD0FFF760FE0421201DFFF767
:101150004EFF2100E36F0C311A685B7902339B006C
:10116000D3185B689B695A68E3691A60A269013207
:10117000A261A26A9B18626AE361934201D3236B66
:10118000E361E068814206D00368E36059600023B0
:101190008361FFF707FF2000FFF7ACFFFFF72CFE8E
:1011A00010BD10B5406BFFF7A5FF10BD37B56B46FE
:1011B000D91D0023074C087022789A4200D132339F
:1011C00005480268D5690122A8474342434140B21D
:1011D00023703EBD44140020580300207047704720
:1011E000014B18787047C0465C0D002070B50500B3
:1011F000D4352A787F21130004000B40212B00D026
:101200008FE013008B432FD0802B00D089E00300A8
:10121000D533187802281ED0032810D0012800D01A
:101220007FE003331B78002B00D069E022005E4989
:10123000C832116020215160D034236070BD23007A
:10124000D8331B88002B6CD1220001205749C832AB
:1012500011605060F0E723000120554AC8331A603E
:101260005860D0340023E8E70300D5331B780A2BFD
:101270004DD00B2B13D0092B53D10300D8331B783F
:10128000002B01D0022B4CD123004A4AC8331A60EC
:1012900002225A60484BD03423600120CEE703007D
:1012A000D8331B88002B2BD10300D6331D7843483D
:1012B0002A00531E9A41D3B23C4A13700278DB01D4
:1012C0000A4013430370002D1AD1394E3378002B96
:1012D00016D0FFF79AFD3A4A002330782900FFF72D
:1012E00005F80023374A80185941FA22002392005A
:1012F000FFF7D0F921008000FFF7D8FEFFF77CFD53
:1013000022000023C83213605360D034C4E70300C6
:101310002A4AD7331B78264E15783370ED09EFD162
:10132000D5E7294B298899420BD0284B1900C231A7
:101330000978002921D126495B5C002B1DD10020B2
:101340007CE72300D9331A78013B1B781202134340
:10135000210022006068D632D731456812780978BA
:101360002000A8470028EAD023004268C8331A604A
:1013700002685A60D03400238EE760231A40202A86
:10138000DDD12300D5331B780020202B00D255E778
:10139000212B02D9222BB3D050E723000D4AC833AA
:1013A0001A600722E5E7C0465D0D002040050020D9
:1013B000400D00208C130020D91300107E0D00205A
:1013C00010270000E70300008106000078020020DB
:1013D0002202000041050020DA30084A0178137823
:1013E000022907D1012B01D0062B02D15278044BE0
:1013F0001A707047024A1370FBE7C0468C13002036
:101400005C0D00200F2230B507490C78631C134097
:10141000064A157800229D4203D0054A0B701055EC
:101420000122100030BDC046480C0020490C0020AD
:10143000380C002009020A4311B2120A032A12D002
:1014400006D8012A25D0022A26D00023180019E048
:10145000212A11D0222AF8D1032BF6D8104A99005C
:101460008858104A06E0CBB2032BEED80E4A9900FA
:1014700088580E4AD35C05E0032BE6D80C4A9B0043
:10148000985809230B4A50601360002800D01000C0
:10149000704712230848F5E77B230848F2E7C04667
:1014A0009C8F0010AC8F0010448F0010548F0010E0
:1014B0008C8F0010E80B00204D900010B08F0010B2
:1014C0001423188804331B88034910B5984700215A
:1014D000030008009847C04655420000064B10B56F
:1014E0001A88824206D01880044B1B68002B01D05A
:1014F0001B69984710BDC046800D0020F00B0020EE
:10150000064B10B51A88824206D01880044B1B681F
:10151000002B01D0DB68984710BDC046AA0D002003
:10152000F00B0020034B10B51B68181E01D01B6880
:10153000984710BDF00B002020B585780123002DC1
:1015400006D0037A29401B0704D54B1E9941CBB224
:10155000180020BD0F232A002D091A400B4009094D
:101560002A430B43D31A58424341DBB2F0E7000051
:1015700010B5104C0A21A088FEF716FF0E4B0A2169
:101580001870E2880D4B1A7062890D4B1A70A2898F
:101590000C4B1A70E089FEF707FF0B4B1870228A7C
:1015A0000A4B1A70628A0A4B1A70A28A094B1A7087
:1015B00010BDC0465C0600204C0500204D050020F3
:1015C0004E0500204F050020500500205105002049
:1015D0005205002053050020024B1A88024B1A8046
:1015E0007047C0465C0600205A020020002210B559
:1015F000064B074C074808495A6101329C60D86085
:1016000019611833042AF7D110BDC046CC1300204D
:101610006D430010D1420010B1410010B823DB012E
:10162000984205D1034B1B685A1E93415B421840F8
:101630007047C0465805002010B55200054C1218DE
:10164000091A035BDB430B5202309042F9D10120AF
:1016500010BDC04600E01F1010B5EFF3108372B646
:10166000044C236007F064FC236883F31088012096
:1016700010BDC046500C0020044A054B0220D15C2E
:10168000002902D000210138D1547047AC14002049
:1016900004100000044A054B0220D15C002901D14E
:1016A0000138D0547047C046AC140020041000002C
:1016B000F0B58FB0FFF7EEFF0B90EFF3108372B62B
:1016C0008022FF20324E334F1201310040033B6035
:1016D00007F026FC3B6883F3108880200021B44685
:1016E0002D4A2E4B40016646775C1D0057403B0259
:1016F000099300233C0008933A002B0012196B4118
:101700003F0F2E013E43019626010096009E019F49
:1017100092197B4112196B41E70E6E013E4303960D
:1017200066010296029E039F92197B41670EEE01AD
:101730003E430596E6010496049E059F92197B415F
:10174000270E2E023E43079626020696069E079F08
:1017500092197B41089E099F013192197B41814278
:10176000C1D10C920D93EFF3108372B6094C042291
:101770000CA90B48236007F0D3FB236883F3108880
:101780000B9B012B01D1FFF777FF02200FB0F0BDBB
:10179000AC140020500C002025232284E49CF2CBC2
:1017A00000F01F0070B58024084D6401084B2A59D1
:1017B00001209A4209D9FFF74FFF0300002083421E
:1017C00003D0FFF775FF034B2B5170BDAC14002005
:1017D000FF1F00000810000073B580246A460C4DFE
:1017E0006401911D2B590880EFF3108272B6094EE7
:1017F0003260FF2252039818012207F091FB3368F0
:1018000083F310882B5902332B51FFF7CBFF76BDA2
:10181000AC140020500C0020022210B53B4B9A560D
:10182000F0280AD1D9787F290DD90021D9708A42B0
:101830000BD10021364A117007E0F1280ED10321A7
:1018400059560029F1DC002A0ED01A795B7913432E
:101850005BB2002B01D12F4A137010BDF22808D1C2
:10186000002AF0DA00229A7003229A56002AECD15C
:10187000DFE7F32802D1002AF4DCE4E7042159561B
:10188000F92804D10029DEDD00211971DBE7FA28EF
:1018900002D10029D7DAF7E705215956FB2804D1F0
:1018A0000029D0DA00215971CDE7FC2802D10029A6
:1018B000F8DCC8E7F42804D15978F338814359702B
:1018C000C1E7F528F8D0F62802D15978F238F5E7C3
:1018D000F72802D15978EF38F0E7F82802D1597883
:1018E000E838EBE7FD2805D101240B480178A14336
:1018F0000170A8E7FE2803D1074802240178F6E723
:10190000FF28A0D1044804240178F0E7E412002065
:10191000EB120020EC120020EA12002010B5154B4B
:101920001A7801231A4207D0134B1B789B08012019
:10193000002B0ED0D8B20CE0910703D50E4B1B78CC
:101940005B08F4E7520705D50B4B1B787F208342D9
:10195000EDD910BD094A1278002AEBD0084B19784E
:10196000054B18788A4201D383B2EFE75043FEF764
:10197000A5FDF9E7EA12002052050020EC12002034
:101980005305002010B5184B1A78184B1B89D10746
:101990000CD5174A107843439B109BB27F2083429B
:1019A00003D87E38002B00D0D8B210BD910704D5E3
:1019B0000F4A107843435B10EFE7520703D50C4AF8
:1019C00010784343E9E70B4A10780028E6D00A4A2A
:1019D0001178074A127853438842DED25843FEF703
:1019E0006DFD83B2DAE7C046EA1200205C060020F3
:1019F0004E050020EB1200204F05002010B5F02806
:101A000005D1FFF7BFFF4042314BD87010BDF12820
:101A100002D1FFF7B7FFF7E7F22805D1FFF7B2FFD2
:101A200040422B4B9870F1E7F32802D1FFF7AAFF51
:101A3000F7E7F92804D1FFF771FF254B1871E5E7A7
:101A4000FA2803D1FFF76AFF4042F6E7FB2805D1E9
:101A5000FFF764FF40421E4B5871D7E7FC2802D1C4
:101A6000FFF75CFFF7E7F42805D10123184A517806
:101A70000B435370CAE7F52803D1154A0223517866
:101A8000F6E7F62803D1124A04235178F0E7F72845
:101A900003D10F4A08235178EAE7F82803D10C4A0A
:101AA00010235178E4E7FD2805D10123094A117874
:101AB0000B431370AAE7FE2803D1064A02231178CC
:101AC000F6E7FF28A2D1034A04231178F0E7C046C5
:101AD000E4120020EA12002010B5024B1B68984760
:101AE00010BDC0463C0500200300DA680800511C08
:101AF00010B5D96019698A4204D21C68002C02D042
:101B00005968A04710BD9B689854FBE7F7B51F00C4
:101B1000C36804000093089B019115009B070DD03A
:101B2000002D0DD1089B9B0715D4F7BD2021200067
:101B3000FFF7DAFF0136BE42F8D3F1E71600FAE705
:101B4000019B013D595D2000FFF7CEFFE8E7202112
:101B50002000FFF7C9FFE368009A9B1ABB42F6D347
:101B6000E3E70000F0B58FB0049003921D00169CCF
:101B7000002923D123051DD4302206AB1A7010236F
:101B800001319C430A00A30744D40123159A234042
:101B9000002A0BD00A00002B3CD0039A002A02D165
:101BA0000C32144202D0159A013A15920A0006A886
:101BB000302628E0102DE5D1AC43E3E76123A206EF
:101BC00000D541230F000026DBB20A3B0593290014
:101BD0003800FEF76FFC059BCAB2D3188446DBB20F
:101BE000092902D813003033DBB2082004AA1218E6
:101BF000711C9355BD42C5D80E002029C2D067463E
:101C0000E5E716540132002B04D0159F974201D905
:101C1000202AF6D106A8302301E083540132149E15
:101C2000964201D9202AF8D1082D03D1914201D240
:101C300010239C43274B1C4225D0230537D4002A70
:101C400035D0149B934202D0159B93422FD19142E1
:101C50003CD2013A002A2AD0102D25D0022D0DD1D8
:101C60008A4223D801E0022D08D11F2A26D86223F8
:101C700002E058231F2A21D8835401321F2A1DD87D
:101C80003023835401321F2A18D8039B002B03D022
:101C90002D238354013211E0630701D52B23F8E78C
:101CA00023070BD52023F4E7914202D2013A102DED
:101CB000D9D1A306DDD478231F2ADDD901000094F1
:101CC000159B0498FFF722FF0FB0F0BD102DC5D172
:101CD000EFE7C04610200000F0B5070015008BB0FC
:101CE0000591059B1978002911D13B68002B0BD178
:101CF0003A69002A08D0B968002905D0FB689A42E1
:101D000000D8531E0022CA54F8680BB0F0BD059BE2
:101D1000002001330593252900D0DBE00824243975
:101D2000059B059A1B7801322B2B16D00BD8202B44
:101D300015D0232B15D019003039092933D80023A9
:101D40000A24049315E02D2B04D0302BF3D1084343
:101D50000592E5E702231843FAE70423FBE7204353
:101D6000F6E71023F7E7049B05916343303BD31854
:101D70000493059B1A78591C1300303B092BF2D9A8
:101D8000059B1B782E2B4ED1802212011043059A01
:101D9000059B5278013311003039092939D80A22BC
:101DA0000026944613E0002104912A2BE8D108CDA7
:101DB00004938B4204DA02231843049B5B4204938E
:101DC0000592DDE763465E432300303E96191A789C
:101DD0005C1C110030390929F4D919785A1C6C2976
:101DE0002BD023D8682930D06A2936D01A00117830
:101DF000531C0593692937D063D8622900D126E1A5
:101E00002ED8252966D0582964D120231843103BA9
:101E10003AE000262A2AE0D140CDF343DB171E40EA
:101E2000059B0233D9E7059B0026D6E7742901D02C
:101E30007A29DBD180239B000BE059786C29F9D1FA
:101E4000C022D20010439A1CD1E75978682902D0E9
:101E500080231843CBE7C022F4E78023DB00F8E7B8
:101E6000632969D0642935D18023DB01184378299F
:101E700038D05829C9D06F2900D1E6E0622900D1B5
:101E8000E5E010239843063B020501D5012290436B
:101E90008022D200024041042ED5002A00D020E743
:101EA0002C1D296882051FD5CD1702900498CA0FF2
:101EB00049196940019000963800FFF753FE25004C
:101EC0000FE7732959D009D86F2900D1BDE07029D7
:101ED00000D1A3E03800FFF707FE02E77529D0D054
:101EE0007829F7D11023CFE7420601D549B2DBE7C5
:101EF0000206D9D509B2D7E7002A00D0F1E60C21B5
:101F000004008C43A4462C1D810506D56146029130
:101F10000499009601912968CEE72968420607D501
:101F2000C9B262460292049A009601920022C3E767
:101F30000206F6D589B2F4E70224012604400AD14C
:101F4000012304E020213800FFF7CEFD3300049A7E
:101F50005E1C9A42F6D802CD3800C9B2FFF7C4FD24
:101F6000002C00D1BDE6049BB34200D8B9E6202185
:101F70003800FFF7B9FD0136F5E72B0004CB0692D8
:101F80000793002A08D10090049B062231493800AB
:101F9000FFF7BCFD079DA4E6331E00D12E4B069A29
:101FA0001500D3182A78002A01D0AB4214D1069B21
:101FB000ED1A80231B010340089302D0B54200D9DB
:101FC000350002230340099304D1049B6C1CAB42EF
:101FD00004D82500069C0BE00135E3E720213800FA
:101FE000FFF782FD2500F0E738000134FFF77CFDA4
:101FF0002178002906D0089B002BF5D0069B9B1961
:102000009C42F1D1099B002BC4D0049BAB42C1D9A7
:1020100020213800FFF768FD0135F6E70F4C02CDAF
:102020000443002907D100940A2305220C493800F3
:10203000FFF76CFD55E60A230294019300960633E0
:1020400000223800FFF78EFD4BE608231CE7022331
:102050001AE7C046409D0010FFFFFF7F01200000EF
:10206000479D001010B50400FEF7CFFE0123D022DB
:10207000A34012069362064AE3009B1805225A60A9
:10208000044BA400E4184A236360FEF7B5FE10BDBC
:102090000040014000C001400020704730B50424DA
:1020A00027490A78224205D018230340082B27D15C
:1020B00098432043130708D518240500142325400E
:1020C000A54225D1A843C0B2184301244978214232
:1020D00006D018230340082B21D19843C0B22043D7
:1020E0008B0708D51821040011230C408C421FD106
:1020F000A043C0B21843D30601D5E723184030BD32
:1021000014230340042BD5D1984304331843D1E75B
:102110000340142BD9D19843C0B22043D5E71123F3
:102120000340012BDCD19843C0B207331843D7E7F3
:102130000340112BDFD19843C0B20843DBE7C04610
:102140007E0D002070B50400822829D032D83128B5
:1021500000D188E020D8292800D17AE02A2800D1AF
:1021600087E0924B9C4200D9A4E0FF3B9C4200D305
:10217000E9E0E72C00D98BE0E02C59D2A72C00D95C
:102180007DE0A52C00D3D6E0012C51D023B2002B4A
:1021900038D0042C36D34BE0352855D03928E0D13F
:1021A000834B1A78920700D0F9E05B781B07D8D5EB
:1021B00029243DE0E32827D00BD8E02816D0E228D8
:1021C000CFD17B4B1B785A0732D5E324DB0619D4D9
:1021D0002EE0E62828D0E7282CD0E428C1D1744B83
:1021E0005A78920724D51B78E724EFE7704801213D
:1021F000027813000B4034D14078084218D0E32411
:10220000D20615D5002413E0694A1378590700D582
:10221000C3E05278D20700D5C1E0102213405A42E1
:1022200053415B421C4003E0614B1B781A07DBD42F
:10223000201C70BD5E4A1378190700D5B1E05278B2
:102240009207EAD5E424F3E7594B1B789B06EFD5B8
:10225000AEE7574B1A78920600D5A4E05B781B07CF
:10226000E6D53924E4E7524B1B785B06E0D52A24F7
:10227000DEE74F4B1B785B06DAD53124D8E7BE2C5E
:10228000C0D85834E4B24B4B6400E05A882457E07D
:10229000494A944205D8FF2CCAD8F02CB2D31C432B
:1022A000C6E78023DB019C42ACD344480440A02015
:1022B000000246E0424B9C4212D8FF3BE0B29C42F7
:1022C0005AD2404B9C424ED8FF3B9C4248D30324F9
:1022D000830804400120A0405B0118433A4C3CE0D5
:1022E0003A4B9C4210D8FF3B9C4248D2384B9C4210
:1022F00000D987E7E0B2FFF7D1FEF82400026401BD
:1023000020400134FF341CE0324B9C423AD9324B1E
:10231000294AE3189BB2934200D973E7E004C00E48
:10232000FFF7BCFEF82300025B011840E4B204434F
:102330008020800105E05B34284BE4B2185D8024E6
:10234000E401044374E70323E4B2A00818401C40EE
:10235000023BA3404001224C18430443A4B267E768
:102360000002204CEDE70324830804400120A04034
:102370005B0118431C4CF0E700021C4CE1E7200213
:102380001B4CEAE70F2520002840FFF787FE2409B1
:102390002C40240204431748DFE7E22448E7E02406
:1023A00046E7E62444E7352442E7C046FF500000F4
:1023B0007E0D00205C8F0010FF1F0000FF0F00004B
:1023C000FF540000FF520000008CFFFFFF58000088
:1023D000FF550000FF59000000A0FFFF588F0010BC
:1023E000008DFFFFF1A00000008AFFFFF4A00000B5
:1023F000F0A0FFFF0090FFFF024A137883431370A1
:102400007047C04680130020024B1A7810431870A2
:102410007047C0468013002010B5114B1B78002B6D
:1024200010D0104B1B787F2B0CD9C2081D2A08D85E
:102430000D4B01219B180722104081409A788A4356
:102440009A7010BD06230021074A9478844200D177
:102450009170013BDBB20132002BF6D1F1E7C046AF
:10246000400500207E0D00206407002070B5154B4C
:102470001B78002B11D0144B1B787F2B0CD9C30871
:102480001D2B08D8114AD21807231840063B834059
:1024900091780B43937070BD002301220B49524287
:1024A000CC18A4785DB2A042F5D0561C02D1002C05
:1024B00000D12A000133062BF2D1531CEBD08A182D
:1024C0009070E8E7400500207E0D002064070020A2
:1024D000F7B50E4C0E4B24781B7801940D4C019DE2
:1024E000AB4201D10020FEBD0A265E43A5196F78DC
:1024F0008F4205D1365D864202D1AD78954203D137
:10250000072501332B40EAE70120ECE7A81400205F
:10251000A9140020581400200721054B054A1B78F8
:1025200012789A4200D1704701330B40F9E7C04658
:10253000A9140020A8140020C3B20004020F10B593
:1025400000200B2A08D801210C00944022000C4CDA
:10255000224202D152060BD410BDF02B0DD003D86D
:10256000E7229A424041F7E7F43B58425841F3E7EB
:102570000800E72BF0D9F13BF7E70800ECE7C0468D
:102580000C0C000010B5002904D00223094A117870
:102590000B431370084B094AC3189BB2934205D9E9
:1025A000074B084AC3189BB2934200D8C0B206F04A
:1025B0005FFC10BDAA14002000A0FFFFFF1F000059
:1025C00000C0FFFFFF0F000080201E4A4004136878
:1025D00010B503431360FEF705FC80221A4CD201AC
:1025E0000021200006F091FC8022002152011748B2
:1025F00006F08BFC092363670333A367FEF7C8FB70
:102600000123236480239B05E3642300104A903355
:102610001A608022C120196892020A431A600D4B89
:1026200080001A580C491140C02212020A43C021EE
:102630001A50202249005A501A608022074B520239
:10264000E25010BD00C000400000115000001050CA
:1026500010D0010000E100E0FF00FFFF4C2000006F
:102660008B1C9B0070B5C318050050690E00140048
:102670005A60002803D02022002106F046FCA06901
:10268000002803D02022002106F03FFC3100280062
:10269000FEF7E0FA70BD0000F8B50600052925D860
:1026A0000800FDF757FEC02324C0C003FEF7ADFBB2
:1026B00001217348FEF79BFC724C00252300F43384
:1026C0001D7096235B00E554FEF796FBFEF79DFB1D
:1026D0006D480121FEF78BFC95239B00E5543833B0
:1026E000E554FEF789FB0520FEF78CFEF8BDFEF7EA
:1026F0008CFB664A01213000FFF7B2FF644A0421D7
:102700003000FFF7ADFF5F4C624A2300C0331978F9
:102710003000FFF7A5FF2300C13319785E4A30006F
:10272000FFF79EFF2300C2331978002903D05B4ACC
:102730003000FFF795FF230025000027FC35F83314
:102740001F606B6956486B602B60AF61EF61FEF7ED
:102750003FFC2300F4331F70AB6C52486B63EB6C8F
:102760002F65EB63AB636F65FEF732FC96235B006E
:10277000E75401214248FEF73AFC4B48FEF7BAFC09
:1027800088239B00E15C494A3000FFF769FF484B12
:10279000484AE15C3000FFF763FF474BE15CB94218
:1027A00003D0464A3000FFF75BFF962300259822AE
:1027B0009B00E5501833E3589200A350043AA3500D
:1027C0009D239B00E5500433E5503D48FEF700FC97
:1027D00095239B00E5545033E258143BE250A62267
:1027E0001833E3589200A350043AA350AB239B0044
:1027F000E5500433E5503348FEF7EAFBA3239B0082
:10280000E55401212048FEF7F2FB2F48FEF772FC49
:10281000FEF7F2FA2D4B1B78AB4202D00520FEF7F3
:10282000F1FD022060E7FEF7EDFDFEF7EEFA022172
:102830001348FEF7DCFB134C01252300F4331D7015
:102840001748FEF7C5FB96235B00E5541548FEF7D5
:10285000BFFBFEF7D1FAFEF7D8FA02210A48FEF7CD
:10286000C6FB95239B00E5541548FEF7B1FBA32357
:102870009B00E5541348FEF7ABFBFEF7BDFA35E7C6
:102880005C03002078020020BC040020E8920010C5
:10289000E89C0010E0020020FC0200201803002049
:1028A000640300209C030020580300204004002003
:1028B000210200005C0400202202000078040020B5
:1028C000C4040020FC040020B8040020A90D00204E
:1028D00010B5074B02301B78002B04D0054B1E228D
:1028E0001B787F2B00D80622002106F00EFB10BDBE
:1028F000400500207E0D002070B58024044D640149
:1029000028002200002106F000FB024B2B5170BD75
:10291000AC1400200810000070B5FEF7BBFE0400E8
:10292000051E03D1FEF7A8FE200070BDFEF794FE41
:102930000400FFF7E1FF012DF6D1FEF79DFE431ED7
:1029400098410440F0E7F7B51700012202318900F1
:1029500041184B685C692275216822691B8A8D1AAF
:102960009D4200D91D000023180052198A42584187
:10297000226182030092A17DAEB20800421E904106
:102980004203019201224A40A275A0699F4200D0F1
:10299000A38BC0182A00A16806F0AEFA8420A368B1
:1029A00000025D19009B30431843019BA56003435F
:1029B0001800002F00D01804FEBD00008B1C9B00E7
:1029C000C3185B68F7B506000C1E5F6924D11A4B6B
:1029D000DB6C0022210030000193FFF7B4FF3A685E
:1029E0003B6905009A4205D0012221003000FFF723
:1029F000AAFF05436B0113D5104A019B13401A002F
:102A0000A023DB051343002C11D10B4AD3640C4BDC
:102A10001034E4001D51F7BD094ACB00D358D8E764
:102A2000084A019B13401A0080239B05EAE70449EA
:102A3000E2008B50EBE7C04600001150FFFFFFDFC4
:102A400000001050FFFFFFAF70B501258D400489D5
:102A50002C4304818C1CA4000419646864692360FD
:102A60000023A2606360E3602361FFF7A7FF70BDEE
:102A700070B50600C43632780400152A16D8012332
:102A800093401A4A134220D180256D031D400ED178
:102A90009B020BD50B233370FEF7B7F92B002A00EE
:102AA00029002000FFF7D0FFFEF7A6F970BDC3682C
:102AB0009B695B68002BF9D10300D0331B68002BA6
:102AC00000D0984700233370F0E70021FEF718F894
:102AD00000212000FEF734F863681B68002B02D049
:102AE0000621200098470623EDE7C046410E00006E
:102AF00070B50500C43504002878152835D8FDF7D1
:102B000029FC3E34343434343E34340B28353434E8
:102B10003434343434343E3E2300CC33DA7B18680A
:102B20000E331B7812021343984212D2E368198ABB
:102B3000FDF7C0FC0E1E0CD1FEF767F93300320022
:102B400031002000FFF780FFFEF756F90A232B70B3
:102B50000BE014232B70FEF758F9002320001A0015
:102B60001900FEF75DF9FEF747F970BD2300D03379
:102B70001B68002B01D0200098470023E7E70021C5
:102B80002000FDF7BDFF00212000FDF7D9FF63689D
:102B90001B68002B02D00621200098470623D6E7A9
:102BA0000B00F0B511339B00C3185C6885B00500BD
:102BB0000E00002C43D0FEF728F9201D0821FEF757
:102BC00016FA2300B7004433EF190193FB685B69E1
:102BD0001B68002B17D0236D226E01332365A36D74
:102BE0009B18E26DA365934201D3A36EA365606C4D
:102BF000019B834207D00368019A63645A600023F3
:102C00008361FEF7CFF903A90198FEF758F9039BFA
:102C1000021E0ED1FB685A691268002A0DD01B8A69
:102C2000013B1A4209D1E36F1B7E002B05D12A001C
:102C3000D43231002800FFF707FFFEF7DDF805B0BA
:102C4000F0BD13B5446BE36F1A681178042915D1F0
:102C5000217A022912D1197901238B4012891A4253
:102C60000CD1200001A94430FEF729F9021E05D03D
:102C7000E46F019B21792068FFF7E6FE13BD000099
:102C800070B50C00FEF7C1F82378042B02D0FEF7D4
:102C9000B3F870BD144B1B78DB09F8D1134D2B78BA
:102CA000002BF4D0124B1B78002BF0D023899B070C
:102CB00005D408230F4A01212000FFF7C5FE28781C
:102CC0000D4A00230021FDF711FB00230B4A801859
:102CD0005941FA2200239200FDF7DCFC210080001C
:102CE000FEF7E4F9D3E7C0467E0D0020400D00203A
:102CF000400500205D0D002010270000E7030000C4
:102D0000F7B50025FEF781F8294C626F1368197832
:102D1000042944D12178022941D112790139914005
:102D20001B890B423BD1E36C226D934237D1B0211A
:102D3000490069431F4A5218FC32516B00292ED0BA
:102D4000616E00292BD00439C91A28D01960516B43
:102D500001395163A26D9B18626DE364934201D304
:102D6000236EE36400272000676601A93C30FEF76C
:102D7000A6F8636F06001A7EBA4209D001981A6954
:102D80003900121A301806F0C0F8636F1B690193FE
:102D9000606F019B017932000068FFF755FE6134D6
:102DA000FF34012D02D1FEF727F8F7BD0125ACE76E
:102DB0006003002078020020F7B50500C4352B78A9
:102DC0000400002B01D000232B702600D4360822EB
:102DD000C049300006F090F863689B68002B15D15D
:102DE00032786026164039D000212000FDF788FE99
:102DF00000212000FDF7A4FE63681B68002B02D0B1
:102E000006212000984706232B70F7BD2000984725
:102E10000028E5D023002600DB331A78013B1B781D
:102E20001202CC36134332689A4200D93360230031
:102E3000D4331B7837687F2B00D886E1002F00D170
:102E400076E109232B70FDF7E0FF22000021C83254
:102E5000336812682000FFF7F7FD73E123007F213C
:102E6000D5331B780A401B0213439B4A934200D17F
:102E700048E12DD8022B00D1E5E00BD8002B4CD037
:102E8000012BB1D1954A2300C8331A6002225A603F
:102E900000222DE081225200934200D1F7E0FF3260
:102EA000FF32934242D08022520093429CD12300B1
:102EB000D6331B78012B97D122000221DC321388F4
:102EC0008B4313802300C8331E605E609E60A1E7C1
:102ED000834A93420ED8013A934233D2013AFF3AE1
:102EE000934200D080E723007E4AC8331E605E60B4
:102EF0009A608FE79022120193423FD07A4A934220
:102F0000C0D080221201934200D06DE7230022003E
:102F1000C833DF321A6001222EE022002100C832BD
:102F2000DC31116002215160936073E72300D633D6
:102F30001B78012B00D057E72200DC3211880133C7
:102F40000B43BEE723002200D9331B78D832127816
:102F50001B021343210022006068D632D731476834
:102F6000127809782000B847002800D13CE72300F8
:102F70004268C8331A6002685A60A7E72378042BB6
:102F80004AD1FDF742FFA268584B02271340A360C5
:102F90002300103300931E003C3301937F423368BB
:102FA000002B0ED05869002803D00C303900FEF7F2
:102FB00043F833689869002803D00C303900FEF7D5
:102FC0003BF80023019A08C6B242E8D118001E1C43
:102FD00000999A008F583F497A6990759082DA007B
:102FE000521891680133490049089160B9690E751A
:102FF0004882D16849004908D1600F2BE8D1FDF71C
:10300000FBFE23000321DF331E70636821701B6801
:10301000002B01D0200098472300D6331B78002BCB
:103020000BD02200DF3213700423237063681B6807
:10303000002B02D002212000984722000023C83232
:103040001360536070E72300D8331A780F231340BE
:1030500002339B00E31852B25B68002A0EDA5B6908
:10306000002B00D1C0E61A7D002A05D15B7D204AE5
:10307000002B00D1B8E606E71E4A04E79B69002B47
:1030800000D1B1E69A7C002AF6D1DB7CEFE7230081
:10309000D6331978002900D0A6E69E780F23334056
:1030A000CBD09A1C9200A218506872B2DB00124E6C
:1030B000002A07DA114A9B18DA6F3240DA6743694F
:1030C0005975BAE70E4A9B18DA6F3240DA6783699E
:1030D000D974B2E700001050020300004D9D0010AB
:1030E00001060000650E0010020C00000100010046
:1030F000E4920010D6910010FFF7FFFF040010507B
:10310000080010502300D6331B78002B00D06BE64C
:1031100023000F21D8331B7819408ED05BB22000DA
:10312000002B02DAFDF7ECFC87E7FDF709FD84E7E9
:1031300014232B70FDF769FE3B003A0000212000AC
:10314000FDF76EFEFDF758FE5FE6002F08D0152351
:103150002B70FDF75AFE2200C83233681268EDE783
:103160000B232B70FDF751FE3B003A00390071E64E
:1031700013B50800032A25D90623144A117852787A
:10318000CC070B40E40F234308240C4023431024B6
:103190000C40234320240C40234340240C40C90905
:1031A000C90123430B43D107C90F92070902D20F6C
:1031B0000B435202134301A90422019305F09CFE24
:1031C000002016BD01204042FBE7C0467E0D0020D6
:1031D00010B543880C00934206D841681A002000BD
:1031E00005F08AFE002010BD01204042FBE70000F0
:1031F000030070B580249D18080064010021A542D9
:1032000004D80349591805F077FE0121080070BD64
:10321000AC140020F0B5284C284F294E85B001ADE4
:103220000A2229003C603000FFF7E2FF2000102254
:103230000021083005F069FE2B8822492380AB79F4
:10324000A370AB88E370EB7923712B7A63716B8881
:10325000E380002323726B7A5AB2D243D217114013
:1032600001226161134200D022720222134202D075
:10327000217A0A4322720422134202D0217A0A439D
:1032800022720822134202D0217A0A4322721021AC
:103290000B4202D0227A0A4322722022134202D029
:1032A000237A1A432272084B0A36183404379E4296
:1032B000B5D105B0F0BDC04610130020FC120020AF
:1032C000BE0200004F140020E602000010B50328E3
:1032D00007D80A225043044BC018FFF789FF00208B
:1032E00010BD01204042FBE76E0200001FB5084BF5
:1032F000C318FF2B09D801ACC0B22100FFF7E6FFCD
:10330000002802D1208904B010BD024B188BFAE7C7
:1033100000A9FFFF5C060020F0B5124D85B0282201
:103320000021280005F0F1FD0F4C30220021200083
:1033300005F0EBFD0D4E01AF25600A22390030008B
:10334000FFF756FF28000822390005F0D5FD3B891C
:103350000A36A380064B0A350C349E42EBD105B0E9
:10336000F0BDC046180D0020E80C002096020000B9
:10337000BE02000013B56B46DC1D002301222100B4
:103380002370FFF735FF207816BD000070B50024CC
:10339000094BE018FFF7EEFF084BE0540134242CF2
:1033A000F6D10024064D2B69002B00D0984701343C
:1033B0001435152CF7D170BD4A0200005C060020C0
:1033C000B49A0010222370B588244B434443520022
:1033D0009B181C1920002A30FFF7CCFF000285B291
:1033E00020002B30FFF7C6FF284380B270BD70B5B8
:1033F0000020262504022800FFF7BCFF01352043EA
:103400002A2DF7D170BD10B52320FFF7B3FF3F2859
:1034100001D0002010BD2420FFF7ACFF9B28F8D17D
:103420007638FFF7A7FFBE3843425841F2E710B5A0
:103430000420FFF79FFF04002220FFF79BFF0002FC
:10344000204380B210BD0000D0231B061A68084B31
:1034500092009B185B6810B5D968087518680268F7
:103460001A60536001220275D860FCF71BFF10BD83
:10347000880B00200A00D02109060B6830B5040033
:1034800012489B00C3185B6887B0DD68531C18D0D6
:103490000B6869469B00C0180D4B406803930023DE
:1034A000103005930495FDF7EBFD2000FFF7CCFFEE
:1034B000009B002B02D06846FDF7CAFDA86907B043
:1034C00030BD2000FFF7C0FFF8E7C046880B0020A2
:1034D000630F0010D0231B061A680A4B92009B183A
:1034E0005B6810B5DB68002908D0426818605A6034
:1034F000136043600420FFF7BDFF10BD0120404270
:10350000FBE7C046880B002070B504000D00E3689F
:10351000002B07D0236900201A1DA262E2699B18C4
:10352000E36208E0237A002B06D129002000FFF790
:10353000D1FF0028EBDA70BD02204042FBE7F7B56F
:1035400004000F00009201930025FDF75EFCA36AC2
:10355000002B09D101992000FFF7D6FF002803D0E6
:10356000FDF74AFC2800FEBDA06AE36A009A1B1A18
:10357000561B9E4200D91E00402E19D93900402208
:1035800005F0BAFCA36A40374033A3624035A36A12
:10359000E26A934204D3E3692000191FFDF77AFC25
:1035A000FDF72AFC009B9D42DCD2FDF72EFCCEE706
:1035B0003900320005F0A0FCA36ABF199B19A36271
:1035C000AD19E4E710B54430FFF7B9FF10BD012392
:1035D00010B544305B42FFF7B2FF10BD70B5040078
:1035E0000E001500FDF711FCA36A002B09D129007C
:1035F0002000FFF789FF051E03D0FDF7FDFB280023
:1036000070BDA36A1E70A36AE26A0133A36293428B
:1036100004D3E3692000191FFDF73CFCFDF7ECFB28
:103620000025ECE710B54430FFF7D8FF10BD0122AC
:1036300010B544305242FFF7D1FF10BD70B5040001
:103640000D00E368002B07D062690020131D12688B
:10365000A3629B18E36208E0237A002B06D12900BD
:103660002000FFF737FF0028EBDA70BD0220404250
:10367000FBE7F7B504000F00009201930025FDF76A
:10368000C4FBA36A002B09D101992000FFF7D6FFE4
:10369000002803D0FDF7B0FB2800FEBDA16AE36A55
:1036A000009A5B1A561B9E4200D91E00402E17D965
:1036B0003800402205F020FCA36A40374033A36263
:1036C0004035A36AE26A934202D32000FDF703FC6F
:1036D000FDF792FB009B9D42DED2FDF796FBD0E703
:1036E0003800320005F008FCA36ABF199B19A362D9
:1036F000AD19E6E710B50C30FFF7BBFF10BD012395
:1037000010B50C305B42FFF7B4FF10BD70B504007C
:103710000D00FDF77AFBA36A002B09D129002000D8
:10372000FFF78CFF051E03D0FDF766FB280070BD78
:10373000A36AE26A1D780133A3629342F4D32000A6
:10374000FDF7C9FBF0E710B50C30FFF7DFFF10BD48
:10375000012110B50C304942FFF7D8FF10BD000021
:1037600070B506000D00FDF750FB144C2378042BB8
:1037700002D0FDF741FB70BD2389DB0612D5D022B4
:10378000120611680E4A89005218E36952685B6993
:10379000D2680C331A60642193610320FFF76AFE3C
:1037A000431CE6D0074A0323557004212D0A20004C
:1037B00016709570FFF748F9DBE7C04680060020D9
:1037C000880B00208113002010B501000420FFF7B2
:1037D000C7FF10BD10B501000320FFF7C1FF10BDEA
:1037E00070B50500FDF711FB114C2378042B02D0B6
:1037F000FDF702FB70BD2389DB0612D5D02212062D
:1038000011680C4A89005218E36952685B69D268F2
:103810000C331A60642193610320FFF72BFE431CD5
:10382000E6D006232A0004212000FFF70DF9DFE788
:1038300080060020880B0020D02301211B061A6877
:10384000064B92009B1810B55B684942DB68036029
:1038500098610320FFF70EFE10BDC046880B0020C4
:1038600070B50500FDF7D1FA1A4C2378042B1ED150
:10387000194A238912787F2A1CD9184A1278002AFB
:1038800018D0DB060BD420232A0004212000FFF7E8
:10389000DBF820222900124805F02EFB07E0E3693F
:1038A00058690C30FFF7C8FF2378042BEBD0FDF7E5
:1038B000A3FA70BD9B0703D408232A000121E5E782
:1038C000236958690C30FFF7B7FF2378042BEED13A
:1038D000F2E7C046800600207E0D00204005002053
:1038E0005D0D00208023F0B5160089B08218050018
:1038F00001915B019A4203D90024200009B0F0BD78
:103900005D4F3200C7193900019805F0E7FA01242C
:103910000028F2D032000199380005F0EDFAFDF7E9
:10392000B9FE0590002802D1FDF7A6FEE4E7019B51
:103930001A78012E33D9EB0731D4504B9D422ED843
:10394000019B5B781B021343012B28D85A1E93411D
:1039500020225B421340803B6A0A1343FF220499F2
:10396000DBB291430A001A43049204996B08444A5B
:10397000DBB21B020A401A436B460492188AFDF719
:103980002BFF0400012867D1019B023E0235023360
:103990000193002ECBD1FDF705FF040061E03F2D20
:1039A00018D8FF2103984023884301002B43DBB242
:1039B0001943334B12020B40134303936B46988910
:1039C000FDF70AFF0400012846D1019B013E0135A5
:1039D0000133DDE70296052E01D90523029306AFD8
:1039E00006220021B81C05F090FA07222B0C134088
:1039F000029ABD70D20013433B702B0A7B700023E8
:103A00000199DA19C95C0133D170029A9A42F7D14F
:103A10003888FDF7E1FE040001281DD17888FDF704
:103A2000DBFE0400012817D1012E07D9B888FDF765
:103A3000D3FE040001280FD1032E07D8029A029B5F
:103A40009446F61AED18019B6344A1E7F888FDF748
:103A5000C3FE04000128F1D0002C02D0022C00D0BB
:103A60000024059B012B00D047E7FDF705FE002849
:103A700000D141E741E7C046AC140020FF3F000001
:103A8000FF00FFFF37B50025042201A904000195BE
:103A9000FFF7AEFB019BAB4205D0042201A9200039
:103AA0000195FFF71FFF37BD73B56B469C1D0023C3
:103AB0000E000222210023800500FFF799FB2388D6
:103AC0009E4205D00222210028002680FFF70AFF2F
:103AD00073BD37B50D000400FFF74CFCA84206D0BB
:103AE0006B460122D91D20000D70FFF7FBFE37BD8C
:103AF00010B5034B0C201978FFF7EBFF10BDC04643
:103B00004814002070B50024074BE5182800FFF783
:103B100031FC064BE15C814202D02800FFF7D9FF5F
:103B20000134242CF0D170BD4A0200005C06002054
:103B300010B54388934207D81A00406805F0DCF9B5
:103B4000FFF7E0FF002010BD01204042FBE700002E
:103B500070B58025044C6D01200000210134FFF771
:103B6000B8FFAC42F8D170BDE602000070B51D0090
:103B7000032814D8032912D8102A10D82223882405
:103B80004B43444352009B181C192000290A2A3039
:103B9000FFF79FFF2000E9B22B30FFF79AFF70BDBF
:103BA00070B505002924E9B22000013CFFF791FF20
:103BB0002D0A252CF7D170BD10B53F21041E00D170
:103BC000C0312320FFF785FF9B21002C00D16431F9
:103BD0002420FFF77EFFBE21002C00D1413125209B
:103BE000FFF777FF10BD10B50400C1B20420FFF746
:103BF00070FF210A2220FFF76CFF10BD704770474D
:103C00007346F0B587B00593A24B1D68EB0310D542
:103C10008022A14BA14992020124CA500021A04850
:103C2000C3689A69147551825A69947591825B6868
:103C30009847EB043BD58022974B98491203CA5012
:103C40000223974C2200237000232600DC321360ED
:103C5000A3600193F368002B15D0FDF7D6F8F36845
:103C60005869002804D002210C304942FDF7E4F9DC
:103C7000F3689869002804D002210C304942FDF70E
:103C8000DBF9FDF7B9F80027019BF76001330193D9
:103C90000436102BDED12300C4331F70FDF778F8F3
:103CA00063681B68BB4202D03900200098476B0450
:103CB00030D510227A4C784B7849CA5023002278AC
:103CC000E0331A700523237063681B68002B02D051
:103CD00004212000984700260227A6607F42E3685F
:103CE000002B13D0FDF791F8E3685869002803D042
:103CF0000C303900FDF7A0F9E3689869002803D07B
:103D00000C303900FDF798F9FDF776F801360434E8
:103D1000102EE4D12B040FD5802261485E4B5F4901
:103D20001201CA500300E0331B78037043681B681C
:103D3000002B01D005219847AB0307D558484368AD
:103D4000DB68002B00D09847544B9B6CEB0606D4E5
:103D5000059B0F3301D0FDF7D3F807B0F0BD4F4BF3
:103D60009B6D03930023029301330193039B002B6C
:103D7000EED0029B202BEBD0019B039A13421FD065
:103D8000484B464A0199464FD1500122029B5C089C
:103D9000A31C9B00FB185B680493029B134233D166
:103DA000049B5D692B692A886B609BB293420FD09C
:103DB00021003800FEF702FE039B019A9343039310
:103DC000019B5B000193029B0133DBB20293CDE7C1
:103DD0000122A2403B8993433B81049B9B68002BBB
:103DE00002D02100380098470234A4003F19FDF7A3
:103DF0000CF87B68002158690C30FDF71DF9FCF7C1
:103E0000FBFF0023AB82D7E7049B274A9D69E300B1
:103E10009B181E68A969B605B60D3200A86805F0A2
:103E20006BF8AB689B19AB606B689B196B602B6878
:103E30009B1B2B602B8A013B9BB22B82002B03D058
:103E4000049B5B8AB3421FD901220023A2406B82EC
:103E5000134DA61C6B8993436B81B300EB185B6811
:103E6000DB68002B02D0210028009847B600AD196E
:103E7000FCF7CBFF6B689B69180059680C30FDF7A5
:103E8000DBF8FCF7B9FF97E721003800FCF778FE74
:103E900092E7C046980011505030000000001150C9
:103EA000800600205830000084001050F8B5774696
:103EB000FCF7ABFFD0231B061A68174B92009B1828
:103EC0005D682E00EB6910360133EB612B699E4271
:103ED00006D1FCF791FF0F3701D0FDF711F8F8BDBF
:103EE0009A68013A9A602C69A368002BF1D1226884
:103EF00061680A6051602360FCF77EFF2169200041
:103F0000E3689847FCF781FF6269002AEBD0210043
:103F10003000FDF7B5F8E6E7880B0020BFF35F8FB0
:103F2000D023BE221B0652009B507047D0230C2189
:103F300072461B0610B519650B39186D084205D17C
:103F400040BF0F3201D0FCF7DBFF10BD986D02308F
:103F5000F3D172B61A68034B92009B185B68024A51
:103F60009A65FEE7880B0020C9910010D0230C2130
:103F700072461B0610B519650B39186D084205D13C
:103F800040BF0F3201D0FCF7BBFF10BD986DF4E7C6
:103F900010B5EFF30983203383F30988FCF72CFF76
:103FA00010BD10B50400FCF730FF21000820FFF71A
:103FB00061FAFCF721FF10BD10B50400FCF725FFE6
:103FC000D0231B061A68054B92009B185B680F20D4
:103FD000DB689C61FFF738FA10BDC046880B0020F3
:103FE000D0231B061A680E4B92009B185B6810B515
:103FF0001868D96802681A60536001220275D86097
:1040000000238A680B750B691B689C689442FBD877
:104010005A680B604A6011605960FCF743F910BDA3
:10402000880B002070B508210024094B18685A68D5
:104030009D68954207D8D868904207D80139103357
:104040000029F3D170BD40C840C2F2E710C2F3E7C7
:10405000589C0010FEE7704710B5FCF7E3FC0E4BD0
:104060000E4A196891420AD01A600D4A0D48946AA6
:10407000916A091B8142FBD900221A6010BD0024FD
:104080001C601423188804331B88074998472100B3
:10409000030020009847C046B4240020BAB0FECAEE
:1040A000004005403F0D03005542000070B5FCF78D
:1040B000ACFED0231B061A68154B92009B185B6858
:1040C00014481549DC690D680368144AE41AA542CE
:1040D00009D9E4256D016419114D5B19036013685A
:1040E00010481B18136015680C60FCF785FEFA2257
:1040F0000023920020000021FCF7F8F800230A4A70
:1041000080185941094A0023FCF7C4FA281870BDE9
:10411000880B002040140020B00D0020F012002079
:1041200080E3FFFFC09699190F27000010270000B9
:10413000F8B50B4B07001E68FFF7B8FFF423FF33F9
:10414000801B084D084C984205D82E60013323602F
:10415000064B1F80F8BDFFF7A9FF32232860F6E762
:10416000840D0020E00B0020DC0B0020E40B00207D
:104170000C4B07B518800C4B984202D804F060FE37
:1041800007BD6A46094B138000239370FFF78EFF2B
:1041900001236A46034393800098019904F032FC9E
:1041A000EEE7C0464A0C0020FF1F0000F0F0FFFFC2
:1041B00070B5214C06000D00C8B22100FFF786F84B
:1041C000011E38D11D4BD88B00281CD01C4A00235F
:1041D000FCF78CF800231B4A80185941FA2200236F
:1041E0009200FCF757FAFFF7DCFE0022164BEDB207
:1041F000585DB27001385A5504281CD8FCF7AAF84B
:1042000018050B0D18000120EDE7608800280FD07D
:10421000FFF7AEFF0FE0A088F8E7E0880028F7D1AD
:1042200023886088002B04D00028F1D11800EFE724
:1042300020880028ECD170BD361400205C060020D8
:1042400010270000E7030000CC0B00200B4B13B538
:1042500018800B4B984202D804F00AFE13BD6A4640
:104260000124084B94701380FFF720FF6B46044332
:104270009C800098019904F0C5FBEFE74A0C0020F0
:10428000FF1F0000F0F0FFFF10B50400FFF7DEFF96
:104290000C4BD88B002813D00B4A00230021FCF7CD
:1042A00025F80023094A80185941FA220023920078
:1042B000FCF7F0F9FFF775FE2000FFF759FF10BD7E
:1042C0000120F7E75C06002010270000E70300004C
:1042D00070B5244C05000E00C8B22100FEF7F6FFB1
:1042E00000283CD1AB78F6B21F48012B0FD16A7978
:1042F000510701D5835506E0D207FBD5022383552C
:104300006088002810D12088002828D00CE0022BDB
:1043100023D16A7902331A4217D1D20707D4013B5D
:104320008355A088002812D0FFF790FF17E083552F
:10433000E0880028F8D12088002811D0FFF7A4FFDA
:1043400060880028F0D12088EEE705238355208877
:10435000002804D0FFF798FFF5E70623835570BDCA
:104360006088D1E736140020CC0B002070B50D4CCE
:104370000500C8B22100FEF7A9FF002811D124884A
:10438000002C0ED0AB78032B09D12000FFF77CFF67
:104390002000FFF779FF2000FFF776FF01E0032BF5
:1043A000F9D870BD36140020F0B5002587B0102272
:1043B000002102A804F0A9FD664E3468631C00D1F8
:1043C0000BE1FCF722FD01236348E200D021A3406A
:1043D0001218052009064B621060604AA400A41858
:1043E000402222608B61FCF707FD5D4B5F695D4BEE
:1043F0009F4200D8C6E05C493800FBF7D5FF5B4B15
:1044000004009F4200D89BE00723594938001C4014
:10441000FBF7CAFF01380F2800D991E0FBF7AEFF88
:10442000880080007800700068006000580050002C
:10443000480040003800300028002000180010001C
:10444000C046C046C046C046C046C046C046C0463C
:10445000C046C046C046C046C046C046C046C0462C
:10446000C046C046C046C046C046C046C046C0461C
:10447000C046C046C046C046C046C046C046C0460C
:10448000C046C046C046C046C046C046C046C046FC
:10449000C046C046C046C046C046C046C046C046EC
:1044A000C046C046C046C046C046C046C046C046DC
:1044B000C046C046C046C046C046C046C046C046CC
:1044C000C046C046C046C046C046C046C046C046BC
:1044D000C046C046C046C046C046C046C046C046AC
:1044E000C046C046C046C046C046C046C046C0469C
:1044F000C046C046C046C046C046C046C046C0468C
:10450000C046C046C046C046C046C046C046C0467B
:10451000C046C046C046C046C046C046C046C0466B
:10452000C046C046C046C046C046C046C046C0465B
:10453000C046C046C046C046C046C046C046C0464B
:10454000601E07281ED8FBF705FF1C1B1A19181739
:104550001615C046D89C00100440014004C001401C
:10456000A40B0020FF083D0000093D00FF5025027C
:104570000048E801C046C046C046C046C046C046E6
:10458000C046C046D02001220006112300248446E4
:104590002F4901920F6800207A1C08D060464068BD
:1045A0000122F84007000020174200D10198019A2B
:1045B000013B5200DBB2044301920431002BE9D1EC
:1045C0003068431C01D0FDF74DFD224B996A9A6A71
:1045D000521A1D2AFBD902AB5C5104350436102D4A
:1045E00000D0EAE61C4C2A0002A9200004F076FC68
:1045F0001A4D002824D0220002AB43CB43C21B68D3
:10460000136001232B70FFF751FD154B1860144BFD
:104610001E68FFF74BFD801B052814D9114E102290
:104620002100300004F05AFC0023984205D03300EA
:1046300007CC07C322681A60012300222A7003E016
:104640002B78002BE3D10023180007B0F0BDC04643
:10465000849200100040054070130020D00B002011
:10466000D40B0020C4120020074B70B55B78050006
:104670005B0708D5054C2378834204D0FFF716FD6D
:10468000034B2570188070BD7E0D0020F9120020AC
:10469000FA120020F0B50E4C0E4B21781A78032642
:1046A0000B000D4D9A420FD05F007F5B87420CD10B
:1046B0000C22424309488018012282718B4203D1A7
:1046C0009B18023213402370F0BD01333340E9E7F9
:1046D000A00B0020A10B0020980B0020E80C00206C
:1046E0000022074B1A800423064AD179002901D100
:1046F00091711172013B9BB20C32002BF5D17047C6
:10470000BA0D0020E80C00200E4B37B51C680023C2
:1047100001AD29809C4208D169782A782300F029CC
:1047200005D1F02A01D1084B1B8818003EBD032893
:10473000FBD80329F9D8102AF7D8FEF743FE030067
:10474000F3E7C046541400204A0C00207FB5074B05
:104750000A0001930023029303930493044B010086
:1047600001A80593FDF7B8FA07B000BDD91A0010EB
:10477000FFFFFF7F0FB407B504A901C90191FFF73F
:10478000E5FF03B008BC04B0184700002D4B70B51E
:104790001B782D4C1B073CD52C48FFF7EBFF6178AD
:1047A0002B48FFF7E7FF2B48FFF7E4FF02212A4DD4
:1047B00061562800FFF7DEFF284E3000FFF7DAFFD2
:1047C000032128006156FFF7D5FF3000FFF7D2FF25
:1047D000042128006156FFF7CDFF3000FFF7CAFF24
:1047E000052128006156FFF7C5FF1D48FFF7C2FFEE
:1047F0001C4B1D4D19782800FFF7BCFF1B48FFF725
:10480000B9FF1B4B28001978FFF7B4FF1948FFF7D1
:10481000B1FFFFF74BFCA378E27880B2134301D0DD
:10482000154B188023796279134301D0134B1880FC
:10483000134B1B68002B04D002229B6822702000BF
:10484000984770BDD80B0020E41200202E9800106D
:104850005198001056980010589800102598001094
:104860005B980010EB1200205E9800106198001019
:10487000EA12002063980010B40D0020B60D00204D
:10488000F00B0020044A1378002B03D00023137090
:10489000024A13807047C046F9120020FA12002025
:1048A000024A1378834313707047C046AA1400204D
:1048B00070B50024074D6B88A34208D0FFF7F6FBC4
:1048C000054B1B88C01A6B8880B298426441200057
:1048D00070BDC0465C060020FA12002070B52E4B59
:1048E0002E4A1B7812782E4C2E4D134323702B78B2
:1048F000002B21D02C4B5B88002B05D0FFF7D8FF75
:10490000002801D0FFF7BEFF23782A7813432370D5
:10491000264B1A780623002A04D0254A12787F2ACB
:1049200000D918330022A11C013BDBB2FF2B2BD195
:10493000002A01D0FFF7A6FF1E4B25781B781E4EDC
:104940009D431E4B20221B7831001D432000257003
:1049500004F0C4FA002816D020222100300004F010
:10496000CBFA174B1B68002B0DD0104A1278002A87
:1049700006D00F4A12787F2A02D90622657022706B
:104980005B682000984770BD0878002801D001328C
:10499000D2B20131C8E7C04680130020AA1400201B
:1049A00064070020F91200205C060020400500206A
:1049B0007E0D0020CB130020890D0020AB140020B9
:1049C000F00B0020036910B50400002B01D04169F1
:1049D0009847E078FFF764FF2079FDF70DFDFFF7BA
:1049E0007DFF06220021200004F08FFA10BD000098
:1049F000427910B50400930712D4022313430D4AE1
:104A000043711178C3780B4313700079FDF7FCFCF8
:104A1000FFF764FFE368002B02D06169200098472C
:104A20000022054B1A806379DB0702D42000FFF7D0
:104A3000C9FF10BDAA140020CA090020082210B521
:104A40000D4C0220237893432370FFF729FF102297
:104A50002378134204D0934302202370FDF7D4FC43
:104A600020202378034203D083432370FDF7CCFC3E
:104A7000FFF734FF10BDC04658020020F7B54F4B7A
:104A800001921A7806000D004D4F520700D47EE0C7
:104A90003C88844201D0002879D104211A78012071
:104AA0008A4302391A700A4008D1464946480988A3
:104AB0000088691A89B28142524110000122060021
:104AC000197816409218914377000F431F700F27F3
:104AD00023093E4A3B405B009446995E01222740F1
:104AE000BA4012B200284CD00A4361465A52022002
:104AF000374F3B78034206D01023304A11780B43DE
:104B00001370FDF779FC20203B78034205D02B4A37
:104B1000137803431370FDF76FFC31002000FDF79D
:104B200031FD019A2B4B002A04D0DA7E910601D583
:104B3000520641D5D88B002827D0274A00230021D0
:104B4000FBF7D4FB0023254A80185941FA220023A1
:104B50009200FBF79FFDFFF724FA194B204A1888B3
:104B6000204BC3189BB2934205D91F4B1F4AC31851
:104B70009BB2934200D8C0B204F062F9FFF75EFF27
:104B800018E0914362469952B1E70120E3E7154BE3
:104B9000134AF3189BB2F0B2934206D9124B134A50
:104BA000F3189BB2934200D9300004F049F93B88D6
:104BB000B342E3D0034B1D80F7BDC046580200202E
:104BC000CC090020F80900205A020020D809002052
:104BD000801300205C06002010270000E70300007F
:104BE000FF1F000000A0FFFF00C0FFFFFF0F00003D
:104BF00010B584280ED1FCF795FC430709D5472052
:104C0000FDF734FCFFF76AFE4720FDF705FCFFF7D0
:104C100065FE10BD031FDBB2A02BF6D903002033C5
:104C2000DBB2072B07D80723034001209840C0B20E
:104C3000FDF7E2FBEBE703005B33DBB2022B03D8AB
:104C40000020FCF75DFCE4E703005833DBB2162BD1
:104C500003D80020FCF742FCDBE7EF28D9D9FCF7AA
:104C6000DBFDFFF793FDD4E710B500280FD08228B5
:104C70000ED1FCF757FC830709D53920FDF7F6FB69
:104C8000FFF72CFE3920FDF7C7FBFFF727FE10BD0D
:104C900083280AD1FCF746FCC307F8D55320FDF75B
:104CA000E5FBFFF71BFE5320EDE7FFF7A1FFEEE763
:104CB000F7B5244F01903D68002D3BD00023224AD8
:104CC0001380224A1370224A1370EC88214B621E13
:104CD000FF3A9A4201D8204B1C40E4B22600731ED2
:104CE0009E41EB68F6B2002B03D02969002098475B
:104CF0000640002E06D0231FDBB2A02B1CD82000BC
:104D0000FDF78AFB019B154C002B0ED03B681A7AED
:104D1000D2060AD42278002A07D01888104A431EE7
:104D20009BB2934201D8FFF703FAFFF7D7FD0023A8
:104D30003B6023702800FEBDFFF7D0FD2000FFF789
:104D400093FFDFE7C4090020E40B0020CB13002011
:104D5000AB140020FF1E0000FFE0FFFFC809002089
:104D6000AF5D000010B50400842812D1FCF7DAFB17
:104D700043070DD44720FDF779FBFFF7AFFDFA207D
:104D80008000FFF70EF94720FDF746FBFFF7A6FD71
:104D900010BD031FDBB2A02B24D8274B274A1B785A
:104DA000002B11D0264B197800237F290CD9C3087A
:104DB000D218917807220123024093400B420BD175
:104DC0002000FDF753FBE1E7D1188978A14203D019
:104DD0000133062BF8D1F3E72000FDF71DFBFFF7A9
:104DE0007DFDEDE703002033DBB2072B07D8072357
:104DF00001201C40A040C0B2FDF706FBC6E703003F
:104E00005B33DBB2022B04D80E4AD05CFCF778FB94
:104E1000BEE703005833DBB2162B05D80A4A5B0005
:104E2000985AFCF75BFBB3E7EF28B1D9FCF7E6FD36
:104E3000FFF7ACFCACE7C04640050020640700204B
:104E40007E0D0020588F00105C8F001010B50028D8
:104E500013D0822812D1FCF765FB83070DD43920CB
:104E6000FDF704FBFFF73AFDC8208000FFF799F833
:104E70003920FDF7D1FAFFF731FD10BD83280ED19F
:104E8000FCF750FBC307F8D45320FDF7EFFAFFF708
:104E900025FDFA208000FFF784F85320E9E7FFF7AB
:104EA00061FFEAE770B50B4B0500392809D11C8C6E
:104EB0002800FFF7CBFF002C05D12800FFF7D4FE18
:104EC00070BDDC8BF4E70A20013CFFF76AF8A4B25E
:104ED000F1E7C0465C060020F8B5174B17491E5C89
:104EE0000723C2088D5C18401549164B8F5C9C5CEB
:104EF00005410123044107411C401D401F40002C77
:104F000002D0E120FFF72EFF002D02D0E620FFF7B0
:104F100029FF3000FFF7C6FF002D02D0E620FFF783
:104F200067FE002C02D0E120FFF762FE002F02D0C6
:104F30002C20FFF7B7FFF8BDE8910010D8910010C2
:104F4000D891001068920010F8B5040004270A26D2
:104F50002078002830D001282BD16378A078012B4D
:104F600004D10234FFF79EFF0134F1E7022B03D195
:104F70000234FFF76BFFF7E7032B03D10234FFF78F
:104F800073FEF1E7042B01D00134EDE700250B4A55
:104F90000234135C611C3B4205D1013DE4D3300077
:104FA000FEF7FFFFF9E775433038451960780C00CC
:104FB000EFE7FFF791FFD7E7F8BDC046509D00101F
:104FC00010B500240020FCF79BFA0020FCF786FABD
:104FD000084B1C70FFF782FC06222100064803F0F4
:104FE00094FF064B1C70064B1C70064B1C70FFF7A1
:104FF000CDFB10BDAA140020E4120020EB1200200B
:10500000EC120020EA12002010B5074906220B78A6
:10501000082418001A40A043062A01D12000184392
:105020000870FFF7CDFF10BDB80D002001228240AF
:1050300010B503490B7893430B70FFF7C1FF10BD08
:10504000B80D0020002370B50B4D0724EB561A0055
:10505000824350B2287004400DD1DBB283420AD0A3
:10506000064B5B785B0706D5C010C0B2FFF7DEFFCA
:10507000034B2C701C8070BDF41200207E0D0020AC
:10508000F61200200A4A10B553785907C90F814219
:105090000CD001210840033180008B43034353703F
:1050A0001088FEF7A0FD0220FFF7CCFF10BDC04620
:1050B0007E0D00200123834010B5034A11780B4375
:1050C0001370FFF77DFF10BDB80D0020094B10B520
:1050D0005B785B070AD5C300074A0B431370FFF7E1
:1050E000E9FFFEF7E3FF054B188010BDFFF7E2FF75
:1050F000FBE7C0467E0D0020F4120020F6120020CF
:10510000F0B50724012785B00F4B01AE30801A7827
:105110000E4B1B781A430092009BE5B223413B42A1
:1051200005D1013CF8D20025280005B0F0BD328839
:1051300003AB1A8003992800FFF7E6FAFDF702F89F
:1051400080B20128EDD0EFE7B80D0020D90B002088
:105150001FB501AC20800198FFF7D2FF228803AB76
:105160001A800399FFF7D0FAFCF7ECFF04B010BDEA
:1051700013B5038802008488002001A90B808442B3
:105180000AD008499CB28C4206D01089002804D06D
:10519000FCF7D8FFFDF7D0F916BD1800FFF7D8FFD0
:1051A000F8E7C046FFFF000037B5020401A90880F8
:1051B000120E0020032A18D80978102915D81123B7
:1051C00053435B1807210322040001251940DB0823
:1051D0009BB25343054AD3181A5DCA402A40A240E5
:1051E00001341043C0B2032CF6D13EBDB0130020F1
:1051F00073B5020401AC2080120E032A1ED8207859
:1052000010281BD8112353431B1803200125DA084B
:1052100092B250430A4A2E001018072213409E40B3
:105220000022F6B20B00D340845C2B405B4263400B
:105230003340634083540132032AF3D173BDC04627
:10524000B0130020002210B5034B04481A70FDF77C
:105250003FFBFFF7B5FE10BD801300206407002060
:10526000AF220820154B10B51A80154A14215A8018
:105270000A221881588200209A80D9805A81891880
:10528000DA811E329A820A32DA82963299811A8340
:105290003231C33A19829A83D883198458830333ED
:1052A000DA77FEF72FFCFFF7CDFF8020054BC0001B
:1052B0001880FEF798FCFEF769F810BD5C06002028
:1052C000881300007E0D0020F0B5414B8DB01A68A8
:1052D0000024019201221A60882565433D4B002776
:1052E000ED1810E0E0B2F9B2F2B20123012C01DCBA
:1052F0007300EB5A0136FEF739FC112EF2D101375B
:105300002235042F01D00026ECE70134042CE3D130
:10531000FFF7A6FF0025C82309AC21000A222E486A
:10532000238109950A95FEF7DDFA9E2021000A22C5
:105330008000FEF7D7FA21000A222848FEF7D2FAA9
:10534000A32021000A228000FEF7CCFA29000A22BD
:1053500006A803F0DAFD06A90A222148FEF7C2FAE0
:10536000A82006A90A228000FEF7BCFA06A90A2294
:105370001C48FEF7B7FAAD2003AC06A90A2280004C
:10538000FEF7B0FA29000A22200003F0BEFD012337
:105390005B42A380210008330A2213486372FEF7A0
:1053A000A1FAB22021000A228000FEF79BFA210018
:1053B0000A220E48FEF796FAB7200A222100800042
:1053C000FEF790FA024B019A1A600DB0F0BDC0468C
:1053D00058050020D89600106E02000082020000DE
:1053E00096020000AA020000BE020000D2020000E5
:1053F00010B50020FEF7E0FB0020FEF7D1FBFFF721
:1054000063FFFEF7A5FB0120FEF7D6FB10BD0000F1
:1054100010B50024FDF780FA22490020FEF744FB76
:1054200000210220FEF755FB00210320FEF751FB6F
:105430001D4B210004201C70FEF74BFB0421222091
:10544000FEF747FB21000520FEF743FB2100062065
:10545000FEF73FFBFF210720FEF73BFB0820FEF78E
:1054600011FB21000D20FEF734FB1820FEF70AFB8C
:1054700021001720FEF72DFB1C20FEF703FB210067
:105480002020FEF711FB1820FEF7FCFA2000FEF7A3
:1054900093FBFFF7ADFF0F20FEF7F4FA1320FEF7A2
:1054A000F1FA10BDE8FE0000D90B0020F7B5032A81
:1054B0004AD9042401A8220003F01EFDFFF7C2FE12
:1054C00001212348019A057853088D430B401600AB
:1054D0005F002B0002250E40334396080E40AE407D
:1054E000AB433B43A34333430826D4080C40E400BA
:1054F000B3432343102416090E403601A34333431C
:10550000202654090C406401B343234340249609E8
:105510000E40B601A34333437F26D4090C40E40177
:105520003340234303704378140A0C408B43520AE0
:10553000234311401A004900AA43114341700088D7
:10554000FEF751FB0020FEBD01204042FBE7C046B4
:105550007E0D002010B5002803D0FCF74DFFFFF7AB
:10556000BDF910BD10B5002803D0FCF74DFFFFF7C3
:10557000B5F910BDF0B585B01D000AAB1B780190E0
:105580000393029114008278264B002A0DD01C70E0
:10559000FEF78CFD244B1880072301201C40A040FF
:1055A000C0B2FFF7DFFF05B0F0BD1E78A64233D1D1
:1055B0001D4B1F88FEF77AFD0199C71B0298BFB2E9
:1055C000FDF794FEB84227D92C002034AE4215D006
:1055D00033002033DBB2072B06D8072301201E40FF
:1055E000B040C0B2FFF7B6FFE3B2072B06D80723DF
:1055F00001202B409840C0B2FFF7B4FF0398E4B2FB
:10560000FFF750FC072CCED8072301201D40A840EF
:10561000C0B2FFF79FFFC6E7072301201C40A04050
:10562000F6E7C046881300208A130020F0B593B037
:1056300085880FAC049001000222200003F05CFC7E
:10564000002D6ED02288B94B9A426AD0012104986D
:1056500003F0CAF9049B04009B78002B14D0B44BD0
:105660001B88002B10D098420ED01822DBB2534377
:10567000B049143AC81845795C522A434271FFF781
:10568000B7F90022AC4B1A70AC4D049A2B78927883
:10569000002B5FD1002A00D08DE0A94BE018042830
:1056A00000D988E0FAF756FE0310871C4400FFF784
:1056B000C9FD0022A34B1A70FFF782FCA24BA34A3C
:1056C0001A6001232B701DE0FFF7BCFD00229D4BEB
:1056D0001A70FFF775FC9C4B9D4A1A600223F1E794
:1056E0009C4B984D1F682E78FFF7ACFD00232B7064
:1056F000FFF766FC954CA74215D1FFF7A3FD2E706E
:10570000FFF75EFC944B1B785B070AD0049B9B78E9
:10571000002B06D0914B5B785B0702D50220FFF788
:1057200091FC13B0F0BD2000FFF780FF0A34E2E7E0
:105730008B4B844D1F682E78FFF784FD00232B7060
:10574000FFF73EFC824CA742D7D02000FFF76EFF48
:105750000A3CF8E77A496118022928D88149641877
:10576000611E8C419442CDD0012B03D0022B10D06E
:105770000023A7E7744B75481B68834204D01A00C6
:105780000A3A9178002902D1724A1360F0E71300B7
:10579000F3E76D4B6E481B68834204D01A000A324F
:1057A0009178002901D16E4AEFE71300F4E7012B4D
:1057B0003FD0022B52D0049B9B78002B01D101F0EB
:1057C0005DFA694BE3189BB20F2B01D901F098FAEF
:1057D0006648FDF7CFFD002800D093E78026123CF5
:1057E000E5B2634C7601002D4CD111952000FDF7F8
:1057F000C1FD002311AD661C28706B70984200D16A
:1058000080E7012811D13000FDF7B4FDA71C6870B6
:10581000002800D176E7431E022B3FD83800FDF761
:10582000A9FDE61CA87000285BD02800FFF78CFBC0
:1058300057E04B4B444D19682E68002A02D1434B68
:105840009E42B8D033000A3B9942B4D030000A22BD
:10585000049903F051FB0A362E60ACE73D4B3A4DFC
:1058600019682E68002A02D1394B9E42A3D033001A
:105870000A3399429FD030000A22049903F03CFB7E
:105880000A3EE9E7B44200D13CE72000FDF772FD93
:10589000002801D1013DEDB20134A4E7431F022BE2
:1058A00027D8E31C38000593FDF764FDE61CA870BB
:1058B000002816D00598FDF75DFD261DE87000282C
:1058C0000FD0FF2368881B02984201D9000280B2E2
:1058D0006B78062B07D0072B08D0052B01D1FEF7DC
:1058E000D3FC340082E7FEF7B1FCFAE7FEF740FC98
:1058F000F7E73E000428F4D13800FDF73BFD050032
:10590000E01C261DFDF736FD002D00D1FAE600282B
:1059100000D1F7E6FF2301385843013D4519013D09
:10592000DFD30A20FEF73DFBF9E7C046FFFF00008A
:10593000CA090020CC130020AA140020BC120020A9
:10594000FDA2FFFFB80D0020C0120020BC0D0020FA
:10595000B212002048050020F41200207E0D002025
:1059600054050020FBA2FFFFEEA0FFFFFF0F000089
:10597000E60200000120FFF79DFBFFF745FBC1E6B3
:105980000120FFF753FBF8E70220F4E70220F8E7D5
:10599000022B01D001F09DF9B388002B01D101F059
:1059A00098F9182301225D434019437993434371C9
:1059B000FFF71EF801F08DF9C448FFF7C5FA01F0B2
:1059C00088F9C348F9E7C348F7E7C348F5E7C34890
:1059D000F3E7C348F1E7C348EFE7C348EDE7C3483F
:1059E000EBE7C348E9E7C348FFF7AEFAC248E4E78C
:1059F000C248E2E7C248E0E7C248FFF7A5FAC2485A
:105A0000DBE7C248D9E7C248D7E7C248D5E7C24872
:105A1000D3E7C248FFF798FA049B9E78C04B002E4C
:105A20003BD0C04A944235D0BF4A944205D0BF4AC9
:105A3000944232D11A78002A2CD000201870FFF737
:105A400037F95FE6BA48B8E7BA48B6E7BA48B4E704
:105A5000BA48B2E7BA48B0E7BA48AEE7BA48ACE7E6
:105A6000BA48AAE7BA48A8E7BA48A6E7BA48A4E7F6
:105A7000BA48A2E7BA48A0E7BA489EE7BA489CE706
:105A8000BA489AE7BA4898E7BA4896E7BA4894E716
:105A9000BA4892E701221A7034E61B78002B01D134
:105AA00001F05DF82300E03B9BB20693B44AB54B8E
:105AB00012781B781343B44A127813435BB2DAB2FC
:105AC0000592069A072A00D9B6E007210122214053
:105AD0008A40190052B29143C9B20591002E02D0FA
