:020000041000EA
:1000000000B5324B212058609868022188439860DF
:10001000D860186158612E4B002199600421596104
:100020000121F02299502B49196001219960352056
:1000300000F044F80222904214D00621196600F024
:1000400034F8196E01211966002018661A6600F04E
:100050002CF8196E196E196E052000F02FF8012189
:100060000842F9D1002199601B49196000215960AB
:100070001A491B48016001219960EB211966A021F2
:10008000196600F012F800219960164914480160C1
:100090000121996001BC002800D000471248134993
:1000A000086003C880F30888084703B5996A0420EC
:1000B0000142FBD001200142F8D103BD02B5186610
:1000C0001866FFF7F2FF186E186E02BD00000240BE
:1000D000000000180000070000035F00212200005C
:1000E000F4000018222000A00001001008ED00E03C
:1000F000000000000000000000000000070B8FD58A
:10010000000404209D0200109D4200109F02001078
:100110009F0200109F0200109F0200109F0200101B
:100120009F0200109F0200109F0200109F0200100B
:100130009F0200109F0200109F020010B9410010A2
:100140009F0200109F0200109F0200109F020010EB
:100150009F0200100D3F00109F0200109F02001030
:100160009F0200109F0200109F0200109F020010CB
:100170009F0200109F0200109F02001079420010A1
:10018000394200109F0200109F0200109F020010D1
:100190009F0200109F0200109F0200109F0200109B
:1001A0009F0200109F0200109F0200109F0200108B
:1001B0009F0200109F0200109F0200109F0200107B
:1001C00072B6254880F30888244880F30988022005
:1001D00080F31488BFF36F8F21482249086003F031
:1001E00094FE04F0BEF8204820491B4A914202DAEE
:1001F00008600431FAE71E49184A914202DA0860A1
:100200000431FAE71B491C4A1C4B9A4204DA08687D
:10021000106004310432F8E700201949194A91426C
:1002200002DA08600431FAE704F082F804F09AF880
:10023000154C164DAC4203DA216888470434F9E7BF
:1002400007F0B0F8124C134DAC4203DA216888472E
:100250000434F9E71049084700040420000C042086
:100260000001001008ED00E0555555550000042030
:100270000004042004970010000000205405002012
:1002800054050020F42C0020C0010010C001001013
:10029000C0010010C00100106143001090E700F0A1
:1002A00000F8FEE7F0B544464D4656465F46F0B4CA
:1002B0006B46CB60C3689D46F0BCA046A946B246DB
:1002C000BB46F0BD03F0B0FF62B6281CA04700207B
:1002D00003F0F8FFFEE704F009F8024A024B13604E
:1002E000FEE7C04604ED00E000000080F0B5C64621
:1002F00000B50F2A43D90B00032603431E400C0010
:100300000300002E40D11500103D2D09AC462D01F3
:10031000A846804400E03B00676825685F60E768A6
:100320001D60DF601F00A56810379D6010344345D5
:10033000F1D165460F230C2401352D0149191340D5
:100340004519144223D08C59AC5104369C1B032C04
:10035000F9D80324043B9B0801339B002240ED188D
:10036000C918561E002A07D0002300E02300CA5CEB
:100370005C1CEA549E42F9D180BCB846F0BD050031
:10038000561E002AF0D1F7E7561E0500ECE71A00CA
:10039000F6E7C046F0B5050083074AD0541E002A90
:1003A00044D0CEB20300032202E00135013C3DD32C
:1003B00001332E701342F8D1032C2FD9FF220A40AB
:1003C000150215432A0415430F2C35D92700103F79
:1003D0003F093E01B4461E001A00103666441560FF
:1003E00055609560D5601032B242F8D10F260C22CC
:1003F00001373F012640DB193700224217D03E1F4C
:10040000B608B400A4461A001C1D644420C2A242CF
:10041000FCD103240136B6009B193C40002C05D0CA
:10042000C9B21C19197001339C42FBD1F0BD3400D4
:10043000F4E714000300BFE72700E0E730B5032A24
:100440000CD903000B439B071CD103680C68A34223
:1004500018D1043A04300431032AF6D8551E002A74
:100460000ED002780C7894420ED101350123013967
:1004700004E0C25C0133CC5CA24205D1AB42F8D1AE
:10048000002030BD551EECE7101BFAE700224308A0
:100490008B4274D303098B425FD3030A8B4244D34C
:1004A000030B8B4228D3030C8B420DD3FF2209028E
:1004B00012BA030C8B4202D31212090265D0030B4D
:1004C0008B4219D300E0090AC30B8B4201D3CB0343
:1004D000C01A5241830B8B4201D38B03C01A524185
:1004E000430B8B4201D34B03C01A5241030B8B4287
:1004F00001D30B03C01A5241C30A8B4201D3CB0272
:10050000C01A5241830A8B4201D38B02C01A524156
:10051000430A8B4201D34B02C01A5241030A8B4259
:1005200001D30B02C01A5241CDD2C3098B4201D371
:10053000CB01C01A524183098B4201D38B01C01AEF
:10054000524143098B4201D34B01C01A5241030966
:100550008B4201D30B01C01A5241C3088B4201D315
:10056000CB00C01A524183088B4201D38B00C01AC2
:10057000524143088B4201D34B00C01A5241411AE9
:1005800000D20146524110467047FFE701B50020F6
:1005900000F0F0F802BDC0460029F7D076E77047BA
:1005A00003460B437FD4002243088B4274D30309D4
:1005B0008B425FD3030A8B4244D3030B8B4228D375
:1005C000030C8B420DD3FF22090212BA030C8B429B
:1005D00002D31212090265D0030B8B4219D300E03B
:1005E000090AC30B8B4201D3CB03C01A5241830BC0
:1005F0008B4201D38B03C01A5241430B8B4201D370
:100600004B03C01A5241030B8B4201D30B03C01A98
:100610005241C30A8B4201D3CB02C01A5241830A12
:100620008B4201D38B02C01A5241430A8B4201D341
:100630004B02C01A5241030A8B4201D30B02C01A6B
:100640005241CDD2C3098B4201D3CB01C01A5241D2
:1006500083098B4201D38B01C01A524143098B425B
:1006600001D34B01C01A524103098B4201D30B0144
:10067000C01A5241C3088B4201D3CB00C01A524169
:1006800083088B4201D38B00C01A524143088B422E
:1006900001D34B00C01A5241411A00D201465241C7
:1006A000104670475DE0CA0F00D04942031000D3E6
:1006B0004042534000229C4603098B422DD3030A3B
:1006C0008B4212D3FC22890112BA030A8B420CD34B
:1006D000890192118B4208D3890192118B4204D374
:1006E00089013AD0921100E08909C3098B4201D3F4
:1006F000CB01C01A524183098B4201D38B01C01A2E
:10070000524143098B4201D34B01C01A52410309A4
:100710008B4201D30B01C01A5241C3088B4201D353
:10072000CB00C01A524183088B4201D38B00C01A00
:100730005241D9D243088B4201D34B00C01A5241D7
:10074000411A00D20146634652415B10104601D364
:100750004042002B00D54942704763465B1000D3EE
:10076000404201B5002000F005F802BD0029F8D094
:1007700016E770477047C046F0B5CE4647461504A9
:100780002D0C2E0080B50704140C3F0C9946030C69
:100790007E435D43674363437F19340CE4199C46F1
:1007A000A54203D980235B029846C4444B46434389
:1007B0005143250C36046544360C2404A4195B19F6
:1007C00059182000C0BCB946B046F0BD02B471460D
:1007D00049084900095649008E4402BC7047C0468A
:1007E00002B4714649084900095C49008E4402BCC4
:1007F0007047C04603B47146490840004900095E8D
:1008000049008E4403BC704703B471464908400058
:100810004900095A49008E4403BC7047002B11D18E
:10082000002A0FD1002900D1002802D00021C9439D
:10083000081C07B4024802A14018029003BDC0463C
:1008400035FFFFFF03B4684601B5029800F006F8D3
:10085000019B9E4602B00CBC7047C046F0B557469F
:100860004E464546DE46E0B5040083B00D00924694
:1008700099468B4230D82DD04946504600F0C0F8FA
:1008800029000600200000F0BBF8331A9846203BF0
:100890009B4633D45A465346934042461F00534624
:1008A00093401E00AF423AD8AF4200D17BE05B4696
:1008B000A41BBD41002B00DA78E000220023009247
:1008C000019301235A4693400193012342469340EA
:1008D000009328E08242CFD90022002300920193A6
:1008E0000C9B002B01D01C605D600098019903B047
:1008F000F0BCBB46B246A946A046F0BD4246202306
:100900009B1A5246DA40414613004A468A40170075
:1009100042461F43534693401E00AF42C4D90022B3
:100920000023009201934346002BD9D0FB079C463D
:10093000614672080A437B0846460EE0AB4201D18D
:10094000A2420CD8A41A9D41012024196D41002116
:10095000013E24184D41002E06D0AB42EED9013E97
:1009600024196D41002EF8D1009801995B460019B9
:100970006941002B25DB2B005A464446D3402A0010
:10098000E2401C005B461500002B2BDB26005F4677
:10099000BE40330026004746BE403200801A9941CF
:1009A000009001919CE7A342B9D880E742462023FA
:1009B00000219B1A0022009101920122DA4001924B
:1009C00083E7424620239B1A2A0046469A4023008A
:1009D000F340444613432A00E2401C005B461500E6
:1009E000002BD3DA2023424626009B1ADE402F003C
:1009F000B4464646B74066463B003343CAE7C04666
:100A000010B5002903D100F007F8203002E0081CDF
:100A100000F002F810BDC0461C2101231B049842BF
:100A200001D3000C10391B0A984201D3000A08397F
:100A30001B09984201D30009043902A2105C401836
:100A40007047C046040302020101010100000000DA
:100A500000000000F0B505000C2485B00F00110E59
:100A60001202019201981A0000230291FFF7D6FEAC
:100A70006C43274B0600E41863680391834200D25D
:100A800060602B1FDBB20093C023009A9B012343BD
:100A9000012A2ED8012F2CD103221A603B00A26814
:100AA0001A42FCD0E02223681340802252012243E4
:100AB0001360009B012B09D8032123687B400B4066
:100AC00013600123BB40A2681342FCD08023802224
:100AD0009B01234312011A600198039B6660320058
:100AE0000299FFF79BFE0B4BAD00E850012005B0CB
:100AF000F0BD802212011A60064BAA00D1580029CD
:100B0000D0D05869FFF7C2FC01300138FDD1C9E7E8
:100B1000008000409C0B002070B5040008001E49B6
:100B20001500FFF7B3FC802223682D0492012A43AD
:100B3000002B0FDA3F2123680B40012B0AD1A36859
:100B40001B051B0D984205D1EE21E368C9020B403D
:100B50009A421CD0114B9C421AD080235B01104951
:100B6000104D0B6010490B601E00A9688E43FBD12D
:100B700001232360C023211D9B010B432121A06081
:100B8000196021680029FCDAE26008221A6070BD51
:100B900080239B01E3E7C046001BB70000C0024072
:100BA00000E0004000C0004000F000408322274BDE
:100BB000920010B5DA620022AA21254B09019A673A
:100BC000244A254811602F21D160244908605168CA
:100BD0000029FCDA0121224A11605A6C012AFCD159
:100BE0000321204A11609C6B012CFCD106221E4976
:100BF0001E48FFF791FF05221D491E48FFF78CFF95
:100C00001D4B02211A000420FFF724FF1B4B21007B
:100C10001A000520FFF71EFF194B00211A000720BC
:100C2000FFF718FF164B00211A000820FFF712FFEC
:100C3000144B134A00210920FFF70CFF0F4B002132
:100C40001A000620FFF706FF10BDC04600800540D1
:100C5000008000400040024000B0FA000060024006
:100C60003CB0004030B00040002F68590080024086
:100C700000389C1C00C00240001BB700405973079D
:100C8000006CDC021BB7000010B5002903D1012461
:100C90000A4A0B4BD4500B4ACB009B188022DC6FC6
:100CA00012012243DA6701220231890041184B68A0
:100CB0005B695A7500229A7510BDC046000011503C
:100CC000682000000400105010B5002903D1022450
:100CD0000A4A0B4BD4500B4ACB009B188022DC6F86
:100CE00012012243DA6701220231890041184B6860
:100CF0009B69DA7400221A7510BDC04600001150BD
:100D00006820000008001050F0B5002930D11D4BBC
:100D1000DD6C8B1C9B00C018406801228469267D15
:100D2000A27433005F1EBB41724022752668408A60
:100D30005F03B04200D930008023DB000343124A36
:100D40009BB23B43134062688018864202D88022DF
:100D5000D20113430D4A1540802292051543002904
:100D60000BD1084AD5640A4AC90089184B60F0BD06
:100D7000084ACB009B185D68CBE70648CA001218EA
:100D80005560F0E700001150FF7FFFFFFFFFFFAF4E
:100D900080001050000010507F220138C31713400C
:100DA0001B18DB110133DB0102329BB2FF3210B59D
:100DB00093420ED0FF2480220749D2002402591802
:100DC0001000214204D0181C934200D9101C80B29C
:100DD00010BD80208000FBE780FDFFFFF0B58B1C7D
:100DE0009B00C3185F6885B000900C1E7E69BD69CA
:100DF00010D14023414AB383B261B182B175698297
:100E000029758021AA61AB833D4A3E4B8905D150AB
:100E100005B0F0BD002E38D03B4BCA00D318039369
:100E20003A4BD2180023D367B3753A68B382019264
:100E3000012A5FD1388AFFF7AFFF80220223920098
:100E4000904208D080220133D200904203D0431E4A
:100E5000FF3B5A425341DB060293009AE23294462A
:100E60006346118842008A181A80294BB083CA1839
:100E7000019B8131B261FF319A060A438021090644
:100E80000A430399029B04C1CB67002DC0D01E4BBF
:100E9000E400E6181F4B4020E4180023E3672B759D
:100EA0003C686B82012C11D1388AFFF775FF8022D4
:100EB00002239200904208D080220133D200904257
:100EC00003D0431EFF3B5A425341DB06009AA4065F
:100ED000E2321188471817800D4AA8838A18AA6140
:100EE00080228131FF310C431206144374600836AE
:100EF000F3678DE702934020AFE7C0460001105032
:100F0000000011504C200000000010500400105050
:100F1000800110500800105010B50E4C0E4B2000F0
:100F20000021E360FFF75AFF00230C4AE23413600C
:100F3000012223800A49D0000A4C4018D1000C1924
:100F40008360E367C360084801320918CB670F2A42
:100F5000F0D110BD78060020348F00100000115031
:100F6000F8FF0F500400105008001050034B1A688F
:100F700082431A609A681042FCD0704700C000405B
:100F8000BFF35F8FD023BE221B0652009B5062B678
:100F9000704772B6D021BE22090652008B58002B32
:100FA000FCD0BFF35F8F704770B50E0001210C00BD
:100FB000B4400500408920436881B01C8000281897
:100FC00040688469A260002223606260E26093420C
:100FD00005D0418A013B5818FFF758FA81B22182A7
:100FE00028003100FFF790FE70BD000003000200F2
:100FF00010B5D6331B78DE3213707F221340064AB9
:101000000400136043681B68002B01D0012198473E
:101010000323237010BDC04600001150036910B5B2
:101020001960C268013AC260C2699B188269036193
:10103000934201D3436A036100238362036B002B55
:1010400000D0984710BD436902699A4203D1C26833
:101050000020824202D1180008C80B607047C368A4
:10106000C269013BC360436910B59B188269436143
:10107000934201D3436A436100238362036B002BD5
:1010800000D0984710BD000010B5FFF782FFEFF3C6
:101090000983203B83F3098880225204DA61D0223D
:1010A00012061168064A8900521852681168D268FF
:1010B00088689168034A884200D9034A9A6110BD42
:1010C000800B0020DA020010D7020010FEE7002398
:1010D0008268037503691B6899689142FBD25A685C
:1010E0000360426010605860704710B50C00FFF755
:1010F00050FF207D052807D8FFF772FB0C0606037A
:10110000130F0022A3691A6001235B42A361200030
:10111000FFF7DDFFFFF734FF10BDA26993680133CD
:1011200093606268236813605A60EDE7D0231B0662
:101130001968084A890052185268016910B591422D
:1011400005D01A6D920702D5012252425A65FFF767
:10115000BEFF10BD800B002070B5022504006D425B
:101160002068844200D170BD036823605C608561A3
:10117000FFF7DCFFF4E770B505000E000468AC4231
:1011800000D170BDE3683343E360236933420AD082
:101190006068A368C2691343027DC3610A2A04D14F
:1011A00082691A4207D12468E9E70B2AFBD18269D8
:1011B00013409A42F7D100238361FFF7B7FFF2E7AC
:1011C000036810B5002B05D0002202609961180059
:1011D000FFF7ACFF10BD0000D0231B061A68094BB7
:1011E00092009B185968036810B59A6884681219B0
:1011F0009A60426813605A6000230360013B8B6170
:1012000010BDC046800B002010B503689C68A24248
:101210000CD85C688A600B604C60216059609968EA
:101220008A1A9A6001235B42836010BD121B1B68FF
:10123000ECE7000070B50D4C050023680E00002B94
:1012400002D02000FFF7C8FFD0231B061A68084B06
:1012500092009B185868074B2A00E3600023103067
:10126000210026616361FFF7CFFF70BDC80F00202A
:10127000800B0020CD2C0010034B996A9A6A521AF9
:101280009042FBD87047C046004005407047704709
:10129000C26F70B51468030021780120042919D1A8
:1012A000197A022916D10500517962898D401542BB
:1012B00010D1DA691D6AAA4202D19D69002D09D1B7
:1012C00004320120002A05D09B6A2000043BFFF76E
:1012D0006BFE002070BD2131890010B50C58002C28
:1012E0002CD0FFF756FE0421201DFFF744FF2100FC
:1012F000E36F0C311A685B7902339B00D3185B688B
:101300009B695A68E3691A60A2690132A261A26A04
:101310009B18626AE361934201D3236BE361E06847
:10132000814206D00368E360596000238361FFF7C0
:10133000FDFE2000FFF7ACFFFFF722FE10BD10B549
:10134000406BFFF7A5FF10BD37B56B46D91D0023D5
:10135000074C087022789A4200D13233054802685F
:10136000D5690122A8474342434140B223703EBDA4
:10137000841C00205803002070477047704700000D
:10138000014B18787047C046E00F002070B505008B
:10139000D4352A787F21130004000B40212B00D084
:1013A0008FE013008B432FD0802B00D089E0030007
:1013B000D533187802281ED0032810D0012800D079
:1013C0007FE003331B78002B00D069E022005E49E8
:1013D000C832116020215160D034236070BD2300D9
:1013E000D8331B88002B6CD1220001205749C8320A
:1013F00011605060F0E723000120554AC8331A609D
:101400005860D0340023E8E70300D5331B780A2B5B
:101410004DD00B2B13D0092B53D10300D8331B789D
:10142000002B01D0022B4CD123004A4AC8331A604A
:1014300002225A60484BD03423600120CEE70300DB
:10144000D8331B88002B2BD10300D6331D7843489B
:101450002A00531E9A41D3B23C4A13700278DB0132
:101460000A4013430370002D1AD1394E3378002BF4
:1014700016D0FFF78EFD3A4A002330782900FFF797
:101480007BF90023374A80185941FA220023920041
:10149000FFF7C4F921008000FFF7CCFEFFF770FDD5
:1014A00022000023C83213605360D034C4E7030025
:1014B0002A4AD7331B78264E15783370ED09EFD1C1
:1014C000D5E7294B298899420BD0284B1900C23106
:1014D0000978002921D126495B5C002B1DD1002011
:1014E0007CE72300D9331A78013B1B78120213439F
:1014F000210022006068D632D73145681278097819
:101500002000A8470028EAD023004268C8331A60A8
:1015100002685A60D03400238EE760231A40202AE4
:10152000DDD12300D5331B780020202B00D255E7D6
:10153000212B02D9222BB3D050E723000D4AC83308
:101540001A600722E5E7C046E10F002040050020B1
:10155000C40F00201019002079150010021000207F
:1015600010270000E7030000810600007802002039
:101570002202000041050020DA30084A0178137881
:10158000022907D1012B01D0062B02D15278044B3E
:101590001A707047024A1370FBE7C046101900200A
:1015A000E00F00200F2230B507490C78631C134070
:1015B000064A157800229D4203D0054A0B7010554B
:1015C0000122100030BDC046640C0020650C0020D4
:1015D000540C002009020A4311B2120A032A12D045
:1015E00006D8012A25D0022A26D00023180019E0A7
:1015F000212A11D0222AF8D1032BF6D8104A9900BB
:101600008858104A06E0CBB2032BEED80E4A990058
:1016100088580E4AD35C05E0032BE6D80C4A9B00A1
:10162000985809230B4A50601360002800D010001E
:10163000704712230848F5E77B230848F2E7C046C5
:10164000E08B0010F08B0010888B0010988B00103E
:10165000D08B0010FC0B0020918C0010F48B00103C
:101660001423188804331B88034910B598470021B8
:10167000030008009847C0465542000070B5FFF7C8
:1016800088FCD0231B061A68154B92009B185B68D8
:1016900014481549DC690D680368144AE41AA54228
:1016A00009D9E4256D016419114D5B1903601368B4
:1016B00010481B18136015680C60FFF761FCFA22D4
:1016C0000023920020000021FFF756F800230A4A69
:1016D00080185941094A0023FFF7A0F8281870BD67
:1016E000800B0020801C0020341000206415002096
:1016F00080E3FFFFC09699190F2700001027000014
:10170000064B10B51A88824206D01880044B1B681D
:10171000002B01D01B69984710BDC0460410002063
:10172000040C0020064B10B51A88824206D018809F
:10173000044B1B68002B01D0DB68984710BDC046E6
:101740002E100020040C0020034B10B51B68181E3F
:1017500001D01B68984710BD040C002020B5857887
:101760000123002D06D0037A29401B0704D54B1E08
:101770009941CBB2180020BD0F232A002D091A4031
:101780000B4009092A430B43D31A58424341DBB2A9
:10179000F0E70000F8B50B4B07001E68FFF76EFF7F
:1017A000F423FF33801B084D084C984205D82E6067
:1017B00001332360064B1F80F8BDFFF75FFF322324
:1017C0002860F6E708100020F40B0020F00B002042
:1017D000F80B0020F0B50E4C0E4B21781A7803263A
:1017E0000B000D4D9A420FD05F007F5B87420CD1FA
:1017F0000C22424309488018012282718B4203D196
:101800009B18023213402370F0BD01333340E9E7E7
:10181000980B0020990B0020900B0020040D002055
:101820000022074B1A802023064AD179002901D1D2
:1018300091711172013B9BB20C32002BF5D17047B4
:101840003A100020040D0020024B1A88024B1A8027
:101850007047C046540600205A020020002210B5EE
:10186000064B074C074808495A6101329C60D86012
:1018700019611833202AF7D110BDC046681900201D
:1018800069730010CD720010AD710010B823DB0138
:10189000984205D1034B1B685A1E93415B42184086
:1018A0007047C0465005002010B55200054C121874
:1018B000091A035BDB430B5202309042F9D101203D
:1018C00010BDC04600E01F1010B5EFF3108372B6D4
:1018D000044C236007F0C4F8236883F310880120C8
:1018E00010BDC0466C0C0020044A054B0220D15CA0
:1018F000002902D000210138D1547047EC1C00208F
:1019000004100000044A054B0220D15C002901D1DB
:101910000138D0547047C046EC1C00200410000071
:10192000F0B58FB0FFF7EEFF0B90EFF3108372B6B8
:101930008022FF20324E334F1201310040033B60C2
:1019400007F096F83B6883F3108880200021B446A6
:101950002D4A2E4B40016646775C1D0057403B02E6
:10196000099300233C0008933A002B0012196B41A5
:101970003F0F2E013E43019626010096009E019FD7
:1019800092197B4112196B41E70E6E013E4303969B
:1019900066010296029E039F92197B41670EEE013B
:1019A0003E430596E6010496049E059F92197B41ED
:1019B000270E2E023E43079626020696069E079F96
:1019C00092197B41089E099F013192197B41814206
:1019D000C1D10C920D93EFF3108372B6094C04221F
:1019E0000CA90B48236007F043F8236883F31088A1
:1019F0000B9B012B01D1FFF777FF02200FB0F0BD49
:101A0000EC1C00206C0C002025232284E49CF2CBEB
:101A100000F01F0070B58024084D6401084B2A595E
:101A200001209A4209D9FFF74FFF030000208342AB
:101A300003D0FFF775FF034B2B5170BDEC1C00204A
:101A4000FF1F00000810000073B580246A460C4D8B
:101A50006401911D2B590880EFF3108272B6094E74
:101A60003260FF2252039818012207F001F8336810
:101A700083F310882B5902332B51FFF7CBFF76BD30
:101A8000EC1C00206C0C002010B5024B1B68984722
:101A900010BDC0463C0500200300DA680800511C58
:101AA00010B5D96019698A4204D21C68002C02D092
:101AB0005968A04710BD9B689854FBE7F7B51F0015
:101AC000C36804000093089B019115009B070DD08B
:101AD000002D0DD1089B9B0715D4F7BD20212000B8
:101AE000FFF7DAFF0136BE42F8D3F1E71600FAE756
:101AF000019B013D595D2000FFF7CEFFE8E7202163
:101B00002000FFF7C9FFE368009A9B1ABB42F6D397
:101B1000E3E70000F0B58FB0049003921D00169C1F
:101B2000002923D123051DD4302206AB1A701023BF
:101B300001319C430A00A30744D40123159A234092
:101B4000002A0BD00A00002B3CD0039A002A02D1B5
:101B50000C32144202D0159A013A15920A0006A8D6
:101B6000302628E0102DE5D1AC43E3E76123A2063F
:101B700000D541230F000026DBB20A3B0593290064
:101B80003800FEF709FD059BCAB2D3188446DBB2C4
:101B9000092902D813003033DBB2082004AA121836
:101BA000711C9355BD42C5D80E002029C2D067468E
:101BB000E5E716540132002B04D0159F974201D956
:101BC000202AF6D106A8302301E083540132149E66
:101BD000964201D9202AF8D1082D03D1914201D291
:101BE00010239C43274B1C4225D0230537D4002AC1
:101BF00035D0149B934202D0159B93422FD1914232
:101C00003CD2013A002A2AD0102D25D0022D0DD128
:101C10008A4223D801E0022D08D11F2A26D8622348
:101C200002E058231F2A21D8835401321F2A1DD8CD
:101C30003023835401321F2A18D8039B002B03D072
:101C40002D238354013211E0630701D52B23F8E7DC
:101C500023070BD52023F4E7914202D2013A102D3D
:101C6000D9D1A306DDD478231F2ADDD90100009441
:101C7000159B0498FFF722FF0FB0F0BD102DC5D1C2
:101C8000EFE7C04610200000F0B5070015008BB04C
:101C90000591059B1978002911D13B68002B0BD1C8
:101CA0003A69002A08D0B968002905D0FB689A4231
:101CB00000D8531E0022CA54F8680BB0F0BD059B33
:101CC000002001330593252900D0DBE008242439C6
:101CD000059B059A1B7801322B2B16D00BD8202B95
:101CE00015D0232B15D019003039092933D80023FA
:101CF0000A24049315E02D2B04D0302BF3D1084394
:101D00000592E5E702231843FAE70423FBE72043A3
:101D1000F6E71023F7E7049B05916343303BD318A4
:101D20000493059B1A78591C1300303B092BF2D9F8
:101D3000059B1B782E2B4ED1802212011043059A51
:101D4000059B5278013311003039092939D80A220C
:101D50000026944613E0002104912A2BE8D108CDF7
:101D600004938B4204DA02231843049B5B420493DE
:101D70000592DDE763465E432300303E96191A78EC
:101D80005C1C110030390929F4D919785A1C6C29C6
:101D90002BD023D8682930D06A2936D01A00117880
:101DA000531C0593692937D063D8622900D126E1F5
:101DB0002ED8252966D0582964D120231843103BFA
:101DC0003AE000262A2AE0D140CDF343DB171E403B
:101DD000059B0233D9E7059B0026D6E7742901D07D
:101DE0007A29DBD180239B000BE059786C29F9D14B
:101DF000C022D20010439A1CD1E75978682902D03A
:101E000080231843CBE7C022F4E78023DB00F8E708
:101E1000632969D0642935D18023DB0118437829EF
:101E200038D05829C9D06F2900D1E6E0622900D105
:101E3000E5E010239843063B020501D501229043BB
:101E40008022D200024041042ED5002A00D020E793
:101E50002C1D296882051FD5CD1702900498CA0F42
:101E600049196940019000963800FFF753FE25009C
:101E70000FE7732959D009D86F2900D1BDE0702927
:101E800000D1A3E03800FFF707FE02E77529D0D0A4
:101E90007829F7D11023CFE7420601D549B2DBE715
:101EA0000206D9D509B2D7E7002A00D0F1E60C2105
:101EB00004008C43A4462C1D810506D56146029181
:101EC0000499009601912968CEE72968420607D552
:101ED000C9B262460292049A009601920022C3E7B8
:101EE0000206F6D589B2F4E70224012604400AD19D
:101EF000012304E020213800FFF7CEFD3300049ACF
:101F00005E1C9A42F6D802CD3800C9B2FFF7C4FD74
:101F1000002C00D1BDE6049BB34200D8B9E62021D5
:101F20003800FFF7B9FD0136F5E72B0004CB069228
:101F30000793002A08D10090049B062231493800FB
:101F4000FFF7BCFD079DA4E6331E00D12E4B069A79
:101F50001500D3182A78002A01D0AB4214D1069B71
:101F6000ED1A80231B010340089302D0B54200D92B
:101F7000350002230340099304D1049B6C1CAB423F
:101F800004D82500069C0BE00135E3E7202138004A
:101F9000FFF782FD2500F0E738000134FFF77CFDF4
:101FA0002178002906D0089B002BF5D0069B9B19B1
:101FB0009C42F1D1099B002BC4D0049BAB42C1D9F8
:101FC00020213800FFF768FD0135F6E70F4C02CD00
:101FD0000443002907D100940A2305220C49380044
:101FE000FFF76CFD55E60A23029401930096063331
:101FF00000223800FFF78EFD4BE608231CE7022382
:102000001AE7C0461A8E0010FFFFFF7F0120000074
:10201000218E00100020704730B5042427490A782B
:10202000224205D018230340082B27D19843204390
:10203000130708D51824050014232540A54225D1EF
:10204000A843C0B2184301244978214206D018237E
:102050000340082B21D19843C0B220438B0708D5F9
:102060001821040011230C408C421FD1A043C0B2A0
:102070001843D30601D5E723184030BD142303408D
:10208000042BD5D1984304331843D1E70340142BD4
:10209000D9D19843C0B22043D5E711230340012B87
:1020A000DCD19843C0B207331843D7E70340112B64
:1020B000DFD19843C0B20843DBE7C04602100020DE
:1020C00070B50400822829D032D8312800D188E0A8
:1020D00020D8292800D17AE02A2800D187E0924B25
:1020E0009C4200D9A0E0FF3B9C4200D3EDE0E72CEE
:1020F00000D98BE0E02C59D2A72C00D97DE0A52C8B
:1021000000D3C9E0012C51D023B2002B38D0042CCD
:1021100036D34BE0352855D03928E0D1834B1A7897
:10212000920700D0F9E05B781B07D8D529243DE061
:10213000E32827D00BD8E02816D0E228CFD17B4B5C
:102140001B785A0732D5E324DB0619D42EE0E628A3
:1021500028D0E7282CD0E428C1D1744B5A789207B4
:1021600024D51B78E724EFE770480121027813009B
:102170000B4034D14078084218D0E324D20615D55C
:10218000002413E0694A1378590700D5C3E0527858
:10219000D20700D5C1E0102213405A4253415B429E
:1021A0001C4003E0614B1B781A07DBD4201C70BD78
:1021B0005E4A1378190700D5B1E052789207EAD544
:1021C000E424F3E7594B1B789B06EFD5AEE7574B5A
:1021D0001A78920600D5A4E05B781B07E6D539246F
:1021E000E4E7524B1B785B06E0D52A24DEE74F4B31
:1021F0001B785B06DAD53124D8E7BE2CC0D858341A
:10220000E4B24B4B6400E05A88244AE0494B9C42BC
:102210004FD88023DB019C4246D2631EFF3B464AD7
:102220009BB29342C2D9ABE7444B9C4212D8FF3BCE
:10223000E0B29C425BD2424B9C4255D8FF3B9C4251
:1022400047D3032483082040023C84405B0123439E
:102250003C4C46E03C4B9C420AD8FF3B9C424FD250
:10226000013BFF3B9C4200D28AE72002374C2AE028
:10227000374B384AE3189BB2934200D980E7E00419
:10228000C00EFFF7C9FEF82300025B011840E4B25C
:1022900004438020800105E05B342F4BE4B2185DDD
:1022A0008024E401044381E72C480440A02000027C
:1022B000F8E70323E0B284081C401840023B834047
:1022C000640127481C4304430CE0E4B2240225487F
:1022D000E8E7032483082040023C84405B01234359
:1022E000214C1C43A4B261E70002204CDAE7FFF75F
:1022F00093FEF8240002640120400134FF34D1E74A
:102300000F2520002840FFF787FE24092C402402D7
:1023100004431748D7E7E22448E7E02446E7E624E9
:1023200044E7352442E7C046FF5100000210002078
:10233000A08B0010FF4F0000FF1E0000FF550000A3
:10234000FF530000008AFFFFFF590000F0A0FFFFCD
:1023500000A0FFFFFF1F00009C8B0010FF0F00007C
:10236000008DFFFFF1A00000008CFFFFF4A0000033
:102370000090FFFF044A1378002B03D00023137052
:10238000024A13807047C0466D1500206E1500206C
:10239000074B70B55B7805005B0708D5054C2378C3
:1023A000834204D0FFF76AF9034B2570188070BD93
:1023B000021000206D1500206E150020024A1378CF
:1023C000834313707047C04604190020024B1A78EB
:1023D000104318707047C0460419002070B50024DF
:1023E000074D6B88A34208D0FFF748F9054B1B88BF
:1023F000C01A6B8880B298426441200070BDC0460C
:10240000540600206E15002010B5114B1B78002BD0
:1024100010D0104B1B787F2B0CD9C2081D2A08D86E
:102420000D4B01219B180722104081409A788A4366
:102430009A7010BD06230021074A9478844200D187
:102440009170013BDBB20132002BF6D1F1E7C046BF
:1024500040050020021000205C07002070B5154BDD
:102460001B78002B11D0144B1B787F2B0CD9C30881
:102470001D2B08D8114AD21807231840063B834069
:1024800091780B43937070BD002301220B49524297
:10249000CC18A4785DB2A042F5D0561C02D1002C15
:1024A00000D12A000133062BF2D1531CEBD08A183D
:1024B0009070E8E740050020021000205C07002033
:1024C000F7B50E4C0E4B24781B7801940D4C019DF2
:1024D000AB4201D10020FEBD0A265E43A5196F78EC
:1024E0008F4205D1365D864202D1AD78954203D147
:1024F000072501332B40EAE70120ECE7E81C002028
:10250000E91C0020981C00200721054B054A1B7878
:1025100012789A4200D1704701330B40F9E7C04668
:10252000E91C0020E81C002030B50724032300220A
:102530000440C00858430125091810008B5CE34093
:102540002B40934001321843C0B2032AF6D130BD6C
:10255000032370B50125CC086343D21807232E004E
:1025600019408E400021F6B20300CB40545C2B4052
:102570005B42634033406340535401310329F3D13C
:1025800070BD0000C3B20004020F10B500200B2A7A
:1025900008D801210C00944022000C4C224202D1A8
:1025A00052060BD410BDF02B0DD003D8E7229A426F
:1025B0004041F7E7F43B58425841F3E70800E72B66
:1025C000F0D9F13BF7E70800ECE7C0460C0C00003F
:1025D00010B5002904D00223094A11780B43137067
:1025E000084B094AC3189BB2934205D9074B084AC6
:1025F000C3189BB2934200D8C0B206F0D5F910BD03
:10260000EA1C002000A0FFFFFF1F000000C0FFFF2A
:10261000FF0F000080201E4A4004136810B50343DA
:102620001360FEF7A3FC80221A4CD2010021200087
:10263000FDF7B0FE8022002152011748FDF7AAFEE7
:10264000092363670333A367FEF766FC0123236452
:1026500080239B05E3642300104A90331A60802294
:10266000C120196892020A431A600D4B80001A5863
:102670000C491140C02212020A43C0211A502022E4
:1026800049005A501A608022074B5202E25010BD96
:1026900000C00040000011500000105010D0010098
:1026A00000E100E0FF00FFFF4C2000008B1C9B00BE
:1026B00070B5C318050050690E0014005A60002858
:1026C00003D020220021FDF765FEA069002803D079
:1026D00020220021FDF75EFE31002800FEF77EFB80
:1026E00070BD0000F8B50600052925D80800FEF7E2
:1026F00077F8C02324C0C003FEF74BFC01217348C8
:10270000FEF739FD724C00252300F4331D7096232B
:102710005B00E554FEF734FCFEF73BFC6D480121FD
:10272000FEF729FD95239B00E5543833E554FEF769
:1027300027FC0520FEF736FFF8BDFEF72AFC664AA7
:1027400001213000FFF7B2FF644A04213000FFF797
:10275000ADFF5F4C624A2300C03319783000FFF7A9
:10276000A5FF2300C13319785E4A3000FFF79EFFB2
:102770002300C2331978002903D05B4A3000FFF7E9
:1027800095FF230025000027FC35F8331F606B6997
:1027900056486B602B60AF61EF61FEF7DDFC2300F4
:1027A000F4331F70AB6C52486B63EB6C2F65EB63BB
:1027B000AB636F65FEF7D0FC96235B00E754012105
:1027C0004248FEF7D8FC4B48FEF762FD88239B0089
:1027D000E15C494A3000FFF769FF484B484AE15C39
:1027E0003000FFF763FF474BE15CB94203D0464A34
:1027F0003000FFF75BFF9623002598229B00E550F1
:102800001833E3589200A350043AA3509D239B0031
:10281000E5500433E5503D48FEF79EFC95239B00B0
:10282000E5545033E258143BE250A6221833E358E3
:102830009200A350043AA350AB239B00E55004330D
:10284000E5503348FEF788FCA3239B00E5540121A3
:102850002048FEF790FC2F48FEF71AFDFEF790FB8C
:102860002D4B1B78AB4202D00520FEF79BFE0220C9
:1028700060E7FEF797FEFEF78CFB02211348FEF798
:102880007AFC134C01252300F4331D701748FEF722
:1028900063FC96235B00E5541548FEF75DFCFEF7EC
:1028A0006FFBFEF776FB02210A48FEF764FC9523D6
:1028B0009B00E5541548FEF74FFCA3239B00E5540D
:1028C0001348FEF749FCFEF75BFB35E75C0300208D
:1028D00078020020BC040020548F0010A496001041
:1028E000E0020020FC020020180300206403002006
:1028F0009C03002058030020400400202102000017
:102900005C0400202202000078040020C40400209F
:10291000FC040020B80400202D10002010B5074B47
:1029200002301B78002B04D0054B1E221B787F2B16
:1029300000D806220021FDF72DFD10BD4005002026
:102940000210002070B58024044D6401280022008C
:102950000021FDF71FFD024B2B5170BDEC1C002028
:102960000810000070B5FEF7CDFF0400051E03D16E
:10297000FEF7BAFF200070BDFEF7A6FF0400FFF7C8
:10298000E1FF012DF6D1FEF7AFFF431E9841044051
:10299000F0E7F7B5170001220231890041184B68B2
:1029A0005C692275216822691B8A8D1A9D4200D9B3
:1029B0001D000023180052198A42584122618203E7
:1029C0000092A17DAEB20800421E904142030192E6
:1029D00001224A40A275A0699F4200D0A38BC01873
:1029E0002A00A168FDF782FC8420A36800025D191B
:1029F000009B30431843019BA56003431800002F40
:102A000000D01804FEBD00008B1C9B00C3185B683F
:102A1000F7B506000C1E5F6924D11A4BDB6C00224F
:102A2000210030000193FFF7B4FF3A683B690500CD
:102A30009A4205D0012221003000FFF7AAFF05438A
:102A40006B0113D5104A019B13401A00A023DB052C
:102A50001343002C11D10B4AD3640C4B1034E40007
:102A60001D51F7BD094ACB00D358D8E7084A019B4E
:102A700013401A0080239B05EAE70449E2008B50CB
:102A8000EBE7C04600001150FFFFFFDF00001050D1
:102A9000FFFFFFAF70B501258D4004892C430481F1
:102AA0008C1CA40004196468646923600023A2607C
:102AB0006360E3602361FFF7A7FF70BD70B5060098
:102AC000C43632780400152A16D8012393401A4AD6
:102AD000134220D180256D031D400ED19B020BD5E2
:102AE0000B233370FEF755FA2B002A002900200033
:102AF000FFF7D0FFFEF744FA70BDC3689B695B68BF
:102B0000002BF9D10300D0331B68002B00D098476D
:102B100000233370F0E70021FEF7B6F80021200013
:102B2000FEF7D2F863681B68002B02D00621200054
:102B300098470623EDE7C046410E000070B505003A
:102B4000C43504002878152835D8FDF749FE3E34F1
:102B5000343434343E34340B28353434343434345F
:102B600034343E3E2300CC33DA7B18680E331B78B6
:102B700012021343984212D2E368198AFDF70CFD42
:102B80000E1E0CD1FEF705FA330032003100200092
:102B9000FFF780FFFEF7F4F90A232B700BE01423F4
:102BA0002B70FEF7F6F9002320001A001900FEF73B
:102BB000FBF9FEF7E5F970BD2300D0331B68002B4D
:102BC00001D0200098470023E7E700212000FEF70E
:102BD0005BF800212000FEF777F863681B68002B84
:102BE00002D00621200098470623D6E70B00F0B557
:102BF00011339B00C3185C6885B005000E00002CE3
:102C000043D0FEF7C6F9201D0821FEF7B4FA2300D1
:102C1000B7004433EF190193FB685B691B68002B15
:102C200017D0236D226E01332365A36D9B18E26DCF
:102C3000A365934201D3A36EA365606C019B83429D
:102C400007D00368019A63645A6000238361FEF72A
:102C50006DFA03A90198FEF7F6F9039B021E0ED147
:102C6000FB685A691268002A0DD01B8A013B1A4280
:102C700009D1E36F1B7E002B05D12A00D43231002D
:102C80002800FFF707FFFEF77BF905B0F0BD13B58D
:102C9000446BE36F1A681178042915D1217A02294F
:102CA00012D1197901238B4012891A420CD12000CC
:102CB00001A94430FEF7C7F9021E05D0E46F019B5D
:102CC00021792068FFF7E6FE13BD000070B50C0007
:102CD000FEF75FF92378042B02D0FEF751F970BD9F
:102CE000144B1B78DB09F8D1134D2B78002BF4D053
:102CF000124B1B78002BF0D023899B0705D40823A7
:102D00000F4A01212000FFF7C5FE28780D4A002355
:102D10000021FDF731FD00230B4A80185941FA22AA
:102D200000239200FDF77AFD21008000FEF782FA71
:102D3000D3E7C04602100020C40F00204005002049
:102D4000E10F002010270000E7030000F7B5002581
:102D5000FEF71FF9294C626F13681978042944D1D2
:102D60002178022941D11279013991401B890B4206
:102D70003BD1E36C226D934237D1B02149006943C6
:102D80001F4A5218FC32516B00292ED0616E002967
:102D90002BD00439C91A28D01960516B01395163FD
:102DA000A26D9B18626DE364934201D3236EE364CA
:102DB00000272000676601A93C30FEF744F9636FE5
:102DC00006001A7EBA4209D001981A693900121A0F
:102DD0003018FDF7DFFA636F1B690193606F019B89
:102DE000017932000068FFF755FE6134FF34012D90
:102DF00002D1FEF7C5F8F7BD0125ACE7600300205E
:102E000078020020F7B50500C4352B780400002BAC
:102E100001D000232B702600D4360822C049300090
:102E2000FDF764FA63689B68002B15D13278602641
:102E3000164039D000212000FDF726FF0021200098
:102E4000FDF742FF63681B68002B02D006212000BB
:102E5000984706232B70F7BD200098470028E5D03F
:102E600023002600DB331A78013B1B781202CC3694
:102E7000134332689A4200D933602300D4331B785D
:102E800037687F2B00D886E1002F00D176E1092337
:102E90002B70FEF77EF822000021C83233681268DA
:102EA0002000FFF7F7FD73E123007F21D5331B7866
:102EB0000A401B0213439B4A934200D148E12DD89C
:102EC000022B00D1E5E00BD8002B4CD0012BB1D167
:102ED000954A2300C8331A6002225A6000222DE06E
:102EE00081225200934200D1F7E0FF32FF32934239
:102EF00042D08022520093429CD12300D6331B78CB
:102F0000012B97D122000221DC3213888B431380DE
:102F10002300C8331E605E609E60A1E7834A93422F
:102F20000ED8013A934233D2013AFF3A934200D08D
:102F300080E723007E4AC8331E605E609A608FE798
:102F40009022120193423FD07A4A9342C0D080220D
:102F50001201934200D06DE723002200C833DF3214
:102F60001A6001222EE022002100C832DC311160FB
:102F700002215160936073E72300D6331B78012B45
:102F800000D057E72200DC32118801330B43BEE743
:102F900023002200D9331B78D83212781B02134346
:102FA000210022006068D632D7314768127809784C
:102FB0002000B847002800D13CE723004268C8330E
:102FC0001A6002685A60A7E72378042B4AD1FDF7FC
:102FD000E0FFA268584B02271340A3602300103380
:102FE00000931E003C3301937F423368002B0ED0C8
:102FF0005869002803D00C303900FEF7E1F8336837
:103000009869002803D00C303900FEF7D9F8002366
:10301000019A08C6B242E8D118001E1C00999A0015
:103020008F583F497A6990759082DA0052189168FA
:103030000133490049089160B9690E754882D16829
:1030400049004908D1600F2BE8D1FDF799FF230013
:103050000321DF331E70636821701B68002B01D0D1
:10306000200098472300D6331B78002B0BD022007A
:10307000DF3213700423237063681B68002B02D0B7
:1030800002212000984722000023C83213605360B9
:1030900070E72300D8331A780F23134002339B00C4
:1030A000E31852B25B68002A0EDA5B69002B00D18C
:1030B000C0E61A7D002A05D15B7D204A002B00D195
:1030C000B8E606E71E4A04E79B69002B00D1B1E68B
:1030D0009A7C002AF6D1DB7CEFE72300D6331978FF
:1030E000002900D0A6E69E780F233340CBD09A1C4F
:1030F0009200A218506872B2DB00124E002A07DA62
:10310000114A9B18DA6F3240DA6743695975BAE79A
:103110000E4A9B18DA6F3240DA678369D974B2E7D6
:103120000000105002030000F89600100106000095
:10313000ED0F0010020C000001000100508F001084
:10314000278E0010FFF7FFFF0400105008001050FA
:103150002300D6331B78002B00D06BE623000F2111
:10316000D8331B7819408ED05BB22000002B02DAD6
:10317000FDF78AFD87E7FDF7A7FD84E714232B7091
:10318000FDF707FF3B003A0000212000FDF70CFF90
:10319000FDF7F6FE5FE6002F08D015232B70FDF734
:1031A000F8FE2200C83233681268EDE70B232B705B
:1031B000FDF7EFFE3B003A00390071E613B5080059
:1031C000032A25D90623144A11785278CC070B40DC
:1031D000E40F234308240C40234310240C402343D2
:1031E00020240C40234340240C40C909C901234337
:1031F0000B43D107C90F92070902D20F0B435202AA
:10320000134301A904220193FDF770F8002016BDB5
:1032100001204042FBE7C0460210002010B5438861
:103220000C00934206D841681A002000FDF75EF8B2
:10323000002010BD01204042FBE70000030070B5F4
:1032400080249D18080064010021A54204D8034988
:103250005918FDF74BF80121080070BDEC1C002047
:1032600010B51F2807D80A225043044BC018FFF797
:10327000E5FF002010BD01204042FBE75B04000099
:103280001FB5084BC318FF2B09D801ACC0B22100F1
:10329000FFF7E6FF002802D1208904B010BD024BE1
:1032A000188BFAE700A9FFFF54060020F0B5284C60
:1032B000284F294E85B001AD0A2229003C6030001C
:1032C000FFF7BCFF2000102200210830FDF762F854
:1032D0002B8822492380AB79A370AB88E370EB790C
:1032E00023712B7A63716B88E380002323726B7ADE
:1032F0005AB2D243D217114001226161134200D069
:1033000022720222134202D0217A0A43227204223C
:10331000134202D0217A0A4322720822134202D0B9
:10332000217A0A43227210210B4202D0227A0A43E8
:1033300022722022134202D0237A1A432272084BAF
:103340000A36183404379E42B5D105B0F0BDC046E8
:10335000F415002070150020DB0600008F1C0020F3
:103360001B080000A022F0B5124D85B052000021CC
:103370002800FDF70FF8C0220F4C5200002120005A
:10338000FDF708F80D4E01AF25600A223900300024
:10339000FFF754FF280008223900FCF7A7FF3B89FC
:1033A0000A36A380064B0A350C349E42EBD105B099
:1033B000F0BDC046840E0020040D00209B050000D7
:1033C000DB06000013B56B46DC1D00230122210043
:1033D0002370FFF733FF207816BD000070B500247E
:1033E000094BE018FFF7EEFF084BE0540134242CA2
:1033F000F6D10024064D2B69002B00D098470134EC
:1034000014350C2CF7D170BD370400005406002091
:10341000149500100B4B800070B5C5184842484108
:10342000400028180E00FFF7CDFF000284B20120F3
:10343000002E00D102302818FFF7C4FF204380B2CD
:1034400070BDC0462704000070B5490154000C1936
:103450000002241820002730FFF7B4FF000285B2D5
:1034600020002830FFF7AEFF284380B270BD10B5B2
:103470002620FFF7A7FF10BD10B52320FFF7A2FFFE
:103480009A2801D0002010BD2420FFF79BFFB3280D
:10349000F8D18E38FFF796FFAF3843425841F2E734
:1034A00010B50420FFF78EFF04002220FFF78AFFEB
:1034B0000002204380B210BDD0231B061A68084BBF
:1034C00092009B185B6810B5D96808751868026887
:1034D0001A60536001220275D860FCF7E3FE10BD4C
:1034E000800B00200A00D02109060B6830B50400CB
:1034F00012489B00C3185B6887B0DD68531C18D066
:103500000B6869469B00C0180D4B4068039300236D
:10351000103005930495FDF777FE2000FFF7CCFFF0
:10352000009B002B02D06846FDF756FEA86907B045
:1035300030BD2000FFF7C0FFF8E7C046800B002039
:10354000EB100010D0231B061A680A4B92009B1840
:103550005B6810B5DB68002908D0426818605A60C3
:10356000136043600420FFF7BDFF10BD01204042FF
:10357000FBE7C046800B002070B504000D00E36837
:10358000002B07D0236900201A1DA262E2699B1854
:10359000E36208E0237A002B06D129002000FFF720
:1035A000D1FF0028EBDA70BD02204042FBE7F7B5FF
:1035B00004000F00009201930025FDF7EAFCA36AC6
:1035C000002B09D101992000FFF7D6FF002803D076
:1035D000FDF7D6FC2800FEBDA06AE36A009A1B1A1C
:1035E000561B9E4200D91E00402E19D93900402298
:1035F000FCF77CFEA36A40374033A3624035A36AE0
:10360000E26A934204D3E3692000191FFDF706FD27
:10361000FDF7B6FC009B9D42DCD2FDF7BAFCCEE77D
:1036200039003200FCF762FEA36ABF199B19A3623E
:10363000AD19E4E710B54430FFF7B9FF10BD012321
:1036400010B544305B42FFF7B2FF10BD70B5040007
:103650000E001500FDF79DFCA36A002B09D129007F
:103660002000FFF789FF051E03D0FDF789FC280025
:1036700070BDA36A1E70A36AE26A0133A36293421B
:1036800004D3E3692000191FFDF7C8FCFDF778FC9F
:103690000025ECE710B54430FFF7D8FF10BD01223C
:1036A00010B544305242FFF7D1FF10BD70B5040091
:1036B0000D00E368002B07D062690020131D12681B
:1036C000A3629B18E36208E0237A002B06D129004D
:1036D0002000FFF737FF0028EBDA70BD02204042E0
:1036E000FBE7F7B504000F00009201930025FDF7FA
:1036F00050FCA36A002B09D101992000FFF7D6FFE7
:10370000002803D0FDF73CFC2800FEBDA16AE36A57
:10371000009A5B1A561B9E4200D91E00402E17D9F4
:1037200038004022FCF7E2FDA36A40374033A36231
:103730004035A36AE26A934202D32000FDF78FFC72
:10374000FDF71EFC009B9D42DED2FDF722FCD0E778
:1037500038003200FCF7CAFDA36ABF199B19A362A7
:10376000AD19E6E710B50C30FFF7BBFF10BD012324
:1037700010B50C305B42FFF7B4FF10BD70B504000C
:103780000D00FDF706FCA36A002B09D129002000DB
:10379000FFF78CFF051E03D0FDF7F2FB280070BD7C
:1037A000A36AE26A1D780133A3629342F4D3200036
:1037B000FDF755FCF0E710B50C30FFF7DFFF10BD4B
:1037C000012110B50C304942FFF7D8FF10BD0000B1
:1037D00070B506000D00FDF7DCFB144C2378042BBC
:1037E00002D0FDF7CDFB70BD2389DB0612D5D022B8
:1037F000120611680E4A89005218E36952685B6923
:10380000D2680C331A60642193610320FFF76AFECB
:10381000431CE6D0074A0323557004212D0A2000DB
:1038200016709570FFF736F9DBE7C0467806002082
:10383000800B00200519002010B501000420FFF7BF
:10384000C7FF10BD10B501000320FFF7C1FF10BD79
:10385000D02301211B061A68064B92009B1810B555
:103860005B684942DB68036098610320FFF73AFE1A
:1038700010BDC046800B002070B50500FDF789FB28
:103880001A4C2378042B1ED1194A238912787F2AD7
:103890001CD9184A1278002A18D0DB060BD4202332
:1038A0002A0004212000FFF7F5F820222900124801
:1038B000FCF71CFD07E0E36958690C30FFF7C8FF0F
:1038C0002378042BEBD0FDF75BFB70BD9B0703D483
:1038D00008232A000121E5E7236958690C30FFF726
:1038E000B7FF2378042BEED1F2E7C046780600201C
:1038F0000210002040050020E10F00208023F0B5D9
:10390000160089B08218050001915B019A4203D923
:103910000024200009B0F0BD5D4F3200C719390006
:103920000198FCF78BFD01240028F2D032000199A8
:103930003800FCF7DBFCFDF7E5FF0590002802D11D
:10394000FDF7D2FFE4E7019B1A78012E33D9EB078C
:1039500031D4504B9D422ED8019B5B781B02134300
:10396000012B28D85A1E934120225B421340803BF2
:103970006A0A1343FF220499DBB291430A001A43F7
:10398000049204996B08444ADBB21B020A401A43B2
:103990006B460492188AFEF757F80400012867D195
:1039A000019B023E023502330193002ECBD1FEF77C
:1039B00031F8040061E03F2D18D8FF21039840231F
:1039C000884301002B43DBB21943334B12020B40F7
:1039D000134303936B469889FEF736F804000128D9
:1039E00046D1019B013E01350133DDE70296052EEC
:1039F00001D90523029306AF06220021B81CFCF76B
:103A0000C9FC07222B0C1340029ABD70D20013434D
:103A10003B702B0A7B7000230199DA19C95C0133D2
:103A2000D170029A9A42F7D13888FEF70DF8040057
:103A300001281DD17888FEF707F80400012817D166
:103A4000012E07D9B888FDF7FFFF040001280FD128
:103A5000032E07D8029A029B9446F61AED18019B92
:103A60006344A1E7F888FDF7EFFF04000128F1D0D7
:103A7000002C02D0022C00D00024059B012B00D08A
:103A800047E7FDF731FF002800D141E741E7C04695
:103A9000EC1C0020FF3F0000FF00FFFF73B56B46EA
:103AA0009C1D00230E000222210023800500FFF749
:103AB000C5FB23889E4205D00222210028002680D3
:103AC000FFF71CFF73BD37B50025042201A90400D0
:103AD0000195FFF7B3FB019BAB4205D0042201A97E
:103AE00020000195FFF70AFF37BD37B50D00040030
:103AF000FFF768FCA84206D06B460122D91D2000C2
:103B00000D70FFF7FBFE37BD10B5034B0C20197885
:103B1000FFF7EBFF10BDC046881C002070B50024E5
:103B2000074BE5182800FFF74DFC064BE15C81428E
:103B300002D02800FFF7D9FF0134242CF0D170BD4A
:103B4000370400005406002010B54388934207D87C
:103B50001A004068FCF7CAFBFFF7E0FF002010BD29
:103B600001204042FBE700000A4B800070B5C418FA
:103B700048424841400020180E00110A1500FFF786
:103B8000B4FF0120002E00D10230E9B22018FFF767
:103B9000ACFF70BD2704000070B58025044C6D019A
:103BA000200000210134FFF7A0FFAC42F8D170BD26
:103BB0001B08000070B51D00032812D8072910D873
:103BC0000F2A0ED8490154000C19000224182000B5
:103BD000190A2730FFF789FF2000E9B22830FFF7E4
:103BE00084FF70BD10B59A21041E00D165312320D9
:103BF000FFF77BFFB321002C00D14C312420FFF7CD
:103C000074FFAF21002C00D150312520FFF76DFF4C
:103C100010BD10B50400C1B20420FFF766FF210AF1
:103C20002220FFF762FF10BDF0B5012587B01022FA
:103C3000002102A8FCF7AEFB664C2668731C00D17D
:103C400013E1FDF7A6F901236348F200D021B34048
:103C50001218052009064B621060604AB600B618BB
:103C6000402232608B61FDF78BF95D4B5F695D4BE4
:103C70009F4200D8C6E05C493800FCF707FC5B4B6C
:103C800006009F4200D89BE00723594938001E4098
:103C9000FCF7FCFB01380F2800D991E0FCF7B4FDDC
:103CA00088008000780070006800600058005000B4
:103CB00048004000380030002800200018001000A4
:103CC000C046C046C046C046C046C046C046C046C4
:103CD000C046C046C046C046C046C046C046C046B4
:103CE000C046C046C046C046C046C046C046C046A4
:103CF000C046C046C046C046C046C046C046C04694
:103D0000C046C046C046C046C046C046C046C04683
:103D1000C046C046C046C046C046C046C046C04673
:103D2000C046C046C046C046C046C046C046C04663
:103D3000C046C046C046C046C046C046C046C04653
:103D4000C046C046C046C046C046C046C046C04643
:103D5000C046C046C046C046C046C046C046C04633
:103D6000C046C046C046C046C046C046C046C04623
:103D7000C046C046C046C046C046C046C046C04613
:103D8000C046C046C046C046C046C046C046C04603
:103D9000C046C046C046C046C046C046C046C046F3
:103DA000C046C046C046C046C046C046C046C046E3
:103DB000C046C046C046C046C046C046C046C046D3
:103DC000701E07281ED8FCF70BFD1C1B1A191817AC
:103DD0001615C046D88E00100440014004C00140B2
:103DE0009C0B0020FF083D0000093D00FF5025020C
:103DF0000048E801C046C046C046C046C046C0466E
:103E0000C046C046EB430193D0231B0608229C46C4
:103E1000354802A907680B887E1C5AD0664676682A
:103E2000FE4001273E4254D12B43013AD2B20B80CF
:103E300004300231002AEDD12668731C12D0FDF740
:103E4000A8F80123D022B34012069362274AF30058
:103E50009B1805221A60264BB600F6184A233360D9
:103E6000FDF78EF81E20FDF707FA224B6D00043493
:103E7000ADB2A34200D0E0E61F4C102202A9200000
:103E8000FCF7DCFA1D4D002826D0102202A92000E4
:103E9000FCF72CFA01232B70FDF7F0FB184B186090
:103EA000174B1E68FDF7EAFB801B042817D9154E37
:103EB000102221003000FCF7C1FA0023984205D0FF
:103EC000102221003000FCF711FA012300222A7091
:103ED00006E0019E3340A8E72B78002BE0D10023B9
:103EE000180007B0F0BDC0468496001004400140A1
:103EF00004C00140188F0010F4180020E40B0020CB
:103F0000E80B002044150020704770477346F0B559
:103F100087B00593A24B1D68EB0310D58022A14BFF
:103F2000A14992020124CA500021A048C3689A699D
:103F3000147551825A69947591825B689847EB04B5
:103F40003BD58022974B98491203CA500223974CC5
:103F50002200237000232600DC321360A36001934B
:103F6000F368002B15D0FDF714F8F36858690028A2
:103F700004D002210C304942FDF722F9F368986918
:103F8000002804D002210C304942FDF719F9FCF752
:103F9000F7FF0027019BF760013301930436102BD4
:103FA000DED12300C4331F70FCF7B6FF63681B68C3
:103FB000BB4202D03900200098476B0430D5102254
:103FC0007A4C784B7849CA5023002278E0331A7033
:103FD0000523237063681B68002B02D00421200096
:103FE000984700260227A6607F42E368002B13D083
:103FF000FCF7CFFFE3685869002803D00C30390084
:10400000FDF7DEF8E3689869002803D00C3039002A
:10401000FDF7D6F8FCF7B4FF01360434102EE4D1D6
:104020002B040FD5802261485E4B5F491201CA50B4
:104030000300E0331B78037043681B68002B01D03A
:1040400005219847AB0307D558484368DB68002B28
:1040500000D09847544B9B6CEB0606D4059B0F335E
:1040600001D0FDF711F807B0F0BD4F4B9B6D0393E6
:104070000023029301330193039B002BEED0029B9C
:10408000202BEBD0019B039A13421FD0484B464A8A
:104090000199464FD1500122029B5C08A31C9B0052
:1040A000FB185B680493029B134233D1049B5D6948
:1040B0002B692A886B609BB293420FD02100380095
:1040C000FEF7A2FC039B019A93430393019B5B00C1
:1040D0000193029B0133DBB20293CDE70122A240A0
:1040E0003B8993433B81049B9B68002B02D02100BA
:1040F000380098470234A4003F19FCF74AFF7B6858
:10410000002158690C30FDF75BF8FCF739FF0023FC
:10411000AB82D7E7049B274A9D69E3009B181E6882
:10412000A969B605B60D3200A868FCF7DFF8AB68E0
:104130009B19AB606B689B196B602B689B1B2B609A
:104140002B8A013B9BB22B82002B03D0049B5B8A02
:10415000B3421FD901220023A2406B82134DA61C3B
:104160006B8993436B81B300EB185B68DB68002BB2
:1041700002D0210028009847B600AD19FCF709FFCE
:104180006B689B69180059680C30FDF719F8FCF74B
:10419000F7FE97E721003800FCF7B6FD92E7C0462E
:1041A0009800115050300000000011507806002097
:1041B0005830000084001050F8B57746FCF7E9FE4F
:1041C000D0231B061A68174B92009B185D682E00BF
:1041D000EB6910360133EB612B699E4206D1FCF787
:1041E000CFFE0F3701D0FCF74FFFF8BD9A68013AB8
:1041F0009A602C69A368002BF1D1226861680A607B
:1042000051602360FCF7BCFE21692000E3689847F9
:10421000FCF7BFFE6269002AEBD021003000FCF7FA
:10422000F3FFE6E7800B0020BFF35F8FD023BE22B1
:104230001B0652009B507047D0230C2172461B0670
:1042400010B519650B39186D084205D140BF0F3202
:1042500001D0FCF719FF10BD986D0230F3D172B692
:104260001A68034B92009B185B68024A9A65FEE746
:10427000800B0020D08D0010D0230C2172461B062D
:1042800010B519650B39186D084205D140BF0F32C2
:1042900001D0FCF7F9FE10BD986DF4E710B5EFF30F
:1042A0000983203383F30988FCF76AFE10BD10B53B
:1042B0000400FCF76EFE21000820FFF713F9FCF75D
:1042C0005FFE10BD10B50400FCF763FED0231B0693
:1042D0001A68054B92009B185B680F20DB689C6195
:1042E000FFF7EAF810BDC046800B0020D0231B0664
:1042F0001A680E4B92009B185B6810B51868D96855
:1043000002681A60536001220275D86000238A682F
:104310000B750B691B689C689442FBD85A680B604C
:104320004A6011605960FBF7BDFF10BD800B002093
:1043300070B508210024094B18685A689D68954299
:1043400007D8D868904207D8013910330029F3D133
:1043500070BD40C840C2F2E710C2F3E704960010F7
:10436000FEE7704770B5FCF721FC0B4D0B4B2A683C
:1043700000249A4205D00A482B60FCF77DFF2C6090
:1043800070BD1423188804331B8806492C60984795
:104390002100030020009847F42C0020BAB0FECA88
:1043A000400D030055420000154B37B51C68002333
:1043B00001AD29809C4208D169782A782300F02930
:1043C00005D1F02A01D10F4B1B8818003EBD0328F0
:1043D000FBD8072905D80F2AF7D8FFF735F80300CF
:1043E000F3E7FD2905D1FC39002AEED1FFF712F8D9
:1043F000F5E7FC29E9D1002AE7D12100F6E7C0461C
:10440000941C0020660C00207FB5074B0A00019326
:104410000023029303930493044B010001A8059326
:10442000FDF732FC07B000BD891A0010FFFFFF7FC7
:104430000FB407B504A901C90191FFF7E5FF03B067
:1044400008BC04B018470000024A13788343137075
:104450007047C046EA1C002070B52E4B2E4A1B78D0
:1044600012782E4C2E4D134323702B78002B21D025
:104470002C4B5B88002B05D0FDF7B0FF002801D046
:10448000FDF778FF23782A7813432370264B1A7898
:104490000623002A04D0254A12787F2A00D918332F
:1044A0000022A11C013BDBB2FF2B2BD1002A01D043
:1044B000FDF760FF1E4B25781B781E4E9D431E4B5B
:1044C00020221B7831001D4320002570FBF7B6FF2A
:1044D000002816D0202221003000FBF707FF174BE1
:1044E0001B68002B0DD0104A1278002A06D00F4A04
:1044F00012787F2A02D90622657022705B6820003C
:10450000984770BD0878002801D00132D2B201313D
:10451000C8E7C04604190020EA1C00205C07002000
:104520006D150020540600204005002002100020D8
:10453000641900200D100020EB1C0020040C00204A
:10454000036910B50400002B01D041699847E07859
:10455000FFF77AFF2079FDF731FFFFF77DFF062295
:1045600000212000FBF716FF10BD0000427910B5B6
:104570000400930712D4022313430D4A43711178A8
:10458000C3780B4313700079FDF720FFFFF764FF3A
:10459000E368002B02D06169200098470022054B98
:1045A0001A806379DB0702D42000FFF7C9FF10BD32
:1045B000EA1C0020C2090020082210B50D4C022080
:1045C000237893432370FFF73FFF10222378134291
:1045D00004D0934302202370FDF7F8FE20202378B7
:1045E000034203D083432370FDF7F0FEFFF734FF4F
:1045F00010BDC04658020020F7B54F4B01921A7803
:1046000006000D004D4F520700D47EE03C888442E6
:1046100001D0002879D104211A7801208A43023977
:104620001A700A4008D14649464809880088691A24
:1046300089B28142524110000122060019781640C9
:104640009218914377000F431F700F2723093E4AAA
:104650003B405B009446995E01222740BA4012B26B
:1046600000284CD00A4361465A520220374F3B780B
:10467000034206D01023304A11780B431370FDF724
:104680009DFE20203B78034205D02B4A137803433C
:104690001370FDF793FE31002000FDF799FF019A9A
:1046A0002B4B002A04D0DA7E910601D5520641D563
:1046B000D88B002827D0274A00230021FCF75CF87C
:1046C0000023254A80185941FA2200239200FCF762
:1046D000A5F8FFF7ECFD194B204A1888204BC318AA
:1046E0009BB2934205D91F4B1F4AC3189BB29342FA
:1046F00000D8C0B204F040F9FFF75EFF18E0914324
:1047000062469952B1E70120E3E7154B134AF318CB
:104710009BB2F0B2934206D9124B134AF3189BB2E4
:10472000934200D9300004F027F93B88B342E3D02C
:10473000034B1D80F7BDC04658020020C40900206D
:10474000F00900205A020020D0090020041900209E
:104750005406002010270000E7030000FF1F0000A0
:1047600000A0FFFF00C0FFFFFF0F000010B584286E
:104770000ED1FCF7E9FF430709D54720FDF76EFE90
:10478000FFF76AFE4720FDF73FFEFFF765FE10BD0D
:10479000031FDBB2A02BF6D903002033DBB2072BBB
:1047A00007D807231840063B8340D8B2FDF706FE22
:1047B000EBE703005B33DBB2022B03D80020FCF7EE
:1047C000B1FFE4E75830C0B21628E0D80020FCF76B
:1047D00097FFDCE710B500280FD082280ED1FCF738
:1047E000B3FF830709D53920FDF738FEFFF734FE04
:1047F0003920FDF709FEFFF72FFE10BD83280AD1EF
:10480000FCF7A2FFC307F8D55320FDF727FEFFF7FB
:1048100023FE5320EDE7FFF7A9FFEEE7F7B5244F9E
:1048200001903D68002D3BD00023224A1380224A8C
:104830001370224A1370EC88214B621EFF3A9A4291
:1048400001D8204B1C40E4B22600731E9E41EB6849
:10485000F6B2002B03D02969002098470640002EAD
:1048600006D0231FDBB2A02B1CD82000FDF7CCFD07
:10487000019B154C002B0ED03B681A7AD2060AD445
:104880002278002A07D01888104A431E9BB2934210
:1048900001D8FCF77FFFFFF7DFFD00233B602370AB
:1048A0002800FEBDFFF7D8FD2000FFF793FFDFE7EC
:1048B000BC090020F80B002064190020EB1C00202C
:1048C000FF1E0000FFE0FFFFC0090020AF5D0000F9
:1048D00010B50400842812D1FCF736FF43070DD42D
:1048E0004720FDF7BBFDFFF7B7FDFA208000FFF77B
:1048F000DEFC4720FDF788FDFFF7AEFD10BD031F6E
:10490000DBB2A02B24D8234B234A1B78002B11D0D9
:10491000224B197800237F290CD9C308D21891782B
:1049200007220123024093400B420BD12000FDF7E8
:1049300095FDE1E7D1188978A14203D00133062B18
:10494000F8D1F3E72000FDF75FFDFFF785FDEDE708
:1049500003002033DBB2072B07D8072301201C40BC
:10496000A040C0B2FDF732FDC6E703005B33DBB207
:10497000022B04D80A4AD05CFCF7D4FEBEE75834B8
:10498000E4B2162CBAD8074B6400E05AFCF7B8FE24
:10499000B4E7C046400500205C070020021000205C
:1049A0009C8B0010A08B001010B5002813D082281B
:1049B00012D1FCF7C9FE83070DD43920FDF74EFD57
:1049C000FFF74AFDC8208000FFF771FC3920FDF792
:1049D0001BFDFFF741FD10BD83280ED1FCF7B4FE8F
:1049E000C307F8D45320FDF739FDFFF735FDFA2052
:1049F0008000FFF75CFC5320E9E7FFF769FFEAE777
:104A000070B50B4B0500392809D11C8C2800FFF725
:104A1000CBFF002C05D12800FFF7DCFE70BDDC8B3E
:104A2000F4E70A20013CFFF742FCA4B2F1E7C046DC
:104A300054060020F8B5174B17491E5C0723C2081F
:104A40008D5C18401549164B8F5C9C5C0541012319
:104A5000044107411C401D401F40002C02D0E120B2
:104A6000FFF736FF002D02D0E620FFF731FF3000C0
:104A7000FFF7C6FF002D02D0E620FFF777FE002CDF
:104A800002D0E120FFF772FE002F02D02C20FFF7AA
:104A9000B7FFF8BD398E0010298E0010298E001046
:104AA000B98E0010F8B5040004270A2620780028E3
:104AB00030D001282BD16378A078012B04D10234A7
:104AC000FFF79EFF0134F1E7022B03D10234FFF719
:104AD0006BFFF7E7032B03D10234FFF77BFEF1E70F
:104AE000042B01D00134EDE700250B4A0234135C9E
:104AF000611C3B4205D1013DE4D33000FFF7D7FBF9
:104B0000F9E775433038451960780C00EFE7FFF797
:104B100091FFD7E7F8BDC046858A001010B5002088
:104B2000FCF700FE0020FCF7EBFD0022024B1A70A0
:104B3000FFF792FC10BDC046EA1C002010B50749E3
:104B400006220B78082418001A40A043062A01D137
:104B5000200018430870FFF7E1FF10BD3810002057
:104B60000122824010B503490B7893430B70FFF785
:104B7000D5FF10BD38100020002370B50B4D072461
:104B8000EB561A00824350B2287004400DD1DBB2BC
:104B900083420AD0064B5B785B0706D5C010C0B2D3
:104BA000FFF7DEFF034B2C701C8070BD68150020E2
:104BB000021000206A1500200A4A10B553785907E0
:104BC000C90F81420CD001210840033180008B4382
:104BD000034353701088FFF71CF80220FFF7CCFF47
:104BE00010BDC046021000200123834010B5034AC7
:104BF00011780B431370FFF791FF10BD38100020A0
:104C0000094B10B55B785B070AD5C300074A0B4315
:104C10001370FFF7E9FFFCF731FD054B188010BD5D
:104C2000FFF7E2FFFBE7C0460210002068150020F6
:104C30006A150020F0B50724012785B00F4B01AE9F
:104C400030801A780E4B1B781A430092009BE5B215
:104C500023413B4205D1013CF8D20025280005B094
:104C6000F0BD328803AB1A8003992800FFF79CFB44
:104C7000FDF726FA80B20128EDD0EFE738100020CA
:104C8000ED0B00201FB501AC20800198FFF7D2FF8B
:104C9000228803AB1A800399FFF786FBFDF710FA11
:104CA00004B010BD13B5038802008488002001A958
:104CB0000B8084420AD008499CB28C4206D01089ED
:104CC000002804D0FDF7FCF9FDF75CFC16BD1800C8
:104CD000FFF7D8FFF8E7C046FFFF000007B5030461
:104CE00001AA10801B0E0020F02B09D01178072B91
:104CF00007D80F2904D81B0158180649FDF714FCE2
:104D00000EBD1A1DD2B20020012AF9D888B202497C
:104D1000F4E7C046341900200D0C002007B5030449
:104D200001AA10801B0E0800F02B09D01178072B68
:104D300007D80F2904D81B01054A5918FDF708FCAC
:104D400007BD1A1DD2B2012AFAD889B2014AF5E785
:104D5000341900200D0C0020002210B5034B04482C
:104D60001A70FDF7DBFDFFF7D9FE10BD0419002016
:104D70005C070020AF220F4B10B51A800E4A0021AD
:104D80005A803222DA829632D9831A835983C33AFF
:104D900050319A8319840333DA77FEF7BFFEFFF7A9
:104DA000DBFF8020054BC0001880FEF732FFFEF7C6
:104DB00015FB10BD540600208813000002100020CF
:104DC000F0B53C4B8DB01A680024019201223A4F95
:104DD0001A603A4B2202D3180093002612E0F1B277
:104DE000EAB2032C10D000986B00C35AE0B2013530
:104DF000FEF7E0FE102DF2D1009B01362033009328
:104E0000082E4CD00025EAE701232000EFE7E5B2A9
:104E10003A8801212800FEF7A7FE002128007A88A1
:104E20000134FEF7A1FE0437042CD2D1FFF7A2FF14
:104E3000002309AD09930A93214CC8332B8120002C
:104E40000A222900FEF75AFD1E4B0A349C42F6D175
:104E50000A22002106A8FBF79DFA20000A2206A9D3
:104E6000FEF74CFD184B0A349C42F6D103AD0A22E2
:104E700000212800FBF78EFA01235B42AB80083348
:104E80006B7220000A222900FEF738FD0F4B0A340E
:104E90009C42F6D1074B019A1A600DB0F0BD032C6D
:104EA000B5D1012220001100FEF75EFE0122002193
:104EB0002000B5E750050020288F00101492001044
:104EC0005B0400009B050000DB0600001B080000DF
:104ED00010B50020FEF786FE00212620FEF705FE15
:104EE000FFF76EFFFEF758FE0120FEF77BFE10BDB8
:104EF00010B50024FDF736FD22490020FEF7CEFD57
:104F000000210220FEF7F1FD00210320FEF7EDFD58
:104F10001D4B210004201C70FEF7E7FD0421222018
:104F2000FEF7E3FD21000520FEF7DFFD210006204E
:104F3000FEF7DBFDFF210720FEF7D7FD0820FEF777
:104F4000C2FD21000D20FEF7D0FD1820FEF7BBFDAD
:104F500021001720FEF7C9FD1C20FEF7B4FD21003B
:104F60002020FEF79BFD1820FEF7ADFD2000FEF788
:104F700039FEFFF7ADFF0F20FEF7A5FD1320FEF76A
:104F8000A2FD10BDE8FE0000ED0B0020F7B5032ADE
:104F90004AD9042401A82200FBF7A8F9FFF7DCFE98
:104FA00001212348019A057853088D430B401600D0
:104FB0005F002B0002250E40334396080E40AE40A2
:104FC000AB433B43A34333430826D4080C40E400DF
:104FD000B3432343102416090E403601A343334341
:104FE000202654090C406401B3432343402496090E
:104FF0000E40B601A34333437F26D4090C40E4019D
:105000003340234303704378140A0C408B43520A05
:10501000234311401A004900AA43114341700088FC
:10502000FEF7F7FD0020FEBD01204042FBE7C04631
:105030000210002010B5002803D0FDF7BFF9FFF7DC
:105040000BFA10BD10B5002803D0FDF7BFF9FFF72C
:1050500003FA10BDF0B585B01D000AAB1B780190B6
:105060000393029114008278264B002A0DD01C7005
:10507000FCF704FB244B1880072301201C40A040B0
:10508000C0B2FFF7DFFF05B0F0BD1E78A64233D1F6
:105090001D4B1F88FCF7F2FA0199C71B0298BFB29B
:1050A000FEF7EEF8B84227D92C002034AE4215D0D6
:1050B00033002033DBB2072B06D8072301201E4024
:1050C000B040C0B2FFF7B6FFE3B2072B06D8072304
:1050D00001202B409840C0B2FFF7B4FF0398E4B220
:1050E000FFF78EFC072CCED8072301201D40A840D7
:1050F000C0B2FFF79FFFC6E7072301201C40A04076
:10510000F6E7C0460C1900200E190020F0B591B04A
:1051100085880DAC0290010002222000FBF7E6F822
:10512000002D6ED02288B94B9A426AD00121029894
:1051300003F0CCFB029B04009B78002B14D0B44BF3
:105140001B88002B10D098420ED01822DBB253439C
:10515000B049143AC81845795C522A434271FFF7A6
:1051600005FA0022AC4B1A70AC4D029A2B7892785B
:10517000002B5FD1002A00D08DE0A94BE018042855
:1051800000D988E0FBF72CFB0310871C4400FFF7D5
:10519000E3FD0022A34B1A70FFF7C0FCA24BA34A09
:1051A0001A6001232B701DE0FFF7D6FD00229D4BF6
:1051B0001A70FFF7B3FC9C4B9D4A1A600223F1E77B
:1051C0009C4B984D1F682E78FFF7C6FD00232B706F
:1051D000FFF7A4FC954CA74215D1FFF7BDFD2E703B
:1051E000FFF79CFC944B1B785B070AD0029B9B78D3
:1051F000002B06D0914B5B785B0702D50220FFF7AE
:10520000BBFC11B0F0BD2000FFF780FF0A34E2E7DD
:105210008B4B844D1F682E78FFF79EFD00232B706B
:10522000FFF77CFC824CA742D7D02000FFF76EFF2F
:105230000A3CF8E77A496118022928D8814964189C
:10524000611E8C419442CDD0012B03D0022B10D093
:105250000023A7E7744B75481B68834204D01A00EB
:105260000A3A9178002902D1724A1360F0E71300DC
:10527000F3E76D4B6E481B68834204D01A000A3274
:105280009178002901D16E4AEFE71300F4E7012B72
:105290003FD0022B52D0029B9B78002B01D101F012
:1052A0009CF9694BE3189BB20F2B01D901F0DFF990
:1052B0006648FEF787F8002800D093E78026123C66
:1052C000E5B2634C7601002D4CD10F952000FEF71E
:1052D00079F800230FAD661C28706B70984200D1DE
:1052E00080E7012811D13000FEF76CF8A71C687028
:1052F000002800D176E7431E022B3FD83800FEF786
:1053000061F8E61CA87000285BD02800FFF7CAFBF4
:1053100057E04B4B444D19682E68002A02D1434B8D
:105320009E42B8D033000A3B9942B4D030000A22E2
:105330000299FAF7DBFF0A362E60ACE73D4B3A4D97
:1053400019682E68002A02D1394B9E42A3D033003F
:105350000A3399429FD030000A220299FAF7C6FF19
:105360000A3EE9E7B44200D13CE72000FEF72AF804
:10537000002801D1013DEDB20134A4E7431F022B07
:1053800027D8E31C38000393FEF71CF8E61CA8702E
:10539000002816D00398FEF715F8261DE87000289F
:1053A0000FD0FF2368881B02984201D9000280B207
:1053B0006B78062B07D0072B08D0052B01D101F005
:1053C00061FF340082E701F03FFFFAE701F0CEFE13
:1053D000F7E73E000428F4D13800FDF7F3FF05009D
:1053E000E01C261DFDF7EEFF002D00D1FAE6002897
:1053F00000D1F7E6FF2301385843013D4519013D2F
:10540000DFD30A20FEF753FFF9E7C046FFFF000095
:10541000C209002068190020EA1C00203C15002069
:10542000FDA2FFFF38100020401500203C10002096
:1054300032150020480500206815002002100020C9
:105440004C050020FBA2FFFFEEA0FFFFFF0F0000B6
:105450001B0800000120FFF7C7FBFFF76FFBC1E649
:105460000120FFF77DFBF8E70220FAE7022B01D0CD
:1054700001F0DEF8B388002B01D101F0D9F8182330
:1054800001225D434019437993434371FFF76EF85E
:1054900001F0CEF801221A70A4E61B78002B01D18E
:1054A00001F00CF82300E03B9BB20493C84AC94BBF
:1054B00012781B781343C84A127813435BB2DAB2EE
:1054C0000392049A072A00D9B6E00721012221405D
:1054D0008A40190052B29143C9B20391002E02D002
:1054E0001343DBB20393BD4B1D68049B072B03D909
:1054F000002E01D101F005F9029B1888FFF7EEFBA1
:1055000001231A0082400B92B54A089312880A922E
:1055100000220792079BB34A9B00D758002F00D167
:10552000BAE0039B002B03D1BB78002B00D0AEE088
:10553000FB780B9A1A4200D1A9E007223B7A13426A
:1055400000D11300089A04991A40072905D8002EA3
:1055500000D17FE05B08089A1A40002A00D196E04B
:105560003B8806939C4202D1002E00D18FE0BD42C1
:1055700000D18CE07B69002B03D01B78002B00D17D
:1055800085E03B79039A1A40099200D07FE00399A5
:105590003800FCF7E3F8002879D0069B05969C427A
:1055A00001D0099B0593069B5A425341059A134328
:1055B00004D1069A0A998A4269D105930020FFF71F
:1055C0002DF90122854B1F60874B1A707A79874B22
:1055D0001A70059B002B09D1069B002B06D03B8837
:1055E000D8B2043BA02B37D8FCF70EFFFD88804BC8
:1055F0006A1EFF3A9A4201D87E4B1D4000266B1E60
:105600007D4A9BB29A427641FB68F6B2002B03D0EA
:105610003969012098470640002E0AD0F88803F027
:1056200079F9764B1870049B072B18D82800FCF7E3
:10563000B1F8FEF711FF19E0694B002E01D100F01F
:10564000C0FF1C80FCF71AF800226D4B18606D4BF0
:105650001A8048E79B087EE7FFF7BCF8C6E7EEB282
:10566000043DA02D0AD83000FCF7F8FE059B002B66
:1056700001D100F023FFFEF7EFFEB3E5FEF7ECFEED
:105680006420FEF714FE3000FFF78EF9EEE7079B6B
:105690000133DBB207933DE7002D01D100F00EFF8F
:1056A000049B072B01D901F02FF82B79039A1342A1
:1056B00007D111002800FCF751F8002801D000F0B4
:1056C000FDFE0120FFF7AAF800F0F8FE6B799B07BA
:1056D00001D400F02BFF2800FEF732FF00F026FF78
:1056E000494B9C4218D014D3484B9C4201D000F047
:1056F00033FF474B052201E00022454B1A70FEF7AD
:1057000003FA00F029FF424B0122F7E7404B022247
:10571000F4E73F4B0322F1E73D4B0422EEE7E220A2
:10572000FFF7D6F80C266420FEF7C1FD63045B0C7E
:105730000393039B0F22334113402A78022A3BD163
:10574000981FC0B2092B06D8093318000A21FBF7AD
:105750000DF85931C8B2FFF753F9043E331DE8D1B3
:10576000287805285BD8FBF73BF85789935A9C9E0D
:10577000C620800003F034F9D4E7264B1B78002BB9
:1057800002D15320FFF73CF9E220FFF7A1F8642093
:10579000FEF78DFD5720FFF733F9C3E7E620FFF74B
:1057A0002FF91820F7E71C20FF3003F019F9252006
:1057B00003F016F92820DDE71A000A3A052A04D971
:1057C00030331800FFF736F9C7E75733F9E7C0461B
:1057D0006C1500206D15002004190020BC09002064
:1057E0000610002070150020C00900206419002058
:1057F000FF1E0000FFE0FFFFAF5D0000EB1C00207C
:1058000008100020F80B0020E55C0000B05D0000EF
:10581000881C00208E1C0020E220FEF7A7FFA54B6D
:105820001A78A54B1A70A54EF37EDB0752D5FBF70D
:1058300025FF83B20393029BA14D9B78002B65D07B
:105840002B785B0705D500229E4B03991000FEF7CD
:10585000D3FE9D4B9C422AD09C4B9C4252D09C4BE9
:105860009C4228D101212A78D307DB0F4B400B4003
:105870008A4313432B70FEF79FFE1CE02C20FFF79A
:10588000BFF83B783920002BC9D0FFF7B9F8C6E73D
:10589000E220FEF76BFF8F4B53201B78002BBED10D
:1058A000F3E72820F1E7282003F09AF8B7E701236F
:1058B0002A7813432B70884B884AE3189BB2934293
:1058C00005D9874B874AE3189BB2934224D800221C
:1058D000854B1A80854B9C4200D15BE100D913E1D6
:1058E000834B9C4200D151E1824B9C4200D16AE142
:1058F000814B9C4200D00EE126230093BB331A005B
:10590000210051E101222B789343B3E7E12C11D11F
:1059100010222B7893432B702B78DB07DAD5029B70
:105920009A78272C24D81E2C61D2042C2DD2002A40
:10593000CDD1CFE7E52C02D12B782022EAE7664BC8
:10594000664AE3189BB2934205D9654B654AE31852
:105950009BB29342E0D82B785B07BBD50223707FC4
:105960001840B7D1574B02000399FEF745FEB1E747
:10597000382C07D82D2C01D22B2CD8D1F37E5B07E5
:10598000D5D405E0642CF9D0D1E7F37EDB06CED484
:10599000002A00D186E00226474B584F1B78079318
:1059A0003B780693069A079B13430493B34322D094
:1059B00000224D4B1A80414BD97E314091421AD181
:1059C00001250F3223091340224095404C485B00CB
:1059D0001A5AAA431A522000FCF7FAFD3878B0434D
:1059E000FCF7D6FC3000FFF7C7F8FFF7FBFBF37EB0
:1059F0001B079CD4CCE7334E0A2202993000FAF7F9
:105A000075FC0023B370B380374B1F88BC4232D182
:105A10002A4BDA7E93062ED5294B1B789B07DB0F8A
:105A2000059301D0530626D5364B02991E88039B59
:105A300038009E1BB6B2FDF723FC86421BD2022023
:105A4000079B034206D010231D4A11780B431370A5
:105A5000FCF7B4FC2020184B1B78034205D0184AF1
:105A6000137803431370FCF7A9FC05993800FCF781
:105A7000AFFDFFF7B7FB0222049B022613401A007A
:105A80002B780698B3431343B0432B70FCF780FC8C
:105A9000154B039A1C801B4B1A8004232A7813434E
:105AA0002B709FE7029B03992000FEF7A5FDFFF7EF
:105AB00099FBC0468D1C00200419002054060020CC
:105AC00058020020C60900201B5C00001C5C00007E
:105AD0001A5C00008E1C002000A0FFFFFF1F0000CA
