:020000041000EA
:1000000000B5324B212058609868022188439860DF
:10001000D860186158612E4B002199600421596104
:100020000121F02299502B49196001219960352056
:1000300000F044F80222904214D00621196600F024
:1000400034F8196E01211966002018661A6600F04E
:100050002CF8196E196E196E052000F02FF8012189
:100060000842F9D1002199601B49196000215960AB
:100070001A491B48016001219960EB211966A021F2
:10008000196600F012F800219960164914480160C1
:100090000121996001BC002800D000471248134993
:1000A000086003C880F30888084703B5996A0420EC
:1000B0000142FBD001200142F8D103BD02B5186610
:1000C0001866FFF7F2FF186E186E02BD00000240BE
:1000D000000000180000070000035F00212200005C
:1000E000F4000018222000A00001001008ED00E03C
:1000F000000000000000000000000000070B8FD58A
:10010000000404209D0200100B5D00109F020010EF
:100110009F0200109F0200109F0200109F0200101B
:100120009F0200109F0200109F0200109F0200100B
:100130009F0200109F0200109F020010895D0010B6
:100140009F0200109F0200109F0200109F020010EB
:100150009F020010F95D00109F0200109F02001026
:100160009F0200109F0200109F0200109F020010CB
:100170009F0200109F0200109F0200101D5D0010E2
:100180003D5D00109F0200109F0200109F020010B2
:100190009F0200109F0200109F0200109F0200109B
:1001A0009F0200109F0200109F0200109F0200108B
:1001B0009F0200109F0200109F0200109F0200107B
:1001C00072B6254880F30888244880F30988022005
:1001D00080F31488BFF36F8F21482249086003F031
:1001E00020FA04F07FFF204820491B4A914202DA9E
:1001F00008600431FAE71E49184A914202DA0860A1
:100200000431FAE71B491C4A1C4B9A4204DA08687D
:10021000106004310432F8E700201949194A91426C
:1002200002DA08600431FAE704F05EFF04F03AFFF6
:10023000154C164DAC4203DA216888470434F9E7BF
:1002400004F096FF124C134DAC4203DA2168884744
:100250000434F9E71049084700040420000C042086
:100260000001001008ED00E0555555550000042030
:10027000000404206C6B001000000020E00300204C
:10028000E0030020F01E0020C0010010C00100109B
:10029000C0010010C0010010E750001090E700F00E
:1002A00000F8FEE7F0B544464D4656465F46F0B4CA
:1002B0006B46CB60C3689D46F0BCA046A946B246DB
:1002C000BB46F0BD05F058FD62B6281CA0470020D3
:1002D00005F010FDFEE704F029FF024A024B13600F
:1002E000FEE7C04604ED00E000000080002934D0A5
:1002F0000123002210B488422CD301242407A142F8
:1003000004D2814202D209011B01F8E7E400A142B4
:1003100004D2814202D249005B00F8E7884201D34F
:10032000401A1A434C08A04202D3001B5C08224327
:100330008C08A04202D3001B9C082243CC08A04298
:1003400002D3001BDC082243002803D01B0901D084
:100350000909E3E7100010BC704701B5002000F068
:100360005FF802BD0029F8D003B5FFF7C1FF0EBC4E
:100370004243891A1847C046002941D010B40400EE
:100380004C40A44601230022002900D54942002800
:1003900000D5404288422CD301242407A14204D234
:1003A000814202D209011B01F8E7E400A14204D214
:1003B000814202D249005B00F8E7884201D3401A2B
:1003C0001A434C08A04202D3001B5C0822438C084D
:1003D000A04202D3001B9C082243CC08A04202D3B7
:1003E000001BDC082243002803D01B0901D00909A7
:1003F000E3E710006446002C00D5404210BC704773
:1004000001B5002000F00CF802BDC0460029F7D06D
:1004100003B5FFF7B3FF0EBC4243891A1847C04625
:100420007047C04602B47146490849000956490060
:100430008E4402BC7047C04602B471464908490068
:10044000095C49008E4402BC7047C04603B4714643
:10045000490840004900095A49008E4403BC7047CE
:10046000002B11D1002A0FD1002900D1002802D081
:100470000021C943080007B4024802A140180290B5
:1004800003BDC0469DFFFFFF03B4684601B5029857
:1004900005F046FE019B9E4602B00CBC7047C0466C
:1004A000D0400B00D1409C46203AD34018435242E2
:1004B00063469340184370479140030090409C4628
:1004C000203A9340194352426346D3401943704740
:1004D00010B5002903D100F007F8203002E0080031
:1004E00000F002F810BDC0461C2101231B049842F5
:1004F00001D3000C10391B0A984201D3000A0839B5
:100500001B09984201D30009043902A2105C40186B
:100510007047C0460403020201010101000000000F
:1005200000000000D02380221B06520280070CD559
:100530009A61D0228021074B12061B888905002B67
:1005400005D09B0703D5916170475A61F1E751616E
:10055000FAE7C046EC1E0020F82210B5441EFF3C0E
:10056000030052010020944205D21C22FF320330C6
:10057000934200D10238884710BD3321020100099F
:10058000024352B2930092080A408B431343552210
:100590005BB258005B08904313401843C0B27047E9
:1005A00073B582B201AB1880120A082A1BD81B78D7
:1005B0000F2B18D8012612019B18D8080A4A800070
:1005C00080180722350013409D400022EDB20B0039
:1005D000D340845C33405B4263402B405C40845496
:1005E0000132042AF3D173BD301A002037B582B22C
:1005F00001AB1880120A0020082A15D81B780F2B8F
:1006000012D807240100012512019B181C40074A3B
:10061000DB089B009B185A5CE2402A408A4001316B
:100620001043C0B20429F6D13EBDC046301A0020A6
:100630000721054B054A1B7812789A4200D1704772
:1006400001330B40F9E7C046A11E0020A01E002088
:10065000024A1378834313707047C046961E0020E9
:10066000044A1378002B03D000231370024A13802E
:100670007047C046951E00209E1E002037B58AB2E6
:1006800001AB040019800020120A082A0AD81D783C
:100690000F2D07D8092363439B181B0102495B19DF
:1006A0005B00585A3EBDC046F468001030B50424C3
:1006B00027490A78224205D018230340082B27D166
:1006C00098432043130708D5182405001423254018
:1006D000A54225D1A843C0B218430124497821423C
:1006E00006D018230340082B21D19843C0B22043E1
:1006F000890708D51821040011230C408C421FD112
:10070000A043C0B21843D20601D5E723184030BD3C
:1007100014230340042BD5D1984304331843D1E765
:100720000340142BD9D19843C0B22043D5E71123FD
:100730000340012BDCD19843C0B207331843D7E7FD
:100740000340112BDFD19843C0B20843DBE7C0461A
:10075000EA1E002070B50400E72800D994E0DF28E5
:100760000CD8312800D183E012D8292800D175E0B7
:100770002A2800D182E001283CD015E0E038072883
:1007800000D981E0FFF758FE1F802E3845804F5476
:1007900039280ED082280CD035285AD0A72800D965
:1007A0007FE0A42800D9E5E0231FA02B22D9002454
:1007B00020E08D4B1A78920700D011E15B781B077F
:1007C00018D5292416E0884901220B78180010401A
:1007D00013424BD1497811420CD00400DB0609D4F6
:1007E000E32407E0804B1B785A0703D50024DB067F
:1007F00000D4E334201C70BD7B4AE22413785907EF
:10080000F8D4517801220800023C10401142E4D093
:10081000F0E7754B5A789207ECD51B780024DB067D
:10082000E8D4E734E6E7704B1B781A07F6D4E1E723
:100830006D4AE62413781907DCD4517802220800A7
:10084000023C10401142D5D10400DB06D2D4E7248B
:10085000D0E7654B1B789B06CCD5B2E7624B1A7884
:10086000920600D5BEE05B781B07C3D53924C1E7EB
:100870005D4B1B785B06BDD52A24BBE75A4B1B7822
:100880005B06B7D53124B5E7A623DB019C422FD206
:10089000013BFF3B9C4200D387E0FF2C09D8EC2CA6
:1008A00075D8BE2C6AD92300E03B072B00D97EE720
:1008B000A0E7A223DB019C4215D2013BFF3B9C42F7
:1008C00068D280239B019C4200D293E78022474B51
:1008D0005201E3189BB2934200D368E7A02324059A
:1008E000240D1B0251E02302414C1C43A4B281E7BA
:1008F000B223DB019C4225D2013BFF3B9C4261D2EB
:10090000AA23DB019C420DD2013BFF3B9C4256D205
:100910000322E4B2A3081440023AA2405B01354C22
:100920001343E2E7344BE318FF2B00D93FE7E0B273
:10093000FFF7BCFEF823802400025B011840A401ED
:10094000044357E7B423DB019C423ED380252B4B65
:10095000AD01E3189BB2AB4200D328E7E004C00E20
:10096000FFF7A4FEF82300025B011840E4B2044341
:100970002C433FE78023243CDB01B6E75834204B6F
:10098000E4B26400E35A8824E4011C4332E7A02364
:10099000DB01FAE70322E4B2A30813401440023A51
:1009A000A2405B01174C13439FE70322E4B2A30864
:1009B0001440023AA2405B01134C134395E7230213
:1009C000124C92E72302124C8FE70F25200028409B
:1009D000FFF76CFE24092C4024020E4B044384E7ED
:1009E000E02407E7352405E7EA1E002000C0FFFFEA
:1009F000F1A0FFFF008AFFFF00ABFFFF00A0FFFF99
:100A0000346B0010008DFFFF008CFFFFF4A0FFFF90
:100A1000F0A0FFFF0090FFFFF0B50F24104A114B2C
:100A200012881B8885B001AF1A433880009203AE4C
:100A3000009B01222341134205D1013CF8D200253D
:100A4000280005B0F0BD3B88E5B23380316828004E
:100A5000FFF714FEFFF77EFE80B20128EDD0EFE72E
:100A6000EC1E0020981E00201FB501AC20800198CC
:100A7000FFF7D2FF228803AB1A800399FFF7FEFD30
:100A8000FFF768FE04B010BD37B504000100062270
:100A9000684605F00CFBA3886D46002B2ED02A88F3
:100AA000174B9A422AD02088FFF7DEFFC2B200041B
:100AB0000024000F062818D00F2306280ED80E3069
:100AC00003402000012B08D80120F02A05D007D8C8
:100AD0000020E72393424041C0B23EBD0630EFE71D
:100AE000F43A100043425841F6E7E7239342644149
:100AF000F13A53425A4120001043EEE70020ECE760
:100B0000FFFF00000020704772B6D021BE22090608
:100B100052008B58002BFCD0BFF35F8F7047BFF3A0
:100B20005F8FD023BE221B0652009B5062B67047D7
:100B300010B50400FFF7E8FF0123D022A3401206FE
:100B40009362064AE3009B1805225A60044BA400F6
:100B5000E4184A236360FFF7E2FF10BD0040014044
:100B600000C0014037B56B46094CD8712278D91DB9
:100B70005042424132230748524213400268D5692D
:100B80000122A8474342434140B223703EBDC046C4
:100B9000A906002054030020FEE70300DA680800DD
:100BA000511C10B5D96019698A4204D21C68002C06
:100BB00002D05968A04710BD9B689854FBE700001D
:100BC00010B5024B1B68984710BDC0465802002064
:100BD000F7B51E00C36804000093089B150001913F
:100BE0009B070DD0002D0DD1089B9B0715D4F7BD99
:100BF00020212000FFF7D1FF0137B742F8D3F1E7FA
:100C00001700FAE7019B013D2000595DFFF7C5FF82
:100C1000E8E720212000FFF7C0FFE368009A9B1A55
:100C2000B342F6D3E3E70000F0B58FB01D00169C89
:100C300004900392002921D123051BD4302304AA58
:100C40001372203B9C4301310A00A30745D40123C2
:100C50001598234000283ED0002B3ED0039B002B4C
:100C600002D10C331C4202D0159B013B15930A00A4
:100C700030232AE0102DE7D1AC43E5E76123A2063B
:100C800000D541230E000027DBB20A3B0593290063
:100C90003000FFF767FB059BCAB2D3188446DBB26E
:100CA000092901D83032D3B2082004AA1218791CBD
:100CB000D355B542C8D82029C6D00F006646E6E70E
:100CC000082604A88019835401321598904204D94B
:100CD000202AF5D101E0002BC9D1302304E00826F9
:100CE00004A88019835401321498904201D9202A13
:100CF000F5D1082D03D1914201D210239C432C4BF6
:100D00001C423AD0230522D4002A20D0149B9342BF
:100D100002D0159B93421AD1914202D2013A002A85
:100D200015D0244BEB40DB071FD591423DD2013A51
:100D3000102D12D1A3062CD4202A10D12022159BCD
:100D40000498009406A9FFF743FF0FB0F0BD102DE3
:100D5000F0D0022D09D1202AF0D0622300E07823C0
:100D6000082004A909188B540132202AE6D0082053
:100D7000302304A909188B540132202ADED0039BAA
:100D8000002B0AD02D23082004A909188B54013206
:100D9000D5E75823202AE3D1D0E7630701D52B23D9
:100DA000F1E72307CBD52023EDE7102DD3D1C1E701
:100DB000102000000400010010B50D4B14201B781A
:100DC000DA0712D400189A070FD428305B070CD426
:100DD000084B48381B78002B07D048301D2B04D80F
:100DE0001E215843FFF7C8FA80B2C0B210BDC046FA
:100DF000781A00207A1A002010B50124104B022125
:100E00001B78234215D104220B4210D1134214D176
:100E10000C4B187800280ED027280ED8C000263199
:100E2000FFF7AAFA02002000002A01D092B2D0B245
:100E300010BD0A00FBE72200F9E70822F7E7C046E9
:100E4000781A0020791A0020ED3810B5122810D831
:100E5000FFF7F2FA0A10141A32383C40440F0F0F11
:100E60001E23282E484E5200FFF7A6FF244B404277
:100E7000D87010BDFFF7A0FF214BF9E7FFF79CFFEB
:100E80001F4B40429870F4E7FFF796FF1C4BF9E7C1
:100E9000FFF7B2FF1A4B1871EBE7FFF7ADFF184BE6
:100EA0004042F8E7FFF7A8FF154B40425871E0E7D2
:100EB000FFF7A2FF124BF9E70123114A51780B43C8
:100EC0005370D6E70E4A02235178F8E70C4A042300
:100ED0005178F4E70A4A08235178F0E7084A1023CA
:100EE0005178ECE70123074A11780B431370C0E7F0
:100EF000044A02231178F8E7024A04231178F4E740
:100F00007B1A0020781A0020032200B5394B9A562C
:100F1000ED2814D1002A01DA0022DA70D9789A7803
:100F20000A4351B2002A01D1334A11701A795B7910
:100F300013435AB2002B01D1304B1A7000BDEE287A
:100F400002D1002AE8DCE9E702229A56EF2804D110
:100F5000002AE3DA00229A70E0E7F02802D1002AA2
:100F6000F8DCDBE704229A56F92804D1002AD5DD03
:100F700000221A71D2E7FA2802D1002ACEDAF7E766
:100F800005229A56FB2804D1002AC7DA00225A719A
:100F9000C4E7FC2802D1002AF8DCBFE7F1380E28AC
:100FA000BCD8FFF73FFA080D101316BBBBBBBBBB89
:100FB000BBBB191F230001215A788A435A70ADE741
:100FC00002215A78F9E704215A78F6E708215A787D
:100FD000F3E710215A78F0E7012009490A788243A3
:100FE0000A709BE7064902200A78F8E704490420C2
:100FF0000A78F4E77B1A00207A1A0020791A002078
:10100000781A0020044A054B0220D15C002901D146
:101010000138D0547047C0469407002004100000E7
:10102000044A054B0220D15C002902D0002101387E
:10103000D1547047940700200410000010B55200EE
:10104000054C1218091A035BDB430B520230904225
:10105000F9D1012010BDC04600E01F10034B10B5B0
:101060001B68181E01D01B68984710BD0C1A002081
:10107000064B10B51A88824206D01880044B1B68B4
:10108000002B01D0DB68984710BDC046DE0600206B
:101090000C1A0020064B10B51A88824206D0188020
:1010A000044B1B68002B01D01B69984710BDC0463C
:1010B000DC0600200C1A002070B5FFF725FDD023B8
:1010C0001B061A68154B92009B185B68144D154857
:1010D000DC6901682B68144AE41AA14209D9E426A4
:1010E0007601A419114E11689B192B60104BC91879
:1010F000116015680460FFF712FDFA22002320003A
:101100009200002104F0EAFF00230A4A80185941A6
:101110000023094AFFF7A4F9281870BDEC18002035
:10112000BC180020B8180020B418002080E3FFFF8E
:10113000C09699190F2700001027000010000A021E
:10114000024311B210B5120A032A1CD00ED8012A8C
:101150002BD000242000022A01D115485B34154B06
:1011600058601C60002800D0180010BD002420002A
:10117000212A13D0222AF2D1022BF0D80E4A99004C
:1011800088580E4A08E00024CBB22000022BE6D893
:101190000B4A990088580B4AD45CE0E7022BDED852
:1011A000094A9B0098580934D9E712240748D6E722
:1011B00014670010D40600208467001081670010B7
:1011C000A06700109C670010906700106F67001008
:1011D000DA30084A01781378022907D1012B01D0AF
:1011E000062B02D1044B52781A707047024A1370D2
:1011F000FBE7C046D0060020CF0600207047000065
:10120000014B18787047C046CF06002070477047E2
:1012100070470000D0231B061A68094B92009B18E8
:101220005968036810B59A68846812199A60426810
:1012300013605A6000230360013B8B6110BDC04600
:10124000EC180020D0231B061A68034B92009B1851
:101250005B68D8687047C046EC18002010B50F30A6
:1012600018D0FFF751FCEFF30983203B83F3098883
:1012700080225204DA61D02212061168074A8900DE
:10128000521852681168D26889689268914202D9EE
:10129000034A9A6110BD034AFBE7C046EC180020E0
:1012A000D7020010DA020010C36810B5013BC26912
:1012B000C36043699B1882694361934201D3436AC7
:1012C000436100238362036B002B00D0984710BD5D
:1012D000036910B51960C268013AC260C2699B18FF
:1012E00082690361934201D3436A036100238362ED
:1012F000036B002B00D0984710BD000003000200D4
:1013000010B5D6331B78DE3213707F221340064AA5
:101310000400136043681B68002B01D0012198472B
:101320000323237010BDC04600001150034B1A6800
:1013300082431A609A681042FCD0704700C0004097
:101340007F220138C31713401B18DB110133DB0167
:1013500002329BB2FF3210B593420ED0FF2480229E
:101360000749D200240259181000214204D0181C49
:10137000934200D9101C80B210BD80208000FBE792
:1013800080FDFFFF70B500292FD11D4BDC6C0122C1
:101390008B1C9B00C0184668B069037D82745A405C
:1013A00002750568728AAA4200D92A005E1EB341FE
:1013B0008026F6001643B6B240685B033343114EF5
:1013C00012183340954202D88022D20113430E4AAC
:1013D000144080229205144300290BD1084AD4649A
:1013E0000A4AC90089184B6070BD094ACB009B1896
:1013F0005C68CCE70648CA0012185460F0E7C046A3
:1014000000001150FF7FFFFFFFFFFFAF8000105073
:101410000000105070B50400012006008E400D0041
:10142000618931436181A91C8900611849688E690D
:10143000B260002233607260F260934205D0498A44
:10144000013B5818FEF752FF80B23082290020007D
:10145000FFF798FF70BD0000F0B58B1C9B00C31810
:101460005F6885B00C1E7E69BD69009010D1402375
:10147000414AB383B261B182B17569822975802115
:10148000AA61AB833D4A3E4B8905D15005B0F0BD02
:10149000002E3BD03B4BCA00D31803933A4B40205D
:1014A000D2180023D367B3753A68B38201920293CE
:1014B000012A13D1388AFFF743FF802202239200CA
:1014C000904209D080220133D200904204D0431EC2
:1014D000FF3B5A4253419BB2DB060293009AE23231
:1014E00094466346118842008A181A80274BB083BD
:1014F000CA18019B8131B261FF319A060A438021EB
:1015000009061143039A029B02C2D367002DBDD086
:101510001C4BE400E6181E4B4020E4180023E36750
:101520002B753C686B82012C12D1388AFFF708FFBB
:10153000802202239200904209D080220133D200FF
:10154000904204D0431EFF3B5A4253419BB2DB06FC
:10155000009AA406E2321188471817800B4AA88324
:101560008A18AA6180228131FF310C43120622437E
:1015700072600836F36789E70001105000001150CF
:101580004C2000000000105004001050800110504A
:101590000800105010B5002903D102240A4A0B4B51
:1015A000D4500B4ACB009B188022DC6F12012243DF
:1015B000DA67012202318900401843689B69DA74B6
:1015C00000221A7510BDC0460000115068200000AE
:1015D0000800105010B5002903D101240A4A0B4B12
:1015E000D4500B4ACB009B188022DC6F120122439F
:1015F000DA67012202318900401843685B695A7535
:1016000000229A7510BDC0460000115068200000ED
:101610000400105070B5040008001F491500FEF7C3
:1016200065FE802223682D0492012A43002B0FDAE5
:101630003F2123680B40012B0AD1A3681B051B0D1A
:10164000984205D1EE21E368C9020B409A4221D0AD
:10165000124B134DE318591E8B4180215B421B0B2B
:1016600089011B035B180F490B600F490B601E00BB
:10167000A9688E43FBD101232360C023211D9B0158
:101680000B432121A060196021680029FCDAE26087
:1016900008221A6070BDC046001BB7000040FDBFA5
:1016A00000C0004000E0004000F0004010B50E4CCB
:1016B0000E4B20000021E360FFF7CEFE00230C4A12
:1016C000E2341360012223800A49D0000A4C4018FA
:1016D000D1000C198360E367C36008480132091820
:1016E000CB670F2AF0D110BDFC180020386600101F
:1016F00000001150F8FF0F50040010500800105067
:1017000010B5EFF3108372B6044C236004F088FD2B
:10171000236883F31088012010BDC046E006002036
:101720001423188804331B88034910B598470021F7
:10173000030008009847C04655420000F0B5070076
:101740000D0014008BB02978002911D13B68002BC3
:101750000BD13A69002A08D0B968002905D0FB6886
:10176000934200D3531E0022CA54F8680BB0F0BD58
:101770000020013525290AD03800FFF70EFAE2E7EC
:101780002D2B1CD0302B22D12F3B150018432B784A
:101790006A1C2B2B15D0F3D8202B14D0232B14D05C
:1017A000002104912A2B1FD108CC04938B4204DA28
:1017B00002231843049B5B420493150014E00223A8
:1017C000E3E70423E1E70823DFE71023DDE71E005A
:1017D0000021303E04910A31092EE1D82A786E1C8E
:1017E0001300303B092B0FD900222B7805922E2BAA
:1017F00029D18022120110436A786B1C1100303904
:10180000092916D80A260CE0049B35004B43303BCF
:10181000D3180493E2E7059B7343303BD318059339
:101820002B001A785D1C110030390929F3D91D00ED
:1018300009E02A2AFBD108CC02350593DB43059A3F
:10184000DB171A4005922B786A1C6C2B1FD017D817
:10185000682B24D06A2B2BD02978013578298BD896
:10186000632928D8622973D0632900D198E02529FB
:1018700082D0582900D07FE720231843103B4AE04C
:10188000742B01D07A2BE7D180239B000BE06B787F
:101890006C2BF9D1C023DB0018430235DCE76B78F1
:1018A000682B03D0802315001843D5E7C023F3E746
:1018B0008023DB00F7E70B000126643BDBB29E4090
:1018C00032007F4B1A401E4213D1732900D18FE0A2
:1018D000702900D050E77B4B02CC0343002900D095
:1018E000E4E0009305220A2338007749FFF770F9F6
:1018F00029E7642901D0692906D18023DB01184337
:1019000010239843063B06E008236F2903D0F7D93C
:10191000DB187829F4D1020501D5012290438022F9
:10192000D200024041041DD5002A00D00BE72168F7
:1019300082050FD502900498CE1701900598CA0F22
:101940008919714000903800FFF76EF90434FAE607
:101950000223E0E7420601D549B2EBE70206E9D5EA
:1019600009B2E7E7002A00D0EDE60C2106008E431D
:10197000810506D504990296019105990091216887
:10198000E1E72168420607D5C9B2049A029601929E
:10199000059A00920022D6E70006F6D589B2F4E750
:1019A000022302001A400126059218420DD1059E1D
:1019B00003E020213800FFF7F0F8049B0136B34222
:1019C000F7D80226002B00D05E1C02CC3800C9B22A
:1019D000FFF7E3F8059B002B00D1B4E6049BB3426C
:1019E00000D8B0E620213800FFF7D7F80136F5E738
:1019F000230004CB06920793002A08D10090062208
:101A000038003249049BFFF7E3F8079C9BE6059BEF
:101A1000002B00D12E4B069A1400D3182278002AEE
:101A200001D09C4214D1069B0200E41A80231B01C2
:101A30001A400892184203D0059B9C4200D91C0012
:101A4000022302001A400992184212D1260006E031
:101A50000134E3E720213800FFF79FF80136049BAB
:101A6000B342F7D8049A0023A24200D3131B0134D7
:101A70001C19069E03E038000136FFF78EF8317816
:101A8000002907D0089B002BF5D0069B059A9B18D0
:101A90009E42F0D1099B002BB7D0049BA342B4D93E
:101AA00020213800FFF779F80134F6E702930A2382
:101AB0000193059B380000931023FFF7B5F842E629
:101AC000210812000120000037620010306200106F
:101AD000FFFFFF7FF0B50F000500110085B01A0071
:101AE0008B4246D80C240B0E02930B0201930198F3
:101AF00000230299FEF7B4FC6C43264B0600E41861
:101B000063680391834200D260602B1FDBB20093B5
:101B1000C023009A9B012343012A2CD8012F2AD1EC
:101B200003221A60A3683B42FCD0E02223681340E2
:101B30008022520122431360009B012B09D803210C
:101B400023687B400B4013600123BB40A268134213
:101B5000FCD0802380229B01234312011A6001984C
:101B600066603200039B0299FEF77AFC0A4CAD00D6
:101B7000605105B0F0BD802212011A60064BAA0028
:101B8000D1580029D1D05869FEF7B0FB0130013897
:101B9000FDD1CAE7008000406C0700208322274B5C
:101BA000920010B5DA620022AA21254B09019A673A
:101BB000244A254811602F21D160244908605168CA
:101BC0000029FCDA0121224A11605A6C012AFCD159
:101BD0000321204A11609C6B012CFCD106221E4976
:101BE0001E48FFF717FD05221D491E48FFF712FD8D
:101BF0001D4B02211A000420FFF76CFF1B4B210034
:101C00001A000520FFF766FF194B00211A00072074
:101C1000FFF760FF164B00211A000820FFF75AFF5C
:101C200000210920134B124AFFF754FF0F4B0021EC
:101C30001A000620FFF74EFF10BDC0460080054089
:101C4000008000400040024000B0FA000060024006
:101C50003CB0004030B00040002F68590080024086
:101C600000389C1C00C00240001BB700405973079D
:101C7000006CDC021BB70000C26F0300106810B5D7
:101C80000178042914D1197A022911D1517901223C
:101C90008A40448922420BD1DA691C6AA24202D1ED
:101CA0009C69002C04D19B6A0432043BFFF7B2FB11
:101CB00010BD10B5406BFFF7DFFF10BD10B50F244E
:101CC000054A11784B1C2340044C24789C4202D0D6
:101CD000034C1370605410BDE9180020E818002070
:101CE000D818002013B501AB1880019800290DD039
:101CF000002A0BD0FEF790FE040001000198FEF7C9
:101D00004FFC20000199FEF7B9FC16BDFEF76EFCF2
:101D10000400F6E710B5EFF3108372B6054C2360AC
:101D2000FF235B03C01804F073FA236883F3108861
:101D3000012010BDE0060020F0B58DB0FFF7E0FCFB
:101D4000FFF760F980220024284D09902900002027
:101D50001201FFF7DFFF264826492B5D0F004340A5
:101D60001E001B020793002312220693300000235B
:101D700004F0B4F9F30E7A011A437301019200934F
:101D8000009A019B8018594180197941730EFA011C
:101D90001A43F30103920293029A039B801859415C
:101DA000330E3A021A43330205920493049A059BB8
:101DB00080185941069A079B8018594180230134A5
:101DC0005B019C42C9D10A900B91042220000AA910
:101DD000FFF7A0FF099B012B01D1FFF721F9802319
:101DE0000220054A5B01EA500DB0F0BD94070020C7
:101DF00025232284E49CF2CB08100000802180225D
:101E0000054B49015B58012010B59201934202D362
:101E1000FFF792FF022010BD9407002037B5802401
:101E20006A46074D64012B59911D08800122180054
:101E3000FFF770FF2B5902332B51FFF7DFFF3EBD39
:101E40009407002010B503689C68A2420CD85C6817
:101E50008A600B604C602160596099688A1A9A60A8
:101E600001235B42836010BD1B68121BECE700007E
:101E700070B50D4C050023680E00002B02D0200029
:101E8000FFF7C8F9D0231B061A68084B92009B186D
:101E90005868074B2A00E3600023210010302661B8
:101EA0006361FFF7CFFF70BD9C180020EC18002085
:101EB00085260010010070B5D4310B7804001A009B
:101EC0007F200240212A00D07EE025005AB2D5357D
:101ED000002A25DA2A78022A20D0032A12D0012AE1
:101EE00000D071E02300D8331A78002A5CD1514920
:101EF000103B1960202321000120CC31D0340B602D
:101F0000226070BD2200D8321288002A5CD14A4A71
:101F10002300C8331A6001230022ECE7474AF7E7A1
:101F20002A780A2A46D00B2A0DD0092A4CD1220041
:101F3000D8321278012A47D82300414AC8331A60A0
:101F40000223404AD7E72300D8331B88002B2BD12C
:101F50002300D6331D783C492B005A1E9341364A44
:101F6000DBB213700A78DB01024013430B70002DC3
:101F70001AD1324E3378002B16D0FEF7C5FD002360
:101F8000324A2900307804F0A9F80023304A80183A
:101F90005941FA2200239200FEF762FA21008000E4
:101FA000FFF766FFFEF7BBFD22000023C832136077
:101FB0001A00A0E72300244AD7331B781F4E157858
:101FC0003370ED09F0D1D6E7224A0988914219D140
:101FD0002300D8331A785B7821001B0213432200B8
:101FE0006068D632D7314568127820000978A84752
:101FF000002801D1002084E723004268C8331A601A
:10200000036889E7144A1278002AF3D0602213404B
:10201000202BEFD12300D5331B78212B07D81F2B82
:10202000E8D923000D4AC8331A60072374E7222B2E
:10203000BAD0DFE7AF060020D4030020AE060020B0
:10204000D0060020D1110010EA1E00201027000049
:10205000E703000081060000360300205002002044
:1020600000238268037503691B6899689142FBD25B
:102070005A680360426010605860704710B50C00E9
:10208000FEF742FD207D052807D8FEF7D5F90C069E
:102090000603130F0022A3691A6001235B4220008C
:1020A000A361FFF7DDFFFEF73AFD10BDA26993685B
:1020B000013393606268236813605A60EDE70000A3
:1020C000D02212061168084B89005B185B68016911
:1020D00010B5994205D0136D9B0702D501235B42D1
:1020E0005365FFF7BDFF10BDEC180020030000682A
:1020F00010B5002804D000221A608161FFF7E0FFCC
:1021000010BD70B505000E000468AC4200D170BD72
:10211000E3683343E360236933420AD06068A3680D
:10212000C2691343027DC3610A2A04D182691A423B
:1021300007D12468E9E70B2AFBD1826913409A4250
:10214000F7D100238361FFF7BBFFF2E7213189005C
:1021500010B50C58002C2CD0FEF7D6FC0421201D05
:10216000FFF7CFFFE36F1A685B7902339B00D31848
:102170005B689B695A68E3691A60A2690132A261CF
:10218000A26A9B18626AE361934201D3236BE36105
:102190002200E0680C32824206D00368E3605A6095
:1021A00000238361FFF78CFF2000FFF765FDFEF73A
:1021B000B6FC10BD70B5022504006D422068844253
:1021C00000D170BD036823605C608561FFF778FF14
:1021D000F4E70000802210B5054C002120005201D8
:1021E00003F05DFF8022034B5201A35010BDC04697
:1021F000940700200810000010B5FEF703FF04004C
:10220000FFF77EFAFFF7E6FF012C01D1FEF708FF8A
:1022100010BD000010B5074B02301B78002B04D016
:10222000054B1E221B787F2B00D80622002103F0CD
:1022300036FF10BDD4030020EA1E00208B1C9B003B
:1022400070B5C318050050690E0014005A600028CC
:1022500003D02022002103F022FFA069002803D030
:102260002022002103F01BFF31002800FFF7F4F8C3
:1022700070BD000070B504000800052970D8FEF795
:10228000DBF8586F03585870FEF73EFC0121200020
:102290003C4AFFF7D3FF022120003B4AFFF7CEFF65
:1022A0003A4B3B4E197820003A4AFFF7C7FF3300FC
:1022B000C13319782000384AFFF7C0FF3300C2331A
:1022C0001978002903D02000344AFFF7B7FF330004
:1022D00034000025FC34F8331D60636930486360C6
:1022E0002360A561E561FFF765FF3300F4331D70DE
:1022F000A36C2C486363E36C2565E363A3636565A6
:10230000FFF758FF962301215B002748F554FFF79C
:10231000F8FE2648FFF7B0FCFEF701FC244B1B78C3
:10232000AB4202D00520FFF7C9FC0220FFF7C6FC34
:1023300016E00125FFF7C2FCFEF7E6FB02211A4872
:10234000FFF7DFFE1B4B1648114C1D70FFF732FFE5
:10235000962314485B00E554FFF72CFFFEF7DFFBE4
:1023600070BDFEF7D1FB10480121FFF7CAFE002126
:10237000104A074B1170962252009954FEF7CFFB7A
:102380000520D3E7F8660010DC6600103403002057
:1023900074020020DC020020F80200201403002058
:1023A00060030020980300205803002054030020FD
:1023B000EA1800206803002070B5FEF7A5FB254D44
:1023C000254B4022002125486B6003F068FE2E78E3
:1023D000012E39D18020224A40041368214C034346
:1023E0001360FEF7A3FF80220021D201200003F03A
:1023F00056FE8022002152011B4803F050FE0923A3
:1024000063670333A367FFF751F980239B052664B5
:10241000164AE364164BC1201A60802219689202A2
:102420000A431A60134B80001958134A1140C02206
:1024300012020A43C0211A50202249005A501A6041
:1024400080220E4B5202E25002232B70FEF767FBF4
:1024500070BDC046FC180020E46800100819002078
:1024600000C00040000011500000105010D00100CA
:102470009000115000E100E0FF00FFFF4C20000041
:10248000F7B51700012202318900401843685C69E2
:102490002275216822691B8A8E1A9E4200D91E006D
:1024A0000023180092198A42584122618203019246
:1024B000A17DB5B20A00501E824152030092012252
:1024C0004A40A069A2759F4200D0A38BC018320079
:1024D000A16803F0ECFD8420A36800029B19A360AF
:1024E000009B28431843019B1843002F00D0000491
:1024F000FEBD0000F7B58B1C9B00C3185B680C1E6B
:102500005F691A4E019023D1194BDB6C0022210028
:1025100001980093FFF7B4FF3A683B6905009A42BF
:1025200005D0012221000198FFF7AAFF05436B01A6
:1025300011D5104A009B13401A00A023DB0513435A
:10254000002C0FD10A4AD3641034E4003551F7BD92
:10255000CB00F358DAE7084A009B13401A008023A7
:102560009B05ECE7E200B350EEE7C04600001050D8
:1025700000001150FFFFFFDFFFFFFFAF70B5012527
:102580008D4004892C4304818C1CA40004196468C8
:10259000646923600023A2606360E3602361FFF746
:1025A000A9FF70BD436B10B5DA6F1068017804297C
:1025B00012D1197A02290FD1117901228A40048996
:1025C000224209D19A6D5C6D944202D11B6D002BA1
:1025D00002D108CAFFF7D2FF10BD0000F8B5FEF720
:1025E00093FA264A264E146E21680B78042B41D1AB
:1025F0003300E8331B78022B3CD12079013B834028
:102600000989194236D1916BD36B994232D1516B02
:1026100000292FD0116D00292CD00439C81A9942F5
:1026200028D01860516B106C01395163516C5918E6
:102630009163814201D3D16C916332000027FC3257
:1026400017658B4202D1526BBA4201D11F0020CFD5
:10265000237E002B08D022697819521B0021FC36FA
:1026600003F01DFD346E25692B003A0021792068A6
:10267000FFF784FFFEF753FAF8BDC0467003002051
:102680007402002070B50C00FEF73EFA2378042B8C
:1026900002D0FEF744FA70BD144B1B78DB09F8D169
:1026A000134D2B78002BF4D0124B1B78002BF0D05D
:1026B00023899B0705D40823012120000E4AFFF738
:1026C0005DFF002328780D4A002103F007FD002359
:1026D0000B4A80185941FA2200239200FDF7C0FEF0
:1026E00021008000FFF7C4FBD3E7C046EA1E0020AC
:1026F000AE060020D4030020AF0600201027000003
:10270000E70300000B0011339B00C318F7B55C68AA
:1027100005000E00002C32D0FEF7F6F90821201D2E
:10272000FFF7EFFCB31C9B00EB185F687B691B682D
:102730000193002B17D0226DA36D01322265226E0A
:102740009B18E26DA365934201D3A36EA36522009B
:10275000606C4432824206D0036863645A6000238E
:102760008361FFF7ADFCA26D636D934208D1236DC9
:10277000002B05D0019B002B08D1FEF7D0F9F7BD47
:1027800008CA31002800FFF7F9FEF6E73B8A019AF4
:10279000013B1A42F1D1E36F1B7E002BEDD12A00E1
:1027A000D432EEE7F0B50500C4352B78040085B0CF
:1027B000002B01D000232B702300D43318000822F3
:1027C000C049019303F073FC63689B68002B19D127
:1027D000019B1A78602316001E401A4238D000214F
:1027E0002000FEF7F7FE00212000FEF7D3FE63680D
:1027F0001B68002B02D006212000984706232B706F
:1028000005B0F0BD200098470028E1D02300270044
:10281000DA331A78CC375B783E681B0213439E424A
:1028200001D91E003B60019B1B787F2B00D886E1FD
:10283000002E00D176E109232B70FEF765F9220006
:102840000021C8323B6812682000FFF797FE73E151
:1028500023007F21D5331B780A401B0213439A4A79
:10286000934200D146E128D88022520093425CD0A6
:102870000FD8012B51D0022B00D1D9E0002BAED1C3
:1028800022002100C832DC311160022151609360C6
:10289000BCE781225200934200D1EDE0FF32FF32CB
:1028A00093429CD12300D6331B78012B97D1220071
:1028B000DC32118801330B4342E080221201934243
:1028C0004CD022D8A022D200934240D07F4A9B18FD
:1028D000012B00D983E72300D8331A785B782100D5
:1028E0001B02134322006068D632D7314768127842
:1028F00020000978B847002800D170E7230042681B
:10290000C8331A6002685A601FE090221201934295
:102910002BD06F4A934200D061E76E4A2300C83340
:102920001A6002225A60002216E02300D6331B7878
:10293000012B00D053E722000221DC3213888B43A5
:1029400013802300C8331E605E609E605EE7230034
:10295000614AC8331E605E609A6057E72300220018
:10296000C833DF321A600122CDE72378042B48D127
:10297000FEF7CAF8A368594A1340A3602300103336
:102980001E0002933C3303933768002F0FD0786901
:10299000002804D002210C304942FFF7A7FBB86998
:1029A000002804D002210C304942FFF79FFB00238E
:1029B000039A08C69642E7D11E0002999A008858E9
:1029C0004049426996759682DA005218916801333F
:1029D00049004908916081690E754E82D1684900AD
:1029E0004908D1600F2BE8D1FEF799F823000321A5
:1029F000DF331E70636821701B68002B01D020003C
:102A000098472300D6331B78002B0BD02200DF32EF
:102A100013700423237063681B68002B02D002210B
:102A20002000984722000023C832136053602EE72D
:102A30002300D8331A780F23134002339B00E31886
:102A400052B25968002A0EDA4B69002B00D1C6E653
:102A50001A7D002A05D15B7D214A002B00D1BEE6FC
:102A60005CE7204A5AE78B69002B00D1B7E69A7CD5
:102A7000002AF6D1DB7CEFE72300D6331A78002A50
:102A800000D0ACE698780F2103000B400842C9D073
:102A9000991C8900611840B24968134EDB00002878
:102AA00007DA12481B18D86F3040D8674B695A753F
:102AB000B8E70F481B18D86F3040D8678B69DA74B5
:102AC000B0E7C046000010500203000000FAFFFF0C
:102AD000020C000058660010FD12001001000100F9
:102AE0005666001054660010FFF7FFFF04001050F8
:102AF000080010502300D6331B78002B00D06EE660
:102B00002300D8331B780F2219001140134289D0BB
:102B10005BB22000002B02DAFEF75CFD82E7FEF7D5
:102B200039FD7FE714232B70FDF7EEFF33003200F1
:102B300000212000FEF76EFCFDF7F1FF60E6002E9D
:102B400008D015232B70FDF7DFFF2200C8323B6849
:102B50001268EDE70B232B70FDF7D6FF3300320030
:102B6000310071E670B50600C436040030780028E4
:102B700042D00638C3B20F2B34D80F2832D8FDF715
:102B80005BFC3B313108253231313131313131316A
:102B90003B3B2300CC339A7B18680E335B781B02D7
:102BA0001343984212D2E368198AFDF7DBFB0D1E2E
:102BB0000CD1FDF7A9FF2B002A0029002000FFF708
:102BC000DDFCFDF7ACFF0A2333700BE014233370F8
:102BD000FDF79AFF002320001A001900FEF71AFCE7
:102BE000FDF79DFF70BD2300D0331B68002B01D083
:102BF000200098470023E7E700212000FEF7EAFCC9
:102C000000212000FEF7C6FC63681B68002B02D081
:102C10000621200098470623D6E770B50500C43585
:102C20002B780400142B29D019D8062B06D002D8F3
:102C3000002B03D070BD093B022BFBD800212000E4
:102C4000FEF7C8FC00212000FEF7A4FC63681B68A7
:102C5000002B02D006212000984706231AE0152BEE
:102C6000E8D10A3B2B70FDF74FFF002320001A002C
:102C70001900FFF783FCFDF752FFDBE7C3689B6990
:102C80005B68002BD6D10300D0331B68002B00D02B
:102C9000984700232B70CDE78023F0B515008218EC
:102CA00004000E0085B05B019A423BD8414F2A00D8
:102CB000C7193900300003F003FA002832D02A0087
:102CC0003100380003F0F3F9FEF79CF90190012D73
:102CD0002AD0E30728D48023DB019C4234D27078C9
:102CE00033780002184301281ED8434258411F235D
:102CF000404298436038630A18436308DBB21B0202
:102D0000C0B21843FFF78AF8012806D1023D023409
:102D10000236002DDBD1FFF771F8019B012B01D1A9
:102D2000FEF77EF905B0F0BD3F2C0DD8402033787A
:102D300020431B02C0B21843FFF770F80128ECD102
:102D4000013D01340136E4E70095052D01D9052345
:102D5000009300220023029203930732230C1340B6
:102D6000009A02AFD20013433B703100230A009A4D
:102D7000F81C7B70BC7003F09AF93888FFF74EF8A6
:102D80000128CAD17888FFF749F80128C5D1012D5B
:102D90000BD0B888FFF742F80128BED1032D04D923
:102DA000F888FFF73BF80128B7D1009BED1AE4182B
:102DB000F618AEE79407002003000800802110B544
:102DC0009C1849018C4203D80249591803F06FF945
:102DD00010BDC0469407002037B50025042201A984
:102DE00004000195FFF7E8FF019BAB4205D00422E8
:102DF000200001A90195FFF74FFF37BD13B56B46C2
:102E0000DC1D0023012221002370FFF7D5FF20786D
:102E100016BD10B50420FFF7F1FF04002220FFF7D4
:102E2000EDFF0002204380B210BD37B50D00040055
:102E3000FFF7E4FFA84206D06B460122D91D20000F
:102E40000D70FFF729FF37BD73B56B469C1D00233E
:102E50000E002380022221000500FFF7ADFF23882A
:102E60009E4205D00222210028002680FFF714FF91
:102E700073BD000010B50024FFF7BEF90020204903
:102E8000FFF7E2FF00210220FFF7CFFF0021032020
:102E9000FFF7CBFF1B4B210004201C80FFF7C5FF71
:102EA00004212220FFF7C1FF21000520FFF7BDFF0D
:102EB00021000620FFF7B9FFFF210720FFF7B5FF2C
:102EC0000820FFF789FF21000D20FFF7AEFF182033
:102ED000FFF782FF21001720FFF7A7FF1C20FFF755
:102EE0007BFF21002020FFF7AFFF1820FFF774FFC2
:102EF0000F20FFF771FF1320FFF76EFF10BDC046D4
:102F0000E8FE0000981E0020F0B5002589B003AC53
:102F100012220021200003F0C2F8654E37687B1CA6
:102F200000D10AE1FDF7F0FD01216248FB00D0224B
:102F3000B9401B1805201206516218605E4BBF0095
:102F4000FF1840233B609161FDF7E9FD5B4B5F6932
:102F50005B4B9F4200D8C1E038005A49FDF7C6F9E3
:102F6000594A0300974200D898E0C00801380F285A
:102F700000D991E0FDF76AFA8800800078007000BF
:102F800068006000580050004800400038003000E1
:102F90002800200018001000C046C046C046C046A9
:102FA000C046C046C046C046C046C046C046C046F1
:102FB000C046C046C046C046C046C046C046C046E1
:102FC000C046C046C046C046C046C046C046C046D1
:102FD000C046C046C046C046C046C046C046C046C1
:102FE000C046C046C046C046C046C046C046C046B1
:102FF000C046C046C046C046C046C046C046C046A1
:10300000C046C046C046C046C046C046C046C04690
:10301000C046C046C046C046C046C046C046C04680
:10302000C046C046C046C046C046C046C046C04670
:10303000C046C046C046C046C046C046C046C04660
:10304000C046C046C046C046C046C046C046C04650
:10305000C046C046C046C046C046C046C046C04640
:10306000C046C046C046C046C046C046C046C04630
:10307000C046C046C046C046C046C046C046C04620
:10308000C046C046C046C046C046C046C046C04610
:10309000C046C046C046C04607221340581E0728F7
:1030A0001CD8FDF7C9F91A19181716151413C046BC
:1030B000806800100440014004C001406C070020FB
:1030C000FF083D0000093D00FF502502C046C046F4
:1030D000C046C046C046C046C046C046314B10221E
:1030E0000093D0231B06012100279C46009B1B68F0
:1030F000019301980023013007D0634601985B6873
:10310000C34001200340013B0B401F43009B013A99
:1031100049000433D2B2BFB289B20093002AE5D18C
:103120003068431C01D0FDF703FD1F4A916A936A82
:103130005B1A1D2BFBD96B00E75201350436092DB4
:1031400000D0EBE6194D12222100280002F0B8FF52
:10315000174E002821D012222100280002F0A7FFDC
:1031600001233370FDF7A8FF124B1860114B1C6848
:10317000FDF7A2FF001B052812D90F4C12222900CF
:10318000200002F09DFF002804D012222900200018
:1031900002F08DFF0023337002E03378002BE5D17D
:1031A00009B0F0BDA468001000400540C018002020
:1031B000A4050020A0050020E2190020D0231B0652
:1031C0001A68084B92009B185B6810B5D96808759F
:1031D000186802681A60536001220275D860FDF712
:1031E00061F810BDEC18002070B50500D0200A0071
:1031F0000006036812499B00CB185B6886B0DE6846
:10320000531C18D0036804969B00C9180D4B4868DE
:1032100003930023694610300593FEF713FE280040
:10322000FFF7CCFF009B002B02D06846FDF7F2FFB2
:10323000B06906B070BD2800FFF7C0FFF8E7C046D0
:10324000EC1800207D20001010B50400FDF75CFC98
:1032500021000820FFF7C8FFFDF761FC10BD70B525
:1032600004000D00FDF7EEFF2900206084610320BB
:10327000FFF7BAFF70BD000070B50500FDF744FC14
:103280001C4C2278042A20D11B49238909787F29E4
:103290001ED91A49097800291AD013420BD12023CC
:1032A0002A0002212000FFF769F920222900144892
:1032B00002F0FDFE09E001216369494258690C30C2
:1032C000FFF7CDFF2378042BE9D0FDF728FC70BD74
:1032D0009B0703D408232A000121E3E70121236986
:1032E000494258690C30FFF7BAFF2378042BECD120
:1032F000F0E7C046FC180020EA1E0020D40300209E
:10330000AF06002070B50500FDF7FEFB0C4C2378DE
:10331000042B02D0FDF703FC70BD22891A4207D0AE
:103320006369642158690C30FFF799FF0130F1D0CF
:1033300006232A0002212000FFF720F9EAE7C04611
:10334000FC18002070B506000C00FDF7DDFB0E4DEB
:103350002B78042B02D0FDF7E2FB70BD2A891A42BC
:1033600007D06B69642158690C30FFF778FF013092
:10337000F1D0064A032354700221240A2800167053
:103380009470FFF7FBF8E6E7FC180020AA0600207F
:1033900010B501000320FFF7D5FF10BD10B50100E7
:1033A0000420FFF7CFFF10BD70B504000D00E368E7
:1033B000002B07D0236900201A1DA262E2699B1826
:1033C000E36211E0237A002B0FD1FDF73BFF002DC4
:1033D0000ED06368046043602900186060600420B8
:1033E000FFF702FF0028E2DA70BD02204042FBE74F
:1033F0000120FBE770B504000E001500FDF784FB0B
:10340000A36A002B09D129002000FFF7CDFF051E7C
:1034100003D0FDF784FB280070BDA36A1E70A36A69
:10342000E26A0133A362934204D3E16920000439C4
:10343000FDF74EFFFDF773FB0025ECE7012210B509
:1034400044305242FFF7D6FF10BD10B54430FFF7AD
:10345000D1FF10BDF7B504000E00009201930027C4
:10346000FDF752FBA36A002B09D120000199FFF759
:103470009BFF002803D0FDF752FB3800FEBDA06A79
:10348000E56A009B2D1ADB1B9D4200D91D00402DD3
:1034900018D93100402202F00AFEA36A40364033B8
:1034A0004037E26AA3629A4204D8E16920000439F5
:1034B000FDF70EFFFDF733FB009B9F42DDD2FDF7CA
:1034C00023FBCFE731002A0002F0F1FDA36A761951
:1034D0005B197F19E5E7012310B544305B42FFF724
:1034E000B9FF10BD10B54430FFF7B4FF10BD70B583
:1034F00004000D00E368002B07D062690020131D53
:103500001268A3629B18E36211E0237A002B0FD1AB
:10351000FDF798FE002D0ED063680460436029001B
:10352000186060600420FFF75FFE0028E2DA70BDDB
:1035300002204042FBE70120FBE770B504000D00CC
:10354000FDF7E2FAA36A002B09D129002000FFF75A
:10355000CEFF051E03D0FDF7E2FA280070BDA36A76
:10356000E26A1D780133A3629342F4D32000FDF791
:103570009BFEF0E7012110B50C304942FFF7DDFF5B
:1035800010BD10B50C30FFF7D8FF10BDF7B5040023
:103590000E00009201930027FDF7B6FAA36A002BF4
:1035A00009D120000199FFF7A2FF002803D0FDF701
:1035B000B6FA3800FEBDA16AE56A009B6D1ADB1BF6
:1035C0009D4200D91D00402D16D93000402202F046
:1035D0006EFDA36A403640334037E26AA3629A42E6
:1035E00002D82000FDF760FEFDF799FA009B9F428C
:1035F000DFD2FDF789FAD1E730002A0002F057FD4B
:10360000A36A76195B197F19E7E7012310B50C301F
:103610005B42FFF7BBFF10BD10B50C30FFF7B6FFE4
:1036200010BD70477FB5074B0A000193002302933A
:1036300003930493044B010001A80593FEF77EF861
:1036400007B000BDC10B0010FFFFFF7F0FB407B52F
:1036500004A901C90191FFF7E5FF03B008BC04B05C
:103660001847000070B51B4B01001B78002B03D0DE
:10367000194B1B787F2B17D818480123002205000F
:103680005B428478A1421BD05E1C02D1002C00D189
:1036900013000132D4B2013052B2062CF1D15A1CBF
:1036A0000ED0EB1899700BE0C308EF2809D80B4A2D
:1036B000D21807231940063B8B4091780B43937037
:1036C00070BD074B1B78DB07FAD50648FFF7BEFF36
:1036D000F6E7C046D4030020EA1E00208005002043
:1036E000941E00203D62001010B5154B01001B78A0
:1036F000002B03D0134B1B787F2B0CD80623002004
:10370000114A94788C4200D19070013BDBB20132B7
:10371000002BF6D10BE0C208EF2809D80A4B012193
:103720009B180722024091409A788A439A7010BDF4
:10373000064B1B78DB07FAD50548FFF787FFF6E74E
:10374000D4030020EA1E002080050020941E0020E3
:103750005B620010F8B53C4A3C4B12781B783C4C3D
:103760003C4D134323702B78002B2AD0FDF7A4FC8B
:10377000394B1B88C01A394B80B2984208D9384B54
:103780001B78DB0702D53748FFF760FFFCF768FFBF
:1037900023782A7813432370334B1A780623002AA0
:1037A00005D0324B1A781E237F2A00D8183B0022FE
:1037B0002F49013BDBB2FF2B3FD1002A01D0FCF7A0
:1037C0004FFF2C4D20222900200002F079FC002818
:1037D00032D020222100280002F069FC264B1B6811
:1037E000002B29D0204A1278002A07D01F4A1278CD
:1037F0007F2A03D922786270062222705B6820003B
:103800009847174E33785A0716D5DB0702D51B4861
:10381000FFF71CFF0025012733783B4203D0615D91
:103820001748FFF713FF0135082DF5D13378DB0773
:1038300002D51448FFF70AFFF8BD0878002801D028
:103840000132D2B20131B4E79A1E0020961E002048
:1038500080050020951E00209E1E0020871300007A
:10386000941E002079620010D4030020EA1E00207C
:1038700082050020101A00200C1A00208B62001014
:103880009D6200108E63001010B5002805D0034B18
:103890001A7810431870FFF75DFF10BD961E0020C8
:1038A00010B5002803D0FCF7D3FEFFF753FF10BD7F
:1038B00010B5002805D0034B1A7810431870FFF795
:1038C00049FF10BD9A1E002010B5002805D0034AFC
:1038D000137883431370FFF73DFF10BD9A1E00203D
:1038E0002D4B70B51B782D4C1B073CD52C48FFF792
:1038F000ADFE61782B48FFF7A9FE2B48FFF7A6FE27
:1039000002212A4D61562800FFF7A0FE284E300004
:10391000FFF79CFE032128006156FFF797FE300059
:10392000FFF794FE042128006156FFF78FFE300058
:10393000FFF78CFE052128006156FFF787FE1D4822
:10394000FFF784FE1C4B1D4D19782800FFF77EFE03
:103950001B48FFF77BFE1B4B28001978FFF776FE0C
:103960001948FFF773FEFDF7A7FBA378E27880B252
:10397000134301D0154B188023796279134301D08A
:10398000134B1880134B1B68002B04D0022220001D
:103990009B682270984770BD941E00207B1A0020FF
:1039A000A3620010C6620010CB620010CD6200104E
:1039B000DB640010D06200107A1A0020D36200107D
:1039C000D6620010781A0020D8620010081A002071
:1039D000061A00200C1A002010B500240020FDF764
:1039E00047FB0020FDF756FB084B1C70FFF7B2FEAB
:1039F00006222100064802F052FB064B1C70064BC3
:103A00001C70064B1C70FFF76BFF10BD9A1E002048
:103A10007B1A00207A1A0020791A0020781A0020D8
:103A2000002210B5034B04481A70FEF7F3FBFFF7B2
:103A3000D3FF10BD961E00208005002010B5FFF7B3
:103A4000EFFF0648FFF700FCBFF34F8F044B054A1A
:103A5000DA60BFF34F8FC046FDE7C046C4090000DF
:103A600000ED00E00400FA050121814010B5034B90
:103A70001A880A431A80FFF7AFFF10BDEC1E002022
:103A8000094B0A005B7810B55B070AD5074BC100EC
:103A900011431970FFF7E8FFFDF70EFB044B188088
:103AA00010BDFFF7E1FFFBE7EA1E00209B1E002090
:103AB0009C1E00200121814010B5034B1A888A43C7
:103AC0001A80FFF789FF10BDEC1E0020002370B59F
:103AD0000C4CE3561A00824350B2050007222070B6
:103AE000154010420DD1DBB283420AD0064B5B7801
:103AF0005B0706D5C010C0B2FFF7DCFF034B257093
:103B00001D8070BD9B1E0020EA1E00209C1E002010
:103B1000114A70B5537804005907C90F81421AD071
:103B20000100012504202940834389000B43537081
:103B30001688F1B2FFF779F92220310AFFF775F9FB
:103B40000220FFF7C3FF054B1B782B4203D0210057
:103B50000348FFF77BFD70BDEA1E0020941E002085
:103B6000DB62001010B50400832812D1FDF776FA4D
:103B7000C0070DD45320FFF775FDFFF7EBFDFA20CA
:103B80008000FFF761FB5320FFF7AEFDFFF7E2FD7A
:103B900010BD84280ED1FDF761FA4007F8D4472004
:103BA000FFF760FDFFF7D6FDFA208000FFF74CFB22
:103BB0004720E9E7031FDBB2A02B23D8264B1B7855
:103BC000002B14D0254B1A7800237F2A0FD9244BC1
:103BD000C2089B18072299780123024093400B42A8
:103BE0000CD02000FFF780FDFFF7B4FD06E01D4A72
:103BF000D15CA142F5D00133062BF9D12000FFF7AB
:103C000031FDC3E703002033DBB2072B08D80721BF
:103C1000012301408B40144A11780B431370B5E720
:103C200003005B33DBB2022B04D8243CA0B2FDF7C7
:103C30001FFAADE703005833DBB2162B05D80B4A49
:103C40005B00985AFDF726FAA2E7EC28A0D9FDF709
:103C5000FBF8FFF745FE9BE7D4030020EA1E002097
:103C60008005002082050020961E0020346B001085
:103C700010B5002813D0822812D1FDF7EFF9800784
:103C80000DD43920FFF7EEFCFFF764FDC82080005B
:103C9000FFF7DAFA3920FFF727FDFFF75BFD10BDCC
:103CA000FFF760FFFBE710B583280ED1FDF7D6F9CB
:103CB000C00709D55320FFF7D5FCFFF74BFD532074
:103CC000FFF712FDFFF746FD10BD84280AD1FDF76E
:103CD000C5F94007F8D54720FFF7C4FCFFF73AFDC8
:103CE0004720EDE7031FDBB2A02BE9D90300203307
:103CF000DBB2072B07D80723034001209840C0B24E
:103D0000FCF7A6FCDEE703005B33DBB2022B03D833
:103D10000020FDF7ADF9D7E703005833DBB2162BCF
:103D200003D80020FDF7B6F9CEE7EC28CCD9FDF793
:103D3000EBF8FFF7D5FDC7E710B500280FD08228B4
:103D40000ED1FDF78BF9800709D53920FFF78AFCE2
:103D5000FFF700FD3920FFF7C7FCFFF7FBFC10BDA4
:103D6000FFF7A1FFFBE7000070B504000749E5B2CB
:103D7000FCF7F2FB2800FFF77BFF2800FFF7DCFFD2
:103D800020000349FCF7E8FB70BDC046B1380010C5
:103D9000C938001070B505000024392800D150340E
:103DA0002800FFF765FF002C03D12800FFF7C4FFB0
:103DB00070BD0A20013CFFF747FAA4B2F3E7000008
:103DC000F7B50C0001931500204B00280CD019709A
:103DD000FDF772F91E4B18800723012023409840FD
:103DE000C0B2FFF751FDF7BD1E788E4229D1184BA6
:103DF0001F88FDF761F9C01B80B2C72821D82C00AD
:103E00002034E4B2AE420FD0330001260727300041
:103E10003B409840C0B2FFF743FDBC4204D82F405E
:103E2000BE40F0B2FFF730FD0198FFF7B3FF072C5B
:103E3000D9D8072301201D40A840C0B2FFF730FDAC
:103E4000D1E7072301201C40A040F6E7921E002086
:103E5000A6050020F8B5184BC1081D5C07231840C3
:103E6000164B174C5A5C174F0241645C7F5C012370
:103E70001600044107411E401C401F401A4202D058
:103E8000E120FFF76FFE002C02D0E620FFF76AFE6C
:103E90002800FFF77FFF002C02D0E620FFF703FF8A
:103EA000002E02D0E120FFF7FEFE002F02D02C20D2
:103EB000FFF770FFF8BDC046CC670010BC6700106C
:103EC000AC670010AC67001010B5074C0100207003
:103ED0000C20FEF7AAFF054B1B78DB0703D52178E2
:103EE0000348FFF7B3FB10BD8C1E0020941E00207A
:103EF000F0620010F7B504000D0016000193D30026
:103F00005B4200930122104B1B781340A54204D062
:103F1000009AAF18BA78002A0ED1002B09D0711E72
:103F20004B1E99412C1BE210724308480131FFF7E8
:103F30008DFB019B1D60F7BD002B02D00448FFF7ED
:103F400085FB3D00DEE7C046941E00204363001061
:103F50000F630010094B10B51B780400DB0702D576
:103F60000748FFF773FBFFF75BFD0022054B1A8044
:103F7000FFF732FD044B1C6010BDC046941E0020AC
:103F80006D630010EC1E0020841E0020F0B585B08B
:103F9000029119001B4B14001A7801231A40019258
:103FA000194F8B7806003D68002B08D1A84206D136
:103FB000002A02D01548FFF749FB05B0F0BD029A70
:103FC000E3000393EB1A9A4207D00822280002F07C
:103FD0006EF80D4BE200AD181D60019B002BECD07C
:103FE000611E4B1E9941029B3A689B1BDB10634389
:103FF000921BD2106243013101330548FFF726FBC3
:10400000DBE7C046941E0020841E00209063001051
:10401000C1630010F0B507008DB0010006220AA8A8
:1040200002F045F8BB88002B30D004AB1A8BB04BA4
:104030009A422BD078783B7800020122B978184355
:10404000FDF750FEAB4D04002A78002A31D1BB7831
:10405000002B50D1A84BC01804284CD8FCF7ECF921
:1040600003184B1D2400A548FFF774FF01232B7094
:10407000A34B1B785B0709D0BB78002B06D0A14B64
:104080005B785B0702D50220FFF720FD0DB0F0BD85
:104090009D48FFF75FFF0223E9E701229B4B97480A
:1040A000196800F0D1FFE3E70122994B964852428C
:1040B000F6E7914BC318022B19D8964BC418631E10
:1040C0009C41BB78A342D3D0012A03D0022A08D056
:1040D0000023CCE78D4B904988480968FFF70AFF19
:1040E000F6E701228A4B8C4987485242F5E7012ABC
:1040F00026D0022A2BD0BB78002B0FD0B9797B7841
:104100000D09C907C90F3A7803950291B988834808
:104110000191012100912100FFF798FABD78002D4F
:104120001FD07F4B9C4218D87E4B9C4200D83FE169
:104130007D4BE018032840D8FCF77EF9787A7C7E26
:104140003B0073496D480968FFF720FFD3E7012260
:104150003B006E496C485242F5E7744B05209C4287
:104160002CD0230400D41CE1002D29D0FCF776FFCD
:104170006F4E8007C00F3070FCF770FF6D4B6E4DB7
:10418000C007C00F049318702B78012B05D133782A
:10419000002B02D03920FFF7FDFD684A684B1178EB
:1041A0002878197000231370664A1370052848D8C0
:1041B000FCF742F9446F7447858A0020FFF784FEBC
:1041C000BB78002B01D100F0E8FC00225E4B5F4D74
:1041D0001A70AC4209D000D935E15D4B9C4200D940
:1041E00016E15C4B9C4200D83DE1FEF712FE454EC5
:1041F000574B30809C4200D8A5E1574B9C4200D8D9
:1042000097E1AC4200D168E2544BE0180A2800D98B
:10421000ADE1FCF71BF96A02AC01AC01AC01AC01E9
:10422000AC01AC01AC01B801E60172020120C5E7A6
:104230000220C3E70320C1E70420BFE7E220FFF725
:1042400091FC0C256420FEF7FFFF63045B0C0593D3
:10425000059B0F222B411340374A1278022A3CD18A
:10426000981FC0B2092B06D8093318000A21FCF7A1
:10427000CDF85931C8B2FFF78DFD043D2B1DE7D1B4
:104280002D4B187805286ED8FCF7D6F86A727C6D2D
:104290008587C6208000FFF767FDD2E7049B1B7867
:1042A000002B02D15320FFF775FDE220FFF75AFCE7
:1042B0006420FEF7C9FF5720FFF76CFDC1E7E62039
:1042C000FFF768FD1820F7E71C20FF30FFF74CFDD3
:1042D0002520FFF749FD2820DDE71A000A3A052AC4
:1042E00004D930331800FFF7B5FDC6E75733F9E7B7
:1042F000FFFF0000881E0020FCA2FFFF821A0020A2
:104300009B1E0020EA1E00207A1E0020DC030020F5
:10431000D8030020FAA2FFFF841E0020E7630010EC
:10432000E65C0000E15C00001DA3FFFFB15D000042
:10433000911E0020901E00208C1E0020961E002042
:10434000891E00209A1E0020921E0020625D00003F
:10435000155C0000015C0000035D00005AA2FFFF35
:10436000E220FFF7A0FCB34AB34B12781A7027E79C
:104370002C20FFF70FFD33783920002BF3D0FFF707
:1043800009FDF0E7E220FFF78EFC049B1B78002B71
:10439000E9D15320F3E72820F1E72820FFF7E4FCD8
:1043A000E1E7A64B9C4200D90AE7A54B9C4210D8F6
:1043B000A44B9C4215D0A44B9C4225D0A34B9C42BD
:1043C00000D0FDE62623E12211002800FFF7F8FCCB
:1043D0004EE69F4BE018022806D8FCF72DF8090D91
:1043E00011002723E522EFE72623E122E021ECE775
:1043F0002723E522E421E8E72623E122E221E4E77E
:104400002723E522E621E0E728230122E521DCE756
:10441000904BE3189BB2082B00D8E6E68E4B9C42EB
:104420001BD15522844B1B7893431900481E8141B0
:104430008A4A29201170002B00D00C30FFF712F9A6
:10444000FFF788F914E6864B9C4200D1CDE6854BF8
:10445000E3189BB2022B00D8C7E6834B9C4200D1E5
:1044600085E100D952E1814B9C4200D163E1804B50
:104470009C4200D170E1DF3B9C4200D154E13A887C
:10448000BB7809AD2A800998002B00D171E1FCF7B7
:10449000C3FA040001000998FCF782F82B8804AAEB
:1044A000138320000A99FCF7E9F8FCF753F900227E
:1044B000BB79BD781B0904936E4B041C05931B78D4
:1044C00006925B0720D0069595421DD023041B0E53
:1044D0000F329343402B06D0230000222033DBB25F
:1044E0000692072B10D90022634B06925B785B077C
:1044F0000AD50220FFF7EAFA0722059B1B78134032
:104500005A425341DBB2069323041B0F07930B2B34
:1045100000D94FE11800FBF799FF300130018F01FE
:104520008F011A022E024D014D013902B402C4025C
:10453000C402524BE018072832D8FBF77DFF3460E5
:10454000634A78B0C7CC4E4BE01812280BD8FBF763
:1045500073FF1E21242D3033363C444D50535C5F95
:1045600062656BB39900012332781343337034884A
:104570000420E1B2FEF759FC2220210AFEF755FC87
:10458000FFF74EFA74E50823727813432CE00223F8
:104590003278EAE704233278E7E708233278E4E761
:1045A00001237278F1E702237278EEE71023327864
:1045B000DBE720233278D8E740233278D5E7FFF7CE
:1045C0002FFA802332785B42CFE70C2332789A436C
:1045D000CBE7032372789A43D7E7012233789343DA
:1045E000C4E70822737893437370C0E702223378DC
:1045F000F5E704223378F2E708223378EFE7012267
:104600007378F0E702227378EDE710223378E6E75B
:1046100020223378E3E740223378E0E7FFF700FA1F
:104620007F2233781340A1E70C223378D7E70322A7
:104630007378D8E7891E0020961E0020F75C0000E2
:10464000F35C0000D95C0000DA5C0000D85C00007C
:104650000BA3FFFF05A3FFFF165C0000931E0020C5
:10466000A65D000052A2FFFF5B5D0000015C000040
:10467000DF5C00009B1E0020EA1E002004A3FFFF59
:10468000FDA3FFFF0122042033785907C90F8A4395
:10469000910083430B430821D2008B4365E701213E
:1046A00008007378DA07D20F904302228B4303434A
:1046B000410093430B4397E7FFF7B2F901223378A8
:1046C000D9094A407F21D2010B404EE701210E203B
:1046D000FEF7ABFB4BE70021F9E701223378D9065F
:1046E000C90F8A4312011021D7E70121080033784E
:1046F000DA07D20F90430200CFE70122737819073F
:10470000C90F8A430821D2008B433EE7B54B9C4238
:1047100026D0B54B9C4221D0B44B00209C4200D007
:10472000ADE6FFF7F5F9AAE6FFF77AF9B048FEF72C
:104730008BFDFCF7F5FF01221400AE480378D90782
:10474000C90F8C43934323430370AB48134200D1FA
:10475000AA48FEF77BFF8BE4FEF78CFBFFF76EF9B0
:10476000A74B587801234007C00F5840D9E70120D4
:10477000D7E7FBF73BFF040090E626052304360F3E
:104780001B0E0F2B00D93601E4B2002D3DD0002EB8
:104790000DD023002033DBB2072B02D9994A002C1D
:1047A00000D1994A137833431370FEF7D3FF2000EA
:1047B000FFF75EFA079B083B032B03D8FCF74EFC80
:1047C000FBF7B0FE069B002B16D00020059B185669
:1047D000012302001A4018420ED1C010BA70C0B2B4
:1047E000FFF742F93800FFF715FC0020059B18562B
:1047F000C010C0B2FFF75EF978783B780002002263
:10480000B9781843FDF76EFA40E42000FFF794FAF8
:10481000002ECFD023002033DBB2072B01D9002C90
:1048200003D13000FBF714FF03E0764A1378B3435B
:104830001370FEF78FFFBDE70F22230426051B0E22
:10484000360F9343202B00D03601E4B2002C0DD05C
:10485000012C64D0049B002D6CD0002B3DD0BB7983
:10486000DA07A4D50F221340BB7136E0644B5B78A6
:104870005A070AD4002D05D0002E9BD0624A137827
:104880003343D5E7002E95D0CBE7002D27D0049AEF
:10489000002A05D15D4B18783043FEF7F5FF89E714
:1048A000049A012A0DD15B0784D5584C23781E4306
:1048B0009E4200D17EE7FCF7FFFB554B2670188027
:1048C00078E7049B052BE5D1FBF7CAFE3200514B7C
:1048D00019780A438A4200D01A703000DDE7049B41
:1048E000002B02D1FBF7BCFE10E0049B012B11D181
:1048F000454B1B78334200D15CE7FBF7B1FE454BDB
:104900001A781100B143164200D019703000FEF73A
:10491000C7FF4FE7049B052B00D14BE7E2E7049B61
:10492000002D03D0052B00D944E7D6E7042B00D98E
:1049300040E7EBE7002BE9D00120392C01D1C8205A
:104940008000FEF781FC2000FFF7F6F932E723052F
:104950009B0F09D0012B00D02CE7281E01D0A00509
:10496000800DFCF797FB25E7281E01D0A005800DE0
:10497000FCF77EFB1EE7E0B2002D04D0FCF764FAE2
:10498000FEF7AEFF16E7FCF7BFFAF9E723049B0139
:104990009B0F43D1002D00D00CE72206520F92004E
:1049A0002307D2B21B0F93409BB2E10603D50F350C
:1049B0009540ED43ADB22405174AA40F022C0CD04C
:1049C000032C08D0012C04D01D4313882B401380E6
:1049D00048E011880B432B43F9E72B4311884B40E8
:1049E000F5E7C0465D5D0000A85D00005C5D00006D
:1049F000C4090000941E00203C6400104D640010A7
:104A0000EA1E00209A1E0020961E0020951E0020FF
:104A10009E1E0020971E0020981E0020A3059B0FBD
:104A2000DAB2002D21D0DB0700D4C3E62106490FFE
:104A300089002307C9B21B0F8B4000229BB2E006FE
:104A400003D50F328A40D24392B224055949A40FAC
:104A5000022C12D0032C0ED0012C0AD01A430B8842
:104A600013400B80FEF7B8FFA4E6012A00D8A1E6A8
:104A7000DCE7088803431343F3E713430A885340F2
:104A8000EFE7E6B22405240F002D03D02000FEF747
:104A9000EBFF22E73000FEF703FF2000FFF70AF8E4
:104AA00088E6E6B23000F03804285ED8FBF7C4FC94
:104AB0000328131A2400049B002D08D0042B00D9CE
:104AC00078E60123E404E40EA3403A4A86E7052B86
:104AD00000D96FE6F5E7E004C00E002DDED1FEF749
:104AE000C3FF67E6334A002D04D00123E404E40E3B
:104AF000A3406CE71580B5E72F4B5B785B0704D4C8
:104B0000E004C00E002DC9D0E9E7002D1ED0072219
:104B1000059B1B781340042B0BD10023059AE0045E
:104B20001370264AC00E1380FEF7C4FF00230693BD
:104B300044E6049B042BF9D8E404E40E2000FEF7BD
:104B400093FF03212000FEF79BFFEFE7049B042B5C
:104B500007D9059BE0041D70184B04211D80C00E71
:104B6000F1E70120FEF7B2FFE0E7049B002D06D03D
:104B70003000002B00D01BE6E004C00EAFE7002B96
:104B800008D00120392E01D1C8208000FEF75CFB3F
:104B90003000D9E6E004C00E80E7094B9C4200D00B
:104BA0006DE4084B29201B78002B00D00C30FEF759
:104BB0009BFD45E4EC1E0020EA1E00209C1E002008
:104BC000165C0000931E0020F0B5254B87B09A7943
:104BD0000F2A3ED89A78002A3BD0224A1478224ADB
:104BE000127803929E885A781B7801920293039B55
:104BF0009C422ED01A4D04AF06222900380001F045
:104C000056FA002E27D03A88184B9A4223D0184AD9
:104C1000E10053185878019FB8421CD18A5C029970
:104C20008A4218D19A78002A15D19A88921B92B29A
:104C3000C72A10D80F201021AA7902400A43AA716E
:104C40009A790240114328009971FFF7E3F9FBF7C5
:104C5000EFFC07B0F0BD072301341C40C7E7C04696
:104C6000E21E0020A11E0020A01E0020FFFF000069
:104C7000A21E0020F0B504008BB00100062206A899
:104C800001F015FA2378994D0493637808AE0593E3
:104C9000A3880622290030000193A77801F007FAC3
:104CA000AB880293002B00D1DDE03388904A934219
:104CB00000D1D8E0AB780393002B00D1D3E0019969
:104CC0000298AB790A1A92B2C72A00D9A6E0062246
:104CD000290030000F2B00D96CE001F0E8F933888F
:104CE000834A3E00934211D022889A420ED1002F6F
:104CF0000CD10F23AA7928001A4001331343AB715A
:104D0000FFF788F9AB79A371002650E0049A08AB4D
:104D10001A70059A5A70019A002A1FD01B88744A8B
:104D200093421BD0002F1BD1724A734B15781B780E
:104D3000724AAB421AD10698FBF796FEC3B2000442
:104D40000F21020F012A23D8000E014201D0002BAF
:104D50002DD02033DBB2072B29D91DE0002FD3D073
:104D60000123624A91790B439371CDE7D800111862
:104D70004F78BC46059FBC4506D1805C049FB84275
:104D800002D189780029BFD1072101330B40D0E738
:104D90000E320A40012A04D92000FFF73BF9039E96
:104DA00005E0000E0142D4D0A2790F2AD1D83000FC
:104DB0000BB0F0BD01F07BF933884D4A93420FD020
:104DC00022889A420CD1002F0AD1AB79A37120001E
:104DD000FFF720F908222100280001F068F91BE004
:104DE0002000FBF751FE002872D0002F70D03F4A00
:104DF00093791F2B09D9128808A80280002282709B
:104E0000019A83718280FFF705F908222100374853
:104E100001F04DF9FFF7D8FE0126C8E70F2B08D89F
:104E20002800FFF7F7F808220021280001F037F9E1
:104E30006AE706222900300001F039F933882C4A4C
:104E40009342CDD02A8823889A42C9D1002FC7D156
:104E5000AB792000A371FFF7DDF8082239002800A4
:104E600001F01DF9D8E7214D06222900300001F09C
:104E70001EF9029B002B31D032881D4B9A422DD057
:104E8000A97800292AD1019B02981B1A9BB2C72B33
:104E900022D8002F1CD02388934210D1AB79DA0797
:104EA00098D40F2B96D90F31A3718B43F02B8ED052
:104EB000A3791A09013212010B40134386E720003F
:104EC000FBF7E2FD0028A0D10123AA791343AB71BF
:104ED0002000FFF79FF89FE70822A6E7002FF7D0F2
:104EE0002000FBF7D1FD0028F2D08EE7E21E002063
:104EF000FFFF0000A01E0020A11E0020A21E002017
:104F0000F0B5040C8FB08BB2E4B204AA0490019304
:104F10005160002C02D00021404B1970002304275F
:104F200004A9CB82049B08AD08939388AB803C4BCB
:104F30005B783B4219D0FCF7BFF83A4B3A4E1B88DE
:104F4000C01A80B2B04206D9384B1B783B4202D11E
:104F50000220FEF7BBFDFCF7AFF8354B1B88C01AEB
:104F600080B2B04201D9FBF77BFB019B0AAE08225D
:104F700029003000AC70AB8001F099F83000FFF7E9
:104F800079FE041E29D1B3882A4F03932A4B31009E
:104F900001931B7808220CA806AE02933D7801F01D
:104FA00086F8062230000CA901F081F8039B002B43
:104FB00013D03288214B9A420FD007236E1C1E401B
:104FC000029B9E4212D01E48ED00082240190CA9F7
:104FD00001F06DF83E70FBF72BFB0725164C154BC7
:104FE00020781B7883420CD10FB0F0BDFEF718FD7E
:104FF000019B0822210013483C701C7001F04FF8FF
:10500000EBE70F4BC000C018FFF734FE0028EBD0D1
:10501000237801332B402370E0E7C0469A1E00201E
:10502000EA1E00209C1E0020871300009B1E00200B
:105030009E1E0020A01E0020A11E0020FFFF0000D9
:10504000A21E0020E21E0020134BF7B51B780400BF
:105050000F001500DB0706D5511E4B1E99410F4866
:105060000131FEF7F3FA0E4EED0033880193FEF79F
:10507000D7FC00233380FEF7AFFCBC4206D1FEF71D
:10508000CFFC019B3380FEF7A7FCF7BD2000FEF7A5
:10509000C1FF6419F1E7C046941E00205F64001050
:1050A000EC1E002010B5FCF779FD0A4B0A4A19687E
:1050B00091420AD009491A608C6A09488A6A121B0F
:1050C0008242FBD900221A6010BD00221A60FCF750
:1050D00027FBC046F01E0020BAB0FECA00400540C3
:1050E0003F0D03007047FEE7F0B5082000240E498D
:1050F0004A680E6815008B68AB4210D8D51E002692
:10510000AB4203D303339B1A9B089E00CB689219D2
:10511000934207D8013810310028E9D1F0BD80CE84
:1051200080C5E9E710C2F3E75C660010D0231B06D8
:105130001A680E4B92009B185B6810B51868D96806
:1051400002681A60536001220275D86000238A68E1
:105150000B750B691B689C689442FBD85A680B60FE
:105160004A6011605960FBF79DF810BDEC180020F3
:10517000F0B595B0FCF712FD0220FCF7D7F88020BF
:105180000003FCF7D3F88020C002FCF7CFF8202002
:10519000FCF7CCF8802001264000FCF7C7F8BE4C95
:1051A00078220021BD48267000F079FFBC4BBD4A33
:1051B00000251A60BC4ABD4F5A60D0233E70FD6086
:1051C0001B061E686560A560E2342580B300B84CFC
:1051D000FB187D60BD605C60B64BB749E362B74BBE
:1051E000A6625869FBF782F807228021B44B013888
:1051F00058609D601A60B34A0906D3691B021B0AF6
:105200000B43D361D0220C2312061365AE4200D0AB
:105210001BE1C321C020AC4A8900535800061B0281
:105220001B0A0343535080231B021360A74B002625
:10523000236163610123D0225B42E661A660A36122
:105240001206136831009B00FB185B682460DB6961
:10525000646018008023A36363659D4B20626162D4
:10526000E6640131A6652665E36024640634994B43
:10527000E1879948994C04601800994C0830C4673C
:105280001800883006601800964C9430046012684C
:1052900002249200BA1850681A00A03211601A0055
:1052A000AC3214801A00A83210601A00BC321160AF
:1052B0001A008D48B832B43316601E60FCF700FF48
:1052C0003C70FBF72CFC894B894A1A60FCF782FF83
:1052D000802288495200884800F0E9FE8022874FEA
:1052E000300039001201FBF7A9FE854C854DBB5DEE
:1052F0000195634000931B020993002300980199D4
:1053000012220893002300F0E9FE009B6A01DB0EE5
:105310001A43009B03925B010293029C039D241895
:105320004D41009A019BA4185D41009B019A5B0EC0
:10533000D2011A43009B0592DB010493049A059B5A
:10534000A4185D41009B019A1B0E12021A43009B98
:1053500007921B020693069A079BA4185D41089AC0
:10536000099BA4185D41802301365B019E42BED19A
:10537000042230000CA9FBF761FE0C9BA34202D172
:105380000D9BAB4201D0FCF725FF5F4D0AAB9C1D86
:10539000012221002800FBF751FE2388002B4ED06C
:1053A0000CAEDAB2AC1C3380910901295DD0022920
:1053B00060D0002900D0A9E00AAB0A31C918012247
:1053C0002000FBF73BFEE0233278DB02110419409A
:1053D000092307260AA81B1818785B782C1D1B02C6
:1053E00003435BBA9BB21943D3081E400293802348
:1053F000009189195B01994200D987E030231A4254
:1054000005D0200001220DA9FBF718FEAC1D029B60
:105410005B0707D50E210AAB20000122C918FBF754
:105420000DFE02340B21009B3200F8180AABC9189C
:1054300000F03DFE802325009B019C42A6D38023E3
:105440005B01FD50FCF7DAFC65E0012E00D0EDE6D3
:10545000C420FF221C4B8000195891433F3A0A4355
:105460001A50802252021A60E0E63F211B0A0A40CD
:10547000BB54DFE7F82051028001014080201B0A65
:105480005B000B43591C400181423FD29206D20F70
:10549000FA5400237B54CDE7FC1800204819002063
:1054A00064070020F81E002000000420EC180020F3
:1054B000C00C04204C680010102700006C0700206E
:1054C00010E000E000ED00E000E100E0D00C04207E
:1054D000F00C0420000C0420A40C0420740C042004
:1054E000990B0010C5020010980C042058020020EF
:1054F000650B0010000000109C170020940700208E
:1055000025232284E49CF2CB0810000080235B0159
:10551000FC50FCF711FC10220021BB4800F0BFFD3D
:105520000022BA4BBA4C1A70BA4BBB481A70069399
:1055300023009C3318602000B84BB43003608033E4
:105540001B6827009C4623002500EC33F0371B60C6
:105550003B6023000126B248E03528602000F43388
:105560001E702300E43000602000AE496746E1670A
:10557000E0310E702100F8331A602300D03000684B
:10558000DC31043047430968FC33CF199F602700A2
:10559000D8606046596019605961A349C4371861E1
:1055A0009A61DA6119623F682000BC469F4F210072
:1055B0009F62DF6296277F00E6556646CC30006822
:1055C0005E630430586446436046D83109681A6502
:1055D0005A65974A8E191E645D62D963996398640F
:1055E000D9649A65DD652300BC331E68FBF78CFA2D
:1055F0002300C0331B7811339B00F3185D60230038
:10560000C1331B7821339B009D512300C2331B788B
:10561000002B03D011339B00F61875602300854AD8
:10562000FC331A660223E83423708024FBF777FAF0
:10563000FA20814B814A1D0064029C504000FDF716
:1056400003FEFCF7B9FE7E4AFA20AC5000247D4BE5
:105650007D4A1C607D4B40001A60FDF7F5FD7C48DB
:10566000FDF7F4FFFBF750FAD0231B061A68794BBD
:1056700092009B185B68DA69774B1A60774B1C6065
:10568000774B1C60FBF74BFA764C774D2068431C38
:1056900001D0FBF74DFA0434A542F7D1734C744D99
:1056A0002068431C01D0FBF743FA0434A542F7D12C
:1056B000704C12220021200000F0F1FC1222002187
:1056C0006D4800F0ECFC00200CAD0222290028807F
:1056D000FDF772FB2A88694B9A4201D0FDF7CAFB9D
:1056E0000220FDF78BFB664D2870FDF792FB654BA2
:1056F0001880FDF709FC7820FDF7A6FDFDF704FCF6
:1057000023880124234207D0FCF776FD00205E4960
:10571000FDF79AFBFCF704F80320FDF76FFB5B4BEA
:1057200080261880FEF758F9D023052040218027D5
:10573000574A1B06B6035E621060564AFF03916526
:105740005E61554E5F623060D1655F618027534E68
:10575000BF045F62306091665F618027504E7F02B8
:105760005F62F067516407305F61FDF747FB4D4BA7
:10577000010018602B78234202D04B48FDF766FFEA
:10578000324A4A4B12681A6000240F261F4B214AE6
:105790001D78137821001C4FAB4200D198E018000F
:1057A0000121385C01330C0033400528F4D8FAF7A6
:1057B00039FEF1F3F1F10308137001223C4B1A702A
:1057C000E2E70024069A3B481370394B1C703A4BB1
:1057D0001C703A4B1C70FCF71DFD06222100384856
:1057E00000F05DFC374B20001C70374B1C70374BB2
:1057F0001C70FBF73DFC2000FBF74CFCFBF72EFC7C
:10580000FAF790FEC0E7C046D8180020E91800203B
:1058100074020020E81800209C020020BC02002036
:10582000586800107C020020B31C00109803002070
:10583000A525001030030020000011504C3000005E
:105840004C2000009C1800205C020020D41800208E
:1058500080640010EC180020BC180020B81800204C
:10586000B418002080680010A4680010A46800101C
:10587000E4680010E2190020C0180020E8FE0000D3
:10588000941E0020EA1E0020FFFF0000981E00204A
:10589000AC40014000C00140B4400140CC40014058
:1058A000084001408C1E0020916400100C1A00205A
:1058B000EA18002080050020961E00209A1E002075
:1058C0007B1A00207A1A0020791A0020781A00200A
:1058D000002900D01370604C604A23780092052B99
:1058E00009D15F48FDF7B2FE2378052B51D0FDF7B3
:1058F00031FFFDF7F5FFFDF707FB0023594E009A36
:10590000F15AD25A102B00D1BAE002339142F6D0AC
:10591000554B1B789B0700D59EE1009B0296049394
:1059200000230093049B1F88029B1B88BB4220D04E
:10593000002401257B400893089B2B4211D0009B3B
:105940000CAE73703B002B405A1E93413470B37001
:10595000FBF7B2FB01231843B0800C980D99FFF7B9
:10596000CFFA01346D00E4B2ADB2102CE4D1029B49
:105970001F80009B0133DBB20093049B023304932E
:10598000029B02330293009B092BCBD1FBF794FBC4
:1059900090E00020FAF7C6FDAA20FDF755FCFDF7C0
:1059A000B3FA0923009A1188002905D1013BDBB223
:1059B0000232002BF7D197E72378052B04D18023FF
:1059C0002A4A2B495B015350FBF79EF82378022BA0
:1059D00007D10022274B01211A60C123234A9B01D2
:1059E000D15000250123260065602370F768002F41
:1059F0000FD07869002804D002210C304942FCF70E
:105A000075FBB869002804D002210C304942FCF72C
:105A10006DFB00230135F3600436102DE6D1D02351
:105A20001B061A68144B92009B185B681A68DB68A7
:105A300092689B689A4201D9FFF778FB8025FBF7B3
:105A40006EF80A4B0D4A1E006D029D50FCF7B4FC27
:105A5000074AB55048E7C046FC180020E21900206C
:105A6000B1640010F4190020941E002000001150B1
:105A70004C20000090001150EC1800204C30000029
:105A8000914200D044E7FBF717FB8B4E84B233887A
:105A9000A3420FD001230CAD5B422B800023AB70DF
:105AA000FBF70AFB01231843A8800C980D99FFF718
:105AB00027FA3480814C0CAF06222100380000F018
:105AC000F6FA00230225A370E370237163710326A5
:105AD0007D57BE572B00334339D0794B1B88009339
