:020000041000EA
:1000000000B5324B212058609868022188439860DF
:10001000D860186158612E4B002199600421596104
:100020000121F02299502B49196001219960352056
:1000300000F044F80222904214D00621196600F024
:1000400034F8196E01211966002018661A6600F04E
:100050002CF8196E196E196E052000F02FF8012189
:100060000842F9D1002199601B49196000215960AB
:100070001A491B48016001219960EB211966A021F2
:10008000196600F012F800219960164914480160C1
:100090000121996001BC002800D000471248134993
:1000A000086003C880F30888084703B5996A0420EC
:1000B0000142FBD001200142F8D103BD02B5186610
:1000C0001866FFF7F2FF186E186E02BD00000240BE
:1000D000000000180000070000035F00212200005C
:1000E000F4000018222000A00001001008ED00E03C
:1000F000000000000000000000000000070B8FD58A
:10010000000404209D020010254C00109F020010E6
:100110009F0200109F0200109F0200109F0200101B
:100120009F0200109F0200109F0200109F0200100B
:100130009F0200109F0200109F020010414B001010
:100140009F0200109F0200109F0200109F020010EB
:100150009F020010954800109F0200109F0200109F
:100160009F0200109F0200109F0200109F020010CB
:100170009F0200109F0200109F020010014C00100F
:10018000C14B00109F0200109F0200109F02001040
:100190009F0200109F0200109F0200109F0200109B
:1001A0009F0200109F0200109F0200109F0200108B
:1001B0009F0200109F0200109F0200109F0200107B
:1001C00072B6254880F30888244880F30988022005
:1001D00080F31488BFF36F8F21482249086004F030
:1001E00058FB04F078FD204820491B4A914202DA6E
:1001F00008600431FAE71E49184A914202DA0860A1
:100200000431FAE71B491C4A1C4B9A4204DA08687D
:10021000106004310432F8E700201949194A91426C
:1002200002DA08600431FAE704F03CFD04F054FD02
:10023000154C164DAC4203DA216888470434F9E7BF
:1002400006F0B4FB124C134DAC4203DA2168884728
:100250000434F9E71049084700040420000C042086
:100260000001001008ED00E0555555550000042030
:1002700000040420DC8B001000000020500500204A
:1002800050050020B0230020C0010010C001001064
:10029000C0010010C0010010D54C001090E700F024
:1002A00000F8FEE7F0B544464D4656465F46F0B4CA
:1002B0006B46CB60C3689D46F0BCA046A946B246DB
:1002C000BB46F0BD04F074FC62B6281CA0470020B9
:1002D00004F0B2FCFEE704F0C3FC024A024B1360D8
:1002E000FEE7C04604ED00E000000080F0B5C64621
:1002F00000B50F2A43D90B00032603431E400C0010
:100300000300002E40D11500103D2D09AC462D01F3
:10031000A846804400E03B00676825685F60E768A6
:100320001D60DF601F00A56810379D6010344345D5
:10033000F1D165460F230C2401352D0149191340D5
:100340004519144223D08C59AC5104369C1B032C04
:10035000F9D80324043B9B0801339B002240ED188D
:10036000C918561E002A07D0002300E02300CA5CEB
:100370005C1CEA549E42F9D180BCB846F0BD050031
:10038000561E002AF0D1F7E7561E0500ECE71A00CA
:10039000F6E7C046F0B5050083074AD0541E002A90
:1003A00044D0CEB20300032202E00135013C3DD32C
:1003B00001332E701342F8D1032C2FD9FF220A40AB
:1003C000150215432A0415430F2C35D92700103F79
:1003D0003F093E01B4461E001A00103666441560FF
:1003E00055609560D5601032B242F8D10F260C22CC
:1003F00001373F012640DB193700224217D03E1F4C
:10040000B608B400A4461A001C1D644420C2A242CF
:10041000FCD103240136B6009B193C40002C05D0CA
:10042000C9B21C19197001339C42FBD1F0BD3400D4
:10043000F4E714000300BFE72700E0E730B5032A24
:100440000CD903000B439B071CD103680C68A34223
:1004500018D1043A04300431032AF6D8551E002A74
:100460000ED002780C7894420ED101350123013967
:1004700004E0C25C0133CC5CA24205D1AB42F8D1AE
:10048000002030BD551EECE7101BFAE700224308A0
:100490008B4274D303098B425FD3030A8B4244D34C
:1004A000030B8B4228D3030C8B420DD3FF2209028E
:1004B00012BA030C8B4202D31212090265D0030B4D
:1004C0008B4219D300E0090AC30B8B4201D3CB0343
:1004D000C01A5241830B8B4201D38B03C01A524185
:1004E000430B8B4201D34B03C01A5241030B8B4287
:1004F00001D30B03C01A5241C30A8B4201D3CB0272
:10050000C01A5241830A8B4201D38B02C01A524156
:10051000430A8B4201D34B02C01A5241030A8B4259
:1005200001D30B02C01A5241CDD2C3098B4201D371
:10053000CB01C01A524183098B4201D38B01C01AEF
:10054000524143098B4201D34B01C01A5241030966
:100550008B4201D30B01C01A5241C3088B4201D315
:10056000CB00C01A524183088B4201D38B00C01AC2
:10057000524143088B4201D34B00C01A5241411AE9
:1005800000D20146524110467047FFE701B50020F6
:1005900000F006F802BDC0460029F7D076E77047A4
:1005A0007047C046F0B5CE46474615042D0C2E00C8
:1005B00080B50704140C3F0C9946030C7E435D4341
:1005C000674363437F19340CE4199C46A54203D961
:1005D00080235B029846C4444B4643435143250C59
:1005E00036046544360C2404A4195B1959182000FC
:1005F000C0BCB946B046F0BD02B4714649084900D6
:10060000095649008E4402BC7047C04602B4714688
:1006100049084900095C49008E4402BC7047C04645
:1006200003B47146490840004900095A49008E4404
:1006300003BC7047002B11D1002A0FD1002900D133
:10064000002802D00021C943081C07B4024802A1B7
:100650004018029003BDC04649FFFFFF03B468463F
:1006600001B5029800F006F8019B9E4602B00CBC52
:100670007047C046F0B557464E464546DE46E0B5A3
:10068000040083B00D00924699468B4230D82DD09D
:100690004946504600F0C0F829000600200000F04E
:1006A000BBF8331A9846203B9B4633D45A465346F0
:1006B000934042461F00534693401E00AF423AD833
:1006C000AF4200D17BE05B46A41BBD41002B00DAAA
:1006D00078E0002200230092019301235A469340C0
:1006E0000193012342469340009328E08242CFD9F0
:1006F00000220023009201930C9B002B01D01C6070
:100700005D600098019903B0F0BCBB46B246A946B3
:10071000A046F0BD424620239B1A5246DA4041468D
:1007200013004A468A40170042461F4353469340EF
:100730001E00AF42C4D90022002300920193434619
:10074000002BD9D0FB079C46614672080A437B0800
:1007500046460EE0AB4201D1A2420CD8A41A9D41FC
:10076000012024196D410021013E24184D41002E25
:1007700006D0AB42EED9013E24196D41002EF8D1CE
:10078000009801995B4600196941002B25DB2B007D
:100790005A464446D3402A00E2401C005B461500FE
:1007A000002B2BDB26005F46BE4033002600474669
:1007B000BE403200801A9941009001919CE7A3420B
:1007C000B9D880E74246202300219B1A00220091DD
:1007D00001920122DA40019283E7424620239B1ACC
:1007E0002A0046469A402300F340444613432A0019
:1007F000E2401C005B461500002BD3DA2023424662
:1008000026009B1ADE402F00B4464646B740664697
:100810003B003343CAE7C04610B5002903D100F0BE
:1008200007F8203002E0081C00F002F810BDC046B6
:100830001C2101231B04984201D3000C10391B0A10
:10084000984201D3000A08391B09984201D30009D4
:10085000043902A2105C40187047C046040302022B
:10086000010101010000000000000000F0B50500DA
:100870000C2485B00F00110E1202019201981A008B
:1008800000230291FFF7D6FE6C43274B0600E418C5
:1008900063680391834200D260602B1FDBB2009338
:1008A000C023009A9B012343012A2ED8012F2CD16B
:1008B00003221A603B00A2681A42FCD0E02223689F
:1008C00013408022520122431360009B012B09D860
:1008D000032123687B400B4013600123BB40A268C7
:1008E0001342FCD0802380229B01234312011A6013
:1008F0000198039B666032000299FFF79BFE0B4B49
:10090000AD00E850012005B0F0BD802212011A6050
:10091000064BAA00D1580029D0D05869FFF7B6FD80
:1009200001300138FDD1C9E700800040900B002064
:1009300070B5040008001E491500FFF7A7FD8022CE
:1009400023682D0492012A43002B0FDA3F212368EC
:100950000B40012B0AD1A3681B051B0D984205D142
:10096000EE21E368C9020B409A421CD0114B9C4215
:100970001AD080235B011049104D0B6010490B60A9
:100980001E00A9688E43FBD101232360C023211DD3
:100990009B010B432121A060196021680029FCDA2A
:1009A000E26008221A6070BD80239B01E3E7C04625
:1009B000001BB70000C0024000E0004000C0004043
:1009C00000F000408322274B920010B5DA6200222B
:1009D000AA21254B09019A67244A254811602F2135
:1009E000D1602449086051680029FCDA0121224ABB
:1009F00011605A6C012AFCD10321204A11609C6BC2
:100A0000012CFCD106221E491E48FFF791FF05224A
:100A10001D491E48FFF78CFF1D4B02211A000420C0
:100A2000FFF724FF1B4B21001A000520FFF71EFFD4
:100A3000194B00211A000720FFF718FF164B002161
:100A40001A000820FFF712FF144B134A0021092057
:100A5000FFF70CFF0F4B00211A000620FFF706FFDF
:100A600010BDC046008005400080004000400240AC
:100A700000B0FA00006002403CB0004030B00040DE
:100A8000002F68590080024000389C1C00C00240C2
:100A9000001BB70040597307006CDC021BB7000055
:100AA00010B5002903D101240A4A0B4BD4500B4A3C
:100AB000CB009B188022DC6F12012243DA670122EF
:100AC0000231890041184B685B695A7500229A759A
:100AD00010BDC046000011506820000004001050F6
:100AE00010B5002903D102240A4A0B4BD4500B4AFB
:100AF000CB009B188022DC6F12012243DA670122AF
:100B00000231890041184B689B69DA7400221A751A
:100B100010BDC046000011506820000008001050B1
:100B2000F0B5002930D11D4BDD6C8B1C9B00C0182B
:100B3000406801228469267DA27433005F1EBB4198
:100B4000724022752668408A5F03B04200D93000A7
:100B50008023DB000343124A9BB23B43134062688D
:100B60008018864202D88022D20113430D4A1540D4
:100B700080229205154300290BD1084AD5640A4A00
:100B8000C90089184B60F0BD084ACB009B185D680E
:100B9000CBE70648CA0012185560F0E70000115074
:100BA000FF7FFFFFFFFFFFAF8000105000001050DD
:100BB0007F220138C31713401B18DB110133DB01FF
:100BC00002329BB2FF3210B593420ED0FF24802236
:100BD0000749D200240259181000214204D0181CE1
:100BE000934200D9101C80B210BD80208000FBE72A
:100BF00080FDFFFFF0B58B1C9B00C3185F6885B0BC
:100C000000900C1E7E69BD6910D14023414AB38318
:100C1000B261B182B175698229758021AA61AB8305
:100C20003D4A3E4B8905D15005B0F0BD002E38D06D
:100C30003B4BCA00D31803933A4BD2180023D36717
:100C4000B3753A68B3820192012A5FD1388AFFF7FF
:100C5000AFFF802202239200904208D0802201330D
:100C6000D200904203D0431EFF3B5A425341DB0661
:100C70000293009AE23294466346118842008A1831
:100C80001A80294BB083CA18019B8131B261FF31B0
:100C90009A060A43802109060A430399029B04C16C
:100CA000CB67002DC0D01E4BE400E6181F4B402040
:100CB000E4180023E3672B753C686B82012C11D18B
:100CC000388AFFF775FF802202239200904208D0F5
:100CD00080220133D200904203D0431EFF3B5A4290
:100CE0005341DB06009AA406E232118847181780A8
:100CF0000D4AA8838A18AA6180228131FF310C43F2
:100D00001206144374600836F3678DE7029340209F
:100D1000AFE7C04600011050000011504C20000009
:100D200000001050040010508001105008001050B6
:100D300010B50E4C0E4B20000021E360FFF75AFF68
:100D400000230C4AE2341360012223800A49D000B8
:100D50000A4C4018D1000C198360E367C36008484F
:100D600001320918CB670F2AF0D110BD740600209C
:100D70005480001000001150F8FF0F500400105074
:100D800008001050034B1A6882431A609A68104298
:100D9000FCD0704700C00040BFF35F8FD023BE225D
:100DA0001B0652009B5062B6704772B6D021BE221D
:100DB000090652008B58002BFCD0BFF35F8F7047A1
:100DC00070B50E0001210C00B4400500408920439D
:100DD0006881B01C8000281840688469A2600022E5
:100DE00023606260E260934205D0418A013B58185B
:100DF000FFF74CFB81B2218228003100FFF790FE03
:100E000070BD00000300020010B5D6331B78DE323F
:100E100013707F221340064A0400136043681B6866
:100E2000002B01D0012198470323237010BDC04639
:100E300000001150036910B51960C268013AC26020
:100E4000C2699B1882690361934201D3436A0361BB
:100E500000238362036B002B00D0984710BD4369C9
:100E600002699A4203D1C2680020824202D118006E
:100E700008C80B607047C368C269013BC36043691F
:100E800010B59B1882694361934201D3436A436161
:100E900000238362036B002B00D0984710BD000035
:100EA00010B5FFF782FFEFF30983203B83F3098836
:100EB00080225204DA61D02212061168064A8900A3
:100EC000521852681168D26888689168034A88424B
:100ED00000D9034A9A6110BD740B0020DA02001099
:100EE000D7020010FEE700238268037503691B68C0
:100EF00099689142FBD25A68036042601060586062
:100F0000704710B50C00FFF750FF207D052807D86B
:100F1000FFF77CFB0C060603130F0022A3691A607F
:100F200001235B42A3612000FFF7DDFFFFF734FFE1
:100F300010BDA269936801339360626823681360EF
:100F40005A60EDE7D0231B061968084A8900521839
:100F50005268016910B5914205D01A6D920702D509
:100F6000012252425A65FFF7BEFF10BD740B0020EC
:100F700070B5022504006D422068844200D170BD26
:100F8000036823605C608561FFF7DCFFF4E770B500
:100F900005000E000468AC4200D170BDE368334325
:100FA000E360236933420AD06068A368C2691343CF
:100FB000027DC3610A2A04D182691A4207D12468DA
:100FC000E9E70B2AFBD1826913409A42F7D100234B
:100FD0008361FFF7B7FFF2E7036810B5002B05D078
:100FE0000022026099611800FFF7ACFF10BD0000FD
:100FF000D0231B061A68094B92009B185968036896
:1010000010B59A68846812199A60426813605A6031
:1010100000230360013B8B6110BDC046740B0020B0
:1010200010B503689C68A2420CD85C688A600B60AB
:101030004C602160596099688A1A9A6001235B426A
:10104000836010BD121B1B68ECE7000070B50D4CEF
:10105000050023680E00002B02D02000FFF7C8FF18
:10106000D0231B061A68084B92009B185868074B40
:101070002A00E36000231030210026616361FFF73E
:10108000CFFF70BD200D0020740B0020512B0010ED
:1010900070477047C26F70B5146803002178012053
:1010A000042919D1197A022916D1050051796289CA
:1010B0008D40154210D1DA691D6AAA4202D19D699C
:1010C000002D09D104320120002A05D09B6A20009E
:1010D000043BFFF775FE002070BD2131890010B57B
:1010E0000C58002C2CD0FFF760FE0421201DFFF7C8
:1010F0004EFF2100E36F0C311A685B7902339B00CD
:10110000D3185B689B695A68E3691A60A269013267
:10111000A261A26A9B18626AE361934201D3236BC6
:10112000E361E068814206D00368E3605960002310
:101130008361FFF707FF2000FFF7ACFFFFF72CFEEE
:1011400010BD10B5406BFFF7A5FF10BD37B56B465E
:10115000D91D0023074C087022789A4200D13233FF
:1011600005480268D5690122A8474342434140B27D
:1011700023703EBD4813002058030020704770477D
:1011800070470000014B18787047C046380D0020AA
:1011900070B50500D4352A787F21130004000B4078
:1011A000212B00D08FE013008B432FD0802B00D059
:1011B00089E00300D533187802281ED0032810D008
:1011C000012800D07FE003331B78002B00D069E0BA
:1011D00022005E49C832116020215160D034236062
:1011E00070BD2300D8331B88002B6CD12200012056
:1011F0005749C83211605060F0E723000120554A7A
:10120000C8331A605860D0340023E8E70300D533B0
:101210001B780A2B4DD00B2B13D0092B53D1030075
:10122000D8331B78002B01D0022B4CD123004A4A23
:10123000C8331A6002225A60484BD0342360012020
:10124000CEE70300D8331B88002B2BD10300D63305
:101250001D7843482A00531E9A41D3B23C4A13706A
:101260000278DB010A4013430370002D1AD1394E76
:101270003378002B16D0FFF798FD3A4A00233078D8
:101280002900FFF78FF90023374A80185941FA22C5
:1012900000239200FFF7CEF921008000FFF7D6FE71
:1012A000FFF77AFD22000023C83213605360D03468
:1012B000C4E703002A4AD7331B78264E15783370CB
:1012C000ED09EFD1D5E7294B298899420BD0284B5E
:1012D0001900C2310978002921D126495B5C002B15
:1012E0001DD100207CE72300D9331A78013B1B78FD
:1012F00012021343210022006068D632D7314568BC
:10130000127809782000A8470028EAD02300426814
:10131000C8331A6002685A60D03400238EE7602315
:101320001A40202ADDD12300D5331B780020202B42
:1013300000D255E7212B02D9222BB3D050E723004E
:101340000D4AC8331A600722E5E7C046390D002070
:101350003C0500201C0D0020EC1200207D13001025
:101360005A0D002010270000E7030000810600004E
:1013700078020020220200003D050020DA30084AF1
:1013800001781378022907D1012B01D0062B02D155
:101390005278044B1A707047024A1370FBE7C0463C
:1013A000EC120020380D00200F2230B507490C78D0
:1013B000631C1340064A157800229D4203D0054A5B
:1013C0000B7010550122100030BDC046240C0020C7
:1013D000250C0020140C002009020A4311B2120A45
:1013E000032A12D006D8012A25D0022A26D00023AB
:1013F000180019E0212A11D0222AF8D1032BF6D89F
:10140000104A99008858104A06E0CBB2032BEED858
:101410000E4A990088580E4AD35C05E0032BE6D8A3
:101420000C4A9B00985809230B4A5060136000280F
:1014300000D01000704712230848F5E77B230848C6
:10144000F2E7C046F07C0010007D0010987C001090
:10145000A87C0010E07C0010C40B0020A17D0010CF
:10146000047D00101423188804331B88034910B529
:1014700098470021030008009847C04655420000E5
:1014800070B5FFF792FCD0231B061A68154B92002B
:101490009B185B6814481549DC690D680368144A99
:1014A000E41AA54209D9E4256D016419114D5B19AF
:1014B0000360136810481B18136015680C60FFF771
:1014C0006BFCFA220023920020000021FFF76AF84B
:1014D00000230A4A80185941094A0023FFF7AAF855
:1014E000281870BD740B002044130020880D0020C4
:1014F000C012002080E3FFFFC09699190F2700005B
:1015000010270000064B10B51A88824206D01880BA
:10151000044B1B68002B01D01B69984710BDC046C7
:101520005C0D0020CC0B0020064B10B51A888242BF
:1015300006D01880044B1B68002B01D0DB6898474D
:1015400010BDC046800D0020CC0B0020034B10B511
:101550001B68181E01D01B68984710BDCC0B0020DB
:10156000F0B50E4C0E4B21781A7803260B000D4D6A
:101570009A420FD05F007F5B87420CD10C2242431E
:1015800009488018012282718B4203D19B180232D4
:1015900013402370F0BD01333340E9E78C0B00208A
:1015A0008D0B0020840B0020C40C00200022074B70
:1015B0001A800423064AD179002901D19171117250
:1015C000013B9BB20C32002BF5D170478E0D0020F1
:1015D000C40C0020024B1A88024B1A807047C04688
:1015E000500600205A020020014B188B7047C0465D
:1015F00050060020B823DB01984205D1034B1B683D
:101600005A1E93415B4218407047C0464C0500206B
:1016100010B55200054C1218091A035BDB430B523C
:1016200002309042F9D1012010BDC04600E01F10E9
:1016300010B5EFF3108372B6044C236006F0A0FAE5
:10164000236883F31088012010BDC0462C0C0020B5
:10165000044A054B0220D15C002902D00021013848
:10166000D1547047A813002004100000044A054B11
:101670000220D15C002901D10138D0547047C04606
:10168000A813002004100000F0B58FB0FFF7EEFFA4
:101690000B90EFF3108372B68022FF20324E334F4F
:1016A0001201310040033B6006F062FA3B6883F3AD
:1016B000108880200021B4462D4A2E4B40016646FA
:1016C000775C1D0057403B02099300233C000893C0
:1016D0003A002B0012196B413F0F2E013E43019639
:1016E00026010096009E019F92197B4112196B41C1
:1016F000E70E6E013E43039666010296029E039F2B
:1017000092197B41670EEE013E430596E601049671
:10171000049E059F92197B41270E2E023E43079699
:1017200026020696069E079F92197B41089E099FF6
:10173000013192197B418142C1D10C920D93EFF39B
:10174000108372B6094C04220CA90B48236006F0E2
:101750000FFA236883F310880B9B012B01D1FFF74D
:1017600077FF02200FB0F0BDA81300202C0C002042
:1017700025232284E49CF2CB00F01F0070B5802466
:10178000084D6401084B2A5901209A4209D9FFF7F4
:101790004FFF03000020834203D0FFF775FF034B88
:1017A0002B5170BDA8130020FF1F0000081000007F
:1017B00073B580246A460C4D6401911D2B59088035
:1017C000EFF3108272B6094E3260FF22520398186E
:1017D000012206F0CDF9336883F310882B590233C8
:1017E0002B51FFF7CBFF76BDA81300202C0C002057
:1017F00010B5024B1B68984710BDC0463805002045
:101800000300DA680800511C10B5D96019698A42D2
:1018100004D21C68002C02D05968A04710BD9B68F8
:101820009854FBE7F7B51F00C36804000093089BBA
:10183000019115009B070DD0002D0DD1089B9B0732
:1018400015D4F7BD20212000FFF7DAFF0136BE4294
:10185000F8D3F1E71600FAE7019B013D595D20003E
:10186000FFF7CEFFE8E720212000FFF7C9FFE3687C
:10187000009A9B1ABB42F6D3E3E70000F0B58FB0A5
:10188000049003921D00169C002923D123051DD42A
:10189000302206AB1A70102301319C430A00A307C3
:1018A00044D40123159A2340002A0BD00A00002BB0
:1018B0003CD0039A002A02D10C32144202D0159A6D
:1018C000013A15920A0006A8302628E0102DE5D12D
:1018D000AC43E3E76123A20600D541230F000026B5
:1018E000DBB20A3B059329003800FEF755FE059B45
:1018F000CAB2D3188446DBB2092902D813003033A8
:10190000DBB2082004AA1218711C9355BD42C5D839
:101910000E002029C2D06746E5E716540132002B9D
:1019200004D0159F974201D9202AF6D106A830236A
:1019300001E083540132149E964201D9202AF8D145
:10194000082D03D1914201D210239C43274B1C4206
:1019500025D0230537D4002A35D0149B934202D0DA
:10196000159B93422FD191423CD2013A002A2AD0B2
:10197000102D25D0022D0DD18A4223D801E0022D51
:1019800008D11F2A26D8622302E058231F2A21D813
:10199000835401321F2A1DD83023835401321F2A59
:1019A00018D8039B002B03D02D238354013211E060
:1019B000630701D52B23F8E723070BD52023F4E792
:1019C000914202D2013A102DD9D1A306DDD4782359
:1019D0001F2ADDD901000094159B0498FFF722FF10
:1019E0000FB0F0BD102DC5D1EFE7C04610200000AC
:1019F000F0B5070015008BB00591059B19780029FB
:101A000011D13B68002B0BD13A69002A08D0B96884
:101A1000002905D0FB689A4200D8531E0022CA5400
:101A2000F8680BB0F0BD059B002001330593252914
:101A300000D0DBE008242439059B059A1B7801328D
:101A40002B2B16D00BD8202B15D0232B15D01900FB
:101A50003039092933D800230A24049315E02D2BAB
:101A600004D0302BF3D108430592E5E70223184355
:101A7000FAE70423FBE72043F6E71023F7E7049B8C
:101A800005916343303BD3180493059B1A78591C86
:101A90001300303B092BF2D9059B1B782E2B4ED11E
:101AA000802212011043059A059B527801331100E0
:101AB0003039092939D80A220026944613E000213A
:101AC00004912A2BE8D108CD04938B4204DA022337
:101AD0001843049B5B4204930592DDE763465E4333
:101AE0002300303E96191A785C1C11003039092900
:101AF000F4D919785A1C6C292BD023D8682930D0F6
:101B00006A2936D01A001178531C0593692937D0F9
:101B100063D8622900D126E12ED8252966D058291C
:101B200064D120231843103B3AE000262A2AE0D152
:101B300040CDF343DB171E40059B0233D9E7059BDD
:101B40000026D6E7742901D07A29DBD180239B00B7
:101B50000BE059786C29F9D1C022D20010439A1CAD
:101B6000D1E75978682902D080231843CBE7C022F7
:101B7000F4E78023DB00F8E7632969D0642935D1D5
:101B80008023DB011843782938D05829C9D06F2920
:101B900000D1E6E0622900D1E5E010239843063B3E
:101BA000020501D5012290438022D2000240410467
:101BB0002ED5002A00D020E72C1D296882051FD5CC
:101BC000CD1702900498CA0F4919694001900096F8
:101BD0003800FFF753FE25000FE7732959D009D8C5
:101BE0006F2900D1BDE0702900D1A3E03800FFF7D4
:101BF00007FE02E77529D0D07829F7D11023CFE767
:101C0000420601D549B2DBE70206D9D509B2D7E7CA
:101C1000002A00D0F1E60C2104008C43A4462C1DC0
:101C2000810506D5614602910499009601912968C3
:101C3000CEE72968420607D5C9B262460292049AE5
:101C4000009601920022C3E70206F6D589B2F4E7B6
:101C50000224012604400AD1012304E02021380097
:101C6000FFF7CEFD3300049A5E1C9A42F6D802CDEF
:101C70003800C9B2FFF7C4FD002C00D1BDE6049BBB
:101C8000B34200D8B9E620213800FFF7B9FD01368C
:101C9000F5E72B0004CB06920793002A08D10090A9
:101CA000049B062231493800FFF7BCFD079DA4E6DE
:101CB000331E00D12E4B069A1500D3182A78002A1D
:101CC00001D0AB4214D1069BED1A80231B010340C7
:101CD000089302D0B54200D935000223034009938E
:101CE00004D1049B6C1CAB4204D82500069C0BE07D
:101CF0000135E3E720213800FFF782FD2500F0E7FA
:101D000038000134FFF77CFD2178002906D0089BBC
:101D1000002BF5D0069B9B199C42F1D1099B002B0F
:101D2000C4D0049BAB42C1D920213800FFF768FD25
:101D30000135F6E70F4C02CD0443002907D100948A
:101D40000A2305220C493800FFF76CFD55E60A23EB
:101D5000029401930096063300223800FFF78EFDAF
:101D60004BE608231CE702231AE7C046717F0010E8
:101D7000FFFFFF7F01200000787F001010B50400F6
:101D8000FFF713F80123D022A34012069362064AFC
:101D9000E3009B1805225A60044BA400E4184A2370
:101DA0006360FEF7F9FF10BD0040014000C0014034
:101DB0000020704730B5042427490A78224205D014
:101DC00018230340082B27D198432043130708D535
:101DD0001824050014232540A54225D1A843C0B2EC
:101DE000184301244978214206D018230340082BC8
:101DF00021D19843C0B220438B0708D51821040095
:101E000011230C408C421FD1A043C0B21843D3060B
:101E100001D5E723184030BD14230340042BD5D14E
:101E2000984304331843D1E70340142BD9D1984386
:101E3000C0B22043D5E711230340012BDCD19843E6
:101E4000C0B207331843D7E70340112BDFD19843C3
:101E5000C0B20843DBE7C0465A0D002070B504004D
:101E6000822829D032D8312800D188E020D82928EA
:101E700000D17AE02A2800D187E0924B9C4200D919
:101E8000A0E0FF3B9C4200D3EDE0E72C00D98BE0C3
:101E9000E02C59D2A72C00D97DE0A52C00D3C9E0B5
:101EA000012C51D023B2002B38D0042C36D34BE078
:101EB000352855D03928E0D1834B1A78920700D0C5
:101EC000F9E05B781B07D8D529243DE0E32827D02B
:101ED0000BD8E02816D0E228CFD17B4B1B785A07CD
:101EE00032D5E324DB0619D42EE0E62828D0E728F3
:101EF0002CD0E428C1D1744B5A78920724D51B7892
:101F0000E724EFE770480121027813000B4034D139
:101F10004078084218D0E324D20615D5002413E0F7
:101F2000694A1378590700D5C3E05278D20700D523
:101F3000C1E0102213405A4253415B421C4003E06F
:101F4000614B1B781A07DBD4201C70BD5E4A1378E6
:101F5000190700D5B1E052789207EAD5E424F3E7F7
:101F6000594B1B789B06EFD5AEE7574B1A78920674
:101F700000D5A4E05B781B07E6D53924E4E7524B93
:101F80001B785B06E0D52A24DEE74F4B1B785B0607
:101F9000DAD53124D8E7BE2CC0D85834E4B24B4B44
:101FA0006400E05A88244AE0494B9C424FD8802381
:101FB000DB019C4246D2631EFF3B464A9BB29342E2
:101FC000C2D9ABE7444B9C4212D8FF3BE0B29C42E3
:101FD0005BD2424B9C4255D8FF3B9C4247D30324E3
:101FE00083082040023C84405B0123433C4C46E094
:101FF0003C4B9C420AD8FF3B9C424FD2013BFF3BEB
:102000009C4200D28AE72002374C2AE0374B384AFC
:10201000E3189BB2934200D980E7E004C00EFFF7BB
:10202000C9FEF82300025B011840E4B2044380209B
:10203000800105E05B342F4BE4B2185D8024E4019D
:10204000044381E72C480440A0200002F8E7032362
:10205000E0B284081C401840023B834064012748DA
:102060001C4304430CE0E4B224022548E8E70324BF
:1020700083082040023C84405B012343214C1C43E5
:10208000A4B261E70002204CDAE7FFF793FEF824E0
:102090000002640120400134FF34D1E70F25200005
:1020A0002840FFF787FE24092C40240204431748E8
:1020B000D7E7E22448E7E02446E7E62444E735246E
:1020C00042E7C046FF5100005A0D0020B07C0010CE
:1020D000FF4F0000FF1E0000FF550000FF530000EF
:1020E000008AFFFFFF590000F0A0FFFF00A0FFFFE4
:1020F000FF1F0000AC7C0010FF0F0000008DFFFFF1
:10210000F1A00000008CFFFFF4A000000090FFFF92
:10211000044A1378002B03D000231370024A138063
:102120007047C046C9120020CA120020074B70B584
:102130005B7805005B0708D5054C2378834204D003
:10214000FFF79EF9034B2570188070BD5A0D0020D3
:10215000C9120020CA120020024A13788343137068
:102160007047C046A6130020024A137883431370B9
:102170007047C046E0120020024B1A7810431870D6
:102180007047C046E012002070B50024074D6B88F0
:10219000A34208D0FFF774F9054B1B88C01A6B885F
:1021A00080B298426441200070BDC04650060020B5
:1021B000CA12002010B5114B1B78002B10D0104B09
:1021C0001B787F2B0CD9C2081D2A08D80D4B012182
:1021D0009B180722104081409A788A439A7010BD5C
:1021E00006230021074A9478844200D19170013B74
:1021F000DBB20132002BF6D1F1E7C0463C050020EE
:102200005A0D00205807002070B5154B1B78002B85
:1022100011D0144B1B787F2B0CD9C3081D2B08D869
:10222000114AD21807231840063B834091780B438C
:10223000937070BD002301220B495242CC18A47840
:102240005DB2A042F5D0561C02D1002C00D12A006C
:102250000133062BF2D1531CEBD08A189070E8E7BB
:102260003C0500205A0D002058070020F7B50E4C01
:102270000E4B24781B7801940D4C019DAB4201D18B
:102280000020FEBD0A265E43A5196F788F4205D156
:10229000365D864202D1AD78954203D107250133E0
:1022A0002B40EAE70120ECE7A4130020A51300204F
:1022B000541300200721054B054A1B7812789A42D7
:1022C00000D1704701330B40F9E7C046A513002049
:1022D000A413002037B5020401A90880120E0020C3
:1022E000092A18D80978092915D80A2353435B18F5
:1022F00007210322040001251940DB089BB2534348
:10230000054AD3181A5DCA402A40A240013410433E
:10231000C0B2032CF6D13EBD1013002073B50204E9
:1023200001AC2080120E092A1ED8207809281BD85B
:102330000A2353431B1803200125DA0892B25043A5
:102340000A4A2E001018072213409E400022F6B2BF
:102350000B00D340845C2B405B42634033406340BE
:1023600083540132032AF3D173BDC04610130020F9
:10237000C3B20004020F10B500200B2A08D80121B7
:102380000C00944022000C4C224202D152060BD485
:1023900010BDF02B0DD003D8E7229A424041F7E759
:1023A000F43B58425841F3E70800E72BF0D9F13BE2
:1023B000F7E70800ECE7C0460C0C000033220301ED
:1023C00000091843C0B283008010104093430343B8
:1023D000DBB2223258005B10904313401843C0B266
:1023E00070470000411E174BFF39020010B5002056
:1023F000994218D88023802180245B0089001340F3
:102400001140E400581E8341D0040DD51801002965
:1024100001D020231843224201D040231843130542
:1024200001D58023184310BDD8B2002901D0022362
:102430001843224201D0042318431305F3D508237F
:10244000F0E7C046FF1E0000D022802110B5114BDE
:1024500012061B780901002B11D01C070FD59161C2
:102460005B070FD5D02380221B0692019A61D023EF
:1024700080221B06520581070AD59A6110BD516161
:10248000002BEDD1D02380221B0692015A61EEE78A
:102490005A61F3E78C0D002080201E4A4004136827
:1024A00010B503431360FEF76DFC80221A4CD20175
:1024B00000212000FDF76EFF802200215201174805
:1024C000FDF768FF092363670333A367FEF730FC5A
:1024D0000123236480239B05E3642300104A903387
:1024E0001A608022C120196892020A431A600D4BBB
:1024F00080001A580C491140C02212020A43C02120
:102500001A50202249005A501A608022074B52026A
:10251000E25010BD00C000400000115000001050FB
:1025200010D0010000E100E0FF00FFFF4C200000A0
:102530008B1C9B0070B5C318050050690E00140079
:102540005A60002803D020220021FDF723FFA06954
:10255000002803D020220021FDF71CFF31002800B5
:10256000FEF748FB70BD0000F8B50600052925D828
:102570000800FEF74BF8C02324C0C003FEF715FC8B
:1025800001217348FEF703FD724C00252300F4334C
:102590001D7096235B00E554FEF7FEFBFEF705FC7D
:1025A0006D480121FEF7F3FC95239B00E554383379
:1025B000E554FEF7F1FB0520FEF7F6FEF8BDFEF749
:1025C000F4FB664A01213000FFF7B2FF644A0421A0
:1025D0003000FFF7ADFF5F4C624A2300C03319782B
:1025E0003000FFF7A5FF2300C13319785E4A3000A1
:1025F000FFF79EFF2300C2331978002903D05B4AFE
:102600003000FFF795FF230025000027FC35F83345
:102610001F606B6956486B602B60AF61EF61FEF71E
:10262000A7FC2300F4331F70AB6C52486B63EB6C58
:102630002F65EB63AB636F65FEF79AFC96235B0037
:10264000E75401214248FEF7A2FC4B48FEF722FD69
:1026500088239B00E15C494A3000FFF769FF484B43
:10266000484AE15C3000FFF763FF474BE15CB94249
:1026700003D0464A3000FFF75BFF962300259822DF
:102680009B00E5501833E3589200A350043AA3503E
:102690009D239B00E5500433E5503D48FEF768FC60
:1026A00095239B00E5545033E258143BE250A62298
:1026B0001833E3589200A350043AA350AB239B0075
:1026C000E5500433E5503348FEF752FCA3239B004A
:1026D000E55401212048FEF75AFC2F48FEF7DAFCAA
:1026E000FEF75AFB2D4B1B78AB4202D00520FEF7BC
:1026F0005BFE022060E7FEF757FEFEF756FB022165
:102700001348FEF744FC134C01252300F4331D70DD
:102710001748FEF72DFC96235B00E5541548FEF79D
:1027200027FCFEF739FBFEF740FB02210A48FEF7C3
:102730002EFC95239B00E5541548FEF719FCA323B6
:102740009B00E5541348FEF713FCFEF725FB35E725
:102750005C03002078020020BC040020748000107C
:102760007C8B0010E0020020FC02002018030020F7
:10277000640300209C030020580300204004002034
:10278000210200005C0400202202000078040020E6
:10279000C4040020FC040020B80400207F0D0020A9
:1027A00010B5074B02301B78002B04D0054B1E22BE
:1027B0001B787F2B00D806220021FDF7EBFD10BD12
:1027C0003C0500205A0D002070B58024044D6401A2
:1027D000280022000021FDF7DDFD024B2B5170BDCA
:1027E000A81300200810000070B5FEF73FFF04009A
:1027F000051E03D1FEF72CFF200070BDFEF718FF69
:102800000400FFF7E1FF012DF6D1FEF721FF431E83
:1028100098410440F0E7F7B5170001220231890022
:1028200041184B685C692275216822691B8A8D1AE0
:102830009D4200D91D000023180052198A425841B8
:10284000226182030092A17DAEB20800421E904137
:102850004203019201224A40A275A0699F4200D022
:10286000A38BC0182A00A168FDF740FD8420A3684F
:1028700000025D19009B30431843019BA560034390
:102880001800002F00D01804FEBD00008B1C9B0018
:10289000C3185B68F7B506000C1E5F6924D11A4B9C
:1028A000DB6C0022210030000193FFF7B4FF3A688F
:1028B0003B6905009A4205D0012221003000FFF754
:1028C000AAFF05436B0113D5104A019B13401A0060
:1028D000A023DB051343002C11D10B4AD3640C4B0E
:1028E0001034E4001D51F7BD094ACB00D358D8E796
:1028F000084A019B13401A0080239B05EAE704491C
:10290000E2008B50EBE7C04600001150FFFFFFDFF5
:1029100000001050FFFFFFAF70B501258D40048906
:102920002C4304818C1CA40004196468646923602E
:102930000023A2606360E3602361FFF7A7FF70BD1F
:1029400070B50600C43632780400152A16D8012363
:1029500093401A4A134220D180256D031D400ED1A9
:102960009B020BD50B233370FEF71FFA2B002A00B6
:1029700029002000FFF7D0FFFEF70EFA70BDC368F4
:102980009B695B68002BF9D10300D0331B68002BD7
:1029900000D0984700233370F0E70021FEF780F85D
:1029A00000212000FEF79CF863681B68002B02D012
:1029B0000621200098470623EDE7C046410E00009F
:1029C00070B50500C43504002878152835D8FDF702
:1029D0001DFE3E34343434343E34340B2835343424
:1029E0003434343434343E3E2300CC33DA7B18683C
:1029F0000E331B7812021343984212D2E368198AED
:102A0000FDF7CAFD0E1E0CD1FEF7CFF933003200E0
:102A100031002000FFF780FFFEF7BEF90A232B707C
:102A20000BE014232B70FEF7C0F9002320001A00DE
:102A30001900FEF7C5F9FEF7AFF970BD2300D033DA
:102A40001B68002B01D0200098470023E7E70021F6
:102A50002000FEF725F800212000FEF741F863680A
:102A60001B68002B02D00621200098470623D6E7DA
:102A70000B00F0B511339B00C3185C6885B00500EE
:102A80000E00002C43D0FEF790F9201D0821FEF720
:102A90007EFA2300B7004433EF190193FB685B69AA
:102AA0001B68002B17D0236D226E01332365A36DA5
:102AB0009B18E26DA365934201D3A36EA365606C7E
:102AC000019B834207D00368019A63645A60002324
:102AD0008361FEF737FA03A90198FEF7C0F9039B5B
:102AE000021E0ED1FB685A691268002A0DD01B8A9B
:102AF000013B1A4209D1E36F1B7E002B05D12A004E
:102B0000D43231002800FFF707FFFEF745F905B082
:102B1000F0BD13B5446BE36F1A681178042915D121
:102B2000217A022912D1197901238B4012891A4284
:102B30000CD1200001A94430FEF791F9021E05D006
:102B4000E46F019B21792068FFF7E6FE13BD0000CA
:102B500070B50C00FEF729F92378042B02D0FEF79C
:102B60001BF970BD144B1B78DB09F8D1134D2B7882
:102B7000002BF4D0124B1B78002BF0D023899B073D
:102B800005D408230F4A01212000FFF7C5FE28784D
:102B90000D4A00230021FDF705FD00230B4A801894
:102BA0005941FA2200239200FDF744FD21008000E4
:102BB000FEF74CFAD3E7C0465A0D00201C0D00204A
:102BC0003C050020390D002010270000E70300001D
:102BD000F7B50025FEF7E9F8294C626F13681978FC
:102BE000042944D12178022941D112790139914037
:102BF0001B890B423BD1E36C226D934237D1B0214C
:102C0000490069431F4A5218FC32516B00292ED0EB
:102C1000616E00292BD00439C91A28D01960516B74
:102C200001395163A26D9B18626DE364934201D335
:102C3000236EE36400272000676601A93C30FEF79D
:102C40000EF9636F06001A7EBA4209D001981A691C
:102C50003900121A3018FDF79DFB636F1B69019351
:102C6000606F019B017932000068FFF755FE613407
:102C7000FF34012D02D1FEF78FF8F7BD0125ACE737
:102C80006003002078020020F7B50500C4352B78DA
:102C90000400002B01D000232B702600D43608221C
:102CA000C0493000FDF722FB63689B68002B15D1FB
:102CB00032786026164039D000212000FDF7F0FE62
:102CC00000212000FDF70CFF63681B68002B02D079
:102CD00006212000984706232B70F7BD2000984757
:102CE0000028E5D023002600DB331A78013B1B784F
:102CF0001202CC36134332689A4200D93360230063
:102D0000D4331B7837687F2B00D886E1002F00D1A1
:102D100076E109232B70FEF748F822000021C83223
:102D2000336812682000FFF7F7FD73E123007F216D
:102D3000D5331B780A401B0213439B4A934200D1B0
:102D400048E12DD8022B00D1E5E00BD8002B4CD068
:102D5000012BB1D1954A2300C8331A6002225A6070
:102D600000222DE081225200934200D1F7E0FF3291
:102D7000FF32934242D08022520093429CD12300E2
:102D8000D6331B78012B97D122000221DC32138825
:102D90008B4313802300C8331E605E609E60A1E7F2
:102DA000834A93420ED8013A934233D2013AFF3A12
:102DB000934200D080E723007E4AC8331E605E60E5
:102DC0009A608FE79022120193423FD07A4A934251
:102DD000C0D080221201934200D06DE72300220070
:102DE000C833DF321A6001222EE022002100C832EF
:102DF000DC31116002215160936073E72300D63308
:102E00001B78012B00D057E72200DC3211880133F8
:102E10000B43BEE723002200D9331B78D832127847
:102E20001B021343210022006068D632D731476865
:102E3000127809782000B847002800D13CE7230029
:102E40004268C8331A6002685A60A7E72378042BE7
:102E50004AD1FDF7AAFFA268584B02271340A3608E
:102E60002300103300931E003C3301937F423368EC
:102E7000002B0ED05869002803D00C303900FEF723
:102E8000ABF833689869002803D00C303900FEF79E
:102E9000A3F80023019A08C6B242E8D118001E1C0C
:102EA00000999A008F583F497A6990759082DA00AC
:102EB000521891680133490049089160B9690E754B
:102EC0004882D16849004908D1600F2BE8D1FDF74D
:102ED00063FF23000321DF331E70636821701B68CA
:102EE000002B01D0200098472300D6331B78002BFD
:102EF0000BD02200DF3213700423237063681B6839
:102F0000002B02D002212000984722000023C83263
:102F10001360536070E72300D8331A780F231340EF
:102F200002339B00E31852B25B68002A0EDA5B6939
:102F3000002B00D1C0E61A7D002A05D15B7D204A16
:102F4000002B00D1B8E606E71E4A04E79B69002B78
:102F500000D1B1E69A7C002AF6D1DB7CEFE72300B2
:102F6000D6331978002900D0A6E69E780F23334087
:102F7000CBD09A1C9200A218506872B2DB00124E9D
:102F8000002A07DA114A9B18DA6F3240DA67436980
:102F90005975BAE70E4A9B18DA6F3240DA678369CF
:102FA000D974B2E70000105002030000D08B00106B
:102FB00001060000050E0010020C000001000100D7
:102FC000708000107E7F0010FFF7FFFF040010509C
:102FD000080010502300D6331B78002B00D06BE67E
:102FE00023000F21D8331B7819408ED05BB220000C
:102FF000002B02DAFDF754FD87E7FDF771FD84E74A
:1030000014232B70FDF7D1FE3B003A000021200075
:10301000FDF7D6FEFDF7C0FE5FE6002F08D01523B2
:103020002B70FDF7C2FE2200C83233681268EDE74C
:103030000B232B70FDF7B9FE3B003A00390071E617
:1030400013B50800032A25D90623144A11785278AB
:10305000CC070B40E40F234308240C4023431024E7
:103060000C40234320240C40234340240C40C90936
:10307000C90123430B43D107C90F92070902D20F9D
:103080000B435202134301A904220193FDF72EF9C9
:10309000002016BD01204042FBE7C0465A0D00202B
:1030A00010B543880C00934206D841681A002000EE
:1030B000FDF71CF9002010BD01204042FBE7000095
:1030C000030070B580249D18080064010021A5420A
:1030D00004D803495918FDF709F90121080070BD0A
:1030E000A8130020F0B5124D85B028220021280039
:1030F000FDF750F90F4C302200212000FDF74AF96E
:103100000D4E01AF25600A2239003000FFF7D8FFCD
:10311000280008223900FDF7E9F83B890A36A38028
:10312000064B0A350C349E42EBD105B0F0BDC046CB
:10313000F40C0020C40C00206E0300009603000075
:1031400013B56B46DC1D0023012221002370FFF71D
:10315000B7FF207816BD000070B50024094BE018B9
:10316000FFF7EEFF084BE0540134242CF6D1002485
:10317000064D2B69002B00D09847013414350C2CD8
:10318000F7D170BD4A03000050060020E48900100A
:10319000142370B5C8244B43444352009B181C1998
:1031A00020002A30FFF7CCFF000285B220002B3030
:1031B000FFF7C6FF284380B270BD00000E4B37B545
:1031C0001C68002301AD29809C4208D169782A78C7
:1031D0002300F02905D1F02A01D1084B1B881800E3
:1031E0003EBD0328FBD80929F9D8092AF7D8FFF7EB
:1031F000CFFF0300F3E7C04650130020260C002049
:10320000F0B50724012785B00F4B01AE30801A7846
:103210000E4B1B781A430092009BE5B223413B42C0
:1032200005D1013CF8D20025280005B0F0BD328858
:1032300003AB1A8003992800FFF7C0FFFEF70EFECC
:1032400080B20128EDD0EFE78C0D0020C10B0020EB
:103250001FB501AC20800198FFF7D2FF228803AB95
:103260001A800399FFF7AAFFFEF7F8FD04B010BD1E
:1032700013B5038802008488002001A90B808442D2
:103280000AD008499CB28C4206D01089002804D08C
:10329000FEF7E4FDFFF76CF816BD1800FFF7D8FF46
:1032A000F8E7C046FFFF000013B5030CDBB2009047
:1032B000002B0DD0002A0BD0FFF7A2FF0400010065
:1032C0000098FFF72BF800992000FFF777FF16BD55
:1032D0000098FEF7FFFF0400F5E710B50400008931
:1032E0000A00002806D1638820881B041843A1889F
:1032F000FFF7DAFF10BD70B5002026250402280074
:10330000FFF71EFF013520432A2DF7D170BD10B500
:103310002320FFF715FF672801D0002010BD2420CF
:10332000FFF70EFF9628F8D17138FFF709FF4038F4
:1033300043425841F2E710B50420FFF701FF0400B3
:103340002220FFF7FDFE0002204380B210BD0000E6
:10335000D0231B061A68084B92009B185B6810B5B7
:10336000D9680875186802681A60536001220275EE
:10337000D860FCF797FF10BD740B00200A00D02125
:1033800009060B6830B5040012489B00C3185B683F
:1033900087B0DD68531C18D00B6869469B00C018C5
:1033A0000D4B406803930023103005930495FDF7FF
:1033B00037FE2000FFF7CCFF009B002B02D06846B1
:1033C000FDF716FEA86907B030BD2000FFF7C0FF6B
:1033D000F8E7C046740B0020030F0010D0231B0633
:1033E0001A680A4B92009B185B6810B5DB680029CD
:1033F00008D0426818605A60136043600420FFF7E9
:10340000BDFF10BD01204042FBE7C046740B002009
:1034100070B504000D00E368002B07D0236900207D
:103420001A1DA262E2699B18E36208E0237A002B6E
:1034300006D129002000FFF7D1FF0028EBDA70BD8C
:1034400002204042FBE7F7B504000F000092019311
:103450000025FDF7AAFCA36A002B09D101992000E1
:10346000FFF7D6FF002803D0FDF796FC2800FEBD2D
:10347000A06AE36A009A1B1A561B9E4200D91E00DE
:10348000402E19D939004022FCF730FFA36A40379B
:103490004033A3624035A36AE26A934204D3E369EE
:1034A0002000191FFDF7C6FCFDF776FC009B9D422E
:1034B000DCD2FDF77AFCCEE739003200FCF716FFCC
:1034C000A36ABF199B19A362AD19E4E710B5443094
:1034D000FFF7B9FF10BD012310B544305B42FFF781
:1034E000B2FF10BD70B504000E001500FDF75DFCC5
:1034F000A36A002B09D129002000FFF789FF051ED0
:1035000003D0FDF749FC280070BDA36A1E70A36AB2
:10351000E26A0133A362934204D3E3692000191FD6
:10352000FDF788FCFDF738FC0025ECE710B54430CA
:10353000FFF7D8FF10BD012210B544305242FFF70B
:10354000D1FF10BD70B504000D00E368002B07D05B
:1035500062690020131D1268A3629B18E36208E0F1
:10356000237A002B06D129002000FFF737FF00281F
:10357000EBDA70BD02204042FBE7F7B504000F0014
:10358000009201930025FDF710FCA36A002B09D1DE
:1035900001992000FFF7D6FF002803D0FDF7FCFBC0
:1035A0002800FEBDA16AE36A009A5B1A561B9E4280
:1035B00000D91E00402E17D938004022FCF796FE95
:1035C000A36A40374033A3624035A36AE26A93425C
:1035D00002D32000FDF74FFCFDF7DEFB009B9D4270
:1035E000DED2FDF7E2FBD0E738003200FCF77EFECA
:1035F000A36ABF199B19A362AD19E6E710B50C3099
:10360000FFF7BBFF10BD012310B50C305B42FFF785
:10361000B4FF10BD70B504000D00FDF7C6FBA36A32
:10362000002B09D129002000FFF78CFF051E03D0D5
:10363000FDF7B2FB280070BDA36AE26A1D78013372
:10364000A3629342F4D32000FDF715FCF0E710B518
:103650000C30FFF7DFFF10BD012110B50C304942DF
:10366000FFF7D8FF10BD10B50400FDF79EFB210049
:103670000820FFF783FEFDF78FFB10BD70B5060035
:103680000D00FDF792FB144C2378042B02D0FDF7BC
:1036900083FB70BD2389DB0612D5D0221206116888
:1036A0000E4A89005218E36952685B69D2680C338C
:1036B0001A60642193610320FFF760FE431CE6D08B
:1036C000074A0323557004212D0A200016709570B7
:1036D000FFF722F9DBE7C04674060020740B0020D8
:1036E000E112002010B501000420FFF7C7FF10BD54
:1036F00010B501000320FFF7C1FF10BDD023012149
:103700001B061A68064B92009B1810B55B6849426D
:10371000DB68036098610320FFF730FE10BDC046F0
:10372000740B002070B50500FDF73FFB1A4C2378A1
:10373000042B1ED1194A238912787F2A1CD9184AD2
:103740001278002A18D0DB060BD420232A0004218B
:103750002000FFF7E1F8202229001248FCF7C6FDFF
:1037600007E0E36958690C30FFF7C8FF2378042BA2
:10377000EBD0FDF711FB70BD9B0703D408232A0093
:103780000121E5E7236958690C30FFF7B7FF23787B
:10379000042BEED1F2E7C046740600205A0D00203B
:1037A0003C050020390D00208023F0B5160089B0BB
:1037B0008218050001915B019A4203D90024200080
:1037C00009B0F0BD5D4F3200C71939000198FCF710
:1037D00035FE01240028F2D0320001993800FCF7B0
:1037E00085FDFDF743FF0590002802D1FDF730FF6E
:1037F000E4E7019B1A78012E33D9EB0731D4504B03
:103800009D422ED8019B5B781B021343012B28D8C5
:103810005A1E934120225B421340803B6A0A1343A5
:10382000FF220499DBB291430A001A4304920499DF
:103830006B08444ADBB21B020A401A436B460492EF
:10384000188AFDF7B5FF0400012867D1019B023EED
:10385000023502330193002ECBD1FDF78FFF040018
:1038600061E03F2D18D8FF210398402388430100D1
:103870002B43DBB21943334B12020B401343039328
:103880006B469889FDF794FF0400012846D1019BFF
:10389000013E01350133DDE70296052E01D90523EE
:1038A000029306AF06220021B81CFCF773FD072225
:1038B0002B0C1340029ABD70D20013433B702B0AAD
:1038C0007B7000230199DA19C95C0133D170029A27
:1038D0009A42F7D13888FDF76BFF040001281DD10B
:1038E0007888FDF765FF0400012817D1012E07D95C
:1038F000B888FDF75DFF040001280FD1032E07D81B
:10390000029A029B9446F61AED18019B6344A1E7C4
:10391000F888FDF74DFF04000128F1D0002C02D0FB
:10392000022C00D00024059B012B00D047E7FDF7B7
:103930008FFE002800D141E741E7C046A8130020D0
:10394000FF3F0000FF00FFFF73B56B469C1D002387
:103950000E000222210023800500FFF7B1FB23881F
:103960009E4205D00222210028002680FFF71CFF7E
:1039700073BD37B50025042201A904000195FFF7A6
:103980009FFB019BAB4205D0042201A920000195B9
:10399000FFF70AFF37BD37B50D000400FFF7D0FB76
:1039A000A84206D06B460122D91D20000D70FFF7FA
:1039B000FBFE37BD70B50024074BE5182800FFF764
:1039C000BFFB064BE15C814202D02800FFF7E3FF1A
:1039D0000134242CF0D170BD4A03000050060020B1
:1039E00010B54388934207D81A004068FCF77EFC64
:1039F000FFF7E0FF002010BD01204042FBE7000080
:103A000070B58025044C6D01200000210134FFF7C2
:103A1000C2FFAC42F8D170BD9603000070B51D0026
:103A2000032814D8092912D8092A10D81423C82425
:103A30004B43444352009B181C192000290A2A308A
:103A4000FFF7A9FF2000E9B22B30FFF7A4FF70BDFC
:103A500070B505002924E9B22000013CFFF79BFF67
:103A60002D0A252CF7D170BD10B56721041E00D199
:103A700098312320FFF78FFF9621002C00D1693168
:103A80002420FFF788FF4021002C00D1BF312520E2
:103A9000FFF781FF10BD10B50400C1B20420FFF78D
:103AA0007AFF210A2220FFF776FF10BDF0B589B01A
:103AB00003AD142200212800FCF76CFC0023674EA4
:103AC00000933468631C00D10FE1FDF76EF9012308
:103AD0006348E200D021A3401218052009064B627A
:103AE0001060604AA400A418402222608B61FDF798
:103AF00053F95D4B5F695D4B9F4200D8C6E05C495E
:103B00003800FCF7C3FC5B4B04009F4200D89BE0ED
:103B10000723594938001C40FCF7B8FC01380F282E
:103B200000D991E0FCF77CFD8800800078007000EF
:103B30006800600058005000480040003800300025
:103B40002800200018001000C046C046C046C046ED
:103B5000C046C046C046C046C046C046C046C04635
:103B6000C046C046C046C046C046C046C046C04625
:103B7000C046C046C046C046C046C046C046C04615
:103B8000C046C046C046C046C046C046C046C04605
:103B9000C046C046C046C046C046C046C046C046F5
:103BA000C046C046C046C046C046C046C046C046E5
:103BB000C046C046C046C046C046C046C046C046D5
:103BC000C046C046C046C046C046C046C046C046C5
:103BD000C046C046C046C046C046C046C046C046B5
:103BE000C046C046C046C046C046C046C046C046A5
:103BF000C046C046C046C046C046C046C046C04695
:103C0000C046C046C046C046C046C046C046C04684
:103C1000C046C046C046C046C046C046C046C04674
:103C2000C046C046C046C046C046C046C046C04664
:103C3000C046C046C046C046C046C046C046C04654
:103C4000C046C046C046C046601E07281ED8FCF7C6
:103C5000DDFC1C1B1A1918171615C046548B0010D2
:103C60000440014004C00140900B0020FF083D00CB
:103C700000093D00FF5025020048E801C046C0464B
:103C8000C046C046C046C046C046C046D021344BA0
:103C9000090601930A22002401238C4601990F682A
:103CA0000021781C08D0614649680120F9400F00C6
:103CB0000021074200D119B20C430199013A5B007F
:103CC0000431D2B2A4B29BB20191002AE6D130688D
:103CD000431C01D0FEF752F8224B996A9A6A521A95
:103CE0001D2AFBD9009B5B00EC52009B043601337C
:103CF00000930A2B00D0E4E61B4C1422290020007C
:103D0000FCF79CFB194E002823D014222900200028
:103D1000FCF7ECFA01233370FDF7B2FB144B18608B
:103D2000134B1D68FDF7ACFB401B052814D9114D42
:103D3000142221002800FCF781FB0023984205D0C3
:103D4000142221002800FCF7D1FA0123002232704E
:103D500003E03378002BE3D10023180009B0F0BD55
:103D60002C80001000400540CC120020B80B002031
:103D7000BC0B00209812002070B52A4B2A4A1B78F1
:103D800012782A4C2A4D134323702B78002B21D014
:103D9000284B5B88002B05D0FEF7F6F9002801D0F0
:103DA000FEF7B6F923782A7813432370224B1A784A
:103DB0000623002A04D0214A12787F2A00D918331A
:103DC0000022A11C013BDBB2FF2B24D1002A01D031
:103DD000FEF79EF91A4D202229002000FCF72EFB49
:103DE000002817D0202221002800FCF77FFA154B6D
:103DF0001B68002B0ED0104A1278002A07D00F4AF9
:103E000012787F2A03D922786270062222705B68BA
:103E10002000984770BD0878002801D00132D2B246
:103E20000131CFE7E0120020A61300205807002040
:103E3000C9120020500600203C0500205A0D002029
:103E40005F0D0020CC0B0020036910B50400002B8F
:103E500001D041699847E078FEF77EF92079FEF7B6
:103E600083F9FFF789FF062200212000FCF792FA70
:103E700010BD0000427910B50400930712D402234C
:103E800013430D4A43711178C3780B4313700079C3
:103E9000FEF772F9FFF770FFE368002B02D061694B
:103EA000200098470022054B1A806379DB0702D473
:103EB0002000FFF7C9FF10BDA6130020B80900209D
:103EC000082210B50D4C0220237893432370FEF78F
:103ED00043F910222378134204D093430220237025
:103EE000FEF74AF920202378034203D0834323704E
:103EF000FEF742F9FFF740FF10BDC0465802002010
:103F000010B584280ED1FDF721FB430709D54720C2
:103F1000FEF77AF9FFF730FF4720FEF74BF9FFF77E
:103F20002BFF10BD031FDBB2A02BF6D903002033FB
:103F3000DBB2072B07D807231840063B8340D8B2D3
:103F4000FEF712F9EBE703005B33DBB2022B03D879
:103F50000020FDF7E9FAE4E75830C0B21628E0D8AF
:103F60000020FDF7CFFADCE710B500280FD082283B
:103F70000ED1FDF7EBFA830709D53920FEF744F996
:103F8000FFF7FAFE3920FEF715F9FFF7F5FE10BD31
:103F900083280AD1FDF7DAFAC307F8D55320FEF7D4
:103FA00033F9FFF7E9FE5320EDE7FFF7A9FFEEE74E
:103FB00010B50400842812D1FDF7C8FA43070DD4C8
:103FC0004720FEF721F9FFF7D7FEFA208000FFF720
:103FD0004AFB4720FEF7EEF8FFF7CEFE10BD031FA9
:103FE000DBB2A02B24D8234B234A1B78002B11D003
:103FF000224B197800237F290CD9C308D218917855
:1040000007220123024093400B420BD12000FEF710
:10401000FBF8E1E7D1188978A14203D00133062BE0
:10402000F8D1F3E72000FEF7C5F8FFF7A5FEEDE7AE
:1040300003002033DBB2072B07D8072301201C40E5
:10404000A040C0B2FEF798F8C6E703005B33DBB2CE
:10405000022B04D80A4AD05CFDF766FABEE7583452
:10406000E4B2162CBAD8074B6400E05AFDF74AFABE
:10407000B4E7C0463C050020580700205A0D002038
:10408000AC7C0010B07C001010B5002813D0822842
:1040900012D1FDF75BFA83070DD43920FEF7B4F88F
:1040A000FFF76AFEC8208000FFF7DDFA3920FEF72F
:1040B00081F8FFF761FE10BD83280ED1FDF746FAA7
:1040C000C307F8D45320FEF79FF8FFF755FEFA20F8
:1040D0008000FFF7C8FA5320E9E7FFF769FFEAE736
:1040E00070B50B4B0500392809D11C8C2800FFF74F
:1040F000CBFF002C05D12800FFF736FF70BDDC8B0D
:10410000F4E70A20013CFFF7AEFAA4B2F1E7C0469B
:1041100050060020F7B504002378002B5DD0012B5A
:104120002CD16378A078012B03D10234FFF7D8FF9C
:1041300004E0022B04D10234FFF7A6FF0134EBE7C1
:10414000032B03D10234FFF70FFFF7E7042B01D055
:104150000134F3E700250A27204902340A5C661C73
:104160001A4205D1013DE9D30A20FFF77CFAF9E7AD
:104170007D433038451960783400EFE70721184A4D
:104180000127D25C01200192DA080B401549895CB5
:1041900019410F4014498D5C14491D418E5C054046
:1041A0001E410640002F02D0E030FFF701FF002D36
:1041B00002D0E620FFF7FCFE0198FFF791FF002DEB
:1041C00002D0E620FFF79CFE002F02D0E120FFF78F
:1041D00097FE002EB2D02C20A8E7F7BD957B0010EB
:1041E000907F001010800010807F0010807F0010F2
:1041F00010B50020FDF798F90020FDF783F90022A3
:10420000024B1A70FFF7B8FD10BDC046A613002080
:1042100010B5074906220B78082418001A40A0435D
:10422000062A01D1200018430870FFF7E1FF10BDF6
:104230008C0D00200122824010B503490B78934376
:104240000B70FFF7D5FF10BD8C0D0020002370B55B
:104250000B4D0724EB561A00824350B228700440DD
:104260000DD1DBB283420AD0064B5B785B0706D5E3
:10427000C010C0B2FFF7DEFF034B2C701C8070BD76
:10428000C41200205A0D0020C61200200A4A10B5A0
:1042900053785907C90F81420CD0012108400331DE
:1042A00080008B43034353701088FFF7F4FB022018
:1042B000FFF7CCFF10BDC0465A0D002001238340FC
:1042C00010B5034A11780B431370FFF791FF10BD2F
:1042D0008C0D0020094B10B55B785B070AD5C30035
:1042E000074A0B431370FFF7E9FFFDF7C9F8054BC9
:1042F000188010BDFFF7E2FFFBE7C0465A0D002013
:10430000C4120020C6120020002210B5034B04483E
:104310001A70FEF745FAFFF76BFF10BDE0120020A0
:1043200058070020AF220F4B10B51A800E4A00210B
:104330005A803222DA829632D9831A835983C33A59
:1043400050319A8319840333DA77FFF733FBFFF791
:10435000DBFF8020054BC0001880FFF79CFBFEF7B9
:10436000FBFE10BD50060020881300005A0D0020EF
:10437000F0B5214B87B01A680026019201221A601D
:10438000C82575431D4B0024ED180DE07B00FAB2E3
:10439000EB5AE1B2F0B20137FFF740FB0A2FF5D13B
:1043A000013414350A2C01D00027EFE70136042E22
:1043B000E6D1FFF7B7FF2200002103A8FBF7EAFFD1
:1043C000220003A90E48FFF7EFF9DE20220003A91F
:1043D0008000FFF7E9F9220003A90A48FFF7E4F992
:1043E000E320220003A98000FFF7DEF9024B019AC7
:1043F0001A6007B0F0BDC0464C050020C48600100E
:104400006E0300008203000010B50020FFF72CFBB4
:104410000020FFF71DFBFFF7ABFFFFF7F1FA0120CC
:10442000FFF722FB10BD000010B50024FEF7DCF9F9
:1044300022490020FFF788FA00210220FFF7ABFA9B
:1044400000210320FFF7A7FA1D4B210004201C7058
:10445000FFF7A1FA04212220FFF79DFA2100052091
:10446000FFF799FA21000620FFF795FAFF210720B0
:10447000FFF791FA0820FFF77CFA21000D20FFF7E3
:104480008AFA1820FFF775FA21001720FFF783FA40
:104490001C20FFF76EFA21002020FFF755FA1820A4
:1044A000FFF767FA2000FFF7DFFAFFF7ADFF0F20F5
:1044B000FFF75FFA1320FFF75CFA10BDE8FE00007B
:1044C000C10B0020F7B5032A4AD9042401A8220011
:1044D000FBF70CFFFFF718FF01212348019A05782D
:1044E00053088D430B4016005F002B0002250E4041
:1044F000334396080E40AE40AB433B43A3433343A4
:104500000826D4080C40E400B343234310241609C2
:104510000E403601A3433343202654090C40640166
:10452000B3432343402496090E40B601A3433343CB
:104530007F26D4090C40E4013340234303704378C1
:10454000140A0C408B43520A234311401A004900BD
:10455000AA43114341700088FFF79DFA0020FEBD79
:1045600001204042FBE7C0465A0D002010B5FFF77E
:10457000CBFE0648FFF777F8BFF34F8F044B054A91
:10458000DA60BFF34F8FC046FDE7C046C4090000A4
:1045900000ED00E00400FA0510B5002803D0FDF797
:1045A000E3FDFFF7E9FB10BD10B5002803D0FDF7D0
:1045B000E3FDFFF7E1FB10BDF0B585B01D000AABD0
:1045C0001B7801900393029114008278264B002AF5
:1045D0000DD01C70FCF754FF244B188007230120DA
:1045E0001C40A040C0B2FFF7DFFF05B0F0BD1E7851
:1045F000A64233D11D4B1F88FCF742FF0199C71B10
:104600000298BFB2FCF7F0FFB84227D92C00203443
:10461000AE4215D033002033DBB2072B06D8072378
:1046200001201E40B040C0B2FFF7B6FFE3B2072B37
:1046300006D8072301202B409840C0B2FFF7B4FFF3
:104640000398E4B2FFF74CFD072CCED807230120D6
:104650001D40A840C0B2FFF79FFFC6E70723012017
:104660001C40A040F6E7C046E8120020EA120020F5
:1046700010B50400C0B2FFF777FC2000FDF7B2FED2
:104680002300E03B072B01D9002C02D1FFF784FF68
:1046900010BD0028FCD0FDF75FFDFFF76DFBF7E7CD
:1046A00010B50400FDF79EFE2300E03B072B01D967
:1046B000002C05D1FFF778FFE0B2FFF7E5FC10BD55
:1046C0000028F9D0034B1A7810431870FFF754FBF9
:1046D000F2E7C046A613002010B5002904D002233B
:1046E000094A11780B431370084B094AC3189BB24F
:1046F000934205D9074B084AC3189BB2934200D88E
:10470000C0B2FFF7CDFF10BDA613002000A0FFFF31
:10471000FF1F000000C0FFFFFF0F0000F7B54F4B69
:1047200001921A7806000D004D4F520700D47EE02A
:104730003C88844201D0002879D104211A780120D4
:104740008A4302391A700A4008D146494648098806
:104750000088691A89B28142524110000122060084
:10476000197816409218914377000F431F700F2756
:1047700023093E4A3B405B009446995E0122274054
:10478000BA4012B200284CD00A4361465A52022065
:10479000374F3B78034206D01023304A11780B4341
:1047A0001370FDF7E1FC20203B78034205D02B4A33
:1047B000137803431370FDF7D7FC31002000FFF797
:1047C0008BFF019A2B4B002A04D0DA7E910601D58B
:1047D000520641D5D88B002827D0274A0023002134
:1047E000FBF7E0FE0023254A80185941FA220023F6
:1047F0009200FBF71FFFFEF736FF194B204A18887F
:10480000204BC3189BB2934205D91F4B1F4AC318B4
:104810009BB2934200D8C0B2FFF72AFFFFF750FBCC
:1048200018E0914362469952B1E70120E3E7154B46
:10483000134AF3189BB2F0B2934206D9124B134AB3
:10484000F3189BB2934200D93000FFF711FF3B8869
:10485000B342E3D0034B1D80F7BDC0465802002091
:10486000BA090020E60900205A020020C6090020EB
:10487000E01200205006002010270000E70300008F
:10488000FF1F000000A0FFFF00C0FFFFFF0F0000A0
:10489000704770477346F0B587B00593A24B1D680B
:1048A000EB0310D58022A14BA14992020124CA50EA
:1048B0000021A048C3689A69147551825A69947599
:1048C00091825B689847EB043BD58022974B9849CF
:1048D0001203CA500223974C2200237000232600A3
:1048E000DC321360A3600193F368002B15D0FCF752
:1048F0005CFAF3685869002804D002210C30494260
:10490000FCF76AFBF3689869002804D002210C3098
:104910004942FCF761FBFCF73FFA0027019BF76077
:10492000013301930436102BDED12300C4331F70F2
:10493000FCF7FEF963681B68BB4202D03900200017
:1049400098476B0430D510227A4C784B7849CA507E
:1049500023002278E0331A700523237063681B68F4
:10496000002B02D004212000984700260227A660D1
:104970007F42E368002B13D0FCF717FAE36858690D
:10498000002803D00C303900FCF726FBE368986957
:10499000002803D00C303900FCF71EFBFCF7FCF9B3
:1049A00001360434102EE4D12B040FD58022614847
:1049B0005E4B5F491201CA500300E0331B7803705D
:1049C00043681B68002B01D005219847AB0307D52E
:1049D00058484368DB68002B00D09847544B9B6CC9
:1049E000EB0606D4059B0F3301D0FCF759FA07B04C
:1049F000F0BD4F4B9B6D0393002302930133019352
:104A0000039B002BEED0029B202BEBD0019B039A43
:104A100013421FD0484B464A0199464FD1500122BC
:104A2000029B5C08A31C9B00FB185B680493029B21
:104A3000134233D1049B5D692B692A886B609BB25A
:104A400093420FD021003800FDF720FF039B019A0D
:104A500093430393019B5B000193029B0133DBB201
:104A60000293CDE70122A2403B8993433B81049B03
:104A70009B68002B02D02100380098470234A40024
:104A80003F19FCF792F97B68002158690C30FCF75C
:104A9000A3FAFCF781F90023AB82D7E7049B274AEE
:104AA0009D69E3009B181E68A969B605B60D320022
:104AB000A868FBF71BFCAB689B19AB606B689B1984
:104AC0006B602B689B1B2B602B8A013B9BB22B825C
:104AD000002B03D0049B5B8AB3421FD90122002321
:104AE000A2406B82134DA61C6B8993436B81B3006C
:104AF000EB185B68DB68002B02D021002800984788
:104B0000B600AD19FCF751F96B689B69180059683C
:104B10000C30FCF761FAFCF73FF997E72100380009
:104B2000FBF7FEFF92E7C04698001150503000009E
:104B3000000011507406002058300000840010500E
:104B4000F8B57746FCF731F9D0231B061A68174BE6
:104B500092009B185D682E00EB6910360133EB6103
:104B60002B699E4206D1FCF717F90F3701D0FCF7ED
:104B700097F9F8BD9A68013A9A602C69A368002BEE
:104B8000F1D1226861680A6051602360FCF704F982
:104B900021692000E3689847FCF707F96269002A59
:104BA000EBD021003000FCF73BFAE6E7740B002065
:104BB000BFF35F8FD023BE221B0652009B5070476D
:104BC000D0230C2172461B0610B519650B39186DE0
:104BD000084205D140BF0F3201D0FCF761F910BD8A
:104BE000986D0230F3D172B61A68034B92009B188D
:104BF0005B68024A9A65FEE7740B0020D27E0010C3
:104C0000D0230C2172461B0610B519650B39186D9F
:104C1000084205D140BF0F3201D0FCF741F910BD69
:104C2000986DF4E710B5EFF30983203383F3098817
:104C3000FCF7B2F810BD000010B50400FCF7B5F8A1
:104C4000D0231B061A68054B92009B185B680F2047
:104C5000DB689C61FEF77CFB10BDC046740B002036
:104C6000D0231B061A680E4B92009B185B6810B588
:104C70001868D96802681A60536001220275D8600A
:104C800000238A680B750B691B689C689442FBD8EB
:104C90005A680B604A6011605960FBF703FB10BD56
:104CA000740B002070B508210024094B18685A685D
:104CB0009D68954207D8D868904207D801391033CB
:104CC0000029F3D170BD40C840C2F2E710C2F3E73B
:104CD000D48A0010FEE7704710B5FBF773FE0E4B49
:104CE0000E4A196891420AD01A600D4A0D48946A1A
:104CF000916A091B8142FBD900221A6010BD002471
:104D00001C601423188804331B8807499847210026
:104D1000030020009847C046B0230020BAB0FECA66
:104D2000004005403F0D0300554200007FB5074B92
:104D30000A0001930023029303930493044B0100A0
:104D400001A80593FCF754FE07B000BDF117001051
:104D5000FFFFFF7F0FB407B504A901C90191FFF759
:104D6000E5FF03B008BC04B018470000F0B58FB0F1
:104D700085880AAC0590010002222000FBF7B6FAF4
:104D8000002D6ED02288BB4B9A426AD00121059833
:104D9000FEF7A3FA059B04009B78002B14D0B64BBA
:104DA0001B88002B10D098420ED01822DBB2534340
:104DB000B249143AC81845792A4342715C52FFF748
:104DC00059F80022AE4B1A70AE4D059A2B789278A6
:104DD000002B5FD1002A00D08DE0AB4BE0180428F7
:104DE00000D988E0FBF712FC0310871C4400FFF792
:104DF0008BFA0022A54B1A70FFF7FAF9A44BA54ACB
:104E00001A6001232B701DE0FFF77EFA00229F4BF2
:104E10001A70FFF7EDF99E4B9F4A1A600223F1E7E3
:104E20009E4B9A4D1F682E78FFF76EFA00232B7069
:104E3000FFF7DEF9974CA74215D1FFF765FA2E7000
:104E4000FFF7D6F9964B1B785B070AD0059B9B783A
:104E5000002B06D0934B5B785B0702D50220FFF74F
:104E6000F5F90FB0F0BD2000FFF780FF0A34E2E74C
:104E70008D4B864D1F682E78FFF746FA00232B7066
:104E8000FFF7B6F9844CA742D7D02000FFF76EFF9A
:104E90000A3CF8E77C496118022928D8834964183C
:104EA000611E8C419442CDD0012B03D0022B10D037
:104EB0000023A7E7764B77481B68834204D01A008B
:104EC0000A3A9178002902D1744A1360F0E713007E
:104ED000F3E76F4B70481B68834204D01A000A3214
:104EE0009178002901D1704AEFE71300F4E7012B14
:104EF00040D0022B53D0059B9878002801D100F0B8
:104F0000C9FF6B4BE3189BB20F2B01D900F01CFFBC
:104F10006848FEF715F9002800D093E78026123C78
:104F2000E5B2654C7601002D4DD10D952000FEF7C0
:104F300007F900230DAD671C28706B70984200D1F3
:104F400080E7012812D13800FEF7FAF8A61C687035
:104F5000002800D176E7431E022B40D83000FEF730
:104F6000EFF8E71CA870002800D1B9E02800FFF78F
:104F7000D1F8B5E04C4B464E19683568002A02D18D
:104F8000444B9D42B7D02B000A3B9942B3D0280036
:104F90000A220599FBF7AAF90A353560ABE73F4BC2
:104FA0003B4E19683568002A02D13B4B9D42A2D086
:104FB0002B000A3399429ED028000A220599FBF75C
:104FC00095F90A3DE9E7B44200D13BE72000FEF73E
:104FD000B7F8002801D1013DEDB20134A3E7431F2A
:104FE000022B00D989E0E31C30000693FEF7A8F8F5
:104FF000E71CA870002873D00698FEF7A1F8271DBB
:10500000E87000286CD0FF236C881B029C4201D9F9
:105010002402A4B26B78062B5AD0072B65D0052B3F
:105020005ED1264D264E2C80B4421DD82000FFF7BD
:1050300037FB244BD88B002819D0234A00230021AA
:10504000FBF7B0FA0023214A80185941FA220023C5
:105050009200FBF7EFFAFEF706FB2C80B44249D82A
:105060002000FFF705FB3BE001F08EFCE1E70120AB
:10507000F1E7C046FFFF0000B80900203813002008
:10508000A613002090120020FDA2FFFF8C0D00202F
:1050900094120020900D002086120020440500206C
:1050A000C41200205A0D002048050020FBA2FFFF7B
:1050B000EEA0FFFFFF0F000096030000260C00206B
:1050C000FF1F00005006002010270000E70300002B
:1050D000A54B1C80A54B9C4204D82000FFF7E0FAAA
:1050E0003C0023E701F050FCFAE79F4B1C809F4BEC
:1050F0009C42B5D901F034FCF2E737000428EFD127
:105100003000FEF71DF80500E01C271DFEF718F81B
:10511000002D00D196E6002800D193E6FF23013848
:105120005843013D4519013DDAD30A20FEF79BFAA9
:10513000F9E70120FFF7C2F802E00120FFF77AF853
:10514000FFF766F87EE60220F4E70D9A01320D9231
:1051500000F013FE6B799B0701D400F066FE280077
:10516000FEF772FE00F061FE01232A7813432B70D4
:105170007F4B7E4AE3189BB2934205D97D4B7E4A12
:10518000E3189BB2934225D800227C4B1A807C4BBB
:105190009C4200D14FE100D908E17A4B9C4200D1FA
:1051A00045E1794B9C4200D15DE1784B9C4200D0B7
:1051B00003E126230093BB331A00210045E10122BD
:1051C0002B78934300F061FEE12C11D110222B7853
:1051D00093432B702B78DB07D9D5059B9A78272C26
:1051E00024D81E2C60D2042C2DD2002ACCD1CEE79C
:1051F000E52C02D12B782022EAE75D4B5B4AE318CD
:105200009BB2934205D95B4B5B4AE3189BB2934236
:10521000E0D82B785B07BAD50223707F1840B6D14F
:105220005B4B02003900FFF779FAB0E7382C07D85A
:105230002D2C01D22B2CD8D1F37E5B07D5D405E0E1
:10524000642CF9D0D1E7F37EDB06CED4002A00D15E
:1052500084E002254F4B504E1B7809933378089316
:10526000089A099B13430693AB4321D00022434B7A
:105270001A804A4BD97E2940914219D101270F3219
:10528000230913402240974045485B001A5ABA430D
:105290001A522000FFF720FA3078A843FCF746FFA7
:1052A0002800FEF7D3FFCDE5F37E1B079DD4CDE7A5
:1052B000374D0A2205992800FBF718F80023AB7038
:1052C000AB802E4B1E88B44230D1344BDA7E93062D
:1052D0002CD5344B1B789B07DB0F079301D053066B
:1052E00024D5314B05991D8830007D1BADB2FCF7EC
:1052F0007BF985421AD20220099B034206D0102373
:10530000284A11780B431370FCF72EFF2020214B05
:105310001B78034205D0234A137803431370FCF72C
:1053200023FF07993000FFF7D7F98BE50222069B90
:10533000022613401A001B4D08982B78B043B34344
:1053400013432B70FCF7F2FE0C4B2A781C80164B93
:1053500030001F80042313432B70A2E7059B390004
:105360002000FFF7DBF96DE5260C0020FF1F000091
:1053700000A0FFFF00C0FFFFFF0F0000BA090020E0
:10538000F35C0000D85C0000D95C0000D75C000032
:10539000BC090020E0120020C912002050060020A5
:1053A000C609002058020020E6090020B74B9C42A5
:1053B0004FD045D3B64B9C4250D0059B9A78002ADB
:1053C00001D100F073FD0021B24BB34D1970AC4216
:1053D0004ED8B24B9C4204D2B14BE3189BB2132B74
:1053E0004DD8FDF7A8FFAF4EAF4B30809C4200D1A7
:1053F000BFE100D9CBE0AD4B9C4200D194E100D994
:10540000A6E0AB4B9C4200D136E100D997E0A94B16
:105410009C4200D12AE100D92BE1A74B9C4200D14C
:105420001BE13088FEF737FBFEF76EFF0AE5272306
:105430000093BE33C0E62623E0220093BB33BCE6D4
:105440002723E4229D490093BE330598FFF7B4F863
:10545000F8E42623E2220093BB33AEE62723E622BC
:105460000093BE33A9E62823E5220093273BA4E658
:10547000934B9C42B5D05CD8924B9C42B1D0924B9E
:105480009C4201D100F017FD904B9C4200D1C4E139
:1054900000D9A5E15B3BFF3B9C4200D1AAE18C4BCC
:1054A0009C4200D1ADE1059B1889002800D1B8E1EC
:1054B000FCF7D4FC0022059B864D9F789B79041C49
:1054C0001B0906932B7807925B071FD0079797421B
:1054D0001CD023041B0E0F329343402B06D0230015
:1054E00000222033DBB20792072B0FD900226D4B2D
:1054F00007925B785B0709D50220FEF7A7FE07221B
:105500002B7813405A425341DBB207932304180F00
:105510000B2800D9BDE1FBF783F8A001A00106022A
:105520000602BB02BC01BC01BC01E90247035803EF
:105530005803694BE3189BB2022BA0D851E7674B85
:105540009C4200D1EDE000D8E8E03278402386E0CC
:10555000634B9C4200D1FAE008D8624B9C4200D1D8
:10556000ECE000D8E6E033780222E9E05E4B9C42B2
:1055700000D1F8E000D2EDE05C4B9C4200D1F5E0B8
:105580005B4B9C4200D04CE733784022D8E0594B2B
:105590009C4200D1F6E02CD8404B9C426FD017D8EB
:1055A000554B9C4200D1FDE000D2E8E0534B9C42B9
:1055B00000D036E70121042033785A07D20F4A4041
:1055C0000A40910083430B430821D2008B4346E0FD
:1055D0004B4B9C4200D1C0E054D34A4B9C4200D17B
:1055E000BEE0494B9C4200D01BE7032372789A43EC
:1055F0003AE0344B9C4200D1E0E00DD8434B9C4252
:1056000000D1D9E000D2C0E00021AC4200D008E7D0
:105610000E20FEF7C0F904E73D4B9C4222D00AD889
:10562000274B9C4200D0FCE601213278D307DB0FE8
:105630004B400B40CAE0374B9C4200D182E0364BD6
:105640009C4200D0EDE6012172781307DB0F4B403E
:105650000B400731DB008A4306E001233278134315
:105660003370DEE60823727813436EE0327802234B
:10567000F5E732780423F2E732780823EFE772780F
:105680000123F1E772780223EEE7C046F55C0000E3
:10569000F65C0000E8120020025D0000FA5C0000E9
:1056A000FEA3FFFF5A0D0020125C0000095C000001
:1056B000055C0000035C0000025C0000F45C00007C
:1056C000A55D0000615D0000165C00005A5D0000F1
:1056D000DE5C0000C412002053A2FFFF075C000044
:1056E0000D5C00000B5C00000F5C0000105C000013
:1056F000115C0000FF5C0000145C0000155C000001
:10570000FC5C0000FD5C0000FE5C0000015D000030
:10571000AD5D0000AE5D0000AF5D0000327810238B
:105720009DE7327820239AE7FEF7EEFD802332785A
:105730005B4294E70C2332789A4390E70122337856
:1057400093438DE7082273789343737069E6337847
:105750000422F5E733780822F2E773780122F3E7B1
:1057600073780222F0E733781022E9E733782022B9
:10577000E6E7FEF7C9FD7F223378134070E7337800
:105780000C22DDE773780322DEE701217378DA0764
:10579000D20F4A400A408B431343510002229343E5
:1057A0000B43D2E7FEF7B0FD01223378D9094A4016
:1057B0007F21D2010B4052E7012129E701213278F4
:1057C000D306DB0F4B400B401B010F318A4346E7EA
:1057D0001B783520002B00D10C38FCF7EBFCA1E343
:1057E000B54B9C4210D01AD3B44B9C4200D05AE621
:1057F000FEF7BCFEFEF788FDB148FDF734FFFBF76E
:1058000031FEFEF711FEF3E7AE4B58780123400757
:10581000C00F5840FEF73AFD45E60120FAE70020A8
:10582000F8E7059A059B12889B780BAD2A800B98A8
:10583000002B0ED0FDF7E4FC040001000B98FCF7F0
:105840006DFD2A880CAB1A800C992000FDF7B6FC80
:105850002EE6FCF73FFD0400F3E723041A0E0F23A6
:1058600025052D0F9A4300D02D01E6B2002F45D01B
:10587000002D0BD033002033DBB2072B01D9002ED3
:1058800037D12800FCF778FCFEF776FA3000FEF7F7
:10589000FBFB23041B0F083B032B03D8FBF756FE2F
:1058A000FCF7D2FD201CFCF763FD002800D01DE2B0
:1058B0000022854B1A60079B002B14D00020012387
:1058C000824C205603400ED1059AC0109370C0B28E
:1058D000FEF7F4FC0598FFF749FA00202056C010A7
:1058E000C0B2FEF7A7FC00210598FDF7F6FCFFF714
:1058F000B8FA774A13781D431570C5E73000FEF7F4
:1059000033FB002DC5D033002033DBB22800072B3A
:1059100001D9002E02D1FCF727FC01E0FCF71CFCAA
:10592000FEF72AFAB5E723041A0E0F2325052D0FDB
:105930009A43202A00D02D01E3B20893002B21D0F6
:10594000012B00D17EE0069B002F00D187E0002BC9
:1059500050D0059A059B50881B88000418439188F5
:105960000022FDF7A1FC5B4B5B7F9B0700D5A9E103
:10597000059B9B79DA0700D4A4E10F221340059A16
:10598000937137E04F4B5B785B0712D4002F08D040
:10599000002D04D02800FCF7EFFBFEF7EDF9002006
:1059A00075E73800FEF7E0FA002D00D171E7280016
:1059B000B1E7069B002F21D0002B03D1464B18786E
:1059C000284318E0069B012B05D1434B1878284348
:1059D000FCF7ACFB5DE7337F012BEFD9069A9A42C7
:1059E000ECD1FCF795FB2A003C4B19780A438A421C
:1059F00000D01A702800FEF7D7FD4AE7002B02D12D
:105A0000FCF786FB14E0069A337F012A14D1012BA0
:105A100000D83EE7324B1B782B4200D139E7FCF728
:105A200077FB2E4B19780A00AA438A4200D01A70DD
:105A30002800FEF7B1FD2CE7012BE1D9069A9A4226
:105A4000DED126E70336F37F069A002F03D0934278
:105A500000D21EE7CEE7934200D81AE7E8E7002B12
:105A6000E6D0E3B2392B00D03EE1308C002800D1E3
:105A700033E11C4A00233900FAF794FD00231A4A47
:105A800080185941FA2200239200FAF7D3FD25E14C
:105A900023059B0F09D0012B00D0FAE6381E01D058
:105AA000A005800DFBF72EFDF3E6381E01D0A00502
:105AB000800DFBF739FDECE65C5D0000A75D0000A2
:105AC000C40900005A0D0020E4120020C412002076
:105AD000A613002050060020C9120020C812002082
