:020000041000EA
:1000000000B5324B212058609868022188439860DF
:10001000D860186158612E4B002199600421596104
:100020000121F02299502B49196001219960352056
:1000300000F044F80222904214D00621196600F024
:1000400034F8196E01211966002018661A6600F04E
:100050002CF8196E196E196E052000F02FF8012189
:100060000842F9D1002199601B49196000215960AB
:100070001A491B48016001219960EB211966A021F2
:10008000196600F012F800219960164914480160C1
:100090000121996001BC002800D000471248134993
:1000A000086003C880F30888084703B5996A0420EC
:1000B0000142FBD001200142F8D103BD02B5186610
:1000C0001866FFF7F2FF186E186E02BD00000240BE
:1000D000000000180000070000035F00212200005C
:1000E000F4000018222000A00001001008ED00E03C
:1000F000000000000000000000000000070B8FD58A
:10010000000404209D020010317300109F020010B3
:100110009F0200109F0200109F0200109F0200101B
:100120009F0200109F0200109F0200109F0200100B
:100130009F0200109F0200109F0200104D720010DD
:100140009F0200109F0200109F0200109F020010EB
:100150009F020010A16F00109F0200109F0200106C
:100160009F0200109F0200109F0200109F020010CB
:100170009F0200109F0200109F0200100D730010DC
:10018000CD7200109F0200109F0200109F0200100D
:100190009F0200109F0200109F0200109F0200109B
:1001A0009F0200109F0200109F0200109F0200108B
:1001B0009F0200109F0200109F0200109F0200107B
:1001C00072B6254880F30888244880F30988022005
:1001D00080F31488BFF36F8F21482249086006F02E
:1001E000DEFE07F0FEF8204820491B4A914202DA61
:1001F00008600431FAE71E49184A914202DA0860A1
:100200000431FAE71B491C4A1C4B9A4204DA08687D
:10021000106004310432F8E700201949194A91426C
:1002200002DA08600431FAE707F0C2F807F0DAF8FA
:10023000154C164DAC4203DA216888470434F9E7BF
:1002400007F012F9124C134DAC4203DA21688847CB
:100250000434F9E71049084700040420000C042086
:100260000001001008ED00E0555555550000042030
:100270000004042004960010000000205405002013
:1002800054050020042D0020C0010010C001001002
:10029000C0010010C0010010E173001090E700F0F1
:1002A00000F8FEE7F0B544464D4656465F46F0B4CA
:1002B0006B46CB60C3689D46F0BCA046A946B246DB
:1002C000BB46F0BD06F0FAFF62B6281CA04700202E
:1002D00007F038F8FEE707F049F8024A024B1360CE
:1002E000FEE7C04604ED00E000000080F0B5C64621
:1002F00000B50F2A43D90B00032603431E400C0010
:100300000300002E40D11500103D2D09AC462D01F3
:10031000A846804400E03B00676825685F60E768A6
:100320001D60DF601F00A56810379D6010344345D5
:10033000F1D165460F230C2401352D0149191340D5
:100340004519144223D08C59AC5104369C1B032C04
:10035000F9D80324043B9B0801339B002240ED188D
:10036000C918561E002A07D0002300E02300CA5CEB
:100370005C1CEA549E42F9D180BCB846F0BD050031
:10038000561E002AF0D1F7E7561E0500ECE71A00CA
:10039000F6E7C046F0B5050083074AD0541E002A90
:1003A00044D0CEB20300032202E00135013C3DD32C
:1003B00001332E701342F8D1032C2FD9FF220A40AB
:1003C000150215432A0415430F2C35D92700103F79
:1003D0003F093E01B4461E001A00103666441560FF
:1003E00055609560D5601032B242F8D10F260C22CC
:1003F00001373F012640DB193700224217D03E1F4C
:10040000B608B400A4461A001C1D644420C2A242CF
:10041000FCD103240136B6009B193C40002C05D0CA
:10042000C9B21C19197001339C42FBD1F0BD3400D4
:10043000F4E714000300BFE72700E0E730B5032A24
:100440000CD903000B439B071CD103680C68A34223
:1004500018D1043A04300431032AF6D8551E002A74
:100460000ED002780C7894420ED101350123013967
:1004700004E0C25C0133CC5CA24205D1AB42F8D1AE
:10048000002030BD551EECE7101BFAE700224308A0
:100490008B4274D303098B425FD3030A8B4244D34C
:1004A000030B8B4228D3030C8B420DD3FF2209028E
:1004B00012BA030C8B4202D31212090265D0030B4D
:1004C0008B4219D300E0090AC30B8B4201D3CB0343
:1004D000C01A5241830B8B4201D38B03C01A524185
:1004E000430B8B4201D34B03C01A5241030B8B4287
:1004F00001D30B03C01A5241C30A8B4201D3CB0272
:10050000C01A5241830A8B4201D38B02C01A524156
:10051000430A8B4201D34B02C01A5241030A8B4259
:1005200001D30B02C01A5241CDD2C3098B4201D371
:10053000CB01C01A524183098B4201D38B01C01AEF
:10054000524143098B4201D34B01C01A5241030966
:100550008B4201D30B01C01A5241C3088B4201D315
:10056000CB00C01A524183088B4201D38B00C01AC2
:10057000524143088B4201D34B00C01A5241411AE9
:1005800000D20146524110467047FFE701B50020F6
:1005900000F0F0F802BDC0460029F7D076E77047BA
:1005A00003460B437FD4002243088B4274D30309D4
:1005B0008B425FD3030A8B4244D3030B8B4228D375
:1005C000030C8B420DD3FF22090212BA030C8B429B
:1005D00002D31212090265D0030B8B4219D300E03B
:1005E000090AC30B8B4201D3CB03C01A5241830BC0
:1005F0008B4201D38B03C01A5241430B8B4201D370
:100600004B03C01A5241030B8B4201D30B03C01A98
:100610005241C30A8B4201D3CB02C01A5241830A12
:100620008B4201D38B02C01A5241430A8B4201D341
:100630004B02C01A5241030A8B4201D30B02C01A6B
:100640005241CDD2C3098B4201D3CB01C01A5241D2
:1006500083098B4201D38B01C01A524143098B425B
:1006600001D34B01C01A524103098B4201D30B0144
:10067000C01A5241C3088B4201D3CB00C01A524169
:1006800083088B4201D38B00C01A524143088B422E
:1006900001D34B00C01A5241411A00D201465241C7
:1006A000104670475DE0CA0F00D04942031000D3E6
:1006B0004042534000229C4603098B422DD3030A3B
:1006C0008B4212D3FC22890112BA030A8B420CD34B
:1006D000890192118B4208D3890192118B4204D374
:1006E00089013AD0921100E08909C3098B4201D3F4
:1006F000CB01C01A524183098B4201D38B01C01A2E
:10070000524143098B4201D34B01C01A52410309A4
:100710008B4201D30B01C01A5241C3088B4201D353
:10072000CB00C01A524183088B4201D38B00C01A00
:100730005241D9D243088B4201D34B00C01A5241D7
:10074000411A00D20146634652415B10104601D364
:100750004042002B00D54942704763465B1000D3EE
:10076000404201B5002000F005F802BD0029F8D094
:1007700016E770477047C046F0B5CE4647461504A9
:100780002D0C2E0080B50704140C3F0C9946030C69
:100790007E435D43674363437F19340CE4199C46F1
:1007A000A54203D980235B029846C4444B46434389
:1007B0005143250C36046544360C2404A4195B19F6
:1007C00059182000C0BCB946B046F0BD02B471460D
:1007D00049084900095649008E4402BC7047C0468A
:1007E00002B4714649084900095C49008E4402BCC4
:1007F0007047C04603B47146490840004900095E8D
:1008000049008E4403BC704703B471464908400058
:100810004900095A49008E4403BC7047002B11D18E
:10082000002A0FD1002900D1002802D00021C9439D
:10083000081C07B4024802A14018029003BDC0463C
:1008400035FFFFFF03B4684601B5029800F006F8D3
:10085000019B9E4602B00CBC7047C046F0B557469F
:100860004E464546DE46E0B5040083B00D00924694
:1008700099468B4230D82DD04946504600F0C0F8FA
:1008800029000600200000F0BBF8331A9846203BF0
:100890009B4633D45A465346934042461F00534624
:1008A00093401E00AF423AD8AF4200D17BE05B4696
:1008B000A41BBD41002B00DA78E000220023009247
:1008C000019301235A4693400193012342469340EA
:1008D000009328E08242CFD90022002300920193A6
:1008E0000C9B002B01D01C605D600098019903B047
:1008F000F0BCBB46B246A946A046F0BD4246202306
:100900009B1A5246DA40414613004A468A40170075
:1009100042461F43534693401E00AF42C4D90022B3
:100920000023009201934346002BD9D0FB079C463D
:10093000614672080A437B0846460EE0AB4201D18D
:10094000A2420CD8A41A9D41012024196D41002116
:10095000013E24184D41002E06D0AB42EED9013E97
:1009600024196D41002EF8D1009801995B460019B9
:100970006941002B25DB2B005A464446D3402A0010
:10098000E2401C005B461500002B2BDB26005F4677
:10099000BE40330026004746BE403200801A9941CF
:1009A000009001919CE7A342B9D880E742462023FA
:1009B00000219B1A0022009101920122DA4001924B
:1009C00083E7424620239B1A2A0046469A4023008A
:1009D000F340444613432A00E2401C005B461500E6
:1009E000002BD3DA2023424626009B1ADE402F003C
:1009F000B4464646B74066463B003343CAE7C04666
:100A000010B5002903D100F007F8203002E0081CDF
:100A100000F002F810BDC0461C2101231B049842BF
:100A200001D3000C10391B0A984201D3000A08397F
:100A30001B09984201D30009043902A2105C401836
:100A40007047C046040302020101010100000000DA
:100A500000000000F0B505000C2485B00F00110E59
:100A60001202019201981A0000230291FFF7D6FEAC
:100A70006C43274B0600E41863680391834200D25D
:100A800060602B1FDBB20093C023009A9B012343BD
:100A9000012A2ED8012F2CD103221A603B00A26814
:100AA0001A42FCD0E02223681340802252012243E4
:100AB0001360009B012B09D8032123687B400B4066
:100AC00013600123BB40A2681342FCD08023802224
:100AD0009B01234312011A600198039B6660320058
:100AE0000299FFF79BFE0B4BAD00E850012005B0CB
:100AF000F0BD802212011A60064BAA00D1580029CD
:100B0000D0D05869FFF7C2FC01300138FDD1C9E7E8
:100B1000008000409C0B002070B5040008001E49B6
:100B20001500FFF7B3FC802223682D0492012A43AD
:100B3000002B0FDA3F2123680B40012B0AD1A36859
:100B40001B051B0D984205D1EE21E368C9020B403D
:100B50009A421CD0114B9C421AD080235B01104951
:100B6000104D0B6010490B601E00A9688E43FBD12D
:100B700001232360C023211D9B010B432121A06081
:100B8000196021680029FCDAE26008221A6070BD51
:100B900080239B01E3E7C046001BB70000C0024072
:100BA00000E0004000C0004000F000408322274BDE
:100BB000920010B5DA620022AA21254B09019A673A
:100BC000244A254811602F21D160244908605168CA
:100BD0000029FCDA0121224A11605A6C012AFCD159
:100BE0000321204A11609C6B012CFCD106221E4976
:100BF0001E48FFF791FF05221D491E48FFF78CFF95
:100C00001D4B02211A000420FFF724FF1B4B21007B
:100C10001A000520FFF71EFF194B00211A000720BC
:100C2000FFF718FF164B00211A000820FFF712FFEC
:100C3000144B134A00210920FFF70CFF0F4B002132
:100C40001A000620FFF706FF10BDC04600800540D1
:100C5000008000400040024000B0FA000060024006
:100C60003CB0004030B00040002F68590080024086
:100C700000389C1C00C00240001BB700405973079D
:100C8000006CDC021BB7000010B5002903D1012461
:100C90000A4A0B4BD4500B4ACB009B188022DC6FC6
:100CA00012012243DA6701220231890041184B68A0
:100CB0005B695A7500229A7510BDC046000011503C
:100CC000682000000400105010B5002903D1022450
:100CD0000A4A0B4BD4500B4ACB009B188022DC6F86
:100CE00012012243DA6701220231890041184B6860
:100CF0009B69DA7400221A7510BDC04600001150BD
:100D00006820000008001050F0B5002930D11D4BBC
:100D1000DD6C8B1C9B00C018406801228469267D15
:100D2000A27433005F1EBB41724022752668408A60
:100D30005F03B04200D930008023DB000343124A36
:100D40009BB23B43134062688018864202D88022DF
:100D5000D20113430D4A1540802292051543002904
:100D60000BD1084AD5640A4AC90089184B60F0BD06
:100D7000084ACB009B185D68CBE70648CA001218EA
:100D80005560F0E700001150FF7FFFFFFFFFFFAF4E
:100D900080001050000010507F220138C31713400C
:100DA0001B18DB110133DB0102329BB2FF3210B59D
:100DB00093420ED0FF2480220749D2002402591802
:100DC0001000214204D0181C934200D9101C80B29C
:100DD00010BD80208000FBE780FDFFFFF0B58B1C7D
:100DE0009B00C3185F6885B000900C1E7E69BD69CA
:100DF00010D14023414AB383B261B182B175698297
:100E000029758021AA61AB833D4A3E4B8905D150AB
:100E100005B0F0BD002E38D03B4BCA00D318039369
:100E20003A4BD2180023D367B3753A68B382019264
:100E3000012A5FD1388AFFF7AFFF80220223920098
:100E4000904208D080220133D200904203D0431E4A
:100E5000FF3B5A425341DB060293009AE23294462A
:100E60006346118842008A181A80294BB083CA1839
:100E7000019B8131B261FF319A060A438021090644
:100E80000A430399029B04C1CB67002DC0D01E4BBF
:100E9000E400E6181F4B4020E4180023E3672B759D
:100EA0003C686B82012C11D1388AFFF775FF8022D4
:100EB00002239200904208D080220133D200904257
:100EC00003D0431EFF3B5A425341DB06009AA4065F
:100ED000E2321188471817800D4AA8838A18AA6140
:100EE00080228131FF310C431206144374600836AE
:100EF000F3678DE702934020AFE7C0460001105032
:100F0000000011504C200000000010500400105050
:100F1000800110500800105010B50E4C0E4B2000F0
:100F20000021E360FFF75AFF00230C4AE23413600C
:100F3000012223800A49D0000A4C4018D1000C1924
:100F40008360E367C360084801320918CB670F2A42
:100F5000F0D110BD78060020F88C00100000115070
:100F6000F8FF0F500400105008001050034B1A688F
:100F700082431A609A681042FCD0704700C000405B
:100F8000BFF35F8FD023BE221B0652009B5062B678
:100F9000704772B6D021BE22090652008B58002B32
:100FA000FCD0BFF35F8F704770B50E0001210C00BD
:100FB000B4400500408920436881B01C8000281897
:100FC00040688469A260002223606260E26093420C
:100FD00005D0418A013B5818FFF758FA81B22182A7
:100FE00028003100FFF790FE70BD000003000200F2
:100FF00010B5D6331B78DE3213707F221340064AB9
:101000000400136043681B68002B01D0012198473E
:101010000323237010BDC04600001150036910B5B2
:101020001960C268013AC260C2699B188269036193
:10103000934201D3436A036100238362036B002B55
:1010400000D0984710BD436902699A4203D1C26833
:101050000020824202D1180008C80B607047C368A4
:10106000C269013BC360436910B59B188269436143
:10107000934201D3436A436100238362036B002BD5
:1010800000D0984710BD000010B5FFF782FFEFF3C6
:101090000983203B83F3098880225204DA61D0223D
:1010A00012061168064A8900521852681168D268FF
:1010B00088689168034A884200D9034A9A6110BD42
:1010C000800B0020DA020010D7020010FEE7002398
:1010D0008268037503691B6899689142FBD25A685C
:1010E0000360426010605860704710B50C00FFF755
:1010F00050FF207D052807D8FFF772FB0C0606037A
:10110000130F0022A3691A6001235B42A361200030
:10111000FFF7DDFFFFF734FF10BDA26993680133CD
:1011200093606268236813605A60EDE7D0231B0662
:101130001968084A890052185268016910B591422D
:1011400005D01A6D920702D5012252425A65FFF767
:10115000BEFF10BD800B002070B5022504006D425B
:101160002068844200D170BD036823605C608561A3
:10117000FFF7DCFFF4E770B505000E000468AC4231
:1011800000D170BDE3683343E360236933420AD082
:101190006068A368C2691343027DC3610A2A04D14F
:1011A00082691A4207D12468E9E70B2AFBD18269D8
:1011B00013409A42F7D100238361FFF7B7FFF2E7AC
:1011C000036810B5002B05D0002202609961180059
:1011D000FFF7ACFF10BD0000D0231B061A68094BB7
:1011E00092009B185968036810B59A6884681219B0
:1011F0009A60426813605A6000230360013B8B6170
:1012000010BDC046800B002010B503689C68A24248
:101210000CD85C688A600B604C60216059609968EA
:101220008A1A9A6001235B42836010BD121B1B68FF
:10123000ECE7000070B50D4C050023680E00002B94
:1012400002D02000FFF7C8FFD0231B061A68084B06
:1012500092009B185868074B2A00E3600023103067
:10126000210026616361FFF7CFFF70BDC40F00202E
:10127000800B0020992D0010034B996A9A6A521A2C
:101280009042FBD87047C046004005407047704709
:10129000C26F70B51468030021780120042919D1A8
:1012A000197A022916D10500517962898D401542BB
:1012B00010D1DA691D6AAA4202D19D69002D09D1B7
:1012C00004320120002A05D09B6A2000043BFFF76E
:1012D0006BFE002070BD2131890010B50C58002C28
:1012E0002CD0FFF756FE0421201DFFF744FF2100FC
:1012F000E36F0C311A685B7902339B00D3185B688B
:101300009B695A68E3691A60A2690132A261A26A04
:101310009B18626AE361934201D3236BE361E06847
:10132000814206D00368E360596000238361FFF7C0
:10133000FDFE2000FFF7ACFFFFF722FE10BD10B549
:10134000406BFFF7A5FF10BD37B56B46D91D0023D5
:10135000074C087022789A4200D13233054802685F
:10136000D5690122A8474342434140B223703EBDA4
:10137000941C0020580300207047704770470000FD
:10138000014B18787047C046DC0F002070B505008F
:10139000D4352A787F21130004000B40212B00D084
:1013A0008FE013008B432FD0802B00D089E0030007
:1013B000D533187802281ED0032810D0012800D079
:1013C0007FE003331B78002B00D069E022005E49E8
:1013D000C832116020215160D034236070BD2300D9
:1013E000D8331B88002B6CD1220001205749C8320A
:1013F00011605060F0E723000120554AC8331A609D
:101400005860D0340023E8E70300D5331B780A2B5B
:101410004DD00B2B13D0092B53D10300D8331B789D
:10142000002B01D0022B4CD123004A4AC8331A604A
:1014300002225A60484BD03423600120CEE70300DB
:10144000D8331B88002B2BD10300D6331D7843489B
:101450002A00531E9A41D3B23C4A13700278DB0132
:101460000A4013430370002D1AD1394E3378002BF4
:1014700016D0FFF78EFD3A4A002330782900FFF797
:101480007BF90023374A80185941FA220023920041
:10149000FFF7C4F921008000FFF7CCFEFFF770FDD5
:1014A00022000023C83213605360D034C4E7030025
:1014B0002A4AD7331B78264E15783370ED09EFD1C1
:1014C000D5E7294B298899420BD0284B1900C23106
:1014D0000978002921D126495B5C002B1DD1002011
:1014E0007CE72300D9331A78013B1B78120213439F
:1014F000210022006068D632D73145681278097819
:101500002000A8470028EAD023004268C8331A60A8
:1015100002685A60D03400238EE760231A40202AE4
:10152000DDD12300D5331B780020202B00D255E7D6
:10153000212B02D9222BB3D050E723000D4AC83308
:101540001A600722E5E7C046DD0F002040050020B5
:10155000C00F00202419002079150010FE0F002074
:1015600010270000E7030000810600007802002039
:101570002202000041050020DA30084A0178137881
:10158000022907D1012B01D0062B02D15278044B3E
:101590001A707047024A1370FBE7C04624190020F6
:1015A000DC0F00200F2230B507490C78631C134074
:1015B000064A157800229D4203D0054A0B7010554B
:1015C0000122100030BDC046600C0020610C0020DC
:1015D000500C002009020A4311B2120A032A12D049
:1015E00006D8012A25D0022A26D00023180019E0A7
:1015F000212A11D0222AF8D1032BF6D8104A9900BB
:101600008858104A06E0CBB2032BEED80E4A990058
:1016100088580E4AD35C05E0032BE6D80C4A9B00A1
:10162000985809230B4A50601360002800D010001E
:10163000704712230848F5E77B230848F2E7C046C5
:10164000A0890010B0890010488900105889001046
:1016500090890010FC0B0020518A0010B489001002
:101660001423188804331B88034910B598470021B8
:10167000030008009847C0465542000070B5FFF7C8
:1016800088FCD0231B061A68154B92009B185B68D8
:1016900014481549DC690D680368144AE41AA54228
:1016A00009D9E4256D016419114D5B1903601368B4
:1016B00010481B18136015680C60FFF761FCFA22D4
:1016C0000023920020000021FFF756F800230A4A69
:1016D00080185941094A0023FFF7A0F8281870BD67
:1016E000800B0020901C002030100020701500207E
:1016F00080E3FFFFC09699190F2700001027000014
:10170000064B10B51A88824206D01880044B1B681D
:10171000002B01D01B69984710BDC0460010002067
:10172000040C0020064B10B51A88824206D018809F
:10173000044B1B68002B01D0DB68984710BDC046E6
:101740002A100020040C0020034B10B51B68181E43
:1017500001D01B68984710BD040C002020B5857887
:101760000123002D06D0037A29401B0704D54B1E08
:101770009941CBB2180020BD0F232A002D091A4031
:101780000B4009092A430B43D31A58424341DBB2A9
:10179000F0E70000F8B50B4B07001E68FFF76EFF7F
:1017A000F423FF33801B084D084C984205D82E6067
:1017B00001332360064B1F80F8BDFFF75FFF322324
:1017C0002860F6E704100020F40B0020F00B002046
:1017D000F80B0020F0B50E4C0E4B21781A7803263A
:1017E0000B000D4D9A420FD05F007F5B87420CD1FA
:1017F0000C22424309488018012282718B4203D196
:101800009B18023213402370F0BD01333340E9E7E7
:10181000980B0020990B0020900B0020000D002059
:101820000022074B1A802023064AD179002901D1D2
:1018300091711172013B9BB20C32002BF5D17047B4
:1018400036100020000D0020024B1A88024B1A802F
:101850007047C046540600205A020020002210B5EE
:10186000064B074C074808495A6101329C60D86012
:1018700019611833202AF7D110BDC046781900200D
:10188000616F0010C56E0010A56D0010B823DB015C
:10189000984205D1034B1B685A1E93415B42184086
:1018A0007047C0465005002010B55200054C121874
:1018B000091A035BDB430B5202309042F9D101203D
:1018C00010BDC04600E01F1010B5EFF3108372B6D4
:1018D000044C236006F0A4FF236883F310880120E2
:1018E00010BDC046680C0020044A054B0220D15CA4
:1018F000002902D000210138D1547047FC1C00207F
:1019000004100000044A054B0220D15C002901D1DB
:101910000138D0547047C046FC1C00200410000061
:10192000F0B58FB0FFF7EEFF0B90EFF3108372B6B8
:101930008022FF20324E334F1201310040033B60C2
:1019400006F076FF3B6883F3108880200021B446C0
:101950002D4A2E4B40016646775C1D0057403B02E6
:10196000099300233C0008933A002B0012196B41A5
:101970003F0F2E013E43019626010096009E019FD7
:1019800092197B4112196B41E70E6E013E4303969B
:1019900066010296029E039F92197B41670EEE013B
:1019A0003E430596E6010496049E059F92197B41ED
:1019B000270E2E023E43079626020696069E079F96
:1019C00092197B41089E099F013192197B41814206
:1019D000C1D10C920D93EFF3108372B6094C04221F
:1019E0000CA90B48236006F023FF236883F31088BB
:1019F0000B9B012B01D1FFF777FF02200FB0F0BD49
:101A0000FC1C0020680C002025232284E49CF2CBDF
:101A100000F01F0070B58024084D6401084B2A595E
:101A200001209A4209D9FFF74FFF030000208342AB
:101A300003D0FFF775FF034B2B5170BDFC1C00203A
:101A4000FF1F00000810000073B580246A460C4D8B
:101A50006401911D2B590880EFF3108272B6094E74
:101A60003260FF2252039818012206F0E1FE33682B
:101A700083F310882B5902332B51FFF7CBFF76BD30
:101A8000FC1C0020680C002010B5024B1B68984716
:101A900010BDC0463C0500200300DA680800511C58
:101AA00010B5D96019698A4204D21C68002C02D092
:101AB0005968A04710BD9B689854FBE7F7B51F0015
:101AC000C36804000093089B019115009B070DD08B
:101AD000002D0DD1089B9B0715D4F7BD20212000B8
:101AE000FFF7DAFF0136BE42F8D3F1E71600FAE756
:101AF000019B013D595D2000FFF7CEFFE8E7202163
:101B00002000FFF7C9FFE368009A9B1ABB42F6D397
:101B1000E3E70000F0B58FB0049003921D00169C1F
:101B2000002923D123051DD4302206AB1A701023BF
:101B300001319C430A00A30744D40123159A234092
:101B4000002A0BD00A00002B3CD0039A002A02D1B5
:101B50000C32144202D0159A013A15920A0006A8D6
:101B6000302628E0102DE5D1AC43E3E76123A2063F
:101B700000D541230F000026DBB20A3B0593290064
:101B80003800FEF709FD059BCAB2D3188446DBB2C4
:101B9000092902D813003033DBB2082004AA121836
:101BA000711C9355BD42C5D80E002029C2D067468E
:101BB000E5E716540132002B04D0159F974201D956
:101BC000202AF6D106A8302301E083540132149E66
:101BD000964201D9202AF8D1082D03D1914201D291
:101BE00010239C43274B1C4225D0230537D4002AC1
:101BF00035D0149B934202D0159B93422FD1914232
:101C00003CD2013A002A2AD0102D25D0022D0DD128
:101C10008A4223D801E0022D08D11F2A26D8622348
:101C200002E058231F2A21D8835401321F2A1DD8CD
:101C30003023835401321F2A18D8039B002B03D072
:101C40002D238354013211E0630701D52B23F8E7DC
:101C500023070BD52023F4E7914202D2013A102D3D
:101C6000D9D1A306DDD478231F2ADDD90100009441
:101C7000159B0498FFF722FF0FB0F0BD102DC5D1C2
:101C8000EFE7C04610200000F0B5070015008BB04C
:101C90000591059B1978002911D13B68002B0BD1C8
:101CA0003A69002A08D0B968002905D0FB689A4231
:101CB00000D8531E0022CA54F8680BB0F0BD059B33
:101CC000002001330593252900D0DBE008242439C6
:101CD000059B059A1B7801322B2B16D00BD8202B95
:101CE00015D0232B15D019003039092933D80023FA
:101CF0000A24049315E02D2B04D0302BF3D1084394
:101D00000592E5E702231843FAE70423FBE72043A3
:101D1000F6E71023F7E7049B05916343303BD318A4
:101D20000493059B1A78591C1300303B092BF2D9F8
:101D3000059B1B782E2B4ED1802212011043059A51
:101D4000059B5278013311003039092939D80A220C
:101D50000026944613E0002104912A2BE8D108CDF7
:101D600004938B4204DA02231843049B5B420493DE
:101D70000592DDE763465E432300303E96191A78EC
:101D80005C1C110030390929F4D919785A1C6C29C6
:101D90002BD023D8682930D06A2936D01A00117880
:101DA000531C0593692937D063D8622900D126E1F5
:101DB0002ED8252966D0582964D120231843103BFA
:101DC0003AE000262A2AE0D140CDF343DB171E403B
:101DD000059B0233D9E7059B0026D6E7742901D07D
:101DE0007A29DBD180239B000BE059786C29F9D14B
:101DF000C022D20010439A1CD1E75978682902D03A
:101E000080231843CBE7C022F4E78023DB00F8E708
:101E1000632969D0642935D18023DB0118437829EF
:101E200038D05829C9D06F2900D1E6E0622900D105
:101E3000E5E010239843063B020501D501229043BB
:101E40008022D200024041042ED5002A00D020E793
:101E50002C1D296882051FD5CD1702900498CA0F42
:101E600049196940019000963800FFF753FE25009C
:101E70000FE7732959D009D86F2900D1BDE0702927
:101E800000D1A3E03800FFF707FE02E77529D0D0A4
:101E90007829F7D11023CFE7420601D549B2DBE715
:101EA0000206D9D509B2D7E7002A00D0F1E60C2105
:101EB00004008C43A4462C1D810506D56146029181
:101EC0000499009601912968CEE72968420607D552
:101ED000C9B262460292049A009601920022C3E7B8
:101EE0000206F6D589B2F4E70224012604400AD19D
:101EF000012304E020213800FFF7CEFD3300049ACF
:101F00005E1C9A42F6D802CD3800C9B2FFF7C4FD74
:101F1000002C00D1BDE6049BB34200D8B9E62021D5
:101F20003800FFF7B9FD0136F5E72B0004CB069228
:101F30000793002A08D10090049B062231493800FB
:101F4000FFF7BCFD079DA4E6331E00D12E4B069A79
:101F50001500D3182A78002A01D0AB4214D1069B71
:101F6000ED1A80231B010340089302D0B54200D92B
:101F7000350002230340099304D1049B6C1CAB423F
:101F800004D82500069C0BE00135E3E7202138004A
:101F9000FFF782FD2500F0E738000134FFF77CFDF4
:101FA0002178002906D0089B002BF5D0069B9B19B1
:101FB0009C42F1D1099B002BC4D0049BAB42C1D9F8
:101FC00020213800FFF768FD0135F6E70F4C02CD00
:101FD0000443002907D100940A2305220C49380044
:101FE000FFF76CFD55E60A23029401930096063331
:101FF00000223800FFF78EFD4BE608231CE7022382
:102000001AE7C046E18B0010FFFFFF7F01200000B0
:10201000E88B001010B50400FEF7BBFF0123D022AF
:10202000A34012069362064AE3009B1805225A60F9
:10203000044BA400E4184A236360FEF7A1FF10BD1F
:102040000040014000C001400020704730B504242A
:1020500027490A78224205D018230340082B27D1AC
:1020600098432043130708D518240500142325405E
:10207000A54225D1A843C0B2184301244978214282
:1020800006D018230340082B21D19843C0B2204327
:102090008B0708D51821040011230C408C421FD156
:1020A000A043C0B21843D30601D5E723184030BD82
:1020B00014230340042BD5D1984304331843D1E7AC
:1020C0000340142BD9D19843C0B22043D5E7112344
:1020D0000340012BDCD19843C0B207331843D7E744
:1020E0000340112BDFD19843C0B20843DBE7C04661
:1020F000FE0F002070B50400822829D032D8312884
:1021000000D188E020D8292800D17AE02A2800D1FF
:1021100087E0924B9C4200D9A0E0FF3B9C4200D359
:10212000EDE0E72C00D98BE0E02C59D2A72C00D9A8
:102130007DE0A52C00D3C9E0012C51D023B2002BA7
:1021400038D0042C36D34BE0352855D03928E0D18F
:10215000834B1A78920700D0F9E05B781B07D8D53B
:1021600029243DE0E32827D00BD8E02816D0E22828
:10217000CFD17B4B1B785A0732D5E324DB0619D429
:102180002EE0E62828D0E7282CD0E428C1D1744BD3
:102190005A78920724D51B78E724EFE7704801218D
:1021A000027813000B4034D14078084218D0E32461
:1021B000D20615D5002413E0694A1378590700D5D3
:1021C000C3E05278D20700D5C1E0102213405A4232
:1021D00053415B421C4003E0614B1B781A07DBD480
:1021E000201C70BD5E4A1378190700D5B1E0527803
:1021F0009207EAD5E424F3E7594B1B789B06EFD509
:10220000AEE7574B1A78920600D5A4E05B781B071F
:10221000E6D53924E4E7524B1B785B06E0D52A2447
:10222000DEE74F4B1B785B06DAD53124D8E7BE2CAE
:10223000C0D85834E4B24B4B6400E05A88244AE0DA
:10224000494B9C424FD88023DB019C4246D2631EFF
:10225000FF3B464A9BB29342C2D9ABE7444B9C42F8
:1022600012D8FF3BE0B29C425BD2424B9C4255D815
:10227000FF3B9C4247D3032483082040023C844018
:102280005B0123433C4C46E03C4B9C420AD8FF3B5D
:102290009C424FD2013BFF3B9C4200D28AE7200286
:1022A000374C2AE0374B384AE3189BB2934200D9A7
:1022B00080E7E004C00EFFF7C9FEF82300025B01CF
:1022C0001840E4B204438020800105E05B342F4BCA
:1022D000E4B2185D8024E401044381E72C48044003
:1022E000A0200002F8E70323E0B284081C40184055
:1022F000023B8340640127481C4304430CE0E4B2E2
:1023000024022548E8E7032483082040023C844057
:102310005B012343214C1C43A4B261E70002204C23
:10232000DAE7FFF793FEF82400026401204001344D
:10233000FF34D1E70F2520002840FFF787FE24094E
:102340002C40240204431748D7E7E22448E7E0245E
:1023500046E7E62444E7352442E7C046FF51000043
:10236000FE0F002060890010FF4F0000FF1E0000DC
:10237000FF550000FF530000008AFFFFFF590000D7
:10238000F0A0FFFF00A0FFFFFF1F00005C8900100E
:10239000FF0F0000008DFFFFF1A00000008CFFFF89
:1023A000F4A000000090FFFF044A1378002B03D034
:1023B00000231370024A13807047C046791500202D
:1023C0007A150020074B70B55B7805005B0708D5D0
:1023D000054C2378834204D0FFF750F9034B257056
:1023E000188070BDFE0F0020791500207A1500209E
:1023F000024A1378834313707047C046FA1C0020CA
:10240000024A1378834313707047C046181900209E
:10241000024B1A78104318707047C04618190020F4
:1024200070B50024074D6B88A34208D0FFF726F94A
:10243000054B1B88C01A6B8880B29842644120000B
:1024400070BDC046540600207A15002010B5114B0F
:102450001B78002B10D0104B1B787F2B0CD9C20897
:102460001D2A08D80D4B01219B18072210408140DE
:102470009A788A439A7010BD06230021074A9478FF
:10248000844200D19170013BDBB20132002BF6D1C6
:10249000F1E7C04640050020FE0F00205C07002049
:1024A00070B5154B1B78002B11D0144B1B787F2B6C
:1024B0000CD9C3081D2B08D8114AD218072318407D
:1024C000063B834091780B43937070BD002301223B
:1024D0000B495242CC18A4785DB2A042F5D0561CEC
:1024E00002D1002C00D12A000133062BF2D1531C5B
:1024F000EBD08A189070E8E740050020FE0F00201E
:102500005C070020F7B50E4C0E4B24781B78019425
:102510000D4C019DAB4201D10020FEBD0A265E4359
:10252000A5196F788F4205D1365D864202D1AD780C
:10253000954203D1072501332B40EAE70120ECE760
:10254000F81C0020F91C0020A81C00200721054BC6
:10255000054A1B7812789A4200D1704701330B402C
:10256000F9E7C046F91C0020F81C002037B502042A
:1025700001A90880120E0020052A18D8097812290E
:1025800015D8132353435B180721032204000125A8
:102590001940DB089BB25343054AD3181A5DCA4061
:1025A0002A40A24001341043C0B2032CF6D13EBDF4
:1025B0004819002073B5020401AC2080120E052AD0
:1025C0001ED8207812281BD8132353431B1803202E
:1025D0000125DA0892B250430A4A2E001018072249
:1025E00013409E400022F6B20B00D340845C2B4087
:1025F0005B4263403340634083540132032AF3D18A
:1026000073BDC04648190020C3B20004020F10B5C4
:1026100000200B2A08D801210C00944022000C4C09
:10262000224202D152060BD410BDF02B0DD003D89C
:10263000E7229A424041F7E7F43B58425841F3E71A
:102640000800E72BF0D9F13BF7E70800ECE7C046BC
:102650000C0C00003322030100091843C0B28300B0
:102660008010104093430343DBB2223258005B10CA
:10267000904313401843C0B270470000411E174BEF
:10268000FF39020010B50020994218D8802380211C
:1026900080245B00890013401140E400581E8341F0
:1026A000D0040DD51801002901D02023184322425F
:1026B00001D040231843130501D58023184310BDD2
:1026C000D8B2002901D002231843224201D00423AA
:1026D00018431305F3D50823F0E7C046FF1E00009A
:1026E00080201E4A4004136810B503431360FEF7B0
:1026F0003DFC80221A4CD20100212000FDF74AFE49
:102700008022002152011748FDF744FE0923636728
:102710000333A367FEF700FC0123236480239B059A
:10272000E3642300104A90331A608022C1201968A4
:1027300092020A431A600D4B80001A580C4911404E
:10274000C02212020A43C0211A50202249005A50C6
:102750001A608022074B5202E25010BD00C00040B8
:10276000000011500000105010D0010000E100E006
:10277000FF00FFFF4C2000008B1C9B0070B5C318AE
:10278000050050690E0014005A60002803D0202272
:102790000021FDF7FFFDA069002803D020220021C1
:1027A000FDF7F8FD31002800FEF718FB70BD0000B2
:1027B000F8B50600052925D80800FEF711F8C02352
:1027C00024C0C003FEF7E5FB01217348FEF7D3FCEC
:1027D000724C00252300F4331D7096235B00E554F2
:1027E000FEF7CEFBFEF7D5FB6D480121FEF7C3FCDB
:1027F00095239B00E5543833E554FEF7C1FB0520D3
:10280000FEF7D0FEF8BDFEF7C4FB664A012130009A
:10281000FFF7B2FF644A04213000FFF7ADFF5F4CC1
:10282000624A2300C03319783000FFF7A5FF230068
:10283000C13319785E4A3000FFF79EFF2300C23390
:102840001978002903D05B4A3000FFF795FF230079
:1028500025000027FC35F8331F606B6956486B6014
:102860002B60AF61EF61FEF777FC2300F4331F703C
:10287000AB6C52486B63EB6C2F65EB63AB636F65BE
:10288000FEF76AFC96235B00E75401214248FEF7FD
:1028900072FC4B48FEF7FCFC88239B00E15C494A34
:1028A0003000FFF769FF484B484AE15C3000FFF712
:1028B00063FF474BE15CB94203D0464A3000FFF763
:1028C0005BFF9623002598229B00E5501833E358C0
:1028D0009200A350043AA3509D239B00E55004337B
:1028E000E5503D48FEF738FC95239B00E5545033F6
:1028F000E258143BE250A6221833E3589200A3504A
:10290000043AA350AB239B00E5500433E550334811
:10291000FEF722FCA3239B00E55401212048FEF78B
:102920002AFC2F48FEF7B4FCFEF72AFB2D4B1B7840
:10293000AB4202D00520FEF735FE022060E7FEF72D
:1029400031FEFEF726FB02211348FEF714FC134C60
:1029500001252300F4331D701748FEF7FDFB962375
:102960005B00E5541548FEF7F7FBFEF709FBFEF7A1
:1029700010FB02210A48FEF7FEFB95239B00E5545D
:102980001548FEF7E9FBA3239B00E5541348FEF727
:10299000E3FBFEF7F5FA35E75C0300207802002040
:1029A000BC040020188D0010A4950010E002002047
:1029B000FC02002018030020640300209C03002078
:1029C0005803002040040020210200005C04002085
:1029D0002202000078040020C4040020FC0400202F
:1029E000B80400202910002010B5074B02301B78D6
:1029F000002B04D0054B1E221B787F2B00D806220B
:102A00000021FDF7C7FC10BD40050020FE0F00208F
:102A100070B58024044D6401280022000021FDF7D8
:102A2000B9FC024B2B5170BDFC1C002008100000AB
:102A300070B5FEF767FF0400051E03D1FEF754FFD3
:102A4000200070BDFEF740FF0400FFF7E1FF012DFD
:102A5000F6D1FEF749FF431E98410440F0E7F7B571
:102A6000170001220231890041184B685C69227508
:102A7000216822691B8A8D1A9D4200D91D000023FE
:102A8000180052198A425841226182030092A17DA6
:102A9000AEB20800421E90414203019201224A4018
:102AA000A275A0699F4200D0A38BC0182A00A1681C
:102AB000FDF71CFC8420A36800025D19009B3043D5
:102AC0001843019BA56003431800002F00D0180491
:102AD000FEBD00008B1C9B00C3185B68F7B50600A9
:102AE0000C1E5F6924D11A4BDB6C002221003000E0
:102AF0000193FFF7B4FF3A683B6905009A4205D09D
:102B0000012221003000FFF7AAFF05436B0113D516
:102B1000104A019B13401A00A023DB051343002C2D
:102B200011D10B4AD3640C4B1034E4001D51F7BD96
:102B3000094ACB00D358D8E7084A019B13401A0032
:102B400080239B05EAE70449E2008B50EBE7C0468F
:102B500000001150FFFFFFDF00001050FFFFFFAF2C
:102B600070B501258D4004892C4304818C1CA40080
:102B700004196468646923600023A2606360E360F1
:102B80002361FFF7A7FF70BD70B50600C436327829
:102B90000400152A16D8012393401A4A134220D163
:102BA00080256D031D400ED19B020BD50B23337086
:102BB000FEF7EFF92B002A0029002000FFF7D0FFD5
:102BC000FEF7DEF970BDC3689B695B68002BF9D125
:102BD0000300D0331B68002B00D0984700233370CC
:102BE000F0E70021FEF750F800212000FEF76CF816
:102BF00063681B68002B02D006212000984706233B
:102C0000EDE7C046410E000070B50500C435040074
:102C10002878152835D8FDF7E3FD3E3434343434B4
:102C20003E34340B283534343434343434343E3E7A
:102C30002300CC33DA7B18680E331B78120213435F
:102C4000984212D2E368198AFDF7A6FC0E1E0CD139
:102C5000FEF79FF93300320031002000FFF780FFBC
:102C6000FEF78EF90A232B700BE014232B70FEF76E
:102C700090F9002320001A001900FEF795F9FEF7DD
:102C80007FF970BD2300D0331B68002B01D02000DA
:102C900098470023E7E700212000FDF7F5FF00211A
:102CA0002000FEF711F863681B68002B02D0062194
:102CB000200098470623D6E70B00F0B511339B00A0
:102CC000C3185C6885B005000E00002C43D0FEF7E9
:102CD00060F9201D0821FEF74EFA2300B7004433A7
:102CE000EF190193FB685B691B68002B17D0236DFC
:102CF000226E01332365A36D9B18E26DA365934299
:102D000001D3A36EA365606C019B834207D0036867
:102D1000019A63645A6000238361FEF707FA03A9EE
:102D20000198FEF790F9039B021E0ED1FB685A69C9
:102D30001268002A0DD01B8A013B1A4209D1E36FA9
:102D40001B7E002B05D12A00D43231002800FFF76A
:102D500007FFFEF715F905B0F0BD13B5446BE36F3F
:102D60001A681178042915D1217A022912D119790A
:102D700001238B4012891A420CD1200001A9443052
:102D8000FEF761F9021E05D0E46F019B21792068EE
:102D9000FFF7E6FE13BD000070B50C00FEF7F9F872
:102DA0002378042B02D0FEF7EBF870BD144B1B7890
:102DB000DB09F8D1134D2B78002BF4D0124B1B7884
:102DC000002BF0D023899B0705D408230F4A01214B
:102DD0002000FFF7C5FE28780D4A00230021FDF7EB
:102DE000CBFC00230B4A80185941FA2200239200A1
:102DF000FDF714FD21008000FEF71CFAD3E7C04662
:102E0000FE0F0020C00F002040050020DD0F002035
:102E100010270000E7030000F7B50025FEF7B9F81A
:102E2000294C626F13681978042944D1217802294A
:102E300041D11279013991401B890B423BD1E36C9E
:102E4000226D934237D1B021490069431F4A52187D
:102E5000FC32516B00292ED0616E00292BD0043931
:102E6000C91A28D01960516B01395163A26D9B18A2
:102E7000626DE364934201D3236EE3640027200074
:102E8000676601A93C30FEF7DEF8636F06001A7E24
:102E9000BA4209D001981A693900121A3018FDF7A0
:102EA00079FA636F1B690193606F019B01793200AE
:102EB0000068FFF755FE6134FF34012D02D1FEF7A3
:102EC0005FF8F7BD0125ACE7600300207802002021
:102ED000F7B50500C4352B780400002B01D0002382
:102EE0002B702600D4360822C0493000FDF7FEF9C9
:102EF00063689B68002B15D132786026164039D064
:102F000000212000FDF7C0FE00212000FDF7DCFEBF
:102F100063681B68002B02D0062120009847062317
:102F20002B70F7BD200098470028E5D0230026002D
:102F3000DB331A78013B1B781202CC36134332681C
:102F40009A4200D933602300D4331B7837687F2B33
:102F500000D886E1002F00D176E109232B70FEF71F
:102F600018F822000021C832336812682000FFF7E9
:102F7000F7FD73E123007F21D5331B780A401B0244
:102F800013439B4A934200D148E12DD8022B00D134
:102F9000E5E00BD8002B4CD0012BB1D1954A230092
:102FA000C8331A6002225A6000222DE081225200AA
:102FB000934200D1F7E0FF32FF32934242D08022A9
:102FC000520093429CD12300D6331B78012B97D11A
:102FD00022000221DC3213888B4313802300C83384
:102FE0001E605E609E60A1E7834A93420ED8013A5C
:102FF000934233D2013AFF3A934200D080E7230054
:103000007E4AC8331E605E609A608FE7902212018C
:1030100093423FD07A4A9342C0D080221201934219
:1030200000D06DE723002200C833DF321A6001228E
:103030002EE022002100C832DC31116002215160F3
:10304000936073E72300D6331B78012B00D057E73A
:103050002200DC32118801330B43BEE7230022003B
:10306000D9331B78D83212781B0213432100220077
:103070006068D632D7314768127809782000B8479F
:10308000002800D13CE723004268C8331A60026878
:103090005A60A7E72378042B4AD1FDF77AFFA2688C
:1030A000584B02271340A3602300103300931E00E7
:1030B0003C3301937F423368002B0ED058690028BF
:1030C00003D00C303900FEF77BF83368986900288C
:1030D00003D00C303900FEF773F80023019A08C6BC
:1030E000B242E8D118001E1C00999A008F583F493F
:1030F0007A6990759082DA0052189168013349001C
:1031000049089160B9690E754882D168490049083B
:10311000D1600F2BE8D1FDF733FF23000321DF330C
:103120001E70636821701B68002B01D02000984737
:103130002300D6331B78002B0BD02200DF32137014
:103140000423237063681B68002B02D00221200037
:10315000984722000023C8321360536070E72300B1
:10316000D8331A780F23134002339B00E31852B26E
:103170005B68002A0EDA5B69002B00D1C0E61A7D7D
:10318000002A05D15B7D204A002B00D1B8E606E776
:103190001E4A04E79B69002B00D1B1E69A7C002A05
:1031A000F6D1DB7CEFE72300D6331978002900D075
:1031B000A6E69E780F233340CBD09A1C9200A2182B
:1031C000506872B2DB00124E002A07DA114A9B18CF
:1031D000DA6F3240DA6743695975BAE70E4A9B18CD
:1031E000DA6F3240DA678369D974B2E700001050B1
:1031F00002030000F895001001060000ED0F00101A
:10320000020C000001000100148D0010EE8B001074
:10321000FFF7FFFF04001050080010502300D633C2
:103220001B78002B00D06BE623000F21D8331B78CE
:1032300019408ED05BB22000002B02DAFDF724FD8E
:1032400087E7FDF741FD84E714232B70FDF7A1FE0E
:103250003B003A0000212000FDF7A6FEFDF790FE9E
:103260005FE6002F08D015232B70FDF792FE220099
:10327000C83233681268EDE70B232B70FDF789FE27
:103280003B003A00390071E613B50800032A25D93E
:103290000623144A11785278CC070B40E40F2343DD
:1032A00008240C40234310240C40234320240C40CA
:1032B000234340240C40C909C90123430B43D107D0
:1032C000C90F92070902D20F0B435202134301A9FF
:1032D00004220193FDF70AF8002016BD01204042A8
:1032E000FBE7C046FE0F002010B543880C00934258
:1032F00006D841681A002000FCF7F8FF002010BD36
:1033000001204042FBE70000030070B580249D18B7
:10331000080064010021A54204D803495918FCF7AC
:10332000E5FF0121080070BDFC1C002010B51F281E
:1033300007D80A225043044BC018FFF7E5FF0020CE
:1033400010BD01204042FBE7EB0300001FB5084B16
:10335000C318FF2B09D801ACC0B22100FFF7E6FF6C
:10336000002802D1208904B010BD024B188BFAE767
:1033700000A9FFFF54060020F0B5284C284F294E25
:1033800085B001AD0A2229003C603000FFF7BCFF88
:103390002000102200210830FCF7FCFF2B88224976
:1033A0002380AB79A370AB88E370EB7923712B7A20
:1033B00063716B88E380002323726B7A5AB2D24325
:1033C000D217114001226161134200D02272022201
:1033D000134202D0217A0A4322720422134202D0FD
:1033E000217A0A4322720822134202D0217A0A4328
:1033F000227210210B4202D0227A0A43227220222A
:10340000134202D0237A1A432272084B0A36183428
:1034100004379E42B5D105B0F0BDC046001600206D
:103420007C1500206B0600009F1C0020AB070000ED
:10343000A022F0B5124D85B0520000212800FCF703
:10344000A9FFC0220F4C520000212000FCF7A2FF70
:103450000D4E01AF25600A2239003000FFF754FFFE
:10346000280008223900FCF741FF3B890A36A38077
:10347000064B0A350C349E42EBD105B0F0BDC04678
:10348000800E0020000D00202B0500006B060000C0
:1034900013B56B46DC1D0023012221002370FFF7CA
:1034A00033FF207816BD000070B50024094BE018EA
:1034B000FFF7EEFF084BE0540134242CF6D1002432
:1034C000064D2B69002B00D09847013414350C2C85
:1034D000F7D170BDC7030000540600201C940010F3
:1034E000262370B5E4244B43444352009B181C1917
:1034F00020002730FFF7CCFF000285B220002830E3
:10350000FFF7C6FF284380B270BD00000E4B37B5F1
:103510001C68002301AD29809C4208D169782A7873
:103520002300F02905D1F02A01D1084B1B8818008F
:103530003EBD0328FBD80529F9D8122AF7D8FFF792
:10354000CFFF0300F3E7C046A41C0020620C00205C
:10355000F0B50724012785B00F4B01AE30801A78F3
:103560000E4B1B781A430092009BE5B223413B426D
:1035700005D1013CF8D20025280005B0F0BD328805
:1035800003AB1A8003992800FFF7C0FFFEF7B2FDD6
:1035900080B20128EDD0EFE734100020ED0B0020C1
:1035A0001FB501AC20800198FFF7D2FF228803AB42
:1035B0001A800399FFF7AAFFFEF79CFD04B010BD27
:1035C00013B5038802008488002001A90B8084427F
:1035D0000AD008499CB28C4206D01089002804D039
:1035E000FEF788FDFFF710F816BD1800FFF7D8FFAB
:1035F000F8E7C046FFFF000013B5030CDBB20090F4
:10360000002B0DD0002A0BD0FFF7A2FF0400010011
:103610000098FEF7CFFF00992000FFF777FF16BD57
:103620000098FEF7A3FF0400F5E710B50400008939
:103630000A00002806D1638820881B041843A1884B
:10364000FFF7DAFF10BD10B52620FFF721FF10BDF0
:1036500010B52320FFF71CFF732801D0002010BDF8
:103660002420FFF715FF6728F8D14238FFF710FF35
:103670003F3843425841F2E710B50420FFF708FFF6
:1036800004002220FFF704FF0002204380B210BD97
:10369000D0231B061A68084B92009B185B6810B574
:1036A000D9680875186802681A60536001220275AB
:1036B000D860FCF7F7FD10BD800B00200A00D02178
:1036C00009060B6830B5040012489B00C3185B68FC
:1036D00087B0DD68531C18D00B6869469B00C01882
:1036E0000D4B406803930023103005930495FDF7BC
:1036F0008BFD2000FFF7CCFF009B002B02D068461B
:10370000FDF76AFDA86907B030BD2000FFF7C0FFD4
:10371000F8E7C046800B0020EB100010D0231B06FA
:103720001A680A4B92009B185B6810B5DB68002989
:1037300008D0426818605A60136043600420FFF7A5
:10374000BDFF10BD01204042FBE7C046800B0020BA
:1037500070B504000D00E368002B07D0236900203A
:103760001A1DA262E2699B18E36208E0237A002B2B
:1037700006D129002000FFF7D1FF0028EBDA70BD49
:1037800002204042FBE7F7B504000F0000920193CE
:103790000025FDF7FEFBA36A002B09D1019920004B
:1037A000FFF7D6FF002803D0FDF7EAFB2800FEBD97
:1037B000A06AE36A009A1B1A561B9E4200D91E009B
:1037C000402E19D939004022FCF790FDA36A4037FA
:1037D0004033A3624035A36AE26A934204D3E369AB
:1037E0002000191FFDF71AFCFDF7CAFB009B9D4244
:1037F000DCD2FDF7CEFBCEE739003200FCF776FDD8
:10380000A36ABF199B19A362AD19E4E710B5443050
:10381000FFF7B9FF10BD012310B544305B42FFF73D
:10382000B2FF10BD70B504000E001500FDF7B1FB2E
:10383000A36A002B09D129002000FFF789FF051E8C
:1038400003D0FDF79DFB280070BDA36A1E70A36A1C
:10385000E26A0133A362934204D3E3692000191F93
:10386000FDF7DCFBFDF78CFB0025ECE710B54430E1
:10387000FFF7D8FF10BD012210B544305242FFF7C8
:10388000D1FF10BD70B504000D00E368002B07D018
:1038900062690020131D1268A3629B18E36208E0AE
:1038A000237A002B06D129002000FFF737FF0028DC
:1038B000EBDA70BD02204042FBE7F7B504000F00D1
:1038C000009201930025FDF764FBA36A002B09D148
:1038D00001992000FFF7D6FF002803D0FDF750FB29
:1038E0002800FEBDA16AE36A009A5B1A561B9E423D
:1038F00000D91E00402E17D938004022FCF7F6FCF4
:10390000A36A40374033A3624035A36AE26A934218
:1039100002D32000FDF7A3FBFDF732FB009B9D4285
:10392000DED2FDF736FBD0E738003200FCF7DEFCD4
:10393000A36ABF199B19A362AD19E6E710B50C3055
:10394000FFF7BBFF10BD012310B50C305B42FFF742
:10395000B4FF10BD70B504000D00FDF71AFBA36A9B
:10396000002B09D129002000FFF78CFF051E03D092
:10397000FDF706FB280070BDA36AE26A1D780133DB
:10398000A3629342F4D32000FDF769FBF0E710B582
:103990000C30FFF7DFFF10BD012110B50C3049429C
:1039A000FFF7D8FF10BD10B50400FDF7F2FA2100B3
:1039B0000820FFF783FEFDF7E3FA10BD70B506009F
:1039C0000D00FDF7E6FA144C2378042B02D0FDF726
:1039D000D7FA70BD2389DB0612D5D02212061168F2
:1039E0000E4A89005218E36952685B69D2680C3349
:1039F0001A60642193610320FFF760FE431CE6D048
:103A0000074A0323557004212D0A20001670957073
:103A1000FFF7A6F8DBE7C04678060020800B002001
:103A20001919002010B501000420FFF7C7FF10BDD1
:103A300010B501000320FFF7C1FF10BDD023012105
:103A40001B061A68064B92009B1810B55B6849422A
:103A5000DB68036098610320FFF730FE10BDC046AD
:103A6000800B002070B50500FDF793FA1A4C2378FF
:103A7000042B1ED1194A238912787F2A1CD9184A8F
:103A80001278002A18D0DB060BD420232A00042148
:103A90002000FFF765F8202229001248FCF726FCD9
:103AA00007E0E36958690C30FFF7C8FF2378042B5F
:103AB000EBD0FDF765FA70BD9B0703D408232A00FD
:103AC0000121E5E7236958690C30FFF7B7FF237838
:103AD000042BEED1F2E7C04678060020FE0F00204E
:103AE00040050020DD0F00208023F0B5160089B0CE
:103AF0008218050001915B019A4203D9002420003D
:103B000009B0F0BD5D4F3200C71939000198FCF7CC
:103B100095FC01240028F2D0320001993800FCF70E
:103B2000E5FBFDF7EFFE0590002802D1FDF7DCFE76
:103B3000E4E7019B1A78012E33D9EB0731D4504BBF
:103B40009D422ED8019B5B781B021343012B28D882
:103B50005A1E934120225B421340803B6A0A134362
:103B6000FF220499DBB291430A001A43049204999C
:103B70006B08444ADBB21B020A401A436B460492AC
:103B8000188AFDF761FF0400012867D1019B023EFE
:103B9000023502330193002ECBD1FDF73BFF040029
:103BA00061E03F2D18D8FF2103984023884301008E
:103BB0002B43DBB21943334B12020B4013430393E5
:103BC0006B469889FDF740FF0400012846D1019B10
:103BD000013E01350133DDE70296052E01D90523AB
:103BE000029306AF06220021B81CFCF7D3FB072284
:103BF0002B0C1340029ABD70D20013433B702B0A6A
:103C00007B7000230199DA19C95C0133D170029AE3
:103C10009A42F7D13888FDF717FF040001281DD11B
:103C20007888FDF711FF0400012817D1012E07D96C
:103C3000B888FDF709FF040001280FD1032E07D82B
:103C4000029A029B9446F61AED18019B6344A1E781
:103C5000F888FDF7F9FE04000128F1D0002C02D00D
:103C6000022C00D00024059B012B00D047E7FDF774
:103C70003BFE002800D141E741E7C046FC1C002084
:103C8000FF3F0000FF00FFFF73B56B469C1D002344
:103C90000E000222210023800500FFF735FB238858
:103CA0009E4205D00222210028002680FFF71CFF3B
:103CB00073BD37B50025042201A904000195FFF763
:103CC00023FB019BAB4205D0042201A920000195F2
:103CD000FFF70AFF37BD37B50D000400FFF7D8FB2B
:103CE000A84206D06B460122D91D20000D70FFF7B7
:103CF000FBFE37BD10B5034B0C201978FFF7EBFF27
:103D000010BDC046981C002070B50024074BE51874
:103D10002800FFF7BDFB064BE15C814202D0280082
:103D2000FFF7D9FF0134242CF0D170BDC703000088
:103D30005406002010B54388934207D81A00406803
:103D4000FCF7D4FAFFF7E0FF002010BD012040424D
:103D5000FBE7000070B58025044C6D0120000021B8
:103D60000134FFF7B8FFAC42F8D170BDAB070000DB
:103D700070B51D00032814D8052912D8122A10D8AE
:103D80002623E4244B43444352009B181C19200073
:103D9000290A2730FFF79FFF2000E9B22830FFF7FC
:103DA0009AFF70BD10B57321041E00D18C31232001
:103DB000FFF791FF6721002C00D198312420FFF7F5
:103DC0008AFF3F21002C00D1C0312520FFF783FF5F
:103DD00010BD10B50400C1B20420FFF77CFF210A1A
:103DE0002220FFF778FF10BDF0B5002589B018221A
:103DF000002102A8FCF7CEFA664E3468631C00D19D
:103E000008E1FDF7C6F801236348E200D021A34092
:103E10001218052009064B621060604AA400A4181D
:103E2000402222608B61FDF7ABF85D4B5F695D4B13
:103E30009F4200D8C6E05C493800FCF727FB5B4B8B
:103E400004009F4200D89BE00723594938001C40DA
:103E5000FCF71CFB01380F2800D991E0FCF7D4FCDB
:103E600088008000780070006800600058005000F2
:103E700048004000380030002800200018001000E2
:103E8000C046C046C046C046C046C046C046C04602
:103E9000C046C046C046C046C046C046C046C046F2
:103EA000C046C046C046C046C046C046C046C046E2
:103EB000C046C046C046C046C046C046C046C046D2
:103EC000C046C046C046C046C046C046C046C046C2
:103ED000C046C046C046C046C046C046C046C046B2
:103EE000C046C046C046C046C046C046C046C046A2
:103EF000C046C046C046C046C046C046C046C04692
:103F0000C046C046C046C046C046C046C046C04681
:103F1000C046C046C046C046C046C046C046C04671
:103F2000C046C046C046C046C046C046C046C04661
:103F3000C046C046C046C046C046C046C046C04651
:103F4000C046C046C046C046C046C046C046C04641
:103F5000C046C046C046C046C046C046C046C04631
:103F6000C046C046C046C046C046C046C046C04621
:103F7000C046C046C046C046C046C046C046C04611
:103F8000601E07281ED8FCF72BFC1C1B1A191817DB
:103F90001615C0468C9500100440014004C0014035
:103FA0009C0B0020FF083D0000093D00FF5025024A
:103FB0000048E801C046C046C046C046C046C046AC
:103FC000C046C046D02001220006132300248446A8
:103FD0002D4901920F6800207A1C08D06046406885
:103FE0000122F84007000020174200D10198019AF1
:103FF000013B5200DBB2044301920431002BE9D1B2
:104000003068431C01D0FEF705F81E20FDF734F997
:1040100002AB5C5104350436182D00D0EDE61B4C84
:104020002A0002A92000FCF709FA194D002824D023
:10403000220002AB43CB43C243CB43C201232B70CC
:10404000FDF71CFB134B1860124B1E68FDF716FBA7
:10405000801B042814D9104E182221003000FCF7D0
:10406000EDF90023984205D0330007CC07C307CCF5
:1040700007C3012300222A7003E02B78002BE3D131
:104080000023180009B0F0BD9C8C0010001900201E
:10409000E40B0020E80B00204015002070B52E4BEB
:1040A0002E4A1B7812782E4C2E4D134323702B78FA
:1040B000002B21D02C4B5B88002B05D0FEF7B0F9EC
:1040C000002801D0FEF770F923782A781343237073
:1040D000264B1A780623002A04D0254A12787F2A14
:1040E00000D918330022A11C013BDBB2FF2B2BD1DE
:1040F000002A01D0FEF758F91E4B25781B781E4E7A
:104100009D431E4B20221B7831001D43200025704B
:10411000FCF794F9002816D0202221003000FCF78B
:10412000E5F8174B1B68002B0DD0104A1278002AB7
:1041300006D00F4A12787F2A02D9062265702270B3
:104140005B682000984770BD0878002801D00132D4
:10415000D2B20131C8E7C04618190020FA1C00206D
:104160005C0700207915002054060020400500203F
:10417000FE0F00207519002009100020FB1C0020F4
:10418000040C0020036910B50400002B01D0416924
:104190009847E078FEF72CF92079FEF731F9FFF720
:1041A0007DFF062200212000FCF7F4F810BD00007E
:1041B000427910B50400930712D4022313430D4A29
:1041C00043711178C3780B4313700079FEF720F91F
:1041D000FFF764FFE368002B02D061692000984775
:1041E0000022054B1A806379DB0702D42000FFF719
:1041F000C9FF10BDFA1C0020C2090020082210B51A
:104200000D4C0220237893432370FEF7F1F810221F
:104210002378134204D0934302202370FEF7F8F86A
:1042200020202378034203D083432370FEF7F0F865
:10423000FFF734FF10BDC0465802002010B5842897
:104240000ED1FDF781FA430709D54720FEF728F97B
:10425000FFF724FF4720FEF7F9F8FFF71FFF10BD17
:10426000031FDBB2A02BF6D903002033DBB2072BF0
:1042700007D807231840063B8340D8B2FEF7C0F8A2
:10428000EBE703005B33DBB2022B03D80020FDF722
:1042900049FAE4E75830C0B21628E0D80020FDF70C
:1042A0002FFADCE710B500280FD082280ED1FDF7D9
:1042B0004BFA830709D53920FEF7F2F8FFF7EEFE37
:1042C0003920FEF7C3F8FFF7E9FE10BD83280AD1B5
:1042D000FDF73AFAC307F8D55320FEF7E1F8FFF7E8
:1042E000DDFE5320EDE7FFF7A9FFEEE7F7B5244F1A
:1042F00001903D68002D3BD00023224A1380224AC2
:104300001370224A1370EC88214B621EFF3A9A42C6
:1043100001D8204B1C40E4B22600731E9E41EB687E
:10432000F6B2002B03D02969002098470640002EE2
:1043300006D0231FDBB2A02B1CD82000FEF786F886
:10434000019B154C002B0ED03B681A7AD2060AD47A
:104350002278002A07D01888104A431E9BB2934245
:1043600001D8FDF717FAFFF799FE00233B60237091
:104370002800FEBDFFF792FE2000FFF793FFDFE766
:10438000BC090020F80B002075190020FB1C002040
:10439000FF1E0000FFE0FFFFC0090020AF5D00002E
:1043A00010B50400842812D1FDF7CEF943070DD4CF
:1043B0004720FEF775F8FFF771FEFA208000FFF73F
:1043C000F2FA4720FEF742F8FFF768FE10BD031F20
:1043D000DBB2A02B24D8234B234A1B78002B11D00F
:1043E000224B197800237F290CD9C308D218917861
:1043F00007220123024093400B420BD12000FEF71D
:104400004FF8E1E7D1188978A14203D00133062B98
:10441000F8D1F3E72000FEF719F8FFF73FFEEDE7CC
:1044200003002033DBB2072B07D8072301201C40F1
:10443000A040C0B2FDF7ECFFC6E703005B33DBB280
:10444000022B04D80A4AD05CFDF76CF9BEE7583459
:10445000E4B2162CBAD8074B6400E05AFDF750F9C5
:10446000B4E7C046400500205C070020FE0F002096
:104470005C8900106089001010B5002813D08228D4
:1044800012D1FDF761F983070DD43920FEF708F842
:10449000FFF704FEC8208000FFF785FA3920FDF7FA
:1044A000D5FFFFF7FBFD10BD83280ED1FDF74CF9BA
:1044B000C307F8D45320FDF7F3FFFFF7EFFDFA2011
:1044C0008000FFF770FA5320E9E7FFF769FFEAE79A
:1044D00070B50B4B0500392809D11C8C2800FFF75B
:1044E000CBFF002C05D12800FFF7DCFE70BDDC8B74
:1044F000F4E70A20013CFFF756FAA4B2F1E7C04600
:1045000054060020F8B5174B17491E5C0723C20854
:104510008D5C18401549164B8F5C9C5C054101234E
:10452000044107411C401D401F40002C02D0E120E7
:10453000FFF736FF002D02D0E620FFF731FF3000F5
:10454000FFF7C6FF002D02D0E620FFF777FE002C14
:1045500002D0E120FFF772FE002F02D02C20FFF7DF
:10456000B7FFF8BD008C0010F08B0010F08B00102E
:10457000808C0010F8B5040004270A262078002853
:1045800030D001282BD16378A078012B04D10234DC
:10459000FFF79EFF0134F1E7022B03D10234FFF74E
:1045A0006BFFF7E7032B03D10234FFF77BFEF1E744
:1045B000042B01D00134EDE700250B4A0234135CD3
:1045C000611C3B4205D1013DE4D33000FFF7EBF91C
:1045D000F9E775433038451960780C00EFE7FFF7CD
:1045E00091FFD7E7F8BDC0464588001010B5002000
:1045F000FDF798F80020FDF783F80022024B1A70AF
:10460000FFF74CFD10BDC046FA1C002010B507494D
:1046100006220B78082418001A40A043062A01D16C
:10462000200018430870FFF7E1FF10BD3410002090
:104630000122824010B503490B7893430B70FFF7BA
:10464000D5FF10BD34100020002370B50B4D07249A
:10465000EB561A00824350B2287004400DD1DBB2F1
:1046600083420AD0064B5B785B0706D5C010C0B208
:10467000FFF7DEFF034B2C701C8070BD741500200B
:10468000FE0F0020761500200A4A10B5537859070E
:10469000C90F81420CD001210840033180008B43B7
:1046A000034353701088FFF794FB0220FFF7CCFF01
:1046B00010BDC046FE0F00200123834010B5034A01
:1046C00011780B431370FFF791FF10BD34100020D9
:1046D000094B10B55B785B070AD5C300074A0B434B
:1046E0001370FFF7E9FFFCF7C9FF054B188010BDF9
:1046F000FFF7E2FFFBE7C046FE0F00207415002025
:1047000076150020002210B5034B04481A70FEF7FE
:104710006BF9FFF76BFF10BD181900205C07002034
:10472000AF220F4B10B51A800E4A00215A80322258
:10473000DA829632D9831A835983C33A50319A83E5
:1047400019840333DA77FFF7DFFAFFF7DBFF802006
:10475000054BC0001880FFF73CFBFEF7A5FE10BD1F
:104760005406002088130000FE0F0020F0B52E4BE9
:104770008DB01A680024019201221A60E425654375
:104780002A4B0027ED1810E0E0B2F9B2F2B2012393
:10479000012C01DC7300EB5A0136FFF7E9FA132E06
:1047A000F2D101372635062F01D00026ECE701347F
:1047B000042CE3D1FFF7B4FF002309AD09930A935A
:1047C0001B4CC8332B8120000A222900FFF78CF9EB
:1047D000184B0A349C42F6D10A22002106A8FBF7A6
:1047E000D9FD20000A2206A9FFF77EF9124B0A34F0
:1047F0009C42F6D103AD0A2200212800FBF7CAFD36
:1048000001235B42AB8008336B7220000A2229002F
:10481000FFF76AF9094B0A349C42F6D1024B019A20
:104820001A600DB0F0BDC046500500205492001033
:10483000EB0300002B0500006B060000AB07000037
:1048400010B50020FFF7AEFA00212620FFF743FA4B
:10485000FFF78CFFFFF77EFA0120FFF7A3FA10BDE8
:1048600010B50024FEF7E4F822490020FFF70CFA07
:1048700000210220FFF72FFA00210320FFF72BFA77
:104880001D4B210004201C70FFF725FA0421222073
:10489000FFF721FA21000520FFF71DFA210006206D
:1048A000FFF719FAFF210720FFF715FA0820FFF795
:1048B00000FA21000D20FFF70EFA1820FFF7F9F992
:1048C00021001720FFF707FA1C20FFF7F2F921005B
:1048D0002020FFF7D9F91820FFF7EBF92000FFF7A8
:1048E00061FAFFF7ADFF0F20FFF7E3F91320FFF7A1
:1048F000E0F910BDE8FE0000ED0B0020F7B5032A3B
:104900004AD9042401A82200FBF7F0FCFFF7FAFEC5
:1049100001212348019A057853088D430B40160066
:104920005F002B0002250E40334396080E40AE4038
:10493000AB433B43A34333430826D4080C40E40075
:10494000B3432343102416090E403601A3433343D7
:10495000202654090C406401B343234340249609A4
:104960000E40B601A34333437F26D4090C40E40133
:104970003340234303704378140A0C408B43520A9C
:10498000234311401A004900AA4311434170008893
:10499000FFF71FFA0020FEBD01204042FBE7C046A2
:1049A000FE0F002010B5FFF7ADFE0648FEF7FBFF37
:1049B000BFF34F8F044B054ADA60BFF34F8FC046F9
:1049C000FDE7C046C409000000ED00E00400FA0560
:1049D00010B5002803D0FDF713FDFFF75FFB10BDF6
:1049E00010B5002803D0FDF713FDFFF757FB10BDEE
:1049F000F0B585B01D000AAB1B78019003930291BE
:104A000014008278264B002A0DD01C70FCF736FE6D
:104A1000244B1880072301201C40A040C0B2FFF7A0
:104A2000DFFF05B0F0BD1E78A64233D11D4B1F88B5
:104A3000FCF724FE0199C71B0298BFB2FEF786FC63
:104A4000B84227D92C002034AE4215D03300203391
:104A5000DBB2072B06D8072301201E40B040C0B2AE
:104A6000FFF7B6FFE3B2072B06D8072301202B4040
:104A70009840C0B2FFF7B4FF0398E4B2FFF728FDF7
:104A8000072CCED8072301201D40A840C0B2FFF755
:104A90009FFFC6E7072301201C40A040F6E7C04661
:104AA000201900202219002010B50400C0B2FFF721
:104AB000F9FB2000FDF7E2FD2300E03B072B01D9C5
:104AC000002C02D1FFF784FF10BD0028FCD0FDF7B9
:104AD0008FFCFFF7E3FAF7E710B50400FDF7CEFD12
:104AE0002300E03B072B01D9002C05D1FFF778FF0D
:104AF000E0B2FFF7C1FC10BD0028F9D0034B1A78D3
:104B000010431870FFF7CAFAF2E7C046FA1C0020FB
:104B100010B5002904D00223094A11780B43137001
:104B2000084B094AC3189BB2934205D9074B084A60
:104B3000C3189BB2934200D8C0B2FFF7CDFF10BD9F
:104B4000FA1C002000A0FFFFFF1F000000C0FFFFB5
:104B5000FF0F0000F7B54F4B01921A7806000D00C9
:104B60004D4F520700D47EE03C88844201D000289B
:104B700079D104211A7801208A4302391A700A4037
:104B800008D14649464809880088691A89B2814295
:104B900052411000012206001978164092189143E4
:104BA00077000F431F700F2723093E4A3B405B00ED
:104BB0009446995E01222740BA4012B200284CD098
:104BC0000A4361465A520220374F3B78034206D0CF
:104BD0001023304A11780B431370FDF711FC20208D
:104BE0003B78034205D02B4A137803431370FDF73B
:104BF00007FC31002000FFF78BFF019A2B4B002AA6
:104C000004D0DA7E910601D5520641D5D88B002812
:104C100027D0274A00230021FBF7AEFD0023254AB9
:104C200080185941FA2200239200FBF7F7FDFEF7A6
:104C3000BAFE194B204A1888204BC3189BB29342E6
:104C400005D91F4B1F4AC3189BB2934200D8C0B26C
:104C5000FFF72AFFFFF7D2FA18E091436246995214
:104C6000B1E70120E3E7154B134AF3189BB2F0B20A
:104C7000934206D9124B134AF3189BB2934200D9C0
:104C80003000FFF711FF3B88B342E3D0034B1D8098
:104C9000F7BDC04658020020C4090020F0090020DA
:104CA0005A020020D00900201819002054060020C4
:104CB00010270000E7030000FF1F000000A0FFFF17
:104CC00000C0FFFFFF0F000070B50B4B0500392837
:104CD00009D11C8C2800FFF7FFFE002C05D128000D
:104CE000FFF7E2FE70BDDC8BF4E70A20013CFEF723
:104CF0005AFEA4B2F1E7C04654060020F0B591B0C8
:104D000085880DAC0290010002222000FBF7EEFA2C
:104D1000002D6ED02288B94B9A426AD001210298A8
:104D2000FEF783FC029B04009B78002B14D0B44B4D
:104D30001B88002B10D098420ED01822DBB25343B0
:104D4000B049143AC81845795C522A434271FFF7BA
:104D50002FFA0022AC4B1A70AC4D029A2B78927845
:104D6000002B5FD1002A00D08DE0A94BE018042869
:104D700000D988E0FBF734FD0310871C4400FFF7DF
:104D8000C1FC0022A34B1A70FFF730FCA24BA34AD0
:104D90001A6001232B701DE0FFF7B4FC00229D4B2D
:104DA0001A70FFF723FC9C4B9D4A1A600223F1E71F
:104DB0009C4B984D1F682E78FFF7A4FC00232B70A6
:104DC000FFF714FC954CA74215D1FFF79BFC2E7002
:104DD000FFF70CFC944B1B785B070AD0029B9B7877
:104DE000002B06D0914B5B785B0702D50220FFF7C2
:104DF0002BFC11B0F0BD2000FFF780FF0A34E2E782
:104E00008B4B844D1F682E78FFF77CFC00232B70A2
:104E1000FFF7ECFB824CA742D7D02000FFF76EFFD4
:104E20000A3CF8E77A496118022928D881496418B0
:104E3000611E8C419442CDD0012B03D0022B10D0A7
:104E40000023A7E7744B75481B68834204D01A00FF
:104E50000A3A9178002902D1724A1360F0E71300F0
:104E6000F3E76D4B6E481B68834204D01A000A3288
:104E70009178002901D16E4AEFE71300F4E7012B86
:104E80003FD0022B52D0029B9B78002B01D101F026
:104E9000A0F9694BE3189BB20F2B01D901F0E3F99C
:104EA0006648FEF7F5FA002800D093E78026123C0A
:104EB000E5B2634C7601002D4CD10F952000FEF732
:104EC000E7FA00230FAD661C28706B70984200D182
:104ED00080E7012811D13000FEF7DAFAA71C6870CC
:104EE000002800D176E7431E022B3FD83800FEF79A
:104EF000CFFAE61CA87000285BD02800FFF73AFB29
:104F000057E04B4B444D19682E68002A02D1434BA1
:104F10009E42B8D033000A3B9942B4D030000A22F6
:104F20000299FBF7E3F90A362E60ACE73D4B3A4DA8
:104F300019682E68002A02D1394B9E42A3D0330053
:104F40000A3399429FD030000A220299FBF7CEF92A
:104F50000A3EE9E7B44200D13CE72000FEF798FAA8
:104F6000002801D1013DEDB20134A4E7431F022B1B
:104F700027D8E31C38000393FEF78AFAE61CA870D2
:104F8000002816D00398FEF783FA261DE870002843
:104F90000FD0FF2368881B02984201D9000280B21B
:104FA0006B78062B07D0072B08D0052B01D101F019
:104FB00065FF340082E701F043FFFAE701F0D2FE1B
:104FC000F7E73E000428F4D13800FEF761FA050047
:104FD000E01C261DFEF75CFA002D00D1FAE6002841
:104FE00000D1F7E6FF2301385843013D4519013D43
:104FF000DFD30A20FEF7D7FCF9E7C046FFFF000029
:10500000C209002078190020FA1C00203815002061
:10501000FDA2FFFF341000203C15002038100020B6
:105020002E1500204805002074150020FE0F0020DA
:105030004C050020FBA2FFFFEEA0FFFFFF0F0000CA
:10504000AB0700000120FFF737FBFFF7DFFAC1E6EF
:105050000120FFF7EDFAF8E70220FAE7022B01D072
:1050600001F0E2F8B388002B01D101F0DDF818233C
:1050700001225D434019437993434371FFF798F848
:1050800001F0D2F801221A70A4E61B78002B01D19E
:1050900001F010F82300E03B9BB20493C84AC94BCF
:1050A00012781B781343C84A127813435BB2DAB202
:1050B0000392049A072A00D9B6E007210122214071
:1050C0008A40190052B29143C9B20391002E02D016
:1050D0001343DBB20393BD4B1D68049B072B03D91D
:1050E000002E01D101F009F9029B1888FDF73EFA64
:1050F00001231A0082400B92B54A089312880A9243
:1051000000220792079BB34A9B00D758002F00D17B
:10511000BAE0039B002B03D1BB78002B00D0AEE09C
:10512000FB780B9A1A4200D1A9E007223B7A13427E
:1051300000D11300089A04991A40072905D8002EB7
:1051400000D17FE05B08089A1A40002A00D196E05F
:105150003B8806939C4202D1002E00D18FE0AF42E3
:1051600000D18CE07B69002B03D01B78002B00D191
:1051700085E03B79039A1A40099200D07FE00399B9
:105180003800FCF7EBFA002879D0069B05969C4284
:1051900001D0099B0593069B5A425341059A13433C
:1051A00004D1069A0A998A4269D105930020FFF733
:1051B0009DF80122854B1F60874B1A707A79874BC7
:1051C0001A70059B002B09D1069B002B06D03B884B
:1051D000D8B2043BA02B37D8FDF738F9FD88804BB7
:1051E0006A1EFF3A9A4201D87E4B1D4000266B1E74
:1051F0007D4A9BB29A427641FB68F6B2002B03D0FF
:105200003969012098470640002E0AD0F888FDF73A
:1052100035FA764B1870049B072B18D82800FCF73A
:10522000B9FAFEF73BFF19E0694B002E01D100F0FF
:10523000C4FF1C80FCF722FA00226D4B18606D4BF6
:105240001A8048E79B087EE7FFF72CF8C6E7EEB226
:10525000043DA02D0AD83000FDF722F9059B002B54
:1052600001D100F027FFFEF719FFB3E5FEF716FFA7
:105270006420FEF798FB3000FFF7FEF8EEE7079B8F
:105280000133DBB207933DE7002D01D100F012FF9F
:10529000049B072B01D901F033F82B79039A1342B1
:1052A00007D111002800FCF759FA002801D000F0BE
:1052B00001FF0120FFF71AF800F0FCFE6B799B0755
:1052C00001D400F02FFF2800FEF75CFF00F02AFF5A
:1052D000494B9C4218D014D3484B9C4201D000F05B
:1052E00037FF474B052201E00022454B1A70FEF7BD
:1052F00001FD00F02DFF424B0122F7E7404B022257
:10530000F4E73F4B0322F1E73D4B0422EEE7E220B6
:10531000FFF746F80C266420FEF745FB63045B0CA0
:105320000393039B0F22334113402A78022A3BD177
:10533000981FC0B2092B06D8093318000A21FBF7C1
:1053400015FA5931C8B2FFF7C3F8043E331DE8D14E
:10535000287805285BD8FBF743FA5789935A9C9E17
:10536000C6208000FFF7B0FCD4E7264B1B78002B4B
:1053700002D15320FFF7ACF8E220FFF711F86420C8
:10538000FEF711FB5720FFF7A3F8C3E7E620FFF76E
:105390009FF81820F7E71C20FF30FFF795FC252029
:1053A000FFF792FC2820DDE71A000A3A052A04D903
:1053B00030331800FFF7A6F8C7E75733F9E7C046C0
:1053C000781500207915002018190020BC0900204C
:1053D000021000207C150020C00900207519002053
:1053E000FF1E0000FFE0FFFFAF5D0000FB1C002080
:1053F00004100020F80B0020E55C0000B05D000008
:10540000981C00209E1C0020E220FEF717FFA54BF1
:105410001A78A54B1A70A54EF37EDB0752D5FCF720
:105420002DF983B20393029BA14D9B78002B65D08D
:105430002B785B0705D500229E4B03991000FFF7E0
:1054400089FB9D4B9C422AD09C4B9C4252D09C4B4A
:105450009C4228D101212A78D307DB0F4B400B4017
:105460008A4313432B70FEF7C9FE1CE02C20FFF784
:105470002FF83B783920002BC9D0FFF729F8C6E771
:10548000E220FEF7DBFE8F4B53201B78002BBED1B2
:10549000F3E72820F1E72820FFF716FCB7E7012300
:1054A0002A7813432B70884B884AE3189BB29342A7
:1054B00005D9874B874AE3189BB2934224D8002230
:1054C000854B1A80854B9C4200D15BE100D913E1EA
:1054D000834B9C4200D151E1824B9C4200D16AE156
:1054E000814B9C4200D00EE126230093BB331A006F
:1054F000210051E101222B789343B3E7E12C11D134
:1055000010222B7893432B702B78DB07DAD5029B84
:105510009A78272C24D81E2C61D2042C2DD2002A54
:10552000CDD1CFE7E52C02D12B782022EAE7664BDC
:10553000664AE3189BB2934205D9654B654AE31866
:105540009BB29342E0D82B785B07BBD50223707FD8
:105550001840B7D1574B02000399FFF7FBFAB1E7A8
:10556000382C07D82D2C01D22B2CD8D1F37E5B07F9
:10557000D5D405E0642CF9D0D1E7F37EDB06CED498
:10558000002A00D186E00226474B584F1B7807932C
:105590003B780693069A079B13430493B34322D0A8
:1055A00000224D4B1A80414BD97E314091421AD195
:1055B00001250F3223091340224095404C485B00DF
:1055C0001A5AAA431A522000FFF7A2FA3878B043B9
:1055D000FCF7F8FE3000FFF737F8FFF7FBFBF37E30
:1055E0001B079CD4CCE7334E0A2202993000FAF70D
:1055F0007DFE0023B370B380374B1F88BC4232D18D
:105600002A4BDA7E93062ED5294B1B789B07DB0F9E
:10561000059301D0530626D5364B02991E88039B6D
:1056200038009E1BB6B2FDF791FE86421BD20220C7
:10563000079B034206D010231D4A11780B431370B9
:10564000FCF7DEFE2020184B1B78034205D0184AD9
:10565000137803431370FCF7D3FE05993800FFF766
:1056600057FAFFF7B7FB0222049B022613401A00E9
:105670002B780698B3431343B0432B70FCF7A2FE7C
:10568000154B039A1C801B4B1A8004232A78134362
:105690002B709FE7029B03992000FFF75BFAFFF74F
:1056A00099FBC0469D1C00201819002054060020BC
:1056B00058020020C60900201B5C00001C5C000092
:1056C0001A5C00009E1C002000A0FFFFFF1F0000CE
:1056D00000C0FFFFFF0F0000C4090020F35C0000C2
:1056E000D85C0000D95C0000D75C00007915002070
:1056F000D0090020F0090020B84B9C4251D046D37D
:10570000B74B9C4252D0029B9A78002A01D100F0FC
:10571000B5FD0021B34BB44D1970AC4250D8B34B1A
:105720009C4204D2B24BE3189BB2132B4FD8FDF727
:10573000A3FFB04EB04B30809C4200D1C1E100D9F4
:10574000CDE0AE4B9C4200D196E100D9A8E0AC4B35
:105750009C4200D138E100D999E0AA4B9C4200D18B
:105760002CE100D92DE1A84B9C4200D11DE13088ED
:10577000FEF72FFBFEF7C6FFFFF72CFB2723009356
:10578000BE33B4E62623E0220093BB33B0E62723E2
:10579000E4229E490093BE330298FFF729F9FFF7F0
:1057A00019FB2623E2220093BB33A1E62723E6223E
:1057B0000093BE339CE62823E5220093273B97E61F
:1057C000934B9C42B3D05CD8924B9C42AFD0924B4F
:1057D0009C4201D100F057FD904B9C4200D1C5E1A5
:1057E00000D9A6E15B3BFF3B9C4200D1ABE18C4B77
:1057F0009C4200D1AEE1029B1889002800D1B9E19A
:10580000FCF778FC0022029B864D9F789B79041C54
:105810001B0903932B7804925B071FD004979742D0
:105820001CD023041B0E0F329343402B06D02300C1
:1058300000222033DBB20492072B0FD900226D4BDC
:1058400004925B785B0709D50220FEF7FDFE072274
:105850002B7813405A425341DBB204932304180FB0
:105860000B2800D9BEE1FAF7CFFFA101A1010C027C
:105870000C02C102BD01BD01BD01EF024D035E037B
:105880005E03694BE3189BB2022BA0D84FE7674B2E
:105890009C4200D1EDE000D8E8E03278402386E079
:1058A000634B9C4200D1FAE008D8624B9C4200D185
:1058B000ECE000D8E6E033780222E9E05E4B9C425F
:1058C00000D1F8E000D2EDE05C4B9C4200D1F5E065
:1058D0005B4B9C4200D04AE733784022D8E0594BDA
:1058E0009C4200D1F6E02CD8404B9C426FD017D898
:1058F000554B9C4200D1FDE000D2E8E0534B9C4266
:1059000000D034E70121042033785A07D20F4A40EF
:105910000A40910083430B430821D2008B4346E0A9
:105920004B4B9C4200D1C0E054D34A4B9C4200D127
:10593000BEE0494B9C4200D019E7032372789A439A
:105940003AE0344B9C4200D1E0E00DD8434B9C42FE
:1059500000D1D9E000D2C0E00021AC4200D006E77F
:105960000E20FEF7B8F902E73D4B9C4222D00AD840
:10597000274B9C4200D0FAE601213278D307DB0F97
:105980004B400B40CAE0374B9C4200D182E0364B83
:105990009C4200D0EBE6012172781307DB0F4B40ED
:1059A0000B400731DB008A4306E0012332781343C2
:1059B0003370DCE60823727813436EE032780223FA
:1059C000F5E732780423F2E732780823EFE77278BC
:1059D0000123F1E772780223EEE7C046F55C000090
:1059E000F65C000020190020025D0000FA5C000057
:1059F000FEA3FFFFFE0F0020125C0000095C000008
:105A0000055C0000035C0000025C0000F45C000028
:105A1000A55D0000615D0000165C00005A5D00009D
:105A2000DE5C00007415002053A2FFFF075C00003D
:105A30000D5C00000B5C00000F5C0000105C0000BF
:105A4000115C0000FF5C0000145C0000155C0000AD
:105A5000FC5C0000FD5C0000FE5C0000015D0000DD
:105A6000AD5D0000AE5D0000AF5D00003278102338
:105A70009DE7327820239AE7FEF744FE80233278B0
:105A80005B4294E70C2332789A4390E70122337803
:105A900093438DE7082273789343737067E63378F6
:105AA0000422F5E733780822F2E773780122F3E75E
:105AB00073780222F0E733781022E9E73378202266
:105AC000E6E7FEF71FFE7F223378134070E7337856
:105AD0000C22DDE773780322DEE701217378DA0711
