:020000041000EA
:1000000000B5324B212058609868022188439860DF
:10001000D860186158612E4B002199600421596104
:100020000121F02299502B49196001219960352056
:1000300000F044F80222904214D00621196600F024
:1000400034F8196E01211966002018661A6600F04E
:100050002CF8196E196E196E052000F02FF8012189
:100060000842F9D1002199601B49196000215960AB
:100070001A491B48016001219960EB211966A021F2
:10008000196600F012F800219960164914480160C1
:100090000121996001BC002800D000471248134993
:1000A000086003C880F30888084703B5996A0420EC
:1000B0000142FBD001200142F8D103BD02B5186610
:1000C0001866FFF7F2FF186E186E02BD00000240BE
:1000D000000000180000070000035F00212200005C
:1000E000F4000018222000A00001001008ED00E03C
:1000F000000000000000000000000000070B8FD58A
:10010000000404209D020010553F00109F020010C3
:100110009F0200109F0200109F0200109F0200101B
:100120009F0200109F0200109F0200109F0200100B
:100130009F0200109F0200109F020010713E0010ED
:100140009F0200109F0200109F0200109F020010EB
:100150009F020010C53B00109F0200109F0200107C
:100160009F0200109F0200109F0200109F020010CB
:100170009F0200109F0200109F020010313F0010EC
:10018000F13E00109F0200109F0200109F0200101D
:100190009F0200109F0200109F0200109F0200109B
:1001A0009F0200109F0200109F0200109F0200108B
:1001B0009F0200109F0200109F0200109F0200107B
:1001C00072B6254880F30888244880F30988022005
:1001D00080F31488BFF36F8F21482249086003F031
:1001E000EFFC03F01AFF204820491B4A914202DA33
:1001F00008600431FAE71E49184A914202DA0860A1
:100200000431FAE71B491C4A1C4B9A4204DA08687D
:10021000106004310432F8E700201949194A91426C
:1002200002DA08600431FAE703F0DEFE03F0F6FEBE
:10023000154C164DAC4203DA216888470434F9E7BF
:1002400007F018F8124C134DAC4203DA21688847C6
:100250000434F9E71049084700040420000C042086
:100260000001001008ED00E0555555550000042030
:1002700000040420A8980010000000205C05002065
:100280005C050020F82C0020C0010010C001001007
:10029000C0010010C00100101940001090E700F0EC
:1002A00000F8FEE7F0B544464D4656465F46F0B4CA
:1002B0006B46CB60C3689D46F0BCA046A946B246DB
:1002C000BB46F0BD03F00CFE62B6281CA047002020
:1002D00003F054FEFEE703F065FE024A024B136092
:1002E000FEE7C04604ED00E000000080F0B5CE4619
:1002F000474615042D0C2E0080B50704140C3F0C46
:100300009946030C7E435D43674363437F19340C76
:10031000E4199C46A54203D980235B029846C44455
:100320004B4643435143250C36046544360C2404A4
:10033000A4195B19591820000CBC90469946F0BDD1
:1003400002B4714649084900095649008E4402BC6E
:100350007047C04602B4714649084900095C49002B
:100360008E4402BC7047C04603B471464908400041
:100370004900095E49008E4403BC704703B47146CE
:10038000490840004900095A49008E4403BC70479F
:10039000002243088B4274D303098B425FD3030AC4
:1003A0008B4244D3030B8B4228D3030C8B420DD3D7
:1003B000FF22090212BA030C8B4202D31212090265
:1003C00065D0030B8B4219D300E0090AC30B8B42A3
:1003D00001D3CB03C01A5241830B8B4201D38B0351
:1003E000C01A5241430B8B4201D34B03C01A5241F6
:1003F000030B8B4201D30B03C01A5241C30A8B4239
:1004000001D3CB02C01A5241830A8B4201D38B0223
:10041000C01A5241430A8B4201D34B02C01A5241C7
:10042000030A8B4201D30B02C01A5241CDD2C30939
:100430008B4201D3CB01C01A524183098B4201D3B5
:100440008B01C01A524143098B4201D34B01C01AA0
:10045000524103098B4201D30B01C01A5241C30818
:100460008B4201D3CB00C01A524183088B4201D387
:100470008B00C01A524143088B4201D34B00C01A73
:100480005241411A00D20146524110467047FFE7DF
:1004900001B5002000F0F0F802BDC0460029F7D0F9
:1004A00076E7704703460B437FD4002243088B4214
:1004B00074D303098B425FD3030A8B4244D3030BEB
:1004C0008B4228D3030C8B420DD3FF22090212BAB0
:1004D000030C8B4202D31212090265D0030B8B422C
:1004E00019D300E0090AC30B8B4201D3CB03C01A16
:1004F0005241830B8B4201D38B03C01A5241430BF1
:100500008B4201D34B03C01A5241030B8B4201D3E0
:100510000B03C01A5241C30A8B4201D3CB02C01A4B
:100520005241830A8B4201D38B02C01A5241430AC3
:100530008B4201D34B02C01A5241030A8B4201D3B2
:100540000B02C01A5241CDD2C3098B4201D3CB0159
:10055000C01A524183098B4201D38B01C01A524108
:1005600043098B4201D34B01C01A524103098B420C
:1005700001D30B01C01A5241C3088B4201D3CB00F7
:10058000C01A524183088B4201D38B00C01A5241DA
:1005900043088B4201D34B00C01A5241411A00D28A
:1005A00001465241104670475DE0CA0F00D04942F3
:1005B000031000D34042534000229C4603098B4263
:1005C0002DD3030A8B4212D3FC22890112BA030AEB
:1005D0008B420CD3890192118B4208D3890192116D
:1005E0008B4204D389013AD0921100E08909C309F2
:1005F0008B4201D3CB01C01A524183098B4201D3F4
:100600008B01C01A524143098B4201D34B01C01ADE
:10061000524103098B4201D30B01C01A5241C30856
:100620008B4201D3CB00C01A524183088B4201D3C5
:100630008B00C01A5241D9D243088B4201D34B00E0
:10064000C01A5241411A00D20146634652415B1022
:10065000104601D34042002B00D549427047634603
:100660005B1000D3404201B5002000F005F802BD48
:100670000029F8D016E770477047C046002B11D10B
:10068000002A0FD1002900D1002802D00021C9433F
:10069000081C07B4024802A14018029003BDC046DE
:1006A000D9FFFFFF03B4684601B5029800F006F8D1
:1006B000019B9E4602B00CBC7047C046F0B5574641
:1006C0004E464546DE46E0B5040083B00D00924636
:1006D00099468B4230D82DD04946504600F0C0F89C
:1006E00029000600200000F0BBF8331A9846203B92
:1006F0009B4633D45A465346934042461F005346C6
:1007000093401E00AF423AD8AF4200D17BE05B4637
:10071000A41BBD41002B00DA78E0002200230092E8
:10072000019301235A46934001930123424693408B
:10073000009328E08242CFD9002200230092019347
:100740000C9B002B01D01C605D600098019903B0E8
:100750003CBC90469946A246AB46F0BD424620239B
:100760009B1A5246DA40414613004A468A40170017
:1007700042461F43534693401E00AF42C4D9002255
:100780000023009201934346002BD9D0FB079C46DF
:10079000614672080A437B0846460EE0AB4201D12F
:1007A000A2420CD8A41A9D41012024196D410021B8
:1007B000013E24184D41002E06D0AB42EED9013E39
:1007C00024196D41002EF8D1009801995B4600195B
:1007D0006941002B25DB2B005A464446D3402A00B2
:1007E000E2401C005B461500002B2BDB26005F4619
:1007F000BE40330026004746BE403200801A994171
:10080000009001919CE7A342B9D880E7424620239B
:1008100000219B1A0022009101920122DA400192EC
:1008200083E7424620239B1A2A0046469A4023002B
:10083000F340444613432A00E2401C005B46150087
:10084000002BD3DA2023424626009B1ADE402F00DD
:10085000B4464646B74066463B003343CAE7C04607
:1008600010B5002903D100F007F8203002E0081C81
:1008700000F002F810BDC0461C2101231B04984261
:1008800001D3000C10391B0A984201D3000A083921
:100890001B09984201D30009043902A2105C4018D8
:1008A0007047C0460403020201010101000000007C
:1008B00000000000F0B505000C2485B00F00110EFB
:1008C0001202019201981A0000230291FFF7D6FE4E
:1008D0006C43274B0600E41863680391834200D2FF
:1008E00060602B1FDBB20093C023009A9B0123435F
:1008F000012A2ED8012F2CD103221A603B00A268B6
:100900001A42FCD0E0222368134080225201224385
:100910001360009B012B09D8032123687B400B4007
:1009200013600123BB40A2681342FCD080238022C5
:100930009B01234312011A600198039B66603200F9
:100940000299FFF79BFE0B4BAD00E850012005B06C
:10095000F0BD802212011A60064BAA00D15800296E
:10096000D0D05869FFF714FD01300138FDD1C9E737
:1009700000800040A40B002070B5040008001E4950
:100980001500FFF705FD802223682D0492012A43FC
:10099000002B0FDA3F2123680B40012B0AD1A368FB
:1009A0001B051B0D984205D1EE21E368C9020B40DF
:1009B0009A421CD0114B9C421AD080235B011049F3
:1009C000104D0B6010490B601E00A9688E43FBD1CF
:1009D00001232360C023211D9B010B432121A06023
:1009E000196021680029FCDAE26008221A6070BDF3
:1009F00080239B01E3E7C046001BB70000C0024014
:100A000000E0004000C0004000F000408322274B7F
:100A1000920010B5DA620022AA21254B09019A67DB
:100A2000244A254811602F21D1602449086051686B
:100A30000029FCDA0121224A11605A6C012AFCD1FA
:100A40000321204A11609C6B012CFCD106221E4917
:100A50001E48FFF791FF05221D491E48FFF78CFF36
:100A60001D4B02211A000420FFF724FF1B4B21001D
:100A70001A000520FFF71EFF194B00211A0007205E
:100A8000FFF718FF164B00211A000820FFF712FF8E
:100A9000144B134A00210920FFF70CFF0F4B0021D4
:100AA0001A000620FFF706FF10BDC0460080054073
:100AB000008000400040024000B0FA0000600240A8
:100AC0003CB0004030B00040002F68590080024028
:100AD00000389C1C00C00240001BB700405973073F
:100AE000006CDC021BB7000010B5002903D1012403
:100AF0000A4A0B4BD4500B4ACB009B188022DC6F68
:100B000012012243DA6701220231890041184B6841
:100B10005B695A7500229A7510BDC04600001150DD
:100B2000682000000400105010B5002903D10224F1
:100B30000A4A0B4BD4500B4ACB009B188022DC6F27
:100B400012012243DA6701220231890041184B6801
:100B50009B69DA7400221A7510BDC046000011505E
:100B60006820000008001050F0B5002930D11D4B5E
:100B7000DD6C8B1C9B00C018406801228469267DB7
:100B8000A27433005F1EBB41724022752668408A02
:100B90005F03B04200D930008023DB000343124AD8
:100BA0009BB23B43134062688018864202D8802281
:100BB000D20113430D4A15408022920515430029A6
:100BC0000BD1084AD5640A4AC90089184B60F0BDA8
:100BD000084ACB009B185D68CBE70648CA0012188C
:100BE0005560F0E700001150FF7FFFFFFFFFFFAFF0
:100BF00080001050000010507F220138C3171340AE
:100C00001B18DB110133DB0102329BB2FF3210B53E
:100C100093420ED0FF2480220749D20024025918A3
:100C20001000214204D0181C934200D9101C80B23D
:100C300010BD80208000FBE780FDFFFFF0B58B1C1E
:100C40009B00C3185F6885B000900C1E7E69BD696B
:100C500010D14023414AB383B261B182B175698238
:100C600029758021AA61AB833D4A3E4B8905D1504D
:100C700005B0F0BD002E38D03B4BCA00D31803930B
:100C80003A4BD2180023D367B3753A68B382019206
:100C9000012A5FD1388AFFF7AFFF8022022392003A
:100CA000904208D080220133D200904203D0431EEC
:100CB000FF3B5A425341DB060293009AE2329446CC
:100CC0006346118842008A181A80294BB083CA18DB
:100CD000019B8131B261FF319A060A4380210906E6
:100CE0000A430399029B04C1CB67002DC0D01E4B61
:100CF000E400E6181F4B4020E4180023E3672B753F
:100D00003C686B82012C11D1388AFFF775FF802275
:100D100002239200904208D080220133D2009042F8
:100D200003D0431EFF3B5A425341DB06009AA40600
:100D3000E2321188471817800D4AA8838A18AA61E1
:100D400080228131FF310C4312061443746008364F
:100D5000F3678DE702934020AFE7C04600011050D3
:100D6000000011504C2000000000105004001050F2
:100D7000800110500800105010B50E4C0E4B200092
:100D80000021E360FFF75AFF00230C4AE2341360AE
:100D9000012223800A49D0000A4C4018D1000C19C6
:100DA0008360E367C360084801320918CB670F2AE4
:100DB000F0D110BD80060020F08F0010000011500F
:100DC000F8FF0F500400105008001050034B1A6831
:100DD00082431A609A681042FCD0704700C00040FD
:100DE000BFF35F8FD023BE221B0652009B5062B61A
:100DF000704772B6D021BE22090652008B58002BD4
:100E0000FCD0BFF35F8F704770B50E0001210C005E
:100E1000B4400500408920436881B01C8000281838
:100E200040688469A260002223606260E2609342AD
:100E300005D0418A013B5818FFF7AAFA81B22182F6
:100E400028003100FFF790FE70BD00000300020093
:100E500010B5D6331B78DE3213707F221340064A5A
:100E60000400136043681B68002B01D001219847E0
:100E70000323237010BDC04600001150036910B554
:100E80001960C268013AC260C2699B188269036135
:100E9000934201D3436A036100238362036B002BF7
:100EA00000D0984710BD436902699A4203D1C268D5
:100EB0000020824202D1180008C80B607047C36846
:100EC000C269013BC360436910B59B1882694361E5
:100ED000934201D3436A436100238362036B002B77
:100EE00000D0984710BD000010B5FFF782FFEFF368
:100EF0000983203B83F3098880225204DA61D022DF
:100F000012061168064A8900521852681168D268A0
:100F100088689168034A884200D9034A9A6110BDE3
:100F2000880B0020DA020010D7020010FEE7002331
:100F30008268037503691B6899689142FBD25A68FD
:100F40000360426010605860704710B50C00FFF7F6
:100F500050FF207D052807D8FFF7FCF90C06060393
:100F6000130F0022A3691A6001235B42A3612000D2
:100F7000FFF7DDFFFFF734FF10BDA269936801336F
:100F800093606268236813605A60EDE7D0231B0604
:100F90001968084A890052185268016910B59142CF
:100FA00005D01A6D920702D5012252425A65FFF709
:100FB000BEFF10BD880B002070B5022504006D42F5
:100FC0002068844200D170BD036823605C60856145
:100FD000FFF7DCFFF4E770B505000E000468AC42D3
:100FE00000D170BDE3683343E360236933420AD024
:100FF0006068A368C2691343027DC3610A2A04D1F1
:1010000082691A4207D12468E9E70B2AFBD1826979
:1010100013409A42F7D100238361FFF7B7FFF2E74D
:10102000036810B5002B05D00022026099611800FA
:10103000FFF7ACFF10BD0000D0231B061A68094B58
:1010400092009B185968036810B59A688468121951
:101050009A60426813605A6000230360013B8B6111
:1010600010BDC046880B002010B503689C68A242E2
:101070000CD85C688A600B604C602160596099688C
:101080008A1A9A6001235B42836010BD121B1B68A1
:10109000ECE7000070B50D4C050023680E00002B36
:1010A00002D02000FFF7C8FFD0231B061A68084BA8
:1010B00092009B185868074B2A00E3600023103009
:1010C000210026616361FFF7CFFF70BDC80F0020CC
:1010D000880B0020692C001070477047C26F70B5F4
:1010E0001468030021780120042919D1197A0229F2
:1010F00016D10500517962898D40154210D1DA6907
:101100001D6AAA4202D19D69002D09D10432012035
:10111000002A05D09B6A2000043BFFF775FE0020E3
:1011200070BD2131890010B50C58002C2CD0FFF770
:1011300060FE0421201DFFF74EFF2100E36F0C31FC
:101140001A685B7902339B00D3185B689B695A6805
:10115000E3691A60A2690132A261A26A9B18626AFD
:10116000E361934201D3236BE361E068814206D0DF
:101170000368E360596000238361FFF707FF2000E5
:10118000FFF7ACFFFFF72CFE10BD10B5406BFFF76B
:10119000A5FF10BD37B56B46D91D0023074C08705D
:1011A00022789A4200D1323305480268D56901227B
:1011B000A8474342434140B223703EBD881C0020F3
:1011C0005803002070477047014B18787047C0469D
:1011D000E00F002070B50500D4352A787F21130078
:1011E00004000B40212B00D08FE013008B432FD045
:1011F000802B00D089E00300D533187802281ED058
:10120000032810D0012800D07FE003331B78002B87
:1012100000D069E022005E49C8321160202151608F
:10122000D034236070BD2300D8331B88002B6CD1D1
:10123000220001205749C83211605060F0E72300B6
:101240000120554AC8331A605860D0340023E8E7BB
:101250000300D5331B780A2B4DD00B2B13D0092B51
:1012600053D10300D8331B78002B01D0022B4CD173
:1012700023004A4AC8331A6002225A60484BD034CD
:1012800023600120CEE70300D8331B88002B2BD12D
:101290000300D6331D7843482A00531E9A41D3B227
:1012A0003C4A13700278DB010A4013430370002D9F
:1012B0001AD1394E3378002B16D0FFF79AFD3A4AEF
:1012C000002330782900FFF711F80023374A8018EF
:1012D0005941FA2200239200FFF7D0F92100800043
:1012E000FFF7D8FEFFF77CFD22000023C832136011
:1012F0005360D034C4E703002A4AD7331B78264E04
:1013000015783370ED09EFD1D5E7294B298899423B
:101310000BD0284B1900C2310978002921D1264968
:101320005B5C002B1DD100207CE72300D9331A78A9
:10133000013B1B7812021343210022006068D63261
:10134000D7314568127809782000A8470028EAD0EC
:1013500023004268C8331A6002685A60D034002300
:101360008EE760231A40202ADDD12300D5331B7875
:101370000020202B00D255E7212B02D9222BB3D0FD
:1013800050E723000D4AC8331A600722E5E7C0463C
:10139000E10F002040050020C40F00202819002084
:1013A000C11300100210002010270000E703000006
:1013B0008106000078020020220200004105002082
:1013C000DA30084A01781378022907D1012B01D0BD
:1013D000062B02D15278044B1A707047024A1370E0
:1013E000FBE7C04628190020E00F00200F2230B58F
:1013F00007490C78631C1340064A157800229D4269
:1014000003D0054A0B7010550122100030BDC046B4
:10141000640C0020650C0020540C002009020A43D3
:1014200011B2120A032A12D006D8012A25D0022AA4
:1014300026D00023180019E0212A11D0222AF8D141
:10144000032BF6D8104A99008858104A06E0CBB210
:10145000032BEED80E4A990088580E4AD35C05E05B
:10146000032BE6D80C4A9B00985809230B4A50607E
:101470001360002800D01000704712230848F5E7D9
:101480007B230848F2E7C046D48C0010E48C00109F
:101490007C8C00108C8C0010C48C0010040C00207C
:1014A000858D0010E88C00101423188804331B88E5
:1014B000034910B598470021030008009847C0462B
:1014C00055420000064B10B51A88824206D018809B
:1014D000044B1B68002B01D01B69984710BDC04608
:1014E000041000200C0C0020064B10B51A88824214
:1014F00006D01880044B1B68002B01D0DB6898478E
:1015000010BDC0462E1000200C0C0020034B10B55F
:101510001B68181E01D01B68984710BD0C0C0020DA
:1015200020B585780123002D06D0037A29401B07BA
:1015300004D54B1E9941CBB2180020BD0F232A00C1
:101540002D091A400B4009092A430B43D31A58426C
:101550004341DBB2F0E7000010B5104C0A21A0882F
:10156000FEF716FF0E4B0A211870E2880D4B1A7019
:1015700062890D4B1A70A2890C4B1A70E089FEF734
:1015800007FF0B4B1870228A0A4B1A70628A0A4BAB
:101590001A70A28A094B1A7010BDC0465C06002062
:1015A0004C0500204D0500204E0500204F05002071
:1015B0005005002051050020520500205305002051
:1015C000024B1A88024B1A807047C0465C06002006
:1015D0005A020020002210B5064B074C0748084964
:1015E0005A6101329C60D86019611833202AF7D102
:1015F00010BDC04670190020314300109542001004
:1016000035410010B823DB01984205D1034B1B681C
:101610005A1E93415B4218407047C046580500204F
:1016200010B55200054C1218091A035BDB430B522C
:1016300002309042F9D1012010BDC04600E01F10D9
:1016400010B5EFF3108372B6044C236007F004FB6F
:10165000236883F31088012010BDC0466C0C002065
:10166000044A054B0220D15C002902D00021013838
:10167000D1547047F01C002004100000044A054BB0
:101680000220D15C002901D10138D0547047C046F6
:10169000F01C002004100000F0B58FB0FFF7EEFF43
:1016A0000B90EFF3108372B68022FF20324E334F3F
:1016B0001201310040033B6007F0D6FA3B6883F328
:1016C000108880200021B4462D4A2E4B40016646EA
:1016D000775C1D0057403B02099300233C000893B0
:1016E0003A002B0012196B413F0F2E013E43019629
:1016F00026010096009E019F92197B4112196B41B1
:10170000E70E6E013E43039666010296029E039F1A
:1017100092197B41670EEE013E430596E601049661
:10172000049E059F92197B41270E2E023E43079689
:1017300026020696069E079F92197B41089E099FE6
:10174000013192197B418142C1D10C920D93EFF38B
:10175000108372B6094C04220CA90B48236007F0D1
:1017600083FA236883F310880B9B012B01D1FFF7C9
:1017700077FF02200FB0F0BDF01C00206C0C0020A1
:1017800025232284E49CF2CB00F01F0070B5802456
:10179000084D6401084B2A5901209A4209D9FFF7E4
:1017A0004FFF03000020834203D0FFF775FF034B78
:1017B0002B5170BDF01C0020FF1F0000081000001E
:1017C00073B580246A460C4D6401911D2B59088025
:1017D000EFF3108272B6094E3260FF22520398185E
:1017E000012207F041FA336883F310882B59023342
:1017F0002B51FFF7CBFF76BDF01C00206C0C0020B6
:10180000022210B53B4B9A56F0280AD1D9787F298D
:101810000DD90021D9708A420BD10021364A1170AE
:1018200007E0F1280ED1032159560029F1DC002AE6
:101830000ED01A795B7913435BB2002B01D12F4A8A
:10184000137010BDF22808D1002AF0DA00229A7035
:1018500003229A56002AECD1DFE7F32802D1002AAE
:10186000F4DCE4E704215956F92804D10029DEDD2F
:1018700000211971DBE7FA2802D10029D7DAF7E74E
:1018800005215956FB2804D10029D0DA00215971CD
:10189000CDE7FC2802D10029F8DCC8E7F42804D100
:1018A0005978F33881435970C1E7F528F8D0F62804
:1018B00002D15978F238F5E7F72802D15978EF3894
:1018C000F0E7F82802D15978E838EBE7FD2805D190
:1018D00001240B480178A1430170A8E7FE2803D139
:1018E000074802240178F6E7FF28A0D10448042421
:1018F0000178F0E76C1500207315002074150020A6
:101900007215002010B5154B1A7801231A4207D022
:10191000134B1B789B080120002B0ED0D8B20CE093
:10192000910703D50E4B1B785B08F4E7520705D5EA
:101930000B4B1B787F208342EDD910BD094A1278EA
:10194000002AEBD0084B1978054B18788A4201D34E
:1019500083B2EFE75043FEF7A5FDF9E772150020CB
:1019600052050020741500205305002010B5184BB7
:101970001A78184B1B89D1070CD5174A10784343A6
:101980009B109BB27F20834203D87E38002B00D06F
:10199000D8B210BD910704D50F4A107843435B10AD
:1019A000EFE7520703D50C4A10784343E9E70B4AA7
:1019B00010780028E6D00A4A1178074A1278534373
:1019C0008842DED25843FEF76DFD83B2DAE7C046A7
:1019D000721500205C0600204E05002073150020C3
:1019E0004F05002010B5F02805D1FFF7BFFF40429A
:1019F000314BD87010BDF12802D1FFF7B7FFF7E7E0
:101A0000F22805D1FFF7B2FF40422B4B9870F1E767
:101A1000F32802D1FFF7AAFFF7E7F92804D1FFF76F
:101A200071FF254B1871E5E7FA2803D1FFF76AFF2C
:101A30004042F6E7FB2805D1FFF764FF40421E4B0A
:101A40005871D7E7FC2802D1FFF75CFFF7E7F428CD
:101A500005D10123184A51780B435370CAE7F52882
:101A600003D1154A02235178F6E7F62803D1124A2A
:101A700004235178F0E7F72803D10F4A082351785F
:101A8000EAE7F82803D10C4A10235178E4E7FD284F
:101A900005D10123094A11780B431370AAE7FE28E8
:101AA00003D1064A02231178F6E7FF28A2D1034AA0
:101AB00004231178F0E7C0466C1500207215002051
:101AC00010B5024B1B68984710BDC0463C0500206E
:101AD0000300DA680800511C10B5D96019698A4200
:101AE00004D21C68002C02D05968A04710BD9B6826
:101AF0009854FBE7F7B51F00C36804000093089BE8
:101B0000019115009B070DD0002D0DD1089B9B075F
:101B100015D4F7BD20212000FFF7DAFF0136BE42C1
:101B2000F8D3F1E71600FAE7019B013D595D20006B
:101B3000FFF7CEFFE8E720212000FFF7C9FFE368A9
:101B4000009A9B1ABB42F6D3E3E70000F0B58FB0D2
:101B5000049003921D00169C002923D123051DD457
:101B6000302206AB1A70102301319C430A00A307F0
:101B700044D40123159A2340002A0BD00A00002BDD
:101B80003CD0039A002A02D10C32144202D0159A9A
:101B9000013A15920A0006A8302628E0102DE5D15A
:101BA000AC43E3E76123A20600D541230F000026E2
:101BB000DBB20A3B059329003800FEF76FFC059B5A
:101BC000CAB2D3188446DBB2092902D813003033D5
:101BD000DBB2082004AA1218711C9355BD42C5D867
:101BE0000E002029C2D06746E5E716540132002BCB
:101BF00004D0159F974201D9202AF6D106A8302398
:101C000001E083540132149E964201D9202AF8D172
:101C1000082D03D1914201D210239C43274B1C4233
:101C200025D0230537D4002A35D0149B934202D007
:101C3000159B93422FD191423CD2013A002A2AD0DF
:101C4000102D25D0022D0DD18A4223D801E0022D7E
:101C500008D11F2A26D8622302E058231F2A21D840
:101C6000835401321F2A1DD83023835401321F2A86
:101C700018D8039B002B03D02D238354013211E08D
:101C8000630701D52B23F8E723070BD52023F4E7BF
:101C9000914202D2013A102DD9D1A306DDD4782386
:101CA0001F2ADDD901000094159B0498FFF722FF3D
:101CB0000FB0F0BD102DC5D1EFE7C04610200000D9
:101CC000F0B5070015008BB00591059B1978002928
:101CD00011D13B68002B0BD13A69002A08D0B968B2
:101CE000002905D0FB689A4200D8531E0022CA542E
:101CF000F8680BB0F0BD059B002001330593252942
:101D000000D0DBE008242439059B059A1B780132BA
:101D10002B2B16D00BD8202B15D0232B15D0190028
:101D20003039092933D800230A24049315E02D2BD8
:101D300004D0302BF3D108430592E5E70223184382
:101D4000FAE70423FBE72043F6E71023F7E7049BB9
:101D500005916343303BD3180493059B1A78591CB3
:101D60001300303B092BF2D9059B1B782E2B4ED14B
:101D7000802212011043059A059B5278013311000D
:101D80003039092939D80A220026944613E0002167
:101D900004912A2BE8D108CD04938B4204DA022364
:101DA0001843049B5B4204930592DDE763465E4360
:101DB0002300303E96191A785C1C1100303909292D
:101DC000F4D919785A1C6C292BD023D8682930D023
:101DD0006A2936D01A001178531C0593692937D027
:101DE00063D8622900D126E12ED8252966D058294A
:101DF00064D120231843103B3AE000262A2AE0D180
:101E000040CDF343DB171E40059B0233D9E7059B0A
:101E10000026D6E7742901D07A29DBD180239B00E4
:101E20000BE059786C29F9D1C022D20010439A1CDA
:101E3000D1E75978682902D080231843CBE7C02224
:101E4000F4E78023DB00F8E7632969D0642935D102
:101E50008023DB011843782938D05829C9D06F294D
:101E600000D1E6E0622900D1E5E010239843063B6B
:101E7000020501D5012290438022D2000240410494
:101E80002ED5002A00D020E72C1D296882051FD5F9
:101E9000CD1702900498CA0F491969400190009625
:101EA0003800FFF753FE25000FE7732959D009D8F2
:101EB0006F2900D1BDE0702900D1A3E03800FFF701
:101EC00007FE02E77529D0D07829F7D11023CFE794
:101ED000420601D549B2DBE70206D9D509B2D7E7F8
:101EE000002A00D0F1E60C2104008C43A4462C1DEE
:101EF000810506D5614602910499009601912968F1
:101F0000CEE72968420607D5C9B262460292049A12
:101F1000009601920022C3E70206F6D589B2F4E7E3
:101F20000224012604400AD1012304E020213800C4
:101F3000FFF7CEFD3300049A5E1C9A42F6D802CD1C
:101F40003800C9B2FFF7C4FD002C00D1BDE6049BE8
:101F5000B34200D8B9E620213800FFF7B9FD0136B9
:101F6000F5E72B0004CB06920793002A08D10090D6
:101F7000049B062231493800FFF7BCFD079DA4E60B
:101F8000331E00D12E4B069A1500D3182A78002A4A
:101F900001D0AB4214D1069BED1A80231B010340F4
:101FA000089302D0B54200D93500022303400993BB
:101FB00004D1049B6C1CAB4204D82500069C0BE0AA
:101FC0000135E3E720213800FFF782FD2500F0E727
:101FD00038000134FFF77CFD2178002906D0089BEA
:101FE000002BF5D0069B9B199C42F1D1099B002B3D
:101FF000C4D0049BAB42C1D920213800FFF768FD53
:102000000135F6E70F4C02CD0443002907D10094B7
:102010000A2305220C493800FFF76CFD55E60A2318
:10202000029401930096063300223800FFF78EFDDC
:102030004BE608231CE702231AE7C04690970010DE
:10204000FFFFFF7F012000009797001010B50400EC
:10205000FEF7CFFE0123D022A34012069362064A68
:10206000E3009B1805225A60044BA400E4184A239D
:102070006360FEF7B5FE10BD0040014000C00140A6
:102080000020704730B5042427490A78224205D041
:1020900018230340082B27D198432043130708D562
:1020A0001824050014232540A54225D1A843C0B219
:1020B000184301244978214206D018230340082BF5
:1020C00021D19843C0B220438B0708D518210400C2
:1020D00011230C408C421FD1A043C0B21843D30639
:1020E00001D5E723184030BD14230340042BD5D17C
:1020F000984304331843D1E70340142BD9D19843B4
:10210000C0B22043D5E711230340012BDCD1984313
:10211000C0B207331843D7E70340112BDFD19843F0
:10212000C0B20843DBE7C0460210002070B50400CF
:10213000822829D032D8312800D188E020D8292817
:1021400000D17AE02A2800D187E0924B9C4200D946
:10215000A4E0FF3B9C4200D3E9E0E72C00D98BE0F0
:10216000E02C59D2A72C00D97DE0A52C00D3D6E0D5
:10217000012C51D023B2002B38D0042C36D34BE0A5
:10218000352855D03928E0D1834B1A78920700D0F2
:10219000F9E05B781B07D8D529243DE0E32827D058
:1021A0000BD8E02816D0E228CFD17B4B1B785A07FA
:1021B00032D5E324DB0619D42EE0E62828D0E72820
:1021C0002CD0E428C1D1744B5A78920724D51B78BF
:1021D000E724EFE770480121027813000B4034D167
:1021E0004078084218D0E324D20615D5002413E025
:1021F000694A1378590700D5C3E05278D20700D551
:10220000C1E0102213405A4253415B421C4003E09C
:10221000614B1B781A07DBD4201C70BD5E4A137813
:10222000190700D5B1E052789207EAD5E424F3E724
:10223000594B1B789B06EFD5AEE7574B1A789206A1
:1022400000D5A4E05B781B07E6D53924E4E7524BC0
:102250001B785B06E0D52A24DEE74F4B1B785B0634
:10226000DAD53124D8E7BE2CC0D85834E4B24B4B71
:102270006400E05A882457E0494A944205D8FF2C6C
:10228000CAD8F02CB2D31C43C6E78023DB019C42A2
:10229000ACD344480440A020000246E0424B9C429C
:1022A00012D8FF3BE0B29C425AD2404B9C424ED8DF
:1022B000FF3B9C4248D30324830804400120A040F4
:1022C0005B0118433A4C3CE03A4B9C4210D8FF3B30
:1022D0009C4248D2384B9C4200D987E7E0B2FFF7D6
:1022E000D1FEF8240002640120400134FF341CE0D8
:1022F000324B9C423AD9324B294AE3189BB2934263
:1023000000D973E7E004C00EFFF7BCFEF82300021B
:102310005B011840E4B204438020800105E05B3497
:10232000284BE4B2185D8024E401044374E70323DE
:10233000E4B2A00818401C40023BA3404001224CDC
:1023400018430443A4B267E70002204CEDE70324DE
:10235000830804400120A0405B0118431C4CF0E7B7
:1023600000021C4CE1E720021B4CEAE70F2520008D
:102370002840FFF787FE24092C4024020443174815
:10238000DFE7E22448E7E02446E7E62444E7352493
:1023900042E7C046FF50000002100020948C00105D
:1023A000FF1F0000FF0F0000FF540000FF5200005D
:1023B000008CFFFFFF580000FF550000FF59000090
:1023C00000A0FFFF908C0010008DFFFFF1A0000027
:1023D000008AFFFFF4A00000F0A0FFFF0090FFFFC5
:1023E000024A1378834313707047C0461A190020BD
:1023F000024B1A78104318707047C0461A19002013
:1024000010B5114B1B78002B10D0104B1B787F2B75
:102410000CD9C2081D2A08D80D4B01219B18072290
:10242000104081409A788A439A7010BD062300219B
:10243000074A9478844200D19170013BDBB20132AB
:10244000002BF6D1F1E7C046400500200210002025
:102450006407002070B5154B1B78002B11D0144B6E
:102460001B787F2B0CD9C3081D2B08D8114AD21812
:1024700007231840063B834091780B43937070BD4F
:10248000002301220B495242CC18A4785DB2A0422D
:10249000F5D0561C02D1002C00D12A000133062BA6
:1024A000F2D1531CEBD08A189070E8E74005002069
:1024B0000210002064070020F7B50E4C0E4B247864
:1024C0001B7801940D4C019DAB4201D10020FEBD53
:1024D0000A265E43A5196F788F4205D1365D864284
:1024E00002D1AD78954203D1072501332B40EAE7AD
:1024F0000120ECE7EC1C0020ED1C00209C1C0020BF
:102500000721054B054A1B7812789A4200D1704783
:1025100001330B40F9E7C046ED1C0020EC1C002005
:10252000C3B20004020F10B500200B2A08D8012105
:102530000C00944022000C4C224202D152060BD4D3
:1025400010BDF02B0DD003D8E7229A424041F7E7A7
:10255000F43B58425841F3E70800E72BF0D9F13B30
:10256000F7E70800ECE7C0460C0C000010B50029A6
:1025700004D00223094A11780B431370084B094A0F
:10258000C3189BB2934205D9074B084AC3189BB2A4
:10259000934200D8C0B206F007FB10BDEE1C00202D
:1025A00000A0FFFFFF1F000000C0FFFFFF0F0000A3
:1025B00080201E4A4004136810B503431360FEF7E1
:1025C00005FC80221A4CD2010021200006F039FBC4
:1025D000802200215201174806F033FB092363676C
:1025E0000333A367FEF7C8FB0123236480239B0505
:1025F000E3642300104A90331A608022C1201968D6
:1026000092020A431A600D4B80001A580C4911407F
:10261000C02212020A43C0211A50202249005A50F7
:102620001A608022074B5202E25010BD00C00040E9
:10263000000011500000105010D0010000E100E037
:10264000FF00FFFF4C2000008B1C9B0070B5C318DF
:10265000050050690E0014005A60002803D02022A3
:10266000002106F0EEFAA069002803D02022002104
:1026700006F0E7FA31002800FEF7E0FA70BD00002E
:10268000F8B50600052925D80800FDF763FEC0232C
:1026900024C0C003FEF7ADFB01217348FEF79BFC8D
:1026A000724C00252300F4331D7096235B00E55423
:1026B000FEF796FBFEF79DFB6D480121FEF78BFCB4
:1026C00095239B00E5543833E554FEF789FB05203C
:1026D000FEF78CFEF8BDFEF78CFB664A0121300048
:1026E000FFF7B2FF644A04213000FFF7ADFF5F4CF3
:1026F000624A2300C03319783000FFF7A5FF23009A
:10270000C13319785E4A3000FFF79EFF2300C233C1
:102710001978002903D05B4A3000FFF795FF2300AA
:1027200025000027FC35F8331F606B6956486B6045
:102730002B60AF61EF61FEF73FFC2300F4331F70A5
:10274000AB6C52486B63EB6C2F65EB63AB636F65EF
:10275000FEF732FC96235B00E75401214248FEF766
:102760003AFC4B48FEF7BAFC88239B00E15C494ADF
:102770003000FFF769FF484B484AE15C3000FFF743
:1027800063FF474BE15CB94203D0464A3000FFF794
:102790005BFF9623002598229B00E5501833E358F1
:1027A0009200A350043AA3509D239B00E5500433AC
:1027B000E5503D48FEF700FC95239B00E55450335F
:1027C000E258143BE250A6221833E3589200A3507B
:1027D000043AA350AB239B00E5500433E550334843
:1027E000FEF7EAFBA3239B00E55401212048FEF7F6
:1027F000F2FB2F48FEF772FCFEF7F2FA2D4B1B7826
:10280000AB4202D00520FEF7F1FD022060E7FEF7A3
:10281000EDFDFEF7EEFA02211348FEF7DCFB134C48
:1028200001252300F4331D701748FEF7C5FB9623DE
:102830005B00E5541548FEF7BFFBFEF7D1FAFEF743
:10284000D8FA02210A48FEF7C6FB95239B00E554FF
:102850001548FEF7B1FBA3239B00E5541348FEF790
:10286000ABFBFEF7BDFA35E75C03002078020020E1
:10287000BC0400201090001038970010E0020020E7
:10288000FC02002018030020640300209C030020A9
:102890005803002040040020210200005C040020B6
:1028A0002202000078040020C4040020FC04002060
:1028B000B80400202D10002010B5074B02301B7803
:1028C000002B04D0054B1E221B787F2B00D806223C
:1028D000002106F0B6F910BD4005002002100020CE
:1028E00070B58024044D640128002200002106F008
:1028F000A8F9024B2B5170BDF01C002008100000FD
:1029000070B5FEF7BBFE0400051E03D1FEF7A8FE5E
:10291000200070BDFEF794FE0400FFF7E1FF012DDB
:10292000F6D1FEF79DFE431E98410440F0E7F7B54F
:10293000170001220231890041184B685C69227539
:10294000216822691B8A8D1A9D4200D91D0000232F
:10295000180052198A425841226182030092A17DD7
:10296000AEB20800421E90414203019201224A4049
:10297000A275A0699F4200D0A38BC0182A00A1684D
:1029800006F056F98420A36800025D19009B3043CD
:102990001843019BA56003431800002F00D01804C2
:1029A000FEBD00008B1C9B00C3185B68F7B50600DA
:1029B0000C1E5F6924D11A4BDB6C00222100300011
:1029C0000193FFF7B4FF3A683B6905009A4205D0CE
:1029D000012221003000FFF7AAFF05436B0113D548
:1029E000104A019B13401A00A023DB051343002C5F
:1029F00011D10B4AD3640C4B1034E4001D51F7BDC8
:102A0000094ACB00D358D8E7084A019B13401A0063
:102A100080239B05EAE70449E2008B50EBE7C046C0
:102A200000001150FFFFFFDF00001050FFFFFFAF5D
:102A300070B501258D4004892C4304818C1CA400B1
:102A400004196468646923600023A2606360E36022
:102A50002361FFF7A7FF70BD70B50600C43632785A
:102A60000400152A16D8012393401A4A134220D194
:102A700080256D031D400ED19B020BD50B233370B7
:102A8000FEF7B7F92B002A0029002000FFF7D0FF3E
:102A9000FEF7A6F970BDC3689B695B68002BF9D18E
:102AA0000300D0331B68002B00D0984700233370FD
:102AB000F0E70021FEF718F800212000FEF734F8B7
:102AC00063681B68002B02D006212000984706236C
:102AD000EDE7C046410E000070B50500C4350400A6
:102AE0002878152835D8FDF735FC3E343434343495
:102AF0003E34340B283534343434343434343E3EAC
:102B00002300CC33DA7B18680E331B781202134390
:102B1000984212D2E368198AFDF7C0FC0E1E0CD150
:102B2000FEF767F93300320031002000FFF780FF25
:102B3000FEF756F90A232B700BE014232B70FEF7D7
:102B400058F9002320001A001900FEF75DF9FEF77E
:102B500047F970BD2300D0331B68002B01D0200043
:102B600098470023E7E700212000FDF7BDFF002183
:102B70002000FDF7D9FF63681B68002B02D00621F7
:102B8000200098470623D6E70B00F0B511339B00D1
:102B9000C3185C6885B005000E00002C43D0FEF71A
:102BA00028F9201D0821FEF716FA2300B700443348
:102BB000EF190193FB685B691B68002B17D0236D2D
:102BC000226E01332365A36D9B18E26DA3659342CA
:102BD00001D3A36EA365606C019B834207D0036899
:102BE000019A63645A6000238361FEF7CFF903A959
:102BF0000198FEF758F9039B021E0ED1FB685A6933
:102C00001268002A0DD01B8A013B1A4209D1E36FDA
:102C10001B7E002B05D12A00D43231002800FFF79B
:102C200007FFFEF7DDF805B0F0BD13B5446BE36FA9
:102C30001A681178042915D1217A022912D119793B
:102C400001238B4012891A420CD1200001A9443083
:102C5000FEF729F9021E05D0E46F019B2179206857
:102C6000FFF7E6FE13BD000070B50C00FEF7C1F8DB
:102C70002378042B02D0FEF7B3F870BD144B1B78F9
:102C8000DB09F8D1134D2B78002BF4D0124B1B78B5
:102C9000002BF0D023899B0705D408230F4A01217C
:102CA0002000FFF7C5FE28780D4A00230021FDF71C
:102CB0001DFB00230B4A80185941FA220023920081
:102CC000FDF7DCFC21008000FEF7E4F9D3E7C04605
:102CD00002100020C40F002040050020E10F00205A
:102CE00010270000E7030000F7B50025FEF781F884
:102CF000294C626F13681978042944D1217802297C
:102D000041D11279013991401B890B423BD1E36CCF
:102D1000226D934237D1B021490069431F4A5218AE
:102D2000FC32516B00292ED0616E00292BD0043962
:102D3000C91A28D01960516B01395163A26D9B18D3
:102D4000626DE364934201D3236EE36400272000A5
:102D5000676601A93C30FEF7A6F8636F06001A7E8D
:102D6000BA4209D001981A693900121A301805F0D0
:102D700068FF636F1B690193606F019B01793200EB
:102D80000068FFF755FE6134FF34012D02D1FEF7D4
:102D900027F8F7BD0125ACE760030020780200208A
:102DA000F7B50500C4352B780400002B01D00023B3
:102DB0002B702600D4360822C049300005F038FFB9
:102DC00063689B68002B15D132786026164039D095
:102DD00000212000FDF788FE00212000FDF7A4FE61
:102DE00063681B68002B02D0062120009847062349
:102DF0002B70F7BD200098470028E5D0230026005F
:102E0000DB331A78013B1B781202CC36134332684D
:102E10009A4200D933602300D4331B7837687F2B64
:102E200000D886E1002F00D176E109232B70FDF751
:102E3000E0FF22000021C832336812682000FFF74B
:102E4000F7FD73E123007F21D5331B780A401B0275
:102E500013439B4A934200D148E12DD8022B00D165
:102E6000E5E00BD8002B4CD0012BB1D1954A2300C3
:102E7000C8331A6002225A6000222DE081225200DB
:102E8000934200D1F7E0FF32FF32934242D08022DA
:102E9000520093429CD12300D6331B78012B97D14B
:102EA00022000221DC3213888B4313802300C833B5
:102EB0001E605E609E60A1E7834A93420ED8013A8D
:102EC000934233D2013AFF3A934200D080E7230085
:102ED0007E4AC8331E605E609A608FE790221201BE
:102EE00093423FD07A4A9342C0D08022120193424B
:102EF00000D06DE723002200C833DF321A600122C0
:102F00002EE022002100C832DC3111600221516024
:102F1000936073E72300D6331B78012B00D057E76B
:102F20002200DC32118801330B43BEE7230022006C
:102F3000D9331B78D83212781B02134321002200A8
:102F40006068D632D7314768127809782000B847D0
:102F5000002800D13CE723004268C8331A600268A9
:102F60005A60A7E72378042B4AD1FDF742FFA268F5
:102F7000584B02271340A3602300103300931E0018
:102F80003C3301937F423368002B0ED058690028F0
:102F900003D00C303900FEF743F8336898690028F5
:102FA00003D00C303900FEF73BF80023019A08C625
:102FB000B242E8D118001E1C00999A008F583F4970
:102FC0007A6990759082DA0052189168013349004D
:102FD00049089160B9690E754882D168490049086D
:102FE000D1600F2BE8D1FDF7FBFE23000321DF3377
:102FF0001E70636821701B68002B01D02000984769
:103000002300D6331B78002B0BD02200DF32137045
:103010000423237063681B68002B02D00221200068
:10302000984722000023C8321360536070E72300E2
:10303000D8331A780F23134002339B00E31852B29F
:103040005B68002A0EDA5B69002B00D1C0E61A7DAE
:10305000002A05D15B7D204A002B00D1B8E606E7A7
:103060001E4A04E79B69002B00D1B1E69A7C002A36
:10307000F6D1DB7CEFE72300D6331978002900D0A6
:10308000A6E69E780F233340CBD09A1C9200A2185C
:10309000506872B2DB00124E002A07DA114A9B1800
:1030A000DA6F3240DA6743695975BAE70E4A9B18FE
:1030B000DA6F3240DA678369D974B2E700001050E2
:1030C000020300009D970010010600004D0E001045
:1030D000020C0000010001000C9000101C8F001079
:1030E000FFF7FFFF04001050080010502300D633F4
:1030F0001B78002B00D06BE623000F21D8331B7800
:1031000019408ED05BB22000002B02DAFDF7ECFCF8
:1031100087E7FDF709FD84E714232B70FDF769FEAF
:103120003B003A0000212000FDF76EFEFDF758FE3F
:103130005FE6002F08D015232B70FDF75AFE220002
:10314000C83233681268EDE70B232B70FDF751FE90
:103150003B003A00390071E613B50800032A25D96F
:103160000623144A11785278CC070B40E40F23430E
:1031700008240C40234310240C40234320240C40FB
:10318000234340240C40C909C90123430B43D10701
:10319000C90F92070902D20F0B435202134301A930
:1031A0000422019305F044FD002016BD0120404299
:1031B000FBE7C0460210002010B543880C00934284
:1031C00006D841681A00200005F032FD002010BD2D
:1031D00001204042FBE70000030070B580249D18E9
:1031E000080064010021A54204D80349591805F0DC
:1031F0001FFD0121080070BDF01C002010B51F2824
:1032000007D80A225043044BC018FFF7E5FF0020FF
:1032100010BD01204042FBE7D30200001FB5084B60
:10322000C318FF2B09D801ACC0B22100FFF7E6FF9D
:10323000002802D1208904B010BD024B188BFAE798
:1032400000A9FFFF5C060020F0B5284C284F294E4E
:1032500085B001AD0A2229003C603000FFF7BCFFB9
:10326000200010220021083005F0EBFC2B882249B9
:103270002380AB79A370AB88E370EB7923712B7A51
:1032800063716B88E380002323726B7A5AB2D24356
:10329000D217114001226161134200D02272022232
:1032A000134202D0217A0A4322720422134202D02E
:1032B000217A0A4322720822134202D0217A0A4359
:1032C000227210210B4202D0227A0A43227220225B
:1032D000134202D0237A1A432272084B0A3618345A
:1032E00004379E42B5D105B0F0BDC0460816002097
:1032F0008415002053050000931C00209306000055
:10330000A022F0B5124D85B052000021280005F032
:1033100098FCC0220F4C52000021200005F091FCC7
:103320000D4E01AF25600A2239003000FFF754FF2F
:1033300028000822390005F07BFC3B890A36A3806F
:10334000064B0A350C349E42EBD105B0F0BDC046A9
:10335000840E0020040D002013040000530500001B
:1033600013B56B46DC1D0023012221002370FFF7FB
:1033700033FF207816BD000070B50024094BE0181B
:10338000FFF7EEFF084BE0540134242CF6D1002463
:10339000064D2B69002B00D0984701341435152CAD
:1033A000F7D170BDAF0200005C060020F094001061
:1033B000122370B5A2244B43444352009B181C199E
:1033C00020002730FFF7CCFF000285B22000283014
:1033D000FFF7C6FF284380B270BD10B52620FFF767
:1033E000BFFF10BD10B52320FFF7BAFF092801D099
:1033F000002010BD2420FFF7B3FFFE28F8D1D938F4
:10340000FFF7AEFF113843425841F2E710B50420F0
:10341000FFF7A6FF04002220FFF7A2FF00022043CF
:1034200080B210BDD0231B061A68084B92009B186F
:103430005B6810B5D9680875186802681A6053602F
:1034400001220275D860FCF72DFF10BD880B00200B
:103450000A00D02109060B6830B5040012489B0011
:10346000C3185B6887B0DD68531C18D00B686946C9
:103470009B00C0180D4B4068039300231030059348
:103480000495FDF7F1FD2000FFF7CCFF009B002B1A
:1034900002D06846FDF7D0FDA86907B030BD200016
:1034A000FFF7C0FFF8E7C046880B00204B0F001065
:1034B000D0231B061A680A4B92009B185B6810B554
:1034C000DB68002908D0426818605A6013604360C6
:1034D0000420FFF7BDFF10BD01204042FBE7C046BE
:1034E000880B002070B504000D00E368002B07D0A6
:1034F000236900201A1DA262E2699B18E36208E0BA
:10350000237A002B06D129002000FFF7D1FF0028E5
:10351000EBDA70BD02204042FBE7F7B504000F0074
:10352000009201930025FDF764FCA36A002B09D1EA
:1035300001992000FFF7D6FF002803D0FDF750FCCB
:103540002800FEBDA06AE36A009A1B1A561B9E4221
:1035500000D91E00402E19D93900402205F068FB21
:10356000A36A40374033A3624035A36AE26A9342BC
:1035700004D3E3692000191FFDF780FCFDF730FC40
:10358000009B9D42DCD2FDF734FCCEE739003200CF
:1035900005F04EFBA36ABF199B19A362AD19E4E7BE
:1035A00010B54430FFF7B9FF10BD012310B544300A
:1035B0005B42FFF7B2FF10BD70B504000E001500AE
:1035C000FDF717FCA36A002B09D129002000FFF7A3
:1035D00089FF051E03D0FDF703FC280070BDA36A18
:1035E0001E70A36AE26A0133A362934204D3E369C3
:1035F0002000191FFDF742FCFDF7F2FB0025ECE768
:1036000010B54430FFF7D8FF10BD012210B544308B
:103610005242FFF7D1FF10BD70B504000D00E36802
:10362000002B07D062690020131D1268A3629B184B
:10363000E36208E0237A002B06D129002000FFF77F
:1036400037FF0028EBDA70BD02204042FBE7F7B5F8
:1036500004000F00009201930025FDF7CAFBA36A46
:10366000002B09D101992000FFF7D6FF002803D0D5
:10367000FDF7B6FB2800FEBDA16AE36A009A5B1A5B
:10368000561B9E4200D91E00402E17D938004022FA
:1036900005F0CEFAA36A40374033A3624035A36AEF
:1036A000E26A934202D32000FDF709FCFDF798FB84
:1036B000009B9D42DED2FDF79CFBD0E73800320034
:1036C00005F0B6FAA36ABF199B19A362AD19E6E724
:1036D00010B50C30FFF7BBFF10BD012310B50C3047
:1036E0005B42FFF7B4FF10BD70B504000D00FDF79D
:1036F00080FBA36A002B09D129002000FFF78CFF73
:10370000051E03D0FDF76CFB280070BDA36AE26ABA
:103710001D780133A3629342F4D32000FDF7CFFB61
:10372000F0E710B50C30FFF7DFFF10BD012110B539
:103730000C304942FFF7D8FF10BD000070B50600FD
:103740000D00FDF756FB144C2378042B02D0FDF737
:1037500047FB70BD2389DB0612D5D0221206116803
:103760000E4A89005218E36952685B69D2680C33CB
:103770001A60642193610320FFF76AFE431CE6D0C0
:10378000074A0323557004212D0A200016709570F6
:10379000FFF74EF9DBE7C04680060020880B0020CB
:1037A0001B19002010B501000420FFF7C7FF10BD52
:1037B00010B501000320FFF7C1FF10BD70B5050073
:1037C000FDF717FB114C2378042B02D0FDF708FB03
:1037D00070BD2389DB0612D5D022120611680C4A6F
:1037E00089005218E36952685B69D2680C331A6029
:1037F000642193610320FFF72BFE431CE6D00623D0
:103800002A0004212000FFF713F9DFE780060020DB
:10381000880B0020D02301211B061A68064B92005A
:103820009B1810B55B684942DB6803609861032010
:10383000FFF70EFE10BDC046880B002070B50500D6
:10384000FDF7D7FA1A4C2378042B1ED1194A238985
:1038500012787F2A1CD9184A1278002A18D0DB0661
:103860000BD420232A0004212000FFF7E1F82022B6
:103870002900124805F0DCF907E0E36958690C30CB
:10388000FFF7C8FF2378042BEBD0FDF7A9FA70BD32
:103890009B0703D408232A000121E5E7236958691F
:1038A0000C30FFF7B7FF2378042BEED1F2E7C046C8
:1038B000800600200210002040050020E10F0020BB
:1038C0008023F0B5160089B08218050001915B01D4
:1038D0009A4203D90024200009B0F0BD5D4F3200A8
:1038E000C7193900019805F095F901240028F2D094
:1038F00032000199380005F09BF9FDF7BFFE0590F5
:10390000002802D1FDF7ACFEE4E7019B1A78012EF6
:1039100033D9EB0731D4504B9D422ED8019B5B78B5
:103920001B021343012B28D85A1E934120225B42CD
:103930001340803B6A0A1343FF220499DBB2914390
:103940000A001A43049204996B08444ADBB21B0232
:103950000A401A436B460492188AFDF731FF0400AF
:10396000012867D1019B023E023502330193002EEC
:10397000CBD1FDF70BFF040061E03F2D18D8FF21EC
:1039800003984023884301002B43DBB21943334B98
:1039900012020B40134303936B469889FDF710FF07
:1039A0000400012846D1019B013E01350133DDE7CA
:1039B0000296052E01D90523029306AF06220021A7
:1039C000B81C05F03EF907222B0C1340029ABD707B
:1039D000D20013433B702B0A7B7000230199DA1944
:1039E000C95C0133D170029A9A42F7D13888FDF749
:1039F000E7FE040001281DD17888FDF7E1FE0400F0
:103A0000012817D1012E07D9B888FDF7D9FE040087
:103A100001280FD1032E07D8029A029B9446F61A6A
:103A2000ED18019B6344A1E7F888FDF7C9FE040087
:103A30000128F1D0002C02D0022C00D00024059BDC
:103A4000012B00D047E7FDF70BFE002800D141E72E
:103A500041E7C046F01C0020FF3F0000FF00FFFFD1
:103A600037B50025042201A904000195FFF7B4FB36
:103A7000019BAB4205D0042201A920000195FFF76C
:103A80001FFF37BD73B56B469C1D00230E0002223D
:103A9000210023800500FFF79FFB23889E4205D06D
:103AA0000222210028002680FFF70AFF73BD37B5E8
:103AB0000D000400FFF754FCA84206D06B4601221B
:103AC000D91D20000D70FFF7FBFE37BD10B5034B6D
:103AD0000C201978FFF7EBFF10BDC0468C1C0020AE
:103AE00070B50024074BE5182800FFF739FC064B9A
:103AF000E15C814202D02800FFF7D9FF0134242C79
:103B0000F0D170BDAF0200005C06002010B5438804
:103B1000934207D81A00406805F08AF8FFF7E0FFE3
:103B2000002010BD01204042FBE7000070B5802559
:103B3000044C6D01200000210134FFF7B8FFAC42B6
:103B4000F8D170BD9306000070B51D00032814D88D
:103B5000082912D8082A10D81223A2244B43444320
:103B600052009B181C192000290A2730FFF79FFFDD
:103B70002000E9B22830FFF79AFF70BD10B5092187
:103B8000041E00D1F6312320FFF791FF614261410D
:103B90002420FE31FFF78BFF1121002C00D1EE31E4
:103BA0002520FFF784FF10BD10B50400C1B204202A
:103BB000FFF77DFF210A2220FFF779FF10BD704734
:103BC000704700007346F0B587B00593A24B1D689F
:103BD000EB0310D58022A14BA14992020124CA50C7
:103BE0000021A048C3689A69147551825A69947576
:103BF00091825B689847EB043BD58022974B9849AC
:103C00001203CA500223974C22002370002326007F
:103C1000DC321360A3600193F368002B15D0FDF72D
:103C2000E8F8F3685869002804D002210C304942B2
:103C3000FDF7F6F9F3689869002804D002210C30EA
:103C40004942FDF7EDF9FDF7CBF80027019BF7603E
:103C5000013301930436102BDED12300C4331F70CF
:103C6000FDF78AF863681B68BB4202D03900200068
:103C700098476B0430D510227A4C784B7849CA505B
:103C800023002278E0331A700523237063681B68D1
:103C9000002B02D004212000984700260227A660AE
:103CA0007F42E368002B13D0FDF7A3F8E36858695F
:103CB000002803D00C303900FDF7B2F9E3689869A9
:103CC000002803D00C303900FDF7AAF9FDF788F879
:103CD00001360434102EE4D12B040FD58022614824
:103CE0005E4B5F491201CA500300E0331B7803703A
:103CF00043681B68002B01D005219847AB0307D50B
:103D000058484368DB68002B00D09847544B9B6CA5
:103D1000EB0606D4059B0F3301D0FDF7E5F807B09D
:103D2000F0BD4F4B9B6D039300230293013301932E
:103D3000039B002BEED0029B202BEBD0019B039A20
:103D400013421FD0484B464A0199464FD150012299
:103D5000029B5C08A31C9B00FB185B680493029BFE
:103D6000134233D1049B5D692B692A886B609BB237
:103D700093420FD021003800FEF714FE039B019AF6
:103D800093430393019B5B000193029B0133DBB2DE
:103D90000293CDE70122A2403B8993433B81049BE0
:103DA0009B68002B02D02100380098470234A40001
:103DB0003F19FDF71EF87B68002158690C30FDF7AC
:103DC0002FF9FDF70DF80023AB82D7E7049B274AB4
:103DD0009D69E3009B181E68A969B605B60D3200FF
:103DE000A86804F025FFAB689B19AB606B689B1952
:103DF0006B602B689B1B2B602B8A013B9BB22B8239
:103E0000002B03D0049B5B8AB3421FD901220023FD
:103E1000A2406B82134DA61C6B8993436B81B30048
:103E2000EB185B68DB68002B02D021002800984764
:103E3000B600AD19FCF7DDFF6B689B691800596887
:103E40000C30FDF7EDF8FCF7CBFF97E721003800C9
:103E5000FCF78AFE92E7C0469800115050300000EF
:103E600000001150800600205830000084001050DF
:103E7000F8B57746FCF7BDFFD0231B061A68174B31
:103E800092009B185D682E00EB6910360133EB61E0
:103E90002B699E4206D1FCF7A3FF0F3701D0FDF737
:103EA00023F8F8BD9A68013A9A602C69A368002B40
:103EB000F1D1226861680A6051602360FCF790FFCD
:103EC00021692000E3689847FCF793FF6269002AA4
:103ED000EBD021003000FDF7C7F8E6E7880B0020A3
:103EE000BFF35F8FD023BE221B0652009B5070474A
:103EF000D0230C2172461B0610B519650B39186DBD
:103F0000084205D140BF0F3201D0FCF7EDFF10BDD4
:103F1000986D0230F3D172B61A68034B92009B1869
:103F20005B68024A9A65FEE7880B00200F8F00103D
:103F3000D0230C2172461B0610B519650B39186D7C
:103F4000084205D140BF0F3201D0FCF7CDFF10BDB4
:103F5000986DF4E710B5EFF30983203383F30988F4
:103F6000FCF73EFF10BD10B50400FCF742FF210036
:103F70000820FFF76DFAFCF733FF10BD10B5040001
:103F8000FCF737FFD0231B061A68054B92009B18DD
:103F90005B680F20DB689C61FFF744FA10BDC046E8
:103FA000880B0020D0231B061A680E4B92009B182A
:103FB0005B6810B51868D96802681A6053600122FE
:103FC0000275D86000238A680B750B691B689C68B2
:103FD0009442FBD85A680B604A6011605960FCF744
:103FE00061F910BD880B002070B508210024094B31
:103FF00018685A689D68954207D8D868904207D8D3
:10400000013910330029F3D170BD40C840C2F2E736
:1040100010C2F3E794960010FEE7704710B5FCF766
:10402000F5FC0E4B0E4A196891420AD01A600D4AEF
:104030000D48946A916A091B8142FBD900221A60DB
:1040400010BD00241C601423188804331B88074902
:1040500098472100030020009847C046F82C002014
:10406000BAB0FECA004005403F0D030055420000B3
:1040700070B5FCF7BEFED0231B061A68154B9200E4
:104080009B185B6814481549DC690D680368144A7D
:10409000E41AA54209D9E4256D016419114D5B1993
:1040A0000360136810481B18136015680C60FCF758
:1040B00097FEFA220023920020000021FCF716F957
:1040C00000230A4A80185941094A0023FCF7D6FA0E
:1040D000281870BD880B0020841C0020341000209C
:1040E0007815002080E3FFFFC09699190F27000084
:1040F000102700000C4B07B518800C4B984202D8D3
:1041000004F03AFD07BD6A46094B13800023937003
:10411000FFF7AEFF01236A4603439380009801999D
:1041200004F00CFBEEE7C046660C0020FF1F000009
:10413000F0F0FFFF70B5214C06000D00C8B2210061
:10414000FFF75CF8011E38D11D4BD88B00281CD01E
:104150001C4A0023FCF7CAF800231B4A8018594167
:10416000FA2200239200FCF789FAFFF7FCFE0022F6
:10417000164BEDB2585DB27001385A5504281CD860
:10418000FCF7E8F818050B0D18000120EDE7608832
:1041900000280FD0FFF7AEFF0FE0A088F8E7E08817
:1041A0000028F7D123886088002B04D00028F1D1A3
:1041B0001800EFE720880028ECD170BD7A1C0020A1
:1041C0005C06002010270000E7030000CC0B002055
:1041D000F8B50B4B07001E68FFF74AFFF423FF33C7
:1041E000801B084D084C984205D82E60013323608F
:1041F000064B1F80F8BDFFF73BFF32232860F6E730
:1042000008100020FC0B0020F80B0020000C002000
:104210000B4B13B518800B4B984202D804F0C4FC2A
:1042200013BD6A460124084B94701380FFF720FFEA
:104230006B4604439C800098019904F07FFAEFE7F5
:10424000660C0020FF1F0000F0F0FFFF10B5040017
:10425000FFF7DEFF0C4BD88B002813D00B4A00234E
:104260000021FCF743F80023094A80185941FA223B
:1042700000239200FCF702FAFFF775FE2000FFF71B
:1042800039FF10BD0120F7E75C0600201027000071
:10429000E703000070B5244C05000E00C8B22100F1
:1042A000FEF7ACFF00283CD1AB78F6B21F48012BDB
:1042B0000FD16A79510701D5835506E0D207FBD5A6
:1042C000022383556088002810D12088002828D038
:1042D0000CE0022B23D16A7902331A4217D1D2079C
:1042E00007D4013B8355A088002812D0FFF790FF28
:1042F00017E08355E0880028F8D12088002811D0E5
:10430000FFF7A4FF60880028F0D12088EEE705239E
:1043100083552088002804D0FFF798FFF5E706238F
:10432000835570BD6088D1E77A1C0020CC0B00203B
:1043300070B50D4C0500C8B22100FEF75FFF0028E4
:1043400011D12488002C0ED0AB78032B09D120008A
:10435000FFF77CFF2000FFF779FF2000FFF776FFD3
:1043600001E0032BF9D870BD7A1C0020F0B589B0AC
:1043700003AD12220021280004F063FC0023674EE5
:1043800000933468631C00D10FE1FCF732FD012378
:104390006348E200D021A3401218052009064B62B1
:1043A0001060604AA400A418402222608B61FCF7D0
:1043B00017FD5D4B5F695D4B9F4200D8C6E05C49CD
:1043C0003800FBF7E5FF5B4B04009F4200D89BE001
:1043D0000723594938001C40FBF7DAFF01380F2842
:1043E00000D991E0FBF7CAFF8800800078007000D8
:1043F000680060005800500048004000380030005D
:104400002800200018001000C046C046C046C04624
:10441000C046C046C046C046C046C046C046C0466C
:10442000C046C046C046C046C046C046C046C0465C
:10443000C046C046C046C046C046C046C046C0464C
:10444000C046C046C046C046C046C046C046C0463C
:10445000C046C046C046C046C046C046C046C0462C
:10446000C046C046C046C046C046C046C046C0461C
:10447000C046C046C046C046C046C046C046C0460C
:10448000C046C046C046C046C046C046C046C046FC
:10449000C046C046C046C046C046C046C046C046EC
:1044A000C046C046C046C046C046C046C046C046DC
:1044B000C046C046C046C046C046C046C046C046CC
:1044C000C046C046C046C046C046C046C046C046BC
:1044D000C046C046C046C046C046C046C046C046AC
:1044E000C046C046C046C046C046C046C046C0469C
:1044F000C046C046C046C046C046C046C046C0468C
:10450000C046C046C046C046601E07281ED8FBF7FE
:1045100021FF1C1B1A1918171615C04614970010F6
:104520000440014004C00140A40B0020FF083D00EE
:1045300000093D00FF5025020048E801C046C04682
:10454000C046C046C046C046C046C046D021344BD7
:10455000090601930922002401238C4601990F6862
:104560000021781C08D0614649680120F9400F00FD
:104570000021074200D119B20C430199013A5B00B6
:104580000431D2B2A4B29BB20191002AE6D13068C4
:10459000431C01D0FDF75AFD224B996A9A6A521AC0
:1045A0001D2AFBD9009B5B00EC52009B04360133B3
:1045B0000093092B00D0E4E61B4C122229002000B6
:1045C00004F028FB194E002823D0122229002000D5
:1045D00004F02EFB01233370FFF74AFD144B1860E3
:1045E000134B1D68FFF744FD401B052814D9114DDE
:1045F00012222100280004F00DFB0023984205D070
:1046000012222100280004F013FB01230022327043
:1046100003E03378002BE3D10023180009B0F0BD8C
:10462000CC8F00100040054008190020EC0B002042
:10463000F00B002048150020074B70B55B78050093
:104640005B0708D5054C2378834204D0FFF710FDA3
:10465000034B2570188070BD0210002081150020CA
:1046600082150020F0B50E4C0E4B21781A780326E7
:104670000B000D4D9A420FD05F007F5B87420CD13B
:104680000C22424309488018012282718B4203D1D7
:104690009B18023213402370F0BD01333340E9E729
:1046A000A00B0020A10B0020980B0020040D00207F
:1046B0000022074B1A802023064AD179002901D114
:1046C00091711172013B9BB20C32002BF5D17047F6
:1046D0003E100020040D00200E4B37B51C6800234F
:1046E00001AD29809C4208D169782A782300F029FD
:1046F00005D1F02A01D1084B1B8818003EBD0328C4
:10470000FBD80829F9D8082AF7D8FEF751FE03008C
:10471000F3E7C046981C0020660C00207FB5074BCD
:104720000A0001930023029303930493044B0100B6
:1047300001A80593FDF7C4FA07B000BDC11A001027
:10474000FFFFFF7F0FB407B504A901C90191FFF76F
:10475000E5FF03B008BC04B0184700002D4B70B54E
:104760001B782D4C1B073CD52C48FFF7EBFF6178DD
:104770002B48FFF7E7FF2B48FFF7E4FF02212A4D04
:1047800061562800FFF7DEFF284E3000FFF7DAFF02
:10479000032128006156FFF7D5FF3000FFF7D2FF55
:1047A000042128006156FFF7CDFF3000FFF7CAFF54
:1047B000052128006156FFF7C5FF1D48FFF7C2FF1E
:1047C0001C4B1D4D19782800FFF7BCFF1B48FFF755
:1047D000B9FF1B4B28001978FFF7B4FF1948FFF702
:1047E000B1FFFFF745FCA378E27880B2134301D014
:1047F000154B188023796279134301D0134B18802D
:10480000134B1B68002B04D002229B6822702000EF
:10481000984770BDF40B00206C15002061940010C7
:1048200084940010899400108B9400105994001007
:104830008E94001073150020919400109494001031
:104840007215002096940010381000203A100020B5
:104850000C0C0020044A1378002B03D000231370A3
:10486000024A13807047C04681150020821500203F
:10487000024A1378834313707047C046EE1C002031
:1048800070B50024074D6B88A34208D0FFF7F0FBFA
:10489000054B1B88C01A6B8880B298426441200087
:1048A00070BDC0465C0600208215002070B52E4BFE
:1048B0002E4A1B7812782E4C2E4D134323702B78E2
:1048C000002B21D02C4B5B88002B05D0FFF7D8FFA5
:1048D000002801D0FFF7BEFF23782A781343237006
:1048E000264B1A780623002A04D0254A12787F2AFC
:1048F00000D918330022A11C013BDBB2FF2B2BD1C6
:10490000002A01D0FFF7A6FF1E4B25781B781E4E0C
:104910009D431E4B20221B7831001D432000257033
:1049200004F078F9002816D020222100300004F08D
:104930007FF9174B1B68002B0DD0104A1278002A04
:1049400006D00F4A12787F2A02D90622657022709B
:104950005B682000984770BD0878002801D00132BC
:10496000D2B20131C8E7C0461A190020EE1C00205F
:1049700064070020811500205C060020400500200F
:10498000021000206D1900200D100020EF1C0020E7
:104990000C0C0020036910B50400002B01D0416904
:1049A0009847E078FFF764FF2079FDF719FDFFF7DE
:1049B0007DFF06220021200004F043F910BD000015
:1049C000427910B50400930712D4022313430D4A11
:1049D00043711178C3780B4313700079FDF708FD1C
:1049E000FFF764FFE368002B02D06169200098475D
:1049F0000022054B1A806379DB0702D42000FFF701
:104A0000C9FF10BDEE1C0020CA090020082210B505
:104A10000D4C0220237893432370FFF729FF1022C7
:104A20002378134204D0934302202370FDF7E0FC67
:104A300020202378034203D083432370FDF7D8FC62
:104A4000FFF734FF10BDC04658020020F7B54F4BAA
:104A500001921A7806000D004D4F520700D47EE0F7
:104A60003C88844201D0002879D104211A780120A1
:104A70008A4302391A700A4008D1464946480988D3
:104A80000088691A89B28142524110000122060051
:104A9000197816409218914377000F431F700F2723
:104AA00023093E4A3B405B009446995E0122274021
:104AB000BA4012B200284CD00A4361465A52022032
:104AC000374F3B78034206D01023304A11780B430E
:104AD0001370FDF785FC20203B78034205D02B4A5C
:104AE000137803431370FDF77BFC31002000FDF7C2
:104AF0003DFD019A2B4B002A04D0DA7E910601D5A8
:104B0000520641D5D88B002827D0274A0023002100
:104B1000FBF7ECFB0023254A80185941FA220023B9
:104B20009200FBF7ABFDFFF71EFA194B204A1888DD
:104B3000204BC3189BB2934205D91F4B1F4AC31881
:104B40009BB2934200D8C0B204F016F8FFF75EFFA4
:104B500018E0914362469952B1E70120E3E7154B13
:104B6000134AF3189BB2F0B2934206D9124B134A80
:104B7000F3189BB2934200D9300003F0FDFF3B884D
:104B8000B342E3D0034B1D80F7BDC046580200205E
:104B9000CC090020F80900205A020020D809002082
:104BA0001A1900205C06002010270000E70300000F
:104BB000FF1F000000A0FFFF00C0FFFFFF0F00006D
:104BC00010B584280ED1FCF7A1FC430709D5472076
:104BD000FDF740FCFFF76AFE4720FDF711FCFFF7E9
:104BE00065FE10BD031FDBB2A02BF6D903002033F6
:104BF000DBB2072B07D80723034001209840C0B23F
:104C0000FDF7EEFBEBE703005B33DBB2022B03D8CF
:104C10000020FCF769FCE4E703005833DBB2162BF5
:104C200003D80020FCF74EFCDBE7EF28D9D9FCF7CE
:104C3000E7FDFFF793FDD4E710B500280FD08228D9
:104C40000ED1FCF763FC830709D53920FDF702FC80
:104C5000FFF72CFE3920FDF7D3FBFFF727FE10BD31
:104C600083280AD1FCF752FCC307F8D55320FDF77F
:104C7000F1FBFFF71BFE5320EDE7FFF7A1FFEEE787
:104C8000F7B5244F01903D68002D3BD00023224A08
:104C90001380224A1370224A1370EC88214B621E43
:104CA000FF3A9A4201D8204B1C40E4B22600731E02
:104CB0009E41EB68F6B2002B03D02969002098478B
:104CC0000640002E06D0231FDBB2A02B1CD82000EC
:104CD000FDF796FB019B154C002B0ED03B681A7A12
:104CE000D2060AD42278002A07D01888104A431E18
:104CF0009BB2934201D8FFF76BFAFFF7D7FD002371
:104D00003B6023702800FEBDFFF7D0FD2000FFF7B9
:104D100093FFDFE7C4090020000C00206D1900207C
:104D2000EF1C0020FF1E0000FFE0FFFFC80900206D
:104D3000AF5D000010B50400842812D1FCF7E6FB3B
:104D400043070DD44720FDF785FBFFF7AFFDFA20A1
:104D50008000FFF708F94720FDF752FBFFF7A6FD9B
:104D600010BD031FDBB2A02B24D8274B274A1B788A
:104D7000002B11D0264B197800237F290CD9C308AA
:104D8000D218917807220123024093400B420BD1A5
:104D90002000FDF75FFBE1E7D1188978A14203D03D
:104DA0000133062BF8D1F3E72000FDF729FBFFF7CD
:104DB0007DFDEDE703002033DBB2072B07D8072387
:104DC00001201C40A040C0B2FDF712FBC6E7030063
:104DD0005B33DBB2022B04D80E4AD05CFCF784FBB9
:104DE000BEE703005833DBB2162B05D80A4A5B0036
:104DF000985AFCF767FBB3E7EF28B1D9FCF7F2FD4F
:104E0000FFF7ACFCACE7C04640050020640700207B
:104E100002100020908C0010948C001010B5002817
:104E200013D0822812D1FCF771FB83070DD43920EF
:104E3000FDF710FBFFF73AFDC8208000FFF793F85D
:104E40003920FDF7DDFAFFF731FD10BD83280ED1C3
:104E5000FCF75CFBC307F8D45320FDF7FBFAFFF720
:104E600025FDFA208000FFF77EF85320E9E7FFF7E1
:104E700061FFEAE770B50B4B0500392809D11C8C9E
:104E80002800FFF7CBFF002C05D12800FFF7D4FE48
:104E900070BDDC8BF4E70A20013CFFF764F8A4B294
:104EA000F1E7C0465C060020F8B5174B17491E5CB9
:104EB0000723C2088D5C18401549164B8F5C9C5C1B
:104EC00005410123044107411C401D401F40002CA7
:104ED00002D0E120FFF72EFF002D02D0E620FFF7E1
:104EE00029FF3000FFF7C6FF002D02D0E620FFF7B4
:104EF00067FE002C02D0E120FFF762FE002F02D0F7
:104F00002C20FFF7B7FFF8BD2E8F00101E8F00106A
:104F10001E8F0010AE8F0010F8B5040004270A267B
:104F20002078002830D001282BD16378A078012B7D
:104F300004D10234FFF79EFF0134F1E7022B03D1C5
:104F40000234FFF76BFFF7E7032B03D10234FFF7BF
:104F500073FEF1E7042B01D00134EDE700250B4A85
:104F60000234135C611C3B4205D1013DE4D33000A7
:104F7000FEF7F9FFF9E775433038451960780C0002
:104F8000EFE7FFF791FFD7E7F8BDC046A097001005
:104F900010B500240020FCF7A7FA0020FCF792FAD5
:104FA000084B1C70FFF782FC06222100064803F024
:104FB00048FE064B1C70064B1C70064B1C70FFF71E
:104FC000CDFB10BDEE1C00206C15002073150020D9
:104FD000741500207215002010B5074906220B78C1
:104FE000082418001A40A043062A01D120001843C3
:104FF0000870FFF7CDFF10BD3C1000200122824059
:1050000010B503490B7893430B70FFF7C1FF10BD38
:105010003C100020002370B50B4D0724EB561A00FE
:10502000824350B2287004400DD1DBB283420AD0D3
:10503000064B5B785B0706D5C010C0B2FFF7DEFFFA
:10504000034B2C701C8070BD7C15002002100020CA
:105050007E1500200A4A10B553785907C90F8142BE
:105060000CD001210840033180008B43034353706F
:105070001088FEF799FD0220FFF7CCFF10BDC04657
:10508000021000200123834010B5034A11780B431E
:105090001370FFF77DFF10BD3C100020094B10B5C9
:1050A0005B785B070AD5C300074A0B431370FFF711
:1050B000E9FFFEF7DDFF054B188010BDFFF7E2FFAB
:1050C000FBE7C046021000207C1500207E15002062
:1050D000F0B50724012785B00F4B01AE30801A7858
:1050E0000E4B1B781A430092009BE5B223413B42D2
:1050F00005D1013CF8D20025280005B0F0BD32886A
:1051000003AB1A8003992800FFF7E6FAFDF70EF8C3
:1051100080B20128EDD0EFE73C100020F50B002015
:105120001FB501AC20800198FFF7D2FF228803ABA6
:105130001A800399FFF7D0FAFCF7F8FF04B010BD0E
:1051400013B5038802008488002001A90B808442E3
:105150000AD008499CB28C4206D01089002804D09D
:10516000FCF7E4FFFDF7DCF916BD1800FFF7D8FFE8
:10517000F8E7C046FFFF000037B5020401A9088028
:10518000120E0020082A18D80978082915D80923F2
:1051900053435B1807210322040001251940DB0853
:1051A0009BB25343054AD3181A5DCA402A40A24015
:1051B00001341043C0B2032CF6D13EBD4C1900207F
:1051C00073B5020401AC2080120E082A1ED8207884
:1051D00008281BD8092353431B1803200125DA088C
:1051E00092B250430A4A2E001018072213409E40E4
:1051F0000022F6B20B00D340845C2B405B4263403C
:105200003340634083540132032AF3D173BDC04657
:105210004C190020002210B5034B04481A70FDF70A
:105220004BFBFFF7B5FE10BD1A19002064070020E4
:10523000AF220820154B10B51A80154A14215A8048
:105240000A221881588200209A80D9805A818918B0
:10525000DA811E329A820A32DA82963299811A8370
:105260003231C33A19829A83D8831984588303331D
:10527000DA77FEF735FCFFF7CDFF8020054BC00045
:105280001880FEF791FCFEF777F810BD5C06002051
:105290008813000002100020F0B52E4B8DB01A6864
:1052A0000024019201221A60A22565432A4B00279F
:1052B000ED1810E0E0B2F9B2F2B20123012C01DCEA
:1052C0007300EB5A0136FEF73FFC092EF2D101378D
:1052D0001235092F01D00026ECE70134042CE3D16C
:1052E000FFF7A6FF002309AD09930A931B4CC833AF
:1052F0002B8120000A222900FEF7E2FA184B0A341B
:105300009C42F6D10A22002106A803F09AFC200054
:105310000A2206A9FEF7D4FA124B0A349C42F6D1AF
:1053200003AD0A220021280003F08BFC01235B421D
:10533000AB8008336B7220000A222900FEF7C0FA06
:10534000094B0A349C42F6D1024B019A1A600DB007
:10535000F0BDC04658050020E8920010D3020000BE
:1053600013040000530500009306000010B5002050
:10537000FEF704FC00212620FEF799FBFFF78CFFC7
:10538000FEF7D4FB0120FEF7F9FB10BD10B5002499
:10539000FDF7B6FA22490020FEF774FB0021022037
:1053A000FEF785FB00210320FEF781FB1D4B21004A
:1053B00004201C70FEF77BFB04212220FEF777FB04
:1053C00021000520FEF773FB21000620FEF76FFB8E
:1053D000FF210720FEF76BFB0820FEF741FB2100B1
:1053E0000D20FEF764FB1820FEF73AFB2100172082
:1053F000FEF75DFB1C20FEF733FB21002020FEF7AB
:1054000041FB1820FEF72CFB2000FEF7B7FBFFF74F
:10541000ADFF0F20FEF724FB1320FEF721FB10BD8C
:10542000E8FE0000F50B0020F7B5032A4AD9042452
:1054300001A8220003F0FCFBFFF7ECFE012123484A
:10544000019A057853088D430B4016005F002B002E
:1054500002250E40334396080E40AE40AB433B431B
:10546000A34333430826D4080C40E400B34323434A
:10547000102416090E403601A34333432026540955
:105480000C406401B3432343402496090E40B60107
:10549000A34333437F26D4090C40E4013340234324
:1054A00003704378140A0C408B43520A2343114083
:1054B0001A004900AA43114341700088FEF774FBAB
:1054C0000020FEBD01204042FBE7C0460210002044
:1054D00010B5002803D0FCF783FFFFF7E7F910BDF4
:1054E00010B5002803D0FCF783FFFFF7DFF910BDEC
:1054F000F0B585B01D000AAB1B78019003930291B3
:1055000014008278264B002A0DD01C70FEF7B0FDE7
:10551000244B1880072301201C40A040C0B2FFF795
:10552000DFFF05B0F0BD1E78A64233D11D4B1F88AA
:10553000FEF79EFD0199C71B0298BFB2FDF76EFEF4
:10554000B84227D92C002034AE4215D03300203386
:10555000DBB2072B06D8072301201E40B040C0B2A3
:10556000FFF7B6FFE3B2072B06D8072301202B4035
:105570009840C0B2FFF7B4FF0398E4B2FFF77AFC9B
:10558000072CCED8072301201D40A840C0B2FFF74A
:105590009FFFC6E7072301201C40A040F6E7C04656
:1055A0002419002026190020F0B593B085880FAC8F
:1055B000049001000222200003F03AFB002D6ED07F
:1055C0002288B94B9A426AD00121049803F0A8F8C6
:1055D000049B04009B78002B14D0B44B1B88002B39
:1055E00010D098420ED01822DBB25343B049143A7F
:1055F000C81845795C522A434271FFF7E1F900224D
:10560000AC4B1A70AC4D049A2B789278002B5FD17A
:10561000002A00D08DE0A94BE018042800D988E0CA
:10562000FAF798FE0310871C4400FFF7F3FD0022F1
:10563000A34B1A70FFF7ACFCA24BA34A1A600123DC
:105640002B701DE0FFF7E6FD00229D4B1A70FFF75F
:105650009FFC9C4B9D4A1A600223F1E79C4B984D9E
:105660001F682E78FFF7D6FD00232B70FFF790FC04
:10567000954CA74215D1FFF7CDFD2E70FFF788FCA2
:10568000944B1B785B070AD0049B9B78002B06D0B9
:10569000914B5B785B0702D50220FFF7BBFC13B090
:1056A000F0BD2000FFF780FF0A34E2E78B4B844D0A
:1056B0001F682E78FFF7AEFD00232B70FFF768FC04
:1056C000824CA742D7D02000FFF76EFF0A3CF8E7D4
:1056D0007A496118022928D881496418611E8C41D1
:1056E0009442CDD0012B03D0022B10D00023A7E78A
:1056F000744B75481B68834204D01A000A3A9178AB
:10570000002902D1724A1360F0E71300F3E76D4BF2
:105710006E481B68834204D01A000A32917800292F
:1057200001D16E4AEFE71300F4E7012B3FD0022BC3
:1057300052D0049B9B78002B01D101F0A7F9694B53
:10574000E3189BB20F2B01D901F0FFF96648FDF772
:1057500007FE002800D093E78026123CE5B2634C98
:105760007601002D4CD111952000FDF7F9FD0023A5
:1057700011AD661C28706B70984200D180E701283B
:1057800011D13000FDF7ECFDA71C6870002800D196
:1057900076E7431E022B3FD83800FDF7E1FDE61CFB
:1057A000A87000285BD02800FFF7B6FB57E04B4BF2
:1057B000444D19682E68002A02D1434B9E42B8D04E
:1057C00033000A3B9942B4D030000A22049903F016
:1057D0002FFA0A362E60ACE73D4B3A4D19682E6819
:1057E000002A02D1394B9E42A3D033000A3399429A
:1057F0009FD030000A22049903F01AFA0A3EE9E722
:10580000B44200D13CE72000FDF7AAFD002801D1F9
:10581000013DEDB20134A4E7431F022B27D8E31C5E
:1058200038000593FDF79CFDE61CA870002816D0F3
:105830000598FDF795FD261DE87000280FD0FF2381
:1058400068881B02984201D9000280B26B78062B4F
:1058500007D0072B08D0052B01D1FEF7F7FC340049
:1058600082E7FEF7D5FCFAE7FEF744FCF7E73E00D7
:105870000428F4D13800FDF773FD0500E01C261D57
:10588000FDF76EFD002D00D1FAE6002800D1F7E605
:10589000FF2301385843013D4519013DDFD30A205C
:1058A000FEF761FBF9E7C046FFFF0000CA090020D0
:1058B00070190020EE1C002040150020FDA2FFFF03
:1058C0003C10002044150020401000203615002018
:1058D000480500207C1500200210002054050020FF
:1058E000FBA2FFFFEEA0FFFFFF0F000093060000EA
:1058F0000120FFF7C7FBFFF76FFBC1E60120FFF7B1
:105900007DFBF8E70220FAE7022B01D001F0E9F86D
:10591000B388002B01D101F0E4F8182301225D4384
:105920004019437993434371FFF74AF801F0D9F8DE
:1059300001221A70A4E61B78002B01D100F0EFFFC2
:105940002300E03B9BB20693C84AC94B12781B78F0
:105950001343C84A127813435BB2DAB20592069A2F
:10596000072A00D9B6E00721012221408A40190008
:1059700052B29143C9B20591002E02D01343DBB25B
:105980000593BD4B1D68069B072B03D9002E01D143
:1059900001F025F9049B1888FFF7EEFB01231A009C
:1059A00082400D92B54A0A9312880C920022099205
:1059B000099BB34A9B00D758002F00D1BAE0059B42
:1059C000002B03D1BB78002B00D0AEE0FB780D9A02
:1059D0001A4200D1A9E007223B7A134200D11300FA
:1059E0000A9A06991A40072905D8002E00D17FE0AF
:1059F0005B080A9A1A40002A00D196E03B88089377
:105A00009C4202D1002E00D18FE0AF4200D18CE049
:105A10007B69002B03D01B78002B00D185E03B79FC
:105A2000059A1A400B9200D07FE005993800FBF7E9
:105A300077FD002879D0089B07969C4201D00B9BEC
:105A40000793089B5A425341079A134304D1089A7B
:105A50000C998A4269D107930020FFF711F90122BE
:105A6000854B1F60874B1A707A79874B1A70079B9A
:105A7000002B09D1089B002B06D03B88D8B2043BF1
:105A8000A02B37D8FCF7BCFCFD88804B6A1EFF3A80
:105A90009A4201D87E4B1D4000266B1E7D4A9BB268
:105AA0009A427641FB68F6B2002B03D03969012097
:105AB00098470640002E0AD0F88803F02BF8764B62
:105AC0001870069B072B18D82800FEF781FBFEF7FD
:105AD000EDFE19E0694B002E01D100F0CBFF1C80D8
