:020000041000EA
:1000000000B5324B212058609868022188439860DF
:10001000D860186158612E4B002199600421596104
:100020000121F02299502B49196001219960352056
:1000300000F044F80222904214D00621196600F024
:1000400034F8196E01211966002018661A6600F04E
:100050002CF8196E196E196E052000F02FF8012189
:100060000842F9D1002199601B49196000215960AB
:100070001A491B48016001219960EB211966A021F2
:10008000196600F012F800219960164914480160C1
:100090000121996001BC002800D000471248134993
:1000A000086003C880F30888084703B5996A0420EC
:1000B0000142FBD001200142F8D103BD02B5186610
:1000C0001866FFF7F2FF186E186E02BD00000240BE
:1000D000000000180000070000035F00212200005C
:1000E000F4000018222000A00001001008ED00E03C
:1000F000000000000000000000000000070B8FD58A
:10010000000404209D020010818C00109F0200104A
:100110009F0200109F0200109F0200109F0200101B
:100120009F0200109F0200109F0200109F0200100B
:100130009F0200109F0200109F020010659900109E
:100140009F0200109F0200109F0200109F020010EB
:100150009F020010AD9B00109F0200109F02001034
:100160009F0200109F0200109F0200109F020010CB
:100170009F0200109F0200109F020010398D001096
:10018000598D00109F0200109F0200109F02001066
:100190009F0200109F0200109F0200109F0200109B
:1001A0009F0200109F0200109F0200109F0200108B
:1001B0009F0200109F0200109F0200109F0200107B
:1001C00072B6254880F30888244880F30988022005
:1001D00080F31488BFF36F8F21482249086008F02C
:1001E0003DFA07F0D6FF204820491B4A914202DA27
:1001F00008600431FAE71E49184A914202DA0860A1
:100200000431FAE71B491C4A1C4B9A4204DA08687D
:10021000106004310432F8E700201949194A91426C
:1002200002DA08600431FAE708F01AFA07F07CFBFA
:10023000154C164DAC4203DA216888470434F9E7BF
:1002400002F0F6FE124C134DAC4203DA21688847E7
:100250000434F9E71049084700040420000C042086
:100260000001001008ED00E0555555550000042030
:100270000004042044B8001000000020980500206D
:1002800098050020682D0020C0010010C00100105A
:10029000C0010010C00100105F86001090E700F060
:1002A00000F8FEE7F0B544464D4656465F46F0B4CA
:1002B0006B46CB60C3689D46F0BCA046A946B246DB
:1002C000BB46F0BD08F05BFD62B6281CA0470020CD
:1002D00008F030FCFEE708F04DFB024A024B1360C9
:1002E000FEE7C04604ED00E00000008002B4714665
:1002F00049084900095649008E4402BC7047C0466F
:1003000002B4714649084900095C49008E4402BCA8
:100310007047C04603B47146490840004900095A75
:1003200049008E4403BC7047002243088B4274D3BB
:1003300003098B425FD3030A8B4244D3030B8B42E6
:1003400028D3030C8B420DD3FF22090212BA030CEF
:100350008B4202D31212090265D0030B8B4219D3D0
:1003600000E0090AC30B8B4201D3CB03C01A5241F0
:10037000830B8B4201D38B03C01A5241430B8B4238
:1003800001D34B03C01A5241030B8B4201D30B0321
:10039000C01A5241C30A8B4201D3CB02C01A524148
:1003A000830A8B4201D38B02C01A5241430A8B420B
:1003B00001D34B02C01A5241030A8B4201D30B02F4
:1003C000C01A5241CDD2C3098B4201D3CB01C01A0E
:1003D000524183098B4201D38B01C01A5241430918
:1003E0008B4201D34B01C01A524103098B4201D306
:1003F0000B01C01A5241C3088B4201D3CB00C01A73
:10040000524183088B4201D38B00C01A52414308EA
:100410008B4201D34B00C01A5241411A00D201460F
:10042000524110467047FFE701B5002000F0F0F898
:1004300002BDC0460029F7D076E7704703460B435C
:100440007FD4002243088B4274D303098B425FD3CD
:10045000030A8B4244D3030B8B4228D3030C8B42F9
:100460000DD3FF22090212BA030C8B4202D31212DF
:10047000090265D0030B8B4219D300E0090AC30BB4
:100480008B4201D3CB03C01A5241830B8B4201D361
:100490008B03C01A5241430B8B4201D34B03C01A4A
:1004A0005241030B8B4201D30B03C01A5241C30AC2
:1004B0008B4201D3CB02C01A5241830A8B4201D333
:1004C0008B02C01A5241430A8B4201D34B02C01A1D
:1004D0005241030A8B4201D30B02C01A5241CDD2C2
:1004E000C3098B4201D3CB01C01A524183098B420D
:1004F00001D38B01C01A524143098B4201D34B01F6
:10050000C01A524103098B4201D30B01C01A524158
:10051000C3088B4201D3CB00C01A524183088B42DF
:1005200001D38B00C01A524143088B4201D34B00C8
:10053000C01A5241411A00D201465241104670473A
:100540005DE0CA0F00D04942031000D3404253403F
:1005500000229C4603098B422DD3030A8B4212D3FF
:10056000FC22890112BA030A8B420CD38901921131
:100570008B4208D3890192118B4204D389013AD06E
:10058000921100E08909C3098B4201D3CB01C01A43
:10059000524183098B4201D38B01C01A5241430956
:1005A0008B4201D34B01C01A524103098B4201D344
:1005B0000B01C01A5241C3088B4201D3CB00C01AB1
:1005C000524183088B4201D38B00C01A5241D9D2C9
:1005D00043088B4201D34B00C01A5241411A00D24A
:1005E0000146634652415B10104601D34042002B46
:1005F00000D54942704763465B1000D3404201B5C5
:10060000002000F005F802BD0029F8D016E7704779
:100610007047C046002B11D1002A0FD1002900D10C
:10062000002802D00021C943081C07B4024802A1D7
:100630004018029003BDC046D9FFFFFF03B46846CF
:1006400001B5029800F030F8019B9E4602B00CBC48
:100650007047C046F0B5CE46474615042D0C2E0017
:1006600080B50704140C3F0C9946030C7E435D4390
:10067000674363437F19340CE4199C46A54203D9B0
:1006800080235B029846C4444B4643435143250CA8
:1006900036046544360C2404A4195B19591820004B
:1006A000C0BCB946B046F0BDF0B557464E464546CB
:1006B000DE46E0B5040083B00D00924699468B42B9
:1006C00030D82DD04946504600F0DEF8290006000B
:1006D000200000F0D9F8331A9846203B9B4633D4CB
:1006E0005A465346934042461F00534693401E00CD
:1006F000AF423AD8AF4200D17BE05B46A41BBD417C
:10070000002B00DA78E000220023009201930123FD
:100710005A4693400193012342469340009328E0B8
:100720008242CFD900220023009201930C9B002B20
:1007300001D01C605D600098019903B0F0BCBB461D
:10074000B246A946A046F0BD424620239B1A524617
:10075000DA40414613004A468A40170042461F438A
:10076000534693401E00AF42C4D90022002300929A
:1007700001934346002BD9D0FB079C466146720883
:100780000A437B0846460EE0AB4201D1A2420CD898
:10079000A41A9D41012024196D410021013E241815
:1007A0004D41002E06D0AB42EED9013E24196D41D9
:1007B000002EF8D1009801995B4600196941002B81
:1007C00025DB2B005A464446D3402A00E2401C0059
:1007D0005B461500002B2BDB26005F46BE40330036
:1007E00026004746BE403200801A99410090019190
:1007F0009CE7A342B9D880E74246202300219B1AF8
:100800000022009101920122DA40019283E74246E0
:1008100020239B1A2A0046469A402300F340444670
:1008200013432A00E2401C005B461500002BD3DA7C
:100830002023424626009B1ADE402F00B44646463F
:10084000B74066463B003343CAE7C0461C2101233C
:100850001B04984201D3000C10391B0A984201D3A3
:10086000000A08391B09984201D30009043902A281
:10087000105C40187047C0460403020201010101E8
:10088000000000000000000010B5002903D1FFF7B0
:10089000DDFF203002E0081CFFF7D8FF10BDC04686
:1008A00030B5032A0CD903000B439B071CD1036806
:1008B0000C68A34218D1043A04300431032AF6D854
:1008C000551E002A0ED002780C7894420ED10135C4
:1008D0000123013904E0C25C0133CC5CA24205D1A2
:1008E000AB42F8D1002030BD551EECE7101BFAE7F3
:1008F000F0B5C64600B50F2A43D90B0003260343C3
:100900001E400C000300002E40D11500103D2D09A3
:10091000AC462D01A846804400E03B00676825688E
:100920005F60E7681D60DF601F00A56810379D608D
:1009300010344345F1D165460F230C2401352D01B8
:10094000491913404519144223D08C59AC5104362F
:100950009C1B032CF9D80324043B9B0801339B0008
:100960002240ED18C918561E002A07D0002300E0C7
:100970002300CA5C5C1CEA549E42F9D180BCB84694
:10098000F0BD0500561E002AF0D1F7E7561E0500FF
:10099000ECE71A00F6E7C046F0B5050083074AD039
:1009A000541E002A44D0CEB20300032202E00135D7
:1009B000013C3DD301332E701342F8D1032C2FD9C3
:1009C000FF220A40150215432A0415430F2C35D97E
:1009D0002700103F3F093E01B4461E001A001036A2
:1009E0006644156055609560D5601032B242F8D10A
:1009F0000F260C2201373F012640DB193700224227
:100A000017D03E1FB608B400A4461A001C1D64444B
:100A100020C2A242FCD103240136B6009B193C40FF
:100A2000002C05D0C9B21C19197001339C42FBD1AE
:100A3000F0BD3400F4E714000300BFE72700E0E74F
:100A400030B58B7885B0002B0FD08C794B78250989
:100A5000E407E40F0A780395029489880191012143
:100A600000910100024802F0C7FD012005B030BD31
:100A70008EA700100220704710B50124A0420CD8A8
:100A800007290AD80E2A08D80F234B43782141435F
:100A90005B189B18A340024A9C5A200010BDC04618
:100AA000AEA50010411E174BFF39020010B5002003
:100AB000994218D88023802180245B00890013404C
:100AC0001140E400581E8341D0040DD518010029BF
:100AD00001D020231843224201D04023184313059C
:100AE00001D58023184310BDD8B2002901D00223BC
:100AF0001843224201D0042318431305F3D50823D9
:100B0000F0E7C046FF1E000010B50C00FFF7CAFF5B
:100B1000A04710BD0300E03B10B50400072B02D92D
:100B20000549002800D105492000FFF7EDFFE0B29C
:100B300000F030FA10BDC046A5110010851100105C
:100B400010B50400C0B200F0A7FA2300E03B072B69
:100B500002D90449002C00D103492000FFF7D4FF3B
:100B600010BDC046B51100109511001070B50500FC
:100B70000C00FFF7CFFF002C03D12800FFF7E0FFA8
:100B800070BD0A20013C07F0DDFFA4B2F3E70000CE
:100B900010B5044B392803D1198CFFF7E7FF10BDBE
:100BA000D98BFAE7162C00200120704710B5FFF70B
:100BB00047FF10BD704710B5FFF7FCFF10BD0000E8
:100BC00013B5104B00901B78002B16D16B469B7809
:100BD000002B0DD0002A0BD000F040FF04000100D4
:100BE000009800F013FF2000009904F0F7F816BDFC
:100BF000009800F01FFF0400F5E7009800F02EFFBA
:100C00000099F2E79D05002010B5040000890A0054
:100C1000002806D1638820881B041843A188FFF7A9
:100C2000CFFF10BD10B504000121FFF7EDFF21003B
:100C300005F024FB10BD10B504000021FFF7E4FF10
:100C40002100FFF7B8FF10BD30B5012425008D400D
:100C50002900250095402A009C400A43030001001A
:100C6000D2B21140A343914201D10443E3B2180030
:100C700030BD000010B504001300044A10780A00CB
:100C80002100FFF7E1FF00F03BFE10BDA5050020AD
:100C900010B501F07CFF10BD10B501F07DFF10BD57
:100CA0007047000010B500F0A3FAFFF7F9FF024803
:100CB00007F048FF10BDC046C409000010B5FFF79B
:100CC000F1FF06F027FE10BD10B5FFF7EBFF06F0B1
:100CD00013FE10BD70B504000D0006F063FB290083
:100CE000200005F071FF002801D1002070BD29000F
:100CF000200003F0DBFA0028F7D02900200003F0E1
:100D0000E1FE0028F1D029002000FFF74FFF002866
:100D1000EBD02900200006F0E5F80028E5D02900F6
:100D2000200006F05DFB0028DFD02900200004F041
:100D300067FC0028D9D02900200005F005F800281C
:100D4000D3D02900200006F09DFA0028CDD029003C
:100D5000200004F095FC0028C7D02900200005F0F1
:100D6000A9FF0028C1D0AB78002B0AD0134B9C42BE
:100D70001ED00AD85B3BFF3B9C4210D0104B9C42DC
:100D800010D02800FFF710FFB0E70E4B9C420CD0AC
:100D900011D30D4B9C42F4D1FFF796FFA5E7FFF767
:100DA0008DFFA2E701F018FCF6E701F05FFBE8E732
:100DB00001F068FBE5E701F06AFBE2E75A5D00003D
:100DC000DE5C00005C5D0000A75D000010B5040063
:100DD0000121FFF719FF2100FFF77CFF10BD10B5BF
:100DE00006F0C5FC00F056F810BD10B500F057F83D
:100DF00006F0C2FC10BD3322030100091843C0B243
:100E000083008010104093430343DBB2223258002A
:100E10005B10904313401843C0B2704770B5050093
:100E2000C0B2FFF7E8FF0400280AFFF7E4FF24023E
:100E3000204380B270BD704710B5FFF7FCFF10BDB6
:100E40000120704710B5041CFFF7FAFF002805D0F9
:100E5000D02310221B06A10701D55A6110BD9A614B
:100E6000FCE70000D0231022052004491B065A622B
:100E7000486203493B3048619A6170470040014035
:100E800000C0014010B50400FFF7D6FF201CFFF79B
:100E9000D9FF10BD10B50020FFF7F4FF10BD10B54D
:100EA00006F016FBFFF7EEFF10BD000010B506F0D0
:100EB0000FFB074B04001A78824207D0187006F027
:100EC000BBFC044B18602000FFF7DCFF10BDC046E0
:100ED0009C0500209805002030B589B00191030CD5
:100EE0008AB203A90090DBB20880002A07D0224A08
:100EF00081B2914203D021490A6801320A60002B75
:100F000001D001F099F904251A202A000021684433
:100F1000FFF742FD009B05AC05936B469B88A380C1
:100F2000174B5B782B4210D0164B5B88002B0CD0F4
:100F300001F028F9002802D0022001F063FA01F044
:100F4000FBF8002801D001F0CDF92188A28804AB7C
:100F50001980002A06D105986168A26801F056F848
:100F600009B030BD1A88044B9A42F4D02000FFF734
:100F700059FE0028EFD1F3E7FFFF0000A005002095
:100F8000B22A0020162C002010B5008800F088FD41
:100F900010BD000010B5041E13D0822812D106F037
:100FA00097FA83070DD4392001F0A4F801F0AAF9CB
:100FB000C820800007F0C6FD392001F0A5F801F037
:100FC000A1F910BD83280ED106F082FAC307F8D428
:100FD000532001F08FF801F095F9FA20800007F016
:100FE000B1FD5320E9E784280ED106F071FA4307DA
:100FF000E7D4472001F07EF801F084F9FA20800060
:1010000007F0A0FD4720D8E7031FDBB2A02B13D8C1
:1010100005F020FD0028D4D11C4B2100186806F0F3
:10102000CBFA002804D0200001F06EF801F06AF934
:10103000200001F05FF8C2E703002033DBB2072B8A
:1010400007D8072301201C40A040C0B201F0C2F81D
:10105000B5E703005B33DBB2022B04D80C4AD05C4B
:1010600006F06AFAADE703005833DBB2162B05D859
:10107000084A5B00985A06F071FAA2E7EF28A0D957
:1010800002F036FB02F024FC9BE7C04688020020F9
:10109000BFAF0010C2AF001010B500280FD08228DB
:1010A0000ED106F015FA830709D5392001F022F890
:1010B00001F028F9392001F027F801F023F910BDDB
:1010C00083280AD106F004FAC307F8D5532001F0AB
:1010D00011F801F017F95320EDE784280AD106F042
:1010E000F7F94307EBD5472001F004F801F00AF9BE
:1010F0004720E0E7031FDBB2A02BDCD9030020333D
:10110000DBB2072B07D80723034001209840C0B269
:1011100001F068F8D1E703005B33DBB2022B03D8A0
:10112000002006F009FACAE703005833DBB2162B99
:1011300003D8002006F012FAC1E7EF28BFD902F069
:1011400045FB02F0C5FBBAE770B505000C00FFF7E0
:1011500021FF002C03D12800FFF79EFF70BD0A205D
:10116000013C07F0EFFCA4B2F3E7000010B5044B1C
:10117000392803D1198CFFF7E7FF10BDD98BFAE7A7
:10118000162C002010B5002803D001F023F801F040
:10119000B9F810BD10B5002803D001F023F801F014
:1011A000B1F810BD10B5002803D001F035F801F0FA
:1011B000A9F810BD10B5002803D001F035F801F0F2
:1011C000A1F810BD10B5002006F0B6F9002006F019
:1011D000C5F901F031F801F095F802F0EDFB02F0ED
:1011E00077FB10BD10B500F099FFFFF7EBFF10BDC6
:1011F00010B501F005F8FFF7F5FF10BDC3B200040C
:10120000020F10B500200B2A08D801210C009440D1
:1012100022000C4C224202D152060BD410BDF02BFE
:101220000DD003D8E7229A424041F7E7F43B5842F9
:101230005841F3E70800E72BF0D9F13BF7E7080046
:10124000ECE7C0460C0C000073B501AD86880100C8
:10125000040002222800FFF74BFB002086420AD040
:101260002A88074B9A4206D02089002804D001F032
:101270008FFAFFF7C3FF76BD208800F011FCF8E776
:10128000FFFF0000F0B5837985B01B090C1C0290AC
:101290008578019300F08EFF2704039000281DD06D
:1012A0000395002D1AD00F223B0E9343402B06D0FE
:1012B000230000222033DBB20392072B0ED9002239
:1012C000AB4B03925B785B0708D5022001F09AF8DC
:1012D00000F070FF01234340DBB20393380F0B286B
:1012E0003ED8FFF717F80C000C00660066002501D9
:1012F00039013D003D004F01A801B901B9010F239B
:1013000026053F0E360F9F4300D03601E7B2002D71
:1013100012D0002E0BD03B002033DBB23000072B65
:1013200001D9002F05D100F055FF00F0EBFF380088
:101330007AE000F071FFF8E73800FFF7ADFE002E0D
:101340000ED03B002033DBB23000072B01D9002F39
:1013500002D100F047FF01E000F066FF00F0D2FF8D
:1013600023041B0F083B032B03D806F0B1F8FFF74B
:1013700089FD201CFFF742FF002800D00EE200226A
:101380007C4B1A60039B002B11D000F0F3FE01236D
:1013900018400CD1029B987000F0E4FE00F0C6FAF1
:1013A000029800F03FFA00F0DDFE00F0CBFA05B045
:1013B000F0BD0F2326053F0E360F9F43202F00D090
:1013C0003601E7B2002F21D0012F00D182E0019B2E
:1013D000002D00D18CE0002B56D0029A029B508841
:1013E0001B880004918818430022FFF7E9FB02994B
:1013F00003F094FF00289AD1029B9B79DA0700D46E
:1014000095E70F221340029A93713DE0584B5B78A9
:101410005B0714D4002D0AD0002E04D0300000F059
:10142000D9FE00F06FFF0020FFF7B4FD98E7280019
:10143000FFF732FE002E00D192E7300089E7019BD2
:10144000002D23D0002B06D100F014FF3043C0B292
:10145000FFF798FE84E7019B012B06D100F00AFFFD
:101460003043C0B200F024FF7AE7434B1B7F012BCF
:10147000EAD9019A9342E7D100F034FF00F056FE1A
:101480003043C0B200F002FF3000E1E7002B02D190
:1014900000F028FF14E0384B019A1B7F012A13D17A
:1014A000012B00D85CE700F08FFE064200D157E721
:1014B00000F018FF00F03AFEB043C0B200F0E6FEC4
:1014C0003000FFF767FE4BE7012BE1D9019A9A4202
:1014D000DED145E7284B019A0333DB7F002D03D093
:1014E0009A4200D93CE7CFE79A4200D338E7E7E7D2
:1014F000002BE5D0204B392F18D1188C00280ED0A6
:101500001E4A00232900FFF7A5F800231C4A801873
:101510005941FA2200239200FFF77CF800E00120F5
:1015200007F010FB3800FFF7B7FD19E7D88BE5E7A8
:1015300023059B0F09D0012B00D011E7281E01D0F5
:10154000A005800D06F00AF80AE7281E01D0A005C4
:10155000800D05F0F1FF03E7E0B2002D04D002F0AA
:10156000C7F802F0B5F9FBE602F030F9F9E7C0463A
:10157000B22A0020A0050020162C00201027000011
:10158000E7030000BF01BF0F25D1002D00D0E7E623
:101590002206520F92002007D2B2000F9040C3B231
:1015A0001020204003D00F209040C043C0B222053D
:1015B000920F1843022A08D00AD8012A02D000F05C
:1015C00085F9CDE600F078F9CAE600F089F9C7E6BA
:1015D00000F06DF9C4E6A205920FD1B20123002DEF
:1015E0001DD01340002B00D1BAE62206520F920004
:1015F0002007D2B2000F9040C3B21020204003D089
:101600000F209040C043C0B22205920F1843022A17
:101610000BD00DD8012A05D000F0B6F9A0E6490894
:101620000B40DFE700F0A6F99AE600F0B7F997E67D
:1016300000F066F994E62605E7B2360F002D04D0D7
:10164000300000F073F9380002E73800FFF7A2FD20
:10165000300000F077F983E6E6B23000F038042875
:1016600071D8FEF74DFE032A151C26005D4B019A2A
:101670000333DB7F002D07D09A4200D370E6E004ED
:10168000C00E00F06BF96BE69A4200D968E6F6E707
:10169000E004C00E002DDCD100F048F960E6002D1A
:1016A00004D0E004C00E00F03AF959E600F032F937
:1016B00056E64D4B5B785B0704D4E004C00E002D6A
:1016C000C7D0E9E7474E337F012B2FD9002D1DD01E
:1016D00000F050FD042808D100F086FEE004C00EA2
:1016E00000F030F9002303933AE60022337F03929F
:1016F000019A934200D833E6E604F60E300000F07B
:1017000015F90321300000F04FFE29E6019A9342BB
:1017100008D800F069FEE004C00E042100F044FE89
:1017200003951DE6012000F06DFEF9E7002DE3D1E1
:10173000012000F067FE019B012B00D810E602207B
:1017400000F060FE0CE6019B002D06D0002B01D0BE
:10175000300069E6E004C00E9EE7002B1BD0214B51
:10176000392E16D1188C00280ED0204A00232900CB
:10177000FEF770FF00231E4A80185941FA22002309
:101780009200FEF747FF00E0012007F0DBF9300090
:10179000C9E6D88BE7E7E004C00E5AE7019B002DAD
:1017A00003D0002B00D0EAE5ECE5002B00D0E6E505
:1017B000029A029B50881B88000491881843019A62
:1017C000FFF7FEF9029903F0B9FD002800D1D6E534
:1017D000084B1B68022B00D0D1E5E0B2FFF7C6FC36
:1017E000CDE5C046162C0020B22A002010270000AC
:1017F000E7030000A005002070B504000089002860
:101800000BD000F0C5FF051C00F0D2F800F04EF838
:10181000291C2000FFF736FD70BDA078218800F05C
:1018200049F9F0E773B5868801AD04000100022292
:101830002800FFF75DF8002E16D02A880E4B9A423A
:1018400012D02000FFF7C2FA00280ED100F0B2FC3F
:10185000002809D0A378002B06D0084B5B785B07E3
:1018600002D5022000F0CEFD73BD2000FFF7C4FFBB
:101870002000FFF7E0F9F7E7FFFF0000B22A0020A1
:1018800082B002B0704784B004B07047704710B5A2
:10189000FFF7FCFF10BD000010B5FFF7F8FF024B8B
:1018A0001870FFF78FFC10BDA4050020704710B51D
:1018B000FFF7F2FF10BD000010B5034B1B78184373
:1018C000FFF7EAFF10BDC046A405002010B5034B8A
:1018D0001B781840FFF7E0FF10BDC046A4050020AC
:1018E00010B5034B1B785840FFF7D6FF10BDC0461C
:1018F000A4050020704710B5FFF7FCFF10BD0000E5
:1019000010B5FFF7F8FF024B1870FFF75BFC10BD36
:10191000A505002010B50020FFF7F2FF10BD012340
:10192000834010B5D8B2FFF7EBFF10BD0123834011
:1019300010B5034A10781843C0B2FFF7E1FF10BD9D
:10194000A50500200123834010B5034A1078984371
:10195000FFF7D6FF10BDC046A50500200123834038
:1019600010B5034A10785840C0B2FFF7C9FF10BD48
:10197000A505002010B5034B1B781843FFF7C0FFE7
:1019800010BDC046A505002010B5034B1B781840BC
:10199000FFF7B6FF10BDC046A505002010B5034BEC
:1019A0001B785840FFF7ACFF10BDC046A5050020CE
:1019B0007047032370B50125CC086343D218072371
:1019C0002E0019408E400021F6B20300CB40545C3B
:1019D0002B405B4263403340634053540131032941
:1019E000F3D170BD30B50724032300220440C008A2
:1019F00058430125091810008B5CE3402B409340AD
:101A000001321843C0B2032AF6D130BD07B5030432
:101A100001AA10801B0E0800072B08D812780E2A86
:101A200005D80F2159438918014AFFF7C2FF07BDA6
:101A3000A605002007B5030401AA10801B0E002094
:101A4000072B08D812780E2A05D80F3058430249C0
:101A50008018FFF7C7FF0EBDA6050020F7B50724C5
:101A600001270D4B01AE30801A780C4B1B781A43BE
:101A70000092009BE5B223413B4204D1013CF8D2E5
:101A800000252800FEBD3168280000F053FF80B219
:101A90000128F3D0F5E7C046A5050020A4050020E5
:101AA00007B501AB18800198FFF7D8FF019900F046
:101AB00041FF0EBD37B50F4B01AC1B782180002BC9
:101AC00003D00198FFF7ECFF3EBD00280CD0206842
:101AD000FFF7C4FF050001002068FFF797FF019999
:101AE000280000F027FFEFE72068FFF7A3FF0500BD
:101AF000F5E7C0469D05002070B50A2507260C4B6A
:101B00001C780C4B1B78A34200D170BD2B006343A3
:101B1000094A0134995AD31858889A88000408430E
:101B2000D9883440090411431A89FFF7ACFEE8E76D
:101B30002F0600202E060020DE050020064B10B5E3
:101B400058881A88D988000410439A8809041143D8
:101B50001A89FFF798FE10BDD4050020F7B50E4C8A
:101B60000E4B24781B7801940D4C019DAB4201D1A2
:101B70000020FEBD0A265E43A5196F788F4205D16D
:101B8000365D864202D1AD78954203D107250133F7
:101B90002B40EAE70120ECE72E0600202F0600206C
:101BA000DE050020F7B50F22224CA37993433BD1E9
:101BB000A378002B38D0204B1D78204B1B78AB42EC
:101BC00032D02188A38801AA1180002B2DD01C4A75
:101BD00089B2914229D00A2169431A4A607856187D
:101BE0007778874221D120788A5C90421DD1B178E4
:101BF00000291AD1B7882000FF1AFFF705F8210045
:101C0000BFB202F047FF87420FD20F211022A37903
:101C100020000B401343A371B3790B401A43B271F8
:101C2000FFF700FEFFF768FFF7BD072301351D40F2
:101C3000C3E7C046D40500202F0600202E06002052
:101C4000FFFF0000DE050020F0B5040097B00EAFE6
:101C5000062201003800FEF74BFE2378A44E0193C4
:101C6000637800210393A37830000093A388029344
:101C7000FEF7CAFF3288B38806A905900A80002BB8
:101C800000D1A9E19B4891B2814200D134E1B17801
:101C90000491002900D12FE1029A00213000D51AC9
:101CA000FEF7B2FF310002F0F5FEADB2B3790F22BC
:101CB000854200D3DAE093431D00B1883388002DBC
:101CC00000D08CE007AA1380009D00291DD089490F
:101CD0009AB28A4219D02288934216D13289238936
:101CE0009A4212D1002D10D10F22814EB3791A40A1
:101CF00010231343B371FFF721FF3000FFF792FD6C
:101D0000B379A371280017B0F0BD029B002B2BD034
:101D1000019A0CAB1A70039A5A701B88754A934249
:101D200019D0009B002B16D11A0003990198FFF7D8
:101D300015FF00280FD06E4E0598310003F0E6FA2B
:101D4000002808D03000FFF76DFD0A22009930000E
:101D5000FEF722FE18E1019A0DAB1A70039A5A7031
:101D60001B88644A934204D1009B002B31D100258B
:101D7000C8E7009B002B2CD11A0003990198FFF7AC
:101D8000EDFE051EF3D1019A0EAB1A70039A5A703C
:101D90000E98FFF785FE0204C3B2100F03280DD87A
:101DA0000F21120EFEF7ACFA02020F0F114201D002
:101DB000002BA7D02033DBB2072BA3D92000FFF7DD
:101DC00031FD049D9EE71142F4D0A2798A43F1D1FE
:101DD00098E70123464A91790B439371C7E708AA14
:101DE000138000291BD043499AB28A4217D0228817
:101DF000934214D1328923899A4210D1009B002B3F
:101E00000DD13B4D2000AB79A371FFF70BFD0A22EA
:101E100021002800FEF76CFDFFF790FED1E72000BF
:101E2000FFF712FA00281DD0009B002B1AD0304B70
:101E30009A791F2A0BD910A8198801800021817076
:101E40000299827181801B890381FFF7EBFC0A22D2
:101E500021002748FEF74CFDFFF7A4FEFFF76EFEBA
:101E600001254FE72000FFF7DDFCF9E793431D1E36
:101E700010D1009BBB70029BBB80019B3B70039BFE
:101E80007B7003CFFFF7FCFC3000FFF7CBFC0A228E
:101E900029005CE73388B18809AA1380002919D08A
:101EA00014499AB28A4215D02288934212D13289BB
:101EB00023899A420ED1009B002B0BD10C4D2000A0
:101EC000AB79A371FFF7AEFC0A2200212800FEF7D0
:101ED00063FD76E72000FFF7B7F90028C2D0009B2A
:101EE000002BBFD0024B13A89A791F2AAFD9A3E7C2
:101EF000D4050020FFFF0000002B6DD041498A422D
:101F00006AD0414FBD78002D66D1029A2900380071
:101F1000D61AFEF779FE3900B6B202F0BBFD864252
:101F200049D2009D002D9DD03B88B9880BAA138013
:101F3000002932D033499AB28A422ED02288934265
:101F40002BD13A8923899A4227D13900059803F089
:101F5000EDF900281BD1BA79D30718D40F2113004B
:101F60008B4314D0A271F02B06D0D3B21A090132E0
:101F700012010B401343A3712000FFF753FC0A2208
:101F800021003800FEF7B4FCFFF7D8FDBAE60A22BC
:101F900021003800FEF7ACFCB4E62000FFF754F94E
:101FA000002800D053E70123BA7920001343BB7106
:101FB000FFF738FCA6E6009A0EAB9A70029A9A8058
:101FC000019A1A70039A5A700E980F99FFF758FCED
:101FD0000A2229003800BBE6009B002B00D141E714
:101FE0002000FFF731F9051E00D13BE70A2221004E
:101FF0003000FEF77DFC3000FEF7C6FFFFF7D2FD94
:10200000C2E7C046FFFF0000D4050020F0B589B04C
:1020100001AE019030007160B260FFF715FE05A9B6
:10202000071E2F4C0DD03288B3880A80002B06D0B3
:102030002C4B92B29A4202D007CEFFF724FC0A271B
:1020400047E00B00320021CA21C312881A80088899
:10205000B28804AB1880002AF1D0224B82B29A4297
:10206000EDD0214B18780723461C1E4023789E4252
:102070000AD00A2250431D4B1818FEF739FC1A4BA0
:102080001E70FFF739FDDAE7FFF7B2F8164B0A22A8
:10209000390017481F702770FEF77EFCCFE77843A2
:1020A000124E3018FFF7D0FD002817D023787B435D
:1020B0009A5BF6187088F188B3880004090410430D
:1020C00019433289FFF7DFFB0722237801331340DE
:1020D0002370054B20781B788342E0D109B0F0BD16
:1020E0002F060020FFFF00002E060020DE05002046
:1020F000D405002010B5034B0100186805F0C2FAA2
:1021000010BDC0468802002010B5034B01001868BE
:1021100005F0CCFA10BDC0468802002010B5024B75
:10212000186805F0D7FA10BD88020020014B187816
:102130007047C0467406002070B50024074D6B88B8
:10214000A34208D005F0C6FB054B1B88C01A6B885C
:1021500080B298426441200070BDC046162C002019
:10216000760600200020024B1856C010C0B27047FF
:1021700070060020024B1878072318407047C046AD
:102180007006002010B505F0A5FB074B074A1B8819
:102190005288C31A9BB200209A4204D8044B0130E3
:1021A0001B789B08984310BD72060020162C002057
:1021B00070060020034B187807231840431E9841EF
:1021C000C0B2704770060020014B18787047C046B7
:1021D00078060020024B1A78104318707047C046EA
:1021E00078060020024A1378834313707047C04674
:1021F00078060020014B18707047C0467806002012
:102200000022014B1A70704778060020014B1878A5
:102210007047C0467A060020024B1A7810431870A7
:102220007047C0467A060020024A13788343137031
:102230007047C0467A0600200022014B1A70704792
:102240007A060020014B18707047C0467B060020BC
:102250000022014B1A7070477B060020014B18705A
:102260007047C046790600200022014B1A70704763
:1022700079060020014B18787047C046750600208B
:10228000704710B5FFF7FCFF10BD000010B5044B00
:102290001A78824202D01870FFF7F3FF10BDC046D3
:1022A00074060020704710B5FFF7FCFF10BD00005A
:1022B000094B70B55B7804005B070BD5074D2B7895
:1022C000834207D005F006FB054B2C7018802000D8
:1022D000FFF7E9FF70BDC046B22A00207506002056
:1022E0007606002010B5054B1A78002A05D000208C
:1022F0001870034B1880FFF7D6FF10BD750600203D
:102300007606002070B51D4B1D4A1E4C12781B78B6
:102310001D4D1343226813702B78002B14D01B4BD8
:102320005B88002B05D0FFF707FF002801D0FFF7DF
:10233000D9FF20682A7803781343037005F020F949
:10234000002801D0FFF7CEFF2468114B114D1A78F9
:10235000237829009343104A2000127813432370F6
:102360002022FEF79DFA002807D020222100280015
:10237000FEF7BEFA200005F0B9F870BD780600201F
:102380007A0600208802002075060020162C002006
:1023900079060020500600207B060020704710B50B
:1023A000FFF7FCFF10BD00000C4B10B55B785B071E
:1023B00010D50B4CC3000B432370FFF7B7FA05F0A1
:1023C00089FA084B188000202056C010C0B2FFF7D1
:1023D000E6FF10BDFFF7AAFAFBE7C046B22A0020CD
:1023E0007006002072060020002010B5034B187004
:1023F000034B1880FFF7D3FF10BDC04670060020C6
:1024000072060020002310B50A4AD35619008143F2
:1024100048B2107042070CD1DBB2834209D0064BA0
:102420005B785B0705D5C010C0B2FFF78BFAFFF7EA
:10243000DBFF10BD70060020B22A00200A4A10B54A
:1024400053785907C90F81420CD00121084003314C
:1024500080008B4303435370108800F04BF8022038
:10246000FFF7D0FF10BDC046B22A0020044B10B5C4
:10247000587801234007C00F5840FFF7DFFF10BD19
:10248000B22A002010B50120FFF7D8FF10BD10B50B
:102490000020FFF7D3FF10BD10B501F0EDFB02499E
:1024A000002001F0CDFB10BDFFFF000010B50020A3
:1024B00001F088FB034B020000209A4201D101F099
:1024C000A1FE10BDE8FE000010B5022001F06EFB79
:1024D00010BD10B5032001F069FB10BD10B504203C
:1024E00001F064FB0400222001F060FB00022043A5
:1024F00080B210BD10B50400C1B2042001F094FBFD
:10250000210A222001F090FB10BD10B501000F2020
:1025100001F0A2FB10BD10B50100132001F09CFBDF
:1025200010BD10B50020FFF7F6FF10BD10B500205C
:10253000FFF7EBFFFFF7F5FF10BD000010B500241B
:1025400001F09AFB2249002001F07AFB00210220D1
:1025500001F06AFB0021032001F066FB1D4B210006
:1025600004201C7001F060FB0421222001F05CFBC0
:102570002100052001F058FB2100062001F054FB4A
:10258000FF21072001F050FB2100082001F064FB2F
:1025900021000D2001F048FB2100182001F05CFB18
:1025A0002100172001F040FB21001C2001F054FB0A
:1025B0002100202001F044FB2100182001F04CFBF9
:1025C000200001F033FE01F053FEFFF7AFFF10BD16
:1025D000E8FE0000A405002010B5FFF7AFFF10BD16
:1025E00010B501000E2001F01FFB10BD10B505F065
:1025F00023F9024B1860024B186010BD7C060020C6
:10260000800600207047704710B5FFF7FCFF10BD33
:10261000704710B5FFF7FCFF10BD000010B507486C
:1026200000F06CFA01F024FB02F002F802F0BCFDAD
:10263000FFF7E8FFFFF7E8FF10BDC046DD800010A0
:102640000120704710B5FFF7FBFF10BD70477047C2
:1026500010B5FFF7FBFFFFF7FAFF10BD10B500F054
:1026600075FAFEF7FFFB02F01BFF10BD10B505F079
:10267000DFF801F00CFE00F04FFCFFF7EFFFFFF773
:10268000C8FF10BD10B504F011FC04F0F3FE03F018
:10269000A3FD03F00FFB10BDF0B589B000F054FCB2
:1026A000384E0024350020000134E4B22F8800F0B9
:1026B00077FA082C44D002358742F4D0324B1B788D
:1026C0009B0701D500F072FAFFF7BCFF00240390CE
:1026D000200000F065FA33880700984228D0434074
:1026E0009BB20293002301250193029B1D4216D049
:1026F000039B002B13D0019A04AB1A705C702B0063
:102700003B405A1E934104AA937005F0E3F801235D
:10271000184304AB988005990498FEF7DDFB019BF4
:102720006D000133DBB20193ADB20F2BDDD13780E9
:102730000134E4B20236082CCAD1FFF757FF18E083
:102740008742BBD105F0C6F8104D06002B888342A6
:102750000FD0012306AC5B4223800023A37005F059
:10276000B9F801230343A38006986168FEF7B4FB20
:102770002E80FFF787FF01F049F9FEF797FB09B0BC
:10278000F0BDC04686060020960600208406002084
:1027900070B500F0D9F8554B0400984231D8A0200C
:1027A000C001844200D379E0E72C17D8E02C6ED228
:1027B000A72C0AD8A52C63D2012C68D023B2002BF9
:1027C00001D0042C63D2002461E0BE2CFBD8583425
:1027D000E4B2474B6400E05A882456E0454B9C42E3
:1027E00006D8FF2C55D8F02CEDD30443A4B24EE00C
:1027F0008023DB019C42E6D33F480440A020000236
:1028000044E03E4B984212D8FF3BC0B29C425CD29F
:102810003B4B9C4250D8FF3B9C424AD30324830845
:1028200004400120A0405B011843364CDDE7364BE5
:1028300098420FD8FF3B98424AD2344B9842C2D8B4
:10284000C0B200F005F9F824000264012040013410
:10285000FF341BE02E4B98423DD92E4B254AC3181E
:102860009BB29342AFD8C004C00E00F0F1F8F82339
:1028700000025B011840E4B204438020800105E0BF
:102880005B34254BE4B2185D8024E4010443201C32
:1028900070BD200A80B20002E4B2A6E70323E4B2CE
:1028A000A00818401C40023BA340400118431B4CA9
:1028B0009BE700021A4CE9E7032483080440012047
:1028C000A0405B011843174C8FE70002164CDDE770
:1028D0000002164C89E70F25284000F0B9F82409BA
:1028E0002C402402044312487FE7C046FF500000FA
:1028F000F4AF0010FF1F0000FF0F0000FF540000A6
:10290000FF520000008CFFFFFF580000FF55000041
:10291000FF59000000A0FFFFF0AF0010008DFFFF87
:10292000F1A00000008AFFFFF4A00000F0A0FFFF6C
:102930000090FFFF07B501AB1980019902F04EFA34
:10294000FFF726FF0EBD000010B582280CD014D86A
:10295000312866D004D829285AD02A2867D010BD3B
:10296000352850D03928FAD1384B1A78920767D1D8
:102970005B781B07F3D52920F1E7E32827D00BD894
:10298000E02816D0E228EAD1304B1B785A07E6D56A
:10299000E320DB0619D4E2E7E62826D0E72829D091
:1029A000E428DCD1294B5A789207D8D51B78E72048
:1029B000EFE7264C0121227813000B402FD16478D9
:1029C0000C42CCD0E320D206C9D50020C7E71F4A6D
:1029D0001378590732D45278D20731D410221340D9
:1029E0005A4253415B421840B9E7184B1B781A070B
:1029F000DDD4B4E7154A1378190723D45278920727
:102A0000ECD5E420ABE7114B1B789B06A7D5B2E7CA
:102A10000E4B1A78920617D45B781B079FD5392086
:102A20009DE70A4B1B785B0699D52A2097E7074B51
:102A30001B785B0600D492E7312090E7E2208EE716
:102A4000E0208CE7E6208AE7352088E7B22A0020DC
:102A500030B5042427490A78224205D018230340C0
:102A6000082B27D198432043130708D518240500C5
:102A700014232540A54225D1A843C0B21843012400
:102A80004978214206D018230340082B21D19843CE
:102A9000C0B220438B0708D51821040011230C4035
:102AA0008C421FD1A043C0B21843D30601D5E723FF
:102AB000184030BD14230340042BD5D19843043370
:102AC0001843D1E70340142BD9D19843C0B2204317
:102AD000D5E711230340012BDCD19843C0B2073363
:102AE0001843D7E70340112BDFD19843C0B2084306
:102AF000DBE7C046B22A002000207047014B186077
:102B00007047C0468C02002010B5024B1B689847E6
:102B100010BDC0468C02002010B5FFF7BDFC10BDF3
:102B200010B500F011FA642006F00CF800F00CFA71
:102B3000002000F035F8C30703D5FFF7EDFF04F0E0
:102B4000E9FE10BD10B5FFF7EBFF10BD10B5FFF7A4
:102B5000ADFC002801D1FFF73FFDFFF7B5FC084BA6
:102B60001870FFF7BBFC074B1880FFF7EBFFFFF770
:102B7000B0FCFEF79CFE044B1878FEF7BCFE10BDBF
:102B800096060020B22A0020A5050020704710B547
:102B9000FFF7FCFF10BD704710B5FFF7FCFF10BD3D
:102BA000014B4000185A7047C42A002010B50D4848
:102BB00000F022FD002421000B4800F01DFD0B4811
:102BC00000F01AFD0A4A6300D05AFEF727F9010007
:102BD000084800F011FD0134074800F00DFD082CF5
:102BE000E9D110BDE3A70010FAA70010FFA700105D
:102BF000C42A002002A8001046A8001010B51E200C
:102C000005F07CFD10BD000070B5052007F0BAFB93
:102C10005D4B0500984200D8B4E05C49FDF784FBA9
:102C20005B4B04009D4200D89BE0072359492800D4
:102C30001C40FDF779FB01380F2800D991E0FDF722
:102C400069FB880080007800700068006000580010
:102C500050004800400038003000280020001800D4
:102C60001000C046C046C046C046C046C046C0462A
:102C7000C046C046C046C046C046C046C046C04624
:102C8000C046C046C046C046C046C046C046C04614
:102C9000C046C046C046C046C046C046C046C04604
:102CA000C046C046C046C046C046C046C046C046F4
:102CB000C046C046C046C046C046C046C046C046E4
:102CC000C046C046C046C046C046C046C046C046D4
:102CD000C046C046C046C046C046C046C046C046C4
:102CE000C046C046C046C046C046C046C046C046B4
:102CF000C046C046C046C046C046C046C046C046A4
:102D0000C046C046C046C046C046C046C046C04693
:102D1000C046C046C046C046C046C046C046C04683
:102D2000C046C046C046C046C046C046C046C04673
:102D3000C046C046C046C046C046C046C046C04663
:102D4000C046C046C046C046C046C046C046C04653
:102D5000C046C046C046C046C046C046C046C04643
:102D6000C046601E07280DD8FDF7CAFA0B0A0908ED
:102D700007060504C046C046C046C046C046C04619
:102D8000C046C04670BDC046FF083D0000093D007A
:102D9000FF5025020048E80110B5FFF72FFF10BDD6
:102DA00010B572B6D023BE211B0649005A58002A1E
:102DB000FCD0BFF35F8F01228240084C9A62C200B0
:102DC000121905245460064A800080184A22426085
:102DD000BFF35F8F5B5062B610BDC046004001403C
:102DE00000C00140F8B5194C250020352068431C6F
:102DF00001D0FFF7D5FF0434AC42F7D10123D02135
:102E0000BE240F229C46052611480906640003686B
:102E10005D1C15D072B60F59002FFCD0BFF35F8F29
:102E200067469F400B4D8F62DF007F193E604A2747
:102E3000094D9B005B191F60BFF35F8F095162B69C
:102E4000013AD2B20430002AE1D1F8BD60B00010DE
:102E500024B000100440014004C00140F7B52A4AE4
:102E60008B009B5801900D005A1C4BD072B6D0229B
:102E7000BE201206400011580029FCD0BFF35F8F1E
:102E800001242700214ED9009F4089190526576249
:102E90004E601F499B005B18402159609761BFF34A
:102EA0005F8F125062B6FFF7AFFED02212060F23DB
:102EB00000279446174908680022461C08D062463D
:102EC00052680126C24010000022304200D122B2D6
:102ED000013B17436400DBB2BFB2A4B20431002B44
:102EE000E9D1094AAB00D058431C01D0FFF758FF85
:102EF00039004B1E99412800C9B2FFF74DFF019BD5
:102F00006D00EF52F7BDC04660B0001000400140B8
:102F100000C0014024B0001010B51024FFF762FF7C
:102F2000220000210648FDF737FD22000021054858
:102F3000FDF732FD082000F039F8FDF7A9FE10BDBD
:102F4000C42A0020B42A002030B585B01022002108
:102F50006846FDF721FD0024210001346846E4B2F3
:102F6000FFF77CFF082CF7D10E4C10226946200099
:102F7000FDF796FC05006B1E9D41EDB2002804D0C4
:102F8000102269462000FDF7B3FC2B0008220649F9
:102F9000200000F00DF80400FDF77EFE200005B0D3
:102FA00030BDC046B42A0020C42A0020704700006B
:102FB000F7B5070001911500134E002B05D0012332
:102FC000337004F039FC114B18603478002C02D1B6
:102FD00000242000FEBD0D4B186804F087FC042877
:102FE000F6D96D002A0039000198FDF759FC002838
:102FF00007D02A0039000198FDF77AFC00233370CE
:10300000E7E70400FAE7C04697060020980600208C
:1030100010B505F0D1F8FFF729FB05F0E7F810BD72
:1030200010B505F0EBF8FFF737FB05F00BF910BD15
:1030300010B504F0B9FB05F0BAF8FFF7EFFAFFF7A7
:10304000E7FFFFF7EDFFFFF703FBFAE70300DA689E
:103050000800511C10B5D96019698A4204D21C6855
:10306000002C02D05968A04710BD9B689854FBE71C
:10307000F7B51F00C36804000093089B0191150079
:103080009B070DD0002D0DD1089B9B0715D4F7BDD4
:1030900020212000FFF7DAFF0136BE42F8D3F1E726
:1030A0001600FAE7019B013D595D2000FFF7CEFFB6
:1030B000E8E720212000FFF7C9FFE368009A9B1A88
:1030C000BB42F6D3E3E70000F0B58FB00490039263
:1030D0001D00169C002923D123051DD4302206ABE8
:1030E0001A70102301319C430A00A30744D4012322
:1030F000159A2340002A0BD00A00002B3CD0039ADB
:10310000002A02D10C32144202D0159A013A1592CB
:103110000A0006A8302628E0102DE5D1AC43E3E7ED
:103120006123A20600D541230F000026DBB20A3B33
:10313000059329003800FDF77DF9059BCAB2D31825
:103140008446DBB2092902D813003033DBB20820F1
:1031500004AA1218711C9355BD42C5D80E0020292F
:10316000C2D06746E5E716540132002B04D0159F04
:10317000974201D9202AF6D106A8302301E08354D2
:103180000132149E964201D9202AF8D1082D03D18C
:10319000914201D210239C43274B1C4225D023058A
:1031A00037D4002A35D0149B934202D0159B93420A
:1031B0002FD191423CD2013A002A2AD0102D25D09D
:1031C000022D0DD18A4223D801E0022D08D11F2AF9
:1031D00026D8622302E058231F2A21D883540132C3
:1031E0001F2A1DD83023835401321F2A18D8039B6D
:1031F000002B03D02D238354013211E0630701D546
:103200002B23F8E723070BD52023F4E7914202D2C2
:10321000013A102DD9D1A306DDD478231F2ADDD998
:1032200001000094159B0498FFF722FF0FB0F0BD3A
:10323000102DC5D1EFE7C0461020000010B5FFF7F4
:1032400063FC10BDF0B5070015008BB00591059B20
:103250001978002911D13B68002B0BD13A69002A5B
:1032600008D0B968002905D0FB689A4200D8531EDF
:103270000022CA54F8680BB0F0BD059B0020013352
:103280000593252900D0DBE008242439059B059A05
:103290001B7801322B2B16D00BD8202B15D0232BCB
:1032A00015D019003039092933D800230A24049392
:1032B00015E02D2B04D0302BF3D108430592E5E720
:1032C00002231843FAE70423FBE72043F6E7102321
:1032D000F7E7049B05916343303BD3180493059BA8
:1032E0001A78591C1300303B092BF2D9059B1B7827
:1032F0002E2B4ED1802212011043059A059B527845
:10330000013311003039092939D80A2200269446A0
:1033100013E0002104912A2BE8D108CD04938B42BD
:1033200004DA02231843049B5B4204930592DDE711
:1033300063465E432300303E96191A785C1C1100E8
:1033400030390929F4D919785A1C6C292BD023D883
:10335000682930D06A2936D01A001178531C059399
:10336000692937D063D8622900D126E12ED82529D2
:1033700066D0582964D120231843103B3AE0002638
:103380002A2AE0D140CDF343DB171E40059B0233D0
:10339000D9E7059B0026D6E7742901D07A29DBD12D
:1033A00080239B000BE059786C29F9D1C022D20010
:1033B00010439A1CD1E75978682902D0802318431A
:1033C000CBE7C022F4E78023DB00F8E7632969D06C
:1033D000642935D18023DB011843782938D0582956
:1033E000C9D06F2900D1E6E0622900D1E5E01023C1
:1033F0009843063B020501D5012290438022D2006A
:10340000024041042ED5002A00D020E72C1D296857
:1034100082051FD5CD1702900498CA0F491969403B
:10342000019000963800FFF74FFE25000FE7732943
:1034300059D009D86F2900D1BDE0702900D1A3E08F
:103440003800FFF703FE02E77529D0D07829F7D1BD
:103450001023CFE7420601D549B2DBE70206D9D5F2
:1034600009B2D7E7002A00D0F1E60C2104008C4312
:10347000A4462C1D810506D561460291049900964B
:1034800001912968CEE72968420607D5C9B262468C
:103490000292049A009601920022C3E70206F6D532
:1034A00089B2F4E70224012604400AD1012304E092
:1034B00020213800FFF7CAFD3300049A5E1C9A42AF
:1034C000F6D802CD3800C9B2FFF7C0FD002C00D1FC
:1034D000BDE6049BB34200D8B9E620213800FFF7CF
:1034E000B5FD0136F5E72B0004CB06920793002AC1
:1034F00008D10090049B062231493800FFF7B8FD3F
:10350000079DA4E6331E00D12E4B069A1500D31852
:103510002A78002A01D0AB4214D1069BED1A8023F1
:103520001B010340089302D0B54200D935000223A5
:103530000340099304D1049B6C1CAB4204D82500C2
:10354000069C0BE00135E3E720213800FFF77EFD04
:103550002500F0E738000134FFF778FD21780029D5
:1035600006D0089B002BF5D0069B9B199C42F1D1FD
:10357000099B002BC4D0049BAB42C1D92021380049
:10358000FFF764FD0135F6E70F4C02CD0443002937
:1035900007D100940A2305220C493800FFF768FD83
:1035A00055E60A2302940193009606330022380060
:1035B000FFF78AFD4BE608231CE702231AE7C04603
:1035C00008A80010FFFFFF7F012000000FA80010D7
:1035D0007FB5074B0A0001930023029303930493E2
:1035E000044B010001A80593FFF72CFE07B000BDB6
:1035F0003D320010FFFFFF7F0FB407B504A901C9DA
:103600000191FFF7E5FF03B008BC04B018470000C4
:1036100010B5184B1A78184B1B89D1070CD5174ACF
:10362000107843439B109BB27F20834203D87E389F
:10363000002B00D0D8B210BD910704D50F4A1078E6
:1036400043435B10EFE7520703D50C4A107843431E
:10365000E9E70B4A10780028E6D00A4A1178074AB1
:10366000127853438842DED25843FCF7E7FE83B218
:10367000DAE7C046A6060020162C002092020020A1
:10368000A70600209302002010B5154B1A780123DD
:103690001A4207D0134B1B789B080120002B0ED039
:1036A000D8B20CE0910703D50E4B1B785B08F4E70A
:1036B000520705D50B4B1B787F208342EDD910BDF7
:1036C000094A1278002AEBD0084B1978054B187874
:1036D0008A4201D383B2EFE75043FCF7AFFEF9E72C
:1036E000A606002096020020A806002097020020CF
:1036F00010B5F02805D1FFF78BFF4042314BD87051
:1037000010BDF12802D1FFF783FFF7E7F22805D1BA
:10371000FFF77EFF40422B4B9870F1E7F32802D170
:10372000FFF776FFF7E7F92804D1FFF7ADFF254B48
:103730001871E5E7FA2803D1FFF7A6FF4042F6E744
:10374000FB2805D1FFF7A0FF40421E4B5871D7E779
:10375000FC2802D1FFF798FFF7E7F42805D10123F1
:10376000184A51780B435370CAE7F52803D1154A1C
:1037700002235178F6E7F62803D1124A0423517840
:10378000F0E7F72803D10F4A08235178EAE7F82831
:1037900003D10C4A10235178E4E7FD2805D1012319
:1037A000094A11780B431370AAE7FE2803D1064A91
:1037B00002231178F6E7FF28A2D1034A04231178E7
:1037C000F0E7C046A0060020A6060020022210B5A1
:1037D0003B4B9A56F0280AD1D9787F290DD9002180
:1037E000D9708A420BD10021364A117007E0F128C6
:1037F0000ED1032159560029F1DC002A0ED01A7986
:103800005B7913435BB2002B01D12F4A137010BDBB
:10381000F22808D1002AF0DA00229A7003229A5680
:10382000002AECD1DFE7F32802D1002AF4DCE4E738
:1038300004215956F92804D10029DEDD002119712F
:10384000DBE7FA2802D10029D7DAF7E70521595634
:10385000FB2804D10029D0DA00215971CDE7FC28DA
:1038600002D10029F8DCC8E7F42804D15978F338EC
:1038700081435970C1E7F528F8D0F62802D159786C
:10388000F238F5E7F72802D15978EF38F0E7F82851
:1038900002D15978E838EBE7FD2805D101240B481F
:1038A0000178A1430170A8E7FE2803D1074802244C
:1038B0000178F6E7FF28A0D1044804240178F0E756
:1038C000A0060020A7060020A8060020A6060020CB
:1038D0002A4B70B51B782A4C1B073CD52948FFF7AB
:1038E0008BFE61782848FFF787FE2848FFF784FEA3
:1038F0000221274D61562800FFF77EFE254E30003D
:10390000FFF77AFE032128006156FFF775FE3000AD
:10391000FFF772FE042128006156FFF76DFE3000AC
:10392000FFF76AFE052128006156FFF765FE1A4879
:10393000FFF762FE194B1A4D19782800FFF75CFE5D
:103940001848FFF759FE184B28001978FFF754FE66
:103950001648FFF751FE03F0BDFFA378E27813434A
:1039600001D0134B188023796279134301D0114B96
:103970001880200003F0D4FD70BDC04696060020DC
:10398000A006002015A80010FAA7001038A8001003
:103990003AA80010B8AB00103DA80010A706002000
:1039A00040A8001043A80010A606002045A800105B
:1039B0009C0600209E06002010B506220021054826
:1039C000FCF7EAFF0023044A1370044A1370044A08
:1039D000137010BDA0060020A7060020A806002036
:1039E000A6060020022282560123002A0BD10322C0
:1039F0008256002A07D104228256002A03D10523C9
:103A0000C356581E834118007047000037B55E4CFE
:103A1000062221006846FCF76BFF00236A46A3706C
:103A2000E370237163716B46D2789B7813430BD09C
:103A3000564B188803F053FF55490B78002B28D0BC
:103A4000544A127890422DDC6B466A461B795279B3
:103A500013430BD0504B188803F041FF4F490B78AC
:103A6000002B52D04E4A1278904257DC6946200013
:103A700003F044FE002804D12000FFF7B3FF002824
:103A800001D0FFF725FF062269462000FCF730FF32
:103A900037BD444A15780A226A439042D4DD013387
:103AA0000B7001E0FF2BFAD16B4602255D57002D0C
:103AB00007D0FFF7ADFD0123002D00DCFE334343AB
:103AC000A3706B4603255D57002D07D0FFF7A0FDBF
:103AD0000123002D00DCFE334343E37002216156D5
:103AE0000029B1D0032020560028ADD0B52359437A
:103AF000091205D0A17043431B1204D0E370A3E761
:103B00000122A270F7E70123F8E7274A15780A2275
:103B10006A439042AADD01330B7001E0FF2BFAD11A
:103B20006B4604255D57002D07D0FFF7ADFD01233F
:103B3000002D00DCFE33434323716B4605255D57A2
:103B4000002D07D0FFF7A0FD0123002D00DCFE3380
:103B50004343637104216156002900D186E70520A3
:103B60002056002800D181E7B5235943091205D01A
:103B7000217143431B1204D0637177E70122227144
:103B8000F7E70123F8E7C046A00600209C060020C6
:103B9000A7060020910200209E060020A806002013
:103BA00095020020900200209402002013B56B467D
:103BB000DC1D0023010001222000237000F060F8CA
:103BC000207816BD13B56B469C1D00230100022210
:103BD0002000238000F054F8208816BD002307B58C
:103BE0000100042201A8019300F04AF801980EBDDB
:103BF00007B56B46D971073301000122180000F0A8
:103C000046F807BD07B56B46D9800633010002228E
:103C1000180000F03CF807BD07B50422019101002F
:103C200001A800F034F807BD70B50D000400FFF7DF
:103C3000BDFFA84203D029002000FFF7D9FF70BDC7
:103C400070B50D000400FFF7BDFFA84203D02900A6
:103C50002000FFF7D7FF70BD70B50D000400FFF71F
:103C6000BDFFA84203D029002000FFF7D5FF70BD9B
:103C700010B500F09FF910BD10B500F045F810BD6B
:103C80000B0010B50100180000F056F810BD0B0035
:103C900010B50100180000F0BDF810BD70B580240B
:103CA000044D6401280022000021FCF775FE024B40
:103CB0002B5170BDAC0600200810000070B5064DF9
:103CC000064C02202B5D002B05D100F04DFA002898
:103CD00001D00120285570BDAC0600200410000062
:103CE00070B5074D074C02232A5D002A06D000F06C
:103CF0006CFA031E02D000232B550133180070BD4F
:103D0000AC0600200410000070B5FFF7D7FF0400D8
:103D1000051E03D1FFF7E4FF200070BD00F026FA76
:103D20000400FFF7BBFF012DF6D1FFF7D9FF431EBB
:103D300098410440F0E70000030070B580249D180E
:103D4000080064010021A54204D803495918FCF772
:103D5000CFFD0121080070BDAC06002073B5FFF750
:103D6000ADFF8022114E050012013100002000F04D
:103D700011FA0024A04212D080210D4A0D4B4901B6
:103D8000300001F01DFB0090019180200422694663
:103D9000400100F0FFF90400601E84416400012D21
:103DA00001D1FFF79DFF200076BDC046AC06002084
:103DB00025232284E49CF2CB70B58024084D640155
:103DC000084B2A5901209A4209D900F0CFF9030083
:103DD0000020834203D0FFF7C1FF034B2B5170BD7E
:103DE000AC060020FF1F00000810000070B5802402
:103DF000074D64010100285900F0DEF9030000209E
:103E0000834204D02B5902332B51FFF7D5FF70BDED
:103E1000AC0600208023F0B5160089B0821805009A
:103E200001915B019A4203D90024200009B0F0BD42
:103E30005D4F3200C71939000198FCF731FD0124AC
:103E40000028F2D0320001993800FCF751FDFFF74D
:103E500035FF0590002834D1FFF742FFE4E7019BCE
:103E60001A78012E33D9EB0731D4504B9D422ED80E
:103E7000019B5B781B021343012B28D85A1E9341E8
:103E800020225B421340803B6A0A1343FF220399BE
:103E9000DBB291430A001A43039203996B08444A28
:103EA000DBB21B020A401A436B4603929889FFF764
:103EB0009DFF0400012868D1019B023E02350233B8
:103EC0000193002ECBD1FFF777FF040062E03F2D76
:103ED00018D8FF2104984023884301002B43DBB20C
:103EE0001943334B12020B40134304936B46188A59
:103EF000FFF77CFF0400012847D1019B013E0135FB
:103F00000133DDE70296052E01D90523029306AFA2
:103F100006220021B81CFCF73FFD07222B0C1340A2
:103F2000029ABD70D20013433B702B0A7B700023B2
:103F30000199DA19C95C0133D170029A9A42F7D11A
:103F40003888FFF753FF040001281ED17888FFF757
:103F50004DFF0400012818D1012E10D8032E06D9D8
:103F600006ABD888FFF742FF040001280DD1029A62
:103F7000029B9446F61AED18019B6344A0E7B888AB
:103F8000FFF734FF04000128E8D0002C02D0022CF7
:103F900000D00024059B012B00D046E7FFF7A0FED0
:103FA000002800D140E740E7AC060020FF3F0000BA
:103FB000FF00FFFFF0B587B0FFF770FE00F0C6F816
:103FC000002804D1FFF76AFE002007B0F0BD802270
:103FD000584D12012900002000F0FAF8002802D103
:103FE000FFF75CFEEEE78021534B544A490128005D
:103FF00001F0E6F9060080200C00042204A940012B
:1040000000F0E6F8049BB34202D1059BA34201D025
:10401000FFF744FE4A4E02AB9C1D2100300000F029
:10402000E7F800286FD02388002B6BD002AA1381F9
:10403000DAB2B41C910901294ED0002905D0022919
:104040004FD0002060E02600E5E70A2102ABC91846
:10405000200000F0CDF80028F3D0E022092102ABC7
:104060001F7AD2023B04134002AA891848780A78C2
:104070000002104340BA80B2034300930723FF08B5
:104080003B400193019A009B341D9A1880235B01E9
:104090009A42D6D806231F4206D005A9200000F078
:1040A000A7F80028CDD0B41D7B0708D50E2102ABA0
:1040B000C918200000F09CF80028C2D002340B215F
:1040C000009B019AE81802ABC918FCF711FC1D4BC4
:1040D0009C42B8D9012017E03F211B0A0A40AB548B
:1040E000F5E7F820510280011B0A01405B000B43F9
:1040F0001548591C8142A4D89206D20FEA540023D5
:104100006B54E4E70120340080267601AC5100288E
:104110000CD100F02BF8002800D153E7FFF71EFE6A
:10412000074BAB51002800D04FE74BE7FFF744FEA9
:10413000F8E7C046AC060020E49CF2CB252322849D
:1041400008100000FF1F0000FF0F0000802210B5C4
:10415000520003490348FCF7CBFB012010BDC046C9
:1041600000000010B41600200120704710B5EFF3D6
:10417000108372B68021FF20054C89014003236023
:1041800006F08AF9236883F31088012010BDC04629
:104190003418002010B5EFF3108372B6054C23607D
:1041A000FF235B03C01806F06FF9236883F31088C0
:1041B000012010BD3418002007B56B46D9800633A6
:1041C00001221900FFF7E6FF0EBD01207047000035
:1041D00010B55200054C1218091A904201D1012065
:1041E00010BD035BDB430B520230F6E700E01F100B
:1041F00010B50122FFF7ECFF10BD10B52620FFF728
:10420000D5FC10BD10B52320FFF7D0FC272801D026
:10421000002010BD2420FFF7C9FC4B28F8D1263818
:10422000FFF7C4FC043843425841F2E710B5272198
:10423000041E00D1D8312320FFF7F6FC4B21002CBF
:1042400000D1B4312420FFF7EFFC0421002C00D171
:10425000FB312520FFF7E8FC10BD7047704710B513
:104260000400FFF7FBFFE1B22620FFF7DDFC10BDE5
:1042700010B50020FFF7DAFF0020FFF7F0FF00F095
:1042800017FD00F003FE0120FFF7D0FF10BD10B5B1
:10429000FFF7E3FFFFF7B1FFFFF7E0FFFFF7B2FF24
:1042A000002801D1FFF7E4FF10BD000010B58C78A5
:1042B000002C1ED0174BC3180F2B22D81238C0B2B7
:1042C00000F0F2FD0024200010BD0120FDF72EFBC0
:1042D000032202210120FCF7CDFCF3E70120FDF7CA
:1042E00031FB032202210120FCF7C4FCEBE7022092
:1042F000F5E7094B9842F1D0084B9842F7D00124DA
:10430000E1E7054B9842E0D0044B9842DBD1022014
:10431000DCE7C046EEA0FFFF105F0000115F000069
:10432000FF23037070470000F8B56B4A040015685E
:104330000E000378002D0CD0FE2B4CD14378022BBD
:1043400002D9053B022B46D83100200000F078F955
:1043500041E00C2B00D18CE017D8042B00D175E084
:1043600009D8022B3CD060D8012B31D0310020007D
:10437000FFF7D6FF2FE0062B00D177E000D26BE0ED
:10438000092BF3D8FF23037025E0102B00D185E023
:1043900013D80E2B00D176E000D86EE04F4B1B688F
:1043A000002B18D0C1781C2915D84378021D8078BD
:1043B0001B02184300F054FD0DE0122B00D173E0F6
:1043C00000D26EE0132B00D17AE0FE2BCED1BBE7FA
:1043D0000923457083703100200003F0ABFEF8BD67
:1043E0004378022B0DD0032B0ED0012BBED103F04E
:1043F00023FA030EA370030CE370030A23716071A8
:10440000E9E7FFF7FAFEF4E7344B1B68002BE2D034
:10441000871C2800FEF7C4FB0135030AEDB23B7090
:1044200078700237082DF4D1D5E74378022B9DD15F
:10443000E37880781B02034320790004034360790A
:104440000006184300BAFFF70AFFC4E7C278817874
:10445000407800F07AFBD0E70279437912021343E7
:104460008178C278407800F086FBB4E700F020FC49
:10447000B1E700F0D5FC6070ADE700F0D3FC030AB3
:104480006370A070A7E7C1781C29A4D84378021DE7
:1044900080781B02184300F0C9FC9CE700F0F6FC92
:1044A00099E700F047FBE6E7C1781C2900D992E7BD
:1044B0004378021D80781B02184300F057FC8AE7FE
:1044C000C1781C2900D986E74378021D80781B0239
:1044D000184300F065FC7EE76C2000209C02002061
:1044E000002210B5064B074C074808495A610132B3
:1044F0009C60D86019611833202AF7D110BDC046DE
:104500005C1D0020594A0010BD490010D948001018
:10451000A022F0B5124D85B0520000212800FCF712
:104520003BFAC0220F4C520000212000FCF734FA65
:10453000002601AF2560F0B2390000F069FB0028C9
:1045400006D1082239002800FCF7D2F93B89A38064
:1045500001360A350C34202EEBD105B0F0BDC04633
:10456000D42A002058180020F0B50026264C85B02B
:10457000264AB30001ADD450F0B2290000F070FB20
:10458000071E3BD10100200010220830FCF704FA7E
:104590002B881F492380AB79A370AB88E370EB793C
:1045A00023712B7A63716B882772E3806B7A5AB21E
:1045B000D243D217114001226161134200D022720E
:1045C00002210B4202D0227A0A43227204221342B1
:1045D00002D0217A0A4322720822134202D0217AA1
:1045E0000A4322721022134202D0217A0A43227215
:1045F0002022134202D0237A1A4322720136183441
:10460000202EB5D105B0F0BD5C1A0020D8190020CD
:1046100066200020B823DB01984205D1034B1B68BC
:104620005A1E93415B4218407047C0469C020020CE
:1046300010B5FFF755FFFFF76BFFFFF795FF10BDB4
:104640007FB50400202926D140780D2823D8FBF718
:1046500057FE07232B2222404C55225F68727B7E37
:10466000202200212000FCF797F905232370002366
:104670006370A370E370C833237124336371143BF8
:10468000A371093BE3718C3B23720F3363726A336E
:10469000A372103BE3727FBD04232370023B63705F
:1046A0000023A370E370F6E7E178A3780902C91844
:1046B00049010A00644B20329942ECD801339A42F6
:1046C00000D91A002000614B521AC918FCF710F9E2
:1046D000E1E72022FF212000FCF75EF95C4B1B681C
:1046E00023705C4B1B686370D5E70122594B1A603D
:1046F000594B31321A6003F0EDF8CCE7544B1B688C
:104700002370544B1B686370534B1B68A370C2E744
:10471000E378A0781B0218432022210000F092FDCC
:10472000B9E7E378A0781B02611C18431F2200F050
:10473000ADFD2070AFE7E378A0781B02211D184380
:104740001C2200F0BDFDF4E700F048FDA3E7A078CF
:104750000628A0D8FBF7D4FD040E1D3C475A65007F
:10476000202500212A002000FCF716F9257065702D
:10477000A57090E7E57800210A2201A8FCF70CF962
:1047800001A9280000F020FA20700A22601C01A96B
:104790009CE701AD211D0A222800E678FCF7A8F865
:1047A0002888FFF737FF28806888FFF733FF688085
:1047B000A888FFF72FFFA880E888FFF72BFF2900C4
:1047C000E880300000F012FA2070FFF789FE62E7FF
:1047D000E5780A22002101A8FCF7DEF801A92800EB
:1047E00000F016FAD0E701AD211D0A222800E67874
:1047F000FCF77EF82889FFF70DFF2900288130009B
:1048000000F01AFA2070FFF783FE44E7E5780A22E9
:10481000002101A8FCF7C0F801A9280000F020FA47
:10482000B2E701AD211D0A222800E678FCF760F806
:104830006888FFF7EFFE29006880300000F024FA56
:104840002070FFF791FE26E70302000080B0001001
:104850009C0200206C200020682000200B4B13B528
:1048600018800B4B984202D8FCF754F913BD6A46E6
:104870000124084B9470138003F02CF86B4604431A
:104880009C8000980199FCF727FBEFE7142C00208F
:10489000FF1F0000F0F0FFFF0C4B07B518800C4B1A
:1048A000984202D8FCF74CF907BD6A46094B1380C1
:1048B0000023937003F00EF801236A4603439380AC
:1048C00000980199FCF708FBEEE7C046142C002085
:1048D000FF1F0000F0F0FFFF70B5214C06000D0037
:1048E000C8B2210000F070F9011E38D11D4BD88BE1
:1048F00000281CD01C4A0023FBF7ACFE00231B4AF7
:1049000080185941FA2200239200FBF783FE04F03D
:1049100019F90022164BEDB2585DB27001385A55A4
:1049200004281CD8FBF7ECFC18050B0D180001201F
:10493000EDE7608800280FD0FFF7AEFF0FE0A088FA
:10494000F8E7E0880028F7D123886088002B04D09E
:104950000028F1D11800EFE720880028ECD170BDC5
:104960005C200020162C002010270000E703000028
:104970003818002010B50400FFF770FF0C4BD88BDF
:10498000002813D00B4A00230021FBF763FE00230D
:10499000094A80185941FA2200239200FBF73AFE97
:1049A00004F0D0F82000FFF777FF10BD0120F7E7F3
:1049B000162C002010270000E703000070B5244CDF
:1049C00005000E00C8B2210000F0FEF800283CD11E
:1049D000AB78F6B21F48012B0FD16A79510701D588
:1049E000835506E0D207FBD5022383556088002853
:1049F00010D12088002828D00CE0022B23D16A791E
:104A000002331A4217D1D20707D4013B8355A0883D
:104A1000002812D0FFF722FF17E08355E088002816
:104A2000F8D12088002811D0FFF7A4FF6088002863
:104A3000F0D12088EEE7052383552088002804D094
:104A4000FFF798FFF5E70623835570BD6088D1E72F
:104A50005C2000203818002070B50D4C0500C8B24D
:104A6000210000F0B1F8002811D12488002C0ED0CC
:104A7000AB78032B09D12000FFF77CFF2000FFF764
:104A800079FF2000FFF776FF01E0032BF9D870BD16
:104A90005C2000207FB50A4B0400C3180E00FF2BDA
:104AA00009D801ADC0B2290000F08EF8002802D16B
:104AB000288904B070BD3100200000F021FCF8E727
:104AC00000A9FFFF70B58B78002B1CD1164BC018C6
:104AD00084B2FF2C17D8154DE0B2290000F074F80D
:104AE000002810D1182363431148C3189B78012B69
:104AF0000BD12B88002B06D06B88002B03D0AB8802
:104B0000EA88134306D0012070BD022BFBD1AB888D
:104B1000002BF8D0182301225C43001943799343FA
:104B2000437102F01DFCEEE700A9FFFF5C200020AE
:104B30005C1D0020042070471E234B4352009B182D
:104B4000F022504318182730704770B5002403280E
:104B50000FD807290DD80E2A0BD8FFF7EDFF050057
:104B6000FFF724F8000284B2681CFFF71FF8044323
:104B7000A4B2200070BD70B51D0003280DD8072910
:104B80000BD80E2A09D8FFF7D7FF0400290AFFF730
:104B90004BF8E9B2601CFFF747F870BD030010B591
:104BA0000020232B03D8024A9818FEF7FFFF10BD00
:104BB000E703000010B5232803D8024BC018FFF705
:104BC00033F810BDE703000010B50B001F2808D80C
:104BD0000A225043044941181800FFF751F80020F9
:104BE00010BD01204042FBE70B04000010B50B0094
:104BF0001F2808D80A225043044941181800FFF71B
:104C000046F8002010BD01204042FBE70B040000E5
:104C100010B50B001F2809D80A220100514305488E
:104C200009181800FFF72CF8002010BD01204042A1
:104C3000FBE7C0464B05000010B50B001F2809D844
:104C40000A2201005143054809181800FFF71FF810
:104C5000002010BD01204042FBE7C0464B0500008C
:104C600010B50B001F2809D80A220100514305483E
:104C700009181800FFF704F8002010BD0120404279
:104C8000FBE7C0468B06000010B50B001F2809D8B3
:104C90000A2201005143054809181800FEF7F7FFE2
:104CA000002010BD01204042FBE7C0468B060000FB
:104CB000F0B52D4B8DB01A680024009201221A60C5
:104CC000002518E0FBF7D6FEEBB20193F7B2012303
:104CD000A04205DD3A00E9B2E0B2FBF7CDFE0300E9
:104CE0003A00E9B2E0B20136FFF745FF0F2EE9D1F5
:104CF0000135082D01D00026E4E70134042CDFD172
:104D000000F06CFA0024C82303AD039404942B81B3
:104D1000E0B229000134FFF769FF202CF8D10A2204
:104D2000002106A8FBF738FE0024E0B206A90134F2
:104D3000FFF782FF202CF8D109AD0A2200212800BC
:104D4000FBF72AFE012300245B42AB8008336B7221
:104D5000E0B229000134FFF797FF202CF8D1024B75
:104D6000009A1A600DB0F0BD9C020020273070B58B
:104D7000140005005618B44200D170BD2B00074A3C
:104D8000273B934206DC2800FEF710FF2070013518
:104D90000134F0E700232370F9E7C046BF030000A9
:104DA000F8B50D4E1500B04209D8F0239B001B1A30
:104DB0008B4204DB273004005718BD4200D1F8BDF8
:104DC0002300273BB34203DC29782000FEF72CFFA9
:104DD00001350134F1E7C046BF0300000E4B37B583
:104DE0001C68002301AD29809C4208D169782A788B
:104DF0002300F02905D1F02A01D1084B1B881800A7
:104E00003EBD0328FBD80729F9D80E2AF7D8FFF7AB
:104E10009CFE0300F3E7C0466C200020142C002009
:104E200010207047004870473508000070B5140026
:104E300005005618084BE818B44200D170BD074B66
:104E40009D4205DCFEF7B2FE207001340135F1E72A
:104E500000232370F9E7C046CB07000034080000A8
:104E600070B5150004005618064BE018B54200D185
:104E700070BD054B9C4202DC2978FEF7D5FE01355A
:104E80000134F1E7CB0700003408000070B580253D
:104E9000044C6D01200000210134FEF7C5FEAC4238
:104EA000F8D170BDCB070000F0B5050085B00F2824
:104EB00000D97FE04048FEF779FE00287AD18026AD
:104EC0003E4C7601002D22D103952000FEF76EFEA8
:104ED000002103AD661C2870697088426AD00128E1
:104EE00064D13000FEF762FEA71C6870002861D014
:104EF000431E022B16D83800FEF758FEE61CA87099
:104F0000002802D0280000F0AFFD3400DDE7B442F5
:104F100050D02000FEF74AFE002801D1013DEDB23D
:104F20000134CFE7431F022B26D8E31C380001933E
:104F3000FEF73CFEE61CA8700028E6D00198FEF7BC
:104F400035FE261DE8700028DFD0FF2368881B028D
:104F5000984201D9000280B26B78062B06D0072B4D
:104F600007D0052BD1D1FFF705FDCEE7FFF776FC83
:104F7000CBE7FFF791FCC8E73E000428C5D1380015
:104F8000FEF714FE0500E01C261DFEF70FFE002DA7
:104F900010D000280ED0FF2301385843013D451999
:104FA000013DB2D30A2003F0CDFDF9E7280000F05F
:104FB00013FDAAE705B0F0BDFF0F0000CB0700000E
:104FC00010B5104C0A21A088FBF7AEF90E4B0A2150
:104FD0001870E2880D4B1A7062890D4B1A70A28905
:104FE0000C4B1A70E089FBF79FF90B4B1870228A63
:104FF0000A4B1A70628A0A4B1A70A28A094B1A70FD
:1050000010BDC046162C0020900200209102002006
:1050100092020020930200209402002095020020BA
:10502000960200209702002013B50800032A25D914
:105030000623144A11785278CC070B40E40F23431F
:1050400008240C40234310240C40234320240C400C
:10505000234340240C40C909C90123430B43D10712
:10506000C90F92070902D20F0B435202134301A941
:1050700004220193FBF73CFC002016BD01204042B6
:10508000FBE7C046B22A002010B543880C009342CB
:1050900006D841681A002000FBF72AFC002010BD4A
:1050A00001204042FBE70000F7B5032A4AD9042457
:1050B00001A82200FBF71CFCFCF79AF80121234809
:1050C000019A057853088D430B4016005F002B00B2
:1050D00002250E40334396080E40AE40AB433B439F
:1050E000A34333430826D4080C40E400B3432343CE
:1050F000102416090E403601A343334320265409D9
:105100000C406401B3432343402496090E40B6018A
:10511000A34333437F26D4090C40E40133402343A7
:1051200003704378140A0C408B43520A2343114006
:105130001A004900AA43114341700088FDF7DAF9CB
:105140000020FEBD01204042FBE7C046B22A0020FD
:1051500010B5024B188800F0F1FD10BD162C002090
:1051600070B50024A5B22800FFF718FD054B195DA6
:10517000884202D02800FFF71DFD0134242CF1D114
:1051800070BDC046162C002010B54388934207D846
:105190001A004068FBF7ACFBFFF7E2FF002010BDF0
:1051A00001204042FBE7000070B50024A0B2FFF7E9
:1051B000F5FC084B18550134242CF7D10024064D7A
:1051C0002B69002B00D0984701341435152CF7D1EA
:1051D00070BDC046162C002084B20010AF220820FB
:1051E000154B10B51A80154A14215A800A221881CD
:1051F000588200209A80D9805A818918DA811E321B
:105200009A820A32DA82963299811A833231C33A0B
:1052100019829A83D883198458830333DA77FFF786
:105220009FFFFBF7E5FF8020054BC0001880FDF7CE
:1052300061F9FFF7B9FF10BD162C0020881300009C
:10524000B22A0020F0B50D0085B00190FF212800A2
:105250001600FBF7A1FB00200A4C871CB7420FD8B1
:1052600002AA911D2388019A0B80934204D9281821
:105270000222FBF73DFB3800034B1434A342ECD170
:1052800005B0F0BD84B2001028B40010F8B50400D9
:1052900000231425094E2800584380190788A74287
:1052A00005D18368002B06D10120404204E0013380
:1052B000152BF0D1F8E79847F8BDC04684B200102E
:1052C000F8B5002314250D4E2C005C43A419278843
:1052D000874205D1E368002B06D101256D420BE022
:1052E0000133152BF0D1F8E720009847051E03D1B4
:1052F0002369002B00D098472800F8BD84B2001025
:10530000014B188B7047C046162C0020024B587F6B
:10531000012318407047C046162C0020024B587FCE
:105320008007C00F7047C046162C0020024B587FE4
:105330004007C00F7047C046162C0020024B587F14
:105340000007C00F7047C046162C0020014BD88ABA
:105350007047C046162C00200300272805D81E28B9
:1053600017D20020042B0ED27047382805D82D28DC
:1053700005D22B2803D00020F6E76428FBD1074B89
:10538000DB7E9B0802E0054BDB7E1B090120984376
:10539000EAE7024BDB7EDB08F8E7C046162C00206C
:1053A000024BD87E8006C00F7047C046162C0020E6
:1053B000024BD87E4006C00F7047C046162C002016
:1053C000F0B547180600190010008BB0B74201D89D
:1053D0000BB0F0BD33780D0043401C0020001B02D1
:1053E000099300230019694108932A01230F1A43E6
:1053F000230101920093009A019B801859410019E2
:105400006941E30E6A011A43630103920293029A0F
:10541000039B80185941630EEA011A43E301059288
:105420000493049A059B80185941230E2A021A43BB
:10543000230207920693069A079B80185941089AFF
:10544000099B013680185941C0E703B210B504002A
:10545000002B0ADA8B78002B07D000F035F86004B7
:10546000400C00F0BFF800F089F8012010BD0000EA
:105470000A4B10B51B78022B0DD1811FC9B2092828
:1054800005D809300A21FBF7BFF85931C9B2080025
:10549000FBF76CFE10BD00F0ECFAFBE7402C00209F
:1054A00010B50C20FEF782FB014B186010BDC04602
:1054B000402C002010B5034B0C201978FEF7B4FBEC
:1054C00010BDC046402C002070B502F00BF8274DEF
:1054D0008007C00F287002F005F8254E254CC00744
:1054E0003378C00F2070012B05D12B78002B02D010
:1054F0003920FBF73BFEFCF767FE1F4B1870FCF7EB
:105500007FFEFCF799FE3078052807D8FAF7F8FEF9
:10551000030A0F061F24E220FBF73CFD642003F082
:1055200011FB70BDC6208000FBF732FBF6E7237845
:10553000002B02D15320FBF719FEE220FBF72AFDD6
:10554000642003F0FFFA5720FBF710FEE6E7E620A1
:10555000FBF70CFE1820F7E71C20FF30FBF718FBC9
:105560002520FBF715FB2820DEE7C046452C002050
:10557000402C00203C2C0020442C0020154B10B562
:105580001878052807D8FAF7BBFE030B16061F216B
:10559000E220FBF781FD104B1878FCF72BFE10BDC5
:1055A0002C20FBF7E3FD0D4B39201B78002BF2D0AC
:1055B000FBF7DCFDEFE7E220FBF76EFD084B1B7805
:1055C000002BE8D15320F3E72820F1E72820FBF750
:1055D000DFFAE0E7402C0020442C0020452C00207E
:1055E0003C2C002070B506000C240F253000204113
:1055F000043C2840FFF73CFF231DF7D170BD00009D
:1056000070B58B7804000D00002B0BD0FCF7DCFD8F
:10561000154B9C421ED00AD8144B9C4211D0144BFF
:105620009C4214D029002000FFF70FFF70BD114BE2
:105630009C4215D011D3104B9C42F3D10F4B052245
:1056400001E000220D4B1A70FFF734FFEAE70B4B25
:105650000122F8E7094B0222F5E7084B0322F2E7A3
:10566000064B0422EFE7C046E35C0000E15C00006B
:10567000E25C0000E55C0000B05D0000402C002012
:1056800070B505008878002800D133E19A4EB54204
:105690002AD89A4B9D4203D2994BEB18132B2AD848
:1056A000FCF71CFF974C984B20809D4200D1F2E004
:1056B0004ED8964B9D4200D1C8E02BD8944B9D42CA
:1056C00000D1B4E01DD8934B9D4200D1A9E000D990
:1056D000AAE0914B9D4200D19AE02088FCF70AFF96
:1056E000FBF786FD002006E08C4B9D42D8D003D806
:1056F0008B4B9D42D4D070BD8A4BEB18022BFAD84D
:10570000CEE7894B9D4200D19DE000D898E02278F9
:1057100040237FE0854B9D4200D1AAE008D8844B0E
:105720009D4200D19CE000D896E02378022299E0C7
:10573000804B9D4200D1A8E000D29DE07E4B9D426F
:1057400000D1A5E07D4B9D42C7D12378402289E05E
:105750007B4B9D4200D1A7E029D8684B9D4269D080
:1057600016D8784B9D4200D1AEE000D299E0764B3E
:105770009D42B2D10121042023785A07D20F4A401A
:105780000A40910083430B430821D2008B4341E040
:105790006E4B9D4273D050D36D4B9D4272D06D4B7A
:1057A0009D4200D099E7032362789A4337E05C4B2F
:1057B0009D4200D194E00BD8674B9D4200D18DE013
:1057C00075D30020B54200D087E7FCF709FF84E7D6
:1057D000624B9D4221D00AD8504B9D4200D07CE7BD
:1057E00001212278D307DB0F4B400B4080E05C4B5C
:1057F0009D4239D05B4B9D4200D06EE7012162781B
:105800001307DB0F4B400B400731DB008A4306E0F8
:1058100001232278134323705FE708236278134340
:1058200025E022780223F5E722780423F2E72278A4
:105830000823EFE762780123F1E762780223EEE7BD
:1058400022781023E6E722782023E3E7FBF7D0FC59
:10585000802322785B42DDE70C2322789A43D9E744
:10586000012223789343D6E7082263789343637039
:1058700033E723780422F5E723780822F2E76378F8
:105880000122F3E763780222F0E723781022E9E7A8
:1058900023782022E6E7FBF7ABFC7F222378134036
:1058A000B9E723780C22DDE763780322DEE70121E4
:1058B0006378DA07D20F4A400A408B431343510002
:1058C000022293430B43D2E7FBF792FC0122237899
:1058D000D9094A407F21D2010B409BE7012074E7A0
:1058E00001212278D306DB0F4B400B401B010F3107
:1058F0008A438FE70120FEE6025D0000FA5C0000AB
:10590000FEA3FFFFB22A0020125C0000095C000029
:10591000055C0000035C0000025C0000A55D000067
:10592000615D000053A2FFFF075C00000D5C0000FA
:105930000B5C00000F5C0000105C0000115C0000BC
:10594000FF5C0000145C0000155C0000FC5C0000C3
:10595000FD5C0000FE5C0000015D0000AD5D00002C
:10596000AE5D0000AF5D0000F8B5174B17491E5C37
:105970000723C2088D5C18401549164B8F5C9C5C50
:1059800005410123044107411C401D401F40002CDC
:1059900002D0E120FBF7FEFA002D02D0E620FBF753
:1059A000F9FA3000FBF7E2FB002D02D0E620FBF70E
:1059B00073FB002C02D0E120FBF76EFB002F02D01E
:1059C0002C20FBF7D3FBF8BD48B4001028B400101E
:1059D00038B40010C8B40010F7B5040004270A2634
:1059E0000191207800283CD0012837D16378012B21
:1059F0000ED1A078A51CFBF7B9FB2C00019D01344A
:105A0000013DEDB2FF2DECD0300003F09BF8F7E73D
:105A1000022B04D1A078A51CFBF7BCFAEDE7032B01
:105A200004D1A078A51CFBF737FBE6E7042B01D0D7
:105A30000134E3E700250B49A3780234CA5C601CFB
:105A40003A4205D1013DD9D3300003F07BF8F9E7A4
:105A50007543303B5D1963780400EFE7FFF784FF7F
:105A6000CCE7F7BDADA4001010B50021FFF7B4FFDF
:105A700010BD0F2303400A3B10B5052B04D930306D
:105A8000C0B2FFF771FF10BD5730F9E7082210B51B
:105A90000D4C0220237893432370FCF7C5FB1022A2
:105AA0002378134204D0934302202370FCF792FB27
:105AB00020202378034203D083432370FCF78AFB22
:105AC000FCF720FC10BDC046A002002010B5040069
:105AD000002902D00220FCF79FFB084B084AE3187C
