:020000041000EA
:1000000000B5324B212058609868022188439860DF
:10001000D860186158612E4B002199600421596104
:100020000121F02299502B49196001219960352056
:1000300000F044F80222904214D00621196600F024
:1000400034F8196E01211966002018661A6600F04E
:100050002CF8196E196E196E052000F02FF8012189
:100060000842F9D1002199601B49196000215960AB
:100070001A491B48016001219960EB211966A021F2
:10008000196600F012F800219960164914480160C1
:100090000121996001BC002800D000471248134993
:1000A000086003C880F30888084703B5996A0420EC
:1000B0000142FBD001200142F8D103BD02B5186610
:1000C0001866FFF7F2FF186E186E02BD00000240BE
:1000D000000000180000070000035F00212200005C
:1000E000F4000018222000A00001001008ED00E03C
:1000F000000000000000000000000000070B8FD58A
:10010000000404209D020010753F00109F020010A3
:100110009F0200109F0200109F0200109F0200101B
:100120009F0200109F0200109F0200109F0200100B
:100130009F0200109F0200109F020010913E0010CD
:100140009F0200109F0200109F0200109F020010EB
:100150009F020010E53B00109F0200109F0200105C
:100160009F0200109F0200109F0200109F020010CB
:100170009F0200109F0200109F020010513F0010CC
:10018000113F00109F0200109F0200109F020010FC
:100190009F0200109F0200109F0200109F0200109B
:1001A0009F0200109F0200109F0200109F0200108B
:1001B0009F0200109F0200109F0200109F0200107B
:1001C00072B6254880F30888244880F30988022005
:1001D00080F31488BFF36F8F21482249086003F031
:1001E000FFFC03F020FF204820491B4A914202DA1D
:1001F00008600431FAE71E49184A914202DA0860A1
:100200000431FAE71B491C4A1C4B9A4204DA08687D
:10021000106004310432F8E700201949194A91426C
:1002200002DA08600431FAE703F0E4FE03F0FCFEB2
:10023000154C164DAC4203DA216888470434F9E7BF
:1002400005F022FD124C134DAC4203DA21688847B9
:100250000434F9E71049084700040420000C042086
:100260000001001008ED00E0555555550000042030
:10027000000404209872001000000020E403002015
:10028000E40300203C1F0020C0010010C00100104A
:10029000C0010010C00100102540001090E700F0E0
:1002A00000F8FEE7F0B544464D4656465F46F0B4CA
:1002B0006B46CB60C3689D46F0BCA046A946B246DB
:1002C000BB46F0BD03F01CFE62B6281CA047002010
:1002D00003F05AFEFEE703F06BFE024A024B136086
:1002E000FEE7C04604ED00E000000080F0B5C64621
:1002F00000B50F2A43D90B00032603431E400C0010
:100300000300002E40D11500103D2D09AC462D01F3
:10031000A846804400E03B00676825685F60E768A6
:100320001D60DF601F00A56810379D6010344345D5
:10033000F1D165460F230C2401352D0149191340D5
:100340004519144223D08C59AC5104369C1B032C04
:10035000F9D80324043B9B0801339B002240ED188D
:10036000C918561E002A07D0002300E02300CA5CEB
:100370005C1CEA549E42F9D180BCB846F0BD050031
:10038000561E002AF0D1F7E7561E0500ECE71A00CA
:10039000F6E7C046F0B5050083074AD0541E002A90
:1003A00044D0CEB20300032202E00135013C3DD32C
:1003B00001332E701342F8D1032C2FD9FF220A40AB
:1003C000150215432A0415430F2C35D92700103F79
:1003D0003F093E01B4461E001A00103666441560FF
:1003E00055609560D5601032B242F8D10F260C22CC
:1003F00001373F012640DB193700224217D03E1F4C
:10040000B608B400A4461A001C1D644420C2A242CF
:10041000FCD103240136B6009B193C40002C05D0CA
:10042000C9B21C19197001339C42FBD1F0BD3400D4
:10043000F4E714000300BFE72700E0E730B5032A24
:100440000CD903000B439B071CD103680C68A34223
:1004500018D1043A04300431032AF6D8551E002A74
:100460000ED002780C7894420ED101350123013967
:1004700004E0C25C0133CC5CA24205D1AB42F8D1AE
:10048000002030BD551EECE7101BFAE700224308A0
:100490008B4274D303098B425FD3030A8B4244D34C
:1004A000030B8B4228D3030C8B420DD3FF2209028E
:1004B00012BA030C8B4202D31212090265D0030B4D
:1004C0008B4219D300E0090AC30B8B4201D3CB0343
:1004D000C01A5241830B8B4201D38B03C01A524185
:1004E000430B8B4201D34B03C01A5241030B8B4287
:1004F00001D30B03C01A5241C30A8B4201D3CB0272
:10050000C01A5241830A8B4201D38B02C01A524156
:10051000430A8B4201D34B02C01A5241030A8B4259
:1005200001D30B02C01A5241CDD2C3098B4201D371
:10053000CB01C01A524183098B4201D38B01C01AEF
:10054000524143098B4201D34B01C01A5241030966
:100550008B4201D30B01C01A5241C3088B4201D315
:10056000CB00C01A524183088B4201D38B00C01AC2
:10057000524143088B4201D34B00C01A5241411AE9
:1005800000D20146524110467047FFE701B50020F6
:1005900000F0F0F802BDC0460029F7D076E77047BA
:1005A00003460B437FD4002243088B4274D30309D4
:1005B0008B425FD3030A8B4244D3030B8B4228D375
:1005C000030C8B420DD3FF22090212BA030C8B429B
:1005D00002D31212090265D0030B8B4219D300E03B
:1005E000090AC30B8B4201D3CB03C01A5241830BC0
:1005F0008B4201D38B03C01A5241430B8B4201D370
:100600004B03C01A5241030B8B4201D30B03C01A98
:100610005241C30A8B4201D3CB02C01A5241830A12
:100620008B4201D38B02C01A5241430A8B4201D341
:100630004B02C01A5241030A8B4201D30B02C01A6B
:100640005241CDD2C3098B4201D3CB01C01A5241D2
:1006500083098B4201D38B01C01A524143098B425B
:1006600001D34B01C01A524103098B4201D30B0144
:10067000C01A5241C3088B4201D3CB00C01A524169
:1006800083088B4201D38B00C01A524143088B422E
:1006900001D34B00C01A5241411A00D201465241C7
:1006A000104670475DE0CA0F00D04942031000D3E6
:1006B0004042534000229C4603098B422DD3030A3B
:1006C0008B4212D3FC22890112BA030A8B420CD34B
:1006D000890192118B4208D3890192118B4204D374
:1006E00089013AD0921100E08909C3098B4201D3F4
:1006F000CB01C01A524183098B4201D38B01C01A2E
:10070000524143098B4201D34B01C01A52410309A4
:100710008B4201D30B01C01A5241C3088B4201D353
:10072000CB00C01A524183088B4201D38B00C01A00
:100730005241D9D243088B4201D34B00C01A5241D7
:10074000411A00D20146634652415B10104601D364
:100750004042002B00D54942704763465B1000D3EE
:10076000404201B5002000F005F802BD0029F8D094
:1007700016E770477047C046F0B5CE4647461504A9
:100780002D0C2E0080B50704140C3F0C9946030C69
:100790007E435D43674363437F19340CE4199C46F1
:1007A000A54203D980235B029846C4444B46434389
:1007B0005143250C36046544360C2404A4195B19F6
:1007C00059182000C0BCB946B046F0BD02B471460D
:1007D00049084900095649008E4402BC7047C0468A
:1007E00002B4714649084900095C49008E4402BCC4
:1007F0007047C04603B47146490840004900095E8D
:1008000049008E4403BC704703B471464908400058
:100810004900095A49008E4403BC7047002B11D18E
:10082000002A0FD1002900D1002802D00021C9439D
:10083000081C07B4024802A14018029003BDC0463C
:1008400035FFFFFF03B4684601B5029800F006F8D3
:10085000019B9E4602B00CBC7047C046F0B557469F
:100860004E464546DE46E0B5040083B00D00924694
:1008700099468B4230D82DD04946504600F0C0F8FA
:1008800029000600200000F0BBF8331A9846203BF0
:100890009B4633D45A465346934042461F00534624
:1008A00093401E00AF423AD8AF4200D17BE05B4696
:1008B000A41BBD41002B00DA78E000220023009247
:1008C000019301235A4693400193012342469340EA
:1008D000009328E08242CFD90022002300920193A6
:1008E0000C9B002B01D01C605D600098019903B047
:1008F000F0BCBB46B246A946A046F0BD4246202306
:100900009B1A5246DA40414613004A468A40170075
:1009100042461F43534693401E00AF42C4D90022B3
:100920000023009201934346002BD9D0FB079C463D
:10093000614672080A437B0846460EE0AB4201D18D
:10094000A2420CD8A41A9D41012024196D41002116
:10095000013E24184D41002E06D0AB42EED9013E97
:1009600024196D41002EF8D1009801995B460019B9
:100970006941002B25DB2B005A464446D3402A0010
:10098000E2401C005B461500002B2BDB26005F4677
:10099000BE40330026004746BE403200801A9941CF
:1009A000009001919CE7A342B9D880E742462023FA
:1009B00000219B1A0022009101920122DA4001924B
:1009C00083E7424620239B1A2A0046469A4023008A
:1009D000F340444613432A00E2401C005B461500E6
:1009E000002BD3DA2023424626009B1ADE402F003C
:1009F000B4464646B74066463B003343CAE7C04666
:100A000010B5002903D100F007F8203002E0081CDF
:100A100000F002F810BDC0461C2101231B049842BF
:100A200001D3000C10391B0A984201D3000A08397F
:100A30001B09984201D30009043902A2105C401836
:100A40007047C046040302020101010100000000DA
:100A5000000000000721002230B50140074CC0080B
:100A60008000241801251000A35CCB402B4093404C
:100A700001321843C0B2042AF6D130BD880E0020DE
:100A800070B50125CC080B4BA4001C1907232E00C0
:100A900019408E400022F6B20300D340A15C2B40E7
:100AA0005B424B4033404B40A3540132042AF3D104
:100AB00070BDC046880E0020F0B505000C2485B03E
:100AC0000F00110E1202019201981A0000230291E8
:100AD000FFF7A4FE6C43274B0600E41863680391FC
:100AE000834200D260602B1FDBB20093C023009AC8
:100AF0009B012343012A2ED8012F2CD103221A60F7
:100B00003B00A2681A42FCD0E022236813408022F6
:100B1000520122431360009B012B09D80321236853
:100B20007B400B4013600123BB40A2681342FCD002
:100B3000802380229B01234312011A600198039BAA
:100B4000666032000299FFF769FE0B4BAD00E8507A
:100B5000012005B0F0BD802212011A60064BAA00E8
:100B6000D1580029D0D05869FFF790FC01300138E6
:100B7000FDD1C9E700800040A408002070B5040042
:100B800008001E491500FFF781FC802223682D0410
:100B900092012A43002B0FDA3F2123680B40012BDF
:100BA0000AD1A3681B051B0D984205D1EE21E3680D
:100BB000C9020B409A421CD0114B9C421AD0802390
:100BC0005B011049104D0B6010490B601E00A968B5
:100BD0008E43FBD101232360C023211D9B010B43C6
:100BE0002121A060196021680029FCDAE260082256
:100BF0001A6070BD80239B01E3E7C046001BB7006D
:100C000000C0024000E0004000C0004000F0004092
:100C10008322274B920010B5DA620022AA21254BCD
:100C200009019A67244A254811602F21D16024497F
:100C3000086051680029FCDA0121224A11605A6CCF
:100C4000012AFCD10321204A11609C6B012CFCD1AC
:100C500006221E491E48FFF791FF05221D491E4826
:100C6000FFF78CFF1D4B02211A000420FFF724FF21
:100C70001B4B21001A000520FFF71EFF194B002116
:100C80001A000720FFF718FF164B00211A00082052
:100C9000FFF712FF144B134A00210920FFF70CFF46
:100CA0000F4B00211A000620FFF706FF10BDC046BB
:100CB00000800540008000400040024000B0FA0083
:100CC000006002403CB0004030B00040002F685946
:100CD0000080024000389C1C00C00240001BB7008E
:100CE00040597307006CDC021BB7000010B50029E7
:100CF00003D101240A4A0B4BD4500B4ACB009B185A
:100D00008022DC6F12012243DA670122023189005E
:100D100041184B685B695A7500229A7510BDC04630
:100D200000001150682000000400105010B5002988
:100D300003D102240A4A0B4BD4500B4ACB009B1818
:100D40008022DC6F12012243DA670122023189001E
:100D500041184B689B69DA7400221A7510BDC046B1
:100D6000000011506820000008001050F0B5002964
:100D700030D11D4BDD6C8B1C9B00C01840680122DC
:100D80008469267DA27433005F1EBB4172402275C8
:100D90002668408A5F03B04200D930008023DB0020
:100DA0000343124A9BB23B43134062688018864259
:100DB00002D88022D20113430D4A154080229205A9
:100DC000154300290BD1084AD5640A4AC90089187D
:100DD0004B60F0BD084ACB009B185D68CBE7064826
:100DE000CA0012185560F0E700001150FF7FFFFFA6
:100DF000FFFFFFAF80001050000010507F2201382D
:100E0000C31713401B18DB110133DB0102329BB205
:100E1000FF3210B593420ED0FF2480220749D20042
:100E2000240259181000214204D0181C934200D902
:100E3000101C80B210BD80208000FBE780FDFFFF0A
:100E4000F0B58B1C9B00C3185F6885B000900C1E2A
:100E50007E69BD6910D14023414AB383B261B1823A
:100E6000B175698229758021AA61AB833D4A3E4BE9
:100E70008905D15005B0F0BD002E38D03B4BCA00DB
:100E8000D31803933A4BD2180023D367B3753A684B
:100E9000B3820192012A5FD1388AFFF7AFFF802227
:100EA00002239200904208D080220133D200904267
:100EB00003D0431EFF3B5A425341DB060293009A84
:100EC000E23294466346118842008A181A80294B00
:100ED000B083CA18019B8131B261FF319A060A437F
:100EE000802109060A430399029B04C1CB67002DA8
:100EF000C0D01E4BE400E6181F4B4020E41800232E
:100F0000E3672B753C686B82012C11D1388AFFF79F
:100F100075FF802202239200904208D08022013384
:100F2000D200904203D0431EFF3B5A425341DB069E
:100F3000009AA406E2321188471817800D4AA88348
:100F40008A18AA6180228131FF310C4312061443B2
:100F500074600836F3678DE702934020AFE7C04620
:100F600000011050000011504C20000000001050F3
:100F700004001050800110500800105010B50E4CA5
:100F80000E4B20000021E360FFF75AFF00230C4ABC
:100F9000E2341360012223800A49D0000A4C401831
:100FA000D1000C198360E367C36008480132091857
:100FB000CB670F2AF0D110BDE4040020F46E0010BE
:100FC00000001150F8FF0F5004001050080010509E
:100FD000034B1A6882431A609A681042FCD070472B
:100FE00000C00040BFF35F8FD023BE221B0652001B
:100FF0009B5062B6704772B6D021BE2209065200DD
:101000008B58002BFCD0BFF35F8F704770B50E007C
:1010100001210C00B4400500408920436881B01CC8
:101020008000281840688469A26000222360626002
:10103000E260934205D0418A013B5818FFF726FA37
:1010400081B2218228003100FFF790FE70BD0000C0
:101050000300020010B5D6331B78DE3213707F22F6
:101060001340064A0400136043681B68002B01D03C
:10107000012198470323237010BDC0460000115082
:10108000036910B51960C268013AC260C2699B1851
:1010900082690361934201D3436A0361002383623F
:1010A000036B002B00D0984710BD436902699A4238
:1010B00003D1C2680020824202D1180008C80B6028
:1010C0007047C368C269013BC360436910B59B1890
:1010D00082694361934201D3436A4361002383627F
:1010E000036B002B00D0984710BD000010B5FFF730
:1010F00082FFEFF30983203B83F3098880225204A7
:10110000DA61D02212061168064A89005218526824
:101110001168D26888689168034A884200D9034AF6
:101120009A6110BD94080020DA020010D702001066
:10113000FEE700238268037503691B689968914282
:10114000FBD25A680360426010605860704710B567
:101150000C00FFF750FF207D052807D8FFF740FB64
:101160000C060603130F0022A3691A6001235B42D9
:10117000A3612000FFF7DDFFFFF734FF10BDA26978
:101180009368013393606268236813605A60EDE7E7
:10119000D0231B061968084A890052185268016951
:1011A00010B5914205D01A6D920702D50122524224
:1011B0005A65FFF7BEFF10BD9408002070B50225E8
:1011C00004006D422068844200D170BD0368236032
:1011D0005C608561FFF7DCFFF4E770B505000E0089
:1011E0000468AC4200D170BDE3683343E360236917
:1011F00033420AD06068A368C2691343027DC361A9
:101200000A2A04D182691A4207D12468E9E70B2A25
:10121000FBD1826913409A42F7D100238361FFF723
:10122000B7FFF2E7036810B5002B05D0002202607B
:1012300099611800FFF7ACFF10BD0000D0231B061A
:101240001A68094B92009B185968036810B59A6890
:10125000846812199A60426813605A600023036020
:10126000013B8B6110BDC0469408002010B5036897
:101270009C68A2420CD85C688A600B604C6021605C
:10128000596099688A1A9A6001235B42836010BD95
:10129000121B1B68ECE7000070B50D4C05002368BD
:1012A0000E00002B02D02000FFF7C8FFD0231B0642
:1012B0001A68084B92009B185868074B2A00E36095
:1012C00000231030210026616361FFF7CFFF70BD5E
:1012D0006409002094080020692C001070477047B2
:1012E000C26F70B51468030021780120042919D158
:1012F000197A022916D10500517962898D4015426B
:1013000010D1DA691D6AAA4202D19D69002D09D166
:1013100004320120002A05D09B6A2000043BFFF71D
:1013200075FE002070BD2131890010B50C58002CCD
:101330002CD0FFF760FE0421201DFFF74EFF210097
:10134000E36F0C311A685B7902339B00D3185B683A
:101350009B695A68E3691A60A2690132A261A26AB4
:101360009B18626AE361934201D3236BE361E068F7
:10137000814206D00368E360596000238361FFF770
:1013800007FF2000FFF7ACFFFFF72CFE10BD10B5E4
:10139000406BFFF7A5FF10BD37B56B46D91D002385
:1013A000074C087022789A4200D13233054802680F
:1013B000D5690122A8474342434140B223703EBD54
:1013C000E40E00205003002070477047014B18784E
:1013D0007047C0467C09002070B50500D4352A78D6
:1013E0007F21130004000B40212B00D08CE0130060
:1013F0008B432ED0802B00D086E00300D5331878A5
:1014000002281DD003280FD0012800D07CE0033330
:101410001B78002B67D122005A49C8321160202165
:101420005160D034236070BD2300D8331B88002B5B
:101430006AD1220001205449C83211605060F0E79F
:1014400023000120514AC8331A605860D034002369
:10145000E8E70300D5331B780A2B4BD00B2B11D0B8
:10146000092B51D10300D8331B78012B4CD8030032
:10147000474AC8331A6002225A60464BD034236070
:101480000120D0E70300D8331B88002B2BD10300A9
:10149000D6331D7840482A00531E9A41D3B23A4AA7
:1014A00013700278DB010A4013430370002D1AD138
:1014B000364E3378002B16D0FFF79DFD374A0023B8
:1014C00030782900FFF758F90023354A8018594130
:1014D000FA2200239200FFF7A1F921008000FFF714
:1014E000DBFEFFF77FFD22000023C832136053604C
:1014F000D034C4E70300284AD7331B78234E15782D
:101500003370ED09EFD1D5E7264B298899421DD1DB
:101510002300D9331A78013B1B78120213432100B0
:1015200022006068D632D7314568127809782000E9
:10153000A847002801D1002075E723004268C8337E
:101540001A6002685A60D034002398E7164BC23301
:101550001B78002BEFD060231A40202AEBD1230008
:10156000D5331B780020202B00D25CE7212B02D939
:10157000222BB8D057E723000C4AC8331A60072241
:10158000E0E7C0467D090020D40300206009002068
:10159000640E0020B11500109E09002010270000E5
:1015A000E70300008106000070020020D503002040
:1015B000DA30084A01781378022907D1012B01D0CB
:1015C000062B02D15278044B1A707047024A1370EE
:1015D000FBE7C046640E00207C0900200F2230B5D6
:1015E00007490C78631C1340064A157800229D4277
:1015F00003D0054A0B7010550122100030BDC046C3
:1016000038090020390900202809002009020A436E
:1016100011B2120A032A12D006D8012A25D0022AB2
:1016200026D00023180019E0212A11D0222AF8D14F
:10163000022BF6D8104A99008858104A06E0CBB21F
:10164000022BEED80E4A990088580E4AD35C05E06A
:10165000022BE6D80C4A9B00985809230B4A50608D
:101660001360002800D01000704712230848F5E7E7
:101670005B230848F2E7C0465C6900106869001007
:10168000106900101C69001050690010D808002073
:10169000E86900106B6900101423188804331B8854
:1016A000034910B598470021030008009847C04639
:1016B0005542000070B5FFF79EFCD0231B061A6848
:1016C000154B92009B185B6814481549DC690D683E
:1016D0000368144AE41AA54209D9E4256D01641986
:1016E000114D5B190360136810481B1813601568CF
:1016F0000C60FFF777FCFA22002392002000002103
:10170000FFF73AF800230A4A80185941094A002392
:10171000FFF784F8281870BD94080020E00E002020
:10172000C80900202C0E002080E3FFFFC096991905
:101730000F27000010270000064B10B51A888242C0
:1017400006D01880044B1B68002B01D01B699847FA
:1017500010BDC046A0090020E0080020064B10B5CF
:101760001A88824206D01880044B1B68002B01D0D7
:10177000DB68984710BDC046C4090020E00800207F
:10178000034B10B51B68181E01D01B68984710BD8D
:10179000E008002010B55200054C1218091A035B2E
:1017A000DB430B5202309042F9D1012010BDC046FC
:1017B00000E01F1010B5EFF3108372B6044C2360E5
:1017C00005F09EF8236883F31088012010BDC04601
:1017D0003C090020044A054B0220D15C002902D0BC
:1017E00000210138D1547047340F0020041000004C
:1017F000044A054B0220D15C002901D10138D054A4
:101800007047C046340F002004100000F0B58FB0C0
:10181000FFF7EEFF0B90EFF3108372B68022FF20EC
:10182000324E334F1201310040033B6005F060F847
:101830003B6883F3108880200021B4462D4A2E4B4C
:1018400040016646775C1D0057403B020993002328
:101850003C0008933A002B0012196B413F0F2E01F8
:101860003E43019626010096009E019F92197B41FE
:1018700012196B41E70E6E013E4303966601029614
:10188000029E039F92197B41670EEE013E4305962F
:10189000E6010496049E059F92197B41270E2E02B5
:1018A0003E43079626020696069E079F92197B41A5
:1018B000089E099F013192197B418142C1D10C924E
:1018C0000D93EFF3108372B6094C04220CA90B4858
:1018D000236005F00DF8236883F310880B9B012B20
:1018E00001D1FFF777FF02200FB0F0BD340F0020C9
:1018F0003C09002025232284E49CF2CB00F01F0049
:1019000070B58024084D6401084B2A5901209A4281
:1019100009D9FFF74FFF03000020834203D0FFF7F0
:1019200075FF034B2B5170BD340F0020FF1F0000CB
:101930000810000073B580246A460C4D6401911DA7
:101940002B590880EFF3108272B6094E3260FF22E5
:1019500052039818012204F0CBFF336883F31088F8
:101960002B5902332B51FFF7CBFF76BD340F0020EC
:101970003C090020022210B53B4B9A56ED280AD1B3
:10198000D9787F290DD90021D9708A420BD1002145
:10199000364A117007E0EE280ED10321595600296E
:1019A000F1DC002A0ED01A795B7913435BB2002B6D
:1019B00001D12F4A137010BDEF2808D1002AF0DAA8
:1019C00000229A7003229A56002AECD1DFE7F02811
:1019D00002D1002AF4DCE4E704215956F92804D1A5
:1019E0000029DEDD00211971DBE7FA2802D1002988
:1019F000D7DAF7E705215956FB2804D10029D0DAB8
:101A000000215971CDE7FC2802D10029F8DCC8E794
:101A1000F12804D15978F03881435970C1E7F22890
:101A2000F8D0F32802D15978EF38F5E7F42802D13D
:101A30005978EC38F0E7F52802D15978E538EBE72A
:101A4000FD2805D101240B480178A1430170A8E7C6
:101A5000FE2803D1074802240178F6E7FF28A0D129
:101A6000044804240178F0E7200E0020270E00200F
:101A7000280E0020260E002010B501240F4B022155
:101A80001A78224214D104230A420ED11A4213D1E9
:101A90000B4B187800280DD027280DD8C000263110
:101AA000FEF77EFD83B2002800D0DCB2200010BD1E
:101AB0000B00FAE72300F8E70823F6E7260E0020DC
:101AC000280E002010B50D4B14201B78DA0712D415
:101AD00000189A070FD428305B070CD4084B4838FD
:101AE0001B78002B07D048301D2B04D858431E21EB
:101AF000FEF756FD80B2C0B210BDC046260E0020D3
:101B0000270E002010B5ED2805D1FFF7DBFF40427E
:101B1000314BD87010BDEE2802D1FFF7D3FFF7E7A5
:101B2000EF2805D1FFF7CEFF40422B4B9870F1E72D
:101B3000F02802D1FFF7C6FFF7E7F92804D1FFF735
:101B40009BFF254B1871E5E7FA2803D1FFF794FFB7
:101B50004042F6E7FB2805D1FFF78EFF40421E4BBF
:101B60005871D7E7FC2802D1FFF786FFF7E7F12885
:101B700005D10123184A51780B435370CAE7F22864
:101B800003D1154A02235178F6E7F32803D1124A0C
:101B900004235178F0E7F42803D10F4A0823517841
:101BA000EAE7F52803D10C4A10235178E4E7FD2831
:101BB00005D10123094A11780B431370AAE7FE28C7
:101BC00003D1064A02231178F6E7FF28A2D1034A7F
:101BD00004231178F0E7C046200E0020260E0020D6
:101BE00010B5024B1B68984710BDC046D0030020BB
:101BF0000300DA680800511C10B5D96019698A42DF
:101C000004D21C68002C02D05968A04710BD9B6804
:101C10009854FBE7F7B51F00C36804000093089BC6
:101C2000019115009B070DD0002D0DD1089B9B073E
:101C300015D4F7BD20212000FFF7DAFF0136BE42A0
:101C4000F8D3F1E71600FAE7019B013D595D20004A
:101C5000FFF7CEFFE8E720212000FFF7C9FFE36888
:101C6000009A9B1ABB42F6D3E3E70000F0B58FB0B1
:101C7000049003921D00169C002923D123051DD436
:101C8000302206AB1A70102301319C430A00A307CF
:101C900044D40123159A2340002A0BD00A00002BBC
:101CA0003CD0039A002A02D10C32144202D0159A79
:101CB000013A15920A0006A8302628E0102DE5D139
:101CC000AC43E3E76123A20600D541230F000026C1
:101CD000DBB20A3B059329003800FEF75DFC059B4B
:101CE000CAB2D3188446DBB2092902D813003033B4
:101CF000DBB2082004AA1218711C9355BD42C5D846
:101D00000E002029C2D06746E5E716540132002BA9
:101D100004D0159F974201D9202AF6D106A8302376
:101D200001E083540132149E964201D9202AF8D151
:101D3000082D03D1914201D210239C43274B1C4212
:101D400025D0230537D4002A35D0149B934202D0E6
:101D5000159B93422FD191423CD2013A002A2AD0BE
:101D6000102D25D0022D0DD18A4223D801E0022D5D
:101D700008D11F2A26D8622302E058231F2A21D81F
:101D8000835401321F2A1DD83023835401321F2A65
:101D900018D8039B002B03D02D238354013211E06C
:101DA000630701D52B23F8E723070BD52023F4E79E
:101DB000914202D2013A102DD9D1A306DDD4782365
:101DC0001F2ADDD901000094159B0498FFF722FF1C
:101DD0000FB0F0BD102DC5D1EFE7C04610200000B8
:101DE000F0B5070015008BB00591059B1978002907
:101DF00011D13B68002B0BD13A69002A08D0B96891
:101E0000002905D0FB689A4200D8531E0022CA540C
:101E1000F8680BB0F0BD059B002001330593252920
:101E200000D0DBE008242439059B059A1B78013299
:101E30002B2B16D00BD8202B15D0232B15D0190007
:101E40003039092933D800230A24049315E02D2BB7
:101E500004D0302BF3D108430592E5E70223184361
:101E6000FAE70423FBE72043F6E71023F7E7049B98
:101E700005916343303BD3180493059B1A78591C92
:101E80001300303B092BF2D9059B1B782E2B4ED12A
:101E9000802212011043059A059B527801331100EC
:101EA0003039092939D80A220026944613E0002146
:101EB00004912A2BE8D108CD04938B4204DA022343
:101EC0001843049B5B4204930592DDE763465E433F
:101ED0002300303E96191A785C1C1100303909290C
:101EE000F4D919785A1C6C292BD023D8682930D002
:101EF0006A2936D01A001178531C0593692937D006
:101F000063D8622900D126E12ED8252966D0582928
:101F100064D120231843103B3AE000262A2AE0D15E
:101F200040CDF343DB171E40059B0233D9E7059BE9
:101F30000026D6E7742901D07A29DBD180239B00C3
:101F40000BE059786C29F9D1C022D20010439A1CB9
:101F5000D1E75978682902D080231843CBE7C02203
:101F6000F4E78023DB00F8E7632969D0642935D1E1
:101F70008023DB011843782938D05829C9D06F292C
:101F800000D1E6E0622900D1E5E010239843063B4A
:101F9000020501D5012290438022D2000240410473
:101FA0002ED5002A00D020E72C1D296882051FD5D8
:101FB000CD1702900498CA0F491969400190009604
:101FC0003800FFF753FE25000FE7732959D009D8D1
:101FD0006F2900D1BDE0702900D1A3E03800FFF7E0
:101FE00007FE02E77529D0D07829F7D11023CFE773
:101FF000420601D549B2DBE70206D9D509B2D7E7D7
:10200000002A00D0F1E60C2104008C43A4462C1DCC
:10201000810506D5614602910499009601912968CF
:10202000CEE72968420607D5C9B262460292049AF1
:10203000009601920022C3E70206F6D589B2F4E7C2
:102040000224012604400AD1012304E020213800A3
:10205000FFF7CEFD3300049A5E1C9A42F6D802CDFB
:102060003800C9B2FFF7C4FD002C00D1BDE6049BC7
:10207000B34200D8B9E620213800FFF7B9FD013698
:10208000F5E72B0004CB06920793002A08D10090B5
:10209000049B062231493800FFF7BCFD079DA4E6EA
:1020A000331E00D12E4B069A1500D3182A78002A29
:1020B00001D0AB4214D1069BED1A80231B010340D3
:1020C000089302D0B54200D935000223034009939A
:1020D00004D1049B6C1CAB4204D82500069C0BE089
:1020E0000135E3E720213800FFF782FD2500F0E706
:1020F00038000134FFF77CFD2178002906D0089BC9
:10210000002BF5D0069B9B199C42F1D1099B002B1B
:10211000C4D0049BAB42C1D920213800FFF768FD31
:102120000135F6E70F4C02CD0443002907D1009496
:102130000A2305220C493800FFF76CFD55E60A23F7
:10214000029401930096063300223800FFF78EFDBB
:102150004BE608231CE702231AE7C046F36D001084
:10216000FFFFFF7F01200000FA6D00100020704784
:1021700030B5042427490A78224205D018230340A9
:10218000082B27D198432043130708D518240500AE
:1021900014232540A54225D1A843C0B218430124E9
:1021A0004978214206D018230340082B21D19843B7
:1021B000C0B220438B0708D51821040011230C401E
:1021C0008C421FD1A043C0B21843D30601D5E723E8
:1021D000184030BD14230340042BD5D19843043359
:1021E0001843D1E70340142BD9D19843C0B2204300
:1021F000D5E711230340012BDCD19843C0B207334C
:102200001843D7E70340112BDFD19843C0B20843EE
:10221000DBE7C0469E09002037B50A0401AB1980F0
:10222000120E0024082A4CD81978102949D81123F5
:102230005343992242439B185B18974A5B009C5A70
:10224000822C29D032D8312C00D184E020D8292CFE
:1022500000D176E02A2C00D183E0904B9C4200D93B
:10226000A0E0FF3B9C4200D3E4E0E72C00D987E0EC
:10227000E02C26D2A72C00D979E0A52C00D3D1E000
:10228000012C1ED023B2002B35D0042C33D318E000
:10229000352C51D0392CE0D1814B1A78920700D0DF
:1022A000F4E05B781B07D8D529240AE0E32C24D07E
:1022B00009D8E02C14D0E22CCFD1794B1B785A07E7
:1022C00016D4201C3EBDE62C27D0E72C2AD0E42CC7
:1022D000C3D1734B5A789207F3D51B78E72408E0F3
:1022E00001226F490B78134233D149781142E8D06B
:1022F000E324DB06E5D50024E3E7694A13785907B0
:1023000000D5C1E05278D20700D5BFE010221340BB
:102310005A4253415B421C40D3E7614B1B781A077A
:10232000DCD4CEE75E4A1378190700D5B0E05278C6
:102330009207EBD5E424C4E7594B1B789B06C0D524
:10234000B2E7574B1A78920600D5A3E05B781B07DB
:10235000B7D53924B5E7524B1B785B06B1D52A2493
:10236000AFE74F4B1B785B06ABD53124A9E7BE2CFA
:10237000C1D85834E4B24B4B6400E05A882456E08C
:10238000494A944205D8FF2C9BD8ED2CB3D31C436B
:1023900097E78023DB019C42ADD344480440A02052
:1023A000000245E0424B9C4212D8FF3BE0B29C4207
:1023B00059D2404B9C424DD8FF3B9C4247D303240B
:1023C000830804400120A0405B0118433A4C3BE0E5
:1023D0003A4B9C420FD8FF3B9C4247D2384B9C4221
:1023E00089D8E0B2FFF7C4FEF8240002640120405F
:1023F0000134FF341CE0334B9C423AD9324B2A4A19
:10240000E3189BB2934200D975E7E004C00EFFF7D2
:10241000AFFEF82300025B011840E4B204438020C1
:10242000800105E05B34294BE4B2185D8024E401AF
:10243000044346E70323E4B2A00818401C40023BD3
:10244000A3404001224C18430443A4B239E70002E0
:10245000204CEDE70324830804400120A0405B01E9
:1024600018431D4CF0E700021C4CE1E720021C4C15
:10247000EAE70F2520002840FFF77AFE24092C40C8
:10248000240204431748DFE7E2241AE7E02418E7B0
:10249000E62416E7352414E7306F0010FF500000E3
:1024A0009E09002022690010FF1F0000FF0F00009E
:1024B000FF540000FF520000008CFFFFFF58000097
:1024C000FF550000FF59000000A0FFFF1F6900102A
:1024D000008DFFFFF1A00000008AFFFFF4A00000C4
:1024E000F0A0FFFF0090FFFF044A1378002B03D0F9
:1024F00000231370024A13807047C046350E002037
:10250000360E0020024A1378834313707047C0468A
:102510005C0E00200721054B054A1B7812789A4271
:1025200000D1704701330B40F9E7C046310F00205E
:10253000300F0020F7B50F2401270D4B01AE1A888C
:102540000C4B30801B881A430092009BE5B223415C
:102550003B4204D1013CF8D200252800FEBD316881
:102560002800FFF759FE80B20128F3D0F5E7C046F6
:10257000D0090020D608002007B501AB18800198CB
:10258000FFF7D8FF0199FFF747FE0EBD13B50024F2
:102590008288008801AB1880A24212D0134B82B20D
:1025A0009A420ED0FFF7E8FFC3B20004000F0B28D9
:1025B00007D80122110081400D48014203D149068C
:1025C0000CD4200016BDF02B0DD003D8E7229A4280
:1025D0006441F6E7F43B5C425C41F2E71400E72B10
:1025E000EFD9F13BF7E71400EBE7C046FFFF00002F
:1025F0000C0C00003322030100091843C0B2830011
:102600008010104093430343DBB2223258005B102A
:10261000904313401843C0B270470000030073B5E5
:1026200006001B0C360ADBB20090C4B2F6B2002BD7
:1026300019D0002A17D0FFF77DFF05000020082ED3
:1026400010D8102C0ED81121714328000919FEF75B
:1026500017FA992311205D43704340190019084B64
:102660004000C05A76BD0020082EFBD8102CF9D8A7
:10267000113070430019FEF7EDF90500E9E7C04697
:10268000306F0010411E064BFF39020000209942B6
:1026900005D8D005C00F930501D502231843704714
:1026A000FF1E000080201E4A4004136810B503433B
:1026B0001360FEF78DFC80221A4CD201002120000D
:1026C000FDF768FE8022002152011748FDF762FEE7
:1026D000092363670333A367FEF750FC01232364D8
:1026E00080239B05E3642300104A90331A60802204
:1026F000C120196892020A431A600D4B80001A58D3
:102700000C491140C02212020A43C0211A50202253
:1027100049005A501A608022074B5202E25010BD05
:1027200000C00040000011500000105010D0010007
:1027300000E100E0FF00FFFF4C2000008B1C9B002D
:1027400070B5C318050050690E0014005A600028C7
:1027500003D020220021FDF71DFEA069002803D030
:1027600020220021FDF716FE31002800FEF768FB4D
:1027700070BD000070B50400052973D80800FEF78D
:102780002FF8597103595972FEF735FC3F4A012160
:102790002000FFF7D3FF3E4A02212000FFF7CEFFC3
:1027A0003C4D3D4A2B00C03319782000FFF7C6FF8F
:1027B0002B00C1331978394A2000FFF7BFFF2B00E7
:1027C000C2331978002903D0354A2000FFF7B6FF3D
:1027D0002B002C000026FC34F8331E60636931485E
:1027E00063602360A661E661FEF7E8FC2B00F4332A
:1027F0001E70A36C2C486363E36C2665E363A363DC
:102800006665FEF7DBFC96235B00EE54012127484A
:10281000FEF7E3FC2648FEF763FDFEF7E3FB254BDE
:102820001B78B34202D00520FEF7D8FE0220FEF747
:10283000D5FE17E0FEF7D2FEFEF7DDFB02211B48B6
:10284000FEF7CBFC134C01252300F4331D70154813
:10285000FEF7B4FC96235B00E5541348FEF7AEFC8C
:10286000FEF7C0FB70BDFEF7C6FB10480121FEF766
:10287000B4FC084B00221900F4310A70962149007B
:102880005A54FEF7AFFB0520D1E7C046146F001085
:102890003872001070020020D8020020F4020020DC
:1028A000100300205C030020940300205403002048
:1028B00050030020C309002010B5074B02301B78DD
:1028C000002B04D0054B1E221B787F2B00D806223C
:1028D0000021FDF75FFD10BDD40300209E090020FC
:1028E00070B58024044D6401280022000021FDF70A
:1028F00051FD024B2B5170BD340F00200810000019
:1029000070B5FEF775FF0400051E03D1FEF762FFE8
:10291000200070BDFEF74EFF0400FFF7E1FF012D20
:10292000F6D1FEF757FF431E98410440F0E7F7B594
:10293000170001220231890041184B685C69227539
:10294000216822691B8A8D1A9D4200D91D0000232F
:10295000180052198A425841226182030092A17DD7
:10296000AEB20800421E90414203019201224A4049
:10297000A275A0699F4200D0A38BC0182A00A1684D
:10298000FDF7B4FC8420A36800025D19009B30436E
:102990001843019BA56003431800002F00D01804C2
:1029A000FEBD00008B1C9B00C3185B68F7B50600DA
:1029B0000C1E5F6924D11A4BDB6C00222100300011
:1029C0000193FFF7B4FF3A683B6905009A4205D0CE
:1029D000012221003000FFF7AAFF05436B0113D548
:1029E000104A019B13401A00A023DB051343002C5F
:1029F00011D10B4AD3640C4B1034E4001D51F7BDC8
:102A0000094ACB00D358D8E7084A019B13401A0063
:102A100080239B05EAE70449E2008B50EBE7C046C0
:102A200000001150FFFFFFDF00001050FFFFFFAF5D
:102A300070B501258D4004892C4304818C1CA400B1
:102A400004196468646923600023A2606360E36022
:102A50002361FFF7A7FF70BD70B50600C43632785A
:102A60000400152A16D8012393401A4A134220D194
:102A700080256D031D400ED19B020BD50B233370B7
:102A8000FEF7B9FA2B002A0029002000FFF7D0FF3B
:102A9000FEF7A8FA70BDC3689B695B68002BF9D18B
:102AA0000300D0331B68002B00D0984700233370FD
:102AB000F0E70021FEF71AF900212000FEF736F9B1
:102AC00063681B68002B02D006212000984706236C
:102AD000EDE7C046410E000070B50500C4350400A6
:102AE0002878152835D8FDF77BFE3E34343434344D
:102AF0003E34340B283534343434343434343E3EAC
:102B00002300CC33DA7B18680E331B781202134390
:102B1000984212D2E368198AFDF73EFD0E1E0CD1D1
:102B2000FEF769FA3300320031002000FFF780FF22
:102B3000FEF758FA0A232B700BE014232B70FEF7D4
:102B40005AFA002320001A001900FEF75FFAFEF778
:102B500049FA70BD2300D0331B68002B01D0200040
:102B600098470023E7E700212000FEF7BFF8002187
:102B70002000FEF7DBF863681B68002B02D00621FB
:102B8000200098470623D6E70B00F0B511339B00D1
:102B9000C3185C6885B005000E00002C43D0FEF71A
:102BA0002AFA201D0821FEF718FB2300B700443342
:102BB000EF190193FB685B691B68002B17D0236D2D
:102BC000226E01332365A36D9B18E26DA3659342CA
:102BD00001D3A36EA365606C019B834207D0036899
:102BE000019A63645A6000238361FEF7D1FA03A956
:102BF0000198FEF75AFA039B021E0ED1FB685A6930
:102C00001268002A0DD01B8A013B1A4209D1E36FDA
:102C10001B7E002B05D12A00D43231002800FFF79B
:102C200007FFFEF7DFF905B0F0BD13B5446BE36FA6
:102C30001A681178042915D1217A022912D119793B
:102C400001238B4012891A420CD1200001A9443083
:102C5000FEF72BFA021E05D0E46F019B2179206854
:102C6000FFF7E6FE13BD000070B50C00FEF7C3F9D8
:102C70002378042B02D0FEF7B5F970BD144B1B78F6
:102C8000DB09F8D1134D2B78002BF4D0124B1B78B5
:102C9000002BF0D023899B0705D408230F4A01217C
:102CA0002000FFF7C5FE28780D4A00230021FDF71C
:102CB00063FD00230B4A80185941FA220023920039
:102CC000FDF7ACFD21008000FEF7E6FAD3E7C04631
:102CD0009E09002060090020D40300207D09002007
:102CE00010270000E7030000F7B5FEF784F9274C32
:102CF0002300FC331A6E11680878042842D12000A2
:102D0000E830007802283DD11079012282400989FB
:102D1000114237D19A6BD96B8A4233D1596B002952
:102D200030D0196D00292DD00439891A2AD01160AC
:102D3000596B01395963596C5218196C9A638A425C
:102D400001D3DA6C9A6325000027FC352F6501A9B1
:102D50000F48FEF7AAF92B6E06001A7EBA4209D078
:102D600001981A693900121A3018FDF713FB2B6EFF
:102D70001B690193FC34206E019B017932000068CD
:102D8000FFF756FEFEF72EF9F7BDC0467002002091
:102D900094030020F7B50500C4352B780400002B00
:102DA00001D000232B702600D4360822C049300001
:102DB000FDF79CFA63689B68002B15D1327860267A
:102DC000164039D000212000FDF790FF002120009F
:102DD000FDF7ACFF63681B68002B02D006212000C2
:102DE000984706232B70F7BD200098470028E5D0B0
:102DF00023002600DB331A78013B1B781202CC3605
:102E0000134332689A4200D933602300D4331B78CD
:102E100037687F2B00D886E1002F00D176E10923A7
:102E20002B70FEF7E8F822000021C83233681268E0
:102E30002000FFF7FDFD73E123007F21D5331B78D0
:102E40000A401B0213439B4A934200D148E12DD80C
:102E5000022B00D1E5E00BD8002B4CD0012BB1D1D7
:102E6000954A2300C8331A6002225A6000222DE0DE
:102E700081225200934200D1F7E0FF32FF329342A9
:102E800042D08022520093429CD12300D6331B783B
:102E9000012B97D122000221DC3213888B4313804F
:102EA0002300C8331E605E609E60A1E7834A9342A0
:102EB0000ED8013A934233D2013AFF3A934200D0FE
:102EC00080E723007E4AC8331E605E609A608FE709
:102ED0009022120193423FD07A4A9342C0D080227E
:102EE0001201934200D06DE723002200C833DF3285
:102EF0001A6001222EE022002100C832DC3111606C
:102F000002215160936073E72300D6331B78012BB5
:102F100000D057E72200DC32118801330B43BEE7B3
:102F200023002200D9331B78D83212781B021343B6
:102F3000210022006068D632D731476812780978BC
:102F40002000B847002800D13CE723004268C8337E
:102F50001A6002685A60A7E72378042B4AD1FEF76B
:102F60004AF8A268584B02271340A360230010338D
:102F700000931E003C3301937F423368002B0ED038
:102F80005869002803D00C303900FEF74BF933683C
:102F90009869002803D00C303900FEF743F900236C
:102FA000019A08C6B242E8D118001E1C00999A0086
:102FB0008F583F497A6990759082DA00521891686B
:102FC0000133490049089160B9690E754882D1689A
:102FD00049004908D1600F2BE8D1FEF703F8230020
:102FE0000321DF331E70636821701B68002B01D042
:102FF000200098472300D6331B78002B0BD02200EB
:10300000DF3213700423237063681B68002B02D027
:1030100002212000984722000023C8321360536029
:1030200070E72300D8331A780F23134002339B0034
:10303000E31852B25B68002A0EDA5B69002B00D1FC
:10304000C0E61A7D002A05D15B7D204A002B00D105
:10305000B8E606E71E4A04E79B69002B00D1B1E6FB
:103060009A7C002AF6D1DB7CEFE72300D63319786F
:10307000002900D0A6E69E780F233340CBD09A1CBF
:103080009200A218506872B2DB00124E002A07DAD2
:10309000114A9B18DA6F3240DA6743695975BAE70B
:1030A0000E4A9B18DA6F3240DA678369D974B2E747
:1030B00000001050020300008C7200100106000096
:1030C00051100010020C000001000100106F0010F0
:1030D000006E0010FFF7FFFF0400105008001050B2
:1030E0002300D6331B78002B00D06BE623000F2182
:1030F000D8331B7819408ED05BB22000002B02DA47
:10310000FDF7F4FD87E7FDF711FE84E714232B702C
:10311000FDF771FF3B003A0000212000FDF776FF2C
:10312000FDF760FF5FE6002F08D015232B70FDF739
:1031300062FF2200C83233681268EDE70B232B7060
:10314000FDF759FF3B003A00390071E6030070B506
:1031500080249D18080064010021A54204D8034979
:103160005918FDF7C3F80121080070BD340F002085
:1031700013B56B46DC1D0023012221002370FFF7ED
:10318000E5FF207816BD10B50420FFF7F1FF04001D
:103190002220FFF7EDFF0002204380B210BD0000A7
:1031A000D0231B061A68084B92009B185B6810B569
:1031B000D9680875186802681A60536001220275A0
:1031C000D860FDF76FF810BD940800200A00D021E8
:1031D00009060B6830B5040012489B00C3185B68F1
:1031E00087B0DD68531C18D00B6869469B00C01877
:1031F0000D4B406803930023103005930495FEF7B0
:1032000035F82000FFF7CCFF009B002B02D068466A
:10321000FEF714F8A86907B030BD2000FFF7C0FF23
:10322000F8E7C046940800204F110010D0231B0679
:103230001A680A4B92009B185B6810B5DB6800297E
:1032400008D0426818605A60136043600420FFF79A
:10325000BDFF10BD01204042FBE7C046940800209E
:1032600070B504000D00E368002B07D0236900202F
:103270001A1DA262E2699B18E36208E0237A002B20
:1032800006D129002000FFF7D1FF0028EBDA70BD3E
:1032900002204042FBE7F7B504000F0000920193C3
:1032A0000025FDF7A8FEA36A002B09D10199200093
:1032B000FFF7D6FF002803D0FDF794FE2800FEBDDF
:1032C000A06AE36A009A1B1A561B9E4200D91E0090
:1032D000402E19D939004022FDF708F8A36A40377B
:1032E0004033A3624035A36AE26A934204D3E369A0
:1032F0002000191FFDF7C4FEFDF774FE009B9D42E0
:10330000DCD2FDF778FECEE739003200FCF7EEFFA5
:10331000A36ABF199B19A362AD19E4E710B5443045
:10332000FFF7B9FF10BD012310B544305B42FFF732
:10333000B2FF10BD70B504000E001500FDF75BFE76
:10334000A36A002B09D129002000FFF789FF051E81
:1033500003D0FDF747FE280070BDA36A1E70A36A64
:10336000E26A0133A362934204D3E3692000191F88
:10337000FDF786FEFDF736FE0025ECE710B544307C
:10338000FFF7D8FF10BD012210B544305242FFF7BD
:10339000D1FF10BD70B504000D00E368002B07D00D
:1033A00062690020131D1268A3629B18E36208E0A3
:1033B000237A002B06D129002000FFF737FF0028D1
:1033C000EBDA70BD02204042FBE7F7B504000F00C6
:1033D000009201930025FDF70EFEA36A002B09D190
:1033E00001992000FFF7D6FF002803D0FDF7FAFD72
:1033F0002800FEBDA16AE36A009A5B1A561B9E4232
:1034000000D91E00402E17D938004022FCF76EFF6D
:10341000A36A40374033A3624035A36AE26A93420D
:1034200002D32000FDF74DFEFDF7DCFD009B9D4221
:10343000DED2FDF7E0FDD0E738003200FCF756FFA2
:10344000A36ABF199B19A362AD19E6E710B50C304A
:10345000FFF7BBFF10BD012310B50C305B42FFF737
:10346000B4FF10BD70B504000D00FDF7C4FDA36AE4
:10347000002B09D129002000FFF78CFF051E03D087
:10348000FDF7B0FD280070BDA36AE26A1D78013324
:10349000A3629342F4D32000FDF713FEF0E710B5CA
:1034A0000C30FFF7DFFF10BD012110B50C30494291
:1034B000FFF7D8FF10BD10B50400FDF79CFD2100FB
:1034C0000820FFF783FEFDF78DFD10BD70B50600E7
:1034D0000D00FDF790FD144C2378042B02D0FDF76E
:1034E00081FD70BD22891A4212D0D02212061168C5
:1034F0000E4A89005218636952685B69D2680C33BE
:103500001A60642193610320FFF760FE431CE6D03C
:10351000074A0323557002212D0A2000167095706A
:10352000FFF786FADBE7C046E40400209408002099
:103530005D0E002010B501000420FFF7C7FF10BD8D
:1035400010B501000320FFF7C1FF10BD70B50500E5
:10355000FDF751FD114C2378042B02D0FDF742FDFD
:1035600070BD22891A4212D0D022120611680C4A6C
:1035700089005218636952685B69D2680C331A601B
:10358000642193610320FFF721FE431CE6D006234C
:103590002A0002212000FFF74BFADFE7E4040020B5
:1035A00094080020D02301211B061A68064B9200C4
:1035B0009B1810B55B684942DB6803609861032083
:1035C000FFF704FE10BDC0469408002070B505004A
:1035D000FDF711FD1A4C2278042A1ED119492389BE
:1035E00009787F291CD918490978002918D0134275
:1035F0000BD120232A0002212000FFF719FA2022F4
:1036000029001248FCF772FE07E0636958690C3024
:10361000FFF7C8FF2378042BEBD0FDF7E3FC70BD68
:103620009B0703D408232A000121E5E72369586991
:103630000C30FFF7B7FF2378042BEED1F2E7C0463A
:10364000E40400209E090020D40300207D0900200E
:103650008023F0B5160089B08218050001915B0146
:103660009A4203D90024200009B0F0BD5D4F32001A
:10367000C71939000198FCF7E1FE01240028F2D0B7
:10368000320001993800FCF731FEFEF7B1F80590E1
:10369000002802D1FEF79EF8E4E7019B1A78012E7C
:1036A00033D9EB0731D4504B9D422ED8019B5B7828
:1036B0001B021343012B28D85A1E934120225B4240
:1036C0001340803B6A0A1343FF220499DBB2914303
:1036D0000A001A43049204996B08444ADBB21B02A5
:1036E0000A401A436B460492188AFEF723F9040035
:1036F000012867D1019B023E023502330193002E5F
:10370000CBD1FEF7FDF8040061E03F2D18D8FF2172
:1037100003984023884301002B43DBB21943334B0A
:1037200012020B40134303936B469889FEF702F98C
:103730000400012846D1019B013E01350133DDE73C
:103740000296052E01D90523029306AF0622002119
:10375000B81CFCF71FFE07222B0C1340029ABD7009
:10376000D20013433B702B0A7B7000230199DA19B6
:10377000C95C0133D170029A9A42F7D13888FEF7BA
:10378000D9F8040001281DD17888FEF7D3F8040089
:10379000012817D1012E07D9B888FEF7CBF804000D
:1037A00001280FD1032E07D8029A029B9446F61ADD
:1037B000ED18019B6344A1E7F888FEF7BBF804000D
:1037C0000128F1D0002C02D0022C00D00024059B4F
:1037D000012B00D047E7FDF7FDFF002800D141E7AE
:1037E00041E7C046340F0020FF3F0000FF00FFFF0D
:1037F00037B50D000400FFF7BBFCA84206D06B46AE
:103800000122D91D20000D70FFF722FF37BD37B50B
:103810000025042201A904000195FFF797FC019BF4
:10382000AB4205D0042201A920000195FFF710FF4B
:1038300037BD73B56B469C1D00230E00022221008C
:1038400023800500FFF782FC23889E4205D00222D8
:10385000210028002680FFF7FBFE73BD10B5002471
:10386000FFF74EF820490020FFF7E3FF0021022078
:10387000FFF7BEFF00210320FFF7BAFF1B4B21001B
:1038800004201C80FFF7B4FF04212220FFF7B0FFC3
:1038900021000520FFF7ACFF21000620FFF7A8FF5D
:1038A000FF210720FFF7A4FF0820FFF7B0FF21004A
:1038B0000D20FFF79DFF1820FFF7A9FF210017201B
:1038C000FFF796FF1C20FFF7A2FF21002020FFF743
:1038D000B0FF1820FFF79BFF0F20FFF798FF132082
:1038E000FFF795FF10BDC046E8FE0000D608002097
:1038F000F0B501268DB02422002103A8FCF74AFD73
:10390000824C25686B1C38D1814B043476009C4274
:10391000F7D1804C242203A92000FCF78FFD7E4DB7
:10392000002800D14CE1220003AB43CB43C243CB80
:1039300043C243CB43C201232B70FDF7BBFE774B41
:103940001860764B1E68FDF7B5FE801B052800D871
:103950003AE1734E242221003000FCF76FFD002372
:10396000984207D0330007CC07C307CC07C307CC66
:1039700007C3012300222A7027E1FDF73CFB012346
:103980006848EA00D021AB401218052009064B62B6
:103990001060654AAD00AD1840222A608B61FDF7CA
:1039A00021FB624B5F69624B9F4200D8D0E06149C6
:1039B0003800FCF76BFD604B05009F4200D89BE090
:1039C00007235E4938001D40FCF760FD01380F28D1
:1039D00000D991E0FCF718FF8800800078007000A3
:1039E0006800600058005000480040003800300077
:1039F0002800200018001000C046C046C046C0463F
:103A0000C046C046C046C046C046C046C046C04686
:103A1000C046C046C046C046C046C046C046C04676
:103A2000C046C046C046C046C046C046C046C04666
:103A3000C046C046C046C046C046C046C046C04656
:103A4000C046C046C046C046C046C046C046C04646
:103A5000C046C046C046C046C046C046C046C04636
:103A6000C046C046C046C046C046C046C046C04626
:103A7000C046C046C046C046C046C046C046C04616
:103A8000C046C046C046C046C046C046C046C04606
:103A9000C046C046C046C046C046C046C046C046F6
:103AA000C046C046C046C046C046C046C046C046E6
:103AB000C046C046C046C046C046C046C046C046D6
:103AC000C046C046C046C046C046C046C046C046C6
:103AD000C046C046C046C046C046C046C046C046B6
:103AE000C046C046C046C046C046C046C046C046A6
:103AF000C046C046C046C046681E072828D8FCF706
:103B00006FFE262524232221201FC046B06E001000
:103B1000F46E0010380E0020CC080020D0080020E1
:103B2000D80D00200440014004C00140A40800203A
:103B3000FF083D0000093D00FF5025020048E80154
:103B4000C046C046C046C046C046C046C046C04645
:103B5000F34301930123D02700219C4603AA3F068B
:103B60001B4BCD581368681C27D07868E840654621
:103B7000284222D133430431136004322429EFD187
:103B800025686B1C12D0FDF736FA0123D022AB401A
:103B9000120693620F4AEB009B1805221A600E4B27
:103BA000AD00ED184A232B60FDF71CFA0B4B996A08
:103BB0009A6A521A1D2AFBD9A6E601980340DAE751
:103BC0002B78002B00D0BCE6002318000DB0F0BD10
:103BD000147200100440014004C001400040054040
:103BE000704770477346F0B587B00593A24B1D68C8
:103BF000EB0310D58022A14BA14992020124CA50A7
:103C00000021A048C3689A69147551825A69947555
:103C100091825B689847EB043BD58022974B98498B
:103C20001203CA500223974C22002370002326005F
:103C3000DC321360A3600193F368002B15D0FDF70D
:103C4000DAF9F3685869002804D002210C3049429F
:103C5000FDF7E8FAF3689869002804D002210C30D7
:103C60004942FDF7DFFAFDF7BDF90027019BF76038
:103C7000013301930436102BDED12300C4331F70AF
:103C8000FDF77CF963681B68BB4202D03900200055
:103C900098476B0430D510227A4C784B7849CA503B
:103CA00023002278E0331A700523237063681B68B1
:103CB000002B02D004212000984700260227A6608E
:103CC0007F42E368002B13D0FDF795F9E36858694C
:103CD000002803D00C303900FDF7A4FAE368986996
:103CE000002803D00C303900FDF79CFAFDF77AF973
:103CF00001360434102EE4D12B040FD58022614804
:103D00005E4B5F491201CA500300E0331B78037019
:103D100043681B68002B01D005219847AB0307D5EA
:103D200058484368DB68002B00D09847544B9B6C85
:103D3000EB0606D4059B0F3301D0FDF7D7F907B08A
:103D4000F0BD4F4B9B6D039300230293013301930E
:103D5000039B002BEED0029B202BEBD0019B039A00
:103D600013421FD0484B464A0199464FD150012279
:103D7000029B5C08A31C9B00FB185B680493029BDE
:103D8000134233D1049B5D692B692A886B609BB217
:103D900093420FD021003800FEF704FE039B019AE6
:103DA00093430393019B5B000193029B0133DBB2BE
:103DB0000293CDE70122A2403B8993433B81049BC0
:103DC0009B68002B02D02100380098470234A400E1
:103DD0003F19FDF710F97B68002158690C30FDF799
:103DE00021FAFDF7FFF80023AB82D7E7049B274AAF
:103DF0009D69E3009B181E68A969B605B60D3200DF
:103E0000A868FCF773FAAB689B19AB606B689B19E9
:103E10006B602B689B1B2B602B8A013B9BB22B8218
:103E2000002B03D0049B5B8AB3421FD901220023DD
:103E3000A2406B82134DA61C6B8993436B81B30028
:103E4000EB185B68DB68002B02D021002800984744
:103E5000B600AD19FDF7CFF86B689B69180059687B
:103E60000C30FDF7DFF9FDF7BDF897E721003800CA
:103E7000FCF77CFF92E7C0469800115050300000DC
:103E800000001150E404002058300000840010505D
:103E9000F8B57746FDF7AFF8D0231B061A68174B25
:103EA00092009B185D682E00EB6910360133EB61C0
:103EB0002B699E4206D1FDF795F80F3701D0FDF72B
:103EC00015F9F8BD9A68013A9A602C69A368002B2D
:103ED000F1D1226861680A6051602360FDF782F8C1
:103EE00021692000E3689847FDF785F86269002A98
:103EF000EBD021003000FDF7B9F9E6E79408002087
:103F0000BFF35F8FD023BE221B0652009B50704729
:103F1000D0230C2172461B0610B519650B39186D9C
:103F2000084205D140BF0F3201D0FDF7DFF810BDC8
:103F3000986D0230F3D172B61A68034B92009B1849
:103F40005B68024A9A65FEE794080020326B001015
:103F5000D0230C2172461B0610B519650B39186D5C
:103F6000084205D140BF0F3201D0FDF7BFF810BDA8
:103F7000986DF4E710B5EFF30983203383F30988D4
:103F8000FDF730F810BD000010B50400FDF733F860
:103F9000D0231B061A68054B92009B185B680F2004
:103FA000DB689C61FFF7FCF810BDC0469408002058
:103FB000D0231B061A680E4B92009B185B6810B545
:103FC0001868D96802681A60536001220275D860C7
:103FD00000238A680B750B691B689C689442FBD8A8
:103FE0005A680B604A6011605960FCF75BF910BDBC
:103FF0009408002070B508210024094B18685A68FD
:104000009D68954207D8D868904207D80139103387
:104010000029F3D170BD40C840C2F2E710C2F3E7F7
:1040200094710010FEE7704710B5FCF7F1FD0E4BE0
:104030000E4A196891420AD01A600D4A0D48946AD6
:10404000916A091B8142FBD900221A6010BD00242D
:104050001C601423188804331B88074998472100E3
:10406000030020009847C0463C1F0020BAB0FECA9B
:10407000004005403F0D0300554200007FB5074B4F
:104080000A0001930023029303930493044B01005D
:1040900001A80593FDF7A4FE07B000BDE11B0010C9
:1040A000FFFFFF7F0FB407B504A901C90191FFF716
:1040B000E5FF03B008BC04B018470000F0B51400D9
:1040C0001C4A85B0029111780122114001911A4ECB
:1040D0009A7807003568002A08D1A84206D100293D
:1040E00002D01648FFF7DEFF05B0F0BD0299E200EE
:1040F0000392AA1A914208D0190028000822FCF75E
:10410000F5F8E300ED180C4B1D60019B002BEBD084
:10411000611E4B1E9941029B3268DB1BDB1063431F
:10412000D21BD2100131013362430548FFF7BAFFB9
:10413000DAE7C046D4080020D40D0020FA6B001046
:104140002B6C0010F7B504000D0016000193D3008E
:104150005B4200930122104B1B781340A54204D010
:10416000009AAF18BA78002A0ED1002B09D0711E20
:104170004B1E99412A1BD210013172430748FFF7A9
:1041800091FF019B1D60F7BD002B02D00448FFF793
:1041900089FF3D00DEE7C046D4080020D06B001048
:1041A0009C6B001010B5074C010020700C20FFF72D
:1041B0001FFB054B1B78DB0703D521780348FFF76E
:1041C00071FF10BDE80E0020D4080020D16D001052
:1041D0002D4B70B51B782D4C1B073CD52C48FFF799
:1041E00061FF61782B48FFF75DFF2B48FFF75AFF0F
:1041F00002212A4D61562800FFF754FF284E300057
:10420000FFF750FF032128006156FFF74BFF3000F6
:10421000FFF748FF042128006156FFF743FF3000F5
:10422000FFF740FF052128006156FFF73BFF1D48BF
:10423000FFF738FF1C4B1D4D19782800FFF732FFA0
:104240001B48FFF72FFF1B4B28001978FFF72AFFA9
:104250001948FFF727FFFDF72DFAA378E27880B21F
:10426000134301D0154B188023796279134301D091
:10427000134B1880134B1B68002B04D002229B6841
:1042800022702000984770BDD4080020200E002026
:10429000E26C0010056D00100A6D00100C6D00102E
:1042A000E06C00100F6D0010270E0020126D001042
:1042B000156D0010260E0020176D0010CC0900208F
:1042C000CE090020E0080020F8B53C4A3C4B1278AB
:1042D0001B783C4C3C4D134323702B78002B29D08A
:1042E000FDF7E8F9394B1B88C01A394B80B2984268
:1042F00008D9384B1B78DB0702D53748FFF7D2FEC9
:10430000FEF7F2F823782A7813432370334B1A7898
:104310000623002A04D0324A12787F2A00D91833A3
:104320000022A11C013BDBB2FF2B3FD1002A01D0B0
:10433000FEF7DAF82B4D202229002000FCF77EF84A
:10434000002832D0202221002800FBF7CFFF264B87
:104350001B68002B29D0214A1278002A07D0204A56
:1043600012787F2A03D922786270062222705B6855
:1043700020009847174E33785A0716D5DB0702D529
:104380001A48FFF78FFE0025012733783B4203D000
:10439000615D1748FFF786FE0135082DF5D13378AA
:1043A000DB0702D51348FFF77DFEF8BD087800282B
:1043B00001D00132D2B20131B4E7C046320F002041
:1043C0005C0E0020C8050020350E0020360E0020AF
:1043D00087130000D4080020A76D0010D40300202C
:1043E0009E090020A3090020E0080020B96D0010FC
:1043F000CB6D0010726C001010B500240020FDF78A
:10440000ADF90020FDF798F9084B1C70FFF75CFF31
:10441000062221000648FBF7BDFF064B1C70064B29
:104420001C70064B1C70FFF7D3FE10BD320F00202E
:10443000200E0020270E0020280E0020260E00202F
:104440000122824010B503490B8893430B80FFF78C
:10445000D3FF10BDD0090020002370B50B4D0724F9
:10446000EB561A00824350B2287004400DD1DBB2E3
:1044700083420AD0064B5B785B0706D5C010C0B2FA
:10448000FFF7DEFF034B2C701C8070BD300E002048
:104490009E090020320E00200123834010B5034AFC
:1044A00011880B431380FFF7A7FF10BDD009002030
:1044B000094B10B55B785B070AD5C300074A0B436D
:1044C0001370FFF7E9FFFDF7F5F8054B188010BDF5
:1044D000FFF7E2FFFBE7C0469E090020300E0020F8
:1044E000320E0020002210B5034B04481A70FEF76C
:1044F000E3F9FFF781FF10BD5C0E0020C805002026
:10450000094B10B51B780400DB0702D50748FFF7FD
:10451000C9FDFFF7E7FF0022054B1A80FFF76CFF8C
:10452000044B1C6010BDC046D4080020516C001024
:10453000D0090020D40D002010B5FFF7D3FF0648A6
:10454000FEF7B9FFBFF34F8F044B054ADA60BFF3A4
:104550004F8FC046FDE7C046C409000000ED00E0F3
:104560000400FA0510B5002803D0FDF7CBFFFFF7D4
:10457000ABFE10BD10B5002805D0034B1A781043D0
:104580001870FFF7A1FE10BD5C0E0020114A70B537
:10459000537804005907C90F81421AD00100012540
:1045A00004202940834389000B4353701688F1B2DD
:1045B000FFF71EF9310A2220FFF71AF90220FFF750
:1045C0004BFF054B1B782B4203D021000348FFF71C
:1045D00069FD70BD9E090020D40800201A6D0010EE
:1045E00010B5154B01001B78002B18D0134B1B780E
:1045F0007F2B14D9C2081D2A09D8072008400121A1
:1046000081400F4B9B189A788A439A7010BD0D4BCE
:104610001B78DB07FAD50C48FFF744FDF6E70623C5
:104620000020074A94788C4200D19070013BDBB2A5
:104630000132002BF6D1E9E7D40300209E090020C7
:10464000C8050020D40800205D6B001070B51A4B1F
:1046500001001B78002B19D0184B1B787F2B14D925
:10466000C3081D2B09D8164A0720D2180123014080
:104670008B4091780B43937070BD124B1B78DB0716
:10468000FAD51148FFF70EFDF6E7002301220C488A
:104690005242C418A4785DB2A142EDD0561C02D19A
:1046A000002C00D12A000133062BF2D1531CE3D099
:1046B00082189170E0E7C046D40300209E090020D4
:1046C000C8050020D40800203F6B001010B58428D6
:1046D0000ED1FDF755F8430709D54720FFF7B6FF80
:1046E000FFF7F2FD4720FFF77BFFFFF7EDFD10BD61
:1046F000031FDBB2A02BF6D903002033DBB2072B5C
:1047000007D80723034001209840C0B2FDF7FAFE06
:10471000EBE703005B33DBB2022B03D80020FDF78D
:104720001DF8E4E703005833DBB2162B03D8002052
:10473000FDF702F8DBE7EC28D9D9FDF71BF9FFF705
:1047400047FDD4E710B500280FD082280ED1FDF721
:1047500017F8830709D53920FFF778FFFFF7B4FD75
:104760003920FFF73DFFFFF7AFFD10BD83280AD1C9
:10477000FDF706F8C307F8D55320FFF767FFFFF7EB
:10478000A3FD5320EDE7FFF7A1FFEEE710B504000E
:10479000842812D1FCF7F4FF43070DD44720FFF71C
:1047A00055FFFFF791FDFA208000FEF784FE4720B9
:1047B000FFF716FFFFF788FD10BD031FDBB2A02B2C
:1047C00024D8274B274A1B78002B11D0264B197869
:1047D00000237F290CD9C308D2189178072201231E
:1047E000024093400B420BD12000FFF72FFFE1E77F
:1047F000D1188978A14203D00133062BF8D1F3E711
:104800002000FFF7EDFEFFF75FFDEDE7030020332B
:10481000DBB2072B08D807231C40063BA340134AF2
:1048200011780B431370C5E703005B33DBB2022B37
:1048300004D80F4AD05CFCF791FFBDE70300583362
:10484000DBB2162B05D80B4A5B00985AFCF774FFB5
:10485000B2E7EC28B0D9FDF755F9FFF7B9FCABE7A3
:10486000D4030020C80500209E0900205C0E002013
:104870001F6900102269001010B5002813D082288B
:1048800012D1FCF77DFF83070DD43920FFF7DEFE40
:10489000FFF71AFDC8208000FEF70DFE3920FFF754
:1048A0009FFEFFF711FD10BD83280ED1FCF768FFB6
:1048B000C307F8D45320FFF7C9FEFFF705FDFA2020
:1048C0008000FEF7F8FD5320E9E7FFF75FFFEAE716
:1048D00070B505005024392800D000242800FFF7C7
:1048E000CBFF002C03D12800FFF72CFF70BD0A205E
:1048F000013CFEF7E0FDA4B2F3E70000F7B5019339
:10490000150082780C00244B002A0CD01970FCF79B
:10491000D1FE224B1880072301201C40A040C0B2CA
:10492000FFF728FEF7BD1E788E422FD11B4B1F8844
:10493000FCF7C0FEC71BBFB2C72F27D82C002034FE
:10494000AE4215D033002033DBB2072B06D8072345
:1049500001201E40B040C0B2FFF704FEE3B2072BB7
:1049600006D8072301202B409840C0B2FFF702FE73
:104970000198E4B2FFF7ACFF072CD3D8072301203E
:104980001D40A840C0B2FFF7EDFDCBE70723012093
:104990001C40A040F6E7C046600E0020620E0020DA
:1049A000F8B504005026392800D000262700200042
:1049B000FDF768FEE03FBFB20500072F10D8FFF7F4
:1049C000D9FDE4B22000FFF757FF002E11D12000DF
:1049D000FFF7B8FE072F12D82800FFF7C3FDF8BD78
:1049E0000028EED00A4A137803431370FFF76CFCDB
:1049F000E7E70A20013EFEF75EFDB6B2E5E7002DCF
:104A0000EDD0034A1378AB431370FFF75DFCE6E784
:104A1000320F0020F8B5174B17491E5C0723C20858
:104A20008D5C18401549164B8F5C9C5C0541012339
:104A3000044107411C401D401F40002C02D0E120D2
:104A4000FFF7A4FE002D02D0E620FFF79FFE300006
:104A5000FFF73EFF002D02D0E620FFF737FE002CC7
:104A600002D0E120FFF732FE002F02D02C20FFF70A
:104A70002FFFF8BD126E0010026E0010026E0010C3
:104A8000926E0010F0B58BB0858808AC070001006D
:104A900002222000FBF72AFC002D3BD02288954BF8
:104AA0009A4237D078883B88000401221843B9889D
:104AB000FDF7B4FD904D04002A78002A32D1BB786E
:104AC000002B52D18D4BC01804284ED8FBF788FE1E
:104AD00003094D0E24008A48FFF712FD01232B70B5
:104AE0000AE08848FFF70CFD0223F8E70122864B15
:104AF0008348196800F022FE844B1B785B0709D0BD
:104B0000BB78002B06D0824B5B785B0702D5022076
:104B1000FFF7A2FC0BB0F0BD01227E4B5242196898
:104B20007848E7E7754BC318022B1AD87A4BC4189C
:104B3000631E9C41BB78A342DED0012A03D0022A27
:104B400008D00023CBE775496F4B09686C48FFF725
:104B5000F9FAF6E7012271496E4B52420968694839
:104B6000F5E7012A4DD0022A52D0B9797B7808099D
:104B7000C907C90F0291B98803900191B9783A78B1
:104B8000009167482100FFF78DFABB78002B0AD00F
:104B9000644B9C4250D042D8634B9C424AD0634BFA
:104BA00001209C4243D0230400D433E1BB78002B86
:104BB00000D1D4E0FCF7E4FD5D4B8007C00F187016
:104BC000FCF7DEFD5B4BC0075B4DC00F18702B7808
:104BD000012B06D1564B1B78002B02D03920FFF752
:104BE00077FE564A564B11782878197000231370B7
:104BF000544A1370052828D8FBF7F2FD244D52279C
:104C000063683B0043493E480968FFF757FAACE741
:104C100001223D493B00524209683A48F5E74A4BB8
:104C20009C420DD00AD3494B05209C42BBD1FFF7D3
:104C3000B9FAB8E70020FAE70220F8E70320F6E720
:104C40000420F4E7E220FFF7A1FD0C266420FEF724
:104C500032FC63045B0C0593059B0F223341134028
:104C60002A78022A3BD1981FC0B2092B06D80933F3
:104C700018000A21FBF77AFD5931C8B2FFF728FE68
:104C8000043E331DE8D12878052864D8FBF7A8FD39
:104C900060A8B363BCBEC6208000FFF781FED4E7E6
:104CA000244B1B78002B02D15320FFF711FEE2208A
:104CB000FFF76CFD6420FEF7FEFB5720FFF708FEB0
:104CC000C3E7E620FFF704FE1820F7E71C20FF30BB
:104CD000FFF766FE2520FFF763FE2820DDE71A00B8
:104CE0000A3A052A04D930331800FFF793FEC7E7C4
:104CF0005733F9E7FFFF0000D20D0020FCA2FFFFB1
:104D0000D2090020CA0D0020DC030020300E002054
:104D10009E090020E0030020FAA2FFFFD40D00202E
:104D20002F6D0010E45C0000E25C0000E35C00001A
:104D3000EC0E0020EE0E0020E80E00205C0E00209D
:104D4000ED0E0020320F0020E65C0000B15D000097
:104D5000E220FFF7BBFCB94B1A78B94B1A70BB784D
:104D6000002B01D100F09FFC0022B64BB64E1A700A
:104D7000B44200D980E0B54B9C4205D2B44BE31855
:104D80009BB2132B00D980E0FEF7FDF9B14DB24B79
:104D900028809C4200D1B8E100D9BBE0AF4B9C42D7
:104DA00000D13CE100D996E0AD4B9C4200D127E117
:104DB00000D987E0AB4B9C4200D11BE100D91CE13C
:104DC000A94B9C4200D10CE12C880420E1B2FEF7F3
:104DD0000FFD210A2220FEF70BFDFFF783FB8BE678
:104DE0002C20FFF775FDA14B39201B78002BB2D08A
:104DF000FFF76EFDAFE7E220FFF768FC9C4B532006
:104E00001B78002BA7D1F3E72820F1E72820FFF734
:104E1000C7FDA0E7974B9C421ED00FD8964B9C42F3
:104E200017D0964B9C4223D0954B9C4297D126237A
:104E3000E12211003800FFF761FD5DE6914B9C42D5
:104E400012D00DD3904B9C4289D12723E522E62135
:104E5000F0E72723E522ECE72623E122E021E9E73A
:104E60002723E522E421E5E72623E122E221E1E709
:104E700028230122E521DDE7844B9C4200D183E712
:104E80001AD8834B9C4200D17EE7824B9C4201D0D2
:104E900000F017FC55226A4B35201B78934319000C
:104EA0004A1E91417C4A1170002B00D10C38FFF74B
:104EB000CDFBFFF709FA1FE6784BE3189BB2022BF4
:104EC000E3D861E7764B9C4200D1A5E000D8A0E092
:104ED0002A78402387E0734B9C4200D103E108D835
:104EE000714B9C4200D1A4E000D89EE02B780222B6
:104EF000A1E06E4B9C4200D101E100D2F6E06C4B88
:104F00009C4200D1FEE06B4B9C4200D05CE72B78CA
:104F1000402290E0BA23DB019C4200D1FEE02CD875
:104F20004A4B9C426FD017D8634B9C4200D105E19D
:104F300000D2F0E0614B9C4200D045E70121042003
:104F40002B785A07D20F4A400A40910083430B4303
:104F50000821D2008B4346E0594B9C4200D1C8E067
:104F600054D3584B9C4200D1C6E0574B9C4200D0D2
:104F70002AE703236A789A433AE0454B9C4200D1E2
:104F8000E8E00DD8514B9C4200D1E1E000D2C8E0EE
:104F90000021B44200D017E70E20FEF729FC13E7EA
:104FA0004B4B9C4222D00AD8384B9C4200D00BE796
:104FB00001212A78D307DB0F4B400B40D2E0454B51
:104FC0009C4200D18AE0444B9C4200D0FCE6012187
:104FD0006A781307DB0F4B400B400731DB008A4335
:104FE00006E001232A7813432B70EDE608236A7844
:104FF000134376E02A780223F5E72A780423F2E7C0
:105000002A780823EFE76A780123F1E76A78022318
:10501000EEE72A781023E6E72A782023E3E7FFF774
:1050200061FA80232A785B42DDE70C232A789A43D1
:10503000D9E701222B789343D6E7C046ED0E002036
:105040005C0E0020600E0020035D0000FB5C000091
:10505000FEA3FFFF9E090020125C0000095C000017
:10506000055C0000035C0000025C0000EC0E002008
:10507000EE0E0020F45C0000D95C0000DA5C000059
:10508000D85C0000F65C0000F75C0000A65D000044
:10509000625D0000165C00003A09002052A2FFFF8A
:1050A000075C00000D5C00000B5C00000F5C000062
:1050B000105C0000115C0000145C0000155C000036
:1050C000FD5C0000FE5C0000FF5C0000025D000073
:1050D000AE5D0000AF5D0000B05D000008226B789F
:1050E00093436B7070E62B780422A4E72B78082298
:1050F000A1E76B780122F3E76B780222F0E72B78C7
:10510000102298E72B78202295E7FFF7EBF97F2212
:105110002B78134068E72B780C228CE76B780322FE
:10512000DEE701216B78DA07D20F4A400A408B4351
:1051300013435100022293430B43D2E7FFF7D2F906
:1051400001222B78D9094A407F21D2010B404AE73E
:10515000012121E701212A78D306DB0F4B400B40C8
:105160001B010F318A433EE70120B7490A78D30774
:10517000DB0F43400340824313430B70034203D0D1
:10518000B248FEF78FFFB7E4B148FAE7FEF766FBD7
:10519000FFF7D2F9AF4B587801234007C00F5840B2
:1051A000FFF7F4F9BC783B8809AD2B80002C54D074
:1051B0000998FDF7BFF96A780400082A07D82B7808
:1051C000102B04D811215143C918FBF759FC2000BA
:1051D0000999FDF721F80022BB79051C1B090593ED
:1051E0009D4BBC781B7806925B0720D006949442B6
:1051F0001DD02B041B0E0F329343402B06D02B00E7
:1052000000222033DBB20692072B10D90022914BEB
:1052100006925B785B070AD50220FFF71DF907228B
:105220008D4B1B7813405A425341DBB206932B043B
:10523000180F0B283DD8FBF7E7FA1D001D007D0075
:105240007D0029013D013C003C004801A501B7015A
:10525000B7010120A4E70020A2E76A78082AB6D89F
:105260002B78102BB3D811205043C018FBF7F2FB5A
:105270000400ACE70F222B042E051B0E360F9343C0
:1052800000D03601EBB20593002C3BD0002E0DD0A0
:105290002033DBB2072B03D9EBB2704A002B00D1CD
:1052A0006F4A13781E431670FFF70EF80598FFF744
:1052B000E3FA2D042D0F083D032D01D8FCF760FA09
:1052C000069B002B14D00020634B1856012303408B
:1052D0000ED1C010BB70C0B2FFF7DEF83800FFF788
:1052E000D1FB00205C4B1856C010C0B2FFF7A8F8E5
:1052F00078883B8800041843B9880022FDF78EF9AE
:10530000FFF708FC0598FFF71DFA002ED1D0EBB28D
:105310002033DBB2072B02D9EBB2002B03D13000D4
:10532000FDF7F0F803E04D4A1378B3431370FEF72E
:10533000CBFFBEE70F222B042E051B0E360F934327
:10534000202B00D03601EBB20793002B0ED0012B9F
:105350006DD0059B002C00D18AE0002B43D0BB7997
:10536000DA076FD50F221340BB713CE0394B5B78F5
:105370005A0711D4002C09D0002E05D0384B1878CC
:1053800006431E70FEF7A0FF002090E72000FFF705
:10539000D9F9002E8DD0C2E7002C28D0059A002A1A
:1053A00003D1304B187830431EE0059A012A0ED104
:1053B0005B0700D47DE72B4C23781E439E4200D12F
:1053C00077E7FCF777F9284B2670188071E7059B83
:1053D000052BE6D1FDF788F83200244B19780A43F3
:1053E0008A4200D01A703000FFF7C4F861E7059BCD
:1053F000002B02D1FDF778F810E0059B012B11D1AD
:10540000174B1B78334200D153E7FDF76DF8174B6C
:1054100019780A00B2438A4200D01A703000FFF7B0
:10542000A1F846E7059B052B00D142E7E2E7059B83
:10543000002C03D0052B00D93BE7D4E7042B00D97F
:1054400037E7EBE7079832E7D4080020846D0010B7
:10545000956D00109E090020300E0020320F0020B4
:105460005C0E0020350E0020360E0020340E002089
:10547000002BD3D0EBB20120392B01D1C820800002
:10548000FEF719F80798FFF75DF912E72B059B0F58
:1054900009D0012B00D00CE7201E01D0A805800DFB
:1054A000FCF74AF905E7201E01D0A805800DFCF79E
:1054B00055F9FEE6E8B2002C04D0FCF723FBFEF71A
:1054C00087FEF6E6FCF756FAF9E72B049B019B0FE3
:1054D00027D1002C00D0ECE62A06520F92002B07B1
:1054E000D2B21B0F93409BB2E90603D50F34944010
:1054F000E443A4B22905890F834A02290DD00AD8B2
:10550000012906D0118823430B401380FEF774FF56
:10551000CFE611880B432343F7E723431488634006
:10552000F3E7AA05920FD1B20123002C1FD013403C
:10553000002B00D1BDE62906490F89002B07C9B20F
:105540001B0F8B4000229BB2E80603D50F328A4026
:10555000D24392B22805800F6C4902280ED00BD896
:10556000012807D013430A8813400B80CEE749086F
:105570000B40DDE7088803431343F6E713430A882B
:105580005340F2E7EBB22E050593360F002C04D002
:105590003000FEF781FF059826E70598FEF7E2FF49
:1055A0003000FEF74DFF84E6EEB23000F0380428FC
:1055B00061D8FBF715F90328131A2400059B002C6A
:1055C00008D0042B00D974E60123EA04D20E4F4917
:1055D0009340D4E7052B00D96BE6F5E7E804C00E4D
:1055E000002CDED1FEF758FF63E64849002C04D0BA
:1055F0000123EA04D20E9340B7E70C8086E7444BC0
:105600005B785B0704D4E804C00E002CC9D0E9E73E
:10561000002C1FD007223F4B00241B781340042B83
:1056200009D13C4BE8041C703B4BC00E1C80FEF7BC
:1056300007FF06943DE6059B0694042B00D938E647
:10564000EC04E40E2000FEF727FF03212000FEF704
:105650002FFF2EE6059B042B09D92E4BE8041C7066
:105660002D4BC00E04211C80FEF722FFE1E7012034
:10567000FEF7F2FEDDE7059B002C06D03000002B84
:1056800000D014E6E804C00EACE7002B08D00120DF
:10569000392E01D1C8208000FDF70DFF3000F2E661
:1056A000E804C00E7DE71D4B9C4200D07AE51C4B00
:1056B00035201B78002B00D10C38FEF791FFFFF747
:1056C000F8FB184B9C4200D1C3E512D8164B9C4204
:1056D00000D149E5154B9C4200D157E5DF3B9C4288
:1056E00000D05FE5FEF7FEFE1148FDF7E4FEFBF794
:1056F000D3FF104B9C4200D14CE500D2ABE50E4BE2
:105700009C4200D144E54DE5D6080020D009002098
:105710009E090020300E0020320E0020165C000092
:105720003A0900205B5D0000015C0000DF5C0000C6
:10573000C40900005D5D0000A85D0000134BF7B5D3
:105740001B7804000F001500DB0706D5511E4B1E09
:1057500099410F480131FEF7A5FC0E4EED0033884C
:105760000193FEF7BFFE00233380FEF745FEBC42E7
:1057700006D1FEF7B7FE019B3380FEF73DFEF7BD75
:105780002000FFF77FF96419F1E7C046D408002034
:105790007B6B0010D0090020F7B50F221F488379DA
:1057A000934336D18378002B33D01D4B01A91B784E
:1057B0001C4A12789A422CD082889446002A29D01A
:1057C000047847780C704F700A88174DAA4221D090
:1057D000164ADE0092195578BD421BD1134D755DF6
:1057E000A54217D19478002C14D165469488641B87
:1057F000A4B2C72C0ED80F241021837923400B4369
:1058000083719379234019439171FFF73BF9FCF7BA
:1058100081FEF7BD072201331340C9E7D80E0020EF
:10582000310F0020300F0020FFFF0000F00E00209D
:10583000F0B5040095B0010006220EA8FAF756FD57
:105840002378A54E0593637871780493A378B08884
:105850000193A38807AA029333888C46039313808D
:105860003378002800D1D5E011889C4A914200D1BC
:10587000D0E0B578002D00D1CCE0B1790F220F0037
:105880009743029A101A80B2C72800D990E0002FDF
:1058900052D108A803706346437003888F4A019F62
:1058A000934214D02388039A9A4210D13B1E00D011
:1058B00018E10F331940013319433000B171FFF77C
:1058C000E1F8B379A3710025280015B0F0BD029B63
:1058D000002B00D00AE1019B002BF4D001237E4A6B
:1058E00091790B439371EEE77D4AD80011184A78FD
:1058F0009446049A944507D1794A805C059A90426F
:1059000002D189780029DED1072201331340FFE05C
:10591000114201D0002B0DD02033DBB2072B09D967
:105920002000FFF7AFF82F0004E01142F4D0A27975
:105930008A43F1D13D00C7E709AA1370634653704B
:105940001388664A934210D02388039A9A420CD156
:10595000019B002B09D1A1712000FFF793F80822C9
:1059600021003000FAF7C2FCAEE72000FCF70EFE83
:10597000002819D0019B002B16D0574A93791F2B72
:1059800009D910A81288028000228270029A8371BD
:105990008280FFF777F8082221004F48FAF7A6FC2B
:1059A000FFF7FAFE01258FE72000FFF76BF8F9E714
:1059B000002F08D13000FFF765F8082239003000C9
:1059C000FAF7E8FCB6E70AAA137063465370138827
:1059D000424A934210D02388039A9A420CD1019BE9
:1059E000002B09D1A1712000FFF74CF808223000EC
:1059F0000199FAF7CFFC67E72000FCF7C7FD002804
:105A0000D2D0019B002BCFD0334A12A893791F2B01
:105A1000C1D9B7E7304F0BAA3988002847D065466F
:105A20001370557015882D4A954240D0BD78002DD1
:105A30003DD1029E301A80B2C72834D8019D002D76
:105A4000B2D00CA8037063464370038893421CD005
:105A50002388994219D1BB79DA0712D40F22190091
:105A600091430ED01900A3719143F02906D00F2164
:105A70001A09013212010B401343A3712000FFF7F2
:105A800001F80822210038006CE72000FCF77EFDB9
:105A9000002800D07FE70123BA7920001343BB71AF
:105AA000FEF7F0FF10E7082229003800A1E7019B6C
:105AB000002B00D178E72000FCF768FD051E00D11F
:105AC00072E7082221003000FAF710FC3088FCF75A
:105AD00053FDFFF761FEF7E6D80E0020FFFF000040
