:100000000C9409060C9431060C9431060C943106BC
:100010000C9431060C9431060C9431060C94310684
:100020000C9431060C9431060C94FA2C0C94B62CDA
:100030000C94092E0C9431060C9431060C94310664
:100040000C9431060C9431060C9431060C94310654
:100050000C9431060C94E52D0C9431060C94310669
:100060000C9431060C9431060C9431060C94310634
:100070000C9431060C9431060C9431060C94310624
:100080000C9431060C9431060C9431060C94310614
:100090000C9431060C9431060C9431060C94310604
:1000A0000C9431060C9431060C943106050109803C
:1000B000A101850319012AB700150126B700950192
:1000C00075108100C0050C0901A101850419012AE0
:1000D000A002150126A002950175108100C00660DE
:1000E000FF0961A1010962150026FF00952075082E
:1000F00081020963150026FF00952075089102C052
:1001000005010906A101050719E029E715002501E8
:10011000950875018102950175088101050719008F
:1001200029FF150026FF00950675088100050819AE
:10013000012905950575019102950175039101C08D
:100140003A7468756D627375703A010128003A63FC
:100150006F6C645F666163653A010128003A7377EA
:100160006561745F736D696C653A010128003A70CE
:100170007261795F746F6E65323A010128003A70DE
:100180006570655F706F673A010128003A6E6963B8
:10019000657E323A010128003A6A6F793A010128F6
:1001A000003A736D696C65795F6B656B773A010135
:1001B00028003A6D7573636C653A010128003A7046
:1001C0006570655F6B696E673A010128003A736D6F
:1001D000696C65795F737069743A010128003A733C
:1001E0006D696C65795F6665646F72613A010128BB
:1001F000003A736D696C65795F74616B653A0101F2
:1002000028003A64726F6F6C696E675F6661636540
:100210003A010128003A68656172743A01012800C8
:100220003A736D696C65795F636174313A010128D5
:10023000003A736D696C65795F636174323A0101EC
:1002400028003A7375727072697365643A01012807
:10025000003A6F6F663A010128003A746869733A90
:100260000101280001015300290028000102E201D8
:10027000012B0103E2003030000102E0770103E0CE
:10028000000102E201013D0103E2000102E001027E
:10029000E2740103E20103E0000102E00102E2670F
:1002A0000103E20103E0000102E00102E201012991
:1002B0000103E20103E0000102E00102E50101297E
:1002C0000103E50103E00001013B0102E0760103C7
:1002D000E00001013B0102E061780103E00001015F
:1002E0003B0102E061630103E0000102E30102E17E
:1002F000730103E10103E3000102E3650103E3008D
:100300000102E3640103E3000102E301012B740134
:1003100003E3000102E30102E00101500103E001F7
:1003200003E3000102E30102E001014F0103E001E8
:1003300003E3005445535400FD377A585A00000433
:10034000E6D6B4460200210116000000742FE5A392
:10035000E00E8603F05D003D8889C65436C3174F12
:10036000E4DC31B2E74DB0B29590C5FE55EF1A8D81
:100370009E505AD459A324C1A53B02AF1EF355A7E2
:100380002F62881923E85A18A232E20824622C2529
:10039000162C5A8F6994B18960FBAEF514A34D1FDA
:1003A0003DE9862275C5E3C3F5A29410714D997598
:1003B000E6872EBB52E81C8CD4C9866B108EFF4595
:1003C00086A0D91902F3962AD91DE3DDDF10A40413
:1003D000F628285E511613FDECD04C900FE113095E
:1003E000151461E004C176D86E5E183F0CE81BE17D
:1003F0006772F26E7F6E1C24B0C36666714C32D891
:100400002C2D2D97037185C8F0F22BF3F8B9BAA102
:100410007475A21C69A52DABB7F235B3EC41B78951
:1004200029EEA71EF1440F74C20E263542C39CA5C7
:100430001996F659F0D52CF70FF69C3DF7880693E0
:10044000B880C75A4FD50C5F4D15F9192F691C1389
:10045000165485C90C4E82C7FEE1EF087FE5701186
:10046000B5005B3CAAD7E3D58D024CF82D6AB05B92
:1004700029E153CB64489F44806235E4E6FFED1EDA
:10048000C118FCEE0C7A41A90FB8C9185BABFE7617
:100490008F12BBF0A3AD4FEA058C8FA0D3724074CE
:1004A0004C6FFA0C6772C195F4C1F3398A82BDE9C9
:1004B000797AB8A7B88BAFF73E0802AFF739926CDC
:1004C000D2EE30AEBB3241D3F83CA97432A53EDC4B
:1004D000A01B2F23D9E17E3860EDA6FB49C52D076F
:1004E00021C7D6B2B49014A48325FBBE29B9ABFEB4
:1004F00048C059A11016E54FCE93EBA1E0DCFE8A6F
:10050000BE6E9D405145E4B6FDE7B3B15AA8D61D75
:10051000BC9D25E5038BF692A0EE2FFFC498427593
:10052000689534B7C78933D118AACA8F8DD3DF290C
:10053000A356523CE41439038A4258C8C1ACC4A93A
:10054000093C5EC5B8B00F8C376C0245CB2FEBB1C0
:1005500099CA6C14BAB98536FCD5AEE23C0998DF6D
:10056000BFB528DD49EA11C48965AD0C0964929ACA
:10057000B7910325AE2404D8A0F028AB620838CD8B
:100580006D40B5A0C73F45E5D57EC6F70DDBC97FF9
:1005900067E31A75B8EDD1A9102A6CDBA229AE80E9
:1005A0001C35AF8097C840285CC092B79ED3EC370B
:1005B0003BD6AB0A210E520FF85F3AEB99A8820F97
:1005C000D9D71FC232119DB5036011D954D0A38A67
:1005D000F6D9C27E65F92C097D77F7F37DBC1A55F3
:1005E000800749518A306265266489DBFAC9278908
:1005F0005AE580EF1EF205795E24DD93969BAB559C
:10060000BCEC2A69AB4D790E76F6CD01EF4C693B17
:10061000BEFC85F2A1DA0CF49683C55090350537FF
:10062000F25CDAAB5EC2C169623B8F1234F711B57E
:100630003BC735E8DD83028E82CE0BBC9F39001F9D
:10064000BE7F20039266A5E36FFB515E979BD2129B
:100650000B7B6871D83E90C0F13A4DC4D406493E38
:100660001F0034AD71ED5D7CA03DEAE6725C710166
:10067000DEB2C4F7A1A104D32AFA260F0C14D55E6A
:10068000E3DEB7595B3BFC5DC5487BE356461199F9
:100690003A3CFBA7CF515DC7B581AA7293906463C2
:1006A0009446B83E5C05524B71665DB1AA78E86825
:1006B000DC9F61A26B787D0B58D0CABB00CB9C58E5
:1006C00051B21FA12EEAEEC146962E766FA89AFD72
:1006D0000753618E061C6A3E88190D3A9069EB41FA
:1006E00064FD002B0A4312CE1358E7CD84775C19C2
:1006F000D2685F7D646506D380009B12B3C8E2E2D6
:100700006AD249189A0F0ED670201F4C3A33250032
:10071000A84C98FE539544FDEBEE8B80048B1DFF97
:100720008FEE91996E94D1DC52B1FBCFFA3E61F914
:10073000A4F4B861487B0D27EFD7822FC23A94EC1E
:10074000A0EBEC2D33812300EB3B9EF92F77B08F8C
:1007500000018C08871D00001EF527FEB1C467FB51
:10076000020000000004595A01000100D908940F4A
:10077000C70F000002000200D508940FC70F000049
:1007800003000100DA08940FC70F00000400020004
:10079000BF08940FC70FE30905000100DB08940FA1
:1007A000C70F000006000200C108940FC70F000029
:1007B00007000200D708940FC70F000008000100CF
:1007C000DC08940FC70F000012000200DD08940F30
:1007D000C70F000013000200DF08940FC70F0000CE
:1007E00014000100E108940FC70F0000150000007D
:1007F00000006909901600000000000000000000E1
:1008000000000000000000000000000000000000E8
:100810000000000000000000000000007E0F00D477
:10082000FFFFFFC70000007800000000000000008C
:100830002A2B28000000000000000000000000003B
:1008400000000029000000002C1E34202122243446
:100850002627252E362D3738271E1F202122232418
:1008600025263333362E37381F0405060708090AB4
:100870000B0C0D0E0F101112131415161718191A50
:100880001B1C1D2F3130232D350405060708090ACE
:100890000B0C0D0E0F101112131415161718191A30
:1008A0001B1C1D2F3130354C09025B00030100A0D9
:1008B000FA090400000103010100092111010001EE
:1008C000224000070581030800010904010002031A
:1008D0000000000921110100012222000705820306
:1008E00020000107050303200001090402000103A1
:1008F00000000009211101000122320007058403D4
:100900002000011201000200000008C016DB2701D0
:1009100000010203011C037600690061006C003ACB
:10092000006600360034006300320062003300636A
:100930000000000E034200450041004D0061006CC4
:10094000000000860341006C0065006300740061D4
:1009500000720064007900390038002F0054006FE5
:10096000006D00200057006F006E0067002D0043EF
:10097000006F0072006E0061006C006C002F006C54
:10098000006900730074006F0066006F00700074EF
:100990000069006F006E0073002F006B006D006E29
:1009A000006F00760032003000310037002F005019
:1009B0000075007200640065006100200041006E57
:1009C000006400720065006900000004030904016E
:1009D00000010001000000E300370010002C00E2DD
:1009E0000001510100010058004F000100E40038EF
:1009F0000036001100050006001D00815F825F5770
:100A00000037005100E50034000F000D0019001BF5
:100A100000E1008200875F56005200500000003362
:100A2000000E000B000A0007001600895F865F5564
:100A30000020002700280013000C001C00090015EE
:100A4000000400855F065D23001F001E0030002F9C
:100A50000012001800170008001A002B00075D5450
:100A6000002200210031002E002700250023002154
:100A70000014001E0029002600250024002A002D55
:100A80000026002400220020001F0035008A5F019C
:100A9000000100010000000100AB0001000100E3C3
:100AA000000100010001000100815F01000100AEB2
:100AB00000AC000100010006011D01010001000160
:100AC000000100845F0100A9000100010019011B61
:100AD000010100010001000100835F825F0000AAA4
:100AE00000010001000100070116010100010001E1
:100AF000000100010001009C5F9A5F985F09019668
:100B00005F04010100035D0100010001000100011B
:100B1000009B5F995F975F955F945F0100045D01A3
:100B2000000100010001004500430041003F003D7D
:100B300000935F3A00005C0100010001004C00449A
:100B400000420040003E003C003B0001000100016B
:100B5000000100010000000100010001000100018E
:100B6000000100010001000100010001000100017D
:100B7000000100010001000100010001000100016D
:100B8000000100010001000100010001000100015D
:100B9000000100010001000100010001000000014E
:100BA000000100010001000100010001000100013D
:100BB000000100010001000100010001000100012D
:100BC000000100010001000100010001000100011D
:100BD000000100010001000100010001000100010D
:100BE00000010001000100010001000100010001FD
:100BF00000010001000100010001000100010001ED
:100C000000010001000100010001000100010000DD
:100C10000C3611241FBECFEFDAE0DEBFCDBF11E0EE
:100C2000A0E0B1E0EEE9FEE602C005900D92A2362A
:100C3000B107D9F729E0A2E6B1E001C01D92AA32BE
:100C4000B207E1F716E0C9E0D6E004C02197FE0143
:100C50000E942B36C830D107C9F70E94302E0C9461
:100C6000F5360C940000E8EDF0E080818E7F808303
:100C70001092E2001092DA001092E100A0EEB0E0D3
:100C80008C9181608C9380818F77808319BCA7EDD4
:100C9000B0E08C918E7F8C9380818F7E80831092C8
:100CA000040908952091E4003091E50095E6A9013A
:100CB0002091EC00822F817020FF06C08091E80017
:100CC00080FF06C080E008952091E80022FD1AC050
:100CD00080911209882389F0853089F08091EB009A
:100CE00085FD0FC02091E4003091E50042175307C5
:100CF000F9F29150E1F684E0089582E0089583E0EE
:100D0000089581E00895EF92FF920F931F93CF9380
:100D10007C018B010E945206C82F811117C080915F
:100D2000E80085FD0BC08091E8008E778093E80095
:100D30000E945206882399F3C82F08C0F7018191B9
:100D40007F018093F1000150110949F78C2FCF9159
:100D50001F910F91FF90EF9008958091140987FFE4
:100D600013C08091E80082FF06C08091E8008B7775
:100D70008093E80004C0809112098111F2CF089598
:100D8000809112098823D9F38091E80080FFF8CF81
:100D90008091E8008E77ECCF982F9093E900242F74
:100DA000762F50E0891731F07091EC002091ED0022
:100DB0005091F00021FD07C09F5F973071F780933D
:100DC000E90081E008953091EB003E7F3093EB0025
:100DD0003091ED003D7F3093ED003091EB003160BC
:100DE0003093EB007093EC002093ED005093F000F3
:100DF0002091EE0027FDE0CF80E00895B0E0A0E074
:100E0000E4E0F7E00C944236C8EDD0E088818F7EB4
:100E10008883E7EDF0E080818160808384E082BF99
:100E200081E08093040988818E7F888302EE10E040
:100E3000F80110821092DA0081EEC82ED12CF60152
:100E4000108288818F7788838881806888838881F1
:100E50008F7D888319BC1092120910921309109289
:100E6000100910920F0990EEE92EF12CF701808104
:100E70008B7F808388818160888342E060E080E0AE
:100E80000E94CC06F60180818E7F8083F8018081EC
:100E900081608083808188608083F70180818E7F7C
:100EA0008083888180618883CDB7DEB7E8E00C94C9
:100EB0005E36FC0180911A0990911B0986179707ED
:100EC000A0F06115710529F49091E8009E77909348
:100ED000E80090E06115710551F4911108C080910E
:100EE000E80082FF34C080E00895BC01F2CF809119
:100EF00012098823C1F18530C1F18091E80083FD9A
:100F000030C08091E80082FDEACF8091E80080FF48
:100F1000E1CF8091F3002091F200382F6115710527
:100F200019F02830310558F091E02830310509F0EA
:100F300090E02091E8002E772093E800CBCF8191BC
:100F40008093F100615071092F5F3F4FE7CF80918F
:100F50001209882341F0853041F08091E80083FF39
:100F6000BECF81E0089582E0089583E0089508955A
:100F7000089580910609089587E797E790930108FF
:100F80008093000888E19AE00FB6F894A8958093C2
:100F900060000FBE90936000FFCF9C014FB7F894A4
:100FA0008091FD089091FE08A091FF08B091000982
:100FB0004FBF821B930B08952FB7F8946091FD08E3
:100FC0007091FE088091FF08909100092FBF08954D
:100FD0002FB7F8948091FD089091FE08A091FF082A
:100FE000B09100092FBF08958091220982FD04C0AD
:100FF00090912009911118C082FF04C080911F09AF
:10100000811112C081E08093200980931F090E9402
:10101000E80790931E0980931D0980911C0988237D
:1010200011F05A9A08955A9808959C01FC0132963D
:101030009FEF80E04191461751F09F3F19F4411115
:1010400001C0982F8F5F8630A9F79F3F09F408955C
:10105000290F311D97FD3A95F9016283089520917A
:10106000FA083091FB082817390771F09093FB08B4
:101070008093FA08E091F808F091F908309721F090
:101080000084F185E02D099508952091F6083091AE
:10109000F7082817390771F09093F7088093F6083E
:1010A000E091F808F091F908309721F00680F78177
:1010B000E02D09950895E091F808F091F90830972E
:1010C00029F00190F081E02D0995089580E00895C0
:1010D000CF93DF93EC014091EB085091EC086091C5
:1010E000ED087091EE082FB7F8948091FD0890916B
:1010F000FE08A091FF08B09100092FBF841B950B3B
:10110000A60BB70B843F9140A105B10518F580915E
:10111000EB089091EC08A091ED08B091EE08809357
:10112000E7089093E808A093E908B093EA0884EFF1
:1011300091E0A0E0B0E08093E3089093E408A093EE
:10114000E508B093E608D093F308C093F208DF9166
:10115000CF9108950E94DC076093E7087093E80838
:101160008093E9089093EA0882E390E0A0E0B0E081
:10117000E2CFFC018481862351F492819923B9F056
:101180006923808583FF05C081E061110FC080E085
:101190000895892F8F7092959F70982B862F8F704E
:1011A00062956F70682B81E09613F1CF089581E00E
:1011B000FDCF8091210980FF06C080911109823006
:1011C00011F45B9A08955B9808950E94D908539A88
:1011D0000895811522E5920780F48115E1E59E07C7
:1011E00060F5803E910538F0883E910530F19054CD
:1011F00081159041E8F081E016C081152AE592073B
:1012000098F48115E9E59E07C0F48115984598F397
:10121000FB01958192959F702091E10830E081E07B
:101220009217130651F4089590568115904218F7BD
:10123000FB019581907F81E0B1F780E00895452B17
:1012400039F0682381E06F3F09F080E081700895F4
:1012500081E0FCCFDC016091BB088091BC08962F37
:10126000891301C00895292F30E0F901EE0FFF1F07
:10127000ED54F74F408151814A175B07A1F487E095
:101280008A9FA0018B9F500D11244558574F81E034
:10129000FA0184839613E6CF2F5F3F4F23703327E5
:1012A0002093BB0808952F5F3F4F922F9370D8CFA4
:1012B0001092180810921708EBE7F8E08581811169
:1012C00002C014821682379688E0E33BF807B1F734
:1012D0000895B0E0A0E0EFE6F9E00C9440368FEF1F
:1012E0009FEF4430510508F469C04091F00741FB7D
:1012F000882780F990E0880F991F42FB002700F9AA
:1013000010E0000F111F000F111F802B912B40FBCD
:10131000CC24C0F8D12C8C299D2943FB222720F90D
:10132000C22FE0E0DE2F53E0CC0FDD1F5A95E1F72E
:101330008C2B9D2B44FBAA27A0F9B0E0E4E0AA0F78
:10134000BB1FEA95E1F78A2B9B2B45FBEE27E0F9C3
:10135000F0E0A5E0EE0FFF1FAA95E1F78E2B9F2B83
:1013600046FB222720F930E0B6E0220F331FBA9562
:10137000E1F7822B932B47FB222720F930E03695AB
:10138000322F222737952795822B932B2091F10717
:10139000322F3170F32EE82EF92A26952170B22EC5
:1013A000BB0CA82EBF28C501BB0CAA0BBB0BFB01B5
:1013B00080839183A283B38390E080E0CDB7DEB7D2
:1013C000EAE00C945C368091BF089091C00890933D
:1013D000140180931301089580E008959091F0071F
:1013E00092FF06C0282F28712830F9F4877F846087
:1013F00093FF06C0282F28712831F1F4877E84617D
:101400002091F10720FF06C0382F38713830D9F409
:10141000877F816021FF06C0282F28712831D1F4F1
:10142000877E816194FD877E0895282F2471243062
:10143000F9F68B7F8860DCCF282F2471243101F7E7
:101440008B7E8861DDCF382F3171313019F78E7F77
:101450008860E0CF282F2171213121F78E7E8861AD
:10146000E1CFCF93DF93EC0182389105B1F108F021
:1014700040C08133910509F49DC048F5893291053A
:1014800009F48DC08A9709F49CC0C11522E5D207E2
:1014900008F0BDC0C11531E5D30708F025C1C83E2D
:1014A000D10508F0A3C0C13ED10588F5C83AD105E1
:1014B00008F08EC0C53AD10508F0F6C0C130D1059C
:1014C00031F1209721F1C430D10508F545C08533AD
:1014D000910509F45FC0C997C1F68091F007837048
:1014E00009F037C18091F10783FF11C0C9E2D0E054
:1014F0000EC0833E910599F170F4803E910501F193
:10150000823E910511F68091F00782FD21C0CE0147
:10151000DF91CF910895863E910561F1873E910557
:1015200071F1843E910509F0B0CF8091F10781FF00
:10153000EECF8091F007C7EED0E084FD0DC0E7CF7D
:101540008091F00780FD33C09091F10790FFDFCFCD
:10155000C3EED0E084FFDBCFD0E0C0E0D8CF8091F5
:10156000F00782FDF3C09091F10790FDF2C084FF77
:10157000CECFF2CF8091F00783FDDDCFC8CF809131
:10158000F00783FDE9C09091F10791FFF0CFC4EE21
:10159000D0E0BDCF8091F00785FFB9CFA7CF809174
:1015A000F00785FDDCC08091F10783FFB0CFC9E370
:1015B000D0E0ADCF8091F00786FFA9CFCAE2D0E09E
:1015C000A6CF8091F00786FFA2CFC1E3D0E09FCFE6
:1015D000CF3BD10508F6C85AD0E0CC0FDD1FCC5D5B
:1015E000DE4F0990D881C02DD46491CFC11540E55C
:1015F000D40708F064C0C11580E4D80708F05CC0C7
:10160000CE019A9581159F4108F481CFA5CFC115D0
:1016100036E5D30718F5C11545E5D40708F07DC0B8
:10162000C11584E5D80708F073C09C2F9695969550
:101630009E0123703327C115D34508F45AC0C1E079
:10164000D0E002C0CC0FDD1F2A95E2F730E2939F75
:10165000C0011124C82BD92BDA6859CFC1158AE5EE
:10166000D80778F4C11529E5D20708F061C0C11583
:1016700038E5D30708F470CFDC2FCC27C06FD06AD1
:1016800046CFCE0190568115904208F065CF8D2F40
:101690008F710E94EE0990E0982F882788279F710C
:1016A0009C012C2BE90142C0C55AD0E0CF5DDE4F32
:1016B000C881D0E0D0642BCFDF70D06A28CF2C2F28
:1016C00026952695237080E2289F900111248C2F67
:1016D0008370C1E0D0E002C0CC0FDD1F8A95E2F735
:1016E000C22BD32BDD6813CFDC2FCC27C16FD06A80
:1016F0000ECFC1E0D0E002C0CC0FDD1F2A95E2F78B
:1017000020E2929FC0011124C82BD92BDC68FFCEA8
:10171000DC2FCC27C46FD06AFACE8C2F0E94EE0942
:10172000C82FD0E0DC2FCC27CC27DF71D062EFCEE2
:101730008C2F8F700E94EE0934E0D695C7953A95AC
:10174000E1F7CF709C2FEC01D069E1CEC2EED0E082
:10175000DECEC0EED0E0DBCEC6EED0E0D8CEC5E324
:10176000D0E0D5CE8091F005882331F01092F005BD
:101770001092EF051092EE050895CF93C82F809137
:10178000F10782FF0CC08091F0058C1741F00E9498
:10179000E8079093EF058093EE05C093F005CF9195
:1017A000089580959091F20798239093F2070895F9
:1017B0001092E5051092E4051092E30508958091DA
:1017C000C1089091C208892B89F00E94E8072091F6
:1017D000EE053091EF05AC01421B530B81E02091E7
:1017E000C1083091C2084217530708F480E08170A5
:1017F0000895E6E6F1E09191891303C0DF011197A6
:101800001C9291E0EC36F907B1F708952091E205BA
:101810009091A105291302C080E0089530E0F901FC
:1018200053E0EE0FFF1F5A95E1F7EE55FA4F518145
:10183000561306C05081581303C05281541304C07C
:101840002F5F3F4F2770E6CF81E008958091E2053A
:101850009091A105981301C008958F5F8770FACF0A
:10186000292F983078F58C3068F590E03CE0239F84
:10187000800D911D1124682F677023E09695879540
:101880002A95E1F7FC01EE0FFF1FE80FF91FEB5857
:10189000FA4F50E040E080E0219130E0062E02C097
:1018A000369527950A94E2F721703327042E01C05C
:1018B000220F0A94EAF7822B4F5F5F4F43305105A6
:1018C00059F7089580E00895292F983098F58C30C5
:1018D00088F590E03CE0239F800D911D1124282F76
:1018E000277041E001C0440F2A95EAF723E096955E
:1018F00087952A95E1F7FC01EE0FFF1FE80FF91F0E
:10190000EB58FA4F30E020E070E05191DF01119781
:10191000CB01022E02C0969587950A94E2F781705A
:1019200081958527842385278C932F5F3F4F233014
:10193000310559F7089592959F70963091F058F4BB
:10194000925F9F70923058F4803F19F030F4883ED7
:1019500030F481E008959A5FF4CF843FD1F380E0C2
:101960000895883EB0F3813FD1F7F3CF81FB222762
:1019700020F982FB992790F980FF08C05F9A222303
:1019800039F0769A992331F02E9A08955F98F7CF1F
:101990007698F8CF2E9808959C013A9521153F41ED
:1019A00050F5FC01EE27F170BC0166277270AC01A6
:1019B000442754709C012227387094FF0EC080E1A8
:1019C000EF2B09F480E0672B09F08062452B09F0CA
:1019D0008064232B89F08068089581E0EF2B09F45F
:1019E00080E0672B09F08260452B09F08460232B8F
:1019F00019F08860089580E008952A9880E190E0C9
:101A0000299A29980197E1F78F9A8F9808958093E2
:101A100001097093030960930209809112098430CF
:101A2000F9F48093E9008FEF9091E800815095FDE3
:101A300006C095ED9A95F1F700008111F5CF8091E0
:101A4000E80085FF0DC050E040E063E070E081E019
:101A500099E00E9483068091E8008E778093E800E9
:101A60000895BC0184E00E94070D0895BC0183E045
:101A70000E94070D0895CF93DF93EC0181E08093DE
:101A8000E9008FEF9091E800815095FD06C095ED3B
:101A90009A95F1F700008111F5CF8091E80085FF5C
:101AA00014C050E040E068E070E0CE010E94830680
:101AB0008091E8008E778093E80088E0FE01A7E03F
:101AC000B9E001900D928A95E1F7DF91CF910895E9
:101AD000019708F40895EFE9FFE03197F1F700C0AE
:101AE0000000F6CFA5E0B0E0E8E7FDE00C94423658
:101AF0008A012FE030E090E08217930709F06FC071
:101B00002A9A299A299821503109B0F76F5F7F4F9F
:101B1000FE01319680E090E0F894D6B0E9B0F3B0E1
:101B2000CFB0D192E192F192C1928F9AD6B0E9B042
:101B3000F3B0CFB0D082E082F082C08201968617E7
:101B40009707A0F378948F980E94FD0C8AE28A95FB
:101B5000F1F700C02C2D30E08E2D83709F2D9071F9
:101B6000892B9D2D92959470892B9E2D969598701A
:101B7000892B9F2D990F9074892BA901440F551F14
:101B80004072842B220F331F220F331F2078822BA9
:101B90000115110501F15A814B812C8130E09981A9
:101BA00092959470652F6370742F7071672B962BCC
:101BB00056955870952B440F4074942BA901440FEF
:101BC000551F4072942B220F331F220F331F207892
:101BD000922BF80190832596E8E00C945E362A98C3
:101BE00090CF90638E9820E130E097FF0EC02A9A44
:101BF000880F991F299A299821503109B1F78E9A97
:101C00008AE28A95F1F700C008952A98F1CFB0E0F2
:101C1000A0E0EDE0FEE00C943C36782ECC24CA9493
:101C20003FE0D32E10E000E088248394912CE8015B
:101C3000CC0DDD1D7720C9F1D695C795CE010E9448
:101C4000F10D2FECA22E29E0B22EE12C950190E0AF
:101C500080E0F12CF90145915491452B39F0A40114
:101C6000082E01C0440F0A94EAF7F42A0196285E70
:101C70003F4F8830910571F780E1682E50E040E0D9
:101C800063E070E08E2D772091F00E94720D8F211D
:101C9000C1F08E010F5F1F4F0C151D0540F2C801EA
:101CA000CDB7DEB7EEE00C9458362196C5CF0E9432
:101CB000720D8F218F1529F06E0181E0C81AD108AD
:101CC000EBCF6A946110DACFE39482E0A80EB11CE6
:101CD0008CE0E812BBCF711002C08E01DDCF6E0127
:101CE000DBCF0F931F93CF93DF930FEB18E0CAE680
:101CF000D2E0CE010E94A536F80181938F01219692
:101D0000CE38F2E0DF07A9F7C2E7D7E0FE01859100
:101D10009491009711F0FC0109952C96F8E0C230DF
:101D2000DF07A1F7DF91CF911F910F9108950F93D6
:101D30001F93CF93DF93833030F5683020F54C301C
:101D400010F5C42FD0E0CC0FDD1F28E1629FC00D3D
:101D5000D11D112430EC839FC00DD11D1124CE0163
:101D60008A960E94A536082F10E0102F0027CE017A
:101D70008B960E94A5369801282BC901DF91CF913F
:101D80001F910F91089590E080E0F8CF462F2091A9
:101D9000EE073091EF07232B99F4703F39F4603F41
:101DA00079F48091EC079091ED070895833040F429
:101DB000783030F46C3020F4672F0E94970E08952D
:101DC00090E080E00895CF92DF92FF920F931F93EF
:101DD000CF93DF936C01009125098091F105082BC9
:101DE000C7E0D0E010E0FC2EC8010C2E02C0959593
:101DF00087950A94E2F780FD0CC02197A0F7F12C9B
:101E00008F2DDF91CF911F910F91FF90DF90CF9099
:101E10000895B6018C2F0E94C60E0E94310A0197C8
:101E200061F3EECFCF93DF93EC010E94E30EBE018E
:101E30000E94C60E0E94310ADF91CF910895CF9380
:101E4000DF93EC014B815C81698188810E941F09CD
:101E5000811110C08E819F81009739F00E94310A54
:101E60000E949B0CDF91CF910895888199810E94F7
:101E7000120FF6CF80E0F6CFA5E0B0E0E2E4FFE09D
:101E80000C94473649835A8389819A81662399F055
:101E9000222389F00E94E30E182F682F89819A81EE
:101EA0000E94640C69817A81812F0E94C60E25965A
:101EB000E3E00C9463360E94300C182FF3CFFC0142
:101EC000262F86819781009739F440815181628164
:101ED000738184810E943C0F089583E290E00E9408
:101EE000A5368F3589F484E290E00E94A5368130D2
:101EF00059F485E290E00E94A53691E0853C09F016
:101F000090E0892F8170089580E0FCCFCF9384E02A
:101F100090E00E94A536C82F82E290E00E94A5368C
:101F2000982F8C2FCF910895DB01FC0132962591DB
:101F300034914217530758F0FC013496659174911F
:101F4000A901CD010E94853690E080E008958FEFD1
:101F50009FEF08950F931F93CF93DF930FEB18E03C
:101F6000CAE6D2E0CE010E94A536F80161918F0148
:101F7000681719F0CE010E94B9362196CE38F2E0EA
:101F8000DF0781F7DF91CF911F910F910895DA015B
:101F90009C012E5F3F4FF90145915491F901259124
:101FA0003491A217B30758F0FC01349685919491AF
:101FB0000E9485360E94AA0F90E080E008958FEF7E
:101FC0009FEF0895CF93DF93C6E0D3E060E0CE01AA
:101FD0000E94B9362196C11584E0D807B9F7DF9180
:101FE000CF9108951F93CF93DF93122F8330E0F4A6
:101FF0006830D0F44C30C0F4C42FD0E0CC0FDD1FDB
:1020000098E1699FC00DD11D112490EC899FC00DEE
:10201000D11D1124632FCE018A960E94B936612FFB
:10202000CE018B960E94B936DF91CF911F91089512
:10203000CF93C82F6FEF81116FE583E290E00E948C
:10204000B9366FEFC11161E084E290E00E94B936C9
:102050006FEFC11165EC85E290E00E94B936CF9137
:102060000895CF93C92F682F84E090E00E94B9367D
:102070006C2F82E290E00E94B936CF910895AAE0D9
:10208000B0E0E5E4F0E10C943E3600EB17E086EAC0
:10209000C82E87E0D82E9EEDE92E92E0F92E27E09B
:1020A000922E35EAA32E37E0B32E88248394D601EE
:1020B0000D931D936D014AE050E0B701CE010196EA
:1020C0000E949536F8013896DF01892D1D928A9578
:1020D000E9F789819A81D80111969C938E938F811B
:1020E00012968C9312978D8113968C9313978885F3
:1020F00014968C931497898515968C9315978B81DC
:102100009C8117969C938E93169718961C921897FD
:102110008A8587FF3CC01E961C921E921D9780FFE9
:1021200003C0D80118968C9281FF04C0F8019085F5
:102130009260908782FF07C0D80118969C911897EB
:10214000946018969C9383FF04C0F8019085986072
:10215000908784FF07C0D80118969C9118979061CA
:1021600018969C9385FF04C0F80180858062808763
:10217000015F1F4FFAE0EF0EF11C86E0E81683E0E6
:10218000F80609F094CF2A96ECE00C945A36F80140
:10219000B686A586C4CFAAE0B0E0E1EDF0E10C94EC
:1021A0004236E5E5F7E080E5DF011D928A95E9F723
:1021B000EBE7F8E088E3DF011D928A95E9F785E512
:1021C000C82E87E0D82E7F010EE812E0F701D182F9
:1021D000C0824AE050E0B801CE0101960E949536D7
:1021E00088E0FE013196D60101900D928A95E1F7C3
:1021F00089859A85D70113969C938E931297BAE09E
:10220000CB0ED11CE7E0EE0EF11C065F1F4F0E3D1A
:10221000F2E01F07D9F62A96E8E00C945E36A7E0B4
:10222000B0E0E5E1F1E10C943836E7E1F7E080E178
:10223000DF011D928A95E9F785EFA82E86E0B82E7A
:1022400095E0892E96E0992E22242394312CF501D5
:10225000819191915F010E94F10D10E000E00E83E9
:102260000F833101002E02C0660C771C0A94E2F73E
:10227000A7E1B7E0BB83AA836D012401F12CE12C17
:1022800080E0EC82D2012D913D912D012621372154
:10229000232B79F181110AC0AE014F5F5F4F63E0DC
:1022A00070E08E810E94720D80958D83898190E00F
:1022B0000C8002C0959587950A94E2F780FD18C0BE
:1022C000BD818B2F90E00C8002C0959587950A9474
:1022D000E2F7817099270F8002C0880F991F0A9436
:1022E000E2F7F60120813181822B932B9183808349
:1022F00081E0FFEFEF1AFF0A22E0C20ED11C98E046
:10230000E916F10409F0BDCF0F5F1F4F0C30110526
:1023100009F0A5CFB0E18B0E911CE3E1AE16E7E02A
:10232000BE0609F094CFE2EFF5E042E056E080E02F
:1023300061917191AA81BB812D913D91BB83AA834B
:102340006217730709F081E0DF0112972D933C9328
:102350004E175F0769F7882341F181E080930406F7
:102360000E94E8079093030680930206809102067C
:10237000909103060E94CD070597D8F040E150E008
:1023800067E177E085E497E00E947836892BB1F029
:1023900080E1E7E1F7E0A5E4B7E001900D928A95CE
:1023A000E1F781E01092040605C0809104068111D6
:1023B000DDCF80E02796E2E10C94543680E0F2CF46
:1023C0008091F20790912609892B80936401809176
:1023D000F005882309F18091C1089091C208892BEA
:1023E00029F00E94DF0B81110E94B20B80916401E1
:1023F0009091F005892B8093640120E086E691E0BE
:10240000FC013191CF0131112F5FF1E08C369F0734
:10241000B9F721110E94B20B8091EF08809590913D
:10242000640189239091F008892B8093640148E02E
:1024300050E066EE75E084E691E00E947836892BE4
:10244000A9F088E0E4E6F1E0A6EEB5E001900D9297
:102450008A95E1F7E091F808F091F908309731F0AA
:102460000280F381E02D84E691E009950895809142
:102470001501877F80931501909126099D7F909388
:10248000260984FF08C08F7E809315018091F20792
:1024900082608093F2078091150185FF08C08F7DCF
:1024A000809315018091F20780628093F2070E9469
:1024B000E011089590E080E00E94450890E080E0FF
:1024C0000E942F08109226090E94E011089580931F
:1024D00025090E945A12089580912509982F967017
:1024E000963021F488600E9467120895877FFBCFA1
:1024F00021E030E001C0220F8A95EAF72095809113
:10250000250982230E94671208959091E505809520
:1025100089238093E505282F277091F4282F082E12
:10252000000C330B9217130659F09091F10792FFAC
:1025300007C08595859585950E9478120E94D80BD5
:1025400008959091F10792FB222720F9281769F04E
:1025500080FB92F99093F1078091F0079091F10739
:102560000E94311082E00E948512089521E030E03F
:1025700001C0220F8A95EAF780912509822B0E94DB
:10258000671208959091F10792FF10C098E0899F1B
:1025900090011124622B6093E5050E94B6120E94FF
:1025A000E8079093E4058093E30508950E94B6122E
:1025B00008958093F1050E945A1208951092F2072F
:1025C000E6E6F1E086E0DF011D928A95E9F70E94D8
:1025D0005A120895AAE2B0E0E0EFF2E10C94473617
:1025E00084E199E02091F100DC012D93CD01B9E067
:1025F0008C319B07B9F780911509833009F472C0BB
:10260000B8F4813009F449C0823009F4B3C0809134
:10261000E80083FF3BC180911409909115099A301D
:1026200008F034C1E92FF0E0E950F94C0C942B3656
:102630008A3009F48EC08B3009F471C0893039F7C3
:1026400080911409813219F7809118099091190924
:10265000009711F00297D9F68091E800877F809368
:10266000E8008091E80082FF38C09091F3008091EB
:10267000F200029731F48091F100813011F0863040
:1026800021F48091F100809306098091E8008B7716
:102690008093E8000E94AD06BACF80911409813A78
:1026A00009F0B5CF8091E800877F8093E8008091A2
:1026B000180990911909892B61F468E087E099E085
:1026C00070E00E9459078091E8008B778093E800C2
:1026D0009ECF60E090E080E0F3CF809112098111FD
:1026E000C0CF95CF80911409813A09F090CF8091A5
:1026F000180990911909892B09F089CF8091E80078
:10270000877F8093E8008091E80080FFFCCF809174
:1027100018018093F1008091E8008E77B9CF809105
:102720001409813209F073CF809118099091190929
:10273000892B09F06CCF8091E800877F8093E800B7
:102740000E94AD0680911609809318010E94DE1246
:102750005ECF80911409813209F059CF8091E80051
:10276000877F8093E8000E94AD06809117098093CF
:1027700005094DCF80911409813A09F048CF809125
:10278000E800877F8093E8008091E80080FFFCCF1D
:1027900080910509BECF803899F0823809F076C063
:1027A000809118098F70873008F070C08093E9001D
:1027B0008091EB0085FB882780F91092E90006C024
:1027C00080910F0990911009911182609091E80019
:1027D000977F9093E8008093F1001092F100809130
:1027E000E8008E77C5C1882309F4B2C1823009F0B0
:1027F0004DC0809116098111B6C1809118098F7062
:102800002FEF280F263008F041C08093E900209177
:10281000EB0020FFA8C1933031F48091EB0080627F
:102820008093EB00A0C19091EB0090619093EB003E
:1028300021E030E001C0220F8A95EAF72093EA00F8
:102840001092EA008091EB008860EACF81111EC0EF
:10285000109116091F778091E3008078812B809377
:10286000E3008091E800877F8093E8000E94AD0636
:102870008091E80080FFFCCF8091E3008068809326
:10288000E30082E0111183E0809312098091E80057
:1028900083FF0AC08091E800877F8093E8008091E1
:1028A000EB0080628093EB00AA96E3E00C94633621
:1028B0008058823058F720911609309117092C3D25
:1028C000E3E03E07A1F583E08A838AE289834FB77C
:1028D000F894DE01139620E03EE051E2E32FF0E0B1
:1028E00050935700E49120FF03C0E295EF703F5FE3
:1028F000EF708E2F90E0EA30C0F0C7968D939D93D5
:102900002F5F243159F74FBF8091E800877F809374
:10291000E8006AE270E0CE0101960E9459078091BA
:10292000E8008B778093E800B1CFC096E7CF809125
:10293000180990911909432F55274330510509F47F
:102940004AC078F54130510509F485C08BE590E027
:10295000E8EAF8E04230510509F098CF2091E8000C
:10296000277F2093E80020911A0930911B098217D4
:10297000930708F49C0140E02115310509F070C06F
:1029800041116EC08091E80082FDC9CF809112098B
:10299000882329F2853019F28091E80083FFF2CF75
:1029A000BECF4132510509F447C04232510509F00A
:1029B0006DCF8330910508F069CFFC01EE0FFF1F4A
:1029C000EB5AFE4F0190F081E02D8E5A9E4FDC01B4
:1029D0008C9190E01DC0332721303105E9F021159D
:1029E000310579F022303105F9F02330310509F055
:1029F0004DCFE5E1F9E0E4918E2F90E0E5E1F9E0DB
:102A000007C0EBECF9E0E4918E2F90E0EBECF9E0FD
:102A1000009709F43BCFA2CFE3E4F9E0E4918E2FD5
:102A200090E0E3E4F9E0F4CFE3E3F9E0E4918E2F02
:102A300090E0E3E3F9E0ECCF8330910508F026CF96
:102A4000880F991FFC01E55AFE4F0190F081E02D9F
:102A500089E090E083CF82E190E0E3E0F9E07ECF8F
:102A600080911209882309F45ACF853009F457CF91
:102A70008091E80083FD53CF8091E80082FD82CFF2
:102A80008091E80080FF78CF9091F3008091F20070
:102A90002115310519F08830910550F041E0089773
:102AA00009F040E08091E8008E778093E80064CFE1
:102AB00044914093F1003196215031090196E8CFBD
:102AC000803809F0E3CE8091E800877F8093E800AA
:102AD000809113098093F10082CE8111D7CE10919D
:102AE0001609123008F0D2CE8091E800877F8093DB
:102AF000E800109313090E94AD06112311F084E041
:102B000005C08091E30087FDFACF81E08093120930
:102B100042E061EC81E00E94CC0642E261EC84E09C
:102B20000E94CC0642E261EC82E00E94CC0642E2C6
:102B300060EC83E00E94CC0680911209843031F071
:102B400081E0809311090E94E508A0CE82E0F9CFD0
:102B500080911609813009F099CE81E0933009F017
:102B600080E0809310091092E9008091E800877F4F
:102B70008093E8000E94AD0689CEEFEBF8E0128E5C
:102B8000138E8FEA90E09183808385E0848F28E81C
:102B900033E13383228322E330E0378B268B28EC2A
:102BA00030E0318F208F158E178E168E20E530E0A5
:102BB00031A320A382A30E94AA0F0E94DE121092CA
:102BC000F1071092F007E1EFF7E0808184608083E5
:102BD0008091F0079091F1070E9431100E94710ED0
:102BE0000895A4E1B0E0E7EFF5E10C943D36C09024
:102BF0001101D090120181E090E090931201809336
:102C000011018FECA82E89E0B82E00E0750110E0CC
:102C100015C0F40125913491472D612F802F0E941A
:102C2000F20F82E0880E911C73949CE07912F1CF30
:102C3000E8E1EE0EF11C1F5F183019F04701712C0E
:102C4000E8CF0F5FF0ECAF0EB11C0330F9F60E9435
:102C5000BD15CE0101967C018AE0F70111928A959B
:102C6000E9F70EE812E04AE050E0B801C7010E941F
:102C7000DD36065F1F4F0E3DF2E01F07A1F78E0104
:102C8000055F1F4F8AE0F80111928A95E9F78FEFEF
:102C90009FEF988B8F8787E08C8B4AE050E06EED3A
:102CA00072E0C8010E94DD364AE050E068EE72E052
:102CB000C8010E94DD364AE050E062EF72E0C801D0
:102CC0000E94DD364AE050E06CEF72E0C8010E94DD
:102CD000DD36D0921201C09211016496EDE00C94A1
:102CE000593680E00E94181060E089E290E00E946E
:102CF000B93660E088E290E00E94B93660E087E291
:102D000090E00E94B93660E086E290E00E94B93619
:102D10000E94F1150E94E20F81E00E9418100895B0
:102D2000CF92DF92EF92FF928FEF9FEF44305105E9
:102D300008F46AC0FB01C080D180E280F3800E9469
:102D4000DE128091F007C0FA80F9B701A6017695EE
:102D500067955795479540FB81F9B701A60122E099
:102D600076956795579547952A95D1F740FB82F957
:102D7000B701A60133E076956795579547953A9543
:102D8000D1F740FB83F9B701A601E4E0769567959A
:102D900057954795EA95D1F740FB84F9B701A6010D
:102DA000F5E07695679557954795FA95D1F740FBED
:102DB00085F9B701A601A6E07695679557954795E1
:102DC000AA95D1F740FB86F9B701A601B7E0769541
:102DD000679557954795BA95D1F740FB87F980934A
:102DE000F0078091F107D0FA80F9D1FACC24C0F82D
:102DF000C0FA81F98093F1078091F0079091F10773
:102E00000E94311090E080E0FF90EF90DF90CF9033
:102E100008950E94DE122FEF84E39CE02150804051
:102E20009040E1F700C0000080911C09811102C0B0
:102E30005A9A08955A9808950E94091788E19AE0CD
:102E40000FB6F894A895809360000FBE9093600031
:102E5000FFCF882341F080959091260989238093A4
:102E600026090E94E0110895882339F090912609DF
:102E7000982B909326090E94E0110895882321F051
:102E80000E94D10B0E94E0110895882339F090919F
:102E9000F207982B9093F2070E94E011089588237F
:102EA00039F19CEF980F913A28F40E94F90B0E9497
:102EB000E011089590E2980F983050F4877091E0F7
:102EC00001C0990F8A95EAF7892F0E94D10BEFCFA5
:102ED0009BE5980F933028F490E080E00E9445082D
:102EE0000895885A873120F490E080E00E942F08EE
:102EF0000895FF920F931F93CF93DF93F82E0091C5
:102F0000F4081091F5080115110509F449C0109253
:102F1000F3081092F2081092EF081092F008D8010E
:102F20001696CD91DC919E013A9521153F4108F40A
:102F3000D07ED1E0C11101C0D0E0D8011996ED9149
:102F4000FC911A97309731F01B966D917C9180E03F
:102F50000995D823DD2339F08CEF8C0F813A30F5B9
:102F60008C2F0E94F90BFF2099F0E091F408F0916A
:102F7000F508808584FD0CC08091F108882341F01C
:102F8000808191819C0121503109203B3D45A0F079
:102F90000E94E0111092F5081092F4081092F108C6
:102FA000C801CDB7DEB7E5E00C9461360E94E011B0
:102FB0008C2F0E944F17D7CF0E946808E9CFCF937C
:102FC000DF93EC010E944F17CE010E94CC0C9E01B2
:102FD000205E31092830310510F0CD2B29F40E94F4
:102FE0003E17DF91CF9108950E942917FACFCF9312
:102FF000C82F8823A9F08CEF8C0F813A98F4E6E66D
:10300000F1E08CE691E02191C217B9F18E179F078C
:10301000D1F76C2F84E691E00E9415080E94E01120
:10302000CF91089580E28C0F883068F4C77021E05A
:1030300030E001C0220FCA95EAF78091F207822B97
:103040008093F207EBCFEBE5EC0FE33040F4F0E0D8
:10305000EF5DFE4F808190E00E944508E1CFC85AA5
:10306000C731F0F6EC2FF0E0EE0FFF1FEC5DFE4FE6
:10307000808191810E942F08D3CF8C2F0E94F90B61
:103080000E94E011C6CF1F93CF93DF93182FC091FA
:10309000DF08D091E008893321F0C091DD08D0919C
:1030A000DE08812F0E94F717209739F4812F0E94A4
:1030B0004F17DF91CF911F9108958FE99FE00197FE
:1030C000F1F700C000002197EFCF0F931F93CF932C
:1030D000DF93C62FD42F022FFC0182818823A9F011
:1030E000609329090E94E807909328098093270993
:1030F000C77081E001C0880FCA95EAF70E944517A2
:10310000DF91CF911F910F91089580912909681344
:1031100032C080912709909128090E94CD07883CF0
:10312000910548F510E21D0FCD17B9F080E28C0F24
:10313000883040F4C77081E001C0880FCA95EAF773
:103140000E943E17183048F481E09D2F977001C00F
:10315000880F9A95EAF70E944517802F0E9443181E
:10316000183070F6D77081E001C0880FDA95EAF761
:103170000E943E17C5CFC77081E001C0880FCA9575
:10318000EAF7F6CFB0E0A0E0E8ECF8E10C944336C3
:10319000E82FF0E0E85DF74FD490282F269526958C
:1031A000269530E0F901E85EF74F0491877010E052
:1031B000082E02C0159507950A94E2F701701127B1
:1031C000F901E85FF74FE490F12C082E02C0F59466
:1031D000E7940A94E2F791E0E922FF24F901E8502C
:1031E000F84FC491D0E002C0D595C7958A95E2F713
:1031F000C170DD270115110519F081EE0E94F71746
:10320000E114F10419F086EE0E94F7178D2D0E944B
:103210004318E114F10419F086EE0E944F170115CE
:10322000110519F081EE0E944F17CD2B19F08CE299
:103230000E944318CDB7DEB7E7E00C945F36FF92EB
:103240000F931F93CF93DF938C018AE0F82EF80140
:103250008491882309F44BC0813009F044C0E8010F
:103260002196FE018491813049F42196FE018491DA
:103270000E9443188E010F5F1F4FE9CF823039F44F
:10328000E8012296FE0184910E94F717F3CF833064
:1032900039F4E8012296FE0184910E944F17EACF8B
:1032A000843041F7E8012296FE01249190E080E00D
:1032B000FE0131962053330B2A30310548F0019737
:1032C000C8F2EFE9FFE03197F1F700C00000F7CF57
:1032D000F89EA001F99E500D1124C901840F951F7D
:1032E0002491EF01E5CF0E94C218E801C3CFCDB70A
:1032F000DEB7E5E00C9461361F93CF93DF93EC01CA
:103300001AE08881882309F43EC08130C9F599818B
:103310008A81913029F422960E9443182196F1CF98
:10332000923021F422960E94F717F8CF933021F4BF
:1033300022960E944F17F2CF943011F02196EECFD3
:10334000229630E020E0AE014F5F5F4F8053990B33
:103350008A30910550F02150310900F38FE99FE048
:103360000197F1F700C00000F6CF129FB001139F44
:10337000700D11249C01260F371F8981EA01E3CFCC
:103380000E94C218CBCFDF91CF911F910895CF93A8
:10339000DF93EC010E94CC0C9E01205E31092830A5
:1033A000310510F0209741F40E9445178C2F0E94A0
:1033B000F717DF91CF9108950E943417F7CF662356
:1033C00029F0209126092260209326099C0130567D
:1033D000211540E2340720F0305E2115304108F419
:1033E00099270E94C7190895B0E0A0E0EAEFF9E13B
:1033F0000C9443367C018B01D42E8091150182FF01
:103400008CC0C0911508D0911608CE15DF0521F0AB
:10341000E114F10409F081C0809115018B7F809344
:10342000150181FD73C08091130890911408A801C3
:10343000481B590B81E02091130130911401421770
:10344000530708F480E08170F82E80911501F0FA9E
:1034500081F980931501FE0183E0F695E7958A9541
:10346000E1F7EE71FF27ED50F84F20813181AE0179
:103470004F70552781E090E002C0880F991F4A9550
:10348000E2F7FF2009F444C0822B932B91838083C1
:103490008091F20781FF08C08091150180618093BF
:1034A000150182E00E94D10B8091F20785FF08C0D0
:1034B0008091150180628093150180E20E94D10BFA
:1034C0006F2DCE010E94DF19DD2031F08091DA08E6
:1034D00085FF02C086FF3BC08091DD089091DE0829
:1034E0000E94680D80911508909116089C01305635
:1034F000211540E2340720F0305E2115304108F4F8
:1035000099270E94DF170E9437121DC081E09BCFD0
:103510008095909582239323B9CFC701992797016E
:103520003056211540E2340728F0305E2115304135
:1035300008F0C7010E94DF178091150890911608C6
:103540008E159F0501F31093140800931308CDB74F
:10355000DEB7E7E00C945F36AB01BC0188E190E098
:103560000E94CB360895CF93DF93C1E2D9E08881E2
:10357000816088830E94D9088881897F8883E2E2FC
:10358000F9E080818770A3E2B9E09C919C7F9C93D5
:10359000806A8B7F808384E1809317016091210989
:1035A0007091220980912309909124090E94AC1AFC
:1035B000DF91CF910895E1E2F9E080818E7F8083F1
:1035C0000E94D908609121097091220980912309F4
:1035D000909124090E94AC1A0895E1E2F9E08081FB
:1035E000816080830E94D90860912109709122092D
:1035F00080912309909124090E94AC1A089568EEE5
:103600007EEF90E080E00E94D73660E082E090E0BC
:103610000E94B93660E083E090E00E94B9361092D3
:10362000F10560E084E090E00E94B93664E082E257
:1036300090E00E94B93660E085E090E00E94B936E3
:1036400060E086E090E00E94B9366FEF87E090E09E
:103650000E94B93640E050E0BA0188E090E00E9454
:10366000CB3660E08DE090E00E94B93640E050E05B
:10367000BA0188E190E00E94CB3660E087E190E0FB
:103680000E94B93640E050E0BA018CE190E00E941F
:10369000CB3670E060E080E290E00E94D7360E9476
:1036A000B31A80E00E9418100E94711640E050E0AA
:1036B000BA018FE090E00E94CB3640E050E0BA01C2
:1036C00083E190E00E94CB360895A7E0B0E0EBE6FE
:1036D000FBE10C9438367C01DC0113964D915C9132
:1036E000149711966C9111978C910E941F0981116A
:1036F00066C061E0C7010E945F0F8C0180916E057A
:10370000F7019281811188C091110AC00430FDE552
:103710001F0709F458C0A8F403303DE5130789F1E9
:10372000D70112968C91882309F401C1F801E65E55
:10373000FC45ED30F10508F0FAC0EF5FF84C0C9451
:103740002B3606304DE5140709F44AC007305DE515
:10375000150731F7A0900001B0900101D090250924
:103760000E94DE1280E00E94671204E615E0A016B7
:10377000B10609F445C0C8010E94651B0850110933
:10378000F6CF0E94DE1280E00E9467128CE691E084
:1037900090936D0580936C0581E080936E05809118
:1037A000E505877061F0D70112968C91882339F076
:1037B0008091F10782FF03C082E00E948512279664
:1037C000E2E10C9454360E94DE1280E00E946712FF
:1037D00084E695E090936D0580936C0582E0DDCFE3
:1037E000A0900201B0900301D09025090E94DE1242
:1037F00080E00E9467120CE611E0A016B10631F4D9
:103800000E94DE128D2D0E946712C9CFC8010E944E
:10381000651B085F1F4FF1CF980123503D452330B2
:103820003105C0F521E005306DE5160709F420E00B
:10383000291709F4B4CF813029F08230B9F0109201
:103840006E05ADCF80916C0590916D0571E08C3661
:10385000970729F0FC0138972281211105C0909328
:10386000030180930201EBCFCF01F0CF80916C0573
:1038700090916D05A5E084369A0729F0FC013896F1
:103880002281211105C09093010180930001D7CFBF
:10389000CF01F0CF813021F1823009F041CF20916A
:1038A000020130910301A0916C05B0916D05911159
:1038B00005C0F5E0A436BF0709F432CFCD01089664
:1038C0002817390709F42CCF88E0F70101900D92F1
:1038D0008A95E1F780916C0590916D05089720C05D
:1038E0002091000130910101A0916C05B0916D050E
:1038F000911105C0E1E0AC36BE0709F411CFCD014E
:1039000008972817390709F40BCF88E0F7010190D1
:103910000D928A95E1F780916C0590916D0508965E
:1039200090936D0580936C05FBCE0E94ED1A8091FB
:10393000210980FF14C090911109923081F486957D
:103940008370F7019281992309F43FC1823038F4E2
:10395000B701C8010E94E90881110E94F407D7014C
:1039600012968C91882311F40C942B26C801825155
:103970009F45409710F00C9416268FEF93E00E941D
:10398000A53681110CCF7EEED72ED00E06E013E0C7
:10399000D1101FC119821A821B821C8299249A9409
:1039A0006801EFEFCE1ADE0AC8010E94A5368983AE
:1039B0001A82882309F4F3CE813009F074C15801CA
:1039C000F2E0AF0EB11CC6010E94A536C82E8A8354
:1039D000882309F4E4CEC5010E94A536D82E8FEFC6
:1039E0008C0D833008F003C1580123E0A20EB11CF6
:1039F000DB82DD2021F0CE0101960E947C19850139
:103A0000CFCF0E94DB1A93CF8091210980FF0DC098
:103A10000E94DB1A6091210970912209809123098B
:103A2000909124090E94AC1A82CF0E94ED1AF2CF25
:103A30000E94B31A7CCF90912109892F86958F5FC0
:103A40008370880F997F892B80932109982F967016
:103A5000963001F7897F80932109DCCF909122096C
:103A6000892F8B7F92FF846080932209D3CF20918E
:103A70002109322F36953695369590912209892F56
:103A800083708295880F807E832B8F5F382F330F52
:103A9000330F330F2770232B2093210982958695AE
:103AA00083709C7F892BE0CF20912109322F36959E
:103AB0003695369590912209892F83708295880FCB
:103AC000807E832B8150E2CF80912209982F96959A
:103AD000969596958091230983708295880F807EB4
:103AE000892B8436D8F490E0019680931701382F03
:103AF000330F330F330F209122092770232B20938C
:103B00002209E5E096958795EA95E1F78370909113
:103B100023099C7F892B809323097CCF84E090E04C
:103B2000E4CF80912209982F96959695969580914D
:103B3000230983708295880F807E892B853018F049
:103B40008150990BD2CF84E690E0CFCF80912309AA
:103B500082FF02C08B7FDFCF8460DDCF809123099D
:103B6000982F969596959695809124098295880F21
:103B7000807E892B8837A8F4865F282F220F220F9A
:103B8000220F909123099770922B9093230982958D
:103B90008695877090912409987F892B80932409BA
:103BA00039CF88E7EACF80912309982F969596958B
:103BB0009695809124098295880F807E892B843187
:103BC00010F08A50DACF84E1D8CF882309F4C7CE29
:103BD000BFCE0115B4E01B0709F4E1CDC8010E9476
:103BE000A536811101C0DA940F5F1F4FD1CE8BEF44
:103BF0008C0D833080F5C8010396DB825C01DD20EB
:103C000009F4FDCE580134E0A30EB11C0E94A53684
:103C10008C83882309F4F3CE0B811C8101304FEF94
:103C2000140710F0102F002756E0C51681F067E04A
:103C3000C61649F0C8010E94842C8091DD0890913D
:103C4000DE080E94680DC8010E945F2CD8CEC80112
:103C50000E94842CD4CE74E0C712D1CE580184E0E7
:103C6000A80EB11CC80103960E94A536DD2009F4F8
:103C700096CD882309F493CD8150990B989E90019D
:103C8000999E300D1124AD2DA150BB0BCD01820F9B
:103C9000931F019708F4B3CEEFE9FFE03197F1F7F6
:103CA00000C00000F6CFCE0101960E947C1956019B
:103CB000A6CE81E00E94B6120E946C1270CD81E007
:103CC0000E947812F9CF82E0F5CF83E393E00E945F
:103CD0001F19D70112965C90552009F497C00F3533
:103CE000BDE51B0709F48EC00036EDE51E0751F057
:103CF0000E35FDE51F0709F089C080910401882376
:103D000009F480C01092040180E00E94791747CD29
:103D100083E293E0DCCF83E193E0D9CF88E093E0C6
:103D2000D6CF80E093E0D3CF88EF92E0D0CF8AEE79
:103D300092E0CDCF8EED92E0CACF82ED92E0C7CF78
:103D400087EC92E0C4CF87EB92E00E941F1987EACC
:103D500092E0BDCF89E992E0BACF8BE892E0B7CF8D
:103D600081E892E00E941F1989E792E0B0CF86E7D0
:103D700092E0ADCF8CE692E0AACF8AE692E0A7CFA0
:103D800088E692E0A4CF84E692E0A1CF8AE592E0B3
:103D90009ECF81E592E09BCF82E492E098CF81E3D1
:103DA00092E095CF80E292E092CF85E192E08FCFD2
:103DB00082E092E08CCF81EF91E089CF8EED91E0AF
:103DC00086CF8DEC91E083CF8EEB91E080CF82EBBC
:103DD00091E07DCF81EA91E07ACF88E991E077CFD9
:103DE0008CE891E074CF8EE791E071CF8EE691E0A0
:103DF0006ECF8DE591E06BCF8EE491E068CF80E4EB
:103E000091E065CF81E080930401C9CC80910401E9
:103E1000882309F485C6480120EE821A9108409053
:103E2000F00580917205482A8091F207482A38E00F
:103E30008316910408F086C098012770332781E02B
:103E400090E001C0880F2A95EAF7552009F477C061
:103E5000482AD7018D919C910E94300C21E030E0DE
:103E6000190102C0220C331C8A95E2F7E091F40894
:103E7000F091F508FF83EE8360906F0570907005F8
:103E80001D822D81E22FF0E0EE0FFF1FEA55F84F63
:103E9000C080D180C114D10409F4B3C6411005C05B
:103EA000D60112968C91811189C0F601838190E030
:103EB00082219321892B09F481C08085982F9770E6
:103EC00009F487E0F8E08F16910408F055C05520FA
:103ED00009F44EC086958170882309F46FC0D6011D
:103EE000AD90BC900A151B0519F4552009F466C065
:103EF000EE81FF81CE16DF0609F460C0D6011D9663
:103F0000ED91FC91309721F08081882309F456C00F
:103F1000642DC6010E94B908882309F44FC00A1510
:103F20001B0509F0D7C60115110509F4D8C65110B3
:103F3000D8C6A614B70409F041C0512CD2C680954A
:103F4000482287CF552009F445C610937005009389
:103F50006F050E94DC076093EB087093EC08809378
:103F6000ED089093EE081092F3081092F20871CFCA
:103F700082FB882780F9B0CF552001F18170ACCF4A
:103F80000E944F17CDC60497813A910558F46A2DC7
:103F900084E691E00E941508552009F4C1C50E94ED
:103FA000E011FDCB0E94E0118FE39CE90197F1F74E
:103FB00000C000008A2D0E94F717EECF9D819F5F01
:103FC0009D835FCFFC01208131810217130709F027
:103FD000A0C55110A0C51092F10880E024C68091C0
:103FE0001501816080931501C8C5809115018E7FF0
:103FF000809315010E943712C0C5809115018F7EF4
:10400000013E110531F0053E1105C9F480911501FD
:104010008F7D809315018091150180FFBDC5D7016B
:1040200012968C910832110528F50E31110508F011
:1040300074C00430110580F58111AAC5ADC5C80151
:104040009056811560E2960720F0905E81159041B0
:1040500010F78091150182FF9FC58091DC0881FDDA
:104060009BC52AE337E040E0B60190E080E00E9483
:10407000F41992C50933110558F40D32110518F4DD
:104080000B321105C9F69091DA0892FDD5CF08C020
:1040900004361105C1F3D0CF9091DA0894FDCCCF4E
:1040A000882309F49DC09091F2078091F005282F94
:1040B000292B322F3D7FB1F110921608109215086E
:1040C0003091DA0831FD2EC0F80143E0F695E7950E
:1040D0004A95E1F7EE71FF27ED50F84F98012F70E8
:1040E000332781E090E002C0880F991F2A95E2F7FC
:1040F00080959095208131818223932391838083C1
:1041000060E0C8010E94DF198091F0058D7F0E9458
:10411000BD0B82E00E94851242CB9091DA0893FD9C
:104120008BCFBECF38E0F701AAE3B7E001900D9244
:104130003A95E1F710923C0710923E0710923D0726
:10414000A0901508B09016080A151B0591F530913E
:10415000DA0835FF2EC04091150141FB992490F8F3
:1041600041FF02C036FF25C040911308509114084A
:10417000F601E41BF50BE83CF105D8F491FF08C00B
:104180008091150180618093150182E00E94D10B1E
:104190008091F20785FF08C08091150180628093AD
:1041A000150180E20E94D10B692DC5010E94DF1923
:1041B000F6CA9091150121FB91F9909315018D7F1D
:1041C0000E94BD0B1093160800931508D092140896
:1041D000C09213088091150184608093150199CFD6
:1041E000970140E0B601C8010E94F419D8CA053F02
:1041F0006CE5160709F460C008F45AC027E245EEE2
:1042000066EE063F8CE5180709F4DFC4D701129665
:104210003C91332309F42BC5109229090330BDE5E5
:104220001B0708F050C00A3FECE51E0730F4C80138
:1042300082509C45449708F052C00E94860F90938C
:10424000F1078093F00702315CE5150709F48DC191
:1042500008F0DDC009307CE5170709F464C108F0F7
:10426000A7C005309CE5190709F451C108F08EC0BC
:104270000330BCE51B0709F442C108F044C180913A
:10428000F00781600230FCE51F0709F4BDC0809192
:10429000F0079091F1070E9431100E94DE127FCA50
:1042A00027E245EE65EE91C426E241EE60EE8DC454
:1042B00027E245EE64EE89C426E241EE62EE85C453
:1042C00028E241E0EFCF053AFDE51F0709F4B5CF3D
:1042D00008F055C001364DE5140709F4AECF06319C
:1042E0005CE5150709F4C8C40A359DE5190709F40A
:1042F0008CC108F06EC10115BCE51B0709F474C13F
:104300000E3D1C4509F474C1F70186819781009721
:1043100009F47FC10E94310A182F092FF701C280CA
:10432000D580D2943FE0D3228091E5058770C1F01B
:10433000AC2CCC20B1F0892F807F803421F080E23A
:10434000810F883068F08091F10782FF09C082E018
:104350000E9485128091E5058770AA24A39481119B
:10436000A12C902E92942FE09222FBE0F91508F4F4
:10437000E4C1E92DF0E0E25FF84C0C942B36C80163
:104380008D5A9D45039708F0AACF57CF8091F0072B
:10439000806207302CE51207B9F18091F007806147
:1043A00008303CE5130780F18091F00780642CC051
:1043B0000D304CE5140709F4C0C090F48091F0076B
:1043C0008E7F0B306CE51607F9F08091F0078C605A
:1043D0000C307CE51707C0F08091F0078D7F14C08A
:1043E0000F308CE5180709F4B8C008F4AAC00031F2
:1043F000ACE51A0709F4B5C08091F0078F7B013155
:10440000BCE51B0709F043CF8093F00740CF0F3F77
:10441000ECE51E0709F4B3C0A8F50A3F2CE5120726
:1044200009F479C0C0F404314CE5140709F4B5C0AF
:1044300008F4A1C005316CE5160709F028CF80917A
:10444000F00782FB992790F921E0922790FB82F9EF
:1044500090FB83F9D9CF0C3F7CE5170709F475C0B1
:1044600008F45DC00D3F9CE5190709F472C0809106
:10447000F10783600E3FACE51A0709F008CF80937F
:10448000F10705CF0136BDE51B0709F491C090F493
:104490000130FDE51F0709F489C008F474C060E02D
:1044A00002303DE5130709F0F2CE8EE090E00E9465
:1044B000B936EDCE0D3A4DE51407E9F060F4909170
:1044C000F007892F8E7F90FF8160053A6DE5160712
:1044D00009F49ACFDCCE0E3A7DE5170751F10F3A79
:1044E0008DE5180709F0D3CE9091F107892F877FCA
:1044F00093FF8860C4CF8091F1078860C0CF80911E
:10450000F007826081CF8091F00784607DCF809139
:10451000F007886079CF8091F1078160B0CF8091FA
:10452000F1078260ACCF0E94DE128091F0078068B4
:104530006BCF8091F107877FA2CF8091F0078B7FAF
:1045400063CF8091F007877F5FCF8091F1078E7FE7
:1045500096CF8091F1078D7F92CF8091F0078F7E6B
:1045600053CF8091F0078F7D4FCF0E94DE12809154
:10457000F0078F7749CF8091F007837F45CF8091F7
:10458000F1078C7F7CCF8091F107982F90959170E7
:104590008E7F892B90FB81F972CF0E94DE12909161
:1045A000F007892F97FB87F980582ECF61E07DCFE8
:1045B0009091F007892F8F7E94FF806125CF8091A5
:1045C0007105811104C089E20E94F90BE8CC85E3F2
:1045D000FBCF0C35FDE51F0771F0C8F0073A1D450C
:1045E00009F092CE0E941C170E9409170E94BC0776
:1045F0000E94FF1AF7CF8091F10782FB882780F98C
:1046000091E089270E94A1127FCE81E0FBCF80E05C
:10461000F9CF828100811181882369F0C8010E944D
:10462000E30ED82E682FC8010E94640CB8018D2DAE
:104630000E94C60E6FCEC8010E94300CD82EF6CF55
:10464000202F2F70B22E802F807F19F0B29490EF20
:10465000B922CC20B9F0BB2069F080E2810F88300C
:1046600010F0111109C08091F207B82AB092F20738
:104670000E94E011812F5FC080912609B82AB09274
:104680002609F6CF812F0E944F17BB2009F455C091
:1046900080E2810F883010F0111104C08B2D0E9430
:1046A000D10B06C0B09480912609B822B092260999
:1046B0000E94E01142C0302F3F70B32E802F807FC8
:1046C000803219F0B29480EFB822112321F1113019
:1046D00009F4B2C0CC2009F4BBC0DD2009F483C0CA
:1046E00020E0D7014C9111965C91119712966C9134
:1046F000129713967C91139714968C910E943C0FFD
:104700008091DC0881FDB6CFF701858180FFB2CFB3
:104710008F70858368C08091F10782FD44C0CC20F2
:10472000E1F1BB2039F08091F207B82AB092F2078C
:104730000E94E01180E00E94F717692D6850770B06
:104740006430710520F40E945B080E94B60C812F32
:10475000902F0E949B0C8111B6C11092740510928B
:104760007305AA20A9F08091E50580FD11C0F7012D
:1047700012828595859585950E94B612C7010E9483
:10478000651B8091E5058595859585950E94781234
:1047900060E0C7010E945F0F12C880E00E944F17BF
:1047A000BB2059F27BCFCC2011F1D11004C08091F5
:1047B000F0058B2919C041E0D41206C08091F005A4
:1047C0008B290E94BD0BB9CF8091DB08823078F332
:1047D000D812EDCF0E94B20B909172058B2D892BD0
:1047E0008913809372058B2D0E944517A6CFD11097
:1047F00003C00E94B20B17C08091DB0851E0D512B4
:1048000016C0823008F499CF8091F2078B2109F409
:1048100094CF0E94B20B909172058B2D80958923C5
:104820008913809372058B2D0E943E1786CF8230AC
:1048300000F3D812DECF81CF8091E108CC2021F0A7
:104840008D1508F47ACFCFCFD81608F076CFEBCFFE
:10485000DD2049F38091DF089091E008193321F0C1
:104860008091DD089091DE080E94680D812F0E94E2
:104870004F1763CF802F86958695837069F08130BE
:1048800009F05BCF812F902F9370C11002C090E090
:1048900080E00E942F0851CF812F902F9370C1107C
:1048A00002C090E080E00E94450847CF802F8370CF
:1048B00091F5C11042CF412F429546954770440F64
:1048C000440F812F8F70042E01C0880F0A94EAF7DD
:1048D000212F207114FF07C02FE030E001C0220F0C
:1048E0004A95EAF72095302F369536953370323059
:1048F00069F050F44091F105313029F0822B842386
:104900000E94D9121ACF842B822BFACF282B8091A8
:10491000F1058227F5CF8695CC2011F0802F81708C
:10492000882309F40ACF412F429546954770440FDA
:10493000440F812F8F70042E01C0880F0A94EAF76C
:10494000212F207114FF07C02FE030E001C0220F9B
:104950004A95EAF72095302F3695369533703230E8
:1049600069F050F440912509313029F0822B8423DD
:104970000E946712E2CE842B822BFACF282B8091E3
:1049800025098227F5CFF02FFF70BF2ECC2029F00C
:104990008F2F0E94B612812F27CF812F0E943E17A2
:1049A0008B2D0E947812C9CE123F89F160F4103F1E
:1049B000B9F0113F81F0CC2009F480C0D1105ACE5B
:1049C000802F8F7128C0133F49F1143FA1F78091C8
:1049D000F10782FD2FC0802F8F71CC2011F31BC0F7
:1049E0008091E108CC2079F0D81608F0A6CE202FCF
:1049F0002F7181E090E001C0880F2A95EAF790912D
:104A000025098927B5CF8D1508F497CEF0CF802FD3
:104A10008F71C110C6CF0E94B6128FCE80E0CC201D
:104A200009F4A6CF81E0902F9F7101C0880F9A955D
:104A3000EAF79ECF8091DB08823040F1CC20D1F0A4
:104A40009091E5059770943041F40E94D80B802F27
:104A50008F710E947812A12C70CED816E0F7202F0B
:104A60002F71B22E822F0E94B61263E08B2D0E940E
:104A7000C212F1CFD81630F00E94D80B64E0802F1C
:104A80008F71F5CF81E00E948512E5CFCC2059F0DF
:104A9000302F3F71B32E832F0E94B61263E08B2D0F
:104AA0000E94C2124ACE81E00E94851241E04D155B
:104AB00008F043CE82E00E9485123FCED110CACECC
:104AC000802F8F716ECFCC2019F0D11046CE49CEF9
:104AD000D11043CE20E0D7014C9111965C911197F3
:104AE00012966C91129713967C91139714968C9151
:104AF0000E943C0F8091DC0883FF2FCE80917305CC
:104B000090917405029709F028CE812F0E944318D6
:104B100024CE552029F0DC0118968C9185FF5DCAC2
:104B20008091DA0880FF38C00E94E8076C01F70125
:104B30008281882309F461CA8091150182FF08C02F
:104B40002AE337E040E0B60190E080E00E94F419EB
:104B50000B31FCE51F0709F442CA0C312CE51207A2
:104B600009F443CA90911501892F8E7F90FF8160CF
:104B70000A313CE5130709F43BCAC8019056811578
:104B800040E2940728F0905E8115904108F043CAF6
:104B90001092160810921508033FFCE51F0709F450
:104BA00083CB08F024CB083D3CE5130709F478CB10
:104BB000093D4CE5140709F483CB073D5CE5150777
:104BC00009F024CB26E241EE61EEC7010E94651890
:104BD0000C94CF1B80916F059091700508171907F1
:104BE00081F41092700510926F051092EB081092EC
:104BF000EC081092ED081092EE081092F308109253
:104C0000F2088091F4089091F508009709F488CF94
:104C1000A8E08A16910408F0D5C9642D0E94B9084D
:104C200081117ECF81E00E9479177ACF0031BFE5F4
:104C30001B0709F43EC80131EFE51E0709F443C81C
:104C4000F801E058FF45E732F10508F042C8E65E9A
:104C5000F84C0C942B360031FFE51F0709F42FC8E0
:104C600001312FE5120709F034C882E029C8063166
:104C70004CE5140709F048CB8091F207982F9A7AF7
:104C80002091D90820FF04C0482F447409F090E017
:104C900021FF04C0482F417109F090E022FF04C0B9
:104CA000482F487809F090E023FF03C0827209F092
:104CB00090E0332309F483CC81E0911101C080E0BE
:104CC0008093710569E2911165E384E691E00E94A9
:104CD000150865C9A114B10409F02BC9512CB12CD8
:104CE000A12C80E00E947917D092F508C092F408B8
:104CF00081E08093F108D60115968C918093EF089E
:104D000051100EC0AB2861F0F601808191819C01A9
:104D100024503109213A310508F032C90E94F90BBB
:104D2000D6011696AD90BC90C5019A9581159F410C
:104D300010F4E0EEBE2277247394C5010197803B06
:104D40009D4508F0712CD6011996ED91FC911A97AA
:104D5000309731F01B966D917C9181E00995782216
:104D6000772079F0F601868197810E94CC0C8093A0
:104D7000F008C501F8E08F16910408F004C90E94FC
:104D800068080E94E01108C9EF92FF920F931F93E9
:104D9000CF93DF9380919E05807F09F04CC0809176
:104DA0009B05882309F447C0C091E205E090A10566
:104DB000D0919905F0909A0500919C0510919D0560
:104DC000EC16C9F1A8016F2D8D2F0E941F092C2F01
:104DD00030E0811135C0F90183E0EE0FFF1F8A95A5
:104DE000E1F7DF01AE55BA4F11968C9111978F11F3
:104DF00027C08C918D1324C012968C91129781112B
:104E00001FC013968D919C91801B910B883C91053E
:104E1000B8F480919E058F70806180939E05E9555E
:104E2000FA4F80818F708061808389E995E00E94CC
:104E3000651B0E94260CCDB7DEB7E6E00C94603609
:104E40002F5F3F4FC22FC770BBCFA5E1B0E0EBE2B1
:104E5000F7E20C943A368C0185E0F801DE015196B8
:104E600001900D928A95E1F7D8016C9011967C9093
:104E700011971296EC9012971396CD90DC9060E00B
:104E800089E995E00E945F0F89E9A82E85E0B82E98
:104E90005090990540909A0580909C0590909D05B2
:104EA000A401642D852D0E941F0981115CC1F09021
:104EB0009B05960128193909FF2009F417C1809133
:104EC0009E05982F907F283C310508F0D2C0F8014C
:104ED0002181911181C0FE2C24111FC09081951158
:104EE0001CC040919F055091A00526813781421733
:104EF000530799F4E11011C08F70806180939E0573
:104F0000C5010E94651B80919E05D80115968C9362
:104F10008F2D6596E0E10C945636A601672D862DFF
:104F20000E941F09D82E81E08E25D11080E080FFDD
:104F300018C04E2D672D862D0E94060C882389F0FF
:104F40008091DC0880FF0DC089E995E00E94651B17
:104F500088E0E9E9F5E0DF011D928A95E9F7F12C97
:104F6000D7CF81E08E25D11080E0B82FB170DB2E35
:104F700080FF29C04E2D672D862D0E94060CC82E5D
:104F8000811121C0698A7A8A89899A890E94120FBF
:104F9000292F22952F70223050F0243078F49F7002
:104FA00051F0F8019581907F31F4FC2CB1CF9F70C6
:104FB00011F08823D1F3805E8830B8F3C8010E94D5
:104FC000651BCD2CF2CFEE2009F4A2CF80919E0577
:104FD000816080939E05C3CF24111BC090819511E1
:104FE00018C040919F055091A00526813781421736
:104FF000530779F4E1100DC08583C8010E94651B39
:1050000088E0F801A9E9B5E001900D928A95E1F7F1
:105010007FCFC8010E941F0F882339F1EE2029F1AC
:1050200080919E058032A0F02091990530919A05DB
:105030003A8729871B86DD86CC868E8780919F05DF
:105040009091A005988B8F87CE0109960E94651BD1
:1050500088E0F801A9E9B5E001900D928A95E1F7A1
:105060000E94C426FF24F39453CFC8010E94651BFD
:10507000F9CF992309F468CFF8019181941118C0F0
:105080009081951115C040919F055091A0052681F2
:1050900037814217530761F4E1100AC08583C801C4
:1050A0000E94651B88E0D5011D928A95E9F730CFF3
:1050B000C8010E941F0F8823C1F2EE20B1F2809137
:1050C0009E05803228F22091990530919A053A8305
:1050D00029831B82DD82CC828E8380919F059091F3
:1050E000A00598878F83CE010196B0CF283C31056B
:1050F000C8F6FE2CEE2009F4B8CFF80181818411A6
:1051000024C08081851121C020919F053091A00588
:105110008681978128173907C1F48091DC0882FDC8
:105120006FCF90919E0590FD6BCF907F09F468CF73
:1051300080919E058583903F09F45FCF982F907FE3
:10514000905F8F70892B858358CFC8010E941F0FF5
:1051500081117ECF80919E05816080939E05C8015C
:105160000E94651BD5CEEE2009F47FCFC8010E94B6
:105170001F0FF82E882309F478CF88E0F801A9E9F9
:10518000B5E001900D928A95E1F780919905909193
:105190009A050E94120F0E94C426BACEA0E1B0E088
:1051A000E4EDF8E20C94483629873A874B875C8710
:1051B0006D877E878F87988BCE0109960E94252761
:1051C00081112FC088E0FE013996DE011196019011
:1051D0000D928A95E1F74C855D856A8589850E94E7
:1051E0001F0981111EC0A091A105B0E0CD0101965B
:1051F000877099272091E20528171906E1F093E0BE
:10520000AA0FBB1F9A95E1F7AE55BA4F98E0FE0181
:10521000319601900D929A95E1F78093A1050E9435
:10522000260C8091E2059091A105891312C0609629
:10523000E2E00C9464360E94DE121092A1051092F6
:10524000E20588E0E9E9F5E0DF011D928A95E9F7DA
:10525000E8CFB8E08B9FC00111248E559A4F0E9471
:105260002527882321F38091E20590E0019687703D
:1052700099278093E205D5CFEF92FF920F931F936A
:10528000CF93DF9380911A08882361F0C0911908A9
:105290008CE0F82E80911A08C81748F010921A086E
:1052A00010921908CDB7DEB7E6E00C946036EE2414
:1052B000E394EC0EE09219080C2F10E0CF9DE00172
:1052C0001124C55ED74F4B815C81698188810E9422
:1052D0001F0981111DC08E819F81892B21F4888532
:1052E0009985019651F4288139814A815B816C81CD
:1052F0007D818E819F810E94CE28F09EF001F19EDB
:10530000F00D1124E55EF74F1482138210922609E6
:10531000CE2DC0CF1092BE081092BD08109216017B
:105320008091BC088093BB080E9458090E943C29C8
:105330000895B0E0A0E0EFE9F9E20C943936C091AD
:10534000BB0897E0892E01E010E02CE0322E3EEF02
:10535000932E442443948091BC088C1309C00E946E
:105360003C290E945809CDB7DEB7E1E10C945536CF
:10537000D0E0FE01EE0FFF1FED54F74F80819181C9
:10538000889ED001899EB00D1124A558B74F149660
:105390002C911497211158C050901A08EBE1F8E0B5
:1053A00030E020E0712C5D01251508F04BC0E2844F
:1053B000F384D501CD90DC906FEF7FEF612C462D0B
:1053C00050E0DA01AA0FBB1FAC0DBD1D0D90BC91C2
:1053D000A02D109731F0EA16FB0609F4BA01639488
:1053E000EECF6F3F7607A9F1D80102C0AA0FBB1F0D
:1053F0006A95E2F77A2AB801062C02C0660F771F79
:105400000A94E2F7AB014150510974161506F9F4FC
:10541000329EF001339EF00D1124E55EF74F889E19
:10542000D001899EB00D1124A558B74F12962D9129
:105430003C9113973783268390829182918780874E
:1054400015964C920E942A092196C37084CF14822B
:1054500013822F5F3F4F3C96A7CFA9E1B0E0E3E373
:10546000FAE20C943836942F498B252F5A8B6B8B8C
:105470007C8B8D8B4C895D89622F892F0E941F093F
:10548000811109C0809173059091740501969093E4
:105490007405809373058B898111109226091D86EE
:1054A0001E861F86188A85E0FE017196DE01199618
:1054B00001900D928A95E1F78091F10782FF1EC05D
:1054C0008091C1089091C208892BC1F00E94E80721
:1054D0002091E3053091E405821B930B2091C108D4
:1054E0003091C2088217930720F08091E50582FF72
:1054F000E2C10E94DF0B81110E94B20B4C855D85D9
:105500006A8589850E941F09811111C061E0CE0161
:1055100009960E945F0F6C018B8527EFC2162CE560
:10552000D20681F4882321F181E080931601298538
:105530003A854B855C856D857E858F8598890E942F
:10554000CE28C6C038EFC3163CE5D30629F488231D
:1055500079F00E948A29EBCF49EFC4164CE5D406B6
:1055600039F4882329F0809116018111F2CFDCCF24
:105570000BE718E0512CB12CA12C22242394312CC0
:105580002EEF422EF8014081518188248A94982C74
:1055900020E0822F90E0FC01EE0FFF1FE40FF51FCB
:1055A000608171816115710531F0C616D70609F465
:1055B0004C012F5FEECFF12CFFEF8F169F0609F401
:1055C00049C0F8014481F09016018F2D411180E00F
:1055D000F82FF170FF2EF801E58086819B859923D5
:1055E00009F4F8C0FF2009F4F5C06090D508709068
:1055F000D608E11013C0A101082C01C0440F0A9481
:10560000EAF7842B868380911708909118088615F5
:10561000970520F47092180860921708C10102C023
:10562000880F991F2A95E2F70197F801268128171C
:10563000190681F48091BD089091BE08009709F485
:105640004BC00E94CD076816790608F045C021E0DE
:10565000F80124835F28FFEFAF1ABF0A095F1F4FCD
:1056600028E0A216B10409F08DCF8B85882309F4B8
:105670000DC1552009F40AC10E94E8079093BE08A5
:105680008093BD0880911A08883010F591E0980F3A
:1056900090931A0898E0FE013996DE011196019068
:1056A0000D929A95E1F73CE0839FC0011124855E3D
:1056B000974F28E0FE013196DC0101900D922A956A
:1056C000E1F72FEF3FEFFC0131872087D386C286B9
:1056D0006996E2E10C9454368091BB085091BC0865
:1056E000982FF0E0E0E0851314C09093BB08E0171A
:1056F000F10709F4AFCF90E0FC01EE0FFF1FED546E
:10570000F74FB182A0820196837099278093BC08DD
:10571000A1CF682E712CF301EE0FFF1FED54F74F50
:105720002081318147E0429FD001439FB00D112479
:10573000A558B74F6D917C911197798F688F40E094
:1057400020E030E0E32FF0E0EE0FFF1F688D798D51
:10575000E60FF71F8080918081149104E1F0F80139
:105760000190F081E02DFF8BEE8B20E005C08616C6
:10577000970609F44F2D2F5FE22FF0E0EE0FFF1F89
:105780006E897F89E60FF71F608171816115710550
:1057900071F73F5FD7CF4423D1F0F801231708F00A
:1057A000FD0121E024830E171F0721F49093BB080D
:1057B000F42E50CF981305C0AE17BF0711F49F5FAA
:1057C000937093012F5F3F4F822F83708CCFF0E057
:1057D000E0E0F7CF90E0E11020C0B10102C0660F19
:1057E000771F2A95E2F79B01215031098217930711
:1057F00031F4442309F448C0C5010E942A09C101BB
:10580000082C01C0880F0A94EAF7982F9095F801A8
:10581000868189238683FE2C1DCF9C01082C02C023
:10582000359527950A94E2F7A90141705527BC01E7
:105830006150710986239723892B11F5452B01F1BE
:10584000F80182819381892BC1F01B821C821D8209
:105850001E8249824A820E94E8078160582F9D83F8
:105860008C83F801828193818F83988729813A8183
:105870004B816D817E810E94CE28F8011582BFCFB9
:10588000F22FF170EF2EBBCFEF2CB9CF9091BB0868
:105890008091BC08981731F00E949929552009F48D
:1058A00046CE16CF0E943C291092BE081092BD0829
:1058B0000E945809F3CF82E00E9485121ACEA5E01B
:1058C000B0E0E5E6FCE20C9448369093ED07809357
:1058D000EC07811520E2920730F40E94DF1725962D
:1058E000E2E00C94643680EF89838A831B820E94F5
:1058F000E8078160782F9D838C8349815A816B8171
:105900008D810E942D2AEBCFA5E0B0E0EAE8FCE211
:105910000C9448369093ED078093EC07811520E2B4
:10592000920730F40E94C7192596E2E00C94643681
:1059300080EF89838A8381E08B830E94E8078160FE
:10594000782F9D838C8349815A816B818D810E9440
:105950002D2AEACF90E080E00E94B336883E9E4F29
:1059600019F40E946D0F089580E008951F920F9220
:105970000FB60F9211242F933F934F935F936F9322
:105980007F938F939F93AF93BF93CF93DF93EF93C7
:10599000FF93D091E900DF708091EC00C82FC170B7
:1059A00080FDC0E81092E9008091F000877F80932D
:1059B000F00078940E94EA121092E9008091F000C1
:1059C00088608093F000CD2BCF70C093E900FF91E9
:1059D000EF91DF91CF91BF91AF919F918F917F9187
:1059E0006F915F914F913F912F910F900FBE0F904C
:1059F0001F9018951F920F920FB60F9211242F939C
:105A00003F934F935F936F937F938F939F93AF9346
:105A1000BF93EF93FF938091E10082FF09C08091D3
:105A2000E20082FF05C08091E1008B7F8093E1005E
:105A30008091DA0080FF24C08091D80080FF20C0D0
:105A40008091DA008E7F8093DA008091D90080FF08
:105A5000AEC080E189BD82E189BD09B400FEFDCF01
:105A600081E08093120980910409811109C00E948C
:105A700033060E94FE068091E20084608093E2007B
:105A80008091E10080FF1CC08091E20080FF18C07F
:105A90008091E2008E7F8093E2008091E20080613D
:105AA0008093E2008091D80080628093D80019BC76
:105AB00085E08093120983E0809311090E94E50834
:105AC0008091E10084FF32C08091E20084FF2EC00B
:105AD00080E189BD82E189BD99B5892F817090FFF0
