:100000000C947D060C94C4060C94C4060C94C4068F
:100010000C94C4060C94C4060C94C4060C94C40638
:100020000C94C4060C94C4060C94FE280C94BA28B4
:100030000C9482320C94C4060C94C4060C94C4062E
:100040000C94C4060C94C4060C94C4060C94C40608
:100050000C94C4060C945E320C94C4060C94C40632
:100060000C94C4060C94C4060C94C4060C94C406E8
:100070000C94C4060C94C4060C94C4060C94C406D8
:100080000C94C4060C94C4060C94C4060C94C406C8
:100090000C94C4060C94C4060C94C4060C94C406B8
:1000A0000C94C4060C94C4060C94C4060631FF09D3
:1000B00074A1010975150026FF00952075088102BD
:1000C0000976150026FF00952075089102C00501EC
:1000D0000902A10185020901A100050919012905EB
:1000E00015002501950575018102950175038101B2
:1000F0000501093009311581257F950275088106B2
:1001000009381581257F950175088106050C0A3887
:10011000021581257F950175088106C0C00501097A
:1001200080A101850319012AB700150126B70095A2
:100130000175108100C0050C0901A1018504190198
:100140002AA002150126A002950175108100C005A4
:10015000010906A1018505050719E029E715002514
:10016000019508750181020507190029EF15002581
:100170000195F0750181020508190129059505759C
:10018000019102950175039101C00660FF0961A10B
:10019000010962150026FF00952075088102096398
:1001A000150026FF00952075089102C0050109067B
:1001B000A101050719E029E715002501950875013A
:1001C00081029501750881010507190029FF1500B5
:1001D00026FF009506750881000508190129059577
:1001E0000575019102950175039101C000000000A1
:1001F00000000000000000000000000000000000FF
:100200007E0F00D4FFFFFFC7000000780000000051
:10021000000000002A2B2800000000000000000061
:100220000000000000000029000000002C1E342007
:10023000212224342627252E362D3738271E1F202D
:100240002122232425263333362E37381F04050672
:100250000708090A0B0C0D0E0F10111213141516B6
:100260001718191A1B1C1D2F3130232D35040506B4
:100270000708090A0B0C0D0E0F1011121314151696
:100280001718191A1B1C1D2F3130354C30782530AA
:1002900034580A0043616C2062696E2025752C2059
:1002A0005468726573686F6C643D25752041737383
:1002B00069676E6D656E74733A0A0043616C204124
:1002C0006C6C205A65726F203D2025752C2043618F
:1002D0006C20416C6C204F6E6573203D2025750AA3
:1002E0000043616C6962726174696F6E20746F6F34
:1002F0006B3A202575206D730A006861707469631C
:100300005F636F6E6669672E656E61626C65203D26
:100310002025750A006861707469635F636F6E669B
:1003200069672E656E61626C65203D2025750A0047
:100330006861707469635F636F6E6669672E6D6F65
:100340006465203D2025750A006861707469635FEB
:10035000636F6E6669672E666565646261636B20B4
:100360003D2025750A006861707469635F636F6E74
:100370006669672E6D6F6465203D2025750A0068EB
:1003800061707469635F636F6E6669672E616D701B
:100390006C6974756465203D2025750A006861707C
:1003A0007469635F636F6E6669672E6477656C6CF2
:1003B000203D2025750A0064796E616D6963206DAA
:1003C0006163726F3A20736C6F7420256420706CC7
:1003D00061796261636B0A0064796E616D696320A3
:1003E0006D6163726F3A20736C6F742025642073A3
:1003F000617665642C206C656E6774683A202564AC
:100400000A0064796E616D6963206D6163726F3A91
:10041000207472696D6D696E672061207472616904
:100420006C696E67206B65792D646F776E206576D9
:10043000656E740D0A006861707469635F636F6E46
:100440006669672E666565646261636B203D202581
:10045000750A006861707469635F636F6E666967CF
:100460002E62757A7A203D2025750A004B4C3A2081
:100470006B633A203078253034582C20636F6C3A07
:100480002025752C20726F773A2025752C207072EC
:1004900065737365643A202531752C2074696D6528
:1004A0003A2025752C20696E746572727570743AE5
:1004B000202531752C20636F756E743A2025750ADE
:1004C000003A706570655F6B696E675F726F796126
:1004D0006C3A010128003A736D696C65795F73703D
:1004E00069745F7375727072697365643A0101288B
:1004F000003A736D696C65795F7469705F666564F5
:100500006F72613A010128003A736D696C65795F19
:1005100074616B656D6F6E65793A010128003A640C
:10052000726F6F6C696E675F666163653A0101287F
:10053000003A68656172743A010128003A736D6986
:100540006C65795F6361745F66616E63793A01011E
:1005500028003A736D696C65795F6361745F7370CD
:10056000616E6973683A010128003A73757270729E
:10057000697365643A010128003A6F6F663A0101B8
:1005800028003A746869733A010128000102E07694
:100590000103E0000102E0630103E0000102E078F2
:1005A0000103E0000102E07A0103E0000102E066DD
:1005B0000103E0000102E0640103E0000102E073D6
:1005C0000103E0000102E0610103E00001015300CA
:1005D000290028000102E201012B0103E200303072
:1005E000000102E0770103E0000102E201013D01A8
:1005F00003E2000102E00102E2740103E20103E010
:10060000000102E00102E2670103E20103E00001F0
:1006100002E00102E20101290103E20103E000011D
:1006200002E00102E50101290103E50103E0000107
:10063000013B0102E0760103E00001013B0102E021
:1006400061780103E00001013B0102E06163010305
:10065000E0000102E30102E1730103E10103E300B1
:100660000102E3650103E3000102E3640103E30027
:100670000102E301012B740103E3000102E3010223
:10068000E00101500103E00103E3000102E3010284
:10069000E001014F0103E00103E30054455354001E
:1006A00044454255473A2064697361626C65642E23
:1006B0000A0044454255473A20656E61626C6564A4
:1006C0002E0A006164645F6B65795F6269743A2029
:1006D00063616E2774206164643A20253032580AC1
:1006E0000064656C5F6B65795F6269743A20636171
:1006F0006E27742064656C3A20253032580A000A4F
:10070000002530325820006B6579626F6172645F3A
:100710007265706F72743A2000290A002575002FE7
:10072000002575005D280025640020002564002058
:100730000025640020002564007C0025303258002C
:100740006D6F7573656B6579205B62746E7C782064
:1007500079207620685D287265702F61636C293A74
:10076000205B0020444F4E450A006461635F696E60
:10077000697428290020444F4E450A007368696651
:10078000745F696E69742829006861707469635FB9
:10079000636F6E6669672E6D6F6465203D2025640A
:1007A0000A006861707469635F636F6E6669672EC3
:1007B000656E61626C65203D2025640A0068617089
:1007C0007469635F636F6E666967206570726F6DD1
:1007D0000A00536F6C656E6F696420647269766598
:1007E0007220696E697469616C697A65640A000ACD
:1007F000002530313662003A200025303258000A98
:10080000722F632030313233343536373839414234
:10081000434445460A000A0025303258006B65798A
:10082000626F6172645F7365745F6C65643A200027
:100830005B735D004B6579626F61726420737461F4
:1008400072742E0A005B435D005B445D005B535D88
:10085000005B575D005B525D0009027B00040100F4
:10086000A0FA09040000010301010009211101009F
:10087000012240000705810308000A090401000263
:100880000300000009211101000122220007058256
:1008900003200001070503032000010904020001F1
:1008A0000300000009211101000122BC000705849A
:1008B0000320000A090403000203000000092111BB
:1008C000010001222200070585032000010705051C
:1008D0000320000112011001000000088104020041
:1008E0000100010203010403300000001E0349005F
:1008F00042004D0020004D006F00640065006C0058
:100900002000460020004100540000006E03540007
:100910006F006D00200057006F006E0067002D0013
:1009200043006F0072006E0061006C006C002F00CD
:1009300050007500720064006500610020004100F5
:100940006E0064007200650069002F006B006D008E
:100950006E006F00760032003000310037002F004B
:100960006C006900730074006F0066006F00700017
:10097000740069006F006E00730000000403090436
:1009800064796E616D6963206D6163726F20726559
:10099000636F7264696E673A207374617274656420
:1009A0000D0A0064796E616D6963206D6163726F19
:1009B0003A20736C6F74202564206C656E677468D0
:1009C0003A2025642F25640A0064796E616D69639D
:1009D000206D6163726F3A2069676E6F72696E672E
:1009E0002061206C656164696E67206B65792D7587
:1009F00070206576656E740D0A000000000000002E
:100A000000000000000000000000000000000000E6
:100A1000000000000000540056000000000000002C
:100A200000000000000000000000000000000000C6
:100A300000002A0000001A5D5500125D35001E00FE
:100A40001F00200022002300250026002D002E007C
:100A50000100000000004A004B0029002B00140098
:100A60001A00210015001C002400270013002F008D
:100A70003100000049004E005400065D075D39005A
:100A80000400080017000A001800120033000100DB
:100A9000300000004C004D0067000E5D0D5D0251FE
:100AA0001600070009000B000D000C000F003400B9
:100AB000280000000000520001000F5D115DE10000
:100AC0001D001B001900050010000E003800E50095
:100AD000E500000001004F002A000A5D095DE0000A
:100AE000E20006002C0011002A003600370000004A
:100AF000E30000005000510058000000000000001A
:100B000000000000000000000000000000000000E5
:100B100000000000000001000100000000000000D3
:100B200000000000000000000000000000000000C5
:100B300000000100000001000100010001000100AF
:100B4000010001000100010001000100010001009D
:100B50000100000000002500260001000100010046
:100B6000010001000100010001000100010001007D
:100B70000100000024002300010001000100010029
:100B8000010001000100010001000100010001005D
:100B9000010000002100220001000100010001000D
:100BA000010001000100010001000100010001003D
:100BB0000100000000001F002000010001000100F2
:100BC000010001000100010001000100010001001D
:100BD000010000001E00630001000100010001008F
:100BE00001000100010001000100010001000000FE
:100BF000010000002700165D010000000000000059
:100C000000000000000000000000000000000000E4
:100C100000000000000001000100000000000000D2
:100C200000000000000000000000000000000000C4
:100C300000004C00000001000100015CE85C3A008B
:100C40003B003C003E003F004100420044004500A4
:100C500001000000000001000100005C0100235DB4
:100C6000245D3D00265D285D400043002C5D0100B1
:100C700001000000010001000100035D045DE000CF
:100C80001B5D255D275D0100295D2B5DAA0001002C
:100C9000010000000100010001000100010001004D
:100CA0001C5D1D5D1E5D010001002A5D0100A900A3
:100CB0000100000000000B5DAB000100010001001D
:100CC0001F5D205D225D010001000100AE000100FA
:100CD00001000000AC00095D010001000100E3001B
:100CE0000100215D010001000100AC00AB0000002B
:100CF000010000000A5D0C5D010011241FBECFEF52
:100D0000DAE0DEBFCDBF04B603FE27C08091470600
:100D100090914806A0914906B0914A068730904BC1
:100D2000A740B04BD1F4109247061092480610929B
:100D3000490610924A0614BE84B7877F84BF0FB657
:100D4000F894A8958091600088618093600010926B
:100D500060000FBEE0E0F8E3099511E0A0E0B1E02B
:100D6000E4E4F7E602C005900D92AA38B107D9F77E
:100D700026E0AAE8B1E001C01D92A734B207E1F76E
:100D80000E94442A0C9448330C940000FF93EF9384
:100D9000E0918A01F0918B01309709F00995EF916C
:100DA000FF910895FC018591803011F0EFDFFBCFBA
:100DB0000895FF27E0E230E247FF0CC0419597FF1E
:100DC00009C0EDE26095709580959095611D711D4B
:100DD000811D911D27FF02C0219530E350E2AA2713
:100DE000660F771F881F991FAA1FA41710F0A41B56
:100DF00063955A95A9F7AA3008F0A95FA05DAF9353
:100E0000F395611571058105910541F7ED3211F4F6
:100E1000EF93F395F21718F43F93F395FBCF8F916F
:100E2000B5DFFA95E1F70895E991F9918591803060
:100E300021F0853219F0AADFF9CF089520E0E89477
:100E400055915532C1F3503311F4689455915A338A
:100E500048F4505390F3220F022E220F220F200D40
:100E6000250FF4CF0EF4219589919991533619F3FA
:100E7000533729F1533559F1BC0188279927E89454
:100E80005C3621F48991999168945591543639F4DE
:100E900046EF7EF077FF0DC08FEF9FEF0AC055370A
:100EA0004AE039F0583540E121F0523642E009F08D
:100EB0000895FF93EF937DDFEF91FF91B7CFFF93FD
:100EC000EF93FC0181918030B9F360DFFBCFFF939A
:100ED000EF9368DFF1CFDF93CF93CDB7DEB72596E1
:100EE000A3DFCF91DF910895E8EDF0E080818E7F60
:100EF00080831092E2001092DA001092E100A0EEDE
:100F0000B0E08C9181608C9380818F77808319BC55
:100F1000A7EDB0E08C918E7F8C9380818F7E808353
:100F20001092140608952091E4003091E50095E6B2
:100F3000A9012091EC00822F817020FF06C08091D2
:100F4000E80080FF06C080E008952091E80022FDBF
:100F50001AC080913A06882389F0853089F0809103
:100F6000EB0085FD0FC02091E4003091E5004217B1
:100F70005307F9F29150E1F684E0089582E0089574
:100F800083E0089581E00895EF92FF920F931F93FD
:100F9000CF937C018B010E949307C82F811117C04A
:100FA0008091E80085FD0BC08091E8008E778093EA
:100FB000E8000E949307882399F3C82F08C0F7011F
:100FC00081917F018093F1000150110949F78C2F25
:100FD000CF911F910F91FF90EF90089580913C0663
:100FE00087FF13C08091E80082FF06C08091E8006F
:100FF0008B778093E80004C080913A068111F2CF8C
:10100000089580913A068823D9F38091E80080FF03
:10101000F8CF8091E8008E77ECCF982F9093E9007D
:10102000242F762F50E0891731F07091EC00209139
:10103000ED005091F00021FD07C09F5F973071F7E0
:101040008093E90081E008953091EB003E7F30937A
:10105000EB003091ED003D7F3093ED003091EB00DF
:1010600031603093EB007093EC002093ED005093CF
:10107000F0002091EE0027FDE0CF80E00895CF92B0
:10108000DF92EF92FF920F931F93CF93DF93C8ED00
:10109000D0E088818F7E8883E7EDF0E080818160F9
:1010A000808384E082BF81E08093140688818E7FF4
:1010B000888302EE10E0F80110821092DA0081EECF
:1010C000C82ED12CF601108288818F778883888181
:1010D0008068888388818F7D888319BC10923A0646
:1010E00010923B06109238061092370690EEE92EC9
:1010F000F12CF70180818B7F8083888181608883D8
:1011000042E060E080E00E940D08F60180818E7F61
:101110008083F80180818160808380818860808302
:10112000F70180818E7F8083888180618883DF9151
:10113000CF911F910F91FF90EF90DF90CF90089586
:10114000FC01809142069091430686179707A0F014
:101150006115710529F49091E8009E779093E8005D
:1011600090E06115710551F4911108C08091E8007B
:1011700082FF34C080E00895BC01F2CF80913A062E
:101180008823C1F18530C1F18091E80083FD30C032
:101190008091E80082FDEACF8091E80080FFE1CFF6
:1011A0008091F3002091F200382F6115710519F03C
:1011B0002830310558F091E02830310509F090E0F1
:1011C0002091E8002E772093E800CBCF8191809387
:1011D000F100615071092F5F3F4FE7CF80913A06D0
:1011E000882341F0853041F08091E80083FFBECF35
:1011F00081E0089582E0089583E0089580913A06A1
:10120000843011F482E0089581E0089580911606FB
:1012100008959091A305803F41F48091A40587FD36
:101220001092A405992371F00895813F29F48091CB
:10123000A4051816ACF3F6CF823F81F497FFF2CFE6
:101240001092A3058091A4059091A505892B9091FA
:10125000A605892B49F710929E050895833F19F43E
:10126000191674F3DFCF893F39F48091A50518165C
:10127000CCF61092A505D6CF8A3F29F48091A5051A
:1012800087FFD0CFF6CF8B3F39F48091A60587FF3B
:10129000C9CF1092A605C6CF8C3F29F48091A60530
:1012A0001816BCF3BFCF843F31F48091A2058E7F26
:1012B0008093A205B7CF853F21F48091A2058D7F51
:1012C000F7CF863F21F48091A2058B7FF1CF873F36
:1012D00021F48091A205877FEBCF883F21F4809194
:1012E000A2058F7EE5CF8D3F31F4809168058E7F1A
:1012F0008093680597CF8E3F21F4809168058D7F9C
:10130000F7CF8F3F09F08ECF809168058B7FF0CFAC
:101310008091680580FD16C081FD16C082FD16C053
:1013200080919E058823A1F0883280F428E0829F76
:10133000C001112468E270E00E94C932862F672B39
:1013400039F0089582E0089584E0089588E00895D2
:1013500081E008958091680580FD14C081FD14C06E
:1013600082FD16C080919E05882381F0843180F42F
:1013700022E3829FC001112464E170E00E94C9321F
:10138000862F08958CE0089589E1089585E00895F9
:1013900082E30895803F31F40E94AA0981958093E9
:1013A000A4050895813F19F40E94AA09F8CF823F4D
:1013B00031F40E94AA0981958093A3050895833F83
:1013C00019F40E94AA09F8CF893F29F40E948809DC
:1013D0008093A50508958A3F21F40E94880981958C
:1013E000F7CF8B3F31F40E94880981958093A60541
:1013F00008958C3F19F40E948809F8CF843F31F496
:101400008091A20581608093A2050895853F21F413
:101410008091A2058260F7CF863F21F48091A205DA
:101420008460F1CF873F21F48091A2058860EBCFE3
:10143000883F21F48091A2058061E5CF8D3F31F492
:101440008091680581608093680508958E3F21F43E
:10145000809168058260F7CF8F3FB9F7809168056A
:101460008460F1CF87E797E79093010880930008A5
:1014700088E19AE00FB6F894A895809360000FBEBB
:1014800090936000FFCF9C014FB7F8948091640562
:1014900090916505A0916605B09167054FBF821BCD
:1014A000930B08952FB7F89480916405909165058A
:1014B000A0916605B09167052FBF0895829590E0D1
:1014C0009C01220F331F220F331F2C7C959587958B
:1014D000959587958373282B30E0C901880F991F54
:1014E0008A7A359527952575822B089580915F0519
:1014F000811110925F0508959295907F890F982F22
:10150000977086958695869525E0829FF001112437
:10151000E95FFA4F50E040E080E0219130E0092E91
:1015200002C0369527950A94E2F721703327042EDE
:1015300001C0220F0A94EAF7822B4F5F5F4F4530BC
:10154000510559F708959295907F890F982F9770BC
:1015500041E001C0440F9A95EAF7869586958695F5
:1015600095E0899FF0011124E95FFA4F30E020E017
:1015700070E05191DF011197CB01022E02C09695C8
:1015800087950A94E2F781708195852784238527C2
:101590008C932F5F3F4F2530310559F70895809187
:1015A00006059091D504981301C008958F5F877048
:1015B000FACF2091C8013091C9012817390771F07D
:1015C0009093C9018093C801E0918705F091880547
:1015D000309721F00084F185E02D09940895209141
:1015E000C6013091C7012817390771F09093C701E0
:1015F0008093C601E0918705F0918805309721F02E
:101600000680F781E02D09940895E0918705F09117
:101610008805309721F00190F081E02D099480E059
:1016200008958091710582FD04C09091C3019111CC
:1016300012C082FF04C08091C20181110CC081E000
:101640008093C3018093C2010E94520A9093C1010A
:101650008093C0015A9A0895811522E5920780F47B
:101660008115E1E59E07E8F4803E910538F0883E5B
:101670009105B8F090548115904170F081E019C047
:10168000811528E59207D0F38115E9E59E0758F00A
:1016900090568115904290F7FB019581907F81E0F3
:1016A00041F480E00895FB019581907F81E09035C1
:1016B000C1F708958091700580FF06C080913906BA
:1016C000813011F45B9A08955B9808950E945A0B3B
:1016D000539A08959091850592FF06C0282F28718E
:1016E0002830F9F4877F846093FF06C0282F287183
:1016F0002831F1F4877E84612091860520FF06C0A1
:10170000382F38713830D9F4877F816021FF06C0C7
:10171000282F28712831D1F4877E816194FD877E3E
:101720000895282F24712430F9F68B7F8860DCCF50
:10173000282F2471243101F78B7E8861DDCF382F6B
:101740003171313019F78E7F8860E0CF282F2171F9
:10175000213121F78E7E8861E1CFCF93DF9328E09E
:10176000829FC0011124FC01E70FF11DA4E0EE0FE0
:10177000FF1FAA95E1F7E60FF11DEE0FFF1FE650E0
:10178000F64FC591D491CE01C238D105B9F1E8F533
:10179000C133D10509F499C050F5C932D10509F416
:1017A0008DC0CA32D10509F497C0C11531E5D30700
:1017B00008F0BFC0C11520E5D20708F016C1C83E29
:1017C000D10508F09DC0C03ED10568F5C83AD105E5
:1017D00008F089C0C53AD10508F0FFC0C130D10575
:1017E00011F1209709F443C02497E8F440C0C533B1
:1017F000D10509F45CC0C933D105B9F6209185053E
:10180000237089F080EE90E00EC0C33ED10591F1C7
:1018100068F4C03ED105F9F0C23ED10531F6209101
:10182000850522FD20C0DF91CF910895C63ED105E8
:1018300061F1C73ED10581F1C43ED10509F0B5CFB4
:101840002091860521FFEFCF8091850584FD0FC093
:1018500087EE90E0E8CF2091850520FD12C1309100
:10186000860530FFE0CF83EE90E024FFDCCF90E0F0
:1018700080E0D9CF2091850522FD06C130918605F3
:1018800030FDC0CF24FFCFCFF2CF2091850523FFBD
:10189000CACF24FDECCFDCCF2091850523FDF7C016
:1018A0003091860531FFEECF84EE90E0BCCF2091E1
:1018B000850525FFB8CF89E290E0B5CF2091850559
:1018C00025FFB1CF85E390E0AECF2091850526FFBF
:1018D000AACF8AE290E0A7CF2091850526FFA3CF6B
:1018E00081E390E0A0CFCF3BD10508F6C85AD0E005
:1018F000CC0FDD1FCB5BDE4F88819981946493CF41
:10190000C11530E2D30760F4C11521E0D20708F019
:101910008ACFCE019065C03FD10508F084CFA7CF14
:10192000C11530E4D30708F4A2CFCE019F70906AAE
:101930007ACFC11585E5D80710F5C11524E5D20782
:1019400008F088C0C11533E5D30708F06FC0C11592
:1019500082E5D80708F465C09E012370332781E033
:1019600090E002C0880F991F2A95E2F7C695C695A8
:1019700020E2C29FE00111248C2B9D2B50C0C11589
:1019800029E5D207A0F4C11538E5D30708F067C0F0
:10199000C11586E5D80708F06ACF8C2F0E946A0B24
:1019A00090E0982F882788279F7190623CCFC115BF
:1019B0002AE5D20708F458C0CE019056811590420E
:1019C00008F055CF8D2F8F710E946A0B90E0982FF1
:1019D000882788279F718C2BE8CFC55AD0E0CE5B33
:1019E000DE4F888190E090641ECF9E01E4E0369542
:1019F0002795EA95E1F723708C2F8695869583705D
:101A000030E2839FC0011124922BC37021E030E0AB
:101A100002C0220F331FCA95E2F7822B932B9C68DA
:101A200002CF9C2F8827816F906AFDCE9E01237084
:101A3000332781E090E002C0880F991F2A95E2F7D2
:101A4000C695C69530E2C39FE00111248C2B9D2BD7
:101A50009A68E9CE9C2F8827846F906AE4CE9C2FE9
:101A60008827806F906ADFCE8C2F8F700E946A0B60
:101A700034E0D695C7953A95E1F7CF709C2F9069E1
:101A8000D2CE89E390E0CFCE82EE90E0CCCE86EE4F
:101A900090E0C9CEBF92CF92DF92EF92FF920F9368
:101AA0001F93CF93DF938C01C0905705D0905805BA
:101AB000E0905905F0905A0580916005909161057C
:101AC000A0916205B0916305C82AD92AEA2AFB2AA7
:101AD000CFE1D0E0BC2ED701C6010C2E04C0B695D4
:101AE000A795979587950A94D2F780FD0EC0219708
:101AF00088F7B12C8B2DDF91CF911F910F91FF9023
:101B0000EF90DF90CF90BF900895B8018C2F0E9486
:101B1000AD0B019761F3EECFCF93DF93EC010E9401
:101B20004A0DBE01DF91CF910C94AD0B0E948C0D3C
:101B3000292F2F7092959F7092509E3078F4E92F44
:101B4000F0E0E65BFC4C0C94DD32803F19F020F4B1
:101B5000883E20F481E00895843FE1F380E0089519
:101B6000883EC0F3813FD1F7F5CF822F86958695C9
:101B70008695089581FB222720F982FB992790F909
:101B800080FF08C05F9A222339F0769A992331F0BA
:101B90002E9A08955F98F7CF7698F8CF2E980895EB
:101BA0001F93CF93DF9300D000D00F92CDB7DEB755
:101BB00049835A8389819A81662339F10E944A0DAB
:101BC000182F682F89819A810E94A30A28E0129F0A
:101BD000C0011124EA818E0F911D24E0880F991F06
:101BE0002A95E1F7E981E80FF92FF11DEE0FFF1FAC
:101BF000E650F64F859194910F900F900F900F90B3
:101C00000F90DF91CF911F9108950E947C0A182FA9
:101C1000DDCF2A9880E190E0299A29980197E1F791
:101C20008F9A8F98089586B159B143B12FB130E0A2
:101C3000952F9370642F6071962B82958470982BEA
:101C400056955870952B440F4074942BA901440F5E
:101C5000551F4072942B220F331F220F331F207801
:101C6000892F822B08950F931F93CF93DF93F90150
:101C7000A0914406B091450630914606317022810C
:101C800021110EC08A179B0759F4332309F46CC045
:101C900089EC99E0DF91CF911F910F910C94D206BE
:101CA00026E04202E00111248D010C1B1D0B601780
:101CB000710779F056E001900D925A95E1F7E091A5
:101CC0004406F0914506EC0FFD1FF0934506E093A6
:101CD0004406332309F448C0E42F042E000CFF0B04
:101CE000681B790B75956795ABEABAEA6A9F900114
:101CF0006B9F300D7A9F300D11242E9FB0012F9FC6
:101D0000700D3E9F700D11246F5F7F4F2091440630
:101D100030914506281B390B359527952A9FC00120
:101D20002B9F900D3A9F900D11248E9F90018F9FB5
:101D3000300D9E9F300D112482E0413009F481E086
:101D40007F936F933F932F931F928F9383EA99E032
:101D50009F938F930E946B078DB79EB708960FB61F
:101D6000F8949EBF0FBE8DBFDF91CF911F910F9151
:101D700008958091460683FF7EC080E497E00E942C
:101D8000D2068091A2051F928F938BE397E09F93D9
:101D90008F930E946B0789E397E00E94D20680919F
:101DA000A305282F082E000C330B3F938F9386E357
:101DB00097E09F938F930E946B0784E397E00E94C4
:101DC000D2068091A405282F082E000C330B3F93D8
:101DD0008F9381E397E09F938F930E946B078FE22D
:101DE00097E00E94D2068091A505282F082E000CAE
:101DF000330B3F938F938CE297E09F938F930E94D6
:101E00006B078AE297E00E94D2068091A605282FF0
:101E1000082E000C330B3F938F9387E297E09F933C
:101E20008F930E946B0784E297E00E94D206809114
:101E30009E051F928F9381E297E09F938F930E945C
:101E40006B078FE197E00E94D206809168051F9290
:101E50008F938CE197E09F938F930E946B0789E1AA
:101E600097E00E94D2068DB79EB74C960FB6F894B5
:101E70009EBF0FBE8DBFE0918705F091880530971A
:101E800049F082E08093A1050480F581E02D81EA8C
:101E900095E009950E94520A90939D0580939C05B8
:101EA0000895EF92FF920F931F93CF93DF9380914A
:101EB0005E0590915D05892B90915C05892B80933F
:101EC0008C0190915F059923B1F0892B80938C014F
:101ED00080911001882309F45DC08091850587FFFA
:101EE00059C08EE1EEE8F1E090E0815008F054C076
:101EF00091110E94760AE0918705F091880530974C
:101F000009F450C080911001882359F08091850513
:101F100087FF07C080918C0180938D0185E08093BD
:101F20008C010280F381E02D8CE891E0099580918D
:101F3000460682FF37C080FF04C087E097E00E941A
:101F4000D206CCE8D1E084E9E82E81E0F82E01E069
:101F500017E08091460680FF0BC088811F928F9307
:101F60001F930F930E946B070F900F900F900F908D
:101F70002196EC16FD0669F78091460680FF12C097
:101F80008FEF96E0DF91CF911F910F91FF90EF902F
:101F90000C94D20686E0A6CF2191222309F4A5CF86
:101FA0009F5FA3CFDF91CF911F910F91FF90EF9093
:101FB000089510925D0510925C050E94510F86E015
:101FC000E1EAF5E0DF011D928A95E9F710929E059E
:101FD000109268050E94B90E90E080E00E94EF0A1E
:101FE00090E080E00C94D90A6093570570935805EF
:101FF0008093590590935A050C94D90F0F931F9312
:1020000041E050E060E070E004C0440F551F661FDF
:10201000771F8A95D2F78091570590915805A09126
:102020005905B0915A058A019B01082719272A27CB
:102030003B27C901B8011F910F910C94F40F0F9326
:102040001F9341E050E060E070E004C0440F551F72
:10205000661F771F8A95D2F7CB01BA0160957095FC
:10206000809590950091570510915805209159053C
:1020700030915A0560237123822393231F910F917E
:102080000C94F40F90915B058095892380935B05F8
:10209000282F277071F4282F082E000C330B92176D
:1020A000130639F08595859585950E941F1010922D
:1020B0005B0508950F931F9341E050E060E070E0EE
:1020C00004C0440F551F661F771F8A95D2F7809171
:1020D000570590915805A0915905B0915A058A016C
:1020E0009B01082B192B2A2B3B2BC901B8011F91EF
:1020F0000F910C94F40F60936005709361058093C9
:102100006205909363050C94D90F882341F0809564
:1021100090915E05892380935E050C94510F08957C
:10212000882339F090915E05982B90935E050C946E
:10213000510F089590911001992359F190918505BF
:1021400097FF27C0E82FE695E695E695EE3180F4F7
:10215000F0E0E457FE4F282F277081E090E001C0A7
:10216000880F2A95EAF780959281892382830895C2
:102170009091460690FF19C01F928F9381EE96E0D2
:102180009F938F930E946B070F900F900F900F906B
:102190000895EEE8F1E09191891303C0DF011197F2
:1021A0001C9291E0E439F907B1F70895909110017C
:1021B000992349F19091850597FF25C0E82FE69571
:1021C000E695E695EE3170F4F0E0E457FE4F877047
:1021D00021E030E001C0220F8A95EAF78281822B4C
:1021E000828308959091460690FF1EC01F928F93A0
:1021F00083EC96E09F938F930E946B070F900F9054
:102200000F900F900895AEE8B1E0EFEF90E02D91C0
:10221000821751F0EF3F19F4211101C0E92F9F5FA0
:102220009630A9F7EF3F09F408950E2E000CFF0B2E
:10223000E457FE4FD5CF882309F459C0823871F492
:102240000E94050B81FF53C089E30E94D6100E94B3
:10225000510F89E30E949A100C94510F833859F45E
:102260000E94050B80FF43C083E50E94D6100E94A8
:10227000510F83E5EFCF843859F40E94050B82FF9C
:1022800036C087E40E94D6100E94510F87E4E2CF47
:102290009CEF980F913AF0F290E2980F983088F402
:1022A000877021E030E0A90102C0440F551F8A95D4
:1022B000E2F7CA01809590915E05892380935E05BF
:1022C000CBCF9BE5980F933020F490E080E00C9406
:1022D000EF0A98E5980F973120F490E080E00C9495
:1022E000D90A803F20F00E9409090C94B90E089584
:1022F0009F92AF92BF92CF92DF92EF92FF920F9395
:102300001F93CF93DF938C01EB01942E79016AEF39
:10231000460260011124809146068170C017D107E2
:1023200039F05E01AC0CBD1CF5019281911139C0F0
:10233000882341F1CE01801B910B959587952BEA5F
:102340003AEA829FA001839F500D929F500D112465
:10235000692D64039001659F300D112481E098166A
:1023600041F182E03F932F931F928F9388ED93E08A
:102370009F938F930E946B070F900F900F900F9079
:102380000F900F90F701D183C083DF91CF911F9100
:102390000F91FF90EF90DF90CF90BF90AF909F9004
:1023A0000895882321F082E094E00E94D206E5019E
:1023B000B2CF81E0D7CF9FB7F894109212069FBF9B
:1023C00090913A06943009F048C02091E9002F70AE
:1023D0003091EC00932F917030FD90E8922B25E026
:1023E0002093E9002091EB0020FF34C02091EE0003
:1023F00027FF30C020916905222321F02091E800B9
:1024000025FF28C01092690526E03091E80035FFCD
:1024100014C08093F1008091E80085FD27C0809171
:10242000E80080FFFCCF8091E8008E778093E80081
:102430009F709093E90080E0089530913A0634301F
:1024400049F43091EB0035FD05C0215041F481E0A5
:10245000809369059F709093E9008FEF0895EFE9ED
:10246000FFE03197F1F700C00000CFCF8FB7F894AD
:1024700021E0209312068FBFDBCFCF93DF9300D0F4
:102480000F92CDB7DEB790913A06943011F589835B
:102490007B836A839093E9008FEF9091E8008150ED
:1024A00095FD06C095ED9A95F1F700008111F5CFE5
:1024B0008091E80085FF0DC050E040E063E070E0EF
:1024C000CE0101960E94C4078091E8008E77809328
:1024D000E8000F900F900F90DF91CF910895CF9368
:1024E000DF93EC010E94FE08823011F0843031F459
:1024F000BE0184E0DF91CF910C943D12DF91CF912A
:102500000895BC0183E00C943D12CF93DF93EC015E
:102510000E94FE08823011F08430F9F484E0809348
:10252000E9008FEF9091E800815095FD06C095ED90
:102530009A95F1F700008111F5CF8091E80085FFB1
:102540000CC050E040E066E070E0CE010E94C4079D
:102550008091E8008E778093E800DF91CF91089515
:10256000CF93DF93EC010E94FE08823011F084309B
:10257000B9F5809110018823B1F18091850587FF1D
:1025800032C060E284E08093E9008FEF9091E80030
:10259000815095FD06C095ED9A95F1F700008111E7
:1025A000F5CF8091E80085FF1BC08091100170E09D
:1025B00050E040E0811104C050E040E068E070E08D
:1025C000CE010E94C4078091E8008E778093E800D6
:1025D00080E2FE01A7E1B6E001900D928A95E1F755
:1025E000DF91CF91089568E081E0CDCFCF93C82FE0
:1025F000882309F4AEC08238C1F40E94050B81FD26
:10260000A8C089E30E94D6100E94510F2FEF81EEDF
:1026100094E0215080409040E1F700C0000089E341
:102620000E949A10CF910C94510F8338A1F40E940C
:10263000050B80FD8EC083E50E94D6100E94510FCD
:102640002FEF81EE94E0215080409040E1F700C0F0
:10265000000083E5E5CF8438A1F40E94050B82FDDC
:1026600078C087E40E94D6100E94510F2FEF81EEB0
:1026700094E0215080409040E1F700C0000087E4E2
:10268000CFCF8CEF8C0F813A88F580911001882391
:1026900001F18091850587FF1CC0EC2FE695E6953A
:1026A000E695F0E0E457FE4F828190E04C2F4770B2
:1026B00021E030E002C0220F331F4A95E2F7822367
:1026C0009323892B79F08C2F0E949A100E94510F2E
:1026D00009C0EEE8F1E08191C817A9F321E0E439DF
:1026E000F207C9F78C2F0E94D6109CCF80E28C0F86
:1026F000883068F4C77021E030E001C0220FCA952D
:10270000EAF780915E05822B80935E058BCFEBE527
:10271000EC0FE33040F4F0E0EE5BFE4F808190E0A0
:10272000CF910C94EF0AE8E5EC0FE73150F4F0E0BC
:10273000EE0FFF1FEB5BFE4F80819181CF910C94D8
:10274000D90AC03F30F08C2F0E94CA09CF910C9457
:10275000B90ECF910895CF93C82F0E94F612C933B6
:1027600049F42FEF87EE93E0215080409040E1F74D
:1027700000C000008C2FCF910C941B110F931F935E
:10278000CF93DF93C62FD42F022FFC0182818823A1
:10279000A1F06093CB040E94520A9093C5018093EC
:1027A000C401C77081E001C0880FCA95EAF7DF91C4
:1027B000CF911F910F910C9490101091CB04161390
:1027C00035C08091C4019091C5010E94430A883CA4
:1027D000910560F5C0E2CD0F1D17B9F080E2810FC1
:1027E000883040F4177081E001C0880F1A95EAF72D
:1027F0000E948510C83048F481E09D2F977001C079
:10280000880F9A95EAF70E949010802F0E94AB13D0
:10281000C83098F4D77081E001C0880FDA95EAF7E4
:10282000DF91CF911F910F910C948510C77081E0BB
:1028300001C0880FCA95EAF7F3CFDF91CF911F91BE
:102840000F910895CF92DF92EF92FF920F931F9313
:10285000CF93DF93EC018AE0C82EFE018491882398
:1028600009F483C0813009F040C0319684918130F1
:1028700051F42296FE011491812F0E94F612812FAD
:102880000E941B1107C0823039F42296FE01849108
:102890000E94F6122196E1CF833021F42296FE01A8
:1028A0008491EECF843009F05EC02296FE0124911F
:1028B00090E080E0FE0131962053330B2A30310541
:1028C00048F0019738F3EFE9FFE03197F1F700C0E6
:1028D0000000F7CFC89EA001C99E500D1124C90168
:1028E000840F951F2491EF01E5CFE82FF0E0E45F1E
:1028F000FD4FD490082F06950695069510E0F80137
:10290000E450FE4FE4908770F12C082E02C0F5943D
:10291000E7940A94E2F721E0E222FF2404511E4FDB
:10292000F801049110E002C0159507958A95E2F729
:1029300001701127E114F10419F081EE0E94F612E2
:102940000115110519F086EE0E94F6128D2D0E94D8
:10295000AB13012B19F086EE0E941B1181EEEF28BC
:1029600009F498CF8DCFEF0195CFDF91CF911F91D3
:102970000F91FF90EF90DF90CF900895CF92DF926C
:10298000EF92FF920F931F93CF93DF9300D000D06D
:102990000F92CDB7DEB78A012FE030E090E08217CA
:1029A000930709F079C02A9A299A29982150310968
:1029B000B0F76F5F7F4FFE01319680E090E0F894B2
:1029C000D6B0E9B0F3B0CFB0D192E192F192C1921A
:1029D0008F9AD6B0E9B0F3B0CFB0D082E082F08267
:1029E000C082019686179707A0F378948F980E946B
:1029F000090E8AE28A95F1F700C02C2D30E08E2D69
:102A000083709F2D9071892B9D2D92959470892BA9
:102A10009E2D96959870892B9F2D990F9074892BD8
:102A2000A901440F551F4072842B220F331F220F20
:102A3000331F2078822B0115110501F15A814B813A
:102A40002C8130E0998192959470652F6370742F7A
:102A50007071672B962B56955870952B440F4074C8
:102A6000942BA901440F551F4072942B220F331F42
:102A7000220F331F2078922BF80190830F900F9034
:102A80000F900F900F90DF91CF911F910F91FF90BA
:102A9000EF90DF90CF9008952A9886CF90638E981C
:102AA00020E130E097FF0EC02A9A880F991F299ADB
:102AB000299821503109B1F78E9A8AE28A95F1F767
:102AC00000C008952A98F1CF2F923F924F925F92C3
:102AD0006F927F928F929F92AF92BF92CF92DF922E
:102AE000EF92FF920F931F93CF93DF9300D000D00C
:102AF0000F92CDB7DEB78B83262E3A01EE24EA94EF
:102B0000AFE0FA2E0FEF1FEF662329F0E12CF0E182
:102B1000FF2E10E000E044244394512CC8018E0D98
:102B20009F1D9D838C83222009F484C0FC0197FFA4
:102B300003C03196FD83EC838C819D8195958795AB
:102B40009D838C838C819D810E944E155AEF852E2A
:102B500059E0952ED12CC12CB2010C2C02C0660F6D
:102B6000771F0A94E2F7940190E080E0A0E06114FE
:102B7000710459F0FC01EE0FFF1FE60DF71D4081B7
:102B8000518146235723452B81F0F90145915491FA
:102B9000452B59F047E050E0481B590BF20102C0A9
:102BA000EE0FFF1F4A95E2F7AE2B0196205E3F4FD6
:102BB00088309105E1F6FB81FA23F9832FE02C1987
:102BC0002A83AA24A394B12C312C50E040E063E086
:102BD00070E08A812220B1F10E94BE14998189237C
:102BE00091E009F090E0390EC50183199109099728
:102BF000E4F10C811D810F5F1F4F0E151F050CF4B2
:102C00008DCFC8010F900F900F900F900F90DF9114
:102C1000CF911F910F91FF90EF90DF90CF90BF90D9
:102C2000AF909F908F907F906F905F904F903F906C
:102C30002F900895EC81FD813196F595E795FD8300
:102C4000EC8380CF0E94BE14E9818E2391E08E1325
:102C500090E0390EC50183199109099734F0EC8091
:102C6000FD80F1E0EF1AF108C8CF28E0231540F00D
:102C70008FEFA81AB80A91E1A916B10409F0A5CFFF
:102C8000EFEFCE1ADE0AF2E08F0E911C20E1C216A1
:102C9000D10409F061CF211003C00C811D81ADCF9B
:102CA000EC80FD80AACF2F923F924F925F926F925D
:102CB0007F928F929F92AF92BF92CF92DF92EF92CC
:102CC000FF920F931F93CF93DF93CDB7DEB7289773
:102CD0000FB6F894DEBF0FBECDBF8C01462E842EFA
:102CE0000E944E15C8010E944E152AEFE22E29E0DF
:102CF000F22E40E1449E20011124C20188549A4FD3
:102D00002C0110E000E0FE0131966F01662463940F
:102D1000712C912C47E0A42EB12CF60148E01192C1
:102D20004A95E9F78FE0282E201A90E1392E50E0DD
:102D300040E063E070E0822D0E94BE14F60127E0BF
:102D400030E090E0AC01022E02C0559547950A9400
:102D5000E2F740FF03C040814F5F408321503109BB
:102D600031962F3F320771F73A943110E0CFA3012B
:102D7000002E02C0440F551F0A94E2F7D2019701BA
:102D800090E080E0F90165917491672BC9F0B5017D
:102D9000681B790BF40102C0F595E7956A95E2F797
:102DA000E0FF0EC0F601E80FF91F6081693040F0C6
:102DB0006D917C911197642B752B11967C936E937A
:102DC0000196205E3F4F129688309105D9F60F5F2D
:102DD0001F4FF2E0EF0EF11C0031110509F09DCFFD
:102DE00028960FB6F894DEBF0FBECDBFDF91CF910E
:102DF0001F910F91FF90EF90DF90CF90BF90AF9019
:102E00009F908F907F906F905F904F903F902F900A
:102E1000089590E0DC0124E0AA0FBB1F2A95E1F79A
:102E2000A854BA4F70E0FB0134E0EE0FFF1F3A9553
:102E3000E1F7E854FA4F20E101900D922A95E1F76D
:102E4000660F771FFB01E85FF94F20813181880F02
:102E5000991FFC01E85FF94F31832083640F751FD0
:102E6000FB0120813181840F951FFC013183208378
:102E70000895CF9384E090E00E94E332C82F81E26E
:102E800090E00E94E332982F8C2FCF9108951092FA
:102E90005E0580911001EEE8F1E0882359F0809101
:102EA000850587FF07C08EE1DF011D928A95E9F74E
:102EB0000C94D90F86E0F8CFCF93DF93EC0180918B
:102EC000460680FF04C080E899E00E94D2060E9476
:102ED000471760E070E0CB010E94F40FD0934506E5
:102EE000C0934406DF91CF9108951F93CF93DF9352
:102EF000CDB7DEB7AA970FB6F894DEBF0FBECDBF31
:102F00008CE396E02091F100DC012D93CD01B6E039
:102F100084349B07B9F780913D06833009F471C072
:102F2000B8F4813009F448C0823009F4B2C080910D
:102F3000E80083FF3AC180913C0690913D069A30AB
:102F400008F033C1E92FF0E0E85AFC4C0C94DD3274
:102F50008A3009F48DC08B3009F470C0893039F79C
:102F600080913C06813219F780914006909141068C
:102F7000009711F00297D9F68091E800877F80933F
:102F8000E8008091E80082FF37C09091F3008091C3
:102F9000F200029729F48091F1008B7F813021F4B7
:102FA0008091F100809316068091E8008B778093E2
:102FB000E8000E94EE07BBCF80913C06813A09F001
:102FC000B6CF8091E800877F8093E800809140062B
:102FD00090914106892B61F460E287E196E070E010
:102FE0000E94A0088091E8008B778093E8009FCF33
:102FF00060E090E080E0F3CF80913A068111C1CF8C
:1030000096CF80913C06813A09F091CF809140069D
:1030100090914106892B09F08ACF8091E800877F43
:103020008093E8008091E80080FFFCCF8091100140
:103030008093F1008091E8008E77B9CF80913C06B3
:10304000813209F074CF8091400690914106892B1E
:1030500009F06DCF8091E800877F8093E8000E949F
:10306000EE0780913E06809310010E9447175FCFC4
:1030700080913C06813209F05ACF8091E800877F29
:103080008093E8000E94EE0780913F06809315062A
:103090004ECF80913C06813A09F049CF8091E800FB
:1030A000877F8093E8008091E80080FFFCCF8091CB
:1030B0001506BECF803899F0823809F076C080912D
:1030C00040068F70873008F070C08093E9008091CF
:1030D000EB0085FB882780F91092E90006C08091FB
:1030E000370690913806911182609091E800977FA1
:1030F0009093E8008093F1001092F1008091E80035
:103100008E77CFC1882309F4BCC1823009F04DC04D
:1031100080913E068111C0C1809140068F702FEFD3
:10312000280F263008F041C08093E9002091EB0081
:1031300020FFB2C1933031F48091EB008062809324
:10314000EB00AAC19091EB0090619093EB0021E01D
:1031500030E001C0220F8A95EAF72093EA0010922E
:10316000EA008091EB008860EACF81111EC01091C7
:103170003E061F778091E3008078812B8093E300E7
:103180008091E800877F8093E8000E94EE0780919D
:10319000E80080FFFCCF8091E30080688093E3002B
:1031A00082E0111183E080933A068091E80083FF6A
:1031B0000AC08091E800877F8093E8008091EB004F
:1031C00080628093EB00AA960FB6F894DEBF0FBE24
:1031D000CDBFDF91CF911F9108958058823028F79D
:1031E00020913E0630913F062C3DE3E03E07A1F5DD
:1031F00083E08A838AE289834FB7F894DE011396CD
:1032000020E03EE051E2E32FF0E050935700E491DC
:1032100020FF03C0E295EF703F5FEF708E2F90E0CC
:10322000EA30C0F0C7968D939D932F5F243159F7F4
:103230004FBF8091E800877F8093E8006AE270E0EA
:10324000CE0101960E94A0088091E8008B778093C0
:10325000E800ABCFC096E7CF809140069091410641
:10326000432F55274330510509F44AC078F54130C2
:10327000510509F485C08BE790E0E9E5F8E04230BC
:10328000510509F092CF2091E800277F2093E800B4
:1032900020914206309143068217930708F49C015F
:1032A00040E02115310509F070C041116EC08091D8
:1032B000E80082FDC9CF80913A06882329F2853043
:1032C00019F28091E80083FFF2CFBECF4132510561
:1032D00009F447C04232510509F067CF84309105A7
:1032E00008F063CFFC01EE0FFF1FE758FE4F01907F
:1032F000F081E02D8B589E4FDC018C9190E01DC039
:10330000332721303105E9F02115310579F02230DC
:103310003105F9F02330310509F047CFE6EEF8E04A
:10332000E4918E2F90E0E6EEF8E007C0ECE7F9E0DC
:10333000E4918E2F90E0ECE7F9E0009709F435CFA7
:10334000A2CFECE0F9E0E4918E2F90E0ECE0F9E020
:10335000F4CFECEEF8E0E4918E2F90E0ECEEF8E0A4
:10336000ECCF8430910508F020CF880F991FFC0125
:10337000EF57FE4F0190F081E02D89E090E083CF80
:1033800082E190E0E4EDF8E07ECF80913A06882378
:1033900009F45ACF853009F457CF8091E80083FDB6
:1033A00053CF8091E80082FD82CF8091E80080FFBA
:1033B00078CF9091F3008091F2002115310519F03A
:1033C0008830910550F041E0089709F040E0809185
:1033D000E8008E778093E80064CF44914093F10039
:1033E0003196215031090196E8CF803809F0DDCEC1
:1033F0008091E800877F8093E80080913B0680936E
:10340000F1007CCE8111D1CE10913E06123008F031
:10341000CCCE8091E800877F8093E80010933B0634
:103420000E94EE07112311F084E005C08091E300B3
:1034300087FDFACF81E080933A0642E061EC81E0BB
:103440000E940D0842E261EC84E00E940D0842E215
:1034500061EC82E00E940D0842E260EC83E00E9491
:103460000D0842E261EC85E00E940D0890913A0659
:1034700081E0943009F080E0809339060E94660B69
:1034800094CE80913E06813009F08FCE81E093305A
:1034900009F080E0809338061092E9008091E800FE
:1034A000877F8093E8000E94EE077FCE2F923F92A5
:1034B0004F925F926F927F928F929F92AF92BF9244
:1034C000CF92DF92EF92FF920F931F93CF93DF93F0
:1034D00000D000D0CDB7DEB74C0180E1F4011192ED
:1034E0008A95E9F728E0C22E26E0D22E38EBA32EEB
:1034F00035E0B32E47E0242E312CF60181919191D5
:103500006F010E944E1510E000E0FFE0F01BFB830E
:103510000C8344244394512C002E02C0440C551CAF
:103520000A94E2F73501F12CE12C80E0F3012191BE
:1035300031913F0124213521232BA1F1811109C0B3
:10354000AE014F5F5F4F63E070E08B810E94BE145D
:103550008A8391012E193F09898190E0022E02C0D1
:10356000959587950A94E2F780FD1BC0F701EE0F51
:10357000FF1FE80DF91D4A81842F90E002C0959548
:1035800087952A95E2F7817099270C8002C0880FF1
:10359000991F0A94E2F720813181822B932B91832A
:1035A000808381E09FEFE91AF90AE8E0EE16F10462
:1035B00009F0BCCF0F5F1F4F0031110509F0A5CFF7
:1035C000F0E1AF0EB11C42E1C41646E0D40609F0AA
:1035D00094CF0F900F900F900F90DF91CF911F918C
:1035E0000F91FF90EF90DF90CF90BF90AF909F90A2
:1035F0008F907F906F905F904F903F902F900895A5
:103600007F928F929F92AF92BF92CF92DF92EF9272
:10361000FF920F931F93CF93DF938091BC01811191
:103620007CC02FB7F8948091640590916505A091B6
:103630006605B09167052FBF80319742A105B1059E
:1036400008F46BC080916F058F9380916E058F9306
:1036500081EE92E09F938F930E946B0780916B05A0
:103660008F9380916A058F9380916D058F938091E0
:103670006C058F938BEB92E09F938F930E946B0767
:1036800008E016E058EBE52E55E0F52E8DB79EB715
:103690000A960FB6F8949EBF0FBE8DBFD0E0C0E073
:1036A00064E9C62E62E0D62E7CE8A72E72E0B72E23
:1036B000D8018C9111969C910E5F1F4F9F938F9311
:1036C000DF93CF93DF92CF920E946B070F900F9002
:1036D0000F900F900F900F90470148E0742ED40187
:1036E0008C9111969C91B2E08B0E911C9F938F93BD
:1036F000BF92AF920E946B077A940F900F900F9039
:103700000F907110ECCF2196E0E1EE0EF11CC53068
:10371000D10571F681E08093BC0180910501882379
:1037200009F475C085E795E00E94561AECEAF1E0CD
:1037300045E755E0C0E021913191DA018D919D91ED
:10374000AD012817390709F0C1E09F012250310966
:10375000D9018D939C93B1E0EC3BFB0761F7CC233F
:1037600009F45DC081E08093BF010E94520A9093EA
:10377000BE018093BD018091BD019091BE010E9468
:10378000430A069708F44FC080917505909176051D
:1037900090938B0580938A058091770590917805A9
:1037A00090938D0580938C058091790590917A0591
:1037B00090938F0580938E0580917B0590917C0579
:1037C000909391058093900580917D0590917E0561
:1037D000909393058093920580917F059091800549
:1037E0009093950580939405809181059091820531
:1037F0009093970580939605809183059091840519
:1038000090939905809398051092BF010CC0E5E74D
:10381000F5E080E1DF011D928A95E9F787CF80917D
:10382000BF018111A8CF8091C301882381F08091CD
:10383000C0019091C1010E94430A20910401281700
:10384000190680F55A981092C3011092C201809116
:10385000570590915805A0915905B0915A050097C8
:10386000A105B105F1F1AC01BD0132E07695679596
:10387000579547953A95D1F740FF29C00E94050B0F
:1038800084600E94BA0D8C2FDF91CF911F910F9110
:10389000FF90EF90DF90CF90BF90AF909F908F9070
:1038A0007F9008952091710522FFD1CF9091C201A0
:1038B00082FD07C09111CBCF81E08093C2015A9A5B
:1038C000C6CF992321F21092C2015A98C0CFB69563
:1038D000A7959795879580FF04C00E94050B81608E
:1038E000D0CF0E94050B8E7F0E94BA0D0E94050B5F
:1038F0008B7FC7CFAB01BC0188E190E00C9409330A
:103900000F931F93CF93DF93C1E7D5E0282F220FAA
:10391000220F220F98819770922B9883829586951B
:10392000837002E715E0F80190819C7F892B8083EA
:103930006091700570917105809172059091730589
:103940000E947A1C8881982F969596959695F801F5
:10395000808183708295880F807E892B1F928F9340
:103960008DE993E09F938F930E946B070F900F90C8
:103970000F900F90DF91CF911F910F9108950F93AA
:103980001F93CF93DF93C2E7D5E0282F220F220F9A
:10399000220F98819770922B988303E715E0982F58
:1039A000929596959770F8018081887F892B808306
:1039B0006091700570917105809172059091730509
:1039C0000E947A1C8881982F969596959695F80175
:1039D00080818295880F807E892B1F928F938FE73D
:1039E00093E09F938F930E946B070F900F900F901F
:1039F0000F90DF91CF911F910F9108950F931F9317
:103A0000CF93DF93C0E7D5E0282F220F220F220F9C
:103A100098819770922B988382958695837001E7A1
:103A200015E0F80190819C7F892B808368817981E2
:103A30008A819B810E947A1C8881982F9695969501
:103A40009695F801808183708295880F807E892BFE
:103A50001F928F9386E693E09F938F930E946B074C
:103A60000F900F900F900F90DF91CF911F910F91BA
:103A700008950F931F93CF93DF93C0E7D5E088811C
:103A8000816088830E945A0B8881897F888301E73F
:103A900015E0F80180818770E2E7F5E090819C7F76
:103AA000908380628B7FF801808384E0809304019F
:103AB000688179818A819B810E947A1C88818695A0
:103AC00083701F928F9389E493E09F938F930E945A
:103AD0006B078881982F969596959695F801808129
:103AE00083708295880F807E892B1F928F9380E34D
:103AF00093E09F938F930E946B078DB79EB70896B4
:103B00000FB6F8949EBF0FBE8DBFDF91CF911F916E
:103B10000F910895CF93DF93C0E7D5E088818E7F22
:103B200088830E945A0B1F921F9285E193E09F9316
:103B30008F930E946B070F900F900F900F906881EA
:103B400079818A819B81DF91CF910C947A1CCF93EC
:103B5000DF93C0E7D5E08881816088830E945A0B9B
:103B60001F9281E08F938AEF92E09F938F930E9440
:103B70006B070F900F900F900F90688179818A8169
:103B80009B81DF91CF910C947A1C6CEE7EEF90E0DC
:103B900080E00E94153360E082E090E00E94F732FE
:103BA00060E083E090E00E94F7321092600510928E
:103BB0006105109262051092630560E084E090E078
:103BC0000E94F73260E081E290E00E94F73260E00C
:103BD00085E090E00E94F73260E086E090E00E948D
:103BE000F7326FEF87E090E00E94F73240E050E05C
:103BF000BA0188E090E00E94093360E08DE090E037
:103C00000E94F73240E050E0BA0188E190E00E9463
:103C1000093360E087E190E00E94F73240E050E035
:103C2000BA018CE190E00E94093360E080E290E00C
:103C30000E94F7320E94391D40E050E0BA018FE047
:103C400090E00E94093340E050E0BA0183E190E047
:103C50000C9409334F925F926F927F928F929F9252
:103C6000AF92BF92CF92DF92EF92FF920F931F938A
:103C7000CF93DF938C01FC0183819481892B39F0F0
:103C800040815181842F85238F3F09F0DFC6DF916A
:103C9000CF911F910F91FF90EF90DF90CF90BF9049
:103CA000AF909F908F907F906F905F904F9008950E
:103CB000F80182818111E8C6C430FDE5DF0709F40F
:103CC0008AC008F06FC0C3303DE5D30709F47BC05C
:103CD000C63EFCE5DF0709F0DCC6F80182818111F0
:103CE0000E94A71DF8018281C93EFCE5DF0709F0AB
:103CF000C3C081110E94391DF8018281CC3EFCE5D0
:103D0000DF0709F0F0C0882381F080917005982FBB
:103D10009695969596958091710583708295880FFA
:103D2000807E892B8F5F0E94FE1CF8018281C23F3A
:103D3000FCE5DF0709F0F0C08823B1F08091710540
:103D4000982F969596959695809172058370829599
:103D5000880F807E892B853008F400C18150990B33
:103D6000809304010E94801C8091700580FF06C131
:103D700090913906913009F001C1F801928199239F
:103D800009F401C186958370823008F4EEC0FE010B
:103D9000E850FD45E632F10508F0FDC0EE59FC4C57
:103DA0000C94DD32C6308DE5D807D9F0C7309DE5DB
:103DB000D90709F08DCF60910001709101014FEF9B
:103DC00084EC94E015C08AEC91E00E945C1781E0DD
:103DD0008093CA045CCF84EC94E00E945C1782E07C
:103DE000F7CF609102017091030141E08AEC91E00C
:103DF000DF91CF911F910F91FF90EF90DF90CF90C7
:103E0000BF90AF909F908F907F906F905F904F90FA
:103E10000C946828609144067091450622E031E0D8
:103E200041E08AEC91E00E9478112BC66091440633
:103E30007091450620E031E04FEF84EC94E0F3CF41
:103E4000813061F0823009F043CF609102017091BE
:103E5000030198014FEF84EC94E008C060910001E9
:103E600070910101980141E08AEC91E00E94330ECB
:103E70002FCF81110E948A1DF8018281CA3EFCE584
:103E8000DF0709F024C6882371F190917005892F0E
:103E900086958F5F8370880F997F892B809370053B
:103EA000982F9670963019F4897F809370058091D1
:103EB0007005867091E009F090E01F929F9386E371
:103EC00094E09F938F930E946B07609170057091AF
:103ED000710580917205909173050E947A1C0F9074
:103EE0000F900F900F90F8018281CD3EFCE5DF0727
:103EF00009F019C6882381F080917005982F969556
:103F0000969596958091710583708295880F807E35
:103F1000892B81500E94FE1CF8018281CF3EFCE576
:103F2000DF0709F01FC6882309F41ECF80917205B0
:103F3000982F969596959695809173058295880F02
:103F4000807E892B883768F4865F0E94BF1C0CCF67
:103F50000E94A71DB2C584E090E000C684E690E010
:103F6000FFCE88E7F2CF84E1F0CFB801CE010E9406
:103F70002C0B882309F40BCF0E94110BF8018281CE
:103F8000811105CF08C0867031F0B801CE010E94C2
:103F90002C0B8111F1CFF801858182958F701F92D2
:103FA0008F93858181701F928F9384818F938381FA
:103FB0008F9382811F928F9381811F928F93808133
:103FC0001F928F93DF93CF938CE694E09F938F9310
:103FD0000E946B078DB79EB740960FB6F8949EBFB0
:103FE0000FBE8DBFC33F9CE5D90709F423C108F07C
:103FF000B5C0C83DFCE5DF0709F418C1C93D2CE593
:10400000D20709F423C1C73D3CE5D30709F0B5C089
:1040100026E241EE61EEC801DF91CF911F910F9131
:10402000FF90EF90DF90CF90BF90AF909F908F90D8
:104030007F906F905F904F900C94BE138BE996E049
:104040000E942214A8CF8BE896E0FACF8BE796E087
:10405000F7CF80E796E0F4CF88E696E0F1CF80E6F0
:1040600096E0EECF82E596E0EBCF86E496E0E8CFEF
:104070008AE396E0E5CF8FE296E0E2CF8FE196E02B
:104080000E9422148FE096E0DBCF81E096E0D8CF4B
:1040900083EF95E0D5CF89EE95E00E94221481EE62
:1040A00095E0CECF8EED95E0CBCF84ED95E0C8CFF7
:1040B00082ED95E0C5CF80ED95E0C2CF8CEC95E028
:1040C0000E94221481E0DF91CF911F910F91FF9008
:1040D000EF90DF90CF90BF90AF909F908F907F90A8
:1040E0006F905F904F900C94FE0F84EC95E0A8CFFA
:1040F0008CEB95E0A5CF84EB95E0A2CF8CEA95E020
:104100009FCF84EA95E09CCF8CE995E099CF84E934
:1041100095E096CF8CE895E093CF82E895E090CF3C
:1041200089E795E08DCF8AE695E08ACF82E595E034
:1041300087CF8CE395E084CF81E395E081CF8EE15A
:1041400095E07ECF88E095E07BCF81EF94E078CF5B
:1041500086ED94E075CF81EC94E072CFC53F8CE59D
:10416000D80709F46FC008F469C027E245EE66EE8F
:10417000C63FECE5DE0709F44ECFF80182818823C3
:1041800009F40BC51092CB04C230FCE5DF0708F43C
:104190003EC1C6312CE5D20738F09E012A5F3C456E
:1041A0002930310508F033C10E94391790938605F4
:1041B00080938505C0313CE5D30709F4F7C008F0CA
:1041C00085C0C8309CE5D90709F4E6C008F054C0A2
:1041D000C430FCE5DF0709F4D7C0D8F5C2303CE5B0
:1041E000D30709F4C7C0C330DC4509F4C9C06091E6
:1041F0008505C091860584E090E00E94F7326C2F1F
:1042000081E290E00E94F732DF91CF911F910F91F0
:10421000FF90EF90DF90CF90BF90AF909F908F90E6
:104220007F906F905F904F900C94471727E245EE78
:1042300065EEF1CE26E241EE60EEEDCE27E245EEF0
:1042400064EEE9CE26E241EE62EEE5CE28E241E000
:10425000EFCF809185058061C6309CE5D90709F4D0
:104260008CC0809185058860C730DC4508F485C026
:1042700080918505806281C0809185058D7FCC30DD
:10428000FCE5DF0709F479C070F4809185058C6046
:10429000CA303CE5D30709F470C008F481C08091AE
:1042A00085058E7F6AC080918505877FCE309CE52D
:1042B000D90709F462C0809185058B7FCF30DC453A
:1042C00008F45BC0809185058F7E57C0CB3FFCE52D
:1042D000DF0709F45DC030F5C3313CE5D30709F4CD
:1042E0006DC078F4C1319CE5D90709F463C0C231CF
:1042F000DC4509F07CCF0E944717809185058F77B8
:104300003CC0C531FCE5DF0709F460C008F474C0A7
:10431000809186058160CA3FDC4509F068CF8093B3
:10432000860565CFCF3F8CE5D80709F44BC088F4EC
:10433000809186058D7FCD3FECE5DE0781F380918E
:1043400086058E7FCE3FDC4550F3809186058360E5
:10435000E6CFC1302DE5D20709F457C008F442C0BA
:1043600060E0C230DD4509F042CF8EE090E00E946F
:10437000F7323DCF8091850581608093850537CFE9
:10438000809185058260F9CF809185058460F5CFA5
:10439000809186058260C3CF809185058064EDCFD2
:1043A0000E944717809185058068E7CF8091850539
:1043B0008F7DE3CF809185058F7BDFCF8091850551
:1043C000837FDBCF809186058C7FA9CF8091850587
:1043D00082FB992790F921E0922790FB82F990FBCC
:1043E00083F9CBCF80918605982F909591708E7F21
:1043F000892B90FB81F993CF0E94471790918505F7
:10440000892F97FB87F98058B8CF61E0AECFC631CE
:104410009CE5D90709F0CDC380915E058A7A91E0C9
:1044200009F490E09093CC04811115C089E20E94B8
:10443000D610DF91CF911F910F91FF90EF90DF90F9
:10444000CF90BF90AF909F908F907F906F905F9034
:104450004F900C94510F85E3EACF85E3A7C3909169
:104460004606892F8E7F90FF81608093460680FFED
:1044700014C082EB96E0DF91CF911F910F91FF90D6
:10448000EF90DF90CF90BF90AF909F908F907F90F4
:104490006F905F904F900C94D20680EA96E0EBCF3D
:1044A000DF91CF911F910F91FF90EF90DF90CF9010
:1044B000BF90AF909F908F907F906F905F904F9044
:1044C0000C94C51DF801C081D1818823D1F1CE01A2
:1044D0000E944A0DF82E682FCE010E94A30ABE0149
:1044E0008F2D0E94AD0BD82FC92FA82EF801C580A3
:1044F000C2943FE0C322F280F11010925D058091DA
:104500005B05877079F0FF2069F080E28D0F8830BD
:1045100048F082E00E94421080915B058770EE2493
:10452000E3948111E12CDC2ED2942FE0D222FBE027
:10453000FD1508F440C0ED2DF0E0E857FC4C0C945C
:10454000DD32CE010E947C0AF82EC9CF2C2F2F70AD
:10455000C22EC07F19F0C29490EFC922FF20C9F08B
:10456000CC2069F080E28D0F883010F0A1100BC0D4
:1045700080915E05C82AC0925E050E94510F8D2F62
:104580000E94F61218C080915D05C82AC0925D0590
:10459000F4CF8D2F0E941B11CC2069F0C094D05E07
:1045A000D83010F0A1103FC080915E05C822C092A3
:1045B0005E050E94510FED2DE850FF0B349720F45B
:1045C0000E94050B0E94BA0DEE20A9F080915B05B8
:1045D00080FD11C0F80112828595859585950E9410
:1045E0005A10C8010E942A1E80915B058595859509
:1045F00085950E941F10F80140815181628173816D
:104600008481DF91CF911F910F91FF90EF90DF9008
:10461000CF90BF90AF909F908F907F906F905F9062
:104620004F900C94D00D80915D05C822C0925D051D
:10463000C0CF3C2F3F70B32EC07FC03219F0B29470
:1046400080EFB822AA2071F091E0A91661F1FF2055
:10465000B9F1CC2071F1F801858180FF90CF8F7086
:10466000858327C0FF2091F090915F058B2D892BCA
:10467000C11003C00E9490109ECFE1E0CE12FACF8D
:10468000981709F498CF80935F0595CFC11006C0A5
:104690000E94760A8B2D0E9485108DCFF1E0CF16F7
:1046A00009F489CFF5CFFF2031F025E02C1508F46F
:1046B00082CF8B2DDFCF34E03C1508F47CCFEACFDE
:1046C000CC2041F3D93349F4FFEF27EE33E0F1502A
:1046D00020403040E1F700C000008D2F0E941B11E8
:1046E0006ACF8C2F86958695837069F0813009F0AA
:1046F00062CF8D2F9C2F9370F11002C090E080E06C
:104700000E94D90A58CF8D2F9C2F9370F11002C0B0
:1047100090E080E00E94EF0A4ECFFF2009F1D53FE4
:1047200099F0D63FB9F0D43F49F48091CD049091EF
:10473000CE0481609093CE048093CD048D2F0E948F
:10474000CA090E94B90E37CF8091CD049091CE0452
:104750008260F0CF8091CD049091CE048460EACF46
:10476000D53F89F0D63FA9F0D43F49F48091CD04DC
:104770009091CE048E7F9093CE048093CD048D2FA4
:104780000E940909DECF8091CD049091CE048D7FE7
:10479000F2CF8091CD049091CE048B7FECCF8C2F03
:1047A000837009F065C0F11006CF8D2F8295869534
:1047B0008770880F880F6D2F6F70862E912CB12C0B
:1047C000A12C082E04C0880C991CAA1CBB1C0A949E
:1047D000D2F740E050E0BA01D4FF0FC04FE050E004
:1047E00060E070E004C0440F551F661F771F8A9574
:1047F000D2F74095509560957095C695C695C37053
:10480000C23019F1D8F44090600550906105609075
:10481000620570906305C13069F0482959296A29F9
:104820007B29CB01BA0164217521862197210E9441
:104830007B10C1CE84289528A628B728CB01BA01C1
:10484000682979298A299B29F2CF482959296A2977
:104850007B298090600590906105A0906205B090E2
:104860006305CB01BA01682579258A259B25DFCF11
:104870008695FF2011F08C2F8170882309F49BCE40
:104880008D2F829586958770880F880F6D2F6F709A
:10489000862E912CB12CA12C082E04C0880C991CBA
:1048A000AA1CBB1C0A94D2F740E050E0BA01D4FF26
:1048B0000FC04FE050E060E070E004C0440F551FAF
:1048C000661F771F8A95D2F7409550956095709531
:1048D000C695C695C370C23019F1D8F440905705FB
:1048E000509058056090590570905A05C13069F094
:1048F000482959296A297B29CB01BA0164217521EC
:10490000862197210E94F40F56CE84289528A62848
:10491000B728CB01BA01682979298A299B29F2CFC6
:10492000482959296A297B29809057059090580574
:10493000A0905905B0905A05CB01BA016825792598
:104940008A259B25DFCFCF70FF2029F08C2F0E9476
:104950005A108D2F8FCE8D2F0E9485108C2F0E9484
:104960001F1029CE8D2F92EFA916E9F19A1570F03C
:10497000E0EFAE1601F1F1EFAF1669F1FF2009F497
:1049800055C0C110FCCD8C2F8F712AC023EFA21609
:1049900079F134EFA312F2CFFF20E9F1CF718C2F20
:1049A0000E945A10E8E0CE9FC001112483608093DA
:1049B0005B058C2F15C0FF2049F084E08C1508F4AE
:1049C000FACD8C2F8F710E94FE0FF5CD95E09C15CE
:1049D00008F4F1CDF6CF8C2F8F71FF2009F4BFCFF3
:1049E0000E945A10E8CD8C2F8F71FF20C9F3B7CFEA
:1049F00060E070E0CB01FF2009F484CFCF7161E06B
:104A000070E080E090E004C0660F771F881F991F58
:104A1000CA95D2F777CF81E00E944210F1E0FC15F1
:104A200008F0C9CD82E00E944210C5CDCC2059F0DB
:104A3000893309F052CE2FEF37EE83E0215030401A
:104A40008040E1F748CE8C2F8F7189CF62817381CE
:104A500084810E94D00DEC018091CA04882309F45E
:104A600027C9C530EDE5DE0709F0EAC9F8019281F2
:104A7000992309F40CC9813009F4CCC9823009F4B6
:104A8000D5C91092CA0403C9C63E2CE5D20709F461
:104A900027C9F8018281C73EFCE5DF0709F4E9C9AF
:104AA000C83E2CE5D20709F01DC9882381F080910A
:104AB000700580FF4DCA0E948A1D6091700570913B
:104AC000710580917205909173050E947A1CF8011E
:104AD0008281CB3EFCE5DF0709F00EC9882319F17E
:104AE00090917105892F8B7F92FF8460809371056F
:104AF00060917005709171058091720590917305B8
:104B00000E947A1C8091710582FB882780F91F9290
:104B10008F9383E594E09F938F930E946B070F9090
:104B20000F900F900F90F8018281C13FFCE5DF07E5
:104B300009F0FBC88823B1F080917105982F9695F4
:104B4000969596958091720583708295880F807EE8
:104B5000892B843608F0FFC990E001968093040108
:104B60000E94801CF8018281C03FFCE5DF0709F04C
:104B7000FBC8882309F4F8C880917205982F969590
:104B800096959695809173058295880F807E892BE6
:104B9000843108F4E8C98A50D8C9C631DC4509F027
:104BA00091CC8091CC04811158CC89E20E949A105A
:104BB00040CCC1309CE5D90709F451CCCE3DECE5A1
:104BC000DE0709F46DCCC115DC4509F07BCC0E94F1
:104BD0004717EFEFF4E32CE0E150F0402040E1F71D
:104BE00000C000005A9887E797E7909301088093E8
:104BF00000080E94320A1F93CF93DF938091D40460
:104C0000807FA9F48091D104882389F080910605E2
:104C1000D091D5046091CF047091D004A091D204BA
:104C2000B091D304C62FC72316E0D81304C0DF9178
:104C3000CF911F91089590E0109711F0CF3F19F494
:104C400001968770F2CF189F9001199F300D1124A3
:104C5000F901EA52FB4F41814713F2CF40814613DD
:104C6000EFCF42814111ECCF438154814A1B5B0B52
:104C7000483C510528F78091D4048F70806180935F
:104C8000D404F901E552FB4F80818F7080618083ED
:104C90008FEC94E00E942A1EDF91CF911F910C941B
:104CA000CF0AAF92BF92CF92DF92EF92FF920F9313
:104CB0001F93CF93DF93CDB7DEB761970FB6F8940C
:104CC000DEBF0FBECDBF8C0185E0F801DE011D9671
:104CD00001900D928A95E1F7F80180819181E2803F
:104CE0002FECA22E24E0B22E6091D2047091D30456
:104CF0006115710509F43EC13091CF044091D00493
:104D0000232F24232F3F09F435C1C380D480F09092
:104D1000D104F601E61BF70BFF2009F4FBC020913C
:104D2000D404522F507FE83CF10508F0BBC051116C
:104D300078C0FE2C491321C038131FC0E1101DC0DC
:104D40002F7020612093D404C5010E942A1E8091F7
:104D5000D404F80185838F2D61960FB6F894DEBFD9
:104D60000FBECDBFDF91CF911F910F91FF90EF90BC
:104D7000DF90CF90BF90AF900895CD2829F0282FD5
:104D800029232F3F09F014C120E0F22FF170DF2E0C
:104D900020FF3DC0209106054091D50456E0241324
:104DA00015C08D879E878D859E850E948C0D292F2D
:104DB00022952F702230F8F0243020F59F70F9F002
:104DC000F8019581907FD9F4D12C1FC030E0529F1B
:104DD000F001539FF00D1124EA52FB4F61819613AD
:104DE00006C06081861303C06281E61210C02F5F87
:104DF0003F4F2770D4CF9F7011F0882329F3805E36
:104E0000883010F3C8010E942A1EFD2CA4CFEE208A
:104E100009F4A1CF8091D40481608093D404F12C53
:104E20009ACF491312C0381310C0E1100EC0F80118
:104E30002583C8010E942A1E86E0F801AFECB4E089
:104E400001900D928A95E1F786CF8D879E878D859B
:104E50009E850E94960D882309F1EE20F9F080913D
:104E6000D404803270F02091CF043091D004388780
:104E70002F831986DB86CA868C87CE0107960E940F
:104E80002A1E86E0F801AFECB4E001900D928A95FD
:104E9000E1F70E94FB25FF24F3945DCFC8010E9437
:104EA0002A1EF9CF51110AC08FEC94E00E942A1EED
:104EB00086E0F50111928A95E9F7B1CF49130FC049
:104EC00038130DC0E1100BC0F8012583C8010E9402
:104ED0002A1E86E0F50111928A95E9F73CCF8D876D
:104EE0009E878D859E850E94960D8823B9F2EE20BF
:104EF000A9F28091D404803220F22091CF04309125
:104F0000D0043A8329831B82DD82CC828E83CE013A
:104F10000196B5CFE83CF105E0F6FE2CEE2009F451
:104F2000BDCF491316C0381314C08091D40480FD3E
:104F300083CF982F907F09F47FCFF8018583903F2E
:104F400009F477CF982F907F905F8F70892B85839E
:104F500070CF8D879E878D859E850E94960D8111CD
:104F600090CF8091D40481608093D404C8010E94C2
:104F70002A1EF1CEEE2009F491CF8D879E878D8574
:104F80009E850E94960DF82E882309F487CF86E02F
:104F9000F801AFECB4E001900D928A95E1F78091B1
:104FA000CF049091D0040E948C0D0E94FB25D3CE9B
:104FB00021E02E25EACE1F93CF93DF93CDB7DEB746
:104FC00067970FB6F894DEBF0FBECDBF4B8B5C8BDF
:104FD0006D8B7E8B8F8B1A8A198A85E0FE01739602
:104FE000DE011D9601900D928A95E1F786E0FE01A3
:104FF0003D96DE01179601900D928A95E1F7CE015C
:1050000007960E945126882389F016E080910605B4
:105010009091D504891349C067960FB6F894DEBF06
:105020000FBECDBFDF91CF911F91089586E0FE01A5
:105030003796DE01119601900D928A95E1F78A85E7
:105040009B85892B11F38F81988589238F3FE9F206
:105050002091D50430E0C9010196877099274091CD
:1050600006054817190671F40E9447171092D504D7
:105070001092060586E0EFECF4E0DF011D928A95C0
:10508000E9F7C3CF96E0929FD001939FB00D112412
:10509000AA52BB4FFE01319601900D929A95E1F70D
:1050A0008093D5040E94CF0AB0CF819FC001112404
:1050B0008A529B4F0E945126882309F4ADCF8091DC
:1050C000060590E0019687709927809306059ECF8C
:1050D0008F929F92AF92BF92EF92FF920F931F9386
:1050E000CF93DF93EC017B01042F8091460680FF74
:1050F00010C082E0413009F481E01F928F9387EB6A
:1051000093E09F938F930E946B070F900F900F90E7
:105110000F908090570590905805A0905905B09039
:105120005A050E94471760E070E0CB010E94F40F1F
:1051300086E0080280011124CE15DF05A9F40E9443
:1051400047178092570590925805A0925905B09242
:105150005A05DF91CF911F910F91FF90EF90BF9073
:10516000AF909F908F900895CE010E942A1EC00F8D
:10517000D11FE2CF1F920F920FB60F9211242F93DF
:105180003F934F935F936F937F938F939F93AF93CF
:10519000BF93CF93DF93EF93FF93D091E900DF703C
:1051A0008091EC00C82FC17080FDC0E81092E9002A
:1051B0008091F000877F8093F00078940E947517AB
:1051C0001092E9008091F00088608093F000CD2B70
:1051D000CF70C093E900FF91EF91DF91CF91BF9124
:1051E000AF919F918F917F916F915F914F913F917F
:1051F0002F910F900FBE0F901F9018951F920F9236
:105200000FB60F9211242F933F934F935F936F9399
:105210007F938F939F93AF93BF93EF93FF9380916F
:10522000E10082FF15C08091E20082FF11C08091F1
:10523000E1008B7F8093E100209113062F5F822F86
:1052400062E30E94A932992309F4D7C02093130680
:105250008091DA0080FF28C08091D80080FF24C0B0
:105260008091DA008E7F8093DA008091D90080FFF0
:10527000FAC080E189BD82E189BD09B400FEFDCF9D
:1052800081E080933A0685E498E00E94D2068091FE
:105290001406811109C00E9474070E943F08809182
:1052A000E20084608093E2008091E10080FF20C0F2
:1052B0008091E20080FF1CC08091E2008E7F80938D
:1052C000E2008091E20080618093E2008091D8004A
:1052D00080628093D80019BC85E080933A068DE403
:1052E00098E00E94D20682E0809339060E94660B05
:1052F0008091E10084FF3DC08091E20084FF39C0CD
:1053000080E189BD82E189BD89B5982F917080FFC8
:10531000FBCF8091D8008F7D8093D8008091E100F1
:105320008F7E8093E1008091E2008F7E8093E20087
:105330008091E20081608093E20080913B068823A7
:1053400009F49BC084E080933A0681E598E00E94CE
:10535000D2060E9447170E94050B0E94BA0D909139
:105360003A0681E0943009F080E0809339060E948B
:10537000660B8091E10083FF2FC08091E20083FFE4
:105380002BC08091E100877F8093E10082E08093D1
:105390003A0610923B068091E1008E7F8093E100F7
:1053A0008091E2008E7F8093E2008091E200806134
:1053B0008093E20042E060E080E00E940D0880916E
:1053C000F00088608093F00085E598E00E94D206A6
:1053D000109239060E94660BFF91EF91BF91AF9139
:1053E0009F918F917F916F915F914F913F912F91FD
:1053F0000F900FBE0F901F9018951092130680917A
:105400001206882309F424CF80913A068430C1F42F
:105410009091E9009F702091EC00822F817020FD17
:1054200080E8892B95E09093E9009091EB0090FF44
:1054300004C09091EE0097FD08C08F708093E90042
:105440001092120605CF1092F1009091E80095FDA0
:10545000FACF9091E80090FFF0CF9091E8009E770E
:105460009093E800EACF19BC10923A0689E498E0DC
:105470000E94D2061092140617CF8091E30087FD98
:1054800093E090933A0661CFCDB7DEB7CE55D10900
:105490000FB6F894DEBF0FBECDBF84B7877F84BF41
:1054A0000FB6F894A89580916000886180936000A1
:1054B000109260000FBE80E890E00FB6F8948093E1
:1054C0006100909361000FBE109239060E94660B36
:1054D00085B7806885BF85B7806885BF0E947407DF
:1054E0000E943F088091E20084608093E2008BED8F
:1054F00091E190938B0180938A01789480913A0690
:105500008823A1F01091E9001F709091EC00892F81
:10551000817090FD80E8182B1092E9008091E800DE
:1055200083FD0E9475171F701093E90082E084BD0F
:1055300093E095BD9AEF97BD80936E00579A6E9A4F
:10554000269A5F9876982E988CE797E09F938F9392
:105550000E946B07229A269A879A219A2E988F98F2
:1055600029980E94090E2AE22A95F1F700C085E7E2
:1055700097E09F938F930E946B078AE697E09F9333
:105580008F930E946B078E9A869A219A229A8E9AFE
:1055900029982A9883E697E09F938F930E946B0740
:1055A00081B3806381BB85B1806385B98BB1836131
:1055B0008BB9469A0E94520A90936F0580936E05AC
:1055C0008FEF9FE00E944E158FEF9FE00E944E15D7
:1055D0008FEF9FE00E944E150FB6F894DEBF0FBE0E
:1055E000CDBF10E100E00E94130E8095082B5AE217
:1055F0005A95F1F700C01150B1F790E080E00E9499
:105600004E1590E080E00E944E1590E080E00E94F0
:105610004E1570E1F72E0E94130E182B6AE26A9560
:10562000F1F700C0FA94F110F6CF102350E040E0FB
:1056300061E0812F0E94641590936D0580936C0545
:1056400050E040E060E0812F0E946415F82E092FA1
:1056500080936A0590936B054AE050E06FEF70E02D
:10566000CE0101960E94413350916C0540916D0529
:105670008F2D902F8F3FAFE09A0714F08EEF9FE0B1
:105680000196252F342F281739070CF49C01690146
:10569000C81AD90A7601EE0CFF1CEE0CFF1C58E06C
:1056A000652E56E0752EF30165E0A62EB12CC701DC
:1056B000B5010E94B532C901861B970B8193919366
:1056C000EC18FD08B6E0E231FB0789F780E1C82E4F
:1056D00086E0D82E98EEE92E95E0F92E04E0412FD1
:1056E000602FF601929182916F010E94531657012B
:1056F000F0E1AF0EB11CF70168E081919191D50105
:105700004D915D915D019F0122503109842B952BB4
:10571000D9018D939C93615081F70150B0E1EB1A50
:10572000F1080111DCCFF8EBEF2EF5E0FF2E4AEF88
:1057300059E0D70187E090E0412E512C88248394D2
:10574000912C5201082E02C0B594A7940A94E2F756
:10575000E1E0AE22BB24BA0130E020E0FB01C590BD
:10576000D490CD2891F0A114B10479F06401022EF7
:1057700002C0CC0CDD1C0A94E2F7ED91FC9111976C
:10578000EC29FD291196FC93EE932F5F3F4F6E5F3E
:105790007F4F2031310511F701971296405E5F4F20
:1057A0008F3F980771F69E012F5F3F4F6D963FAF79
:1057B0002EAF6D97E8E0CE2EE6E0DE2E590100E038
:1057C000F70148E0043009F077C1A70160E0812FBC
:1057D0000E946415D5018D939D935D01A70161E041
:1057E000812F0E946415F601819391936F01F0E17E
:1057F000EF0EF11C0F5F053019F7912C00E065E00A
:10580000E62EF12C70EF872EA92CB12C6701CA1857
:10581000DB08802F002E000C990B8C159D050CF4D5
:105820005AC184E0382E391825E0C216D10409F097
:105830004CC22FEF3FE0D3018D919D913D016D96BC
:10584000EEADFFAD6D97419151916D96FFAFEEAF0B
:105850006D97840F951F97FD019695958795805AB2
:105860009F4FF3013297811540E1940708F43CC241
:105870003183208352E1651656E07506E1F60E94F9
:10588000520A20916E0530916F05821B930B909305
:105890006F0580936E05559A5D9A209A289AE5E7E0
:1058A000F5E0AAE8B5E0119211921D921D9265E013
:1058B000E538F607C1F790E080E00E94F1328C3EB7
:1058C0009E4F11F00E94C51D809146068160809315
:1058D000460690E080E00E94F1328C3E9E4F11F02F
:1058E0000E94C51D88E190E00E94EB326093700534
:1058F00070937105809372059093730520917105E3
:105900002695269526953091720533703295330F82
:10591000307E232B20930401672B682B692B11F019
:105920002111E5C10E94391D5A98529A8091390679
:10593000813011F40E94110B8091460680FF44C013
:1059400082ED97E09F938F930E946B0780914606AC
:105950000F900F9080FF38C08DEB97E09F938F934F
:105960000E946B07809146060F900F9080FF2CC01D
:105970008091700581701F928F9382EA97E09F93C8
:105980008F930E946B07809146060F900F900F90A7
:105990000F9080FF19C080917005982F969596956D
:1059A00096958091710583708295880F807E892BF2
:1059B0001F928F9389E897E09F938F930E946B07C4
:1059C0000F900F900F900F90539A90E080E00E94FC
:1059D000F1328C3E9E4F11F00E94C51D82E090E096
:1059E0000E94E332809346060E9439179093860501
:1059F0008093850583E090E00E94E332682F70E099
:105A000090E080E00E947B1086E091E09093880512
:105A10008093870584E398E00E94D2062091730169
:105A2000309174016F963FAF2EAF6F9780913A0619
:105A3000853009F45FC10E94001B58EA652E55E0CD
:105A4000752E6AE8462E65E0562E10E000E06C9652
:105A50000FAF6C97D201ED90FD902D01F301A19055
:105A6000B1903F01AE14BF0409F086C10F5F1F4F14
:105A70000830110561F78FEF67968FAF67976896CB
:105A80008FAF689769961FAE69970E94520A81602E
:105A9000782F6B969FAF8EAF6B9767964FAD6797DA
:105AA00068965FAD689769966FAD69976B968FAD95
:105AB0006B970E94DB27A3C121913191DF011297DF
:105AC0008685978580959095822393238D939C93CB
:105AD000415091F77ACE54E0880F991F5A95E1F71B
