:100000000C94F6050C943D060C943D060C943D06AC
:100010000C943D060C943D060C943D060C943D0654
:100020000C943D060C943D060C9427280C94E32771
:100030000C9442320C943D060C943D060C943D0603
:100040000C943D060C943D060C943D060C943D0624
:100050000C943D060C941E320C943D060C943D0607
:100060000C943D060C943D060C943D060C943D0604
:100070000C943D060C943D060C943D060C943D06F4
:100080000C943D060C943D060C943D060C943D06E4
:100090000C943D060C943D060C943D060C943D06D4
:1000A0000C943D060C943D060C943D060631FF0968
:1000B00074A1010975150026FF00952075088102BD
:1000C0000976150026FF00952075089102C00501EC
:1000D0000902A10185020901A100050919012905EB
:1000E00015002501950575018102950175038101B2
:1000F0000501093009311581257F950275088106B2
:1001000009381581257F950175088106050C0A3887
:10011000021581257F950175088106C0C00501097A
:1001200080A101850319012AB700150126B70095A2
:100130000175108100C0050C0901A1018504190198
:100140002AA002150126A002950175108100C005A4
:10015000010906A1018505050719E029E715002514
:10016000019508750181020507190029EF15002581
:100170000195F0750181020508190129059505759C
:10018000019102950175039101C00660FF0961A10B
:10019000010962150026FF00952075088102096398
:1001A000150026FF00952075089102C0050109067B
:1001B000A101050719E029E715002501950875013A
:1001C00081029501750881010507190029FF1500B5
:1001D00026FF009506750881000508190129059577
:1001E0000575019102950175039101C000000000A1
:1001F00000000000000000000000000000000000FF
:100200007E0F00D4FFFFFFC7000000780000000051
:10021000000000002A2B2800000000000000000061
:100220000000000000000029000000002C1E342007
:10023000212224342627252E362D3738271E1F202D
:100240002122232425263333362E37381F04050672
:100250000708090A0B0C0D0E0F10111213141516B6
:100260001718191A1B1C1D2F3130232D35040506B4
:100270000708090A0B0C0D0E0F1011121314151696
:100280001718191A1B1C1D2F3130354C30782530AA
:1002900036580A0043616C2062696E2025752C2057
:1002A0005468726573686F6C643D25752041737383
:1002B00069676E6D656E74733A0A0043616C204124
:1002C0006C6C205A65726F203D2025752C2043618F
:1002D0006C20416C6C204F6E6573203D2025750AA3
:1002E0000043616C6962726174696F6E20746F6F34
:1002F0006B3A202575206D730A006861707469631C
:100300005F636F6E6669672E656E61626C65203D26
:100310002025750A006861707469635F636F6E669B
:1003200069672E656E61626C65203D2025750A0047
:100330006861707469635F636F6E6669672E6D6F65
:100340006465203D2025750A006861707469635FEB
:10035000636F6E6669672E666565646261636B20B4
:100360003D2025750A006861707469635F636F6E74
:100370006669672E6D6F6465203D2025750A0068EB
:1003800061707469635F636F6E6669672E616D701B
:100390006C6974756465203D2025750A006861707C
:1003A0007469635F636F6E6669672E6477656C6CF2
:1003B000203D2025750A0064796E616D6963206DAA
:1003C0006163726F3A20736C6F7420256420706CC7
:1003D00061796261636B0A0064796E616D696320A3
:1003E0006D6163726F3A20736C6F742025642073A3
:1003F000617665642C206C656E6774683A202564AC
:100400000A0064796E616D6963206D6163726F3A91
:10041000207472696D6D696E672061207472616904
:100420006C696E67206B65792D646F776E206576D9
:10043000656E740D0A006861707469635F636F6E46
:100440006669672E666565646261636B203D202581
:10045000750A006861707469635F636F6E666967CF
:100460002E62757A7A203D2025750A004B4C3A2081
:100470006B633A203078253034582C20636F6C3A07
:100480002025752C20726F773A2025752C207072EC
:1004900065737365643A202531752C2074696D6528
:1004A0003A2025752C20696E746572727570743AE5
:1004B000202531752C20636F756E743A2025750ADE
:1004C000003A706570655F6B696E675F726F796126
:1004D0006C3A010128003A736D696C65795F73703D
:1004E00069745F7375727072697365643A0101288B
:1004F000003A736D696C65795F7469705F666564F5
:100500006F72613A010128003A736D696C65795F19
:1005100074616B656D6F6E65793A010128003A640C
:10052000726F6F6C696E675F666163653A0101287F
:10053000003A68656172743A010128003A736D6986
:100540006C65795F6361745F66616E63793A01011E
:1005500028003A736D696C65795F6361745F7370CD
:10056000616E6973683A010128003A73757270729E
:10057000697365643A010128003A6F6F663A0101B8
:1005800028003A746869733A010128000102E07694
:100590000103E0000102E0630103E0000102E078F2
:1005A0000103E0000102E07A0103E0000102E066DD
:1005B0000103E0000102E0640103E0000102E073D6
:1005C0000103E0000102E0610103E00029002800CE
:1005D0000102E201012B0103E2003030000102E0E0
:1005E000770103E0000102E201013D0103E20001A5
:1005F00002E00102E2740103E20103E0000102E013
:100600000102E2670103E20103E0000102E00102EE
:10061000E20101290103E20103E0000102E001021D
:10062000E50101290103E50103E00001013B0102AD
:10063000E0760103E00001013B0102E06178010383
:10064000E00001013B0102E061630103E0000102FF
:10065000E30102E1730103E10103E3000102E36549
:100660000103E3000102E3640103E3000102E3018B
:10067000012B740103E3000102E30102E0010150D8
:100680000103E00103E3000102E30102E001014F85
:100690000103E00103E3005445535400444542552F
:1006A000473A2064697361626C65642E0A004445B0
:1006B0004255473A20656E61626C65642E0A00619E
:1006C00064645F6B65795F6269743A2063616E2769
:1006D00074206164643A20253032580A0064656CE5
:1006E0005F6B65795F6269743A2063616E2774207D
:1006F00064656C3A20253032580A000A00253032F1
:100700005820006B6579626F6172645F7265706F0B
:1007100072743A2000290A002575002F0025750003
:100720005D28002564002000256400200025640069
:1007300020002564007C0025303258006D6F7573F1
:10074000656B6579205B62746E7C782079207620F9
:10075000685D287265702F61636C293A205B002008
:10076000444F4E450A006461635F696E69742829CD
:100770000020444F4E450A0073686966745F696ED5
:1007800069742829006861707469635F636F6E66BD
:1007900069672E6D6F6465203D2025640A006861DD
:1007A000707469635F636F6E6669672E656E616200
:1007B0006C65203D2025640A006861707469635F80
:1007C000636F6E666967206570726F6D0A00536FA4
:1007D0006C656E6F69642064726976657220696EFB
:1007E000697469616C697A65640A000A00253033AE
:1007F000326C62003A200025303258000A722F63B2
:10080000203031323334353637383941424344456C
:100810004630313233343536373839414243444536
:10082000460A000A0025303258006B6579626F6114
:1008300072645F7365745F6C65643A20005B735D1E
:10084000004B6579626F6172642073746172742EFB
:100850000A005B435D005B445D005B535D005B57DA
:100860005D005B525D0009027B00040100A0FA09F3
:1008700004000001030101000921110100012240CF
:10088000000705810308000A0904010002030000B3
:100890000009211101000122220007058203200026
:1008A0000107050303200001090402000103000001
:1008B0000009211101000122BC000705840320006A
:1008C0000A090403000203000000092111010001CC
:1008D00022220007058503200001070505032000EB
:1008E0000112011001000000088104020001000152
:1008F0000203010403300000002203490042004DBE
:10090000002000330032003700360020006F0072F4
:10091000002000330032003700380000006E03541E
:10092000006F006D00200057006F006E0067002D03
:100930000043006F0072006E0061006C006C002FBD
:1009400000500075007200640065006100200041E5
:10095000006E0064007200650069002F006B006D7E
:10096000006E006F00760032003000310037002F3B
:10097000006C006900730074006F0066006F007007
:1009800000740069006F006E00730000000403092A
:100990000464796E616D6963206D6163726F2072AA
:1009A00065636F7264696E673A207374617274650F
:1009B000640D0A0064796E616D6963206D61637214
:1009C0006F3A20736C6F74202564206C656E6774B9
:1009D000683A2025642F25640A0064796E616D6988
:1009E00063206D6163726F3A2069676E6F72696E22
:1009F000672061206C656164696E67206B65792D85
:100A00007570206576656E740D0A002900125D0010
:100A10000035001E001F00200021002200230024BA
:100A2000002500260027002D002E002A00000001CE
:100A300053155D0E5D0D5D39002B0014001A000882
:100A400000150017001C0018000C00120013002FE6
:100A50000030003100000049004C000F5D115DE1E5
:100A600000E10004001600070009000A000B000D59
:100A7000000E000F003300340028002800E500526B
:100A80000051000A5D095D025100001D001B0006B7
:100A90000019000500110010003600370038002C46
:100AA00000E3000000E60050004F000100010000DC
:100AB000000100010001000100010001000100012E
:100AC000000100010001000100010001000000011F
:100AD000000100010001000100010001000100010E
:100AE000000100010001001E001F002000010001A4
:100AF00000010001000000010001000100010001EF
:100B000000010001000100010001000100010021BD
:100B1000002200230001000100010001000100018A
:100B200000010001000100010000000100010001BE
:100B3000000100010001002400250026002700011B
:100B40000001000000010001000100005C015C00E8
:100B500000E85C3A003B003C003D003E003F0040A6
:100B600000410042004300440045004C00000001E9
:100B700000010001000100E0000100225D235D246E
:100B80005D255D265D275D285D295D2A5D2B5D0164
:100B9000000100010000000B5D0C5D01000100017F
:100BA0000001001A5D1B5D1C5D1D5D01000100015F
:100BB0000001000100AA00A900010001000100A934
:100BC00000AA0001000100010000001E5D1F5D2061
:100BD0005D215D010001000100AC00AB00AE000131
:100BE00000010000000100AC00AB000011241FBE9A
:100BF000CFEFDAE0DEBFCDBF04B603FE27C08091A1
:100C0000E9069091EA06A091EB06B091EC068730D8
:100C1000904BA740B04BD1F41092E9061092EA062F
:100C20001092EB061092EC0614BE84B7877F84BF47
:100C30000FB6F894A8958091600088618093600059
:100C4000109260000FBEE0E0F8E3099511E0A0E02B
:100C5000B1E0E2ECF6E602C005900D92A639B107CC
:100C6000D9F726E0A6E9B1E001C01D92A93EB2077E
:100C7000E1F70E946D290C9408330C940000FF9357
:100C8000EF93E0919601F0919701309709F0099563
:100C9000EF91FF910895FC018591803011F0EFDF15
:100CA000FBCF0895FF27E0E230E247FF0CC04195FB
:100CB00097FF09C0EDE26095709580959095611D54
:100CC000711D811D911D27FF02C0219530E350E267
:100CD000AA27660F771F881F991FAA1FA41710F055
:100CE000A41B63955A95A9F7AA3008F0A95FA05DE7
:100CF000AF93F395611571058105910541F7ED32CB
:100D000011F4EF93F395F21718F43F93F395FBCF9B
:100D10008F91B5DFFA95E1F70895E991F991859101
:100D2000803021F0853219F0AADFF9CF089520E054
:100D3000E89455915532C1F3503311F468945591AC
:100D40005A3348F4505390F3220F022E220F220FF1
:100D5000200D250FF4CF0EF42195899199915336EA
:100D600019F3533729F1533559F1BC0188279927D5
:100D7000E8945C3621F489919991689455915436A0
:100D800039F446EF7EF077FF0DC08FEF9FEF0AC07A
:100D900055374AE039F0583540E121F0523642E00B
:100DA00009F00895FF93EF937DDFEF91FF91B7CFA7
:100DB000FF93EF93FC0181918030B9F360DFFBCFAB
:100DC000FF93EF9368DFF1CFDF93CF93CDB7DEB71B
:100DD0002596A3DFCF91DF910895E8EDF0E08081C3
:100DE0008E7F80831092E2001092DA001092E10070
:100DF000A0EEB0E08C9181608C9380818F778083AE
:100E000019BCA7EDB0E08C918E7F8C9380818F7E92
:100E100080831092B60608952091E4003091E50099
:100E200095E6A9012091EC00822F817020FF06C079
:100E30008091E80080FF06C080E008952091E800DE
:100E400022FD1AC08091DC06882389F0853089F064
:100E50008091EB0085FD0FC02091E4003091E5000A
:100E600042175307F9F29150E1F684E0089582E0C9
:100E7000089583E0089581E00895EF92FF920F9323
:100E80001F93CF937C018B010E940C07C82F811107
:100E900017C08091E80085FD0BC08091E8008E7737
:100EA0008093E8000E940C07882399F3C82F08C09C
:100EB000F70181917F018093F1000150110949F7F9
:100EC0008C2FCF911F910F91FF90EF9008958091FB
:100ED000DE0687FF13C08091E80082FF06C0809184
:100EE000E8008B778093E80004C08091DC068111D4
:100EF000F2CF08958091DC068823D9F38091E80031
:100F000080FFF8CF8091E8008E77ECCF982F9093F8
:100F1000E900242F762F50E0891731F07091EC0012
:100F20002091ED005091F00021FD07C09F5F9730A8
:100F300071F78093E90081E008953091EB003E7FE6
:100F40003093EB003091ED003D7F3093ED00309118
:100F5000EB0031603093EB007093EC002093ED00D8
:100F60005093F0002091EE0027FDE0CF80E008953F
:100F7000CF92DF92EF92FF920F931F93CF93DF9365
:100F8000C8EDD0E088818F7E8883E7EDF0E0808136
:100F90008160808384E082BF81E08093B60688818F
:100FA0008E7F888302EE10E0F80110821092DA0042
:100FB00081EEC82ED12CF601108288818F7788832C
:100FC00088818068888388818F7D888319BC10928E
:100FD000DC061092DD061092DA061092D90690EE29
:100FE000E92EF12CF70180818B7F808388818160DD
:100FF000888342E060E080E00E948607F6018081FD
:101000008E7F8083F8018081816080838081886009
:101010008083F70180818E7F8083888180618883CF
:10102000DF91CF911F910F91FF90EF90DF90CF90C4
:101030000895FC018091E4069091E50686179707D4
:10104000A0F06115710529F49091E8009E779093C6
:10105000E80090E06115710551F4911108C080918C
:10106000E80082FF34C080E00895BC01F2CF809197
:10107000DC068823C1F18530C1F18091E80083FD51
:1010800030C08091E80082FDEACF8091E80080FFC7
:10109000E1CF8091F3002091F200382F61157105A6
:1010A00019F02830310558F091E02830310509F069
:1010B00090E02091E8002E772093E800CBCF81913B
:1010C0008093F100615071092F5F3F4FE7CF80910E
:1010D000DC06882341F0853041F08091E80083FFF1
:1010E000BECF81E0089582E0089583E00895809165
:1010F000DC06843011F482E0089581E00895809147
:10110000B806089590919105803F41F48091920531
:1011100087FD10929205992371F00895813F29F47B
:10112000809192051816ACF3F6CF823F81F497FFB9
:10113000F2CF109291058091920590919305892BA1
:1011400090919405892B49F710928C050895833F5F
:1011500019F4191674F3DFCF893F39F480919305A0
:101160001816CCF610929305D6CF8A3F29F48091B9
:10117000930587FFD0CFF6CF8B3F39F4809194054C
:1011800087FFC9CF10929405C6CF8C3F29F4809178
:1011900094051816BCF3BFCF843F31F480919005BD
:1011A0008E7F80939005B7CF853F21F48091900585
:1011B0008D7FF7CF863F21F4809190058B7FF1CF13
:1011C000873F21F480919005877FEBCF883F21F402
:1011D000809190058F7EE5CF8D3F31F4809156054B
:1011E0008E7F8093560597CF8E3F21F480915605D0
:1011F0008D7FF7CF8F3F09F08ECF809156058B7F83
:10120000F0CF8091560580FD16C081FD16C082FD8D
:1012100016C080918C058823A1F0883280F428E0E4
:10122000829FC001112468E270E00E948932862FFB
:10123000672B39F0089582E0089584E0089588E0EE
:10124000089581E008958091560580FD14C081FDC8
:1012500014C082FD16C080918C05882381F08431F2
:1012600080F422E3829FC001112464E170E00E94B7
:101270008932862F08958CE0089589E1089585E0EC
:10128000089582E30895803F31F40E9423098195F7
:10129000809392050895813F19F40E942309F8CFA5
:1012A000823F31F40E94230981958093910508952E
:1012B000833F19F40E942309F8CF893F29F40E9443
:1012C00001098093930508958A3F21F40E94010942
:1012D0008195F7CF8B3F31F40E940109819580936E
:1012E000940508958C3F19F40E940109F8CF843FBA
:1012F00031F4809190058160809390050895853F39
:1013000021F4809190058260F7CF863F21F480918F
:1013100090058460F1CF873F21F48091900588602B
:10132000EBCF883F21F4809190058061E5CF8D3F20
:1013300031F48091560581608093560508958E3F63
:1013400021F4809156058260F7CF8F3FB9F78091E5
:1013500056058460F1CF87E797E790930108809363
:10136000000888E19AE00FB6F894A8958093600091
:101370000FBE90936000FFCF9C014FB7F89480910F
:10138000520590915305A0915405B09155054FBF5A
:10139000821B930B08952FB7F8948091520590917A
:1013A0005305A0915405B09155052FBF089582951E
:1013B00090E09C01220F331F220F331F2C7C959548
:1013C0008795959587958373282B30E0C901880F01
:1013D000991F8A7A359527952575822B08958091D6
:1013E0004D05811110924D05089524E1929F800DC5
:1013F0001124982F977086958695869525E0829F73
:10140000F0011124ED5EFA4F50E040E080E02191C0
:1014100030E0092E02C0369527950A94E2F7217034
:101420003327042E01C0220F0A94EAF7822B4F5F64
:101430005F4F4530510559F7089524E1929F800D83
:101440001124982F977041E001C0440F9A95EAF754
:1014500086958695869595E0899FF0011124ED5E2D
:10146000FA4F90E080E070E05191DF0111979B010D
:10147000082E02C0369527950A94E2F7217021952F
:101480002527242325272C9301968530910561F784
:101490000895809112059091E104981301C0089578
:1014A0008F5F8770FACF2091D4013091D501281732
:1014B000390771F09093D5018093D401E0917505BF
:1014C000F0917605309721F00084F185E02D0994A4
:1014D00008952091D2013091D3012817390771F076
:1014E0009093D3018093D201E0917505F091760538
:1014F000309721F00680F781E02D09940895E0915E
:101500007505F0917605309721F00190F081E02D7E
:10151000099480E0089580915F0582FD04C0909158
:10152000CF01911112C082FF04C08091CE018111C0
:101530000CC081E08093CF018093CE010E94CB0943
:101540009093CD018093CC015A9A0895811522E59C
:10155000920780F48115E1E59E07E8F4803E91054D
:1015600038F0883E9105B8F090548115904170F0A4
:1015700081E019C0811528E59207D0F38115E9E5CE
:101580009E0758F090568115904290F7FB01958187
:10159000907F81E041F480E00895FB019581907F88
:1015A00081E09035C1F7089580915E0580FF06C007
:1015B0008091DB06813011F45B9A08955B98089561
:1015C0000E94D40A539A08959091730592FF06C021
:1015D000282F28712830F9F4877F846093FF06C094
:1015E000282F28712831F1F4877E846120917405B9
:1015F00020FF06C0382F38713830D9F4877F8160DA
:1016000021FF06C0282F28712831D1F4877E8161FF
:1016100094FD877E0895282F24712430F9F68B7F5E
:101620008860DCCF282F2471243101F78B7E8861FC
:10163000DDCF382F3171313019F78E7F8860E0CFE0
:10164000282F2171213121F78E7E8861E1CFCF9340
:10165000DF93972F70E024E1929F600D711D11249C
:10166000FB0130E5839FE00DF11D1124EE0FFF1FFC
:10167000E55FF54FC591D491CE01C238D105B9F1DE
:10168000E8F5C133D10509F499C050F5C932D10547
:1016900009F48DC0CA32D10509F497C0C11521E5FE
:1016A000D20708F0BFC0C11530E5D30708F016C156
:1016B000C83ED10508F09DC0C03ED10568F5C83AC6
:1016C000D10508F089C0C53AD10508F0FFC0C13086
:1016D000D10511F1209709F443C02497E8F440C0E4
:1016E000C533D10509F45CC0C933D105B9F62091E1
:1016F0007305237089F080EE90E00EC0C33ED105E3
:1017000091F168F4C03ED105F9F0C23ED10531F641
:101710002091730522FD20C0DF91CF910895C63E30
:10172000D10561F1C73ED10581F1C43ED10509F073
:10173000B5CF2091740521FFEFCF8091730584FD13
:101740000FC087EE90E0E8CF2091730520FD12C115
:101750003091740530FFE0CF83EE90E024FFDCCFC2
:1017600090E080E0D9CF2091730522FD06C1309131
:10177000740530FDC0CF24FFCFCFF2CF2091730589
:1017800023FFCACF24FDECCFDCCF2091730523FDCE
:10179000F7C03091740531FFEECF84EE90E0BCCFFE
:1017A0002091730525FFB8CF89E290E0B5CF209155
:1017B000730525FFB1CF85E390E0AECF209173058F
:1017C00026FFAACF8AE290E0A7CF2091730526FFDB
:1017D000A3CF81E390E0A0CFCF3BD10508F6C85A54
:1017E000D0E0CC0FDD1FCF5ADE4F88819981946401
:1017F00093CFC11520E2D20760F4C11531E0D307C1
:1018000008F08ACFCE019065C03FD10508F084CFA3
:10181000A7CFC11580E4D80708F4A2CFCE019F70EE
:10182000906A7ACFC11595E5D90710F5C11524E561
:10183000D20708F088C0C11533E5D30708F06FC0A0
:10184000C11582E5D80708F465C09E0123703327CF
:1018500081E090E002C0880F991F2A95E2F7C695B3
:10186000C69520E2C29FE00111248C2B9D2B50C015
:10187000C11599E5D907A0F4C11528E5D20708F0EC
:1018800067C0C11536E5D30708F06ACF8C2F0E94D8
:10189000E40A90E0982F882788279F7190623CCFB8
:1018A000C1158AE5D80708F458C0CE0190568115B5
:1018B000904208F055CF8D2F8F710E94E40A90E07E
:1018C000982F882788279F718C2BE8CFC55AD0E0A6
:1018D000C25BDE4F888190E090641ECF9E01E4E001
:1018E00036952795EA95E1F723708C2F8695869596
:1018F000837030E2839FC0011124922BC37021E0DA
:1019000030E002C0220F331FCA95E2F7822B932BDF
:101910009C6802CF9C2F8827816F906AFDCE9E0124
:101920002370332781E090E002C0880F991F2A9529
:10193000E2F7C695C69530E2C39FE00111248C2BD7
:101940009D2B9A68E9CE9C2F8827846F906AE4CEFD
:101950009C2F8827806F906ADFCE8C2F8F700E941B
:10196000E40A34E0D695C7953A95E1F7CF709C2FFD
:101970009069D2CE89E390E0CFCE82EE90E0CCCEDB
:1019800086EE90E0C9CEBF92CF92DF92EF92FF92A7
:101990000F931F93CF93DF938C01C0904505D09098
:1019A0004605E0904705F090480580914E059091DE
:1019B0004F05A0915005B0915105C82AD92AEA2AAD
:1019C000FB2ACFE1D0E0BC2ED701C6010C2E04C00B
:1019D000B695A795979587950A94D2F780FD0EC086
:1019E000219788F7B12C8B2DDF91CF911F910F910B
:1019F000FF90EF90DF90CF90BF900895B8018C2FAB
:101A00000E94270B019761F3EECFCF93DF93EC0198
:101A10000E94C30CBE01DF91CF910C94270B0E9452
:101A2000050D292F2F7092959F7092509E3078F45B
:101A3000E92FF0E0E65FFC4C0C949D32803F19F0FA
:101A400020F4883E20F481E00895843FE1F380E0B3
:101A50000895883EC0F3813FD1F7F5CF822F869558
:101A600086958695089581FB222720F982FB992788
:101A700090F980FF08C05F9A222339F0769A992363
:101A800031F02E9A08955F98F7CF7698F8CF2E9878
:101A900008951F93CF93DF9300D000D00F92CDB75E
:101AA000DEB749835A8389819A81662321F10E9496
:101AB000C30C182F682F89819A810E941D0A8A8180
:101AC000E981F0E094E1899FE00DF11D112480E5AA
:101AD000189FE00DF11D1124EE0FFF1FE55FF54F7C
:101AE000859194910F900F900F900F900F90DF9130
:101AF000CF911F9108950E94F509182FE0CF2A98E1
:101B000088E190E0299A29980197E1F78F9A8F98B8
:101B1000089596B189B192959470282F26952870D2
:101B2000922B8370892B08950F931F93CF93DF938C
:101B3000F901A091E606B091E7063091E806317010
:101B4000228121110EC08A179B0759F4332309F40F
:101B50006CC08AED99E0DF91CF911F910F910C94A9
:101B60004B0626E04202E00111248D010C1B1D0BE7
:101B70006017710779F056E001900D925A95E1F7E0
:101B8000E091E606F091E706EC0FFD1FF093E70603
:101B9000E093E606332309F448C0E42F042E000C3A
:101BA000FF0B681B790B75956795ABEABAEA6A9FDC
:101BB00090016B9F300D7A9F300D11242E9FB00144
:101BC0002F9F700D3E9F700D11246F5F7F4F2091EE
:101BD000E6063091E706281B390B359527952A9F95
:101BE000C0012B9F900D3A9F900D11248E9F900164
:101BF0008F9F300D9E9F300D112482E0413009F4FB
:101C000081E07F936F933F932F931F928F9384EB89
:101C100099E09F938F930E94E4068DB79EB7089634
:101C20000FB6F8949EBF0FBE8DBFDF91CF911F916D
:101C30000F9108958091E80683FF7EC08CE397E0C2
:101C40000E944B06809190051F928F9387E397E047
:101C50009F938F930E94E40685E397E00E944B06D2
:101C600080919105282F082E000C330B3F938F9302
:101C700082E397E09F938F930E94E40680E397E0CE
:101C80000E944B0680919205282F082E000C330BE2
:101C90003F938F938DE297E09F938F930E94E4068A
:101CA0008BE297E00E944B0680919305282F082E27
:101CB000000C330B3F938F9388E297E09F938F93B1
:101CC0000E94E40686E297E00E944B06809194050C
:101CD000282F082E000C330B3F938F9383E297E05D
:101CE0009F938F930E94E40680E297E00E944B0648
:101CF00080918C051F928F938DE197E09F938F9336
:101D00000E94E4068BE197E00E944B068091560505
:101D10001F928F9388E197E09F938F930E94E40630
:101D200085E197E00E944B068DB79EB74C960FB6A3
:101D3000F8949EBF0FBE8DBFE0917505F0917605BA
:101D4000309749F082E080938F050480F581E02D83
:101D50008FE895E009950E94CB0990938B058093BD
:101D60008A050895EF92FF920F931F93CF93DF930D
:101D700080914C0590914B05892B90914A05892BB8
:101D80008093980190914D059923B1F0892B809310
:101D9000980180911001882309F45DC0809173053A
:101DA00087FF59C08EE1EAE9F1E090E0815008F048
:101DB00054C091110E94EF09E0917505F0917605EC
:101DC000309709F450C080911001882359F0809118
:101DD000730587FF07C0809198018093990185E082
:101DE000809398010280F381E02D88E991E00995C4
:101DF0008091E80682FF37C080FF04C083E097E04F
:101E00000E944B06C8E9D1E080EAE82E81E0F82E76
:101E10000DEF16E08091E80680FF0BC088811F92CD
:101E20008F931F930F930E94E4060F900F900F90D3
:101E30000F902196EC16FD0669F78091E80680FF69
:101E400012C08BEF96E0DF91CF911F910F91FF9021
:101E5000EF900C944B0686E0A6CF2191222309F443
:101E6000A5CF9F5FA3CFDF91CF911F910F91FF90DF
:101E7000EF90089510924B0510924A050E94B20E01
:101E800086E0EFE8F5E0DF011D928A95E9F7109210
:101E90008C05109256050E941A0E90E080E00E9478
:101EA000690A90E080E00C94530A609345057093B2
:101EB000460580934705909348050C943A0F0F937D
:101EC0001F9341E050E060E070E004C0440F551FF4
:101ED000661F771F8A95D2F7CB01BA01609570957E
:101EE00080959095009145051091460520914705F4
:101EF0003091480560237123822393231F910F9112
:101F00000C94550F9091490580958923809349053C
:101F1000282F277071F4282F082E000C330B9217EE
:101F2000130639F08595859585950E945F0F10926F
:101F3000490508950F931F9341E050E060E070E081
:101F400004C0440F551F661F771F8A95D2F78091F2
:101F5000450590914605A0914705B09148058A0135
:101F60009B01082B192B2A2B3B2BC901B8011F9170
:101F70000F910C94550F60934E0570934F0580930D
:101F80005005909351050C943A0F882341F08095A9
:101F900090914C05892380934C050C94B20E0895C2
:101FA000882339F090914C05982B90934C050C9414
:101FB000B20E089590911001992359F190917305F3
:101FC00097FF27C0E82FE695E695E695EE3180F479
:101FD000F0E0E856FE4F282F277081E090E001C026
:101FE000880F2A95EAF78095928189238283089544
:101FF0009091E80690FF19C01F928F938DED96E0A7
:102000009F938F930E94E4060F900F900F900F9074
:102010000895EAE9F1E09191891303C0DF01119776
:102020001C9291E0E03AF907B1F708959091100100
:10203000992349F19091730597FF25C0E82FE69504
:10204000E695E695EE3170F4F0E0E856FE4F8770C5
:1020500021E030E001C0220F8A95EAF78281822BCD
:10206000828308959091E80690FF1EC01F928F937F
:102070008FEB96E09F938F930E94E4060F900F9052
:102080000F900F900895AAE9B1E0EFEF90E02D9145
:10209000821751F0EF3F19F4211101C0E92F9F5F22
:1020A0009630A9F7EF3F09F408950E2E000CFF0BB0
:1020B000E856FE4FD5CF882309F459C0823871F411
:1020C0000E947F0A81FF53C089E30E9416100E947C
:1020D000B20E89E30E94DA0F0C94B20E833859F4E1
:1020E0000E947F0A80FF43C083E50E9416100E9471
:1020F000B20E83E5EFCF843859F40E947F0A82FF45
:1021000036C087E40E9416100E94B20E87E4E2CF28
:102110009CEF980F913AF0F290E2980F983088F483
:10212000877021E030E0A90102C0440F551F8A9555
:10213000E2F7CA01809590914C05892380934C0564
:10214000CBCF9BE5980F933020F490E080E00C9487
:10215000690A98E5980F973120F490E080E00C949C
:10216000530A803F20F00E9482080C941A0E0895B2
:102170009F92AF92BF92CF92DF92EF92FF920F9316
:102180001F93CF93DF938C01EB01942E79016AEFBB
:102190004602600111248091E8068170C017D107C2
:1021A00039F05E01AC0CBD1CF5019281911139C072
:1021B000882341F1CE01801B910B959587952BEAE1
:1021C0003AEA829FA001839F500D929F500D1124E7
:1021D000692D64039001659F300D112481E09816EC
:1021E00041F182E03F932F931F928F9388ED93E00C
:1021F0009F938F930E94E4060F900F900F900F9083
:102200000F900F90F701D183C083DF91CF911F9181
:102210000F91FF90EF90DF90CF90BF90AF909F9085
:102220000895882321F082E094E00E944B06E501A6
:10223000B2CF81E0D7CF9FB7F8941092B4069FBF7A
:102240009091DC06943009F048C02091E9002F708D
:102250003091EC00932F917030FD90E8922B25E0A7
:102260002093E9002091EB0020FF34C02091EE0084
:1022700027FF30C020915705222321F02091E8004C
:1022800025FF28C01092570526E03091E80035FF61
:1022900014C08093F1008091E80085FD27C08091F3
:1022A000E80080FFFCCF8091E8008E778093E80003
:1022B0009F709093E90080E008953091DC063430FF
:1022C00049F43091EB0035FD05C0215041F481E027
:1022D000809357059F709093E9008FEF0895EFE981
:1022E000FFE03197F1F700C00000CFCF8FB7F8942F
:1022F00021E02093B4068FBFDBCFCF93DF9300D0D4
:102300000F92CDB7DEB79091DC06943011F589833A
:102310007B836A839093E9008FEF9091E80081506E
:1023200095FD06C095ED9A95F1F700008111F5CF66
:102330008091E80085FF0DC050E040E063E070E070
:10234000CE0101960E943D078091E8008E77809330
:10235000E8000F900F900F90DF91CF910895CF93E9
:10236000DF93EC010E947708823011F0843031F461
:10237000BE0184E0DF91CF910C947D11DF91CF916C
:102380000895BC0183E00C947D11CF93DF93EC01A1
:102390000E947708823011F08430F9F484E0809351
:1023A000E9008FEF9091E800815095FD06C095ED12
:1023B0009A95F1F700008111F5CF8091E80085FF33
:1023C0000CC050E040E066E070E0CE010E943D07A6
:1023D0008091E8008E778093E800DF91CF91089597
:1023E000CF93DF93EC010E947708823011F08430A4
:1023F000B9F5809110018823B1F18091730587FFB1
:1024000032C060E284E08093E9008FEF9091E800B1
:10241000815095FD06C095ED9A95F1F70000811168
:10242000F5CF8091E80085FF1BC08091100170E01E
:1024300050E040E0811104C050E040E068E070E00E
:10244000CE010E943D078091E8008E778093E800DE
:1024500080E2FE01A9EBB6E001900D928A95E1F7CA
:10246000DF91CF91089568E081E0CDCFCF93C82F61
:10247000882309F4AEC08238C1F40E947F0A81FD2E
:10248000A8C089E30E9416100E94B20E2FEF81EEC1
:1024900094E0215080409040E1F700C0000089E3C3
:1024A0000E94DA0FCF910C94B20E8338A1F40E94EF
:1024B0007F0A80FD8EC083E50E9416100E94B20E36
:1024C0002FEF81EE94E0215080409040E1F700C072
:1024D000000083E5E5CF8438A1F40E947F0A82FDE5
:1024E00078C087E40E9416100E94B20E2FEF81EE92
:1024F00094E0215080409040E1F700C0000087E464
:10250000CFCF8CEF8C0F813A88F580911001882312
:1025100001F18091730587FF1CC0EC2FE695E695CD
:10252000E695F0E0E856FE4F828190E04C2F477030
:1025300021E030E002C0220F331F4A95E2F78223E8
:102540009323892B79F08C2F0E94DA0F0E94B20E10
:1025500009C0EAE9F1E08191C817A9F321E0E03A66
:10256000F207C9F78C2F0E9416109CCF80E28C0FC7
:10257000883068F4C77021E030E001C0220FCA95AE
:10258000EAF780914C05822B80934C058BCFEBE5CD
:10259000EC0FE33040F4F0E0E25BFE4F808190E02E
:1025A000CF910C94690AE8E5EC0FE73150F4F0E0C4
:1025B000EE0FFF1FEF5AFE4F80819181CF910C9457
:1025C000530AC03F30F08C2F0E944309CF910C94E6
:1025D0001A0ECF910895CF93C82F0E943612C93397
:1025E00049F42FEF87EE93E0215080409040E1F7CF
:1025F00000C000008C2FCF910C945B100F931F93A1
:10260000CF93DF93C62FD42F022FFC018281882322
:10261000A1F06093D7040E94CB099093D1018093DD
:10262000D001C77081E001C0880FCA95EAF7DF9139
:10263000CF911F910F910C94D00F1091D7041613C6
:1026400035C08091D0019091D1010E94BC09883C95
:10265000910560F5C0E2CD0F1D17B9F080E2810F42
:10266000883040F4177081E001C0880F1A95EAF7AE
:102670000E94C50FC83048F481E09D2F977001C0BB
:10268000880F9A95EAF70E94D00F802F0E94EB12D4
:10269000C83098F4D77081E001C0880FDA95EAF766
:1026A000DF91CF911F910F910C94C50FC77081E0FE
:1026B00001C0880FCA95EAF7F3CFDF91CF911F9140
:1026C0000F910895CF92DF92EF92FF920F931F9395
:1026D000CF93DF93EC018AE0C82EFE01849188231A
:1026E00009F483C0813009F040C031968491813073
:1026F00051F42296FE011491812F0E943612812FEF
:102700000E945B1007C0823039F42296FE0184914A
:102710000E9436122196E1CF833021F42296FE01E9
:102720008491EECF843009F05EC02296FE012491A0
:1027300090E080E0FE0131962053330B2A303105C2
:1027400048F0019738F3EFE9FFE03197F1F700C067
:102750000000F7CFC89EA001C99E500D1124C901E9
:10276000840F951F2491EF01E5CFE82FF0E0E45F9F
:10277000FD4FD490082F06950695069510E0F801B8
:10278000E450FE4FE4908770F12C082E02C0F594BF
:10279000E7940A94E2F721E0E222FF2404511E4F5D
:1027A000F801049110E002C0159507958A95E2F7AB
:1027B00001701127E114F10419F081EE0E94361224
:1027C0000115110519F086EE0E9436128D2D0E941A
:1027D000EB12012B19F086EE0E945B1081EEEF28C0
:1027E00009F498CF8DCFEF0195CFDF91CF911F9155
:1027F0000F91FF90EF90DF90CF900895EF92FF92AE
:102800000F931F93CF93DF9300D00F92CDB7DEB716
:102810007A0127E130E090E08217930709F044C085
:102820002A9A299A299821503109B0F76F5F7F4F72
:10283000FE01319680E090E0F89416B109B1119351
:1028400001938F9A16B109B1108300830196861700
:102850009707C0F378948F980E947F0D8AE28A953B
:10286000F1F700C0812F82958470102F1695187093
:10287000812B0370802BE114F10461F02A8199818E
:1028800092959470322F36953870932B2370922B3B
:10289000F70190830F900F900F90DF91CF911F91D0
:1028A0000F91FF90EF9008952A98BBCF90638E9878
:1028B00020E130E097FF0EC02A9A880F991F299ACD
:1028C000299821503109B1F78E9A8AE28A95F1F759
:1028D00000C008952A98F1CF2F923F924F925F92B5
:1028E0006F927F928F929F92AF92BF92CF92DF9220
:1028F000EF92FF920F931F93CF93DF93CDB7DEB785
:102900002B970FB6F894DEBF0FBECDBF8D836A83C1
:102910005C834B83CC24CA94EFE0DE2EEE24EA9451
:10292000FE2C662329F0C12C70E1D72EF12CE12C6E
:10293000412C512C3201439487010C0D1D1D1F8326
:102940000E831A812E813F81112309F496C037FF2F
:1029500004C02F5F3F4F3F832E830E811F8115954B
:1029600007951B870A878A859B850E9456149BE0E2
:10297000292E9AE0392E912C812CB301A201082C2A
:1029800004C0440F551F661F771F0A94D2F7AB810E
:10299000BC81510183E090E019820B811C81012BE5
:1029A00069F00D911D912D913C91139704231523EE
:1029B00026233723012B022B032BB1F0F5012591A0
:1029C0003491232B89F093018201082E04C0000F5B
:1029D000111F221F331F0A94D2F70E831F832887EB
:1029E00039871981102B19830197149628E2A20EBA
:1029F000B11C8F3F980789F61D818981182303E058
:102A0000080D0983AA24A394B12C00E02A8150E088
:102A100040E064E070E089812223B1F10E94FE135E
:102A2000812391E009F090E0090FC501801B910915
:102A30000997E4F1EA84FB843FEFE31AF30AEC140C
:102A4000FD040CF479CFC7012B960FB6F894DEBFC6
:102A50000FBECDBFDF91CF911F910F91FF90EF90EF
:102A6000DF90CF90BF90AF909F908F907F906F90AE
:102A70005F904F903F902F9008952F5F3F4F359577
:102A800027953B872A876FCF0E94FE13812391E011
:102A9000811390E0090FC501801B9109099734F05B
:102AA000CA84DB8481E0C81AD108C9CF093040F458
:102AB0009FEFA91AB90A21E1A216B10409F0A6CF25
:102AC0003FEF831A930A82E0280E311C94E18916A5
:102AD000910409F052CF0A81011103C0EA84FB84FA
:102AE000AECFCA84DB84ABCF2F923F924F925F92DE
:102AF0006F927F928F929F92AF92BF92CF92DF920E
:102B0000EF92FF920F931F93CF93DF9300D000D0EB
:102B100000D0CDB7DEB77C01162FC42E0E9456140C
:102B2000C7010E9456142BE0E22E2AE0F22E40E16B
:102B3000149FB0011124CB018A559A4F9E838D8337
:102B400010E000E0812C912C54018394D12C43E0BF
:102B5000642E712C19821A821B821C8283E0582EEB
:102B6000500E90E1492E50E040E064E070E0852D89
:102B70000E94FE13FE01319623E030E090E0AC01AC
:102B8000022E02C0559547950A94E2F740FF03C014
:102B900040814F5F40832150310931962F3F3207EA
:102BA00071F74A944110DFCF14012501002E04C0B3
:102BB000220C331C441C551C0A94D2F7AD81BE81F3
:102BC000970190E080E0F90145915491452B11F176
:102BD000A301481B590BB60102C0759567954A952C
:102BE000E2F760FF17C0E1E0F0E0EC0FFD1FE80F37
:102BF000F91F4081493070F04D915D916D917C914C
:102C0000139742295329642975294D935D936D9338
:102C10007C9313970196285D3F4F1496843091055D
:102C200091F60F5F1F4F72E0E70EF11C04311105A2
:102C300009F090CF26960FB6F894DEBF0FBECDBF39
:102C4000DF91CF911F910F91FF90EF90DF90CF9088
:102C5000BF90AF909F908F907F906F905F904F90BC
:102C60003F902F90089590E0DC0124E0AA0FBB1F55
:102C70002A95E1F7AA55BA4F70E0FB0134E0EE0F58
:102C8000FF1F3A95E1F7EA55FA4F20E101900D92C6
:102C90002A95E1F7660F771FFB01EA56F94F20816D
:102CA0003181880F991FFC01EA56F94F3183208347
:102CB000640F751FFB0120813181840F951FFC017A
:102CC000318320830895CF9384E090E00E94A33263
:102CD000C82F81E290E00E94A332982F8C2FCF91D1
:102CE000089510924C0580911001EAE9F1E08823E3
:102CF00059F08091730587FF07C08EE1DF011D92B7
:102D00008A95E9F70C943A0F86E0F8CFCF93DF93DA
:102D1000EC018091E80680FF04C081E999E00E94FF
:102D20004B060E94711660E070E0CB010E94550FC7
:102D3000D093E706C093E606DF91CF9108951F93E5
:102D4000CF93DF93CDB7DEB7AA970FB6F894DEBF67
:102D50000FBECDBF8EED96E02091F100DC012D93EA
:102D6000CD01B6E0863E9B07B9F78091DF06833040
:102D700009F471C0B8F4813009F448C0823009F414
:102D8000B2C08091E80083FF3AC18091DE06909145
:102D9000DF069A3008F033C1E92FF0E0E85EFC4C22
:102DA0000C949D328A3009F48DC08B3009F470C0C8
:102DB000893039F78091DE06813219F78091E20679
:102DC0009091E306009711F00297D9F68091E80000
:102DD000877F8093E8008091E80082FF37C0909160
:102DE000F3008091F200029729F48091F1008B7F2B
:102DF000813021F48091F1008093B8068091E80041
:102E00008B778093E8000E946707BBCF8091DE0636
:102E1000813A09F0B6CF8091E800877F8093E8007F
:102E20008091E2069091E306892B61F460E289EBE0
:102E300096E070E00E9419088091E8008B778093FB
:102E4000E8009FCF60E090E080E0F3CF8091DC0667
:102E50008111C1CF96CF8091DE06813A09F091CFE2
:102E60008091E2069091E306892B09F08ACF809148
:102E7000E800877F8093E8008091E80080FFFCCF26
:102E8000809110018093F1008091E8008E77B9CF96
:102E90008091DE06813209F074CF8091E206909134
:102EA000E306892B09F06DCF8091E800877F80933E
:102EB000E8000E9467078091E006809310010E945D
:102EC00071165FCF8091DE06813209F05ACF809172
:102ED000E800877F8093E8000E9467078091E10601
:102EE0008093B7064ECF8091DE06813A09F049CF34
:102EF0008091E800877F8093E8008091E80080FF60
:102F0000FCCF8091B706BECF803899F0823809F0A7
:102F100076C08091E2068F70873008F070C0809391
:102F2000E9008091EB0085FB882780F91092E90089
:102F300006C08091D9069091DA0691118260909135
:102F4000E800977F9093E8008093F1001092F100E1
:102F50008091E8008E77CFC1882309F4BCC182300C
:102F600009F04DC08091E0068111C0C18091E20658
:102F70008F702FEF280F263008F041C08093E900B2
:102F80002091EB0020FFB2C1933031F48091EB002F
:102F900080628093EB00AAC19091EB0090619093C6
:102FA000EB0021E030E001C0220F8A95EAF7209380
:102FB000EA001092EA008091EB008860EACF81116C
:102FC0001EC01091E0061F778091E3008078812B6E
:102FD0008093E3008091E800877F8093E8000E945F
:102FE00067078091E80080FFFCCF8091E300806854
:102FF0008093E30082E0111183E08093DC068091EE
:10300000E80083FF0AC08091E800877F8093E80092
:103010008091EB0080628093EB00AA960FB6F89443
:10302000DEBF0FBECDBFDF91CF911F9108958058B5
:10303000823028F72091E0063091E1062C3DE3E054
:103040003E07A1F583E08A838AE289834FB7F8942B
:10305000DE01139620E03EE051E2E32FF0E05093D2
:103060005700E49120FF03C0E295EF703F5FEF70DF
:103070008E2F90E0EA30C0F0C7968D939D932F5F1E
:10308000243159F74FBF8091E800877F8093E80093
:103090006AE270E0CE0101960E9419088091E80072
:1030A0008B778093E800ABCFC096E7CF8091E206A4
:1030B0009091E306432F55274330510509F44AC048
:1030C00078F54130510509F485C08BE790E0E6E6DC
:1030D000F8E04230510509F092CF2091E800277FB7
:1030E0002093E8002091E4063091E50682179307CB
:1030F00008F49C0140E02115310509F070C0411130
:103100006EC08091E80082FDC9CF8091DC068823E3
:1031100029F2853019F28091E80083FFF2CFBECF0B
:103120004132510509F447C04232510509F067CFD9
:103130008430910508F063CFFC01EE0FFF1FEB57C1
:10314000FE4F0190F081E02D8F579E4FDC018C9156
:1031500090E01DC0332721303105E9F021153105FC
:1031600079F022303105F9F02330310509F047CFED
:10317000E3EFF8E0E4918E2F90E0E3EFF8E007C092
:10318000EDE8F9E0E4918E2F90E0EDE8F9E00097AA
:1031900009F435CFA2CFEDE1F9E0E4918E2F90E074
:1031A000EDE1F9E0F4CFE9EFF8E0E4918E2F90E063
:1031B000E9EFF8E0ECCF8430910508F020CF880FDC
:1031C000991FFC01E357FE4F0190F081E02D89E04B
:1031D00090E083CF82E190E0E1EEF8E07ECF809155
:1031E000DC06882309F45ACF853009F457CF809143
:1031F000E80083FD53CF8091E80082FD82CF80916B
:10320000E80080FF78CF9091F3008091F2002115C3
:10321000310519F08830910550F041E0089709F028
:1032200040E08091E8008E778093E80064CF44917D
:103230004093F1003196215031090196E8CF803852
:1032400009F0DDCE8091E800877F8093E8008091CF
:10325000DD068093F1007CCE8111D1CE1091E00685
:10326000123008F0CCCE8091E800877F8093E80090
:103270001093DD060E946707112311F084E005C05A
:103280008091E30087FDFACF81E08093DC0642E085
:1032900061EC81E00E94860742E261EC84E00E94DA
:1032A000860742E261EC82E00E94860742E260EC1F
:1032B00083E00E94860742E261EC85E00E94860777
:1032C0009091DC0681E0943009F080E08093DB0689
:1032D0000E94E00A94CE8091E006813009F08FCE02
:1032E00081E0933009F080E08093DA061092E900E3
:1032F0008091E800877F8093E8000E9467077FCE77
:103300002F923F924F925F926F927F928F929F92F5
:10331000AF92BF92CF92DF92EF92FF920F931F93E3
:10332000CF93DF93CDB7DEB72A970FB6F894DEBF01
:103330000FBECDBF9F838E8380E1EE81FF8111920E
:103340008A95E9F786E996E09B838A8396EA292E97
:1033500095E0392E812C912C54018394EA81FB81D4
:1033600081919191FB83EA830E94561410E000E062
:10337000F3E0F00FFA87088724013501002E04C01E
:10338000440C551C661C771C0A94D2F7CE80DF8053
:103390003D822C8283E0E82EF12C80E0EC81FD81DF
:1033A0004191519161917191FD83EC8344215521AB
:1033B00066217721452B462B472BD9F181110AC075
:1033C000AE014F5F5F4F64E070E08A850E94FE139C
:1033D00080958987898190E00E2C02C0959587950C
:1033E0000A94E2F780FD24C0F9858F2F90E00E2C1F
:1033F00002C0959587950A94E2F781709927092E66
:10340000000CAA0BBB0B088404C0880F991FAA1FCD
:10341000BB1F0A94D2F7F60140815181628173810A
:10342000842B952BA62BB72B80839183A283B38308
:1034300081E0F4E0CF0ED11C21E0E21AF10808F09F
:10344000ADCF0F5F1F4F0431110509F091CFE0E1BF
:103450002E0E311C8A819B81845B964009F07ECFC1
:103460002A960FB6F894DEBF0FBECDBFDF91CF9185
:103470001F910F91FF90EF90DF90CF90BF90AF9092
:103480009F908F907F906F905F904F903F902F9084
:1034900008957F928F929F92AF92BF92CF92DF92C8
:1034A000EF92FF920F931F93CF93DF938091C80108
:1034B000811186C02FB7F8948091520590915305E1
:1034C000A0915405B09155052FBF80319742A105B9
:1034D000B10508F475C080915D058F9380915C05FE
:1034E0008F9381EE92E09F938F930E94E4068091E8
:1034F00059058F93809158058F9380915B058F9329
:1035000080915A058F938BEB92E09F938F930E944B
:10351000E40606E916E096EAE92E95E0F92E8DB765
:103520009EB70A960FB6F8949EBF0FBE8DBFD0E02F
:10353000C0E024E9C22E22E0D22E3CE8A32E32E0E5
:10354000B32ED8018C9111969C910E5F1F4F9F93C3
:103550008F93DF93CF93DF92CF920E94E4060F9078
:103560000F900F900F900F900F90470184E0782EEE
:10357000D4018C9111969C91119712962C911297CF
:1035800013963C91B4E08B0E911C3F932F939F9325
:103590008F93BF92AF920E94E4067A940F900F909F
:1035A0000F900F900F900F907110E2CF2196E0E1F5
:1035B000EE0EF11CCF30D10521F681E08093C801D9
:1035C00080910501882309F47DC083E695E00E947F
:1035D0008019E8EBF1E023E635E010E041915191EC
:1035E00061917191E90189919991A991B9919E0196
:1035F000481759076A077B0709F011E0AF014450EB
:103600005109EA0188839983AA83BB83D1E0E83C0E
:10361000FD0721F7112309F45DC081E08093CB0100
:103620000E94CB099093CA018093C9018091C9017E
:103630009091CA010E94BC09069708F44FC080917E
:10364000630590916405A0916505B091660580932E
:10365000780590937905A0937A05B0937B058091C6
:10366000670590916805A0916905B0916A058093FE
:103670007C0590937D05A0937E05B0937F05809196
:103680006B0590916C05A0916D05B0916E058093CE
:10369000800590938105A0938205B0938305809166
:1036A0006F0590917005A0917105B091720580939E
:1036B000840590938505A0938605B09387051092A5
:1036C000CB010CC0E3E6F5E080E1DF011D928A95B5
:1036D000E9F77FCF8091CB018111A8CF8091CF01F5
:1036E000882381F08091CC019091CD010E94BC098A
:1036F0002091040128171906A0F45A981092CF01BE
:103700001092CE01812FDF91CF911F910F91FF90E9
:10371000EF90DF90CF90BF90AF909F908F907F9071
:10372000089520915F0522FFEDCF9091CE0182FD9B
:1037300007C09111E7CF81E08093CE015A9AE2CF82
:10374000992301F31092CE015A98DCCFAB01BC0152
:1037500088E190E00C94C9320F931F93CF93DF93CD
:10376000CFE5D5E0282F220F220F220F98819770E6
:10377000922B988382958695837000E615E0F80178
:1037800090819C7F892B808360915E0570915F059D
:1037900080916005909161050E94A61B8881982FF9
:1037A000969596959695F801808183708295880FFD
:1037B000807E892B1F928F938DE993E09F938F9347
:1037C0000E94E4060F900F900F900F90DF91CF9121
:1037D0001F910F9108950F931F93CF93DF93C0E62E
:1037E000D5E0282F220F220F220F98819770922B5D
:1037F000988301E615E0982F929596959770F801B9
:103800008081887F892B808360915E0570915F0540
:1038100080916005909161050E94A61B8881982F78
:10382000969596959695F80180818295880F807E71
:10383000892B1F928F938FE793E09F938F930E9422
:10384000E4060F900F900F900F90DF91CF911F9192
:103850000F9108950F931F93CF93DF93CEE5D5E09B
:10386000282F220F220F220F98819770922B988376
:103870008295869583700FE515E0F80190819C7F15
:10388000892B8083688179818A819B810E94A61B14
:103890008881982F969596959695F80180818370EA
:1038A0008295880F807E892B1F928F9386E693E006
:1038B0009F938F930E94E4060F900F900F900F90AC
:1038C000DF91CF911F910F9108950F931F93CF9385
:1038D000DF93CEE5D5E08881816088830E94D40A99
:1038E0008881897F88830FE515E0F80180818770E2
:1038F000E0E6F5E090819C7F908380628B7FF80109
:10390000808384E080930401688179818A819B812E
:103910000E94A61B8881869583701F928F9389E4ED
:1039200093E09F938F930E94E4068881982F969549
:1039300096959695F801808183708295880F807E98
:10394000892B1F928F9380E393E09F938F930E9424
:10395000E4068DB79EB708960FB6F8949EBF0FBECB
:103960008DBFDF91CF911F910F910895CF93DF937A
:10397000CEE5D5E088818E7F88830E94D40A1F928D
:103980001F9285E193E09F938F930E94E4060F902E
:103990000F900F900F90688179818A819B81DF91D0
:1039A000CF910C94A61BCF93DF93CEE5D5E0888111
:1039B000816088830E94D40A1F9281E08F938AEFEE
:1039C00092E09F938F930E94E4060F900F900F90C8
:1039D0000F90688179818A819B81DF91CF910C94CE
:1039E000A61B6CEE7EEF90E080E00E94D53260E096
:1039F00082E090E00E94B73260E083E090E00E94B5
:103A0000B73210924E0510924F0510925005109249
:103A1000510560E084E090E00E94B73260E081E20E
:103A200090E00E94B73260E085E090E00E94B732FB
:103A300060E086E090E00E94B7326FEF87E090E0B0
:103A40000E94B73240E050E0BA0188E090E00E9466
:103A5000C93260E08DE090E00E94B73240E050E073
:103A6000BA0188E190E00E94C93260E087E190E00D
:103A70000E94B73240E050E0BA018CE190E00E9431
:103A8000C93260E080E290E00E94B7320E94651C7B
:103A900040E050E0BA018FE090E00E94C93240E07F
:103AA00050E0BA0183E190E00C94C9324F925F92EA
:103AB0006F927F928F929F92AF92BF92CF92DF923E
:103AC000EF92FF920F931F93CF93DF938C01FC0132
:103AD00083819481892B39F040815181842F852302
:103AE0008F3F09F0DCC6DF91CF911F910F91FF90BE
:103AF000EF90DF90CF90BF90AF909F908F907F908E
:103B00006F905F904F900895F80182818111E5C612
:103B1000C430FDE5DF0709F48AC008F06FC0C33088
:103B20003DE5D30709F47BC0C63EFCE5DF0709F09D
:103B3000D9C6F801828181110E94D31CF8018281CB
:103B4000C93EFCE5DF0709F0C3C081110E94651C76
:103B5000F8018281CC3EFCE5DF0709F0F0C0882344
:103B600081F080915E05982F969596959695809117
:103B70005F0583708295880F807E892B8F5F0E94FE
:103B80002A1CF8018281C23FFCE5DF0709F0F0C082
:103B90008823B1F080915F05982F9695969596951C
:103BA0008091600583708295880F807E892B853097
:103BB00008F400C18150990B809304010E94AC1B52
:103BC00080915E0580FF06C19091DB06913009F07F
:103BD00001C1F8019281992309F401C1869583708E
:103BE000823008F4EEC0FE01E850FD45E532F105F3
:103BF00008F0FDC0EE5DFC4C0C949D32C6308DE5A6
:103C0000D807D9F0C7309DE5D90709F08DCF60916D
:103C10000001709101014FEF80ED94E015C086ED39
:103C200091E00E94861681E08093D6045CCF80EDFF
:103C300094E00E94861682E0F7CF609102017091B5
:103C4000030141E086ED91E0DF91CF911F910F914B
:103C5000FF90EF90DF90CF90BF90AF909F908F90AC
:103C60007F906F905F904F900C9491276091E60643
:103C70007091E70622E031E041E086ED91E00E949C
:103C8000B81028C66091E6067091E70620E031E0A2
:103C90004FEF80ED94E0F3CF813061F0823009F096
:103CA00043CF609102017091030198014FEF80EDC5
:103CB00094E008C06091000170910101980141E019
:103CC00086ED91E00E94940D2FCF81110E94B61CC9
:103CD000F8018281CA3EFCE5DF0709F021C688238E
:103CE00071F190915E05892F86958F5F8370880FA3
:103CF000997F892B80935E05982F9670963019F4E2
:103D0000897F80935E0580915E05867091E009F061
:103D100090E01F929F9386E394E09F938F930E947D
:103D2000E40660915E0570915F0580916005909159
:103D300061050E94A61B0F900F900F900F90F80145
:103D40008281CD3EFCE5DF0709F016C6882381F0AD
:103D500080915E05982F96959695969580915F0532
:103D600083708295880F807E892B81500E942A1C47
:103D7000F8018281CF3EFCE5DF0709F01CC68823ED
:103D800009F41ECF80916005982F9695969596958B
:103D9000809161058295880F807E892B883768F431
:103DA000865F0E94EB1B0CCF0E94D31CAFC584E042
:103DB00090E0FDC584E690E0FFCE88E7F2CF84E195
:103DC000F0CFB801CE010E94A60A882309F40BCFD8
:103DD0000E948B0AF8018281882349F004CF867003
:103DE00031F0B801CE010E94A60A8111F1CFF8018D
:103DF000858182958F701F928F93858181701F922C
:103E00008F9384818F9383818F9382811F928F936D
:103E100081811F928F9380811F928F93DF93CF9325
:103E20008CE694E09F938F930E94E4068DB79EB733
:103E300040960FB6F8949EBF0FBE8DBFC33F9CE562
:103E4000D90709F40CC108F09EC0C83DFCE5DF07A6
:103E500009F401C1C93D2CE5D20709F40CC1C73DE5
:103E60003CE5D30709F09EC026E241EE61EEC801B1
:103E7000DF91CF911F910F91FF90EF90DF90CF9046
:103E8000BF90AF909F908F907F906F905F904F907A
:103E90000C94FE1287E996E00E946213A8CF87E88F
:103EA00096E0FACF87E796E0F7CF8CE696E0F4CF7E
:103EB00084E696E0F1CF8CE596E0EECF8EE496E0D6
:103EC000EBCF82E496E0E8CF86E396E0E5CF8BE2A5
:103ED00096E0E2CF8BE196E00E9462138BE096E0E1
:103EE000DBCF8DEF95E0D8CF8FEE95E0D5CF85EE87
:103EF00095E00E9462138DED95E0CECF8AED95E0BE
:103F0000CBCF80ED95E0C8CF8EEC95E0C5CF8CECA3
:103F100095E0C2CF84EC95E0BFCF8CEB95E0BCCFB1
:103F200084EB95E0B9CF8CEA95E0B6CF84EA95E0D2
:103F3000B3CF8CE995E0B0CF84E995E0ADCF8CE8C4
:103F400095E0AACF82E895E0A7CF89E795E0A4CFD6
:103F50008AE695E0A1CF82E595E09ECF8CE395E0DF
:103F60009BCF81E395E098CF8EE195E095CF88E0F7
:103F700095E092CF81EF94E08FCF86ED94E08CCFE7
:103F800081EC94E089CFC53F8CE5D80709F46FC078
:103F900008F469C027E245EE66EEC63FECE5DE07B1
:103FA00009F465CFF8018281882309F41FC51092B6
:103FB000D704C230FCE5DF0708F43EC1C6312CE56A
:103FC000D20738F09E012A5F3C452930310508F0C0
:103FD00033C10E9463169093740580937305C031BA
:103FE0003CE5D30709F4F7C008F085C0C8309CE56C
:103FF000D90709F4E6C008F054C0C430FCE5DF0777
:1040000009F4D7C0D8F5C2303CE5D30709F4C7C0DE
:10401000C330DC4509F4C9C060917305C0917405D3
:1040200084E090E00E94B7326C2F81E290E00E9421
:10403000B732DF91CF911F910F91FF90EF90DF90FA
:10404000CF90BF90AF909F908F907F906F905F9038
:104050004F900C94711627E245EE65EE08CF26E2EC
:1040600041EE60EE04CF27E245EE64EE00CF26E29B
:1040700041EE62EEFCCE28E241E0EFCF8091730585
:104080008061C6309CE5D90709F48CC08091730526
:104090008860C730DC4508F485C080917305806274
:1040A00081C0809173058D7FCC30FCE5DF0709F47A
:1040B00079C070F4809173058C60CA303CE5D307F9
:1040C00009F470C008F481C0809173058E7F6AC0C6
:1040D00080917305877FCE309CE5D90709F462C0D3
:1040E000809173058B7FCF30DC4508F45BC08091F5
:1040F00073058F7E57C0CB3FFCE5DF0709F45DC039
:1041000030F5C3313CE5D30709F46DC078F4C13113
:104110009CE5D90709F463C0C231DC4509F07CCFC6
:104120000E947116809173058F773CC0C531FCE504
:10413000DF0709F460C008F474C0809174058160E1
:10414000CA3FDC4509F068CF8093740565CFCF3F47
:104150008CE5D80709F44BC088F4809174058D7FF5
:10416000CD3FECE5DE0781F3809174058E7FCE3F75
:10417000DC4550F3809174058360E6CFC1302DE5B6
:10418000D20709F457C008F442C060E0C230DD45F0
:1041900009F042CF8EE090E00E94B7323DCF80918F
:1041A000730581608093730537CF809173058260BA
:1041B000F9CF809173058460F5CF8091740582609A
:1041C000C3CF809173058064EDCF0E9471168091FA
:1041D00073058068E7CF809173058F7DE3CF809171
:1041E00073058F7BDFCF80917305837FDBCF809159
:1041F00074058C7FA9CF8091730582FB992790F974
:1042000021E0922790FB82F990FB83F9CBCF80913C
:104210007405982F909591708E7F892B90FB81F972
:1042200093CF0E94711690917305892F97FB87F9A0
:104230008058B8CF61E0AECFC6319CE5D90709F010
:10424000E1C380914C058A7A91E009F490E0909363
:10425000D804811115C089E20E941610DF91CF9118
:104260001F910F91FF90EF90DF90CF90BF90AF9094
:104270009F908F907F906F905F904F900C94B20EB4
:1042800085E3EACF85E3BBC39091E806892F8E7F53
:1042900090FF81608093E80680FF14C08EEA96E06C
:1042A000DF91CF911F910F91FF90EF90DF90CF9012
:1042B000BF90AF909F908F907F906F905F904F9046
:1042C0000C944B068CE996E0EBCFDF91CF911F91D8
:1042D0000F91FF90EF90DF90CF90BF90AF909F90A5
:1042E0008F907F906F905F904F900C94F11CF8012D
:1042F000C081D1818823D1F1CE010E94C30CF82E58
:10430000682FCE010E941D0ABE018F2D0E94270B2F
:10431000D82FC92FA82EF801C580C2943FE0C32230
:10432000F280F11010924B0580914905877079F069
:10433000FF2069F080E28D0F883048F082E00E9413
:10434000820F809149058770EE24E3948111E12C5E
:10435000DC2ED2942FE0D222FBE0FD1508F440C001
:10436000ED2DF0E0E95BFC4C0C949D32CE010E94F7
:10437000F509F82EC9CF2C2F2F70C22EC07F19F04F
:10438000C29490EFC922FF20C9F0CC2069F080E2EE
:104390008D0F883010F0A1100BC080914C05C82AF9
:1043A000C0924C050E94B20E8D2F0E94361218C08A
:1043B00080914B05C82AC0924B05F4CF8D2F0E94E7
:1043C0005B10CC2069F0C094D05ED83010F0A11002
:1043D0003FC080914C05C822C0924C050E94B20E8D
:1043E000ED2DE850FF0B349720F40E947F0A0E94C5
:1043F000330DEE20A9F08091490580FD11C0F80130
:1044000012828595859585950E949A0FC8010E9414
:10441000561D809149058595859585950E945F0F6C
:10442000F80140815181628173818481DF91CF9154
:104430001F910F91FF90EF90DF90CF90BF90AF90C2
:104440009F908F907F906F905F904F900C94490D4C
:1044500080914B05C822C0924B05C0CF3C2F3F70C6
:10446000B32EC07FC03219F0B29480EFB822AA20D8
:1044700071F091E0A91661F1FF20B9F1CC2071F142
:10448000F801858180FF90CF8F70858327C0FF2042
:1044900091F090914D058B2D892BC11003C00E9486
:1044A000D00F9ECFE1E0CE12FACF981709F498CF43
:1044B00080934D0595CFC11006C00E94EF098B2D4A
:1044C0000E94C50F8DCFF1E0CF1609F489CFF5CF4B
:1044D000FF2031F025E02C1508F482CF8B2DDFCFA3
:1044E00034E03C1508F47CCFEACFCC2041F3D9333B
:1044F00049F4FFEF27EE33E0F15020403040E1F780
:1045000000C000008D2F0E945B106ACF8C2F869513
:104510008695837069F0813009F062CF8D2F9C2FD2
:104520009370F11002C090E080E00E94530A58CFCF
:104530008D2F9C2F9370F11002C090E080E00E94BC
:10454000690A4ECFFF2009F1D53F99F0D63FB9F067
:10455000D43F49F48091D9049091DA04816090931A
:10456000DA048093D9048D2F0E9443090E941A0E09
:1045700037CF8091D9049091DA048260F0CF809196
:10458000D9049091DA048460EACFD53F89F0D63F10
:10459000A9F0D43F49F48091D9049091DA048E7F38
:1045A0009093DA048093D9048D2F0E948208DECF85
:1045B0008091D9049091DA048D7FF2CF8091D90453
:1045C0009091DA048B7FECCF8C2F837009F065C05B
:1045D000F11006CF8D2F829586958770880F880FF2
:1045E0006D2F6F70862E912CB12CA12C082E04C03B
:1045F000880C991CAA1CBB1C0A94D2F740E050E01E
:10460000BA01D4FF0FC04FE050E060E070E004C09A
:10461000440F551F661F771F8A95D2F74095509516
:1046200060957095C695C695C370C23019F1D8F4DF
:1046300040904E0550904F05609050057090510588
:10464000C13069F0482959296A297B29CB01BA016F
:1046500064217521862197210E94BB0FC1CE842839
:104660009528A628B728CB01BA01682979298A2973
:104670009B29F2CF482959296A297B2980904E0528
:1046800090904F05A0905005B0905105CB01BA0114
:10469000682579258A259B25DFCF8695FF2011F097
:1046A0008C2F8170882309F49BCE8D2F829586955F
:1046B0008770880F880F6D2F6F70862E912CB12C0C
:1046C000A12C082E04C0880C991CAA1CBB1C0A949F
:1046D000D2F740E050E0BA01D4FF0FC04FE050E005
:1046E00060E070E004C0440F551F661F771F8A9575
:1046F000D2F74095509560957095C695C695C37054
:10470000C23019F1D8F440904505509046056090AC
:10471000470570904805C13069F0482959296A2930
:104720007B29CB01BA0164217521862197210E9442
:10473000550F56CE84289528A628B728CB01BA0154
:10474000682979298A299B29F2CF482959296A2978
:104750007B298090450590904605A0904705B09034
:104760004805CB01BA01682579258A259B25DFCF2D
:10477000CF70FF2029F08C2F0E949A0F8D2F8FCEA3
:104780008D2F0E94C50F8C2F0E945F0F29CE8D2F79
:1047900092EFA91609F450C09A1578F0E0EFAE1622
:1047A00019F1F1EFAF1609F43FC0FF2009F467C01B
:1047B000C110FACD8C2F8F713CC023EFA21609F4E3
:1047C00040C034EFA312F1CFFF2009F44DC0CF71E8
:1047D0008C2F0E949A0FE8E0CE9FC00111248360C5
:1047E000809349058C2F25C0FF20C9F084E08C15EB
:1047F00008F4F6CDCF7161E070E080E090E004C095
:10480000660F771F881F991FCA95D2F780904505BC
:1048100090904605A0904705B0904805A4CF95E03C
:104820009C1508F4DDCDE6CF8C2F8F71FF2009F4A5
:10483000ABCF0E949A0FD4CD8C2F8F71FF20C9F37C
:10484000A3CF60E070E0CB01FF2009F470CFCF71FF
:1048500061E070E080E090E004C0660F771F881F81
:10486000991FCA95D2F763CF81E00E94820FF1E0D1
:10487000FC1508F0B5CD82E00E94820FB1CDCC20AE
:1048800059F0893309F03ECE2FEF37EE83E0215007
:1048900030408040E1F734CE8C2F8F7175CF62812C
:1048A000738184810E94490DEC018091D604882394
:1048B00009F42AC9C530EDE5DE0709F0EDC9F801B4
:1048C0009281992309F40FC9813009F4CFC982304C
:1048D00009F4D8C91092D60406C9C63E2CE5D20701
:1048E00009F42AC9F8018281C73EFCE5DF0709F413
:1048F000ECC9C83E2CE5D20709F020C9882381F015
:1049000080915E0580FF50CA0E94B61C60915E05D2
:1049100070915F0580916005909161050E94A61BD2
:10492000F8018281CB3EFCE5DF0709F011C988233D
:1049300019F190915F05892F8B7F92FF846080939E
:104940005F0560915E0570915F05809160059091B3
:1049500061050E94A61B80915F0582FB882780F974
:104960001F928F9383E594E09F938F930E94E406B8
:104970000F900F900F900F90F8018281C13FFCE5DE
:10498000DF0709F0FEC88823B1F080915F05982FFA
:104990009695969596958091600583708295880F7F
:1049A000807E892B843608F002CA90E001968093BD
:1049B00004010E94AC1BF8018281C03FFCE5DF07C7
:1049C00009F0FEC8882309F4FBC880916005982F80
:1049D000969596959695809161058295880F807E33
:1049E000892B843108F4EBC98A50DBC9C631DC4518
:1049F00009F07DCC8091D804811144CC89E20E94D9
:104A0000DA0F2CCCC1309CE5D90709F43DCCCE3D62
:104A1000ECE5DE0709F459CCC115DC4509F067CC9B
:104A20000E947116EFEFF4E32CE0E150F0402040DB
:104A3000E1F700C000005A9887E797E790930108D4
:104A4000809300080E94AB091F93CF93DF9380915E
:104A5000E004807FA9F48091DD04882389F08091AF
:104A60001205D091E1046091DB047091DC04A09107
:104A7000DE04B091DF04C62FC72316E0D81304C0AC
:104A8000DF91CF911F91089590E0109711F0CF3FE3
:104A900019F401968770F2CF189F9001199F300D7D
:104AA0001124F901EE51FB4F41814713F2CF4081B0
:104AB0004613EFCF42814111ECCF438154814A1B11
:104AC0005B0B483C510528F78091E0048F708061B2
:104AD0008093E004F901E951FB4F80818F70806180
:104AE00080838BED94E00E94561DDF91CF911F9142
:104AF0000C94490AAF92BF92CF92DF92EF92FF924D
:104B00000F931F93CF93DF93CDB7DEB761970FB6A7
:104B1000F894DEBF0FBECDBF8C0185E0F801DE0149
:104B20001D9601900D928A95E1F7F801808191819F
:104B3000E2802BEDA22E24E0B22E6091DE04709173
:104B4000DF046115710509F43EC13091DB04409129
:104B5000DC04232F24232F3F09F435C1C380D480E4
:104B6000F090DD04F601E61BF70BFF2009F4FBC013
:104B70002091E004522F507FE83CF10508F0BBC0C3
:104B8000511178C0FE2C491321C038131FC0E11009
:104B90001DC02F7020612093E004C5010E94561DA6
:104BA0008091E004F80185838F2D61960FB6F8940B
:104BB000DEBF0FBECDBFDF91CF911F910F91FF9050
:104BC000EF90DF90CF90BF90AF900895CD2829F05F
:104BD000282F29232F3F09F014C120E0F22FF17074
:104BE000DF2E20FF3DC0209112054091E10456E0E8
:104BF000241315C08D879E878D859E850E94050D87
:104C0000292F22952F702230F8F0243020F59F7044
:104C1000F9F0F8019581907FD9F4D12C1FC030E0D4
:104C2000529FF001539FF00D1124EE51FB4F618113
:104C3000961306C06081861303C06281E61210C01D
:104C40002F5F3F4F2770D4CF9F7011F0882329F337
:104C5000805E883010F3C8010E94561DFD2CA4CF41
:104C6000EE2009F4A1CF8091E00481608093E004FC
:104C7000F12C9ACF491312C0381310C0E1100EC0A6
:104C8000F8012583C8010E94561D86E0F801ABEDAE
:104C9000B4E001900D928A95E1F786CF8D879E87CB
:104CA0008D859E850E940F0D882309F1EE20F9F075
:104CB0008091E004803270F02091DB043091DC04BC
:104CC00038872F831986DB86CA868C87CE010796A4
:104CD0000E94561D86E0F801ABEDB4E001900D9204
:104CE0008A95E1F70E942425FF24F3945DCFC80143
:104CF0000E94561DF9CF51110AC08BED94E00E941D
:104D0000561D86E0F50111928A95E9F7B1CF491356
:104D10000FC038130DC0E1100BC0F8012583C80186
:104D20000E94561D86E0F50111928A95E9F73CCF65
:104D30008D879E878D859E850E940F0D8823B9F2F1
:104D4000EE20A9F28091E004803220F22091DB0471
:104D50003091DC043A8329831B82DD82CC828E83EE
:104D6000CE010196B5CFE83CF105E0F6FE2CEE2031
:104D700009F4BDCF491316C0381314C08091E00464
:104D800080FD83CF982F907F09F47FCFF801858332
:104D9000903F09F477CF982F907F905F8F70892B89
:104DA000858370CF8D879E878D859E850E940F0D90
:104DB000811190CF8091E00481608093E004C8016C
:104DC0000E94561DF1CEEE2009F491CF8D879E876B
:104DD0008D859E850E940F0DF82E882309F487CFBC
:104DE00086E0F801ABEDB4E001900D928A95E1F711
:104DF0008091DB049091DC040E94050D0E94242523
:104E0000D3CE21E02E25EACE1F93CF93DF93CDB7EB
:104E1000DEB767970FB6F894DEBF0FBECDBF4B8BE2
:104E20005C8B6D8B7E8B8F8B1A8A198A85E0FE01D5
:104E30007396DE011D9601900D928A95E1F786E04A
:104E4000FE013D96DE01179601900D928A95E1F7DD
:104E5000CE0107960E947A25882389F016E080917A
:104E600012059091E104891349C067960FB6F89432
:104E7000DEBF0FBECDBFDF91CF911F91089586E0B9
:104E8000FE013796DE01119601900D928A95E1F7A9
:104E90008A859B85892B11F38F81988589238F3F84
:104EA000E9F22091E10430E0C90101968770992769
:104EB000409112054817190671F40E94711610925C
:104EC000E1041092120586E0EBEDF4E0DF011D92A3
:104ED0008A95E9F7C3CF96E0929FD001939FB00DDA
:104EE0001124AE51BB4FFE01319601900D929A955F
:104EF000E1F78093E1040E94490AB0CF819FC0018D
:104F000011248E519B4F0E947A25882309F4ADCF3E
:104F10008091120590E00196877099278093120581
:104F20009ECF8F929F92AF92BF92EF92FF920F937C
:104F30001F93CF93DF93EC017B01042F8091E80650
:104F400080FF10C082E0413009F481E01F928F930E
:104F500087EB93E09F938F930E94E4060F900F904E
:104F60000F900F908090450590904605A0904705C2
:104F7000B09048050E94711660E070E0CB010E947D
:104F8000550F86E0080280011124CE15DF05A9F433
:104F90000E9471168092450590924605A0924705A1
:104FA000B0924805DF91CF911F910F91FF90EF9044
:104FB000BF90AF909F908F900895CE010E94561D94
:104FC000C00FD11FE2CF1F920F920FB60F92112484
:104FD0002F933F934F935F936F937F938F939F9301
:104FE000AF93BF93CF93DF93EF93FF93D091E900FB
:104FF000DF708091EC00C82FC17080FDC0E8109276
:10500000E9008091F000877F8093F00078940E94FF
:105010009F161092E9008091F00088608093F00064
:10502000CD2BCF70C093E900FF91EF91DF91CF912D
:10503000BF91AF919F918F917F916F915F914F91B0
:105040003F912F910F900FBE0F901F9018951F92B8
:105050000F920FB60F9211242F933F934F935F93AC
:105060006F937F938F939F93AF93BF93EF93FF9330
:105070008091E10082FF15C08091E20082FF11C0A3
:105080008091E1008B7F8093E1002091B5062F5F36
:10509000822F62E30E946932992309F4D7C02093DA
:1050A000B5068091DA0080FF28C08091D80080FF8B
:1050B00024C08091DA008E7F8093DA008091D9003D
:1050C00080FFFAC080E189BD82E189BD09B400FE9C
:1050D000FDCF81E08093DC0682E598E00E944B06DC
:1050E0008091B606811109C00E94ED060E94B807A2
:1050F0008091E20084608093E2008091E10080FF73
:1051000020C08091E20080FF1CC08091E2008E7F71
:105110008093E2008091E20080618093E2008091C0
:10512000D80080628093D80019BC85E08093DC06AB
:105130008AE598E00E944B0682E08093DB060E949D
:10514000E00A8091E10084FF3DC08091E20084FF8D
:1051500039C080E189BD82E189BD89B5982F917000
:1051600080FFFBCF8091D8008F7D8093D800809105
:10517000E1008F7E8093E1008091E2008F7E80933A
:10518000E2008091E20081608093E2008091DD0680
:10519000882309F49BC084E08093DC068EE598E0C8
:1051A0000E944B060E9471160E947F0A0E94330DD6
:1051B0009091DC0681E0943009F080E08093DB067A
:1051C0000E94E00A8091E10083FF2FC08091E200FD
:1051D00083FF2BC08091E100877F8093E10082E014
:1051E0008093DC061092DD068091E1008E7F809333
:1051F000E1008091E2008E7F8093E2008091E200E6
:1052000080618093E20042E060E080E00E948607D7
:105210008091F00088608093F00082E698E00E9420
:105220004B061092DB060E94E00AFF91EF91BF91BE
:10523000AF919F918F917F916F915F914F913F912E
:105240002F910F900FBE0F901F9018951092B506DA
:105250008091B406882309F424CF8091DC06843041
:10526000C1F49091E9009F702091EC00822F817031
:1052700020FD80E8892B95E09093E9009091EB0068
:1052800090FF04C09091EE0097FD08C08F7080934E
:10529000E9001092B40605CF1092F1009091E80059
:1052A00095FDFACF9091E80090FFF0CF9091E80043
:1052B0009E779093E800EACF19BC1092DC0686E551
:1052C00098E00E944B061092B60617CF8091E3003B
:1052D00087FD93E09093DC0661CFCDB7DEB7CC5667
:1052E000D1090FB6F894DEBF0FBECDBF84B7877F5C
:1052F00084BF0FB6F894A895809160008861809370
:105300006000109260000FBE80E890E00FB6F89445
:1053100080936100909361000FBE1092DB060E94A3
:10532000E00A85B7806885BF85B7806885BF0E9421
:10533000ED060E94B8078091E20084608093E2004D
:105340008BE191E1909397018093960178948091FD
:10535000DC068823A1F01091E9001F709091EC0009
:10536000892F817090FD80E8182B1092E9008091C0
:10537000E80083FD0E949F161F701093E90082E0F1
:1053800084BD93E095BD9AEF97BD80936E00579AC8
:105390006E9A269A5F9876982E9888E797E09F9362
:1053A0008F930E94E406229A269A879A219A2E9831
:1053B0008F9829980E947F0D2AE22A95F1F700C064
:1053C00081E797E09F938F930E94E40686E697E03B
:1053D0009F938F930E94E4068E9A869A219A229A2E
:1053E0008E9A29982A988FE597E09F938F930E9431
:1053F000E4068BB183618BB9469A0E94CB099093E6
:105400005D0580935C058FEF9FE00E9456148FEF3F
:105410009FE00E9456148FEF9FE00E9456140FB633
:10542000F894DEBF0FBECDBF10E100E00E94890DF1
:105430008095082B5AE25A95F1F700C01150B1F748
:1054400090E080E00E94561490E080E00E945614A4
:1054500090E080E00E94561490E1F92E0E94890DA0
:10546000182B6AE26A95F1F700C0FA94F110F6CFB2
:10547000102350E040E061E0812F0E946C14909373
:105480005B0580935A0550E040E060E0812F0E9468
:105490006C14F82E092F80935805909359054EE10E
:1054A00050E06FEF70E0CE0101960E940133509101
:1054B0005A0540915B058F2D902F8F3F7FE0970716
:1054C00014F08EEF9FE00196252F342F281739070F
:1054D0000CF49C016901C81AD90A8EE08C9D7001F8
:1054E0008D9DF00C112406E9202E06E0302EF101EE
:1054F0008FE0A82EB12CC701B5010E947532C901F9
:10550000861B970B81939193EC18FD0886E0E43B92
:10551000F80789F7A2EBCA2EA6E0DA2EB6E7EB2E43
:10552000B6E0FB2E0EE0412F602FD6019E918E91AA
:105530006D010E9474153701B0E16B0E711CF7010B
:1055400084E04191519161917191D3018D909D9031
:10555000AD90BD903D019F01245031094829592942
:105560006A297B29D9014D935D936D937C931397A1
:10557000815039F70150B0E1EB1AF1080111D3CF96
:10558000F6EAEF2EF5E0FF2E4BE05AE0D70183E07C
:1055900090E0412E512C6F965FAE4EAE6F976F9696
:1055A0002EAD3FAD6F97082E02C0359527950A9412
:1055B000E2F7490161E086229924BA0130E020E057
:1055C000FB01C590D490CD28E9F081149104D1F06D
:1055D000412C512C32014394022E04C0440C551C22
:1055E000661C771C0A94D2F7AD90BD90CD90DC90EC
:1055F0001397A428B528C628D728AD92BD92CD927E
:10560000DC9213972F5F3F4F6E5F7F4F2431310540
:10561000B9F601971496485D5F4F8F3F980709F0E0
:10562000BECFAE014F5F5F4F6D965FAF4EAF6D97D0
:1056300026E9A22E26E0B22E6A0100E0F70184E0FE
:105640000E3009F08CC1A70160E0812F0E946C141C
:10565000D6018D939D936D01A70161E0812F0E947A
:105660006C14F501819391935F01F0E1EF0EF11C51
:105670000F5F0F3019F7912C00E08FE0C82ED12C6E
:1056800090EF892EA92CB12C7601EA18FB08802F07
:10569000002E000C990B8E159F050CF47AC10EE0BC
:1056A00009192FE0E216F10409F07EC2D1018D91B3
:1056B0009D911D016D96EEADFFAD6D9721913191DC
:1056C0006D96FFAFEEAF6D97820F931F97FD01961A
:1056D00095958795F10132978837910508F073C247
:1056E00011821082F4EB2F16F6E03F06F9F60E94C5
:1056F000CB0920915C0530915D05821B930B909343
:105700005D0580935C05559A5D9A209A289AE3E698
:10571000F5E083E795E0A8E7B5E0119211921192C8
:1057200011921D921D921D921D928E179F07A9F72F
:1057300090E080E00E94B1328C3E9E4F11F00E94BA
:10574000F11C8091E80681608093E80690E080E09B
:105750000E94B1328C3E9E4F11F00E94F11C88E1F4
:1057600090E00E94AB3260935E0570935F0580937A
:1057700060059093610520915F05269526952695F5
:105780003091600533703295330F307E232B209398
:105790000401672B682B692B11F0211119C20E949B
:1057A000651C5A98529A8091DB06813011F40E9450
:1057B0008B0A8091E80680FF44C08EEC97E09F93AF
:1057C0008F930E94E4068091E8060F900F9080FF6F
:1057D00038C089EB97E09F938F930E94E4068091F5
:1057E000E8060F900F9080FF2CC080915E058170BD
:1057F0001F928F938EE997E09F938F930E94E40608
:105800008091E8060F900F900F900F9080FF19C0C5
:1058100080915E05982F96959695969580915F0557
:1058200083708295880F807E892B1F928F9385E8E5
:1058300097E09F938F930E94E4060F900F900F9034
:105840000F90539A90E080E00E94B1328C3E9E4FC0
:1058500011F00E94F11C82E090E00E94A33280933C
:10586000E8060E946316909374058093730583E0A5
:1058700090E00E94A332682F70E090E080E00E94E8
:10588000BB0F86E091E0909376058093750581E4E7
:1058900098E00E944B0640907F0150908001A996AD
:1058A0005FAE4EAEA9978091DC06853009F493C1B6
:1058B0000E94491A26E935E06D963FAF2EAF6D97ED
:1058C00048E755E06F965FAF4EAF6F9710E000E08E
:1058D000A7960FAFA7976F96AEADBFAD6F978D90A0
:1058E0009D90AD90BD906F96BFAFAEAF6F976D9628
:1058F000EEADFFAD6D9741905190619071906D96B6
:10590000FFAFEEAF6D97481459046A047B0409F0A9
:10591000A9C10F5F1F4F04301105D1F68FEF6796B5
:105920008FAF679768968FAF689769961FAE699734
:105930000E94CB098160782F6B969FAF8EAF6B97DB
:1059400067964FAD679768965FAD689769966FAD3C
:1059500069976B968FAD6B970E940427DAC14190CF
:10596000519061907190DF0114974485558566854B
:105970007785409550956095709544215521662115
:1059800077214D935D936D937C931397815039F7F5
:105990005ACEB4E0880F991FBA95E1F7FC01EA5599
:1059A000FA4F84E04191519161917191452B462BC1
:1059B000472B09F021C58150A9F777247394700E05
:1059C00009C0AE014F5F5F4F672D8FEF870D0E94BB
:1059D000331673947E141F04A4F3482D95014203DB
:1059E000F001439FF00D1124EA57F94F84E0119222
:1059F0001192119211928150D1F7939443CE880F56
:105A0000991FFC01EA56F94FA1E0B0E0AC0FBD1FB1
:105A10008A0F9B1F40815181FC0180819181481B2D
:105A2000590B241735070CF4BDC0A9016F5F9A010B
:105A3000862F062E000C990B8E159F0504F3232B41
:105A400009F434CEB02EC72CD12C8B2D0B2C000C8E
:105A5000990BC816D9060CF4ACC09601220F331F5F
:105A6000F901EA56F94F40815181E1E0F0E0EC0F95
:105A7000FD1FE20FF31F80819181840F951F97FD19
:105A80000196959587954601FFEF8F1A9F0A24018D
:105A9000440C551CF201EA56F94F518340832A56B3
:105AA000394FD9018D939C93E1E0F0E0EC0FFD1F9D
:105AB000E40DF51D9C012F5F3F4F31832083E4E00F
:105AC000880C991CEA95E1F7F401EA55FA4F5F0159
:105AD000108211821282138214821582168217821A
